:100000000C94C2050C94EA050C94EA050C94EA05DC
:100010000C94EA050C94EA050C94EA050C94EA05A4
:100020000C94EA050C94EA050C94EA050C94EA0594
:100030000C94EA050C94EA050C94EA050C94EA0584
:100040000C943A100C94EA050C94AA100C948410A9
:100050000C94EA050C94EA050C94EA050C94EA0564
:100060000C94EA050C94EA052D2D2D2D2D2D2D2D0A
:100070002D2D2D2D2D2D2D2D2D2D2D2D2D2D2D2DB0
:100080002D2D2D2D2D2D2D2D2D2D2D2D2D2D2D2DA0
:100090002D2D2D2D2D2D2D2D2D0033322D34303D98
:1000A0006261640033322D34303D6F6B0031362D88
:1000B00033313D6261640031362D33313D6F6B0069
:1000C000302D31353D62616400302D31353D6F6B2F
:1000D00000202053746F72653A206E6F2070726535
:1000E00073656E63652E00202057726974653A202F
:1000F0006E6F2070726573656E63652E00202041FF
:10010000726D3A206E6F2070726573656E63652E36
:1001100000202041726D20616C72656164792069F4
:10012000737375656420E2809420706F7765722D1B
:100130006379636C652072657175697265642E0000
:1001400057616974696E6720666F722062617474AA
:100150006572792E2E2E0020204272696467652018
:100160004750494F342D4750494F3520746F206513
:100170006E746572206C6F636B206D6F64652E000A
:100180002020277327203D2072657363616E207CD9
:10019000206175746F2D6465746563747320636F7B
:1001A0006E6E6563742F646973636F6E6E656374DE
:1001B0000020204D616B697461204D6F6E69746F12
:1001C0007220E28094205363616E202F20556E6C64
:1001D0006F636B204D6F646500202052656D6F76F4
:1001E000652062726964676520746F207377697433
:1001F000636820746F207363616E2F756E6C6F631C
:100200006B206D6F64652E00202042726964676503
:10021000204750494F342D4750494F35206465746D
:10022000656374656420E28692204C4F434B204DF9
:100230004F44450020204D616B697461204C4F4351
:100240004B205574696C69747920E280942054794C
:100250007065732030202F2032202F2033206F6EC6
:100260006C790020205B4C6F636B5D204661696C8C
:10027000656420616674657220616C6C20617474C1
:10028000656D7074732E0020205B4C6F636B5D2076
:10029000436865636B73756D73203A200020205BA3
:1002A0004C6F636B5D204E6F20726573706F6E7361
:1002B000652E0020205B4C6F636B5D204E6F2070BD
:1002C000726573656E636520656E746572696E67CD
:1002D00020746573746D6F64652E0020205B4C6F15
:1002E000636B5D20417474656D7074200020205B29
:1002F0004C6F636B5D204641494C45442E002020E5
:100300005B4C6F636B5D204C4F434B45442E00208C
:10031000205B4C6F636B5D20426174746572792061
:10032000697320616C7265616479206C6F636B65C1
:10033000642E00756E737570706F7274656420281A
:10034000352C20362C206F7220756E6B6E6F776E99
:10035000292E0020205B4C6F636B5D205479706503
:100360003A200020205B4C6F636B5D204552524F5A
:10037000523A204E6F2076616C6964206672616D1E
:10038000652E0020205B4C6F636B5D205072652DE5
:10039000747970652D30204843303820E2809420F5
:1003A000756E737570706F727465642E00202020F6
:1003B0002020202020202020202020202020004637
:1003C00072616D65202020202020202020203A20EE
:1003D00000202F2037005374617465206F662063FE
:1003E00068617267653A200020560043656C6C2096
:1003F000646966662020202020203A2000205600D4
:10040000286E6F2063656C6C73207265706F7274F8
:10041000656429002056005061636B20766F6C7410
:100420006167652020203A200020430054656D70EC
:1004300020284D6F736665742920203A20002043E0
:100440000054656D70202843656C6C732920202052
:100450003A20002025004F7665726C6F616420257C
:1004600020202020203A20002025004F4420252055
:10047000202020202020202020203A20002025009D
:100480004F7665726C6F6164202520202020203A11
:1004900020002025004F442025202020202020203F
:1004A000202020203A20004F7665726C6F61642016
:1004B000636E742020203A20004F44206576656EDC
:1004C00074732020202020203A20004641494C000F
:1004D0004F4B00202F2034202028004865616C7489
:1004E000682020202020202020203A20004379630B
:1004F0006C6520636F756E74202020203A200046C2
:1005000041494C004F4B00417578204353756D2095
:1005100034382D3631203A20004641494C004F4BAB
:1005200000417578204353756D2034342D343720C5
:100530003A20004641494C004F4B00436865636BCD
:1005400073756D2033322D3430203A2000464149F6
:100550004C004F4B00436865636B73756D203136FB
:100560002D3331203A2000436865636B73756D202D
:10057000302D313520203A20003135202D20556E88
:100580006B6E6F776E20637269746963616C20664D
:1005900061756C742028424D5320636F6E736964DB
:1005A000657265642064656164290035202D2057DB
:1005B00061726E696E670031202D204F7665726C16
:1005C0006F616465640030202D204F4B004E6F003A
:1005D000594553004661696C75726520636F6465A7
:1005E0002020203A2000554E4C4F434B4544004CB0
:1005F0004F434B45440043656C6C206661696C75E4
:1006000072652020203A20004C6F636B2073746168
:10061000747573202020203A200020416800436137
:10062000706163697479202020202020203A200006
:1006300031302063656C6C20424C3336787800355D
:100640002063656C6C20424C31387878003420632C
:10065000656C6C20424C31347878002020280042B0
:1006600061747465727920747970652020203A2055
:100670000044657465637465642074797065202036
:100680003A20004D66672064617465202020202098
:1006900020203A2000524F4D204944202020202085
:1006A000202020203A20004D6F64656C20202020FF
:1006B0002020202020203A20002020436865636B02
:1006C00073756D73203A200020204E6F2072657381
:1006D000706F6E736520647572696E6720766572DF
:1006E0006966792E0020204E6F2070726573656EEA
:1006F0006365206F6E20746573742D6D6F64652063
:10070000656E7465722E002020202020202020207D
:1007100020202020202020200020205265706169A8
:1007200072206672616D65203A20004261747465C2
:100730007279207374696C6C206C6F636B65642EC6
:1007400000426174746572792073756363657373B5
:1007500066756C6C7920756E6C6F636B65642E00CA
:1007600020202D3E204672616D65207265706169A2
:1007700072206661696C65642E0020202D3E204643
:1007800072616D6520726570616972207375636353
:1007900065656465642E20554E4C4F434B45442E91
:1007A0000020204672616D65207265706169722E4D
:1007B0002E2E0020202D3E205374696C6C206C6F0F
:1007C000636B65642E0020202D3E20554E4C4F4318
:1007D0004B454420627920444130342E0020204390
:1007E0006865636B73756D73203A200020204E6F2F
:1007F00020726573706F6E73652061667465722018
:10080000444130342E0020204E6F20707265736595
:100810006E636520656E746572696E6720746573BA
:10082000746D6F64652E0020204441303420726561
:100830007365742E2E2E002D2D2D20556E6C6F633A
:100840006B20617474656D7074200042617474650E
:100850007279204C4F434B45442E204661696C759C
:10086000726520636F64653A20002E20536B6970B7
:1008700070696E672E00556E6C6F636B206E6F74BF
:1008800020737570706F7274656420666F72207467
:1008900079706520004261747465727920554E4C00
:1008A0004F434B45442E00436F6D706C6574652E4D
:1008B00000426174746572792072656D6F7665644B
:1008C00020647572696E67207363616E2E204162C9
:1008D0006F7274696E672E0042617474657279205C
:1008E000666F756E6420203A200020202020202092
:1008F000202020444F204E4F54206368617267656A
:10090000206F6E20616E7920636861726765722E58
:10091000002020202020202020204672656573635F
:10092000616C65204D433930384A4B334520424D88
:1009300053202D2D206E6F2063656C6C2070726FBC
:1009400074656374696F6E2E005741524E494E476D
:100950003A205072652D747970652D3020484330EF
:10096000382062617474657279206465746563749B
:10097000656421004552524F523A204261747465B9
:100980007279206E6F7420726573706F6E64696E19
:100990006720616674657220726574726965732E72
:1009A0002041626F7274696E672E00202052656D5F
:1009B0006F7665206261747465727920616E64205F
:1009C00074727920616761696E2E00202042617423
:1009D000746572792072656D6F7665642E2057613B
:1009E0006974696E672E2E2E0020205B4C6F636B3E
:1009F0005D20426174746572792072656D6F7665F1
:100A0000642E2057616974696E6720666F72206E6C
:100A10006578742E2E2E00202042617474657279E0
:100A200020646574656374656420E2809420737447
:100A3000617274696E67207363616E2E0020205BA3
:100A40004C6F636B5D2042617474657279206465DC
:100A500074656374656420E28094206C6F636B69D5
:100A60006E672E2E2E004D616E75616C207265735F
:100A700063616E207265717565737465642E002004
:100A8000204272696467652072656D6F7665642EB9
:100A900020496E7365727420626174746572792086
:100AA000746F207363616E2E0020204D6F6465208B
:100AB0006368616E67656420E28692205343414E0D
:100AC000202F20554E4C4F434B204D4F4445002086
:100AD00020496E7365727420626174746572792046
:100AE000746F206C6F636B2E002020427269646704
:100AF00065204750494F342D4750494F3520646594
:100B00007465637465642E0020204D6F64652063F6
:100B100068616E67656420E28692204C4F434B20EB
:100B20004D4F44450000000000240027002A00002B
:100B3000000008000201000003040700000000009C
:100B400000000000000000250028002B000000002D
:100B50000023002600290004040404040404040201
:100B6000020202020203030303030301020408104A
:100B70002040800102040810200102040810200017
:100B8000DC10312111241FBECFEFD8E0DEBFCDBF76
:100B900011E0A0E0B1E0E0E4F0E502C005900D92C4
:100BA000A03CB107D9F722E0A0ECB1E001C01D9252
:100BB000A03AB207E1F715E0C1ECD5E004C02197F7
:100BC000FE010E94AA21C03CD107C9F70E94AB11C7
:100BD0000C9413280C94000080918E02E0918F02F7
:100BE000F0919002F8949181282F2095922391837F
:100BF00078943DE743E050E0315029F1DA01119754
:100C0000F1F790819823C1F3F89492819223928313
:100C10009181982B91837894A3EBBBE01197F1F726
:100C2000F894918192239183A3E1B1E01197F1F7B8
:100C30009081982381E009F080E07894E3E6F6E083
:100C40003197F1F7089580E00895EF92FF920F93A6
:100C50001F93CF93DF9328E030E080E041E0A3E2F0
:100C6000B0E09FECE92EF12C90918E02E0918F0282
:100C7000F0919002F8945181592B51836281792F20
:100C80007095672362838D01ED012197F1F7518102
:100C900057235183E8012197F1F750817894F701A8
:100CA0003197F1F7952309F0842B440F2150310936
:100CB000D9F6DF91CF911F910F91FF90EF9008959A
:100CC000CF92DF92EF92FF920F931F93CF93DF9318
:100CD00028E030E041E06BE871E093E7C92ED12CC9
:100CE000CBE2D0E00BED11E090918E02E0918F020B
:100CF000F0919002F92EF094582F542389F1F89432
:100D000052815F2152835181592B5183DE0111970A
:100D1000F1F75281952B92837894F8013197F1F78E
:100D2000440F2150310901F7F894E0918F02F091BE
:100D30009002918180918E02809598239183E09119
:100D40008F02F09190029281892382837894DF91BF
:100D5000CF911F910F91FF90EF90DF90CF9008956A
:100D6000F89452815F2152835181592B5183DB01C9
:100D70001197F1F75281952B92837894F601CECF9B
:100D8000833081F028F4813099F08230A9F0089501
:100D90008730A9F08830C9F08430B1F480918000A8
:100DA0008F7D03C0809180008F77809380000895AD
:100DB00084B58F7784BD089584B58F7DFBCF8091F6
:100DC000B0008F778093B00008958091B0008F7D40
:100DD000F9CFCF93DF93E4E3FBE08491E0E7FBE01E
:100DE000D491ECE5FBE0C491CC23A1F081110E94E9
:100DF000C006EC2FF0E0EE0FFF1FE35BF44FA59170
:100E0000B491EC91ED2381E090E009F480E0DF9172
:100E1000CF91089580E090E0FACF1F93CF93DF93B6
:100E2000282F30E0F901E15DF44F8491F901E55993
:100E3000F44FD491F901E95AF44FC491CC23A9F0AD
:100E4000162F81110E94C006EC2FF0E0EE0FFF1F5D
:100E5000ED5BF44FA591B4918FB7F894EC9111111B
:100E600008C0D095DE23DC938FBFDF91CF911F9117
:100E70000895DE2BF8CFCF93DF9390E0FC01E55986
:100E8000F44F2491895A944FFC0184918823C9F02E
:100E900090E0880F991FFC01EB5DF44FA591B49190
:100EA000FC01ED5BF44FC591D49161110DC09FB76A
:100EB000F8948C91209582238C9388812823288311
:100EC0009FBFDF91CF910895623051F49FB7F8949E
:100ED0003C91822F809583238C93E8812E2BEFCF3A
:100EE0008FB7F894EC912E2B2C938FBFEACF3FB79E
:100EF000F8948091D6019091D701A091D801B0913A
:100F0000D90126B5A89B05C02F3F19F00196A11D58
:100F1000B11D3FBFBA2FA92F982F8827BC01CD0143
:100F2000620F711D811D911D42E0660F771F881FA2
:100F3000991F4A95D1F708958F929F92AF92BF92D1
:100F4000CF92DF92EF92FF926B017C010E947707B4
:100F50004B015C01C114D104E104F104B9F00E9419
:100F60007707681979098A099B09683E73408105EA
:100F7000910580F321E0C21AD108E108F10888EE5A
:100F8000880E83E0981EA11CB11CE4CFFF90EF9067
:100F9000DF90CF90BF90AF909F908F900895262FB5
:100FA0002695820F911DFC01808160FD02C08F702B
:100FB00008958295FCCFAF92BF92CF92DF92EF92CD
:100FC000FF920F931F93CF93DF936C017B018B01F3
:100FD000040F151FEB015E01AE18BF08C017D10743
:100FE00059F06991D601ED91FC910190F081E02DCD
:100FF000C6010995892B79F7C501DF91CF911F9122
:101000000F91FF90EF90DF90CF90BF90AF90089539
:10101000FC01538D448D252F30E0842F90E0821BFE
:10102000930B541710F0CF96089501970895FC0183
:10103000918D828D981761F0A28DAE0FBF2FB11DDB
:101040005D968C91928D9F5F9F73928F90E0089533
:101050008FEF9FEF0895FC01918D828D981731F0ED
:10106000828DE80FF11D858D90E008958FEF9FEF41
:101070000895FC01918D228D892F90E0805C9F4F17
:10108000821B91098F73992708958BED91E00E943F
:10109000390821E0892B09F420E0822F089580E0AF
:1010A00090E0892B29F00E94450881110C940000E2
:1010B0000895FC01A48DA80FB92FB11DA35ABF4FED
:1010C0002C91848D90E001968F739927848FA68947
:1010D000B7892C93A089B1898C91837080648C939B
:1010E000938D848D981306C00288F389E02D80814A
:1010F0008F7D80830895EF92FF920F931F93CF937C
:10110000DF93EC0181E0888F9B8D8C8D98131AC042
:10111000E889F989808185FF15C09FB7F894EE8929
:10112000FF896083E889F989808183708064808386
:101130009FBF81E090E0DF91CF911F910F91FF90D1
:10114000EF900895F62E0B8D10E00F5F1F4F0F7379
:101150001127E02E8C8D8E110CC00FB607FCFACF34
:10116000E889F989808185FFF5CFCE010E94590871
:10117000F1CFEB8DEC0FFD2FF11DE35AFF4FF08205
:101180009FB7F8940B8FEA89FB8980818062CFCF6B
:101190000F931F93CF93DF938C01D0E0C0E0F80151
:1011A000EC0FFD1F6491662341F08BED91E00E94EE
:1011B0007B08892B11F02196F2CFCE01DF91CF91E0
:1011C0001F910F910895682F8BED91E00C947B088F
:1011D000CF93DF93EC01888D8823B9F0AA89BB896E
:1011E000E889F9898C9185FD03C0808186FD0DC059
:1011F0000FB607FCF7CF8C9185FFF2CF808185FF7A
:10120000EDCFCE010E945908E9CFDF91CF9108952B
:10121000CF92DF92EF92FF920F931F93CF93DF93C2
:101220007C01C62ED42E152F022F61E088E00E948B
:101230000D0764EA71E080E090E00E949C070E9444
:10124000EC058BE896E00197F1F78CEC0E946006C4
:10125000C3E6D1E0CE010197F1F7F70180810E944A
:101260006006F1E0CF1631F02197F1F7F7018181A7
:101270000E946006CD2DD12F0C0F1D2F111D83E66E
:10128000E82EFF24F394C017D10739F0C701019766
:10129000F1F70E9425068993F6CF60E088E0DF91A0
:1012A000CF911F910F91FF90EF90DF90CF900C9412
:1012B0000D07FF920F931F93CF93DF938C01C62FDF
:1012C000F42ED0E0FC1638F06C2FC8010E94CF0736
:1012D000D80FCF5FF7CF8D2F8F70DF91CF911F91F8
:1012E0000F91FF900895AF92BF92CF92DF92EF924D
:1012F000FF920F931F93CF93DF938C01EB018A89A9
:101300008D3008F462C08E3108F461C08AE08AAB87
:101310006B8970E090E080E00E94DB2220E030E00A
:1013200040E251E40E9431226BAB7CAB8DAB9EABB3
:101330004FE060E0C8010E945909A82EBA8C81E0F4
:10134000AB1080E088AF4FE160E1C8010E9459090D
:10135000C82EDB8C81E0CD1080E089AF48E260E2EE
:10136000C8010E945909E82EFC8C81E0EF1080E052
:101370008AAF4FE26CE2C8010E94590991E02D8DBD
:10138000281390E09BAF4DE360E3C8010E94590928
:1013900091E02E8D281390E09CAFF8019489AB105A
:1013A00018C0CD1016C0EF1014C09F7081E009F472
:1013B00080E08FABDF91CF911F910F91FF90EF9065
:1013C000DF90CF90BF90AF90089584E0A0CF85E0EC
:1013D0009ECF81E0EECF0F931F93CF93DF938C01CD
:1013E000D42F0E94CF07C82F6D2FC8010E94CF07AE
:1013F00090E1C99FE00111248C2BDF91CF911F91C7
:101400000F910895CF92DF92EF92FF920F931F9367
:10141000CF93DF93EC018B0147E166E10E94EB097A
:10142000F801808341E260E2CE010E94EB09F801FD
:10143000818368E2CE010E94CF07F801828341E3F5
:1014400060E3CE010E94EB09F801838343E362E38A
:10145000CE010E94EB09F80184836CE2CE010E9468
:10146000CF0782FB882780F9F801878364E3CE01E8
:101470000E94CF07D82E65E3CE010E94CF07C82E69
:1014800066E3CE010E94CF07F0E18F9F7001112427
:10149000FC2867E3CE010E94CF072D2D30E0322FCC
:1014A00022273295307F22273071E82A2E293F29C2
:1014B000F8013683258369E2CE010E94CF07F80147
:1014C00080876AE2CE010E94CF07F80181876BE234
:1014D000CE010E94CF07F80182876EE3CE010E9401
:1014E000CF07F80183876FE3CE010E94CF07F80191
:1014F0008487DF91CF911F910F91FF90EF90DF9044
:10150000CF9008954F70E62FE695E80FF92FF11D63
:10151000908160FD04C0907F942B908308959F700C
:1015200080E1489FA0011124F7CFCF9361E088E0CC
:101530000E940D0762E370E080E090E00E949C074B
:101540000E94EC05C82F60E088E00E940D0781E052
:10155000C13009F080E0CF91089560E088E00C94FC
:101560000D078F929F92AF92BF92CF92DF92EF9230
:10157000FF920F931F93CF93DF93D82EC62FF42E95
:10158000952EC22E862F0E946006C33389F4E8018F
:10159000085F1F4F9BE8A92EBB24B394C501019798
:1015A000F1F70E9425068993C017D107B9F78E017C
:1015B0008F2CCF2DD92D8BE8A82EBB24B394C50139
:1015C0000197F1F789910E9460068C2F88198C157C
:1015D000B0F383E592E00197F1F7E801E00EF12E18
:1015E000F11C0BE811E0CE15DF0539F0C8010197B9
:1015F000F1F70E9425068993F6CFD1100E94AD0A1B
:1016000090E080E0DF91CF911F910F91FF90EF90DC
:10161000DF90CF90BF90AF909F908F900895CF9321
:10162000DF93EC0161E088E00E940D07BE0190E0CD
:1016300080E0DF91CF910C949C070E94AD0A10923C
:10164000DA0166E970E080E090E00E949C0788EC97
:1016500090E00C940F0BCF92DF92EF92FF920F93DA
:101660001F93CF93DF93C82FD62F6A01F22E8823C2
:1016700021F084E690E00E940F0B0E94EC0581119E
:1016800006C0C1110E94AD0A81E090E006C02F2D76
:10169000A6016D2F8C2F0E94B10ADF91CF911F916F
:1016A0000F91FF90EF90DF90CF900895EF920F93FE
:1016B0001F93E22E8A01262FAC016CEC81E00E9480
:1016C0002B0B1F910F91EF9008950F931F93CF93C2
:1016D0008B01C42F242FAB0164E00E94560B892B91
:1016E00041F4F801EC0FF11D319781E090819630C3
:1016F00009F080E0CF911F910F910895CF93DF9370
:10170000D82FC92F20E2482F592F62E082E191E0C3
:101710000E94560B892BB1F4ED2FFC2FAF01405ED8
:101720005F4F8FEF90E02191922B8223E417F50712
:10173000D1F7992339F08F3F41F081E090E0DF91BC
:10174000CF91089590E080E0FACF8FEF9FEFF7CF31
:10175000CF93DF931F92CDB7DEB78091C00188236E
:1017600091F0198221E0AE014F5F5F4F63E08FE09F
:1017700091E00E94560B1092C00164E170E080E09D
:1017800090E00E949C070F90DF91CF9108950F93F6
:101790001F93CF93DF931F92CDB7DEB7198221E05D
:1017A000AE014F5F5F4F63E08CE091E00E94560B0B
:1017B0008C01892B49F481E08093C00164E170E0E1
:1017C00080E090E00E949C07C8010F90DF91CF91CC
:1017D0001F910F910895CF92DF92EF92FF921F9386
:1017E000CF93DF93CDB7DEB7A2970FB6F894DEBFE5
:1017F0000FBECDBFFC018381843628F485E04423ED
:1018000049F08FEF07C0FB0181898E3189F486E0B2
:101810004111F7CFA2960FB6F894DEBF0FBECDBF31
:10182000DF91CF911F91FF90EF90DF90CF900895BF
:10183000142FAE014E5E5F4F81E1FA0111928A953D
:10184000E9F721E162E08AE191E00E94560B892BE1
:1018500029F48AA1863011F480E0DCCF0E94C70B06
:101860009E012F5F3F4F7901892BE1F481E1F9015E
:1018700011928A95E9F721E1A70162E088E191E000
:101880000E94560B6C010E94A80B66E970E080E094
:1018900090E00E949C07CD2829F48989863011F4B4
:1018A00082E0B8CF19821A821B8223E0A70164E08C
:1018B00084E191E00E94560B892B19F48B818630CC
:1018C00019F0812F8195A6CF83E0A4CFCF92DF922C
:1018D000EF92FF920F931F93CF93DF93CDB7DEB7B5
:1018E00029970FB6F894DEBF0FBECDBF282F809189
:1018F0007A0290917B02892B09F449C0872F90E0EE
:10190000B0E0A0E0BA2FA92F982F8827A62B822B12
:10191000AD0166277727C92EDA2EEB2EFF241C2D6A
:10192000382F20918002222391F0022F10E0049F93
:10193000F001059FF00D149FF00D11244F2F2C9DE9
:10194000600111241D2D289FC0011124392FE09121
:101950008602809181029091820220918302E21797
:1019600021F0E80FF92FF11D1082E0918302E80FBA
:10197000F92FF11D4083E0918402E80FF92FF11D4A
:10198000108320918502820F911DFC01308380918C
:10199000810290918202892B09F47CC00E94770712
:1019A00000918702109188022091890230918A0269
:1019B000601771078207930740F460938702709362
:1019C00088028093890290938A0200918702109185
:1019D00088022091890230918A02601B710B820B70
:1019E000930B6C32714081059105C0F2F89480919F
:1019F0007C0290917D029A838983E0918102F0912B
:101A00008202DF0111968081898790917802E091AE
:101A10008B02F0918C0280918D02992309F449C0C8
:101A20009081982B98879081809589238F838F81CF
:101A30008C8388E08B8358856F8149853B812C811D
:101A400089819A81508347FD252F3A952083262F3F
:101A500039F0441F00C000006083000000C0F2CFD6
:101A600038E04D9160830000019761F7F0938C029C
:101A7000E0938B0249873B832C839A8389837894F4
:101A80000E9477076093870270938802809389028F
:101A900090938A0229960FB6F894DEBF0FBECDBF91
:101AA000DF91CF911F910F91FF90EF90DF90CF903A
:101AB00008959081982B98879081809589238F83B2
:101AC0008F818E8388E08D8358856F8149853D8124
:101AD0002E8189819A81508347FD252F00C000C047
:101AE000208300C000C000C000C000C060830000B0
:101AF000262F3A9541F0441F000000C000C000C0EE
:101B000000C000C0E8CF38E04D9100C0608300C045
:101B1000019709F7F0938C02E0938B0249873D838C
:101B20002E83ABCF6091090170910A0180910B0166
:101B30000C94660C60910601709107018091080178
:101B40000C94660CCF92DF92EF92CF936B01E82E4C
:101B5000C3E08E2DB6010E94660C68EC70E080E058
:101B600090E00E949C070E949A0D64E670E080E07D
:101B700090E00E949C07C15061F78E2DB601CF9175
:101B8000EF90DF90CF900C94660CFC010190002048
:101B9000E9F73197AF01481B590BBC018BED91E080
:101BA0000C94DB078AE791E00C94C50DCF93DF938B
:101BB0000E94C808EC010E94D20D8C0F9D1FDF917E
:101BC000CF910895CF93DF93D62FC42F81111CC0DE
:101BD00080EC90E00E94C80880E20E94E3088DEA51
:101BE00090E0DD2311F087EB90E00E94C80880E2CE
:101BF0000E94E3088AE990E0CC2311F084EA90E0A7
:101C0000DF91CF910C94D60D89EC90E0E3CF88E67C
:101C100090E00C94D60D8F929F92AF92BF920F934B
:101C20001F93CF93DF93CDB7DEB7A1970FB6F8948C
:101C3000DEBF0FBECDBF19A2423008F44AE08E01CC
:101C40000F5D1F4F842E912CB12CA12CA501940166
:101C50000E947521E62FB901CA01EA30F4F4E05D73
:101C6000D801EE938D01232B242B252B79F790E0BF
:101C700080E0109719F0CD010E94C50DA1960FB616
:101C8000F894DEBF0FBECDBFDF91CF911F910F91B2
:101C9000BF90AF909F908F900895E95CE1CFCF9374
:101CA000DF93682F70E090E080E04AE00E940B0E26
:101CB000EC010E94D20D8C0F9D1FDF91CF910895F2
:101CC000CF92DF92EF92FF92CF93DF936C01990F47
:101CD000EE08FF08F7FE1BC08DE20E94E308EC014E
:101CE00066277727CB016C197D098E099F094AE089
:101CF0000E940B0EC80FD91F0E94D20D8C0F9D1F82
:101D0000DF91CF91FF90EF90DF90CF9008954AE060
:101D1000C701B6010E940B0EEC01EECF4F925F920D
:101D20006F927F928F929F92AF92BF92CF92DF92EB
:101D3000EF92FF92CF936B017C01842EAC019B014B
:101D40000E94FD23882389F08DE791E0CF91FF90D9
:101D5000EF90DF90CF90BF90AF909F908F907F904B
:101D60006F905F904F900C94C50D26013701E89459
:101D700077F82FEF3FEF4FE75FE7C301B2010E9413
:101D8000FD2381110DC02FEF3FEF4FE75FE7C30148
:101D9000B2010E942C2218161CF481E891E0D6CFE3
:101DA0002FEF3FEF4FE75FE4C701B6010E948B239F
:101DB00018161CF485E891E0C9CF2FEF3FEF4FE7ED
:101DC0005FECC701B6010E942C2287FDF3CF20E013
:101DD00030E0A901C701B6010E942C22B12CA12C30
:101DE00087FF08C08DE20E94E3085C01F7FAF094D7
:101DF000F7F8F094C82D60E070E080E09FE3912C4C
:101E000020E030E040E251E40E94312293949814A3
:101E1000B8F3A70196010E94C0212B013C010E944A
:101E2000AA226B017C010E94D9229B01AC01C30153
:101E3000B2010E94BF212B013C014AE0C701B6015B
:101E40000E940B0E7C018EE20E94E308E80EF91E50
:101E5000EA0CFB1CC15018F120E030E040E251E4F4
:101E6000C301B2010E9490232B013C010E94AA22CF
:101E70004B01B12CA12C4AE0C501B4010E940B0E0C
:101E8000E80EF91EC501B4010E94D9229B01AC01E4
:101E9000C301B2010E94BF212B013C01DBCFC7016E
:101EA000CF91FF90EF90DF90CF90BF90AF909F9039
:101EB0008F907F906F905F904F900895CF93DF93B6
:101EC000D0E0C0E0009719F00E94C50DEC010E941F
:101ED000D20D8C0F9D1FDF91CF910895BF92CF92AD
:101EE000DF92EF92FF920F931F93CF93DF93CDB7C3
:101EF000DEB7CA54D1090FB6F894DEBF0FBECDBF0E
:101F00008C01F090DA01FF20B9F081E191E00E94AC
:101F1000D60DF12C8F2DC65BDF4F0FB6F894DEBFC8
:101F20000FBECDBFDF91CF911F910F91FF90EF902A
:101F3000DF90CF90BF900895AE014D5D5F4F80E27E
:101F4000FA0111928A95E9F720E262E083E391E0D9
:101F50000E94560B892B29F08DEF90E00E94D60D40
:101F6000D9CF81E08093DA0162E370E080E090E015
:101F70000E949C078FE089831A8280E2F801DE01CB
:101F8000139601900D928A95E1F78E010D5B1F4F1C
:101F900088E0B82EF8018B2D11928A95E9F7E12C93
:101FA00022E2FE0131966F01AF0163E381E00E94FE
:101FB0002B0B892B19F087EE90E0D0CF62E370E015
:101FC00080E090E00E949C07F6011192BA94E9F734
:101FD000E12C860122E04CE151E063E381E00E94C4
:101FE0002B0B892B19F081ED90E0B8CF64E670E0FF
:101FF00080E090E00E949C07FF24F3948BCFAF9287
:10200000BF92CF92DF92EF920F931F93CF93DF9304
:10201000CDB7DEB7A8970FB6F894DEBF0FBECDBF21
:102020005C01CE0101966C0188E2F60111928A955D
:10203000E9F780E2E82E860122E042E151E063E325
:1020400081E00E942B0B88E0F601D50101900D92F2
:102050008A95E1F7A8960FB6F894DEBF0FBECDBF04
:10206000DF91CF911F910F91EF90DF90CF90BF90B4
:10207000AF9008951F920F920FB60F9211242F93D5
:102080003F938F939F93AF93BF938091D201909191
:10209000D301A091D401B091D5013091D10123E0B9
:1020A000230F2D3758F50196A11DB11D2093D101A5
:1020B0008093D2019093D301A093D401B093D50122
:1020C0008091D6019091D701A091D801B091D9010A
:1020D0000196A11DB11D8093D6019093D701A093C5
:1020E000D801B093D901BF91AF919F918F913F914A
:1020F0002F910F900FBE0F901F90189526E8230F79
:102100000296A11DB11DD2CF1F920F920FB60F9252
:1021100011242F933F934F935F936F937F938F93EC
:102120009F93AF93BF93EF93FF938BED91E00E944A
:102130005908FF91EF91BF91AF919F918F917F913E
:102140006F915F914F913F912F910F900FBE0F9024
:102150001F9018951F920F920FB60F9211242F9374
:102160008F939F93EF93FF93E091EB01F091EC013C
:102170008081E091F101F091F20182FD1BC090811C
:102180008091F4018F5F8F732091F501821741F0E8
:10219000E091F401F0E0E552FE4F958F8093F40159
:1021A000FF91EF919F918F912F910F900FBE0F9004
:1021B0001F9018958081F4CF1092DE011092DD01FE
:1021C00088EE93E0A0E0B0E08093DF019093E0011F
:1021D000A093E101B093E2018CE691E09093DC01E1
:1021E0008093DB0185EC90E09093E8018093E70118
:1021F00084EC90E09093EA018093E90180EC90E018
:102200009093EC018093EB0181EC90E09093EE01D0
:102210008093ED0182EC90E09093F0018093EF01C8
:1022200086EC90E09093F2018093F1011092F4011A
:102230001092F5011092F6011092F70160E086E02D
:102240000E943B07E1E7FBE0E491E0938E02EDE5BD
:10225000FBE0E491F0E0EE0FFF1FE35BF44F8591AC
:1022600094919093900280938F0210929902109211
:102270009B0210929A02109298021092970210926A
:10228000960210929502109294021092930210926C
:102290009202109291021092790210928002109292
:1022A0008702109288021092890210928A0281E0BD
:1022B00080938602809383021092840292E090932E
:1022C00085028093780283E090E090937D02809372
:1022D0007C020E94022490938202809381020097E4
:1022E00089F123E0FC0111922A95E9F781E090E061
:1022F00090937B0280937A0280E190E090937F023A
:1023000080937E0280917902882341F061E080E130
:102310000E943B0760E080E10E940D07E7E6FBE0DA
:10232000E491F0E0EE0FFF1FED5BF44F8591949187
:1023300090938C0280938B02EBE7FBE0E491E093B7
:102340008D02089510927D0210927C0210927B0201
:1023500010927A02D1CFCF93DF93CDB7DEB7C15EB3
:10236000D1090FB6F894DEBF0FBECDBF789484B507
:10237000826084BD84B5816084BD85B5826085BD81
:1023800085B5816085BD80916E00816080936E000F
:102390001092810080918100826080938100809101
:1023A00081008160809381008091800081608093B2
:1023B00080008091B10084608093B1008091B00072
:1023C00081608093B00080917A00846080937A006D
:1023D00080917A00826080937A0080917A00816097
:1023E00080937A0080917A00806880937A001092BE
:1023F000C100E091EB01F091EC0182E08083E0917B
:10240000E701F091E8011082E091E901F091EA0121
:1024100080E180831092F301E091EF01F091F001EF
:1024200086E08083E091ED01F091EE018081806192
:102430008083E091ED01F091EE01808188608083DE
:10244000E091ED01F091EE01808180688083E09160
:10245000ED01F091EE0180818F7D808361E088E065
:102460000E943B0760E088E00E940D0761E084E085
:102470000E943B0760E084E00E940D0762E085E077
:102480000E943B0780917E0290917F0297FD2EC0B3
:1024900061E00E943B0760E080917E020E940D0790
:1024A00081E08093790260918002613541F1209151
:1024B0008102309182026150E1F070E08FEF90E58F
:1024C0000E944D21F90140917C0250917D02CF0183
:1024D000821B930B8417950778F44081469FC001B7
:1024E000479F900D112490833196EDCF1092790281
:1024F000DACF70E060E0E6CF81E5809380020E9451
:102500009A0D64EF71E080E090E00E949C070E94C9
:10251000070E0E94E906892B09F0C8C184E392E006
:102520000E94D60D88E092E00E94D60D89ED91E0E0
:102530000E94D60D0E94070E80E491E00E94D60D05
:102540001092CA011092C9010E94E90621E0892B6C
:1025500009F020E02093D00120911E0130911F014D
:1025600040912001C353DF4F288339834A83CD5CD8
:10257000D040AE014A595F4F1A0180915D019091A0
:102580005E01A0915F01CD52DF4F88839983AA83BA
:10259000C35DD0402091620130916301409164019C
:1025A000CA52DF4F288339834A83C65DD040809169
:1025B000650190916601A0916701C752DF4F888342
:1025C0009983AA83C95DD040FE01EA55FF4FC853E5
:1025D000DF4FF983E883C85CD040F0916501C053B8
:1025E000DF4FF883C05DD04020916601CF52DF4FAE
:1025F0002883C15DD04030916701CE52DF4F3883D0
:10260000C25DD0408091620190916301A09164010C
:10261000C452DF4F88839983AA83CC5DD040C152D6
:10262000DF4FF883CF5DD040C052DF4F2883C05EBC
:10263000D040CF51DF4F3883C15ED0408FB7F89480
:10264000C090D201D090D301E090D401F090D50198
:102650008FBFB090D0018091CC019091CD01A0911D
:10266000CE01B091CF01A7019601281B390B4A0B6F
:102670005B0BDA01C901C297A105B105A0F0C092B8
:10268000CC01D092CD01E092CE01F092CF010E9418
:10269000E9068C01AA24A394892B09F0A12CBA1075
:1026A00010C11092CB01B1101EC00091C901109150
:1026B000CA018BED91E00E943908892BA1F08BEDC6
:1026C00091E00E9417088F7D833569F40130110570
:1026D00051F086E69AE00E94D60D81E090E090935A
:1026E000CA018093C9018091C5019091C601A09152
:1026F000C701B091C801A7019601281B390B4A0BED
:102700005B0BDA01C90180329340A105B10538F1B4
:102710000091C9011091CA01C092C501D092C601B1
:10272000E092C701F092C8010E94950A01151105B7
:1027300009F000C1882309F4FDC00E94070E8DE353
:102740009AE0B11002C087E19AE00E94D60D0E9483
:10275000070E81E090E09093CA018093C9018091B7
:10276000C9019091CA01892B09F050C08091C10123
:102770009091C201A091C301B091C401A70196013B
:10278000281B390B4A0B5B0BDA01C9014497A105E1
:10279000B105E0F1C092C101D092C201E092C30143
:1027A000F092C40110E0B11001C010E52FB7F89409
:1027B0006091D2017091D3018091D4019091D501A3
:1027C0002FBF20ED37E040E050E00E9475219B01D3
:1027D000AC01283E83E038074105510508F0C5C02B
:1027E000A0E5B0E00E94972128EE33E040E050E001
:1027F0000E947521219FC001112460E570E00E94B4
:102800006121862F622F782F0E94660C8091C9016A
:102810009091CA01019709F05FC18091C001BB206E
:1028200009F4BFC181110E94A80B0E941D0BC35364
:10283000DF4F688179818A81CD5CD0400E94660C2F
:1028400088E0F10111928A95E9F7C1010E94FF0F1A
:102850008E01025C1F4F80E2F80111928A95E9F720
:102860003FE0F32EC8010E947E0B019711F40C94F7
:10287000BA2068EC70E080E090E00E949C07FA9437
:10288000F110F0CFF8019801205E3F4F8FEF91914A
:102890008923E217F307D9F78F3F09F06EC083E869
:1028A00093E00E94D60D0E94920D73C081EB91E0DF
:1028B0000E94D60D80E891E00E94D60D87E591E058
:1028C00037CE8091CB018F5F843018F48093CB0199
:1028D000EACE8091C9019091CA011092CB01A092D9
:1028E000D0019C01225031092230310510F0892B92
:1028F000C1F40E949A0D1092CA011092C9010E945F
:10290000070E012B81F488E09BE00E94D60D89EE32
:102910009AE00E94D60D8FEC9AE00E94D60D0E949C
:10292000070EBA2CC0CE89EA9AE00E94D60D8FE736
:102930009AE0F3CF025011090230110508F00FCFD1
:1029400081110DCF0E94070E89EE99E0B11002C0EF
:102950008BEC99E00E94D60D0E94070E0E949A0D02
:102960001092CA011092C901FACEA0EBBFEF0E94EB
:10297000A5217F588D4F9F4F37CF83E693E00E946C
:10298000D60D6091650170916601809167010E948A
:10299000A20D0E94AD0AF12CD3C08F2DFF0C990B14
:1029A0000E94600E4FE060E0C8010E945909E82EC5
:1029B0004FE160E1C8010E945909F82E48E260E247
:1029C000C8010E94590963969FAD639792959F70C5
:1029D000E91267C064969FAD6497292F2F70F21299
:1029E00060C092959F7089135CC080E2F801DE019F
:1029F000119601900D928A95E1F711E060905D01CA
:102A000070905E0180905F018BED92E00E94C8089B
:102A1000812F0E944F0E48E260E2CE0101960E9493
:102A20005909810F482F4F7068E2CE0101960E942C
:102A3000820A4FE060E0CE0101960E945909810FA1
:102A4000482F4F7069E2CE0101960E94820A4FE141
:102A500060E1CE0101960E945909810F482F4F7005
:102A60006AE2CE0101960E94820A48E260E2CE014B
:102A700001960E945909482F6BE2CE0101960E94EF
:102A8000820A882DB3010E94660C0E94C70B892B15
:102A900081F183EB92E00E94D60D0E94070EF12C8B
:102AA00035C08FE093E00E94D60D60916501709172
:102AB0006601809167010E94A20D0E94AD0AFB2C65
:102AC00082E090E09093CA018093C901F11004C0A4
:102AD0008BEA99E00E94D60D80E090E0892B09F402
:102AE000ADCD0E944508882309F46ECD0E940000F8
:102AF0006BCDCE0101960E946E0FF82E811123C07E
:102B00000E94A80B0E941D0B0E94070E8DEE92E002
:102B10000E94D60D0E94070E6091620170916301C0
:102B200080916401F11006C06091650170916601A9
:102B3000809167010E94A20D0E94AD0AF110C0CFE2
:102B400083E090E0BFCF0E94A80B0E941D0B0AE01B
:102B5000CE0101960E947E0B019711F40C94CC20BB
:102B600068EC70E080E090E00E949C07015081F7E3
:102B70008DE992E090CFCB100C94FE20A0120C9423
:102B8000FE2080E2FE01FE96DE01119601900D927C
:102B90008A95E1F71F5F143009F036CF83E692E0A3
:102BA0007ACF81110E94A80B0E941D0BC353DF4FE7
:102BB000688179818A81CD5CD0400E94660C9E013B
:102BC0002F5F3F4F39018DE3F90111928A95E9F7A3
:102BD00080E090ECA9E7B4EC8FA798ABA9ABBAABB7
:102BE0008BA79CA7ADA7BEA78FEF9FEF9A8B898B72
:102BF00080E2C853DF4FE881F981C85CD040119270
:102C00008A95E9F71FE0CE018A559F4F0E947E0BFF
:102C1000009711F00C94042168EC70E080E090E0E3
:102C20000E949C07115079F784E799E00E94D60D25
:102C30000E94AD0A1092DA01AECEBE016D5E7F4FEA
:102C4000CE018A559F4F0E94020AB301CE018A55D8
:102C50009F4F0E947309CE0109960E94FF0F40E02A
:102C6000BE016A557F4FCE0109960E94EB0B082EDC
:102C7000000C990B9A8B898B9E01225C3F4FCA53A3
:102C8000DF4F39832883C65CD040059709F0C2C066
:102C900061E088E00E940D070E94EC052BE8E22E1F
:102CA00026E0F22EC7010197F1F78CEC0E94600636
:102CB00003E611E0C8010197F1F789E90E94600677
:102CC0006AE070E080E090E00E949C070E94EC05C2
:102CD000C7010197F1F781E30E946006C8010197DF
:102CE000F1F70E942506E82EC8010197F1F70E942E
:102CF0002506F82EC8010197F1F760E088E00E94F0
:102D00000D073FEFE31208C0F3120AC064E971E057
:102D1000C3010E94272518C0E11002C0FF20B1F3B3
:102D20001F92EF921F92FF9289E891E09F938F93F9
:102D30001F9288E08F937F926F920E942E250FB68C
:102D4000F894DEBF0FBECDBF0E94070E88ED98E05D
:102D50000E94C808C3010E945E0F88E2CA53DF4F79
:102D6000E881F981C65CD04011928A95E9F789899A
:102D70009A898530910509F477C0FBA8069709F474
:102D8000A9C18BE1F10111928A95E9F72BE1A1012B
:102D900064E087E291E00E94560B892B09F021C282
:102DA000F101608171816115710509F41AC290E029
:102DB00080E00E94D92220E030E04AE754E40E94FB
:102DC00031224B015C0181019E01225C3F4F690170
:102DD000E12C0E5F1F4F8F2DF5E0FF1508F485E005
:102DE000E81608F013C2F80161818081762F682F00
:102DF00090E080E00E94D92220E030E04AE754E4ED
:102E00000E943122F60161937193819391936F0136
:102E1000E394DFCF80E1CA53DF4FE881F981C65CDC
:102E2000D04011928A95E9F720E1AE01425C5F4FF4
:102E300062E081E291E00E94560B892B11F0198229
:102E400083CFFE01FE96D3019F01295F3F4F819101
:102E500090EE980F9F3518F01C92188675CF8D93C1
:102E6000E217F307A1F7F9CF6AE070E080E090E0A5
:102E70000E949C07DBA8CA57DF4F19821882C658E8
:102E8000D04020E0AE014A575F4F62E083E391E01B
:102E90000E94080920E0AE014A575F4F62E083E3D9
:102EA00091E00E94080922E0AE014A575F4F61E0BD
:102EB0008EE291E00E940809F5E0FD1510F495E01E
:102EC000D92E9E01225C3F4F790110E000E0812C59
:102ED000912C5401F1011182108222E0A10161E0E4
:102EE0000D1550F5C801825D9E4F0E940809F10141
:102EF00060817181CB0101978E3F9F4FB8F490E0C4
:102F000080E00E94D92220E030E04AE754E40E94A9
:102F100031229B01AC01F70120833183428353832B
:102F2000C501B4010E94C0214B015C010F5F1F4F1E
:102F3000F4E0EF0EF11CCECF8DE291E00E94080983
:102F4000F10160817181CB0101978E3F9F4F70F439
:102F500090E080E00E94D92220E030E048EC52E48A
:102F60000E9431226BA77CA78DA79EA789899A8989
:102F7000069709F03CC084E690E00E940F0B0E9487
:102F8000EC05082F10E0882371F08BE891E00197A1
:102F9000F1F782ED0E94600683E592E00197F1F778
:102FA0000E942506182F0E94AD0A60E070EC89E7A8
:102FB00094EC0023C1F0612F70E090E080E00E946B
:102FC000DB2220E030E040E252EC0E94902320E03F
:102FD0003CEA41E156E40E94C02120E030E048ECA8
:102FE00052E40E9431226BA77CA78DA79EA71EA248
:102FF0001DA21CA21FA218A619A61AA689899A8921
:103000009C01255031092230310508F071C12F890A
:103010002E3108F46AC12D51330B088D198D4E895C
:1030200083E290E0841B910997FF02C090E080E06A
:10303000820F931F809FB001819F700D909F700D34
:10304000112490E080E00E94D92220E030E040E0AE
:103050005DE30E9490236B017C01B80190E080E069
:103060000E94D9229B01AC01C701B6010E94C02178
:103070006B017C018C898A3141F08C3131F08832CE
:1030800021F068E572E0823311F468EE73E090E0BD
:1030900080E00E94D9229B01AC01C701B6010E94C9
:1030A00031229B01AC0160E070E080E890E40E9476
:1030B000BF216B017C0120E030E0A9010E942C229D
:1030C00087FF03C0C12CD12C7601C8A2D9A2EAA2E5
:1030D000FBA2D2C1CA57DF4F1882C658D04084E144
:1030E000F10111928A95E9F784E690E00E940F0BB6
:1030F0000E94EC05882359F0E12C8E010A571F4FDE
:1031000022E04BE251E06CEC80E00E94B10A6AE000
:1031100070E080E090E00E949C070E94EC0588230C
:10312000F1F08BE891E00197F1F784ED0E946006E1
:1031300083E592E00197F1F7510181010C5E1F4F89
:103140008BE8C82EDD24D3940E942506F5018193D7
:103150005F01C6010197F1F7E017F107A9F70E9497
:10316000AD0A81019E01225C3F4F6901E12C812C57
:10317000912C54018F2D3AE03F1508F48AE0E816AF
:1031800008F0F4CEF80161818081762F682F90E0FD
:1031900080E00E94D92220E030E040E251E40E9429
:1031A00031229B01AC0160E070E88BEB95E40E945A
:1031B000BF2120E030E04AE754E40E9431229B0125
:1031C000AC01F60121933193419351936F01C501F5
:1031D000B4010E94C0214B015C01E3940E5F1F4FBC
:1031E000C9CF8E010A571F4F8DE0F80111928A95C1
:1031F000E9F72DE0A80164E083E291E00E94560B1C
:10320000892BD9F1812C912C5401B0CEF101668526
:10321000778500891189CB0101978E3F9F4F18F563
:1032200090E080E00E94D92220E030E048EC52E4B7
:103230000E9431226BA77CA78DA79EA7C80101978A
:103240008E3F9F4FA8F4B80190E080E00E94D92201
:1032500020E030E048EC52E40E9431226FA778ABC6
:1032600089AB9AAB83CE60E070EC89E794ECE2CF57
:1032700060E070EC89E794ECF1CFF801848586304A
:1032800009F66081718190E080E00E94D92220E0FF
:1032900030E04AE754E40E9431224B015C019E0178
:1032A000225C3F4F6901E12C0E5F1F4F8F2D35E0EF
:1032B0003F1508F485E0E81608F058CEF801618162
:1032C0008081762F682F90E080E00E94D92220E054
:1032D00030E04AE754E40E943122F6016193719391
:1032E000819391936F01E394DFCF30E020E095CE9E
:1032F000009739F09C01225031092230310508F045
:103300004AC11C89009709F4C5C09C0122503109AB
:103310002230310508F4BEC070E060E01123A1F155
:1033200090E080E00E94D9226B017C01612F70E067
:1033300090E080E00E94DB229B01AC01C701B60156
:103340000E9431226B017C0120E030E040EA52E42F
:103350000E948B2318160CF4BCC020E030E040E241
:1033600051E4C701B6010E94312220E030E040EA7A
:1033700050E40E94BF216B017C0120E030E0A901F4
:103380000E942C2287FF03C0C12CD12C7601C8A239
:10339000D9A2EAA2FBA289899A89009709F4A0C060
:1033A0009C01225031092230310508F499C080E097
:1033B0008EA389899A898230910509F4AEC0833041
:1033C000910509F4CAC0892B09F0DEC088E0F1013B
:1033D00011928A95E9F748E0B10185E591E00E94F4
:1033E000650B882309F4D0C0F1012681F0E12F9FFD
:1033F000A0011124407F5370F1019581292F30E005
:10340000A4E035952795AA95E1F7242B352B8481E7
:1034100090E0982F8827882793704381842B820F10
:10342000931F408142954695469543702181F4E073
:103430002F9F90011124242B820F931F9DA38CA3F7
:1034400089899A89892B09F0A2C085E0F10111923E
:103450008A95E9F745E0B10189E591E00E94650BA5
:10346000882309F494C0F10180819181A281B38104
:103470008FA398A7A9A7BAA70E94950AF82E811131
:10348000A8C081EB98E00E94D60D0E94AD0A109270
:10349000DA0156CBF101108211821282823091053D
:1034A000A1F00397A1F482E0F4E08F9FC001112402
:1034B00043E0B1018B5C9E4F0E94650B882309F4A9
:1034C0002BCFF1016081718129CF81E0EDCF80E0C8
:1034D000EBCFC12CD12C10E8E12E10E4F12E57CF08
:1034E000F101118210828230910599F0039799F4CD
:1034F00082E0F4E08F9FC001112442E0B1018F5BB4
:103500009E4F0E94650B882309F451CFF101808101
:103510004FCF81E0EECF80E0ECCF88E0F101119257
:103520008A95E9F748E0B10181E591E00E94650BD9
:10353000882351F1F10120818281422F480F5527C4
:10354000551F2381240F352F311D8581280F311DF3
:103550008681820F932F911D71CF86E0F101119228
:103560008A95E9F746E0B1018DE491E00E94650B90
:10357000882351F0F10180819281482F490F55270E
:10358000551F9A018381E5CF90E080E057CF80E01E
:1035900090E0DC016DCFC354DF4F6881CD5BD0403C
:1035A0006F7070E075956795C12CD12C50E8E52EB1
:1035B00050E4F52E633008F488CD673009F482CDED
:1035C00062507109072E000C880B990B0E94DB22B8
:1035D00068CD0E94070E87EA96E00E94C808C301E2
:1035E0000E945E0F85E996E00E94C8088E01075F81
:1035F0001F4FE12CF80181918F01803118F480E395
:103600000E94E308F8013197608170E090E080E06B
:1036100040E10E940B0EF7E0EF1619F080E20E94E5
:10362000E308E39428E0E212E5CF0E94D20D8985F9
:103630001F928F938A851F928F938B851F928F93F2
:103640008BE991E09F938F931F928DE08F936E0192
:1036500036E8C30ED11CDF92CF920E942E2583E85C
:1036600096E00E94C808C6010E945E0F81E796E0BE
:103670000E94C80889899A890E94600E8FE596E0A9
:103680000E94C8086B8970E090E080E04AE00E94E8
:103690000B0E8BE596E00E94C8088B890FB6F89454
:1036A000DEBF0FBECDBF8D3008F043C08DE496E085
:1036B0000E94C80889E20E94E3080E94D20D8EE1B0
:1036C00096E00E94C8086CA97DA98EA99FA941E037
:1036D00050E00E948E0E8AE196E00E94D60D0E9474
:1036E000070E88E096E00E94C80888AD882349F15B
:1036F0008FEE95E00E94D60D86EF95E00E94C808F7
:103700008A8D882309F180ED95E00E94D60D84ED25
:1037100095E00E94C8088D89813009F4E3C1B8F0B2
:10372000853009F4E2C18F3009F4E2C10E944F0EE6
:1037300012C08E3118F48FE396E0BACF80E396E0A2
:10374000B7CF86EE95E0D6CF8DEC95E0DECF86EC58
:1037500095E00E94D60D87E695E00E94C80889ADE5
:10376000882309F4C8C182E595E00E94D60D85E55D
:1037700095E00E94C8088AAD882309F4BFC188E398
:1037800095E00E94D60D8BE395E00E94C8088BADB2
:10379000882309F4B6C18EE195E00E94D60D81E23E
:1037A00095E00E94C8088CAD882309F4ADC184E07F
:1037B00095E00E94D60D87E095E00E94C8088DAD87
:1037C000882309F4A4C180ED94E00E94D60D0E94E4
:1037D000070E8DEE94E00E94C808688D798D90E008
:1037E00080E04AE00E940B0E0E94D20D8BED94E027
:1037F0000E94C80868A179A18AA19BA142E050E07B
:103800000E948E0E83ED94E00E94C80848A059A043
:103810006AA07BA020E030E0A901C301B2010E94B0
:103820008B2320E030E040E05FE387FD73C1C301FC
:10383000B2010E94C0210E94A3228B01712C612C35
:1038400083E2601671060CF08DE20E94E3085FEFE0
:10385000651A750A84E06816710491F789E20E947E
:10386000E3080E94D20D89899A89009721F0029776
:10387000029708F07BC089EB94E00E94C8088EA1F3
:103880000E944F0E87EA94E00E94C8086CA17DA1B7
:1038900090E080E04AE00E940B0E0E94D20D8EA1C3
:1038A000882381F1888D998D892B61F185E994E0D8
:1038B0000E94C8086EA170E090E080E00E94DB22C8
:1038C00020E030E048EC52E40E9490232B013C01C0
:1038D000688D798D90E080E00E94D9229B01AC0137
:1038E000C301B2010E94312220E030E040E850E400
:1038F0000E94C02141E050E00E948E0E82E994E0D7
:103900000E94D60D8CA19DA1892B81F1888D998D66
:10391000892B61F180E894E00E94C8086CA17DA128
:1039200090E080E00E94D92220E030E048EC52E4B0
:103930000E9490232B013C01688D798D90E080E0FE
:103940000E94D9229B01AC01C301B2010E94312225
:1039500020E030E040E850E40E94C02141E050E027
:103960000E948E0E8DE794E00E94D60D89899A8977
:1039700005970297E0F58BE694E00E94C8086E89EF
:1039800070E090E080E00E94DB2220E030E040EA3E
:1039900050EC0E94902320E030E040E253E40E948B
:1039A000C02141E050E00E948E0E88E694E00E9423
:1039B000D60D86E594E00E94C8086F8970E090E01B
:1039C00080E00E94DB2220E030E040EA50E40E94E8
:1039D000902320E030E040E253E40E94BF2141E028
:1039E00050E00E948E0E83E594E00E94D60D20E008
:1039F00030EC49E754EC6BA57CA58DA59EA50E94F3
:103A00002C22882381F081E494E00E94C8086BA5F1
:103A10007CA58DA59EA541E050E00E948E0E8EE310
:103A200094E00E94D60D20E030EC49E754EC6FA5FD
:103A300078A989A99AA90E942C22882381F08CE276
:103A400094E00E94C8086FA578A989A99AA941E0C5
:103A500050E00E948E0E89E294E00E94D60D0E94F2
:103A6000070E87E194E00E94C80843E050E0C501DA
:103A7000B4010E948E0E84E194E00E94D60D8BA9C1
:103A800081114DC080E094E00E94D60D0E94070E87
:103A900038ADC553DF4F3883CB5CD04031117BC18B
:103AA00085E998E00E94D60DC452DF4F6881798184
:103AB0008A81CC5DD0400E94A20D89899A890097A5
:103AC00019F00297029710F40E941D0B0E94070E36
:103AD00087EA98E00E94D60D0E94AD0A1092DA01A2
:103AE0000C94601587EB95E034CE8BEA95E031CEEF
:103AF00089E795E02ECE8DE495E037CE83E395E01F
:103B000040CE89E195E049CE8FEF94E052CE8BEC28
:103B100094E05BCEC301B2010E94BF218CCE9EAD6A
:103B2000C653DF4F9883CA5CD040AFADC553DF4F5B
:103B3000A883CB5CD0402196EFAD2197C453DF4FD3
:103B4000E883CC5CD04022964FAC2297692E7A2E27
:103B50008E2E942C512C8BA9581608F06DC0052D73
:103B600010E0C80101969F938F932CEA31E03F93B8
:103B70002F931F9256E15F933F922F920E942E2522
:103B8000C1010E94C50D000F111F000F111F8EE310
:103B900090E08C0F9D1F080F191FF8016081718143
:103BA0008281938143E050E00E948E0E8DEF93E07E
:103BB0000E94D60DF801A080B180E28013810FB67B
:103BC000F894DEBF0FBECDBFC653DF4F2881CA5C5D
:103BD000D040C553DF4F3881CB5CD040C453DF4F5A
:103BE0004881CC5CD040542DB5018E2D912F0E9480
:103BF0008B23181684F4C653DF4FA882CA5CD040CA
:103C0000C553DF4FB882CB5CD040C453DF4FE8824E
:103C1000CC5CD040412E9301A401B5018E2D912F93
:103C20000E942C2287FD03C05301E82C192D5394C8
:103C300035018E2C912E8FCF8BEE93E00E94C80819
:103C40009301A401C653DF4F6881CA5CD040C553BD
:103C5000DF4F7881CB5CD040C453DF4F8881CC5C90
:103C6000D040942D0E94BF2143E050E00E948E0E70
:103C700088EE93E00E94D60D89899A89009721F0F9
:103C80000297029708F050C06FA178A589A59AA560
:103C9000611571058105910509F446C01C89112340
:103CA00009F442C00E94D9224B015C01612F70E0EF
:103CB00090E080E00E94DB229B01AC01C501B401D1
:103CC0000E94312220E030E044E355E40E9431229A
:103CD0004B015C0120E030E040E251E40E942C22E4
:103CE00011E087FD10C020E030E040E251E4C50162
:103CF000B4010E9431220E94A3226830710514F0A1
:103D000067E070E0162F0E94070E86ED93E00E9498
:103D1000C808612F70E090E080E04AE00E940B0E3E
:103D200081ED93E00E94D60D0E94070E8FEB93E089
:103D30000E94C8088E010A551F4FE12C3BE0B32EAC
:103D4000F80181918F01803118F480E30E94E3082B
:103D5000F8013197608170E090E080E040E10E94DE
:103D60000B0EFFE1EF1619F080E20E94E308E394E6
:103D700020E2E21203C00E94D20D88CE8E2D6B2D60
:103D80000E9441219111DCCF0E94D20D8DEA93E077
:103D90000E94C808D5CF89899A890097A9F102970E
:103DA000029790F186E798E00E94C80889889A886F
:103DB000092C000CAA08BB084AE0C501B401B7FEF3
:103DC0000BC08DE20E94E30866277727CB016819B4
:103DD00079098A099B094AE00E940B0E8AE698E05D
:103DE0000E94D60DC053DF4F6881C05DD040CF52D6
:103DF000DF4F7881C15DD040CE52DF4F8881C25DF8
:103E0000D0400E94A20D62CE8BE498E00E94C808C8
:103E10008D890E944F0E0E94920D41E0C653DF4FE4
:103E20004883CA5CD04087E398E00E94C808C65324
:103E3000DF4F8881CA5CD0400E944F0EC653DF4FCF
:103E40005881CA5CD04050FF8DC087E298E00E9444
:103E5000D60D0E94920D0E941D0B0E94C70B892B4C
:103E6000B1F086E098E00E94D60D10E05CC011230E
:103E7000D1F281E497E00E94D60DCA52DF4F6881EB
:103E800079818A81C65DD0400E94A20D1DCEF101CC
:103E900021E111922A95E9F729E0E22E810122E041
:103EA00040E651E063E381E00E942B0B62E370E0A7
:103EB00080E090E00E949C070E94A80B62E370E003
:103EC00080E090E00E949C07CE018A559F4F0E949F
:103ED0007E0B019719F08CEE97E0C5CFBE016D5EA9
:103EE0007F4FCE018A559F4F0E94020ABE016F5F2D
:103EF0007F4FCE018A559F4F0E9473098DED97E049
:103F00000E94C8084BAD6AAD89AD0E94E20D88AD34
:103F1000811125C086EC97E00E94D60DC553DF4F76
:103F20001881CB5CD040C653DF4F2881CA5CD0409B
:103F30002F5FC653DF4F2883CA5CD040273009F07B
:103F400096CF111196CF8BE297E00E94D60DC75203
:103F5000DF4F688179818A81C95DD04052CF83EB80
:103F600097E081CF81EA97E00E94D60DCD52DF4FD6
:103F7000688179818A81C35DD0400E94660C80E2AD
:103F8000FE01EA55FF4FD60101900D928A95E1F7A7
:103F900040E068E2C6010E94820A4FE060E0C6018C
:103FA0000E945909482F69E2C6010E94820A4FE126
:103FB00060E1C6010E945909482F6AE2C6010E94C9
:103FC000820A48E260E2C6010E945909482F6BE26A
:103FD000C6010E94820A4FE26CE2C6010E945909A2
:103FE000482F6EE3C6010E94820A4DE360E3C601DA
:103FF0000E945909482F6FE3C6010E94820A89E195
:1040000097E00E94C8088601E12CF80181918F0198
:10401000803118F480E30E94E308F8013197608151
:1040200070E090E080E040E10E940B0EFFE1EF16AF
:1040300019F080E20E94E308E39420E2E2120BC050
:104040000E94D20D0E94C70B892B91F085EE96E05D
:104050000E94D60D15C08E2D6BE00E94412191115A
:10406000D4CF0E94D20D87E097E00E94C808CDCF40
:10407000C6010E946E0F182F811105C00E94A80B67
:1040800080E697E0F0CE0E94A80B0E941D0BF10184
:104090001192EA94E9F70AE064EA71E080E090E0C6
:1040A0000E949C07C1010E947E0B015011F00097F5
:1040B00099F3019719F088EC96E0CACF4FE060E0E1
:1040C000C1010E945909782EF101E4888E2C829456
:1040D0009FE08922662463948811612C4FE160E19E
:1040E000C1010E945909982EF1010589F02FFF7036
:1040F000AF2E552453948F13512C48E260E2C10136
:104100000E945909B82E02950F70442443948013DD
:10411000412C89EB96E00E94C808442D652D862D20
:104120000E94E20D80E2F101DE01AA55BF4F01902D
:104130000D928A95E1F77810A3CF9A10A1CFB01213
:104140009FCF8E2D8F7009F09BCFBE016D5E7F4F8C
:10415000CE018A559F4F0E94020ABE016F5F7F4FBA
:10416000CE018A559F4F0E9473098AE797E00E940B
:10417000D60DD9CE41E0B801C1010E94EB0BF82E5B
:1041800083E593E00E94C808F7FC02C00C94CD14AC
:1041900083E393E00C9451144FE060E0CE0101966C
:1041A0000E945909D82EED88E2948FE0E8224FE171
:1041B00060E1CE0101960E945909C82E0E89302F68
:1041C0003F70B32E48E260E2CE0101960E94590989
:1041D000A82E02950F7087E892E00E94C80841E07F
:1041E000A01240E061E0CB1060E081E0DE1080E0F2
:1041F0000E94E20DDE1411F40C94BB150E94070E10
:104200008EEF92E00C948815019611F00C941D1617
:104210000E94070E89E499E00E94D60D81E199E0A1
:104220000E94D60D8AEE98E00E94D60D0E94070EDD
:10423000C152DF4F6881CF5DD040C052DF4F7881DF
:10424000C05ED040CF51DF4F8881C15ED0400E9418
:10425000A20D0E94AD0A1092DA01FF24F3940C948F
:10426000601580918102909182020E949E2480912B
:104270007E0290917F0297FD03C060E00C943B07A3
:104280000895991B79E004C0991F961708F0961BB2
:10429000881F7A95C9F780950895AA1BBB1B51E129
:1042A00007C0AA1FBB1FA617B70710F0A61BB70BA6
:1042B000881F991F5A95A9F780959095BC01CD014B
:1042C000089597FB072E16F4009407D077FD09D0C8
:1042D0000E944D2107FC05D03EF4909581959F4F9B
:1042E0000895709561957F4F0895A1E21A2EAA1B3B
:1042F000BB1BFD010DC0AA1FBB1FEE1FFF1FA21796
:10430000B307E407F50720F0A21BB30BE40BF50B92
:10431000661F771F881F991F1A9469F7609570951B
:10432000809590959B01AC01BD01CF0108950E943D
:10433000B021A59F900DB49F900DA49F800D911D5D
:1043400011240895B7FF0C9497210E949721821B96
:10435000930B0895EE0FFF1F0590F491E02D099443
:10436000A29FB001B39FC001A39F700D811D1124B6
:10437000911DB29F700D811D1124911D08955058FB
:10438000BB27AA270E94D7210C9451230E944323C4
:1043900038F00E944A2320F039F49F3F19F426F4A4
:1043A0000C9440230EF4E095E7FB0C943A23E92F9C
:1043B0000E94622358F3BA176207730784079507B0
:1043C00020F079F4A6F50C9484230EF4E0950B2EDE
:1043D000BA2FA02D0B01B90190010C01CA01A00157
:1043E0001124FF27591B99F0593F50F4503E68F1B2
:1043F0001A16F040A22F232F342F4427585FF3CFF3
:10440000469537952795A795F0405395C9F77EF4C3
:104410001F16BA0B620B730B840BBAF09150A1F00C
:10442000FF0FBB1F661F771F881FC2F70EC0BA0F92
:10443000621F731F841F48F4879577956795B7951A
:10444000F7959E3F08F0B0CF9395880F08F0992715
:10445000EE0F9795879508950E94162308F481E042
:1044600008950E9445220C9451230E944A2358F03B
:104470000E94432340F029F45F3F29F00C943A2333
:1044800051110C9485230C9440230E94622368F3FD
:104490009923B1F3552391F3951B550BBB27AA27FD
:1044A00062177307840738F09F5F5F4F220F331F37
:1044B000441FAA1FA9F335D00E2E3AF0E0E832D0FF
:1044C00091505040E695001CCAF72BD0FE2F29D002
:1044D000660F771F881FBB1F261737074807AB07D4
:1044E000B0E809F0BB0B802DBF01FF2793585F4F49
:1044F0003AF09E3F510578F00C943A230C948523B2
:104500005F3FE4F3983ED4F3869577956795B7952A
:10451000F7959F5FC9F7880F911D9695879597F935
:104520000895E1E0660F771F881FBB1F62177307AE
:104530008407BA0720F0621B730B840BBA0BEE1FC3
:1045400088F7E09508950E94AA226894B1110C940E
:10455000852308950E946A2388F09F5798F0B92F09
:104560009927B751B0F0E1F0660F771F881F991FA8
:104570001AF0BA95C9F714C0B13091F00E948423A3
:10458000B1E008950C948423672F782F8827B85FB3
:1045900039F0B93FCCF3869577956795B395D9F700
:1045A0003EF490958095709561957F4F8F4F9F4F0A
:1045B0000895E89409C097FB3EF490958095709516
:1045C00061957F4F8F4F9F4F9923A9F0F92F96E95F
:1045D000BB279395F695879577956795B795F111D4
:1045E000F8CFFAF4BB0F11F460FF1BC06F5F7F4F71
:1045F0008F4F9F4F16C0882311F096E911C0772383
:1046000021F09EE8872F762F05C0662371F096E88B
:10461000862F70E060E02AF09A95660F771F881F5A
:10462000DAF7880F9695879597F90895990F0008FE
:10463000550FAA0BE0E8FEEF16161706E807F90774
:10464000C0F012161306E407F50798F0621B730B0F
:10465000840B950B39F40A2661F0232B242B252B90
:1046600021F408950A2609F4A140A6958FEF811D33
:10467000811D089597F99F6780E870E060E00895D4
:104680009FEF80EC089500240A941616170618066A
:104690000906089500240A94121613061406050646
:1046A0000895092E0394000C11F4882352F0BB0FD7
:1046B00040F4BF2B11F460FF04C06F5F7F4F8F4F3A
:1046C0009F4F089557FD9058440F551F59F05F3F75
:1046D00071F04795880F97FB991F61F09F3F79F024
:1046E00087950895121613061406551FF2CF4695A6
:1046F000F1DF08C0161617061806991FF1CF869528
:104700007105610508940895E894BB27662777270B
:10471000CB0197F908950E94162308F48FEF0895AE
:104720000E94A3230C9451230E94432338F00E943B
:104730004A2320F0952311F00C943A230C94402343
:1047400011240C9485230E94622370F3959FC1F37A
:10475000950F50E0551F629FF001729FBB27F00D2F
:10476000B11D639FAA27F00DB11DAA1F649F662784
:10477000B00DA11D661F829F2227B00DA11D621FD3
:10478000739FB00DA11D621F839FA00D611D221F8D
:10479000749F3327A00D611D231F849F600D211D71
:1047A000822F762F6A2F11249F5750409AF0F1F0F4
:1047B00088234AF0EE0FFF1FBB1F661F771F881F5D
:1047C00091505040A9F79E3F510580F00C943A2338
:1047D0000C9485235F3FE4F3983ED4F38695779558
:1047E0006795B795F795E7959F5FC1F7FE2B880F03
:1047F000911D9695879597F908950E941623880B29
:10480000990B08950F931F93CF93DF9382309105F7
:1048100010F482E090E0E0919E02F0919F0230E07F
:1048200020E0B0E0A0E0309799F42115310509F4BB
:104830004AC0281B390B24303105D8F58A819B8169
:104840006115710589F1FB0193838283FE0111C01B
:10485000408151810281138148175907E0F04817C0
:10486000590799F4109761F012960C9312971396CA
:104870001C933296CF01DF91CF911F910F91089534
:1048800000939E0210939F02F4CF2115310551F041
:104890004217530738F0A901DB019A01BD01DF017E
:1048A000F801C1CFEF01F9CF90939F0280939E0250
:1048B000CDCFFE01E20FF31F819391932250310976
:1048C00039832883D7CF20919C0230919D02232BDE
:1048D00041F4209102013091030130939D02209315
:1048E0009C0220910001309101012115310541F414
:1048F0002DB73EB74091040150910501241B350BA3
:10490000E0919C02F0919D02E217F307A0F42E1BA8
:104910003F0B2817390778F0AC014E5F5F4F241723
:10492000350748F04E0F5F1F50939D0240939C0245
:10493000819391939FCFF0E0E0E09CCFCF93DF9302
:104940000097E9F0FC01329713821282A0919E0237
:10495000B0919F02ED0130E020E01097A1F420819A
:104960003181820F931F20919C0230919D02281764
:10497000390709F061C0F0939D02E0939C02DF913A
:10498000CF910895EA01CE17DF07E8F54A815B81F0
:104990009E0141155105B1F7E901FB83EA83499175
:1049A0005991C40FD51FEC17FD0761F480819181E7
:1049B0000296840F951FE9019983888382819381F0
:1049C0009B838A83F0E0E0E012968D919C9113978F
:1049D0000097B9F52D913C911197CD010296820F68
:1049E000931F20919C0230919D022817390739F6B8
:1049F000309751F510929F0210929E02B0939D0243
:104A0000A0939C02BCCFD383C28340815181840F89
:104A1000951FC817D90761F44E5F5F4F8881998150
:104A2000480F591F518340838A819B8193838283DE
:104A30002115310509F0B0CFF0939F02E0939E025B
:104A40009ECFFD01DC01C0CF13821282D7CFFB01C4
:104A5000DC0101900D920020E1F70895AEE0B0E096
:104A6000E4E3F5E20C94EA270D891E898F89988D7D
:104A700026E02C831A83098397FF02C080E090E828
:104A800001979E838D83AE01455E5F4F698D7A8D60
:104A9000CE0101960E945E254D815E8157FD0AC0C0
:104AA0002F813885421753070CF49A01020F131F08
:104AB000F80110822E96E4E00C940628ABE0B0E0FA
:104AC000E4E6F5E20C94DC277C013B018A01FC0161
:104AD00017821682838181FFC8C1CE0101965C01D5
:104AE000F7019381F30193FD859193FF81913F013C
:104AF000882309F453C1853239F493FD859193FFDE
:104B000081913F01853229F4B70190E00E944E2740
:104B1000E7CF912C212C312CFFE1F31538F08B32AB
:104B200011F190F4803209F1833229F137FC3CC055
:104B300020ED280F2A3050F536FE20C08AE0989EDE
:104B4000200D1124922E06C08D3291F0803371F722
:104B5000689430F8F30193FD859193FF81913F01B3
:104B60008111DACF21C0689431F8689432F8F2CF1D
:104B7000689433F8EFCF689434F8ECCFEAE02E9ED7
:104B8000200D1124222E689435F8E4CF8E3229F4BA
:104B900036FC04C1689436F8DDCF8C3619F468947D
:104BA00037F8D8CF8836B1F2982F9F7D955493303F
:104BB000E0F08336A1F18337C1F1833509F063C09A
:104BC0002801F2E04F0E511CF801C080D180692D00
:104BD00070E036FC02C06FEF7FEFC6010E943827FD
:104BE0004C01689437F882010AC00C5F1F4FFFE345
:104BF000F98388248394912C6501E89437F833FE77
:104C00002DC0522C8114910471F5552009F468CF00
:104C1000B70180E290E00E944E275A94F6CFF80147
:104C2000808189830E5F1F4FE4CF2801F2E04F0E91
:104C3000511CF801C080D180692D70E036FC02C0A3
:104C40006FEF7FEFC6010E9443274C018201D5CF51
:104C5000B70180E290E00E944E272A94281419049C
:104C600009F0B0F7CECFF60137FC859137FE819180
:104C70006F01B70190E00E944E2751105A94F1E065
:104C80008F1A9108BFCF843619F0893609F077C0A2
:104C9000F80137FE6BC060817181828193810C5F66
:104CA0001F4FF32DFF763F2E97FF09C090958095FB
:104CB000709561957F4F8F4F9F4F689437F82AE02A
:104CC00030E0A5010E947E27C82ECA188C2C432CE8
:104CD00036FE0CC0E89440F8C91440F434FE05C018
:104CE00032FC03C0F32DFE7E4F2E892C44FE95C06E
:104CF000FE01EC0DF11D8081803309F087C0242D69
:104D0000297E422E842D8870582E43FC95C040FE8B
:104D10008FC09C2C821418F42C0C922C981844FEF2
:104D200091C0B70180E390E00E944E2742FE09C087
:104D300088E790E041FE02C088E590E0B7010E945C
:104D40004E27C91408F48AC0CA94D12C9FEFC91AFF
:104D5000D90ACA0CDB1CF60182916F01B70190E001
:104D60000E944E27AC14BD04B1F74FCF6081718112
:104D7000072E000C880B990B0E5F1F4F92CFD32C80
:104D8000E894D4F82AE030E0853739F1232D297FE3
:104D9000D22E8F3601F148F48835A9F0F7018681CB
:104DA00097812B96E2E10C94F827803749F08837F9
:104DB000A9F7D4FE02C06894D2F820E130E00DC01B
:104DC0006894D4F8F6CF34FE03C0822F8660D82EC4
:104DD00020E132E002C028E030E0F801D7FE0FC049
:104DE00060817181828193810C5F1F4FA5010E94B8
:104DF0007E27C82ECA183D2CE89437F867CF60810B
:104E0000718190E080E00E5F1F4FF0CF42FC02C046
:104E1000839478CF8394839475CF842D867809F416
:104E200071CFF6CFB70180E290E00E944E278394C5
:104E30008214C0F3512C73CF522C5818821408F4EA
:104E40006ECFF8CF842D867809F47BCF8BE241FEBC
:104E500080E247FC8DE2B70190E071CFB70180E3BB
:104E600090E00E944E279A946CCF8FEF9FEF99CFDE
:104E7000FC010590615070400110D8F78095909525
:104E80008E0F9F1F0895FC0161507040019001102A
:104E9000D8F7809590958E0F9F1F08950F931F93BD
:104EA000CF93DF93182F092FEB018B8181FD09C070
:104EB0001FEF0FEF812F902FDF91CF911F910F9157
:104EC000089582FF14C02E813F818C819D81281717
:104ED00039073CF4E881F981CF01019699838883F1
:104EE00010838E819F8101969F838E83E3CFE88517
:104EF000F985812F0995892BA1F3DACFFA01AA2729
:104F0000283051F1203181F1E8946F936E7F6E5F0C
:104F10007F4F8F4F9F4FAF4FB1E03ED0B4E03CD0BA
:104F2000670F781F891F9A1FA11D680F791F8A1F9D
:104F3000911DA11D6A0F711D811D911DA11D20D004
:104F400009F468943F912AE0269F11243019305DBE
:104F50003193DEF6CF010895462F4770405D4193AF
:104F6000B3E00FD0C9F7F6CF462F4F70405D4A33FC
:104F700018F0495D31FD4052419302D0A9F7EACFC4
:104F8000B4E0A6959795879577956795BA95C9F7F3
:104F900000976105710508959B01AC010A2E0694E6
:104FA0005795479537952795BA95C9F7620F731F9F
:104FB000841F951FA01D08952F923F924F925F92DC
:104FC0006F927F928F929F92AF92BF92CF92DF9219
:104FD000EF92FF920F931F93CF93DF93CDB7DEB77E
:104FE000CA1BDB0B0FB6F894DEBF0FBECDBF099412
:104FF0002A88398848885F846E847D848C849B8469
:10500000AA84B984C884DF80EE80FD800C811B8176
:10501000AA81B981CE0FD11D0FB6F894DEBF0FBEA5
:10502000CDBFED01089515E0C1ECD5E004C0FE014F
:105030000E94AA212196C23CD107C9F7F894FFCF5C
:105040000000A0028000000000503C00D996A5D9C5
:10505000FFFFAA00D42C0002DC0ADC0B55A50000DF
:1050600050DC0CD700000CD70000FF102152313269
:10507000333435F000D4500102D6040502D638028C
:1050800002D4BA0001D68D0501D6090301D65B030F
:1050900004D65F0507D48D0007D7190004500050CF
:1050A000DA04005000500000000000007B08DB071D
:1050B0000808E808390817082B080D0A006E616E09
:1050C00000696E66006F766600424C2530325825C6
:1050D00030325800424C3138787800253032642F15
:1050E000253032642F3230253032640043656C6CD9
:1050F0002025327520202020202020203A2000006A
:00000001FF
