:100000000C9498040C94C0040C94C0040C94C00488
:100010000C94C0040C94C0040C94C0040C94C00450
:100020000C94C0040C94C0040C94C0040C94C00440
:100030000C94C0040C94C0040C94C0040C94C00430
:100040000C94730E0C94C0040C94E30E0C94BD0E2F
:100050000C94C0040C94C0040C94C0040C94C00410
:100060000C94C0040C94C0042D2D2D2D2D2D2D2D60
:100070002D2D2D2D2D2D2D2D2D2D2D2D2D2D2D2DB0
:100080002D2D2D2D2D2D2D2D2D2D2D2D2D2D2D2DA0
:100090002D2D2D2D0057616974696E6720666F7272
:1000A00020626174746572792E2E2E003D3D3D3DB7
:1000B0003D3D3D3D3D3D3D3D3D3D3D3D3D3D3D3D70
:1000C0003D3D3D3D3D3D3D3D3D3D3D3D3D3D3D3D60
:1000D0003D3D3D3D3D3D3D3D002020277327203DDA
:1000E0002072657363616E207C206175746F2D646E
:1000F00065746563747320636F6E6E6563742F64DB
:100100006973636F6E6E6563740020204D616B6967
:100110007461204D6F6E69746F72003D3D3D3D3DD1
:100120003D3D3D3D3D3D3D3D3D3D3D3D3D3D3D3DFF
:100130003D3D3D3D3D3D3D3D3D3D3D3D3D3D3D3DEF
:100140003D3D3D3D3D3D3D00200030004672616D2E
:1001500065202020202020202020203A2000202F51
:100160002037005374617465206F66206368617284
:1001700067653A200020430054656D7065726174B4
:10018000757265202020203A20002025004F7665DA
:10019000726C6F6164202520202020203A200020EE
:1001A00025004F4420252020202020202020202012
:1001B000203A20002025004F7665726C6F61642024
:1001C0002520202020203A20002025004F442025F3
:1001D00020202020202020202020203A20004F76A0
:1001E00065726C6F616420636E742020203A200079
:1001F0004F44206576656E74732020202020203ABD
:1002000020002900202F2034202028004865616C20
:1002100074682020202020202020203A20004379CC
:10022000636C6520636F756E74202020203A200077
:10023000417578204353756D2034382D3631203A7E
:100240002000417578204353756D2034342D3437A8
:10025000203A2000436865636B73756D2033322D3F
:100260003430203A2000436865636B73756D20312C
:10027000362D3331203A2000436865636B73756D0A
:1002800020302D313520203A20003135202D2043DB
:100290007269746963616C2028424D532064656102
:1002A00064290035202D205761726E696E67003118
:1002B000202D204F7665726C6F616465640030207C
:1002C0002D204F4B004661696C75726520636F6429
:1002D000652020203A200043656C6C206661696CC3
:1002E0007572652020203A20004C6F636B20737478
:1002F00061747573202020203A200020416800435B
:1003000061706163697479202020202020203A20C8
:1003100000290031302063656C6C20424C33367804
:100320007800352063656C6C20424C313878780059
:10033000342063656C6C20424C3134787800202086
:100340002800426174746572792074797065202088
:10035000203A200044657465637465642074797084
:100360006520203A20004D66672064617465202076
:1003700020202020203A200020003000524F4D2025
:1003800049442020202020202020203A20004D6FAA
:1003900064656C202020202020202020203A20008E
:1003A00020205772697465207665726966792063CA
:1003B0006865636B73756D2033322D3430203A20BD
:1003C000002020577269746520766572696679200D
:1003D000636865636B73756D2031362D3331203A58
:1003E00020002020577269746520766572696679ED
:1003F00020636865636B73756D20302D3135202067
:100400003A2000202057726974652076657269660B
:10041000793A206E6F20726573706F6E736520611C
:100420006674657220706F776572206379636C659E
:100430002E002000300020204672616D653A2000B9
:10044000202057726974696E6720636F72726563EA
:10045000746564206672616D652E2E2E0020202D3D
:100460003E204672616D6520777269746520666111
:10047000696C65642E0020202D3E204672616D65FA
:10048000207772697465207375636365656465645C
:100490002E20554E4C4F434B45442E0020202D3EE0
:1004A00020417474656D7074696E67206672616D49
:1004B000652077726974652E2E2E0020202D3E2037
:1004C000436865636B73756D7320636F72727570CB
:1004D000742E2044412030342063616E6E6F74208E
:1004E00066697820746869732E0020202D3E2053A1
:1004F00074696C6C206C6F636B656420286E6F6E22
:100500002D636865636B73756D20726561736F6EC3
:10051000292E2043616E6E6F74207265636F76655D
:10052000722E0020202D3E20554E4C4F434B45440B
:100530002E002020436865636B73756D2033322D68
:100540003430203A20002020436865636B73756D5A
:100550002031362D3331203A200020204368656356
:100560006B73756D20302D313520203A200020200E
:100570004E6F20726573706F6E736520616674656F
:100580007220756E6C6F636B20617474656D70742E
:100590002E00436F6D706C6574652E00436F756C33
:1005A00064206E6F7420756E6C6F636B2062617473
:1005B000746572792E004261747465727920737566
:1005C000636365737366756C6C7920756E6C6F63AD
:1005D0006B65642E00417474656D7074696E67207C
:1005E000636861726765722D7374796C65206175DB
:1005F000746F2D756E6C6F636B2E2E2E002E204E39
:100600006F20756E6C6F636B20617474656D7074B0
:1006100065642E00556E6C6F636B206E6F74207373
:100620007570706F7274656420666F722062617499
:100630007465727920747970652000435249544979
:1006400043414C3A20424D5320636F6E7369646599
:1006500072656420646561642E2043616E6E6F7400
:10066000207265636F7665722E00426174746572E4
:1006700079204C4F434B45442E204661696C75727E
:100680006520636F64653A20004261747465727915
:1006900020554E4C4F434B45442E004261747465C7
:1006A00072792072656D6F76656420647572696E0B
:1006B00067207363616E2E2041626F7274696E678A
:1006C0002E004261747465727920666F756E6420C5
:1006D000203A2000202020202020202020444F20CD
:1006E0004E4F5420636861726765206F6E20616EA3
:1006F0007920636861726765722E002020202020B7
:1007000020202020467265657363616C65204D432F
:100710003930384A4B334520424D53202D2D206E21
:100720006F2063656C6C2070726F74656374696FA1
:100730006E2E005741524E494E473A205072652D59
:10074000747970652D3020484330382062617474AC
:10075000657279206465746563746564210045522F
:10076000524F523A2042617474657279206E6F74F0
:1007700020726573706F6E64696E672E2041626FC0
:100780007274696E67207363616E2E003D3D3D3D5E
:100790003D3D3D3D3D3D3D3D3D3D3D3D3D3D3D3D89
:1007A0003D3D3D3D3D3D3D3D3D3D3D3D3D3D3D3D79
:1007B0003D3D3D3D3D3D3D3D0020204D616B69741B
:1007C00061204D6F6E69746F72202D205363616ECE
:1007D0006E696E672E2E2E003D3D3D3D3D3D3D3DFB
:1007E0003D3D3D3D3D3D3D3D3D3D3D3D3D3D3D3D39
:1007F0003D3D3D3D3D3D3D3D3D3D3D3D3D3D3D3D29
:100800003D3D3D3D0057616974696E6720666F72BA
:1008100020626174746572792E2E2E003D3D3D3D3F
:100820003D3D3D3D3D3D3D3D3D3D3D3D3D3D3D3DF8
:100830003D3D3D3D3D3D3D3D3D3D3D3D3D3D3D3DE8
:100840003D3D3D3D3D3D3D3D002020426174746590
:1008500072792072656D6F7665642E2057616974B8
:10086000696E672E2E2E003D3D3D3D3D3D3D3D3D9B
:100870003D3D3D3D3D3D3D3D3D3D3D3D3D3D3D3DA8
:100880003D3D3D3D3D3D3D3D3D3D3D3D3D3D3D3D98
:100890003D3D3D0042617474657279206465746504
:1008A0006374656420E28094207374617274696E6D
:1008B00067207363616E2E004D616E75616C2072EE
:1008C000657363616E207265717565737465642EFE
:1008D0000000000000240027002A0000000008009B
:1008E00002010000030407000000000000000000F7
:1008F000000000250028002B000000000023002637
:100900000029000404040404040404020202020294
:1009100002030303030303010204081020408001C3
:10092000020408102001020408102000150F5E1EAA
:1009300011241FBECFEFD8E0DEBFCDBF11E0A0E095
:10094000B1E0ECE4FAE402C005900D92AE3DB107CF
:10095000D9F722E0AEEDB1E001C01D92A63BB2078F
:10096000E1F714E0C7E9D4E004C02197FE010E943A
:10097000B71EC639D107C9F70E94E40F0C94192598
:100980000C940000CF92DF92EF92FF920F931F938F
:10099000CF93DF9328E030E041E06BE871E093E72C
:1009A000C92ED12CCBE2D0E00BED11E09091A40246
:1009B000E091A502F091A602F92EF094582F54234D
:1009C00089F1F89452815F2152835181592B5183CF
:1009D000DE011197F1F75281952B92837894F801FB
:1009E0003197F1F7440F2150310901F7F894E09164
:1009F000A502F091A60291818091A402809598238E
:100A00009183E091A502F091A602928189238283CD
:100A10007894DF91CF911F910F91FF90EF90DF902D
:100A2000CF900895F89452815F2152835181592BC0
:100A30005183DB011197F1F75281952B92837894C2
:100A4000F601CECFEF92FF920F931F93CF93DF93D8
:100A500028E030E080E041E0A3E2B0E09FECE92E46
:100A6000F12C9091A402E091A502F091A602F894D5
:100A70005181592B51836281792F7095672362834D
:100A80008D01ED012197F1F7518157235183E80141
:100A90002197F1F750817894F7013197F1F7952379
:100AA00009F0842B440F21503109D9F6DF91CF9101
:100AB0001F910F91FF90EF9008958091A402E09113
:100AC000A502F091A602F8949181282F20959223F7
:100AD000918378943DE743E050E0315029F1DA0109
:100AE0001197F1F790819823C1F3F89492819223A2
:100AF00092839181982B91837894A3EBBBE011971B
:100B0000F1F7F894918192239183A3E1B1E01197D9
:100B1000F1F79081982381E009F080E07894E3E692
:100B2000F6E03197F1F7089580E008958F929F9253
:100B3000AF92BF92CF92DF92EF92FF920F931F93EB
:100B4000CF93DF936C01E62E8A010E945D05882316
:100B500009F441C083E30E94C2048BE891E001974D
:100B6000F1F7E801289658012BE8822E99249394F6
:100B7000C4010197F1F70E942205F50181935F01FD
:100B8000EC17FD07A9F74601F12C9BE8A92EBB2421
:100B9000B394C4018C199D098E159F054CF4C501B1
:100BA0000197F1F7F40181914F010E94C204F1CF46
:100BB00083E592E00197F1F70F5E1F4F8BE8E82E77
:100BC000FF24F394C7010197F1F70E94220589934E
:100BD0000C171D07B9F7DF91CF911F910F91FF906F
:100BE000EF90DF90CF90BF90AF909F908F9008953F
:100BF00090E0FC01E552F74F2491FC01E95EF64FCD
:100C00003491FC01ED5FF64FE491EE23C9F022230D
:100C100039F0233001F1A8F4213019F1223029F103
:100C2000F0E0EE0FFF1FE151F74FA591B4918FB7A0
:100C3000F894EC91611126C030953E233C938FBF10
:100C400008952730A9F02830C9F0243049F7809161
:100C500080008F7D03C0809180008F77809380001B
:100C6000DFCF84B58F7784BDDBCF84B58F7DFBCF9D
:100C70008091B0008F778093B000D2CF8091B00088
:100C80008F7DF9CF3E2BDACFCF93DF9390E0FC013D
:100C9000E95EF64F24918D5F964FFC018491882385
:100CA000D1F090E0880F991FFC01EF52F74FA5910A
:100CB000B491FC01E151F74FC591D49161110EC07F
:100CC0009FB7F8948C91E22FE0958E238C93288126
:100CD000E223E8839FBFDF91CF9108958FB7F89407
:100CE000EC91E22BEC938FBFF6CF3FB7F894809155
:100CF000ED019091EE01A091EF01B091F00126B5C8
:100D0000A89B05C02F3F19F00196A11DB11D3FBF43
:100D1000BA2FA92F982F8827BC01CD01620F711D12
:100D2000811D911D42E0660F771F881F991F4A950C
:100D3000D1F708958F929F92AF92BF92CF92DF9298
:100D4000EF92FF926B017C010E9475064B015C01E2
:100D5000C114D104E104F104B9F00E9475066819C8
:100D600079098A099B09683E73408105910580F3E2
:100D700021E0C21AD108E108F10888EE880E83E06C
:100D8000981EA11CB11CE4CFFF90EF90DF90CF9094
:100D9000BF90AF909F908F900895AF92BF92CF92E7
:100DA000DF92EF92FF920F931F93CF93DF936C012B
:100DB0007B018B01040F151FEB015E01AE18BF080C
:100DC000C017D10759F06991D601ED91FC910190BE
:100DD000F081E02DC6010995892B79F7C501DF91D6
:100DE000CF911F910F91FF90EF90DF90CF90BF9028
:100DF000AF900895FC01538D448D252F30E0842F52
:100E000090E0821B930B541710F0CF960895019732
:100E10000895FC01918D828D981761F0A28DAE0F1F
:100E2000BF2FB11D5D968C91928D9F5F9F73928FA6
:100E300090E008958FEF9FEF0895FC01918D828DD2
:100E4000981731F0828DE80FF11D858D90E008959F
:100E50008FEF9FEF0895FC01918D228D892F90E0F7
:100E6000805C9F4F821B91098F739927089581EFB2
:100E700091E00E942B0721E0892B09F420E0822FCA
:100E8000089580E090E0892B29F00E9437078111B6
:100E90000C9400000895FC01A48DA80FB92FB11D7A
:100EA000A35ABF4F2C91848D90E001968F739927A0
:100EB000848FA689B7892C93A089B1898C9183707E
:100EC00080648C93938D848D981306C00288F38977
:100ED000E02D80818F7D80830895EF92FF920F93A4
:100EE0001F93CF93DF93EC0181E0888F9B8D8C8DD6
:100EF00098131AC0E889F989808185FF15C09FB7CA
:100F0000F894EE89FF896083E889F989808183708C
:100F1000806480839FBF81E090E0DF91CF911F913B
:100F20000F91FF90EF900895F62E0B8D10E00F5F5C
:100F30001F4F0F731127E02E8C8D8E110CC00FB632
:100F400007FCFACFE889F989808185FFF5CFCE01CA
:100F50000E944B07F1CFEB8DEC0FFD2FF11DE35AF3
:100F6000FF4FF0829FB7F8940B8FEA89FB8980814D
:100F70008062CFCF0F931F93CF93DF938C01D0E08C
:100F8000C0E0F801EC0FFD1F6491662341F081EF92
:100F900091E00E946D07892B11F02196F2CFCE01CE
:100FA000DF91CF911F910F910895CF93DF93EC01C3
:100FB000888D8823B9F0AA89BB89E889F9898C9141
:100FC00085FD03C0808186FD0DC00FB607FCF7CFFD
:100FD0008C9185FFF2CF808185FFEDCFCE010E94FD
:100FE0004B07E9CFDF91CF9108958F929F92AF92F7
:100FF000BF92CF92DF92EF92FF920F931F93CF9306
:10100000DF935C01E62E6A01122F8CEC0E94C20471
:101010008BE891E00197F1F7E501F12C8BE8882E40
:1010200099249394CE018A199B098E159F053CF44F
:10103000C4010197F1F789910E94C204F3CF83E5BF
:1010400092E00197F1F7E601E12EF12C0BE811E0B7
:10105000CE018C199D098E159F053CF4C80101979E
:10106000F1F70E9422058993F3CFDF91CF911F9171
:101070000F91FF90EF90DF90CF90BF90AF909F9037
:101080008F9008954F70FB01F595E795E80FF91FD4
:10109000908160FD04C0907F942B908308959F7091
:1010A00080E1489FA0011124F7CF9B0177FF02C088
:1010B0002F5F3F4F35952795280F391FF901808104
:1010C00060FD02C08F7008958295FCCFCF92DF92B1
:1010D000EF92FF920F931F93CF93DF937C018B01CD
:1010E0006A01D0E0C0E0C016D1064CF0B801C701DB
:1010F0000E945508C80FD11D0F5F1F4FF4CFCE01BE
:10110000CF3FD10519F010F08FEF90E08F70DF9195
:10111000CF911F910F91FF90EF90DF90CF900895A6
:10112000EF92FF920F931F93CF93DF938C017A017D
:101130000E945508C82FB701C8010E94550890E1C8
:10114000C99FE00111248C2BDF91CF911F910F914A
:10115000FF90EF900895AF92BF92CF92DF92EF92FF
:10116000FF920F931F93CF93DF93EC018B0147E125
:1011700050E066E170E00E949008F801808B8D30AD
:1011800008F0D1C084E0818B41E250E060E270E081
:10119000CE010E949008F801828B682F70E090E0E9
:1011A00080E00E94E81F20E030E040E251E40E942D
:1011B0003E1FF801638B748B858B968B43E250E066
:1011C00062E270E0CE010E949008F801878B8C8962
:1011D0008F70808F41E350E060E370E0CE010E94A9
:1011E0009008F801818F43E350E062E370E0CE01A4
:1011F0000E949008F801828F8A8D9B8D482F42951E
:101200004F70292F2F70F0E12F9F90011124342B64
:1012100092959F70292B8F7090E0982F8827929538
:10122000907F88279071822B932BF801948F838F66
:101230008E8982FB882780F9868F4FE050E070E02E
:1012400060E0CE010E946608A82EDC88D2945FE0A0
:10125000D52281E0AD1080E0F801878F4FE150E0AA
:1012600060E170E0CE010E946608B82E8D898F7013
:10127000E82E81E0BE1080E0F80180A348E250E053
:1012800060E270E0CE010E946608C82EFD88F294EC
:101290008FE0F82281E0CF1080E0F80181A34FE2D7
:1012A00050E06CE270E0CE010E9466089F8D9F7056
:1012B00021E0981320E0F80122A34DE350E060E321
:1012C00070E0CE010E9466089F8D92959F7021E08C
:1012D000981320E0F80123A38C89982F9F709F30EA
:1012E00069F482958F708F3049F48D89982F9F70A3
:1012F0009F3021F482958F708F30E1F0AD101AC0CD
:1013000081E0BE1003C0CF1001C080E0F801858FDE
:10131000DF91CF911F910F91FF90EF90DF90CF90D1
:10132000BF90AF9008958E3118F485E0F8012BCF6F
:101330008AE0FCCF81E0EACFCF9361E088E00E94B1
:10134000F80562E370E080E090E00E949A060E9457
:101350005D05C82F60E088E00E94F80581E0C1309B
:1013600009F080E0CF91089560E088E00C94F805E2
:10137000CF93DF93EC0161E088E00E94F805BE01A5
:1013800090E080E0DF91CF910C949A068F929F922B
:10139000AF92BF92CF92DF92EF92FF920F931F9383
:1013A000CF93DF935C01C62E8A01E22E84E690E0A3
:1013B0000E94B8090E945D0581110EC0DF91CF9196
:1013C0001F910F91FF90EF90DF90CF90BF90AF9063
:1013D0009F908F900C94B40983E30E94C2048BE821
:1013E00091E00197F1F7E801085F1F4F2BE8822E8B
:1013F00099249394C4010197F1F70E9422058993DF
:10140000C017D107B9F7E501D12C9BE8892E9924A3
:101410009394CE018A199B098C159D053CF4C40157
:101420000197F1F789910E94C204F3CF83E592E01E
:101430000197F1F7E80110E000E0F12C8BE8C82EED
:10144000DD24D3940E151F050CF0B8CFC60101970B
:10145000F1F70E94220589930F5F1F4FF3CF8F9200
:101460009F92AF92BF92CF92DF92EF92FF920F9333
:101470001F93CF93DF935C01E62E6A01122F84E65F
:1014800090E00E94B8090E945D0581110EC0DF91B5
:10149000CF911F910F91FF90EF90DF90CF90BF9071
:1014A000AF909F908F900C94B4098CEC0E94C20472
:1014B0008BE891E00197F1F7E501F12C8BE8882E9C
:1014C00099249394CE018A199B098E159F053CF4AB
:1014D000C4010197F1F789910E94C204F3CF83E51B
:1014E00092E00197F1F7E601E12EF12C0BE811E013
:1014F000CE018C199D098E159F054CF6C8010197E8
:10150000F1F70E9422058993F3CFCF92DF92EF92F9
:10151000FF920F931F93CF93DF93CDB7DEB7A297C0
:101520000FB6F894DEBF0FBECDBF7C018AEA89A357
:101530001AA28E010F5F1F4F80E2F80111928A9567
:10154000E9F76E01F1E2CF0ED11C20E2A80162E0C2
:10155000C6010E942F0AF8018FEF90E02191922B93
:101560008223EC15FD05D1F79923D1F08F3FD9F0F7
:1015700080E2F801D70101900D928A95E1F781E0B0
:1015800090E0A2960FB6F894DEBF0FBECDBFDF91FC
:10159000CF911F910F91FF90EF90DF90CF90089522
:1015A00090E080E0EECF8FEF9FEFEBCFCF93DF9314
:1015B00000D000D0CDB7DEB7809106019091070131
:1015C000A091080189839A83AB831C8221E0AE013C
:1015D0004C5F5F4F63E0CE0101960E942F0A64E1E9
:1015E00070E080E090E00E949A060F900F900F90BC
:1015F0000F90DF91CF9108958F929F92AF92BF92FB
:10160000CF92DF92EF92FF920F931F93CF93DF93CE
:10161000CDB7DEB7E3970FB6F894DEBF0FBECDBFF0
:101620004C0181E17E0123E2E20EF11CF701282F3B
:1016300011922A95E9F75E0132E1A30EB11CF50182
:10164000282F11922A95E9F7FE0131966F01119228
:101650008A95E9F710E000E061E088E00E94F80573
:1016600062E370E080E090E00E949A06A70163E0E8
:1016700087E491E00E949605A50162E085E491E08F
:101680000E94960566E970E080E090E00E949A066C
:10169000A70163E087E491E00E949605A60162E05D
:1016A00083E491E00E9496050E94B40964E670E02C
:1016B00080E090E00E949A060F5F1F4F801691060F
:1016C00059F60E94D60A0E94B40966E970E080E0EB
:1016D00090E00E949A0688EC90E00E94B809E39698
:1016E0000FB6F894DEBF0FBECDBFDF91CF911F9133
:1016F0000F91FF90EF90DF90CF90BF90AF909F90B1
:101700008F900895CF93DF931F92CDB7DEB71982E4
:1017100021E0AE014F5F5F4F63E087E491E00E94FC
:101720002F0A64E170E080E090E00E949A060F903A
:10173000DF91CF910895CF92DF92EF92FF920F93B6
:101740001F93CF93DF93CDB7DEB729970FB6F894E9
:10175000DEBF0FBECDBF962F209190023091910237
:10176000232B09F444C050E070E060E0592B682B53
:101770008B0122273327C52ED62EE72EFF24BC2D22
:10178000A42F80919602882391F0A82FB0E0A09F0B
:10179000F001A19FF00DB09FF00D11240F2F8C9D33
:1017A00060011124BD2D849FA0011124A52FE0917B
:1017B0009C02809197029091980220919902E217E1
:1017C00021F0E80FF92FF11D1082E0919902E80F46
:1017D000F92FF11D0083E0919A02E80FF92FF11D16
:1017E000B08320919B02820F911DFC01A083809108
:1017F000970290919802892B09F47CC00E9475068B
:1018000000919D0210919E0220919F023091A002B2
:10181000601771078207930740F460939D027093ED
:101820009E0280939F029093A00200919D021091CE
:101830009E0220919F023091A002601B710B820BCF
:10184000930B6C32714081059105C0F2F894809140
:101850009202909193029A838983E0919702F0918A
:101860009802DF0111968081898790918E02E09124
:10187000A102F091A2028091A302992309F449C028
:101880009081982B98879081809589238F838F8171
:101890008C8388E08B8358856F8149853B812C81BF
:1018A00089819A81508347FD252F3A952083262FE1
:1018B00039F0441F00C000006083000000C0F2CF78
:1018C00038E04D9160830000019761F7F093A20228
:1018D000E093A10249873B832C839A838983789480
:1018E0000E94750660939D0270939E0280939F02F2
:1018F0009093A00229960FB6F894DEBF0FBECDBF1D
:10190000DF91CF911F910F91FF90EF90DF90CF90DB
:1019100008959081982B98879081809589238F8353
:101920008F818E8388E08D8358856F8149853D81C5
:101930002E8189819A81508347FD252F00C000C0E8
:10194000208300C000C000C000C000C06083000051
:10195000262F3A9541F0441F000000C000C000C08F
:1019600000C000C0E8CF38E04D9100C0608300C0E7
:10197000019709F7F093A202E093A10249873D8302
:101980002E83ABCF40E060E080E50C949B0B40E5FC
:1019900060E080E00C949B0B40E060E080E00C9401
:1019A0009B0BFC0101900020E9F73197AF01481B28
:1019B000590BBC0181EF91E00C94CD068CE591E0D0
:1019C0000C94D10CCF93DF930E94BA07EC010E94D4
:1019D000DE0C8C0F9D1FDF91CF91089588E690E07B
:1019E0000C94E20C8F929F92AF92BF920F931F9331
:1019F000CF93DF93CDB7DEB7A1970FB6F894DEBFD4
:101A00000FBECDBF19A2423008F44AE08E010F5D2F
:101A10001F4F842E912CB12CA12CA50194010E9462
:101A2000821EE62FB901CA01EA30F4F4E05DD80164
:101A3000EE938D01232B242B252B79F790E080E06A
:101A4000109719F0CD010E94D10CA1960FB6F89411
:101A5000DEBF0FBECDBFDF91CF911F910F91BF9021
:101A6000AF909F908F900895E95CE1CFCF92DF9285
:101A7000EF92FF92CF93DF936B017C016DE281EFD8
:101A800091E00E946D07EC0166277727CB016C1966
:101A90007D098E099F094AE00E94F20C8C0F9D1F60
:101AA000DF91CF91FF90EF90DF90CF900895BC0130
:101AB000990F880B990B97FD0C94360D4AE00C9406
:101AC000F20CCF93DF93682F70E090E080E04AE063
:101AD0000E94F20CEC010E94DE0C8C0F9D1FDF9126
:101AE000CF910895CF93DF93D0E0C0E0009719F035
:101AF0000E94D10CEC010E94DE0C8C0F9D1FDF9127
:101B0000CF9108954F925F926F927F928F929F92A2
:101B1000AF92BF92CF92DF92EF92FF920F931F93FB
:101B2000CF936B017C01742EAC019B010E940A21B2
:101B3000882399F08FE591E0CF911F910F91FF904D
:101B4000EF90DF90CF90BF90AF909F908F907F905D
:101B50006F905F904F900C94D10C46015701E89420
:101B6000B7F82FEF3FEF4FE75FE7C501B4010E94E1
:101B70000A2181110DC02FEF3FEF4FE75FE7C5014D
:101B8000B4010E94391F18161CF483E691E0D4CFEB
:101B90002FEF3FEF4FE75FE4C701B6010E949820A7
:101BA00018161CF487E691E0C7CF2FEF3FEF4FE701
:101BB0005FECC701B6010E94391F87FDF3CF20E01B
:101BC00030E0A901C701B6010E94391F10E000E012
:101BD00087FF0AC06DE281EF91E00E946D078C01E2
:101BE000F7FAF094F7F8F094C0E060E070E080E07D
:101BF0009FE37C1641F020E030E040E251E40E9497
:101C00003E1FCF5FF6CFA70196010E94CD1E2B018C
:101C10003C010E94B71F4B015C014AE00E94F20C9C
:101C20007C01E00EF11ECC23C1F1C501B4010E947C
:101C3000E61F9B01AC01C301B2010E94CC1E4B0107
:101C40005C016EE281EF91E00E946D07E80EF91EE3
:101C5000C15018F120E030E040E251E4C501B40188
:101C60000E949D202B013C010E94B71F4B01B12C0B
:101C7000A12C4AE0C501B4010E94F20CE80EF91E45
:101C8000C501B4010E94E61F9B01AC01C301B20172
:101C90000E94CC1E4B015C01DBCFC701CF911F918D
:101CA0000F91FF90EF90DF90CF90BF90AF909F90FB
:101CB0008F907F906F905F904F900895CF92DF92BA
:101CC000EF92FF926A017B010E94D10C43E0C701B1
:101CD000B6010E94820D8BE691E0FF90EF90DF90BD
:101CE000CF900C94720D1F920F920FB60F92112489
:101CF0002F933F938F939F93AF93BF938091E9016D
:101D00009091EA01A091EB01B091EC013091E801D2
:101D100023E0230F2D3758F50196A11DB11D209307
:101D2000E8018093E9019093EA01A093EB01B0935D
:101D3000EC018091ED019091EE01A091EF01B09145
:101D4000F0010196A11DB11D8093ED019093EE016C
:101D5000A093EF01B093F001BF91AF919F918F914C
:101D60003F912F910F900FBE0F901F90189526E86E
:101D7000230F0296A11DB11DD2CF1F920F920FB655
:101D80000F9211242F933F934F935F936F937F9301
:101D90008F939F93AF93BF93EF93FF9381EF91E066
:101DA0000E944B07FF91EF91BF91AF919F918F914F
:101DB0007F916F915F914F913F912F910F900FBE47
:101DC0000F901F9018951F920F920FB60F9211242B
:101DD0002F938F939F93EF93FF93E0910102F091E4
:101DE00002028081E0910702F091080282FD1BC08F
:101DF000908180910A028F5F8F7320910B0282176E
:101E000041F0E0910A02F0E0EF50FE4F958F809391
:101E10000A02FF91EF919F918F912F910F900FBE2A
:101E20000F901F9018958081F4CF1092F4011092BA
:101E3000F30188EE93E0A0E0B0E08093F501909389
:101E4000F601A093F701B093F8018EE491E090932E
:101E5000F2018093F10185EC90E09093FE01809374
:101E6000FD0184EC90E0909300028093FF0180ECF0
:101E700090E0909302028093010281EC90E09093B5
:101E800004028093030282EC90E090930602809318
:101E9000050286EC90E0909308028093070210926E
:101EA0000A0210920B0210920C0210920D0260E0D6
:101EB00086E00E944406EDE1F9E0E491E093A4029B
:101EC000E9E0F9E0E491F0E0EE0FFF1FE750F74F93
:101ED000859194919093A6028093A5021092AF02EF
:101EE0001092B1021092B0021092AE021092AD02A6
:101EF0001092AC021092AB021092AA021092A902A8
:101F00001092A8021092A70210928F0210929602CD
:101F100010929D0210929E0210929F021092A002B7
:101F200081E080939C028093990210929A0292E041
:101F300090939B0280938E0283E090E090939302B3
:101F4000809392020E940F219093980280939702AF
:101F5000009789F123E0FC0111922A95E9F781E0CD
:101F600090E0909391028093900280E190E09093B2
:101F700095028093940280918F02882341F061E062
:101F800080E10E94440660E080E10E94F805E3E100
:101F9000F9E0E491F0E0EE0FFF1FE151F74F85917A
:101FA00094919093A2028093A102E7E2F9E0E49178
:101FB000E093A3020895109293021092920210925D
:101FC000910210929002D1CFCF93DF93CDB7DEB7BD
:101FD000CF53D1400FB6F894DEBF0FBECDBF78947B
:101FE00084B5826084BD84B5816084BD85B582601E
:101FF00085BD85B5816085BD80916E0081608093CF
:102000006E00109281008091810082608093810037
:102010008091810081608093810080918000816047
:10202000809380008091B10084608093B1008091A2
:10203000B00081608093B00080917A0084608093CA
:102040007A0080917A00826080937A0080917A0091
:10205000816080937A0080917A00806880937A0012
:102060001092C100E0910102F091020282E08083AF
:10207000E091FD01F091FE011082E091FF01F091ED
:10208000000280E1808310920902E0910502F09144
:10209000060286E08083E0910302F09104028081D1
:1020A00080618083E0910302F09104028081886066
:1020B0008083E0910302F091040280818068808334
:1020C000E0910302F091040280818F7D808361E0C2
:1020D00088E00E94440660E088E00E94F805809154
:1020E00094029091950297FD2EC061E00E944406F3
:1020F00060E0809194020E94F80581E080938F0255
:1021000060919602613541F12091970230919802D9
:102110006150E1F070E08FEF90E50E946E1EF901D2
:102120004091920250919302CF01821B930B84172E
:10213000950778F44081469FC001479F900D112478
:1021400090833196EDCF10928F02DACF70E060E08D
:10215000E6CF81E5809396020E94CC0C64EF71E09B
:1021600080E090E00E949A068BE191E00E94E20CF0
:102170008AE091E00E94E20C89ED90E00E94E20C7E
:102180008CEA90E00E94E20C85E990E00E94E20C6B
:102190001092E7011092E6011092E2011092E30121
:1021A0001092E4011092E5012091090130910A0199
:1021B00040910B0150910C01C45FDE4F288339839D
:1021C0004A835B83CC50D14080910D0190910E01E8
:1021D000A0910F01B0911001C05FDE4F88839983F9
:1021E000AA83BB83C051D1402091110130911201CB
:1021F0004091130150911401CC5EDE4F2883398346
:102200004A835B83C451D14080911501909116019E
:10221000A0911701B0911801C85EDE4F88839983A1
:10222000AA83BB83C851D1402091190130911A0172
:1022300040911B0150911C01C45EDE4F28833983FD
:102240004A835B83CC51D14080911D0190911E0146
:10225000A0911F01B0912001C05EDE4F8883998359
:10226000AA83BB83C052D140209121013091220129
:102270004091230150912401CC5DDE4F28833983A6
:102280004A835B83C452D1408091250190912601FD
:10229000A0912701B0912801C85DDE4F8883998302
:1022A000AA83BB83C852D1402091290130912A01D1
:1022B00040912B0150912C01C45DDE4F288339835E
:1022C0004A835B83CC52D14080912D0190912E01A5
:1022D000A0912F01B0913001C05DDE4F88839983BA
:1022E000AA83BB83C053D140209131013091320188
:1022F0004091330150913401CC5CDE4F2883398307
:102300004A835B83C453D14080913501909136015B
:10231000A0913701B0913801C85CDE4F8883998362
:10232000AA83BB83C853D1402091390130913A012F
:1023300040913B0150913C01C45CDE4F28833983BE
:102340004A835B83CC53D14081EF91E00E942B07FD
:10235000892BB9F081EF91E00E9409078F7D8335C9
:1023600081F48091E6019091E701019751F088EBAB
:1023700098E00E94E20C81E090E09093E701809366
:10238000E6018FB7F894C090E901D090EA01E0909F
:10239000EB01F090EC018FBF8091E2019091E3019D
:1023A000A091E401B091E501A7019601281B390B2A
:1023B0004A0B5B0BDA01C90180329340A105B105DC
:1023C000F0F0C092E201D092E301E092E401F092D9
:1023D000E5010E949C092091E6013091E701211559
:1023E000310509F0CAC0882389F084E998E00E9489
:1023F000E20C81E090E09093E7018093E601809108
:10240000E6019091E701892B09F045C08091DE013A
:102410009091DF01A091E001B091E101A701960147
:10242000281B390B4A0B5B0BDA01C9014497A10544
:10243000B10588F1C092DE01D092DF01E092E001A7
:10244000F092E1012FB7F8946091E9017091EA01EF
:102450008091EB019091EC012FBF20ED37E040E03F
:1024600050E00E94821E9B01AC01283E83E03807A9
:102470004105510508F09CC0A0E5B0E00E94A41EF3
:1024800028EE33E040E050E00E94821E822F422F6F
:10249000682F0E949B0B8091E6019091E7010197C4
:1024A00009F05EC082E090E09093E7018093E6013E
:1024B0000E94D60A62E370E080E090E00E949A06F3
:1024C00040E060E580E00E949B0B88ED97E00E9471
:1024D000E20C89EB97E00E94E20C8CE897E00E9406
:1024E000E20CDE01D696CA5FDE4FB983A883C650E0
:1024F000D14085E31D928A95E9F780E090ECA9E749
:10250000B4ECA4968CAF9DAFAEAFBFAFA4974E0115
:10251000B3ED8B0E911C80E2F40111928A95E9F7DC
:1025200000E110E0C4010E94850A009709F04FC045
:102530000150110909F044C08EE597E00E94E20CB9
:102540000E94D60A0E94CC0C0E94B4090E94CC0CB6
:102550001092E7011092E60185E098E00E94E20CFB
:1025600080E090E0892B09F4EFCE0E9437078823A2
:1025700009F48ACE0E94000087CE2230310509F08E
:102580008ACF811188CF0E94DE0C87E698E00E94F6
:10259000E20C89E498E00E94E20C8CE198E00E9451
:1025A000E20C0E94CC0C1092E7011092E60127CFBA
:1025B000A0EBBFEF0E94B21E7F588D4F9F4F60CFA0
:1025C00068EC70E080E090E00E949A06ABCF019644
:1025D000A9F40E94EE0C83E397E00E94E20C8BEFDB
:1025E00096E00E94E20C84ED96E00E94E20C0E94CC
:1025F000EE0C0E94C20C0E94B409B2CFBE016A5C0C
:102600007F4FC4010E94AB081E012BE6220E311C35
:102610008AEAD1018C9311961C92FE0131962F010A
:1026200088E2DF011D928A95E9F720E2AF0162E0BE
:10263000C1010E94C60988E0F201DE01DE96019028
:102640000D928A95E1F722968FAD2297843608F095
:10265000E3C085E090E06C969FAF8EAF6C9789E900
:10266000CD54DF4F8883C35BD040CD56DF4F1882F7
:10267000C359D04020E0AE014D565F4F61E0CE011E
:102680008D549F4F0E942F0A81E3F10180831A82AB
:10269000198222E0A20161E0C1010E942F0A898112
:1026A0001F928F938A811F928F938AE891E09F9364
:1026B0008F931F9288E08F93C95FDE4FF881C750D8
:1026C000D140FF93CA5FDE4F2881C650D1402F937F
:1026D0000E9434220FB6F894DEBF0FBECDBF0E9419
:1026E000EE0C82EC96E00E94BA07CE01C6960E94DC
:1026F000720D40E060E580E00E949B0B6C968EAD11
:102700009FAD6C97009719F00297029720F481E033
:1027100090E00E94FC0A88E2D1011D928A95E9F7B7
:1027200028966FAC2897712C6C968EAD9FAD6C97E8
:102730008530910509F407C1069709F443C1C85CC7
:10274000DE4F288139814A815B81C853D140CD5603
:10275000DF4F288339834A835B83C359D0408DE0A0
:10276000D2011D928A95E9F72DE0A20164E0CE0125
:102770008D569F4F0E942F0A8D85C12CD12C76013A
:10278000863009F0B2C169817A8190E080E00E94D0
:10279000E61F20E030E04AE754E40E943E1F6B0150
:1027A0007C018201C85FDE4F39822882C850D14047
:1027B000B12CA12C0E5F1F4FC301B6E06B16710444
:1027C00014F085E090E0A816B9060CF08EC1EFEF8A
:1027D000AE1ABE0AD80111966C9111978C91762F82
:1027E000682F90E080E00E94E61F20E030E04AE79A
:1027F00054E40E943E1FC85FDE4FE881F981C85053
:10280000D1406193719381939193C85FDE4FF983B7
:10281000E883C850D140CECFD40151968C918E31EF
:1028200009F488C0FCEDEF2ECC5FDE4FE882C45087
:10283000D1408BE0CB5FDE4F8883C550D1408E0105
:102840000D501F4FA1E1FA2EF8012F2D11922A955C
:10285000E9F721E1A80162E0CE018C5F9E4F0E9462
:102860002F0AD80150968C91863021F56C961FAEB8
:102870001EAE6C978CEDD1018C938CE011968C93ED
:1028800080E1F20111928A95E9F720E1A20162E06C
:10289000C1010E942F0AF201DE01D6969E01285F37
:1028A0003F4F819190EE980F9F3508F446C01C92DF
:1028B0001DAE15CF0E94820BF101E0828AE0818378
:1028C000D2011D92FA94E9F721E1A20162E0C1016F
:1028D0000E942F0A0E94D60A66E970E080E090E02C
:1028E0000E949A068989863039F482E090E06C96DD
:1028F0009FAF8EAF6C97BECFC45CDE4F288139810D
:102900004A815B81CC53D14029833A834B835C83DA
:10291000D1011D921D921C9223E0A10164E0C2012D
:102920000E942F0AF1018281863009F09FCF83E057
:1029300090E0DDCF86E090E0DACF8D932E173F0751
:1029400009F0AFCFB5CF510110E000E0C12CD12C80
:102950007601C301B6E06B16710414F085E090E0D7
:10296000081719070CF0C1C081E3800FCD56DF4F67
:102970008883C359D0401A82198222E0A20161E003
:10298000CE018D569F4F0E942F0A69817A8190E077
:1029900080E00E94E61F20E030E04AE754E40E9415
:1029A0003E1F9B01AC01F50121933193419351935B
:1029B0005F01C701B6010E94CD1E6B017C010F5F54
:1029C0001F4FC7CFCD54DF4F1882C35BD04084E187
:1029D000D2011D928A95E9F784E690E00E94B80939
:1029E00080E1CD56DF4F8883C359D04081E2CC5679
:1029F000DF4F8883C459D0400E945D05882351F081
:102A000020E0AE014D545F4F62E0CE018D569F4FE6
:102A10000E94F5076AE070E080E090E00E949A066C
:102A200084EDCD56DF4F8883C359D0400E945D05A9
:102A3000882341F024E1A20161E0CE018D569F4F31
:102A40000E94F5070E94B4098201C85FDE4F3982F7
:102A50002882C850D140B12CA12CC12CD12C760198
:102A6000C301BBE06B16710414F08AE090E0A81675
:102A7000B906DCF5F80161818081762F682F90E03E
:102A800080E00E94E61F20E030E040E251E40E9436
:102A90003E1F9B01AC0160E070E88BEB95E40E9467
:102AA000CC1E20E030E04AE754E40E943E1F9B0128
:102AB000AC01C85FDE4FA881B981C850D1402D93C9
:102AC0003D934D935D93C85FDE4FB983A883C85093
:102AD000D140C701B6010E94CD1E6B017C01BFEF42
:102AE000AB1ABB0A0E5F1F4FBBCF6C968EAD9FAD6E
:102AF0006C978430910554F482309105ACF5892BA4
:102B000099F160E070EC89E794EC67C0853091053D
:102B100009F4E3C00697A9F782EDCD56DF4F88830D
:102B2000C359D040198221E0A20161E0CE018D5647
:102B30009F4F0E942F0A698170E090E080E00E9420
:102B4000E81F20E030E040E252EC0E949D2020E0AF
:102B50003CEA41E156E40E94CD1E20E030E048EC22
:102B600052E40E943E1F39C0CC5CDE4F288139817F
:102B70004A815B81C453D14029833A834B835C8370
:102B8000CD56DF4F188219821A82C359D04023E0F4
:102B9000AE014D565F4F64E0C2010E942F0ACB5632
:102BA000DF4F8881C559D040CD56DF4F688179818C
:102BB000C359D040863009F0A4CF90E080E00E9455
:102BC000E61F20E030E040E251E40E943E1F23E394
:102BD00033E948E853E40E94CC1EA4966CAF7DAF65
:102BE0008EAF9FAFA4976C968EAD9FAD6C979C01F6
:102BF000255031092230310508F085C061962FAD8E
:102C000061972E3108F47CC02D51330B63960EADC5
:102C10001FAD639760964FAD609783E290E0841B91
:102C2000910997FF02C090E080E0820F931F809F80
:102C3000B001819F700D909F700D112490E080E095
:102C40000E94E61F20E030E040E05DE30E949D200E
:102C50004B015C01B80190E080E00E94E61F9B01FF
:102C6000AC01C501B4010E94CD1E4B015C01299647
:102C70008FAD29978A3141F08C3131F0883221F0C3
:102C800068E572E0823311F468EE73E0072E000C01
:102C9000880B990B0E94E81F9B01AC01C501B40190
:102CA0000E943E1F9B01AC0160E070E080E890E470
:102CB0000E94CC1E4B015C0120E030E0A9010E9483
:102CC000391F87FF03C0812C912C5401A0968CAE34
:102CD0009DAEAEAEBFAEA0977DC182E5CD56DF4FB3
:102CE0008883C359D0401A82198222E0A20161E090
:102CF000CE018D569F4F0E942F0A69817A815DCF48
:102D000030E020E083CF009739F09C012250310958
:102D10002230310508F0D4C1CD56DF4F1882198218
:102D20001A82C359D0408230910599F083309105C1
:102D300009F495C0892B71F5C05DDE4F88819981BA
:102D4000AA81BB81C053D14089839A83AB83BC8362
:102D50000CC0C85DDE4F288139814A815B81C85231
:102D6000D14029833A834B835C8323E0AE014D56E7
:102D70005F4F64E0C2010E942F0ACB56DF4F88816B
:102D8000C559D040CD56DF4F68817981C359D040B5
:102D9000863011F070E060E029961FAD299711236D
:102DA000A1F190E080E00E94E61F4B015C01612FE1
:102DB00070E090E080E00E94E81F9B01AC01C5013B
:102DC000B4010E943E1F4B015C0120E030E040EA6C
:102DD00052E40E94982018160CF44AC020E030E01B
:102DE00040E251E4C501B4010E943E1F20E030E002
:102DF00040EA50E40E94CC1E4B015C0120E030E030
:102E0000A9010E94391F87FF03C0812C912C540116
:102E1000A0968CAE9DAEAEAEBFAEA0976C968EADBA
:102E20009FAD6C97CD56DF4F19821882C359D040A1
:102E30008230910521F18330910509F4D4C0892BAA
:102E400009F0DAC0CC5DDE4F288139814A815B818F
:102E5000C452D14029833A834B835C831CC0C45D38
:102E6000DE4F88819981AA81BB81CC52D1406CCF41
:102E7000812C912CE0E8AE2EE0E4BE2EC9CFC45EDA
:102E8000DE4F88819981AA81BB81CC51D140898351
:102E90009A83AB83BC8322E0AE014D565F4F64E062
:102EA000C2010E942F0ACC56DF4F8881C459D040FE
:102EB000863009F0A1C0CD56DF4F8881C359D0407C
:102EC000A7968FAFA7976C968EAD9FAD6C9782300B
:102ED000910509F493C08330910509F4C1C0892B91
:102EE00009F0E7C0C85EDE4F88819981AA81BB8165
:102EF000C851D140CD56DF4F88839983AA83BB83C5
:102F0000C359D04088E0D2011D928A95E9F728E0A4
:102F1000A20164E0CE018D569F4F0E942F0A888542
:102F2000863009F0C6C02F81B0E12B9FA00111248B
:102F3000407F53709E81292F30E064E035952795BE
:102F40006A95E1F7242B352B8D8190E0982F882707
:102F5000882793704C81842B820F931F498142955F
:102F60004695469543702A81E4E02E9F90011124F6
:102F7000242B820F931FA6969FAF8EAFA697C45F98
:102F8000DE4F288139814A815B81CC50D140CD56BA
:102F9000DF4F288339834A835B83C359D04085E060
:102FA000D2011D928A95E9F725E0A20164E0CE01E5
:102FB0008D569F4F0E942F0A8D81863009F07CC06C
:102FC00089819A81AB81BC81AB968CAF9DAFAEAF4E
:102FD000BFAFAB970E949C0981118DC08BE996E031
:102FE0000E94E20CAFCAC05EDE4F288139814A815F
:102FF0005B81C052D1402ECF80E062CFC05FDE4FF8
:10300000288139814A815B81C051D140CD56DF4F43
:10301000288339834A835B83C359D04088E0D20137
:103020001D928A95E9F728E0A20164E0CE018D5651
:103030009F4F0E942F0A88858630D9F529818B8180
:10304000E22FE80FFF27FF1F2C812E0F3F2F311D8E
:103050008E81280F311D8F81820F932F911D8BCF71
:10306000CC5EDE4F288139814A815B81C451D140D9
:10307000CD56DF4F288339834A835B83C359D040C1
:1030800086E0D2011D928A95E9F726E0A20164E06C
:10309000CE018D569F4F0E942F0A8E81863049F4B3
:1030A00089819B81E82FE90FFF27FF1F9F018C81FA
:1030B000D3CF90E080E05FCF80E090E0DC0184CF70
:1030C000F40167896F7070E075956795812C912C7C
:1030D00020E8A22E20E4B22E633008F4F7CD67304A
:1030E00009F4F1CD62507109072E000C880B990B81
:1030F0000E94E81FD7CD0E94EE0C8EE893E00E945C
:10310000BA07CE01C6960E94720D8CE793E00E942A
:10311000BA078E010A5C1F4FB12CA12CD80118965A
:103120008C91803120F48AE793E00E94BA07F8017D
:10313000608570E090E080E040E10E94F20CF7E0F2
:10314000AF16B10421F088E793E00E94BA072FEF91
:10315000A21AB20A0F5F1F4F38E0A316B104F1F6AE
:103160000E94DE0C8EAD1F928F938FAD1F928F93B6
:1031700021968FAD21971F928F9385E991E09F93C0
:103180008F931F928DE08F938E010D561F4F1F93CB
:103190000F930E94342286E693E00E94BA07C8018A
:1031A0000E94720D84E593E00E94BA076C966EADA2
:1031B0007FAD6C97072E000C880B990B0FB6F89417
:1031C000DEBF0FBECDBF97FF64C00E94360D0E94C8
:1031D000DE0C82E493E00E94BA0727966FAD279732
:1031E00070E090E080E04AE00E94F20C8EE393E011
:1031F0000E94BA0727968FAD27978D3008F04DC0F3
:1032000080E393E00E94BA0781E193E00E94E20C20
:103210008FEF92E00E94BA072D966CAD7DAD8EAD1A
:103220009FAD2D9741E00E94820D8BEF92E00E94AE
:10323000E20C0E94EE0C89EE92E00E94BA076496BE
:103240008FAD6497882389F180E791E00E94720D29
:1032500087ED92E00E94BA0765968FAD6597882347
:1032600039F187E791E00E94720D85EC92E00E94AF
:10327000BA072F968FAD2F97813009F432C2D8F05C
:10328000853009F431C28F3009F431C20E94610DDA
:1032900016C04AE00E94F20C9ACF8E3118F482E2F6
:1032A00093E0B0CF83E193E0ADCF8EE691E0CECF57
:1032B0008BE791E0D8CF8EEB92E00E94E20C88E79A
:1032C00092E00E94BA0766968FAD6697882309F44C
:1032D00011C28EE791E00E94720D86E692E00E9494
:1032E000BA0767968FAD6797882309F406C28EE701
:1032F00091E00E94720D84E592E00E94BA07689600
:103300008FAD6897882309F4FBC18EE791E00E9496
:10331000720D82E492E00E94BA0769968FAD6997B8
:10332000882309F4F0C18EE791E00E94720D80E3DA
:1033300092E00E94BA076A968FAD6A97882309F4D3
:10334000E5C18EE791E00E94720D0E94EE0C8EE1C5
:1033500092E00E94BA0763966EAD7FAD639790E0EE
:1033600080E04AE00E94F20C0E94DE0C8CE092E0C9
:103370000E94BA07A0966CAD7DAD8EAD9FADA097B3
:1033800042E00E94820D84E092E00E94BA07A0967B
:103390008CAC9DACAEACBFACA09720E030E0A901F6
:1033A000C501B4010E94982020E030E040E05FE3D6
:1033B00087FDAFC1C501B4010E94CD1E0E94B01FA0
:1033C0008B01B12CA12C88E891E0A016B10614F075
:1033D00086E891E00E94D10CBFEFAB1ABB0AE4E093
:1033E000AE16B10481F782E092E00E94E20C6C9686
:1033F0008EAD9FAD6C97009721F00297029708F071
:1034000085C080EF91E00E94BA07A7968FADA7977D
:103410000E94610D8EED91E00E94BA07A6966EADF6
:103420007FADA69790E080E04AE00E94F20C0E94F7
:10343000DE0CA796BFACA797BB2089F163960EADB3
:103440001FAD63970115110551F18CEC91E00E94BD
:10345000BA076B2D70E090E080E00E94E81F20E04A
:1034600030E048EC52E40E949D204B015C01B80121
:1034700090E080E00E94E61F9B01AC01C501B40111
:103480000E943E1F20E030E040E850E40E94CD1E44
:1034900041E00E94820D89EC91E00E94E20CA69628
:1034A000AEACBFACA697A114B10481F163960EAD8A
:1034B0001FAD63970115110549F187EB91E00E945B
:1034C000BA07B50190E080E00E94E61F20E030E0FE
:1034D00048EC52E40E949D204B015C01B80190E051
:1034E00080E00E94E61F9B01AC01C501B4010E946F
:1034F0003E1F20E030E040E850E40E94CD1E41E055
:103500000E94820D84EB91E00E94E20C6C968EADDD
:103510009FAD6C970597029708F052C060966FAD0B
:10352000609770E090E080E00E94E81F20E030E0CB
:1035300040EA50EC0E949D2020E030E040E253E45D
:103540000E94CD1EC85FDE4F688379838A839B8388
:10355000C850D14061966FAD619770E090E080E017
:103560000E94E81F20E030E040EA50E40E949D20E5
:1035700020E030E040E253E40E94CC1E4B015C01AD
:1035800082EA91E00E94BA0741E0C85FDE4F68819D
:1035900079818A819B81C850D1400E94820D8FE938
:1035A00091E00E94E20C8DE891E00E94BA0741E0B0
:1035B000C501B4010E94820D8AE891E00E94E20CEC
:1035C00020E030EC49E754ECA4966CAD7DAD8EADB7
:1035D0009FADA4970E94391F882389F088E791E066
:1035E0000E94BA07A4966CAD7DAD8EAD9FADA49739
:1035F00041E00E94820D85E791E00E94E20C0E946A
:10360000EE0CB701A60186EA91E00E945E0ED101A0
:103610008C9011969C9011971296AC9012971396DD
:10362000BC90C85FDE4F39822882C850D140382C08
:10363000292C3501D12CC12C28968FAD28978C15BB
:103640001D0409F00CF46AC0BFEFCB1ADB0ADF924D
:10365000CF92E8EBF1E0FF93EF931F9236E13F93B7
:103660005F924F920E943422C85FDE4FA881B981D9
:10367000C850D1404D915D916D917D91C85FDE4FF5
:10368000B983A883C850D140C2010E945E0EC85FB2
:10369000DE4FE881F981C850D1403497E080F18055
:1036A000028113810FB6F894DEBF0FBECDBF940127
:1036B000A501B701C8010E949820181614F447010B
:1036C0005801232D322DA301B701C8010E94391FD3
:1036D00087FD03C0E32CF22C83013E2C2F2C3801F4
:1036E000ABCF8FEA92E0E9CD83EA92E0E6CD8AE8BB
:1036F00092E0E3CD81E891E0EECD81E891E0F9CD73
:1037000081E891E004CE81E891E00FCE81E891E07C
:103710001ACEC501B4010E94CC1E50CE232D322DED
:10372000A301B401C5010E94CC1EAB01BC018BEC0E
:1037300091E00E945E0E6C968EAD9FAD6C970097E7
:1037400021F00297029708F051C0AB966CAD7DADA9
:103750008EAD9FADAB97611571058105910509F49B
:1037600045C029961FAD2997112309F43FC00E9437
:10377000E61F6B017C01612F70E090E080E00E9409
:10378000E81F9B01AC01C701B6010E943E1F20E06B
:1037900030E044E355E40E943E1F6B017C0120E0D1
:1037A00030E040E251E40E94391F01E010E087FD63
:1037B00010C020E030E040E251E4C701B6010E94B1
:1037C0003E1F0E94B01F8B016830710514F007E0A6
:1037D00010E00E94EE0C83E691E00E94BA07C80157
:1037E0000E94570D8EE591E00E94E20C0E94EE0CC3
:1037F0008CE491E00E94BA078E010D521F4FF12C0C
:10380000E12C6801D8018D918D01803120F48AE48A
:1038100091E00E94BA07F8013197608170E090E072
:1038200080E040E10E94F20CBFE1EB16F10421F0D0
:1038300088E491E00E94BA07EFEFEE1AFE0AF0E288
:10384000EF16F104F9F60E94DE0C0E94EE0C64966D
:103850008FAD649781111DC089E896E00E94E20C4B
:103860000E94C70C6C968EAD9FAD6C97009719F0B7
:103870000297029720F483E090E00E94FC0A0E94E5
:10388000C70C0E94EE0C82E995E00E94E20C0C94B9
:10389000FB128AE696E00E94BA072F968FAD2F970B
:1038A0000E94610D2F968FAD2F978F3039F48BE3E7
:1038B00096E00E94E20C0E94C20CE3CF6C968EADA3
:1038C0009FAD6C97009781F00297029768F084E1B2
:1038D00096E00E94BA076C968EAD9FAD6C970E94E1
:1038E000570D8DEF95E0E5CF85ED95E00E94E20C58
:1038F00040E06CE380E50E949B0B82E090E00E9438
:10390000FC0A0E94B40966E970E080E090E00E9441
:103910009A0688EC90E00E94B8090E94820B8E0102
:103920000F5F1F4F81E1D8011D928A95E9F729E0C9
:10393000A80162E08DE391E00E94C60962E370E0B5
:1039400080E090E00E949A060E94D60A62E370E04E
:1039500080E090E00E949A06C6010E94850A0197C5
:1039600039F08EE695E00E94E20C8CE995E0A1CF5B
:10397000BE016A5C7F4FC6010E94AB088AE595E0F4
:103980000E94BA0766968FAD6697882371F18EE71D
:1039900091E00E94720D86E495E00E94BA07679656
:1039A0008FAD6797882321F18EE791E00E94720D19
:1039B00082E395E00E94BA0768968FAD68978823E6
:1039C000D1F08EE791E00E94720D64968FAD6497FE
:1039D000811114C083E295E00E94E20C86EB95E031
:1039E0000E94E20C0E94C70C46CF81E891E0D1CF43
:1039F00081E891E0DBCF81E891E0E5CF66968FAD7D
:103A00006697882369F067968FAD6797882341F0A2
:103A100068968FAD6897882319F08AEE94E0A3CF5B
:103A20008BEB94E00E94E20C8CE994E00E94E20CA3
:103A300040E560E080E50E949B0B82E090E00E9400
:103A4000FC0A80E2F601DE01AD54BF4F01900D92F9
:103A50008A95E1F74FE050E070E060E0CE018D54D0
:103A60009F4F0E946608482F69E270E0CE018D5496
:103A70009F4F0E9442084FE150E060E170E0CE01AC
:103A80008D549F4F0E946608482F6AE270E0CE0175
:103A90008D549F4F0E94420848E250E060E270E07F
:103AA000CE018D549F4F0E946608482F6BE270E054
:103AB000CE018D549F4F0E9442084FE250E06CE2CD
:103AC00070E0CE018D549F4F0E946608482F6EE330
:103AD00070E0CE018D549F4F0E9442084DE350E0AC
:103AE00060E370E0CE018D549F4F0E946608482F1E
:103AF0006FE370E0CE018D549F4F0E94420880E436
:103B000094E00E94E20C86E394E00E94BA07FE0172
:103B1000ED54FF4F5F01F12CE12CD5018D915D013A
:103B2000803120F484E394E00E94BA07F5013197D4
:103B3000608170E090E080E040E10E94F20CBFE123
:103B4000EB16F10421F082E394E00E94BA07EFEF54
:103B5000EE1AFE0AF0E2EF16F104F9F60E94DE0C0E
:103B60000E94820B80E2B82ED801EB2D1D92EA95BF
:103B7000E9F720E2A80162E081E491E00E942F0AC7
:103B80006AE070E080E090E00E949A0683E3898317
:103B9000FE01ED54FF4FDE0112968B2D01900D9228
:103BA0008A95E1F77E01F3E9EF0EF11C98E0A92E6A
:103BB000D701EA2D1D92EA95E9F720E0A70161E21D
:103BC000C8010E94C60964E170E080E090E00E94B4
:103BD0009A06D8011D92AA94E9F720E0A80162E0B4
:103BE0008FE391E00E94C60962E370E080E090E01C
:103BF0000E949A060E94D60A0E94B40966E970E003
:103C000080E090E00E949A0688EC90E00E94B8095B
:103C1000F7011192BA94E9F7C7010E94850A01974A
:103C200039F083E094E00E94E20C8DE594E09BCEB5
:103C300085E3D8011D928A95E9F7B801C7010E9472
:103C4000AB0882EE93E00E94BA0788A1882369F14D
:103C50008EE791E00E94720D81EC93E00E94BA071A
:103C600089A1882329F18EE791E00E94720D80EAF4
:103C700093E00E94BA078AA18823E9F08EE791E0D9
:103C80000E94720D8E8D8111D0CF80E2F701D60196
:103C900001900D928A95E1F7BE016A5C7F4FC601E3
:103CA0000E94AB0886E794E097CE81E891E0D2CFFE
:103CB00081E891E0DACF81E891E0E2CF809197024C
:103CC000909198020E94AB2180919402909195026C
:103CD00097FD03C060E00C9444060895AA1BBB1B2B
:103CE00051E107C0AA1FBB1FA617B70710F0A61BFC
:103CF000B70B881F991F5A95A9F780959095BC011D
:103D0000CD010895A1E21A2EAA1BBB1BFD010DC017
:103D1000AA1FBB1FEE1FFF1FA217B307E407F5077B
:103D200020F0A21BB30BE40BF50B661F771F881F57
:103D3000991F1A9469F760957095809590959B01ED
:103D4000AC01BD01CF0108950E94BD1EA59F900D3D
:103D5000B49F900DA49F800D911D11240895B7FF6D
:103D60000C94A41E0E94A41E821B930B0895EE0FB8
:103D7000FF1F0590F491E02D0994A29FB001B39F1D
:103D8000C001A39F700D811D1124911DB29F700D64
:103D9000811D1124911D08955058BB27AA270E9408
:103DA000E41E0C945E200E94502038F00E945720A0
:103DB00020F039F49F3F19F426F40C944D200EF4B2
:103DC000E095E7FB0C944720E92F0E946F2058F301
:103DD000BA17620773078407950720F079F4A6F5F0
:103DE0000C9491200EF4E0950B2EBA2FA02D0B0110
:103DF000B90190010C01CA01A0011124FF27591B30
:103E000099F0593F50F4503E68F11A16F040A22F35
:103E1000232F342F4427585FF3CF469537952795A6
:103E2000A795F0405395C9F77EF41F16BA0B620BA5
:103E3000730B840BBAF09150A1F0FF0FBB1F661FEC
:103E4000771F881FC2F70EC0BA0F621F731F841F2F
:103E500048F4879577956795B795F7959E3F08F055
:103E6000B0CF9395880F08F09927EE0F9795879517
:103E700008950E94232008F481E008950E94521FB3
:103E80000C945E200E94572058F00E94502040F071
:103E900029F45F3F29F00C94472051110C94922093
:103EA0000C944D200E946F2068F39923B1F35523A1
:103EB00091F3951B550BBB27AA276217730784073D
:103EC00038F09F5F5F4F220F331F441FAA1FA9F3D3
:103ED00035D00E2E3AF0E0E832D091505040E695C1
:103EE000001CCAF72BD0FE2F29D0660F771F881F22
:103EF000BB1F261737074807AB07B0E809F0BB0B15
:103F0000802DBF01FF2793585F4F3AF09E3F510528
:103F100078F00C9447200C9492205F3FE4F3983E95
:103F2000D4F3869577956795B795F7959F5FC9F711
:103F3000880F911D9695879597F90895E1E0660F92
:103F4000771F881FBB1F621773078407BA0720F00B
:103F5000621B730B840BBA0BEE1F88F7E095089574
:103F60000E94B71F6894B1110C94922008950E948A
:103F7000772088F09F5798F0B92F9927B751B0F064
:103F8000E1F0660F771F881F991F1AF0BA95C9F7DD
:103F900014C0B13091F00E949120B1E008950C94CA
:103FA0009120672F782F8827B85F39F0B93FCCF37D
:103FB000869577956795B395D9F73EF4909580955A
:103FC000709561957F4F8F4F9F4F0895E89409C07A
:103FD00097FB3EF490958095709561957F4F8F4F3C
:103FE0009F4F9923A9F0F92F96E9BB279395F69552
:103FF000879577956795B795F111F8CFFAF4BB0FD0
:1040000011F460FF1BC06F5F7F4F8F4F9F4F16C033
:10401000882311F096E911C0772321F09EE8872FBD
:10402000762F05C0662371F096E8862F70E060E079
:104030002AF09A95660F771F881FDAF7880F9695F2
:10404000879597F90895990F0008550FAA0BE0E896
:10405000FEEF16161706E807F907C0F0121613064A
:10406000E407F50798F0621B730B840B950B39F48A
:104070000A2661F0232B242B252B21F408950A26F0
:1040800009F4A140A6958FEF811D811D089597F930
:104090009F6780E870E060E008959FEF80EC0895EE
:1040A00000240A9416161706180609060895002417
:1040B0000A9412161306140605060895092E039491
:1040C000000C11F4882352F0BB0F40F4BF2B11F405
:1040D00060FF04C06F5F7F4F8F4F9F4F089557FD64
:1040E0009058440F551F59F05F3F71F04795880F66
:1040F00097FB991F61F09F3F79F0879508951216FD
:1041000013061406551FF2CF4695F1DF08C01616A8
:1041100017061806991FF1CF869571056105089459
:104120000895E894BB2766277727CB0197F9089570
:104130000E94232008F48FEF08950E94B0200C9471
:104140005E200E94502038F00E94572020F09523D6
:1041500011F00C9447200C944D2011240C949220C3
:104160000E946F2070F3959FC1F3950F50E0551F8B
:10417000629FF001729FBB27F00DB11D639FAA27BC
:10418000F00DB11DAA1F649F6627B00DA11D661F0B
:10419000829F2227B00DA11D621F739FB00DA11D2C
:1041A000621F839FA00D611D221F749F3327A00DE6
:1041B000611D231F849F600D211D822F762F6A2F82
:1041C00011249F5750409AF0F1F088234AF0EE0FE7
:1041D000FF1FBB1F661F771F881F91505040A9F714
:1041E0009E3F510580F00C9447200C9492205F3F35
:1041F000E4F3983ED4F3869577956795B795F79550
:10420000E7959F5FC1F7FE2B880F911D96958795C7
:1042100097F908950E942320880B990B08950F9316
:104220001F93CF93DF938230910510F482E090E0EA
:10423000E091B402F091B50230E020E0B0E0A0E0FF
:10424000309799F42115310509F44AC0281B390B20
:1042500024303105D8F58A819B816115710589F17A
:10426000FB0193838283FE0111C040815181028151
:10427000138148175907E0F04817590799F4109728
:1042800061F012960C93129713961C933296CF01FD
:10429000DF91CF911F910F9108950093B402109375
:1042A000B502F4CF2115310551F04217530738F00C
:1042B000A901DB019A01BD01DF01F801C1CFEF01C6
:1042C000F9CF9093B5028093B402CDCFFE01E20FF7
:1042D000F31F819391932250310939832883D7CFDB
:1042E0002091B2023091B302232B41F420910201BC
:1042F000309103013093B3022093B2022091000168
:10430000309101012115310541F42DB73EB740919F
:10431000040150910501241B350BE091B202F0918C
:10432000B302E217F307A0F42E1B3F0B281739073F
:1043300078F0AC014E5F5F4F2417350748F04E0F01
:104340005F1F5093B3024093B202819391939FCF2A
:10435000F0E0E0E09CCFCF93DF930097E9F0FC0121
:10436000329713821282A091B402B091B502ED018E
:1043700030E020E01097A1F420813181820F931F5B
:104380002091B2023091B3022817390709F061C0B9
:10439000F093B302E093B202DF91CF910895EA0166
:1043A000CE17DF07E8F54A815B819E014115510573
:1043B000B1F7E901FB83EA8349915991C40FD51FF5
:1043C000EC17FD0761F4808191810296840F951F9F
:1043D000E90199838883828193819B838A83F0E0BA
:1043E000E0E012968D919C9113970097B9F52D916D
:1043F0003C911197CD010296820F931F2091B2023A
:104400003091B3022817390739F6309751F51092D9
:10441000B5021092B402B093B302A093B202BCCF23
:10442000D383C28340815181840F951FC817D90758
:1044300061F44E5F5F4F88819981480F591F518306
:1044400040838A819B81938382832115310509F002
:10445000B0CFF093B502E093B4029ECFFD01DC0132
:10446000C0CF13821282D7CFAEE0B0E0EAE3F2E22F
:104470000C94F0240D891E898F89988D26E02C8359
:104480001A83098397FF02C080E090E801979E831A
:104490008D83AE01455E5F4F698D7A8DCE010196A9
:1044A0000E9464224D815E8157FD0AC02F813885AC
:1044B000421753070CF49A01020F131FF8011082E0
:1044C0002E96E4E00C940C25ABE0B0E0EAE6F2E2D4
:1044D0000C94E2247C013B018A01FC0117821682C4
:1044E000838181FFC8C1CE0101965C01F7019381F0
:1044F000F30193FD859193FF81913F01882309F496
:1045000053C1853239F493FD859193FF81913F0129
:10451000853229F4B70190E00E945424E7CF912C12
:10452000212C312CFFE1F31538F08B3211F190F48E
:10453000803209F1833229F137FC3CC020ED280F8D
:104540002A3050F536FE20C08AE0989E200D1124B6
:10455000922E06C08D3291F0803371F7689430F856
:10456000F30193FD859193FF81913F018111DACF92
:1045700021C0689431F8689432F8F2CF689433F827
:10458000EFCF689434F8ECCFEAE02E9E200D112492
:10459000222E689435F8E4CF8E3229F436FC04C11B
:1045A000689436F8DDCF8C3619F4689437F8D8CF94
:1045B0008836B1F2982F9F7D95549330E0F0833682
:1045C000A1F18337C1F1833509F063C02801F2E01E
:1045D0004F0E511CF801C080D180692D70E036FC6F
:1045E00002C06FEF7FEFC6010E943E244C01689429
:1045F00037F882010AC00C5F1F4FFFE3F98388245C
:104600008394912C6501E89437F833FE2DC0522C29
:104610008114910471F5552009F468CFB70180E247
:1046200090E00E9454245A94F6CFF8018081898347
:104630000E5F1F4FE4CF2801F2E04F0E511CF8012E
:10464000C080D180692D70E036FC02C06FEF7FEF33
:10465000C6010E9449244C018201D5CFB70180E2F6
:1046600090E00E9454242A942814190409F0B0F709
:10467000CECFF60137FC859137FE81916F01B701EE
:1046800090E00E94542451105A94F1E08F1A91083E
:10469000BFCF843619F0893609F077C0F80137FEAC
:1046A0006BC060817181828193810C5F1F4FF32DFC
:1046B000FF763F2E97FF09C0909580957095619584
:1046C0007F4F8F4F9F4F689437F82AE030E0A50165
:1046D0000E948424C82ECA188C2C432C36FE0CC091
:1046E000E89440F8C91440F434FE05C032FC03C01D
:1046F000F32DFE7E4F2E892C44FE95C0FE01EC0D5D
:10470000F11D8081803309F087C0242D297E422E3F
:10471000842D8870582E43FC95C040FE8FC09C2C81
:10472000821418F42C0C922C981844FE91C0B701F6
:1047300080E390E00E94542442FE09C088E790E0A4
:1047400041FE02C088E590E0B7010E945424C914DC
:1047500008F48AC0CA94D12C9FEFC91AD90ACA0C8E
:10476000DB1CF60182916F01B70190E00E94542496
:10477000AC14BD04B1F74FCF60817181072E000CDE
:10478000880B990B0E5F1F4F92CFD32CE894D4F86F
:104790002AE030E0853739F1232D297FD22E8F365C
:1047A00001F148F48835A9F0F701868197812B96AD
:1047B000E2E10C94FE24803749F08837A9F7D4FE53
:1047C00002C06894D2F820E130E00DC06894D4F8BB
:1047D000F6CF34FE03C0822F8660D82E20E132E06F
:1047E00002C028E030E0F801D7FE0FC0608171817F
:1047F000828193810C5F1F4FA5010E948424C82EE3
:10480000CA183D2CE89437F867CF6081718190E039
:1048100080E00E5F1F4FF0CF42FC02C0839478CF40
:104820008394839475CF842D867809F471CFF6CF65
:10483000B70180E290E00E94542483948214C0F374
:10484000512C73CF522C5818821408F46ECFF8CF25
:10485000842D867809F47BCF8BE241FE80E247FC11
:104860008DE2B70190E071CFB70180E390E00E9444
:1048700054249A946CCF8FEF9FEF99CFFC01059051
:10488000615070400110D8F7809590958E0F9F1F52
:104890000895FC016150704001900110D8F7809597
:1048A00090958E0F9F1F08950F931F93CF93DF93C3
:1048B000182F092FEB018B8181FD09C01FEF0FEF2E
:1048C000812F902FDF91CF911F910F91089582FF3B
:1048D00014C02E813F818C819D81281739073CF4BB
:1048E000E881F981CF0101969983888310838E81B5
:1048F0009F8101969F838E83E3CFE885F985812F81
:104900000995892BA1F3DACFFA01AA27283051F1B2
:10491000203181F1E8946F936E7F6E5F7F4F8F4FF0
:104920009F4FAF4FB1E03ED0B4E03CD0670F781F4F
:10493000891F9A1FA11D680F791F8A1F911DA11D34
:104940006A0F711D811D911DA11D20D009F468946D
:104950003F912AE0269F11243019305D3193DEF615
:10496000CF010895462F4770405D4193B3E00FD0CB
:10497000C9F7F6CF462F4F70405D4A3318F0495DB6
:1049800031FD4052419302D0A9F7EACFB4E0A69599
:104990009795879577956795BA95C9F700976105BB
:1049A000710508959B01AC010A2E06945795479511
:1049B00037952795BA95C9F7620F731F841F951F06
:1049C000A01D08952F923F924F925F926F927F9217
:1049D0008F929F92AF92BF92CF92DF92EF92FF920F
:1049E0000F931F93CF93DF93CDB7DEB7CA1BDB0BBB
:1049F0000FB6F894DEBF0FBECDBF09942A88398860
:104A000048885F846E847D848C849B84AA84B98466
:104A1000C884DF80EE80FD800C811B81AA81B98172
:104A2000CE0FD11D0FB6F894DEBF0FBECDBFED0186
:104A3000089514E0C7E9D4E004C0FE010E94B71E47
:0C4A40002196C839D107C9F7F894FFCFC0
:104A4C000000B6028000D9FFFFD7190004D65F051D
:104A5C0007D65B0304D48D0007D68D0501D6090358
:104A6C0001D4BA0001D6040502D6380202D4500192
:104A7C0002D70E0002D700000CD42C0002DA045529
:104A8C00A5F000DA34DA31D996A5000000006D07E4
:104A9C00CD06FA06D5072B0709071D070D0A006E70
:104AAC00616E00696E66006F766600205600554E8A
:104ABC004C4F434B454400594553004E6F004F4BF0
:104ACC00004641494C002D002300424C2530325801
:104ADC002530325800253032642F253032642F3285
:104AEC003025303264005061636B20766F6C7461DA
:104AFC0067652020203A200043656C6C20253264C9
:104B0C0020202020202020203A200043656C6C209F
:0E4B1C00646966662020202020203A200000D8
:00000001FF
