:100000000C9450060C9478060C9478060C947806A0
:100010000C9478060C9478060C9478060C94780668
:100020000C9478060C9478060C9478060C94780658
:100030000C9478060C9478060C9478060C94780648
:100040000C947F110C9478060C94EF110C94C91148
:100050000C9478060C9478060C9478060C94780628
:100060000C9478060C9478062D2D2D2D2D2D2D2DEC
:100070002D2D2D2D2D2D2D2D2D2D2D2D2D2D2D2DB0
:100080002D2D2D2D2D2D2D2D2D2D2D2D2D2D2D2DA0
:100090002D2D2D2D00202053746F72653A206E6F28
:1000A0002070726573656E63652E0020205772693B
:1000B00074653A206E6F2070726573656E63652E8D
:1000C00000202041726D3A206E6F2070726573655A
:1000D0006E63652E00202041726D20616C72656137
:1000E00064792069737375656420E2809420706F71
:1000F0007765722D6379636C6520726571756972BD
:1001000065642E0057616974696E6720666F72209E
:10011000626174746572792E2E2E002020427269FD
:10012000646765204750494F342D4750494F35206B
:10013000746F20656E746572206C6F636B206D6FD9
:1001400064652E002020277327203D20726573638D
:10015000616E207C206175746F2D646574656374B5
:100160007320636F6E6E6563742F646973636F6E63
:100170006E6563740020204D616B697461204D6F62
:100180006E69746F7220E28094205363616E202F39
:1001900020556E6C6F636B204D6F6465002020529C
:1001A000656D6F76652062726964676520746F2083
:1001B00073776974636820746F207363616E2F7541
:1001C0006E6C6F636B206D6F64652E002020427231
:1001D00069646765204750494F342D4750494F3572
:1001E00020646574656374656420E28692204C4FD8
:1001F000434B204D4F44450020204D616B69746195
:10020000204C4F434B205574696C69747920E2800F
:10021000942054797065732030202F2032202F20B5
:1002200033206F6E6C790020205B4C6F636B5D2018
:100230005665726966793A206E7962626C657320E0
:10024000646964206E6F7420686F6C6420616674EA
:10025000657220706F7765722D6379636C652E000F
:1002600020205B4C6F636B5D204C6F636B20636F72
:100270006E6669726D65642E0020205B4C6F636B47
:100280005D205665726966793A206E6F20726573DB
:10029000706F6E73652E0020205B4C6F636B5D206A
:1002A000506173732031207665726966793A206EE9
:1002B0007962626C657320646964206E6F74207368
:1002C0007469636B2E0020205B4C6F636B5D205064
:1002D0006173732031207665726966793A206E6F9A
:1002E00020726573706F6E73652E0020205B4C6FFB
:1002F000636B5D205061737320313A2077726974AB
:10030000696E672E2E2E0020205B4C6F636B5D2084
:100310004641494C45442E0020205B4C6F636B5D89
:10032000204C4F434B45442E0020205B4C6F636BA9
:100330005D204465706C6F79696E672068617264D6
:100340002D6C6F636B2073656E74696E656C2E2EF9
:100350002E0020205B4C6F636B5D204261747465DE
:10036000727920697320616C7265616479206C6FA9
:10037000636B65642E00756E737570706F72746553
:10038000642028352C20362C206F7220756E6B6E01
:100390006F776E292E20536B697070696E672E001F
:1003A00020205B4C6F636B5D20547970653A2000B0
:1003B00020205B4C6F636B5D205072652D747970EB
:1003C000652D30204843303820E2809420756E73CC
:1003D0007570706F727465642E0020205B4C6F63C3
:1003E0006B5D204552524F523A204E6F2076616C21
:1003F0006964206672616D652E0020205B4C6F631E
:100400006B5D204261747465727920646574656304
:1004100074656420E28094206964656E746966790D
:10042000696E672E2E2E004672616D652020202099
:100430002020202020203A2000202F203700537435
:10044000617465206F66206368617267653A200099
:1004500020560043656C6C2064696666202020206D
:1004600020203A2000205600286E6F2063656C6CB7
:1004700073207265706F7274656429002056005095
:1004800061636B20766F6C746167652020203A2071
:100490000020430054656D7020284D6F73666574AD
:1004A0002920203A200020430054656D7020284305
:1004B000656C6C73292020203A20002025004F769F
:1004C00065726C6F6164202520202020203A200076
:1004D0002025004F442025202020202020202020DF
:1004E00020203A20002025004F7665726C6F6164F1
:1004F000202520202020203A20002025004F4420C5
:100500002520202020202020202020203A20004FBD
:100510007665726C6F616420636E742020203A20CF
:10052000004F44206576656E7473202020202020C3
:100530003A20004641494C004F4B00202F203420E8
:100540002028004865616C7468202020202020202D
:1005500020203A20004379636C6520636F756E74C8
:10056000202020203A20004641494C004F4B0041BA
:100570007578204353756D2034382D3631203A205C
:10058000004641494C004F4B00417578204353755C
:100590006D2034342D3437203A20004641494C0038
:1005A0004F4B00436865636B73756D2033322D3498
:1005B00030203A20004641494C004F4B00436865CB
:1005C000636B73756D2031362D3331203A20004333
:1005D0006865636B73756D20302D313520203A20AE
:1005E000003135202D20437269746963616C206687
:1005F00061756C742028686172642D6C6F636B6523
:100600006420627920636861726765722900352011
:100610002D205761726E696E670031202D204F7654
:1006200065726C6F616465640030202D204F4B0053
:100630004E6F00594553004661696C7572652063C1
:100640006F64652020203A2000554E4C4F434B45A7
:1006500044004C4F434B45440043656C6C2066613D
:10066000696C7572652020203A20004C6F636B2006
:10067000737461747573202020203A200020416833
:10068000004361706163697479202020202020205C
:100690003A200031302063656C6C20424C33367850
:1006A0007800352063656C6C20424C3138787800D6
:1006B000342063656C6C20424C3134787800202003
:1006C0002800426174746572792074797065202005
:1006D000203A200044657465637465642074797001
:1006E0006520203A20004D666720646174652020F3
:1006F00020202020203A2000524F4D204944202025
:10070000202020202020203A20004D6F64656C209E
:100710002020202020202020203A20004641494C43
:10072000004F4B004641494C004F4B0056657269E3
:1007300066792033322D34302020203A2000464183
:10074000494C004F4B005665726966792031362D51
:1007500033312020203A20005665726966792030B6
:100760002D3135202020203A200020204E6F20728D
:100770006573706F6E736520647572696E6720763D
:1007800065726966792E0020204E6F207072657345
:10079000656E6365206F6E20746573742D6D6F6474
:1007A0006520656E7465722E0052657061697220F5
:1007B0006672616D652020203A200020202D3E20A9
:1007C0004672616D6520726570616972206661694B
:1007D0006C65642E0020202D3E204672616D6520E0
:1007E00072657061697220737563636565646564C1
:1007F0002E20554E4C4F434B45442E0020202D3E7D
:1008000020436865636B73756D7320636F727275D7
:1008100070743B20747279696E67206672616D65D1
:10082000207265706169722E2E2E0020202D3E20D0
:100830005374696C6C206C6F636B656420286E6FF9
:100840006E2D636865636B73756D20726561736F80
:100850006E292E2043616E6E6F74207265636F7611
:1008600065722E0020202D3E20554E4C4F434B45A7
:10087000442062792044412030342E004641494CC6
:10088000004F4B004641494C004F4B0043686563A5
:100890006B73756D2033322D3430203A2000464181
:1008A000494C004F4B00436865636B73756D203195
:1008B000362D3331203A2000436865636B73756DC4
:1008C00020302D313520203A20002020556E6C6FCD
:1008D000636B3A206E6F20726573706F6E73652064
:1008E00061667465722044412030342E002020550A
:1008F0006E6C6F636B3A206E6F2070726573656EFD
:10090000636520656E746572696E672074657374C3
:10091000206D6F64652E00436F756C64206E6F747C
:1009200020756E6C6F636B20626174746572792ED2
:1009300000426174746572792073756363657373C3
:1009400066756C6C7920756E6C6F636B65642E00D8
:10095000417474656D7074696E6720444120303451
:1009600020756E6C6F636B2E2E2E002E20536B69DC
:100970007070696E672E00556E6C6F636B206E6FC2
:100980007420737570706F7274656420666F722066
:1009900074797065200042617474657279204C4FDF
:1009A000434B45442E204661696C75726520636F28
:1009B00064653A20004261747465727920554E4C2A
:1009C0004F434B45442E00436F6D706C6574652E2C
:1009D00000426174746572792072656D6F7665642A
:1009E00020647572696E67207363616E2E204162A8
:1009F0006F7274696E672E0042617474657279203B
:100A0000666F756E6420203A200020202020202070
:100A1000202020444F204E4F542063686172676548
:100A2000206F6E20616E7920636861726765722E37
:100A3000002020202020202020204672656573633E
:100A4000616C65204D433930384A4B334520424D67
:100A500053202D2D206E6F2063656C6C2070726F9B
:100A600074656374696F6E2E005741524E494E474C
:100A70003A205072652D747970652D3020484330CE
:100A8000382062617474657279206465746563747A
:100A9000656421004552524F523A20426174746598
:100AA0007279206E6F7420726573706F6E64696EF8
:100AB0006720616674657220726574726965732E51
:100AC0002041626F7274696E672E0052656D6F7699
:100AD00065206261747465727920616E642074723D
:100AE0007920616761696E2E00202042617474650F
:100AF00072792072656D6F7665642E205761697416
:100B0000696E672E2E2E0020205B4C6F636B5D207C
:100B1000426174746572792072656D6F7665642EBA
:100B20002057616974696E6720666F72206E657800
:100B3000742E2E2E00202042617474657279206418
:100B40006574656374656420E280942073746172D7
:100B500074696E67207363616E2E0020205B4C6F9A
:100B6000636B5D204261747465727920646574659D
:100B70006374656420E28094206C6F636B696E67B8
:100B80002E2E2E004D616E75616C2072657363614F
:100B90006E207265717565737465642E0020204245
:100BA00072696467652072656D6F7665642E204991
:100BB0006E73657274206261747465727920746FEB
:100BC000207363616E2E0020204D6F646520636882
:100BD000616E67656420E28692205343414E202F68
:100BE00020554E4C4F434B204D4F44450020204252
:100BF0007269646765204750494F342D4750494F0B
:100C0000352064657465637465642E20496E736570
:100C10007274206261747465727920746F206C6FD5
:100C2000636B2E0020204D6F6465206368616E67E2
:100C3000656420E28692204C4F434B204D4F444543
:100C40000000000000240027002A00000000080027
:100C50000201000003040700000000000000000083
:100C6000000000250028002B0000000000230026C3
:100C70000029000404040404040404020202020221
:100C80000203030303030301020408102040800150
:100C90000204081020010204081020002112C021C3
:100CA00011241FBECFEFD8E0DEBFCDBF11E0A0E022
:100CB000B1E0E6E4F1E502C005900D92A63CB10773
:100CC000D9F722E0A6ECB1E001C01D92A63AB20726
:100CD000E1F716E0CFE4D6E004C02197FE010E94C0
:100CE0002D22CE34D107C9F70E94F0120C94962819
:100CF0000C94000080919402E0919502F09196028C
:100D0000F8949181282F20959223918378943DE740
:100D100043E050E0315029F1DA011197F1F7908169
:100D20009823C1F3F8949281922392839181982B16
:100D300091837894A3EBBBE01197F1F7F89491813C
:100D400092239183A3E1B1E01197F1F79081982369
:100D500081E009F080E07894E3E6F6E03197F1F77E
:100D6000089580E00895EF92FF920F931F93CF9321
:100D7000DF9328E030E080E041E0A3E2B0E09FECC8
:100D8000E92EF12C90919402E0919502F091960257
:100D9000F8945181592B51836281792F7095672383
:100DA00062838D01ED012197F1F751815723518322
:100DB000E8012197F1F750817894F7013197F1F725
:100DC000952309F0842B440F21503109D9F6DF9186
:100DD000CF911F910F91FF90EF900895CF92DF92E6
:100DE000EF92FF920F931F93CF93DF9328E030E0B1
:100DF00041E06BE871E093E7C92ED12CCBE2D0E063
:100E00000BED11E090919402E0919502F091960221
:100E1000F92EF094582F542389F1F89452815F21D0
:100E200052835181592B5183DE011197F1F7528181
:100E3000952B92837894F8013197F1F7440F215064
:100E4000310901F7F894E0919502F09196029181B1
:100E500080919402809598239183E0919502F0917E
:100E600096029281892382837894DF91CF911F919A
:100E70000F91FF90EF90DF90CF900895F8945281FA
:100E80005F2152835181592B5183DB011197F1F777
:100E90005281952B92837894F601CECF833081F0E6
:100EA00028F4813099F08230A9F008958730A9F0B4
:100EB0008830C9F08430B1F4809180008F7D03C008
:100EC000809180008F7780938000089584B58F771C
:100ED00084BD089584B58F7DFBCF8091B0008F775E
:100EE0008093B00008958091B0008F7DF9CFCF93AB
:100EF000DF93E0E5FCE08491ECE8FCE0D491E8E7E6
:100F0000FCE0C491CC23A1F081110E944E07EC2F8C
:100F1000F0E0EE0FFF1FE759F34FA591B491EC916C
:100F2000ED2381E090E009F480E0DF91CF91089516
:100F300080E090E0FACF1F93CF93DF93282F30E02B
:100F4000F901E55BF34F8491F901E957F34FD4912F
:100F5000F901ED58F34FC491CC23A9F0162F81115C
:100F60000E944E07EC2FF0E0EE0FFF1FE15AF34F07
:100F7000A591B4918FB7F894EC91111108C0D09558
:100F8000DE23DC938FBFDF91CF911F910895DE2B7D
:100F9000F8CFCF93DF9390E0FC01E957F34F249112
:100FA0008D58934FFC0184918823C9F090E0880FFD
:100FB000991FFC01EF5BF34FA591B491FC01E15A3D
:100FC000F34FC591D49161110DC09FB7F8948C91E6
:100FD000209582238C938881282328839FBFDF91CB
:100FE000CF910895623051F49FB7F8943C91822FCD
:100FF000809583238C93E8812E2BEFCF8FB7F894C5
:10100000EC912E2B2C938FBFEACF3FB7F8948091B1
:10101000DC019091DD01A091DE01B091DF0126B5E8
:10102000A89B05C02F3F19F00196A11DB11D3FBF20
:10103000BA2FA92F982F8827BC01CD01620F711DEF
:10104000811D911D42E0660F771F881F991F4A95E9
:10105000D1F708958F929F92AF92BF92CF92DF9275
:10106000EF92FF926B017C010E9405084B015C012D
:10107000C114D104E104F104B9F00E940508681913
:1010800079098A099B09683E73408105910580F3BF
:1010900021E0C21AD108E108F10888EE880E83E049
:1010A000981EA11CB11CE4CFFF90EF90DF90CF9071
:1010B000BF90AF909F908F900895262F2695820F16
:1010C000911DFC01808160FD02C08F7008958295A2
:1010D000FCCFAF92BF92CF92DF92EF92FF920F932D
:1010E0001F93CF93DF936C017B018B01040F151FBE
:1010F000EB015E01AE18BF08C017D10759F0699126
:10110000D601ED91FC910190F081E02DC601099589
:10111000892B79F7C501DF91CF911F910F91FF9036
:10112000EF90DF90CF90BF90AF900895FC01538D6A
:10113000448D252F30E0842F90E0821B930B5417B1
:1011400010F0CF96089501970895FC01918D828D3E
:10115000981761F0A28DAE0FBF2FB11D5D968C91D7
:10116000928D9F5F9F73928F90E008958FEF9FEF16
:101170000895FC01918D828D981731F0828DE80FD2
:10118000F11D858D90E008958FEF9FEF0895FC018C
:10119000918D228D892F90E0805C9F4F821B910959
:1011A0008F739927089581EE91E00E94C70821E08E
:1011B000892B09F420E0822F089580E090E0892BAC
:1011C00029F00E94D30881110C9400000895FC01BD
:1011D000A48DA80FB92FB11DA35ABF4F2C91848D98
:1011E00090E001968F739927848FA689B7892C93F5
:1011F000A089B1898C91837080648C93938D848D48
:10120000981306C00288F389E02D80818F7D80834A
:101210000895EF92FF920F931F93CF93DF93EC010A
:1012200081E0888F9B8D8C8D98131AC0E889F9898D
:10123000808185FF15C09FB7F894EE89FF89608390
:10124000E889F98980818370806480839FBF81E011
:1012500090E0DF91CF911F910F91FF90EF90089553
:10126000F62E0B8D10E00F5F1F4F0F731127E02E2E
:101270008C8D8E110CC00FB607FCFACFE889F98966
:10128000808185FFF5CFCE010E94E708F1CFEB8D7D
:10129000EC0FFD2FF11DE35AFF4FF0829FB7F8943A
:1012A0000B8FEA89FB8980818062CFCF0F931F93D8
:1012B000CF93DF938C01D0E0C0E0F801EC0FFD1F6D
:1012C0006491662341F081EE91E00E940909892B27
:1012D00011F02196F2CFCE01DF91CF911F910F91A6
:1012E0000895682F81EE91E00C940909CF93DF9364
:1012F000EC01888D8823B9F0AA89BB89E889F9892E
:101300008C9185FD03C0808186FD0DC00FB607FC62
:10131000F7CF8C9185FFF2CF808185FFEDCFCE0195
:101320000E94E708E9CFDF91CF9108950F931F93B3
:10133000CF938C01C8E26C2FC8010E945D088F30EA
:1013400041F4CF5FCC32B9F781E0CF911F910F917B
:10135000089580E0FACFEF92FF920F931F93CF93FF
:10136000DF937C01162F042FD0E0C0E0011740F07E
:10137000612FC7010E945D08C80FD11D1F5FF6CF06
:10138000CE01CF3FD10519F010F08FEF90E08F70B4
:10139000DF91CF911F910F91FF90EF900895AF9241
:1013A000BF92CF92DF92EF92FF920F931F93CF9352
:1013B000DF938C01EB018A898D3008F468C08E318F
:1013C00008F467C08AE08BAB6B8970E090E080E046
:1013D0000E945E2320E030E040E251E40E94B4220B
:1013E0006CAB7DAB8EAB9FAB4FE060E0C8010E9461
:1013F000AB09A82EDB8C81E0AD1080E089AF4FE116
:1014000060E1C8010E94AB09B82EEC8C81E0BE10EF
:1014100080E08AAF48E260E2C8010E94AB09C82EB2
:10142000FD8C81E0CF1080E08BAF4FE26CE2C80111
:101430000E94AB0991E02E8D281390E09CAF4DE304
:1014400060E3C8010E94AB0991E02F8D281390E062
:101450009DAF8FE0D81207C0E81205C0F81203C094
:101460008D898F30C1F0AD1016C081E0BE1003C071
:10147000CF1001C080E088AFDF91CF911F910F9115
:10148000FF90EF90DF90CF90BF90AF90089584E0F1
:101490009ACF85E098CF81E0EECF0F931F93CF9343
:1014A000DF938C01D42F0E945D08C82F6D2FC801D7
:1014B0000E945D0890E1C99FE00111248C2BDF910F
:1014C000CF911F910F910895CF92DF92EF92FF92EB
:1014D0000F931F93CF93DF93EC018B0147E166E1FC
:1014E0000E944D0AF801808341E260E2CE010E9431
:1014F0004D0AF801818343E262E2CE010E944D0A67
:10150000F801828368E2CE010E945D08F8018383BE
:1015100041E360E3CE010E944D0AF801848343E376
:1015200062E3CE010E944D0AF80185836CE2CE0190
:101530000E945D0882FB882780F9F801808764E3B8
:10154000CE010E945D08D82E65E3CE010E945D08A1
:10155000C82E66E3CE010E945D08F0E18F9F700106
:101560001124FC2867E3CE010E945D082D2D30E098
:10157000322F22273295307F22273071E82A2E29F8
:101580003F29F8013783268369E2CE010E945D0876
:10159000F80181876AE2CE010E945D08F801828726
:1015A0006BE2CE010E945D08F80183876EE3CE01F5
:1015B0000E945D08F80184876FE3CE010E945D08F8
:1015C000F8018587DF91CF911F910F91FF90EF90E8
:1015D000DF90CF9008954F70E62FE695E80FF92F32
:1015E000F11D908160FD04C0907F942B908308953D
:1015F0009F7080E1489FA0011124F7CFCF9361E055
:1016000088E00E949B0762E370E080E090E00E9427
:101610002A080E947A06C82F60E088E00E949B0793
:1016200081E0C13009F080E0CF91089560E088E06A
:101630000C949B07CF93DF93EC0161E088E00E945C
:101640009B07BE0190E080E0DF91CF910C942A08C7
:101650000E94160B1092E00166E970E080E090E0D5
:101660000E942A0888EC90E00C941A0B8F929F92AB
:10167000BF92CF92DF92EF92FF920F931F93CF937F
:10168000DF93F82EC62FD42EC52EB22E882321F03C
:1016900084E690E00E941A0B0E947A06811111C024
:1016A000F1100E94160B81E090E0DF91CF911F9125
:1016B0000F91FF90EF90DF90CF90BF909F908F9011
:1016C00008958C2F0E94EE06C33389F4E801085F69
:1016D0001F4F2BE8822E99249394C4010197F1F7B0
:1016E0000E94B3068993C017D107B9F78E019D2CCC
:1016F000CD2DDC2D9BE8C92EDD24D394C6010197A6
:10170000F1F789910E94EE068C2F89198B15B0F3A1
:1017100083E592E00197F1F7E8010E0D111D8BE8CA
:10172000C82EDD24D394C017D10739F0C601019724
:10173000F1F70E94B3068993F6CFF1100E94160BC1
:1017400090E080E0B2CFEF920F931F93262F39E005
:10175000E32E8A01AC0163E380E00E94360B1F9107
:101760000F91EF900895EF920F931F93E22E8A014D
:10177000262FAC016CEC81E00E94360B1F910F917B
:10178000EF9008950F931F93CF938B01C42F242FB5
:10179000AB0164E00E94B30B892B41F4F801EC0F1C
:1017A000F11D319781E09081963009F080E0CF9172
:1017B0001F910F910895CF93DF93D82FC92F20E267
:1017C000482F592F62E085E191E00E94B30B892BED
:1017D000B1F4ED2FFC2FAF01405E5F4F8FEF90E033
:1017E0002191922B8223E417F507D1F7992339F041
:1017F0008F3F41F081E090E0DF91CF91089590E03C
:1018000080E0FACF8FEF9FEFF7CFCF93DF931F9258
:10181000CDB7DEB78091C601882391F0198221E00F
:10182000AE014F5F5F4F63E086E691E00E94B30B2D
:101830001092C60164E170E080E090E00E942A0806
:101840000F90DF91CF9108950F931F93CF93DF9364
:101850001F92CDB7DEB7198221E0AE014F5F5F4F17
:1018600063E08BE691E00E94B30B8C01892B49F475
:1018700081E08093C60164E170E080E090E00E9426
:101880002A08C8010F90DF91CF911F910F91089501
:10189000CF92DF92EF92FF921F93CF93DF93CDB75A
:1018A000DEB7A2970FB6F894DEBF0FBECDBFFC0126
:1018B0008381843628F485E0442349F08FEF07C004
:1018C000FB0181898E3189F486E04111F7CFA29620
:1018D0000FB6F894DEBF0FBECDBFDF91CF911F9141
:1018E000FF90EF90DF90CF900895142FAE014E5EE1
:1018F0005F4F81E1FA0111928A95E9F721E162E0F7
:101900008FE091E00E94B30B892B29F48AA18630E5
:1019100011F480E0DCCF0E94240C9E012F5F3F4F2A
:101920007901892BE1F481E1F90111928A95E9F7B6
:1019300021E1A70162E08DE091E00E94B30B6C0110
:101940000E94050C66E970E080E090E00E942A08A1
:10195000CD2829F48989863011F482E0B8CF198224
:101960001A821B8223E0A70164E089E091E00E94D3
:10197000B30B892B19F48B81863019F0812F819557
:10198000A6CF83E0A4CFCF92DF92EF92FF920F9386
:101990001F93CF93DF93CDB7DEB729970FB6F89497
:1019A000DEBF0FBECDBF282F8091800290918102B3
:1019B000892B09F449C0872F90E0B0E0A0E0BA2F4E
:1019C000A92F982F8827A62B822BAD016627772772
:1019D000C92EDA2EEB2EFF241C2D382F20918602E3
:1019E000222391F0022F10E0049FF001059FF00DDB
:1019F000149FF00D11244F2F2C9D600111241D2DDB
:101A0000289FC0011124392FE0918C028091870218
:101A10009091880220918902E21721F0E80FF92FB6
:101A2000F11D1082E0918902E80FF92FF11D40832A
:101A3000E0918A02E80FF92FF11D108320918B02AB
:101A4000820F911DFC013083809187029091880262
:101A5000892B09F47CC00E94050800918D02109129
:101A60008E0220918F0230919002601771078207D9
:101A7000930740F460938D0270938E0280938F02DF
:101A80009093900200918D0210918E0220918F020E
:101A900030919002601B710B820B930B6C32714082
:101AA00081059105C0F2F8948091820290918302A1
:101AB0009A838983E0918702F0918802DF01119671
:101AC0008081898790917E02E0919102F09192024B
:101AD00080919302992309F449C09081982B9887AB
:101AE0009081809589238F838F818C8388E08B837D
:101AF00058856F8149853B812C8189819A815083EA
:101B000047FD252F3A952083262F39F0441F00C02A
:101B100000006083000000C0F2CF38E04D91608388
:101B20000000019761F7F0939202E09391024987D8
:101B30003B832C839A83898378940E940508609361
:101B40008D0270938E0280938F029093900229965B
:101B50000FB6F894DEBF0FBECDBFDF91CF911F91BE
:101B60000F91FF90EF90DF90CF9008959081982B88
:101B700098879081809589238F838F818E8388E0D9
:101B80008D8358856F8149853D812E8189819A8118
:101B9000508347FD252F00C000C0208300C000C037
:101BA00000C000C000C060830000262F3A9541F0BD
:101BB000441F000000C000C000C000C000C0E8CF4B
:101BC00038E04D9100C0608300C0019709F7F093A1
:101BD0009202E093910249873D832E83ABCF6091BF
:101BE0005B0170915C0180915D010C94C30C60916C
:101BF0005E0170915F01809160010C94C30C5F9253
:101C00006F927F928F929F92AF92BF92CF92DF920C
:101C1000EF92FF920F931F93CF93DF93CDB7DEB771
:101C2000E3970FB6F894DEBF0FBECDBF082F722E1C
:101C3000632E542E11E0211105C0311103C0411152
:101C400001C010E0F12CE12C4B01B12CA12C802F14
:101C50008150990B6C0182E390E00E941A0BAE0157
:101C60004D5D5F4F63E08BE691E00E94A30B892BF3
:101C700011F1AE014D5D5F4F63E086E691E00E9499
:101C8000A30B0E94160B10E0812FE3960FB6F89479
:101C9000DEBF0FBECDBFDF91CF911F910F91FF909F
:101CA000EF90DF90CF90BF90AF909F908F907F90FC
:101CB0006F905F900895AE014E5E5F4F62E089E6DF
:101CC00091E00E94A30B892BA1F6112329F0672D27
:101CD000762D852D0E94C30CC501B4010E942A08EF
:101CE000AE014D5D5F4F63E08BE691E00E94A30B78
:101CF000892B09F0BECFAE014F5F5F4F62E084E6F3
:101D000091E00E94A30B892B09F0B3CF112329F096
:101D1000EC14FD0414F40E94F70D0E94160BEC1451
:101D2000FD0434F464E670E080E090E00E942A084C
:101D30009FEFE91AF90AE01608F48DCF82E390E0EC
:101D40000E941A0BAE014D5D5F4F63E086E691E0A5
:101D50000E94A30B0E94160B111196CF0E94280B14
:101D600011E092CFCF93C3E00E94EF0D68EC70E0DA
:101D700080E090E00E942A080E94F70D64E670E07F
:101D800080E090E00E942A08C15071F7CF910C9436
:101D9000EF0DCF92DF92EF92CF93C3E0C090060198
:101DA000D0900701E09008018E2DB6010E94C30C6F
:101DB00068EC70E080E090E00E942A080E94F70D35
:101DC00064E670E080E090E00E942A08C15061F76C
:101DD0008E2DB601CF91EF90DF90CF900C94C30C75
:101DE000DF92EF92FF920F931F93CF93DF93EC015B
:101DF000062F10E080E2D82E7E0180E2E80EF11C72
:101E0000FE018D2D11928A95E9F720E2AE0162E084
:101E100085E191E00E94B30B892B59F068EC70E0EA
:101E200080E090E00E942A081F5F0113E9CF80E064
:101E30000EC0FE018FEF90E02191922B8223EE16CF
:101E4000FF06D1F7992351F38F3F41F381E0DF91F2
:101E5000CF911F910F91FF90EF90DF900895FC01BB
:101E600001900020E9F73197AF01481B590BBC01E5
:101E700081EE91E00C94690880E891E00C942F0FBA
:101E8000CF93DF930E945609EC010E943C0F8C0F08
:101E90009D1FDF91CF91089588E690E00C94400F4C
:101EA0008F929F92AF92BF920F931F93CF93DF9326
:101EB000CDB7DEB7A1970FB6F894DEBF0FBECDBF8A
:101EC00019A2423008F44AE08E010F5D1F4F842EA4
:101ED000912CB12CA12CA50194010E94F821E62F90
:101EE000B901CA01EA30F4F4E05DD801EE938D0146
:101EF000232B242B252B79F790E080E0109719F005
:101F0000CD010E942F0FA1960FB6F894DEBF0FBE31
:101F1000CDBFDF91CF911F910F91BF90AF909F9058
:101F20008F900895E95CE1CFCF93DF93682F70E045
:101F300090E080E04AE00E94500FEC010E943C0FCC
:101F40008C0F9D1FDF91CF910895CF92DF92EF927A
:101F5000FF92CF93DF936C01990FEE08FF08F7FE15
:101F60001BC08DE20E947109EC0166277727CB0127
:101F70006C197D098E099F094AE00E94500FC80F15
:101F8000D91F0E943C0F8C0F9D1FDF91CF91FF90B6
:101F9000EF90DF90CF9008954AE0C701B6010E940C
:101FA000500FEC01EECF4F925F926F927F928F9223
:101FB0009F92AF92BF92CF92DF92EF92FF92CF9318
:101FC0006B017C01842EAC019B010E94802488233C
:101FD00089F083E891E0CF91FF90EF90DF90CF9070
:101FE000BF90AF909F908F907F906F905F904F9039
:101FF0000C942F0F26013701E89477F82FEF3FEF6D
:102000004FE75FE7C301B2010E94802481110DC038
:102010002FEF3FEF4FE75FE7C301B2010E94AF220E
:1020200018161CF487E891E0D6CF2FEF3FEF4FE76B
:102030005FE4C701B6010E940E2418161CF48BE859
:1020400091E0C9CF2FEF3FEF4FE75FECC701B6013B
:102050000E94AF2287FDF3CF20E030E0A901C70145
:10206000B6010E94AF22B12CA12C87FF08C08DE2DF
:102070000E9471095C01F7FAF094F7F8F094C82D0A
:1020800060E070E080E09FE3912C20E030E040E2EF
:1020900051E40E94B42293949814B8F3A7019601D6
:1020A0000E9443222B013C010E942D236B017C01E5
:1020B0000E945C239B01AC01C301B2010E94422239
:1020C0002B013C014AE0C701B6010E94500F7C0180
:1020D0008EE20E947109E80EF91EEA0CFB1CC15049
:1020E00018F120E030E040E251E4C301B2010E9467
:1020F00013242B013C010E942D234B01B12CA12C58
:102100004AE0C501B4010E94500FE80EF91EC50156
:10211000B4010E945C239B01AC01C301B2010E9487
:1021200042222B013C01DBCFC701CF91FF90EF9002
:10213000DF90CF90BF90AF909F908F907F906F90E7
:102140005F904F900895CF93DF93D0E0C0E0009769
:1021500019F00E942F0FEC010E943C0F8C0F9D1F65
:10216000DF91CF910895BF92CF92DF92EF92FF92CD
:102170000F931F93CF93DF93CDB7DEB7CA54D10926
:102180000FB6F894DEBF0FBECDBF8C01F090E0011A
:10219000FF20B9F085ED90E00E94400FF12C8F2DCB
:1021A000C65BDF4F0FB6F894DEBF0FBECDBFDF9129
:1021B000CF911F910F91FF90EF90DF90CF90BF9044
:1021C0000895AE014D5D5F4F80E2FA0111928A954C
:1021D000E9F720E262E083E191E00E94B30B892BF2
:1021E00029F081EC90E00E94400FD9CF81E08093EC
:1021F000E00162E370E080E090E00E942A088FE056
:1022000089831A8280E2F801DE01139601900D9213
:102210008A95E1F78E010D5B1F4F88E0B82EF8011B
:102220008B2D11928A95E9F7E12C22E2FE0131967D
:102230006F01AF0163E381E00E94360B892B19F037
:102240008BEA90E0D0CF62E370E080E090E00E9403
:102250002A08F6011192BA94E9F7E12C860122E0EE
:1022600041E151E063E381E00E94360B892B19F0D4
:1022700085E990E0B8CF64E670E080E090E00E94ED
:102280002A08FF24F3948BCFAF92BF92CF92DF92B4
:10229000EF920F931F93CF93DF93CDB7DEB7A8973D
:1022A0000FB6F894DEBF0FBECDBF5C01CE01019624
:1022B0006C0188E2F60111928A95E9F780E2E82E36
:1022C000860122E045E151E063E381E00E94360BA4
:1022D00088E0F601D50101900D928A95E1F7A89664
:1022E0000FB6F894DEBF0FBECDBFDF91CF911F9127
:1022F0000F91EF90DF90CF90BF90AF9008951F9215
:102300000F920FB60F9211242F933F938F939F93A9
:10231000AF93BF938091D8019091D901A091DA0138
:10232000B091DB013091D70123E0230F2D3758F511
:102330000196A11DB11D2093D7018093D8019093E0
:10234000D901A093DA01B093DB018091DC01909177
:10235000DD01A091DE01B091DF010196A11DB11D4B
:102360008093DC019093DD01A093DE01B093DF0147
:10237000BF91AF919F918F913F912F910F900FBE81
:102380000F901F90189526E8230F0296A11DB11DEE
:10239000D2CF1F920F920FB60F9211242F933F931B
:1023A0004F935F936F937F938F939F93AF93BF935D
:1023B000EF93FF9381EE91E00E94E708FF91EF9188
:1023C000BF91AF919F918F917F916F915F914F914D
:1023D0003F912F910F900FBE0F901F9018951F9255
:1023E0000F920FB60F9211242F938F939F93EF9319
:1023F000FF93E091F101F091F2018081E091F7010A
:10240000F091F80182FD1BC090818091FA018F5FED
:102410008F732091FB01821741F0E091FA01F0E007
:10242000EF51FE4F958F8093FA01FF91EF919F91AD
:102430008F912F910F900FBE0F901F901895808154
:10244000F4CF1092E4011092E30188EE93E0A0E053
:10245000B0E08093E5019093E601A093E701B0938B
:10246000E80182E791E09093E2018093E10185EC3D
:1024700090E09093EE018093ED0184EC90E09093D6
:10248000F0018093EF0180EC90E09093F201809353
:10249000F10181EC90E09093F4018093F30182ECE0
:1024A00090E09093F6018093F50186EC90E0909394
:1024B000F8018093F7011092FA011092FB0110923B
:1024C000FC011092FD0160E086E00E94C907EDE882
:1024D000FCE0E491E0939402E9E7FCE0E491F0E0B1
:1024E000EE0FFF1FE759F34F859194919093960259
:1024F0008093950210929F021092A1021092A00266
:1025000010929E0210929D0210929C0210929B02C9
:1025100010929A02109299021092980210929702C9
:1025200010927F021092860210928D0210928E02FB
:1025300010928F021092900281E080938C0280931F
:10254000890210928A0292E090938B0280937E021D
:1025500083E090E090938302809382020E9485241E
:102560009093880280938702009789F123E0FC0111
:1025700011922A95E9F781E090E09093810280938F
:10258000800280E190E090938502809384028091A4
:102590007F02882341F061E080E10E94C90760E08A
:1025A00080E10E949B07E3E8FCE0E491F0E0EE0F9D
:1025B000FF1FE15AF34F859194919093920280937B
:1025C0009102E7E9FCE0E491E09393020895109210
:1025D0008302109282021092810210928002D1CF67
:1025E000CF93DF93CDB7DEB7C151D1400FB6F8948A
:1025F000DEBF0FBECDBF789484B5826084BD84B544
:10260000816084BD85B5826085BD85B5816085BDED
:1026100080916E00816080936E00109281008091A5
:10262000810082608093810080918100816080932D
:102630008100809180008160809380008091B10052
:1026400084608093B1008091B00081608093B0007D
:1026500080917A00846080937A0080917A00826011
:1026600080937A0080917A00816080937A008091D3
:102670007A00806880937A001092C100E091F101A5
:10268000F091F20182E08083E091ED01F091EE01A2
:102690001082E091EF01F091F00180E180831092CF
:1026A000F901E091F501F091F60186E08083E09177
:1026B000F301F091F401808180618083E091F30166
:1026C000F091F401808188608083E091F301F091C2
:1026D000F401808180688083E091F301F091F4013E
:1026E00080818F7D808361E088E00E94C90760E07F
:1026F00088E00E949B0761E084E00E94C90760E0D7
:1027000084E00E949B0762E085E00E94C9078091F7
:1027100084029091850297FD2EC061E00E94C90756
:1027200060E0809184020E949B0781E080937F0299
:1027300060918602613541F12091870230918802D3
:102740006150E1F070E08FEF90E50E94D021F90137
:102750004091820250918302CF01821B930B841718
:10276000950778F44081469FC001479F900D112442
:1027700090833196EDCF10927F02DACF70E060E067
:10278000E6CF81E5809386020E94F70D64EF71E049
:1027900080E090E00E942A080E944C0F0E94770778
:1027A000892B09F081C188EF91E00E94400F8CECE9
:1027B00091E00E94400F8DE991E00E94400F0E943D
:1027C0004C0F84E091E00E94400F1092D0011092D3
:1027D000CF010E94770721E0892B09F020E02093A8
:1027E000D601209117013091180140911901C65F5F
:1027F000DE4F288339834A83CA50D140AE01415C01
:102800005F4F4A011E0155EE250E311CC401429650
:10281000C35FDE4F99838883CD50D140209153010F
:102820003091540140915501C15FDE4F28833983B7
:102830004A83CF50D140AE0143585F4FCB5FDE4F4C
:1028400059834883C550D1408FB7F8944090D80140
:102850005090D9016090DA017090DB018FBFF09049
:10286000D6018091D2019091D301A091D401B09171
:10287000D501A3019201281B390B4A0B5B0BDA012E
:10288000C901C297A105B105A0F04092D2015092B2
:10289000D3016092D4017092D5010E9477078C0118
:1028A000EE24E394892B09F0E12CFE1008C110926C
:1028B000D101F1101EC00091CF011091D00181EE25
:1028C00091E00E94C708892BA1F081EE91E00E945F
:1028D000A5088F7D833569F40130110551F084E836
:1028E0009BE00E94400F81E090E09093D0018093A4
:1028F000CF018091CB019091CC01A091CD01B091FD
:10290000CE01A3019201281B390B4A0B5B0BDA01A4
:10291000C90180329340A105B10538F10091CF0182
:102920001091D0014092CB015092CC016092CD0128
:102930007092CE010E94FE0A0115110509F0F4C043
:10294000882309F4F1C00E944C0F8BE59BE0F11045
:1029500002C085E39BE00E94400F0E944C0F81E083
:1029600090E09093D0018093CF018091CF0190911E
:10297000D001892B09F05AC08091C7019091C801FC
:10298000A091C901B091CA01A3019201281B390B82
:102990004A0B5B0BDA01C9014497A105B10508F4A4
:1029A00045C04092C7015092C8016092C90170921F
:1029B000CA0110E00EE1F11002C010E500E52FB7EA
:1029C000F8946091D8017091D9018091DA019091C9
:1029D000DB012FBF20ED37E040E050E00E94F821FE
:1029E0009B01AC01283E83E038074105510508F002
:1029F000B6C0A0E5B0E00E941A2228EE33E040E025
:102A000050E00E94F821209FC0011124E0E5F0E091
:102A1000BF010E94E421362F219FC0011124BF0174
:102A20000E94E421862FB9010E94C30C8091CF013E
:102A30009091D001019709F05BC1FF2009F46BC1AF
:102A40000E94050C0E94280BC65FDE4F68817981C9
:102A50008A81CA50D1400E94C30C0E944C0F8AEF59
:102A600093E00E94400F0E944C0F88E0CB5FDE4F46
:102A7000E881F981C550D14011928A95E9F7CE01DC
:102A800083589F4F0E9444116FE0C4010E94F00ED2
:102A9000F82E81116CC08AED93E00E94400F0E94D5
:102AA000C90E0E94160B7EC085E791E00E94400F80
:102AB00084E491E00E94400F8BE191E07ECE809112
:102AC000D1018F5F843018F48093D101F2CE8091D0
:102AD000CF019091D0011092D101E092D6019C01DA
:102AE000225031092230310510F0892BA1F40E94C7
:102AF000F70D1092D0011092CF010E944C0F012BC4
:102B000061F484E29CE00E94400F8DEE9BE00E9405
:102B1000400F0E944C0FFE2CCCCE87EC9BE00E9415
:102B2000400F8DE99BE0F3CF0250110902301105EF
:102B300008F01BCF811119CF0E944C0F87E09BE05A
:102B4000F11002C089EE9AE00E94400F0E944C0FE3
:102B50000E94F70D1092D0011092CF0106CFA0EB8A
:102B6000BFEF0E9428227F588D4F9F4F46CFF40120
:102B70009401205E3F4F8FEF91918923E217F30775
:102B8000D9F78F3F91F480EB93E00E94400F609162
:102B9000530170915401809155010E94C30C0E9411
:102BA000160BF12C83E090E099C041E0B401CE0116
:102BB00083589F4F0E94480C182F80EA93E00E9490
:102BC000560917FF03C086E793E0DFCF812F110F6F
:102BD000990B0E94A50FC4010E949609F82E882324
:102BE00049F082E593E00E94400F0E94C90E0E94C6
:102BF000160B72C020915E0130915F01409160011F
:102C000066E970E082E00E94FF0D89E293E00E9495
:102C1000400F18E24FE0612FC4010E94EB0A1F5FD2
:102C20001C32C1F78BEE92E00E94400F609161016F
:102C300070916201809163010E94C30CC4010E94E3
:102C4000B310F82E811107C00E94280B0E944C0F70
:102C500087E093E034C00E94280B6AE0CE01019621
:102C60000E94F00EF82E86EC92E0FF2009F44DC091
:102C7000CE0101960E949609F82E87E992E0FF2086
:102C800009F443C00E94280B6AE0CE0101960E941D
:102C9000F00EF82E89E792E0FF20B9F1CE010196FF
:102CA0000E949609F82E87E292E0FF2071F180E6FB
:102CB00092E00E94400F0E944C0F88E193E00E9436
:102CC000400F0E944C0FFF2019F10E94B20E0E948B
:102CD000160BFF2009F466CF82E090E09093D001BC
:102CE0008093CF01F11004C08BEC9AE00E94400F5A
:102CF00080E090E0892B09F4A7CD0E94D3088823B7
:102D000009F4A2CD0E94000096CD0E94400F9ECFF4
:102D10000E94C90EDCCF0E94050C0E94280BC65FE2
:102D2000DE4F688179818A81CA50D1400E94C30CEC
:102D30008EE3F40111928A95E9F780E090ECA9E71F
:102D4000B4ECF40187A790ABA1ABB2AB83A794A777
:102D5000A5A7B6A78FEF9FEF61969FAF8EAF619744
:102D600080E2F10111928A95E9F71FE0C1010E940A
:102D7000DB0B009711F00C94A42168EC70E080E06C
:102D800090E00E942A08115089F784E99AE00E9495
:102D9000400F0E94F70D85CEC35FDE4F68817981B9
:102DA000CD50D140C1010E94640AB401C1010E940A
:102DB000CF098401085F1F4FC8010E94441140E001
:102DC000B101C8010E94480C082E000C990B6196B5
:102DD0009FAF8EAF6197059709F0B9C0EE961FAE11
:102DE000EE9720E0AE0143585F4F61E08BE191E048
:102DF0000E94B30B892B09F485C06FE871E0C40110
:102E00000E94AA250E944C0F88EF99E00E94560963
:102E1000C4010E94A31061968EAD9FAD619700978B
:102E200019F00297029758F420915E0130915F01EA
:102E30004091600166E970E081E00E94FF0D88E248
:102E4000CB5FDE4FE881F981C550D14011928A9560
:102E5000E9F7E396FFACE39761968EAD9FAD61977E
:102E60008530910509F49AC09E012F5F3F4F69019B
:102E7000069709F4A2C18BE1F90111928A95E9F74D
:102E80002BE1A60164E082E291E00E94B30B892B62
:102E900009F0FDC169817A816115710509F4F7C1F5
:102EA00090E080E00E945C2320E030E04AE754E4B8
:102EB0000E94B4222B013C018E0103581F4FE12CCC
:102EC000F2E0CF0ED11C8F2D25E02F1508F485E000
:102ED000E81608F0F2C1F60161818081762F682F33
:102EE00090E080E00E945C2320E030E04AE754E478
:102EF0000E94B422F80161937193819391938F01A1
:102F0000E394DECF1A82198222E0AE014F5F5F4F59
:102F100061E08AE191E00E94B30B892B09F06DCF4B
:102F200089811F928F938A811F928F9386E991E006
:102F30009F938F931F9288E08F939F928F920E940E
:102F4000B1250FB6F894DEBF0FBECDBF5BCF8E01AB
:102F50000F5F1F4F80E1F80111928A95E9F720E198
:102F6000A80162E08CE191E00E94B30B892B11F083
:102F70001FAE48CFF801D4019E01285F3F4F8191D9
:102F800090EE980F9F3528F01C9227961FAE27973A
:102F900039CF8D932E173F0791F7F7CF84E690E056
:102FA0000E941A0BAE0143585F4F6A01E12C412C7D
:102FB000512C32010BE811E0A3E5AA2EA2E0BA2EB3
:102FC0008F2D55E05F1508F485E0E81608F03EC047
:102FD0000E947A068823A9F1C8010197F1F781E3DD
:102FE0008E0D0E94EE06C5010197F1F70E94B3060F
:102FF000C95FDE4F8883C750D140C8010197F1F700
:103000000E94B306C95FDE4FA881C750D140982FF8
:103010008A2FBC0190E080E00E945C2320E030E039
:103020004AE754E40E94B4229B01AC01F6012083DC
:10303000318342835383C301B2010E9443222B0197
:103040003C01E394F4E0CF0ED11CBACF0E94160BE2
:1030500061968EAD9FAD61979C012550310922305C
:10306000310540F5059709F0A2C11A82198222E0C4
:10307000AE014F5F5F4F61E08AE291E00E94B30BC7
:10308000892B09F0B9C169817A8190E080E00E94C2
:103090005C2320E030E040E251E40E94B42223E3CC
:1030A00033E948E853E40E944222F40163A774A77D
:1030B00085A796A7A6961FAEA697A5961FAE1EAE8D
:1030C000A597F40117A210A611A612A661968EADBF
:1030D0009FAD61979C01255031092230310508F0E0
:1030E00093C167962FAD67972E3108F48AC12D5191
:1030F000330B69960EAD1FAD699766964FAD669717
:1031000083E290E0841B910997FF02C090E080E089
:10311000820F931F809FB001819F700D909F700D53
:10312000112490E080E00E945C2320E030E040E049
:103130005DE30E9413246B017C01B80190E080E004
:103140000E945C239B01AC01C701B6010E9443228F
:103150006B017C0163968FAD63978A3141F08C31AE
:1031600031F0883221F068E572E0823311F468EEC4
:1031700073E090E080E00E945C239B01AC01C701FA
:10318000B6010E94B4229B01AC0160E070E080E8CF
:1031900090E40E9442226B017C0120E030E0A90112
:1031A0000E94AF2287FF03C0C12CD12C7601F4010D
:1031B000C0A2D1A2E2A2F3A2F2C1CB55DF4F188286
:1031C000C55AD04084E1F90111928A95E9F784E665
:1031D00090E00E941A0BE12C8E010B551F4F22E04C
:1031E00047E251E06CEC80E00E94360B6AE070E050
:1031F00080E090E00E942A08F4E1EF2E860121E0B1
:1032000046E251E06CEC80E00E94360B0E94160B07
:103210008E0103581F4FE12C412C512C32018F2D70
:10322000FAE0FF1508F48AE0E81608F011CFF6017D
:1032300061818081762F682F90E080E00E945C237E
:1032400020E030E040E251E40E94B4229B01AC0156
:1032500060E070E88BEB95E40E94422220E030E0D1
:103260004AE754E40E94B4229B01AC01F801219387
:103270003193419351938F01C301B2010E944322C4
:103280002B013C01E394F2E0CF0ED11CC8CF8E019C
:103290000B551F4F8DE0F80111928A95E9F72DE04B
:1032A000A80164E08EE191E00E94B30B892B09F440
:1032B00045C0412C512C3201CBCE6F8578890989CC
:1032C0001A89693EF3E07F07A0F190E080E00E9458
:1032D0005C2320E030E040E251E40E94B42223E38A
:1032E00033E948E853E40E944222F40163A774A73B
:1032F00085A796A760E070EC89E794EC093EF3E0BF
:103300001F0788F0B80190E080E00E945C2320E075
:1033100030E040E251E40E94B42223E333E948E87C
:1033200053E40E944222F40167A770AB81AB92ABD9
:103330008FCE60E070EC89E794ECD7CFF8018485FC
:10334000863009F0B6CF6081718190E080E00E9404
:103350005C2320E030E04AE754E40E94B4222B01D1
:103360003C019E0123583F4F6901E12C0E5F1F4F26
:103370008F2D35E03F1508F485E0E81608F068CE9B
:10338000F80161818081762F682F90E080E00E94B3
:103390005C2320E030E04AE754E40E94B422F601C6
:1033A00061937193819391936F01E394DFCF1982BD
:1033B00021E0AE014F5F5F4F61E089E291E00E9442
:1033C000B30B892BC9F4698170E090E080E00E9422
:1033D0005E2320E030E040E252EC0E94132420E023
:1033E0003CEA41E156E40E94432220E030E048EC10
:1033F00052E40E94B42259CE60E070EC89E794EC6C
:1034000054CE30E020E075CE009739F09C01225078
:1034100031092230310508F00AC26396BFAC6397C8
:103420008E010F5F1F4F009709F486C19C01225047
:1034300031092230310508F47FC170E060E0BB2023
:10344000A1F190E080E00E945C236B017C016B2D78
:1034500070E090E080E00E945E239B01AC01C70118
:10346000B6010E94B4226B017C0120E030E040EA0A
:1034700052E40E940E2418160CF47BC120E030E0C8
:1034800040E251E4C701B6010E94B42220E030E0DE
:1034900040EA50E40E9442226B017C0120E030E0CF
:1034A000A9010E94AF2287FF03C0C12CD12C760155
:1034B000F401C0A2D1A2E2A2F3A261968EAD9FADAB
:1034C0006197009709F45CC19C01225031092230B8
:1034D000310508F455C180E0A6968FAFA697619696
:1034E0008EAD9FAD61978230910509F464C1833040
:1034F000910509F47FC1892B09F092C188E0F80198
:1035000011928A95E9F748E0B8018BE491E00E94B6
:10351000C20B882309F484C12F81F0E12F9FA00101
:103520001124407F53709E81292F30E064E035954F
:1035300027956A95E1F7242B352B8D8190E0982F04
:103540008827882793704C81842B820F931F498191
:1035500042954695469543702A8154E0259F9001F7
:103560001124242B820F931FA5969FAF8EAFA59792
:1035700085E0F80111928A95E9F745E0B8018FE4FA
:1035800091E00E94C20B882309F44DC189819A8180
:10359000AB81BC81F40187A390A7A1A7B2A70E9429
:1035A000FE0AF82E81ED99E0FF2009F4F0CB0E948D
:1035B0004C0F8AE097E00E945609C4010E94A310B4
:1035C00088EF96E00E9456098401085F1F4FE12CA6
:1035D000F80181918F01803118F480E30E94710914
:1035E000F8013197608170E090E080E040E10E9456
:1035F000500FF7E0EF1619F080E20E947109E39492
:1036000028E0E212E5CF0E943C0F28968FAD289764
:103610001F928F9329968FAD29971F928F932A9689
:103620008FAD2A971F928F9381EA91E09F938F939A
:103630001F928DE08F938E010B551F4F1F930F9399
:103640000E94B12586EE96E00E945609C8010E94AC
:10365000A31084ED96E00E94560961968EAD9FAD51
:1036600061970E94A50F82EC96E00E94560962962F
:103670006FAD629770E090E080E04AE00E94500FEA
:103680008EEB96E00E94560962968FAD62970FB658
:10369000F894DEBF0FBECDBF8D3008F0E3C080EBE5
:1036A00096E00E94560989E20E9471090E943C0F2F
:1036B00081E896E00E945609F40164A975A986A9DB
:1036C00097A941E050E00E94D30F8DE796E00E9459
:1036D000400F0E944C0F8BE696E00E945609E89638
:1036E0008FADE897882309F4C5C082E596E00E9473
:1036F000400F89E596E00E9456096A968FAD6A9759
:10370000882309F4BAC083E396E00E94400F87E360
:1037100096E00E94560965968FAD6597813009F451
:10372000A1C208F4ADC0853009F49FC28F3009F4FE
:103730009FC20E94940FA8C019821A821B828230F5
:10374000910599F0039799F482E0F4E08F9FC0010E
:10375000112443E0B801855D9E4F0E94C20B88236F
:1037600009F46BCE69817A816ACE81E0EECF80E088
:10377000ECCFC12CD12CE0E8EE2EE0E4FE2E98CE6A
:103780001A8219828230910591F0039791F482E0B8
:10379000F4E08F9FC001112442E0B801895C9E4F84
:1037A0000E94C20B882309F496CE898195CE81E0D0
:1037B000EFCF80E0EDCF88E0F80111928A95E9F72C
:1037C00048E0B80187E491E00E94C20B882341F1F0
:1037D00029818B81422F480F5527551F2C81240F9B
:1037E000352F311D8E81280F311D8F81820F932F30
:1037F000911DBACE86E0F80111928A95E9F746E06C
:10380000B80183E491E00E94C20B882349F08981CA
:103810009B81482F490F5527551F9A018C81E6CF70
:1038200090E080E0A1CE80E090E0DC01B3CEF10139
:1038300067896F7070E075956795C12CD12C20E871
:10384000E22E20E4F22E633008F4B1CC673009F4A4
:10385000ABCC62507109072E000C880B990B0E94AB
:103860005E2391CC8E3118F482EA96E01ACF83E978
:1038700096E017CF89E496E03ACF80E396E045CF13
:1038800089E296E00E94400F8FEC95E00E94560975
:10389000E9968FADE997882309F4EDC18AEB95E0AD
:1038A0000E94400F8DEB95E00E945609EA968FAD7D
:1038B000EA97882309F4E2C180EA95E00E94400F6C
:1038C00083EA95E00E945609EB968FADEB9788232B
:1038D00009F4D7C186E895E00E94400F89E895E099
:1038E0000E945609EC968FADEC97882309F4CCC161
:1038F0008CE695E00E94400F8FE695E00E94560905
:10390000ED968FADED97882309F4C1C188E395E06A
:103910000E94400F0E944C0F85E595E00E945609D9
:1039200069966EAD7FAD699790E080E04AE00E94B5
:10393000500F0E943C0F83E495E00E945609F40169
:1039400060A171A182A193A142E050E00E94D30F37
:103950008BE395E00E945609F401A0A0B1A0C2A09B
:10396000D3A020E030E0A901C601B5010E940E24D9
:1039700020E030E040E05FE387FD8CC1C601B50187
:103980000E9443220E9426238B01D12CC12C83E26A
:10399000C016D1060CF08DE20E947109FFEFCF1A1C
:1039A000DF0A24E0C216D10491F789E20E9471096E
:1039B0000E943C0F61968EAD9FAD6197009721F0FC
:1039C0000297029708F08FC081E295E00E945609A5
:1039D000A6968FADA6970E94940F8FE095E00E9467
:1039E0005609A5966EAD7FADA59790E080E04AE0C0
:1039F0000E94500F0E943C0FA6968FADA697882379
:103A0000B1F169968EAD9FAD6997892B81F18DEFEC
:103A100094E00E945609A6966FADA69770E090E0DC
:103A200080E00E945E2320E030E048EC52E40E94F7
:103A300013245B016C0169966EAD7FAD699790E0D0
:103A400080E00E945C239B01AC01C601B5010E948D
:103A5000B42220E030E040E850E40E94432241E0FC
:103A600050E00E94D30F8AEF94E00E94400FA59689
:103A70008EAD9FADA597892BB1F169968EAD9FADA7
:103A80006997892B81F188EE94E00E945609A596EA
:103A90006EAD7FADA59790E080E00E945C2320E0B2
:103AA00030E048EC52E40E9413245B016C016996FB
:103AB0006EAD7FAD699790E080E00E945C239B0132
:103AC000AC01C601B5010E94B42220E030E040E81C
:103AD00050E40E94432241E050E00E94D30F85EE63
:103AE00094E00E94400F61968EAD9FAD619705975F
:103AF000029708F040C083ED94E00E945609669654
:103B00006FAD669770E090E080E00E945E2320E059
:103B100030E040EA50EC0E94132420E030E040E224
:103B200053E40E94432241E050E00E94D30F80ED15
:103B300094E00E94400F8EEB94E00E945609679635
:103B40006FAD679770E090E080E00E945E2320E018
:103B500030E040EA50E40E94132420E030E040E2EC
:103B600053E40E94422241E050E00E94D30F8BEBCD
:103B700094E00E94400F20E030EC49E754ECF4015F
:103B800063A574A585A596A50E94AF22882389F018
:103B900089EA94E00E945609F40163A574A585A5FD
:103BA00096A541E050E00E94D30F86EA94E00E947F
:103BB000400F20E030EC49E754ECF40167A570A910
:103BC00081A992A90E94AF22882389F084E994E018
:103BD0000E945609F40167A570A981A992A941E044
:103BE00050E00E94D30F81E994E00E94400F0E94B0
:103BF0004C0F8FE794E00E94560943E050E0C30168
:103C0000B2010E94D30F8CE794E00E94400FE3962C
:103C10008FADE397811143C088E694E00E94400F86
:103C20000E944C0FE8968FADE897811194C185EB07
:103C300099E00E94400F61968EAD9FAD619700970D
:103C400009F479C10297029708F475C10E94B20E77
:103C50000E94EF0D0E944C0F87EC99E00E94400FEC
:103C60000C94F7158AE196E00DCE8EE096E00ACE30
:103C700081EE95E007CE85EB95E012CE8BE995E0DD
:103C80001DCE81E895E028CE87E695E033CE83E32C
:103C900095E03ECEC601B5010E94422273CEEE965B
:103CA000FFADEE97C95FDE4FF883C750D140EF9666
:103CB0002FADEF97C85FDE4F2883C850D140C15861
:103CC000DF4FA880CF57D040C058DF4FD880C058B2
:103CD000D0406F2E522E4A2CC75FDE4FD882C9507B
:103CE000D140712CE3968FADE397781608F07CC035
:103CF000072D10E0C80101969F938F9342EB51E08E
:103D00005F934F931F9296E19F93E1E0F0E0EC0FF9
:103D1000FD1FFF93EF930E94B125CE0101960E94F3
:103D20002F0F000F111F000F111F2DE730E02C0F78
:103D30003D1F020F131FF801608171818281938101
:103D400043E050E00E94D30F85E694E00E94400FCC
:103D5000F801B080C180E28013810FB6F894DEBF15
:103D60000FBECDBFC95FDE4F2881C750D140C85FAD
:103D7000DE4F3881C850D1404A2D5D2D6B2D7C2DF2
:103D80008E2D912F0E940E24181664F4C95FDE4F09
:103D9000B882C750D140C85FDE4FC882C850D140FA
:103DA000AE2CD12E262D352D442DC75FDE4F5881E8
:103DB000C950D1406B2D7C2D8E2D912F0E94AF22AA
:103DC00087FD08C0B62CC52CE42CC75FDE4F1881D8
:103DD000C950D14073946B2C5C2C4E2CC75FDE4FC6
:103DE0001883C950D1407ECF83E594E00E945609E4
:103DF000262D352D442DC75FDE4F5881C950D14047
:103E0000C95FDE4F6881C750D140C85FDE4F7881FF
:103E1000C850D1408A2D9D2D0E94422243E050E09F
:103E20000E94D30F80E594E00E94400F61968EAD12
:103E30009FAD6197009721F00297029708F053C059
:103E4000F40167A170A581A592A561157105810591
:103E5000910509F448C063961FAD6397112309F4D7
:103E600042C00E945C232B013C01612F70E090E076
:103E700080E00E945E239B01AC01C301B2010E945D
:103E8000B42220E030E044E355E40E94B4222B0148
:103E90003C0120E030E040E251E40E94AF2211E01A
:103EA00087FD10C020E030E040E251E4C301B201E0
:103EB0000E94B4220E9426236830710514F067E046
:103EC00070E0162F0E944C0F8EE394E00E9456097A
:103ED000612F70E090E080E04AE00E94500F89E39B
:103EE00094E00E94400F0E944C0F87E294E00E94F1
:103EF00056098E010B511F4FE12CF80181918F0162
:103F0000803118F480E30E947109F80131976081D3
:103F100070E090E080E040E10E94500FFFE1EF167A
:103F200019F080E20E947109E39420E2E212E5CFE9
:103F30000E943C0F75CE20915B0130915C01409155
:103F40005D0168EC70E083E00E94FF0D0E94EF0DC0
:103F50000E94280B7DCE86E999E00E94560965965D
:103F60008FAD65970E94940F61968EAD9FAD61975E
:103F7000009741F10297029728F187E799E00E94A4
:103F8000560961964EAC5FAC6197052C000C660833
:103F900077084AE0C301B20177FE0BC08DE20E94B0
:103FA000710966277727CB01641975098609970976
:103FB0004AE00E94500F8BE699E00E94400F0E9459
:103FC000C90E48CE80E599E00E94400FC15FDE4FE8
:103FD000688179818A81CF50D1400E94C30C409082
:103FE0005E0150905F0160906001462D920166E98C
:103FF00070E082E00E94FF0D0E94280B0E94240CBA
:10400000892B39F08DEE98E00E94400F87E199E00E
:10401000D4CFAE014F5F5F4F6A0181E1FA01119287
:104020008A95E9F789E0E82E8A0122E049E551E026
:1040300063E381E00E94360B62E370E080E090E091
:104040000E942A080E94050C62E370E080E090E084
:104050000E942A08C1010E94DB0B019719F08AEC2B
:1040600098E0D2CFC35FDE4F68817981CD50D140D7
:10407000C1010E94640AB401C1010E94CF0988EB0A
:1040800098E00E945609E9968FADE9978823D9F107
:1040900083EA98E00E94400F86EA98E00E94560961
:1040A000EA968FADEA97882389F189E898E00E9423
:1040B000400F8CE898E00E945609EB968FADEB9785
:1040C000882339F181E898E00E94400FE8968FAD8F
:1040D000E897811121C084E698E00E94400F81E3B7
:1040E00099E00E94400F20915B0130915C0140916A
:1040F0005D0168EC70E083E00E94FF0D0E94EF0D0F
:104100000E94280BA7CD8EE998E0C4CF84E898E000
:10411000CECF8CE798E0D8CFE9968FADE99788238A
:1041200069F0EA968FADEA97882341F0EB968FAD60
:10413000EB97882319F08BE298E066CF8CEF97E03D
:104140000E94400F60915601709157018091580173
:104150000E94C30C462D920166E970E082E00E9445
:10416000FF0D80E2F101DE01AB53BF4F01900D92D4
:104170008A95E1F740E068E2CE018B539F4F0E94A1
:10418000EB0A4FE060E0CE018B539F4F0E94AB09DA
:10419000482F69E2CE018B539F4F0E94EB0A4FE1FB
:1041A00060E1CE018B539F4F0E94AB09482F6AE21A
:1041B000CE018B539F4F0E94EB0A48E260E2CE0192
:1041C0008B539F4F0E94AB09482F6BE2CE018B535C
:1041D0009F4F0E94EB0A4FE26CE2CE018B539F4F40
:1041E0000E94AB09482F6EE3CE018B539F4F0E9474
:1041F000EB0A4DE360E3CE018B539F4F0E94AB0966
:10420000482F6FE3CE018B539F4F0E94EB0A89EA40
:1042100097E00E9456098E010B531F4FE12CF801C5
:1042200081918F01803118F480E30E947109F801B7
:104230003197608170E090E080E040E10E94500F93
:10424000FFE1EF1619F080E20E947109E39420E289
:10425000E212E5CF0E943C0F0E94240C892B29F02A
:1042600087E897E00E94400F09C0CE018B539F4F13
:104270000E94B310811105C00E94050C8BEB97E0E2
:10428000C3CE0E94050C0E94280B8E010B551F4FB8
:10429000F8011192EA94E9F7C8010E94DB0B01973B
:1042A00019F08AE697E0DECF8EE3F60111928A9547
:1042B000E9F7BE016D5E7F4FC8010E94640AB60136
:1042C000C8010E94CF0988E597E00E9456098AAD8F
:1042D000882389F183E497E00E94400F86E497E009
:1042E0000E9456098BAD882349F189E297E00E942C
:1042F000400F8CE297E00E9456098CAD882309F1AB
:1043000081E297E00E94400F89AD8111B7CF80E232
:10431000F801D10101900D928A95E1F7B4016E5E2A
:104320007F4FC1010E94640AB401C1010E94CF09FC
:1043300085ED97E0D2CE8EE397E0CECF84E297E092
:10434000D6CF8CE197E0DECF019611F00C94CC161D
:104350000E944C0F89E69AE00E94400F81E39AE0A8
:104360000E94400F8AE09AE00E94400F0E944C0F8A
:104370000E94C90E0E94160BFF24F3940C946C1635
:1043800080918702909188020E9421258091840269
:104390009091850297FD03C060E00C94C9070895D1
:1043A000AA1BBB1B51E107C0AA1FBB1FA617B7075B
:1043B00010F0A61BB70B881F991F5A95A9F7809577
:1043C0009095BC01CD01089597FB072E16F400943B
:1043D00007D077FD09D00E94D02107FC05D03EF41C
:1043E000909581959F4F0895709561957F4F0895A1
:1043F000A1E21A2EAA1BBB1BFD010DC0AA1FBB1FE9
:10440000EE1FFF1FA217B307E407F50720F0A21B5A
:10441000B30BE40BF50B661F771F881F991F1A94C7
:1044200069F760957095809590959B01AC01BD01F1
:10443000CF0108950E943322A59F900DB49F900D47
:10444000A49F800D911D11240895B7FF0C941A228A
:104450000E941A22821B930B0895EE0FFF1F0590F6
:10446000F491E02D0994A29FB001B39FC001A39FD6
:10447000700D811D1124911DB29F700D811D11249D
:10448000911D08955058BB27AA270E945A220C94C8
:10449000D4230E94C62338F00E94CD2320F039F4A3
:1044A0009F3F19F426F40C94C3230EF4E095E7FB28
:1044B0000C94BD23E92F0E94E52358F3BA17620735
:1044C00073078407950720F079F4A6F50C94072468
:1044D0000EF4E0950B2EBA2FA02D0B01B90190011F
:1044E0000C01CA01A0011124FF27591B99F0593F63
:1044F00050F4503E68F11A16F040A22F232F342FAB
:104500004427585FF3CF469537952795A795F040F8
:104510005395C9F77EF41F16BA0B620B730B840B0D
:10452000BAF09150A1F0FF0FBB1F661F771F881FC5
:10453000C2F70EC0BA0F621F731F841F48F487951D
:1045400077956795B795F7959E3F08F0B0CF93950F
:10455000880F08F09927EE0F9795879508950E9488
:10456000992308F481E008950E94C8220C94D42372
:104570000E94CD2358F00E94C62340F029F45F3FEB
:1045800029F00C94BD2351110C9408240C94C323DE
:104590000E94E52368F39923B1F3552391F3951B0A
:1045A000550BBB27AA2762177307840738F09F5F54
:1045B0005F4F220F331F441FAA1FA9F335D00E2EC1
:1045C0003AF0E0E832D091505040E695001CCAF72E
:1045D0002BD0FE2F29D0660F771F881FBB1F2617F1
:1045E00037074807AB07B0E809F0BB0B802DBF01C8
:1045F000FF2793585F4F3AF09E3F510578F00C9497
:10460000BD230C9408245F3FE4F3983ED4F38695D1
:1046100077956795B795F7959F5FC9F7880F911DB7
:104620009695879597F90895E1E0660F771F881FA3
:10463000BB1F621773078407BA0720F0621B730B56
:10464000840BBA0BEE1F88F7E09508950E942D2386
:104650006894B1110C94082408950E94ED2388F009
:104660009F5798F0B92F9927B751B0F0E1F0660F36
:10467000771F881F991F1AF0BA95C9F714C0B13077
:1046800091F00E940724B1E008950C940724672F4D
:10469000782F8827B85F39F0B93FCCF386957795A6
:1046A0006795B395D9F73EF490958095709561958F
:1046B0007F4F8F4F9F4F0895E89409C097FB3EF4BA
:1046C00090958095709561957F4F8F4F9F4F99235F
:1046D000A9F0F92F96E9BB279395F69587957795DD
:1046E0006795B795F111F8CFFAF4BB0F11F460FF9D
:1046F0001BC06F5F7F4F8F4F9F4F16C0882311F0F5
:1047000096E911C0772321F09EE8872F762F05C008
:10471000662371F096E8862F70E060E02AF09A95A3
:10472000660F771F881FDAF7880F9695879597F998
:104730000895990F0008550FAA0BE0E8FEEF161632
:104740001706E807F907C0F012161306E407F50785
:1047500098F0621B730B840B950B39F40A2661F0F9
:10476000232B242B252B21F408950A2609F4A1409C
:10477000A6958FEF811D811D089597F99F6780E8A9
:1047800070E060E008959FEF80EC089500240A94A3
:104790001616170618060906089500240A9412161C
:1047A0001306140605060895092E0394000C11F44F
:1047B000882352F0BB0F40F4BF2B11F460FF04C0FC
:1047C0006F5F7F4F8F4F9F4F089557FD9058440F55
:1047D000551F59F05F3F71F04795880F97FB991F60
:1047E00061F09F3F79F0879508951216130614061D
:1047F000551FF2CF4695F1DF08C0161617061806AA
:10480000991FF1CF86957105610508940895E89484
:10481000BB2766277727CB0197F908950E94992334
:1048200008F48FEF08950E9426240C94D4230E944C
:10483000C62338F00E94CD2320F0952311F00C946C
:10484000BD230C94C32311240C9408240E94E52357
:1048500070F3959FC1F3950F50E0551F629FF001D3
:10486000729FBB27F00DB11D639FAA27F00DB11DEC
:10487000AA1F649F6627B00DA11D661F829F222775
:10488000B00DA11D621F739FB00DA11D621F839FFC
:10489000A00D611D221F749F3327A00D611D231FD2
:1048A000849F600D211D822F762F6A2F11249F5720
:1048B00050409AF0F1F088234AF0EE0FFF1FBB1F23
:1048C000661F771F881F91505040A9F79E3F5105E2
:1048D00080F00C94BD230C9408245F3FE4F3983ED1
:1048E000D4F3869577956795B795F795E7959F5F8C
:1048F000C1F7FE2B880F911D9695879597F908951E
:104900000E949923880B990B08950F931F93CF93BF
:10491000DF938230910510F482E090E0E091A402F0
:10492000F091A50230E020E0B0E0A0E0309799F4EB
:104930002115310509F44AC0281B390B24303105F3
:10494000D8F58A819B816115710589F1FB019383FB
:104950008283FE0111C04081518102811381481779
:104960005907E0F04817590799F4109761F012962B
:104970000C93129713961C933296CF01DF91CF912F
:104980001F910F9108950093A4021093A502F4CFF4
:104990002115310551F04217530738F0A901DB0109
:1049A0009A01BD01DF01F801C1CFEF01F9CF90936A
:1049B000A5028093A402CDCFFE01E20FF31F8193E5
:1049C00091932250310939832883D7CF2091A202B5
:1049D0003091A302232B41F4209102013091030175
:1049E0003093A3022093A202209100013091010193
:1049F0002115310541F42DB73EB740910401509186
:104A00000501241B350BE091A202F091A302E217ED
:104A1000F307A0F42E1B3F0B2817390778F0AC01E1
:104A20004E5F5F4F2417350748F04E0F5F1F5093BE
:104A3000A3024093A202819391939FCFF0E0E0E024
:104A40009CCFCF93DF930097E9F0FC01329713825C
:104A50001282A091A402B091A502ED0130E020E005
:104A60001097A1F420813181820F931F2091A2021F
:104A70003091A3022817390709F061C0F093A3020F
:104A8000E093A202DF91CF910895EA01CE17DF07EC
:104A9000E8F54A815B819E0141155105B1F7E901B5
:104AA000FB83EA8349915991C40FD51FEC17FD0789
:104AB00061F4808191810296840F951FE9019983A9
:104AC0008883828193819B838A83F0E0E0E0129661
:104AD0008D919C9113970097B9F52D913C91119769
:104AE000CD010296820F931F2091A2023091A30262
:104AF0002817390739F6309751F51092A502109210
:104B0000A402B093A302A093A202BCCFD383C2831A
:104B100040815181840F951FC817D90761F44E5FFA
:104B20005F4F88819981480F591F518340838A8143
:104B30009B81938382832115310509F0B0CFF093D7
:104B4000A502E093A4029ECFFD01DC01C0CF138239
:104B50001282D7CFFB01DC0101900D920020E1F71A
:104B60000895AEE0B0E0E7EBF5E20C946D280D8916
:104B70001E898F89988D26E02C831A83098397FFDD
:104B800002C080E090E801979E838D83AE01455E70
:104B90005F4F698D7A8DCE0101960E94E1254D818E
:104BA0005E8157FD0AC02F813885421753070CF4E8
:104BB0009A01020F131FF80110822E96E4E00C9464
:104BC0008928ABE0B0E0E7EEF5E20C945F287C01C9
:104BD0003B018A01FC0117821682838181FFC8C1D3
:104BE000CE0101965C01F7019381F30193FD85915C
:104BF00093FF81913F01882309F453C1853239F431
:104C000093FD859193FF81913F01853229F4B7018E
:104C100090E00E94D127E7CF912C212C312CFFE18D
:104C2000F31538F08B3211F190F4803209F18332B0
:104C300029F137FC3CC020ED280F2A3050F536FE14
:104C400020C08AE0989E200D1124922E06C08D323D
:104C500091F0803371F7689430F8F30193FD8591FA
:104C600093FF81913F018111DACF21C0689431F81F
:104C7000689432F8F2CF689433F8EFCF689434F840
:104C8000ECCFEAE02E9E200D1124222E689435F8F8
:104C9000E4CF8E3229F436FC04C1689436F8DDCFB7
:104CA0008C3619F4689437F8D8CF8836B1F2982F3B
:104CB0009F7D95549330E0F08336A1F18337C1F1A5
:104CC000833509F063C02801F2E04F0E511CF80152
:104CD000C080D180692D70E036FC02C06FEF7FEF9D
:104CE000C6010E94BB274C01689437F882010AC0B4
:104CF0000C5F1F4FFFE3F98388248394912C650197
:104D0000E89437F833FE2DC0522C8114910471F5CC
:104D1000552009F468CFB70180E290E00E94D127C6
:104D20005A94F6CFF801808189830E5F1F4FE4CF3C
:104D30002801F2E04F0E511CF801C080D180692D8E
:104D400070E036FC02C06FEF7FEFC6010E94C627FD
:104D50004C018201D5CFB70180E290E00E94D127BB
:104D60002A942814190409F0B0F7CECFF60137FCC5
:104D7000859137FE81916F01B70190E00E94D127A4
:104D800051105A94F1E08F1A9108BFCF843619F070
:104D9000893609F077C0F80137FE6BC060817181F8
:104DA000828193810C5F1F4FF32DFF763F2E97FF7B
:104DB00009C090958095709561957F4F8F4F9F4F5B
:104DC000689437F82AE030E0A5010E940128C82E37
:104DD000CA188C2C432C36FE0CC0E89440F8C91439
:104DE00040F434FE05C032FC03C0F32DFE7E4F2E8E
:104DF000892C44FE95C0FE01EC0DF11D80818033AD
:104E000009F087C0242D297E422E842D8870582ECB
:104E100043FC95C040FE8FC09C2C821418F42C0CCF
:104E2000922C981844FE91C0B70180E390E00E9454
:104E3000D12742FE09C088E790E041FE02C088E524
:104E400090E0B7010E94D127C91408F48AC0CA941F
:104E5000D12C9FEFC91AD90ACA0CDB1CF60182912A
:104E60006F01B70190E00E94D127AC14BD04B1F7E7
:104E70004FCF60817181072E000C880B990B0E5F5C
:104E80001F4F92CFD32CE894D4F82AE030E0853736
:104E900039F1232D297FD22E8F3601F148F4883540
:104EA000A9F0F701868197812B96E2E10C947B288B
:104EB000803749F08837A9F7D4FE02C06894D2F849
:104EC00020E130E00DC06894D4F8F6CF34FE03C082
:104ED000822F8660D82E20E132E002C028E030E048
:104EE000F801D7FE0FC060817181828193810C5FD0
:104EF0001F4FA5010E940128C82ECA183D2CE89416
:104F000037F867CF6081718190E080E00E5F1F4FBE
:104F1000F0CF42FC02C0839478CF8394839475CF02
:104F2000842D867809F471CFF6CFB70180E290E046
:104F30000E94D12783948214C0F3512C73CF522C3A
:104F40005818821408F46ECFF8CF842D867809F4AF
:104F50007BCF8BE241FE80E247FC8DE2B70190E01F
:104F600071CFB70180E390E00E94D1279A946CCF73
:104F70008FEF9FEF99CFFC010590615070400110B9
:104F8000D8F7809590958E0F9F1F0895FC01615072
:104F9000704001900110D8F7809590958E0F9F1F5B
:104FA00008950F931F93CF93DF93182F092FEB01D1
:104FB0008B8181FD09C01FEF0FEF812F902FDF91B3
:104FC000CF911F910F91089582FF14C02E813F81D0
:104FD0008C819D81281739073CF4E881F981CF0144
:104FE00001969983888310838E819F8101969F8388
:104FF0008E83E3CFE885F985812F0995892BA1F36D
:10500000DACFFA01AA27283051F1203181F1E89452
:105010006F936E7F6E5F7F4F8F4F9F4FAF4FB1E0AB
:105020003ED0B4E03CD0670F781F891F9A1FA11DA6
:10503000680F791F8A1F911DA11D6A0F711D811DA7
:10504000911DA11D20D009F468943F912AE0269F6C
:1050500011243019305D3193DEF6CF010895462FCB
:105060004770405D4193B3E00FD0C9F7F6CF462FAC
:105070004F70405D4A3318F0495D31FD4052419315
:1050800002D0A9F7EACFB4E0A695979587957795D2
:105090006795BA95C9F700976105710508959B0159
:1050A000AC010A2E06945795479537952795BA95E2
:1050B000C9F7620F731F841F951FA01D08952F92BB
:1050C0003F924F925F926F927F928F929F92AF9298
:1050D000BF92CF92DF92EF92FF920F931F93CF93E5
:1050E000DF93CDB7DEB7CA1BDB0B0FB6F894DEBF7C
:1050F0000FBECDBF09942A88398848885F846E84A2
:105100007D848C849B84AA84B984C884DF80EE80EB
:10511000FD800C811B81AA81B981CE0FD11D0FB6F4
:10512000F894DEBF0FBECDBFED01089516E0CFE4C9
:10513000D6E004C0FE010E942D222196C035D10781
:06514000C9F7F894FFCF4F
:105146000000A6028000500000D42C0002DC0ADC1D
:105156000B55A5F000AA000000503199DC0CD700D1
:10516600000CD70000FFD41021D252D4500102D631
:10517600040502D6380202D4BA0001D68D0501D63E
:10518600090301D65B0304D65F0507D48D0007D754
:10519600190004503C00500050DA04005000000092
:1051A60000501E00DA34D9FFFFDA31D996A5000087
:1051B60000000909690896087609C708A508B9080C
:1051C6000D0A006E616E00696E66006F76660042BB
:1051D6004C7878787800424C253032582530325851
:1051E60000253032642F253032642F32302530329C
:1051F600640043656C6C2025327520202020202019
:0652060020203A20000008
:00000001FF
