:100000000C9411070C9439070C9439070C94390798
:100010000C9439070C9439070C9439070C94390760
:100020000C9439070C9439070C9439070C94390750
:100030000C9439070C9439070C9439070C94390740
:100040000C94AF150C9439070C941F160C94F915E9
:100050000C9439070C9439070C9439070C94390720
:100060000C9439070C9439072D2D2D2D2D2D2D2D68
:100070002D2D2D2D2D2D2D2D2D2D2D2D2D2D2D2DB0
:100080002D2D2D2D2D2D2D2D2D2D2D2D2D2D2D2DA0
:100090002D2D2D2D2D2D2D2D2D0033322D34303D98
:1000A0006261640033322D34303D6F6B0031362D88
:1000B00033313D6261640031362D33313D6F6B0069
:1000C000302D31353D62616400302D31353D6F6B2F
:1000D00000202D20496E76616C6964204572726F34
:1000E0007220436F6465003135202D2044656164C2
:1000F0003F0035202D205761726E696E67003120F8
:100100002D204F7665726C6F616465640030202D20
:10011000204F4B00202020202020202020202020A5
:100120002020202020004672616D652020202020A4
:1001300020202020203A2000206D732900205449DF
:100140004D454F55542028002E00206D7329002066
:100150004F4B20280020205B4E6F20726573706F1C
:100160006E73655D202D2077616974696E6700206C
:100170006D7329002054494D454F55542028002EB9
:1001800000206D73290020280020205761697469C0
:100190006E67005374696C6C206E6F2070726573AB
:1001A000656E63652E2041626F7274696E67207799
:1001B000726974652E00202053746F72653A206E48
:1001C0006F2070726573656E63652E002020577214
:1001D0006974653A206E6F2070726573656E636531
:1001E0002E00202041726D3A206E6F207072657370
:1001F000656E63652E00202041726D20616C726512
:1002000061647920697373756564202D20706F7740
:1002100065722D6379636C652072657175697265AD
:10022000642E004E6F2070726573656E6365206585
:100230006E746572696E6720746573746D6F646542
:100240002E002E00202057616974696E6700206DB2
:10025000732900204F4B20280020205B4C6F636BDC
:100260005D20436865636B73756D73203A200020D1
:10027000205B4C6F636B5D204661696C7572652015
:10028000636F6465206E7962626C65203430203D56
:10029000200020205B4C6F636B5D204661696C65BC
:1002A0006420616674657220616C6C206174746591
:1002B0006D7074732E0020205B4C6F636B5D204E5D
:1002C0006F20726573706F6E73652E0020205B4C1B
:1002D0006F636B5D200020205B4C6F636B5D204182
:1002E0007474656D7074200020205B4C6F636B5DCF
:1002F000204641494C45442E0020205B4C6F636BE7
:100300005D2044454144204C4F434B45442E002042
:10031000205B4C6F636B5D20435243204C4F434B3B
:1003200045442E0020205B4C6F636B5D204261745E
:100330007465727920616C7265616479206861739B
:10034000206661696C75726520636F646520313564
:100350002E0020205B4C6F636B5D204261747465DE
:10036000727920697320616C7265616479204352EF
:1003700043204C4F434B45442E00756E737570708F
:100380006F727465642028352C20362C206F722003
:10039000756E6B6E6F776E292E0020205B4C6F633D
:1003A0006B5D20547970653A200020205B4C6F63B0
:1003B0006B5D205741524E494E473A20524F4D20D7
:1003C00049442072656164206661696C65643B2004
:1003D0007479706520646574656374696F6E206DEF
:1003E000617920626520756E72656C6961626C6509
:1003F0002E0020205B4C6F636B5D204552524F52A4
:100400003A204E6F2076616C6964206672616D657A
:100410002E0020205B4C6F636B5D205072652D7445
:100420007970652D302048433038202D20756E734B
:100430007570706F727465642E0057616974696EAF
:100440006720666F7220626174746572792E2E2E39
:10045000002020427269646765204750494F302D63
:100460004750494F3120666F722064656164206C8B
:100470006F636B2C204750494F302D4750494F3206
:1004800020666F7220435243206C6F636B2E0020F6
:1004900020277327203D2072657363616E207C20C6
:1004A0006175746F2D6465746563747320636F6E1A
:1004B0006E6563742F646973636F6E6E6563740039
:1004C00020204D616B697461204D6F6E69746F728D
:1004D000202D205363616E202F20556E6C6F636B4F
:1004E000204D6F646500202052656D6F7665206237
:1004F000726964676520746F20737769746368201C
:10050000746F207363616E2F756E6C6F636B206DFB
:100510006F64652E0020204750494F302D475049C9
:100520004F322062726964676564202D3E20435219
:1005300043204C4F434B204D4F44450020204D61FC
:100540006B69746120435243204C4F434B205574D8
:10055000696C697479202D2054797065732030207E
:100560002F2032202F2033206F6E6C7900202052F4
:10057000656D6F76652062726964676520746F20AF
:1005800073776974636820746F207363616E2F756D
:100590006E6C6F636B206D6F64652E00202047507A
:1005A000494F302D4750494F312062726964676569
:1005B00064202D3E2044454144204C4F434B204D68
:1005C0004F444520286E7962626C65203430203DAE
:1005D000203135290020204D616B6974612044452C
:1005E0004144204C4F434B205574696C6974792009
:1005F0002D2054797065732030202F2032202F2039
:1006000033206F6E6C7900312E352E30002020465D
:1006100069726D776172652076005741524E494E7E
:10062000473A20524F4D204944207265616420664C
:1006300061696C65643B207573696E672066616CE7
:100640006C6261636B2074797065206465746563A6
:1006500074696F6E2E00202F20370053746174650B
:10066000206F66206368617267653A20002056003B
:1006700043656C6C20646966662020202020203A47
:100680002000205600286E6F2063656C6C7320720A
:1006900065706F7274656429002056005061636B49
:1006A00020766F6C746167652020203A200020431B
:1006B0000054656D7020284D6F7366657429202085
:1006C0003A200020430054656D70202843656C6C0F
:1006D00073292020203A20002025004F7665726C77
:1006E0006F6164202520202020203A200020250052
:1006F0004F44202520202020202020202020203A88
:1007000020002025004F7665726C6F6164202520E3
:10071000202020203A20004F7665726C6F616420A3
:10072000636E742020203A20002025004F442025AD
:1007300020202020202020202020203A20004F446C
:10074000206576656E74732020202020203A2000DA
:10075000202F2034202028004865616C74682020F8
:10076000202020202020203A20004379636C65203F
:10077000636F756E74202020203A20004641494C5A
:10078000004F4B004641494C004F4B0041757820CB
:100790004353756D2034382D3631203A20004641C0
:1007A000494C004F4B00417578204353756D203400
:1007B000342D3437203A20004641494C004F4B003D
:1007C000436865636B73756D2033322D3430203A86
:1007D00020004641494C004F4B00436865636B73F2
:1007E000756D2031362D3331203A20004E6F00597F
:1007F000455300436865636B73756D20302D31354B
:1008000020203A20004661696C75726520636F6430
:10081000652020203A2000554E4C4F434B45440064
:100820004C4F434B45440043656C6C206661696CDA
:100830007572652020203A20004C6F636B20737422
:1008400061747573202020203A2000204168004305
:1008500061706163697479202020202020203A2073
:100860000031302063656C6C20424C333678780060
:10087000352063656C6C20424C3138787800342028
:1008800063656C6C20424C3134787800202028005D
:100890004261747465727920747970652020203A01
:1008A0002000446574656374656420747970652004
:1008B000203A200028756E617661696C61626C6512
:1008C00029004D6667206461746520202020202067
:1008D000203A2000524F4D20494420202020202043
:1008E0002020203A20004D6F64656C2020202020BD
:1008F00020202020203A20002020436865636B736D
:10090000756D73203A200020204E6F207265737041
:100910006F6E736520647572696E672076657269A3
:1009200066792E00202000202052657061697220B7
:100930006672616D65203A20004261747465727957
:10094000207374696C6C206C6F636B65642E00425D
:10095000617474657279207375636365737366750A
:100960006C6C7920756E6C6F636B65642E00202053
:100970002D3E204672616D6520726570616972203E
:100980006661696C65642E0020202D3E20467261F0
:100990006D6520726570616972207375636365654A
:1009A0006465642E20554E4C4F434B45442E002029
:1009B000204672616D65207265706169722E2E2EFF
:1009C0000020202D3E205374696C6C206C6F636B8B
:1009D00065642E0020202D3E20554E4C4F434B4544
:1009E0004420627920444130342E00202043686541
:1009F000636B73756D73203A200020205374696C0B
:100A00006C206E6F2070726573656E63652E205367
:100A10006B697070696E672E00202044413034206D
:100A200072657365742E2E2E002D2D2D20556E6C43
:100A30006F636B20617474656D7074200042617423
:100A400074657279204C4F434B45442E20466169B2
:100A50006C75726520636F64653A20002E20536BBD
:100A6000697070696E672E00556E6C6F636B206ED7
:100A70006F7420737570706F7274656420666F7226
:100A80002074797065200042617474657279205514
:100A90004E4C4F434B45442E00436F6D706C657454
:100AA000652E005741524E494E473A20766F6C747E
:100AB0006167652072656164206661696C65643B8D
:100AC0002063656C6C2064617461206D61792062C3
:100AD00065206D697373696E672E00426174746579
:100AE00072792072656D6F76656420647572696EC7
:100AF00067207363616E2E2041626F7274696E6746
:100B00002E004261747465727920666F756E642080
:100B1000203A2000202020202020202020444F2088
:100B20004E4F5420636861726765206F6E20616E5E
:100B30007920636861726765722E00202020202072
:100B400020202020467265657363616C65204D43EB
:100B50003930384A4B334520424D53202D2D206EDD
:100B60006F2063656C6C2070726F74656374696F5D
:100B70006E2E005741524E494E473A205072652D15
:100B8000747970652D302048433038206261747468
:100B900065727920646574656374656421004552EB
:100BA000524F523A2042617474657279206E6F74AC
:100BB00020726573706F6E64696E6720616674651C
:100BC0007220726574726965732E2041626F72744F
:100BD000696E672E00202052656D6F766520626118
:100BE000747465727920616E642074727920616713
:100BF00061696E2E002020426174746572792072E2
:100C0000656D6F7665642E2057616974696E672E15
:100C10002E2E0020205B4C6F636B5D20426174744C
:100C20006572792072656D6F7665642E20576169F3
:100C300074696E6720666F72206E6578742E2E2E32
:100C40000020204261747465727920646574656364
:100C5000746564202D207374617274696E672073EB
:100C600063616E2E0020205B4C6F636B5D204261E0
:100C70007474657279206465746563746564202D8D
:100C80002064656164206C6F636B696E672E2E2E25
:100C90000020205B4C6F636B5D2042617474657251
:100CA00079206465746563746564202D2043524324
:100CB000206C6F636B696E672E2E2E004D616E7512
:100CC000616C2072657363616E2072657175657306
:100CD0007465642E00202042726964676520726525
:100CE0006D6F7665642E20496E7365727420626143
:100CF000747465727920746F207363616E2E0020A6
:100D0000204D6F6465206368616E676564202D3EC9
:100D1000205343414E202F20554E4C4F434B204DE6
:100D20004F44450020204750494F302D4750494FF0
:100D30003220627269646765642E20496E73657241
:100D400074206261747465727920746F206C6F63B3
:100D50006B2E0020204D6F6465206368616E6765AF
:100D600064202D3E20435243204C4F434B204D4F97
:100D700044450020204750494F302D4750494F31BE
:100D800020627269646765642E20496E73657274AF
:100D9000206261747465727920746F206C6F636B6C
:100DA0002E0020204D6F6465206368616E67656466
:100DB000202D3E2044454144204C4F434B204D4F75
:100DC00044450000000000240027002A0000000025
:100DD00008000201000003040700000000000000FA
:100DE0000000000000250028002B00000000002368
:100DF000002600290004040404040404040202027E
:100E0000020202030303030303010204081020404B
:100E1000800102040810200102040810200051166D
:100E2000052511241FBECFEFD8E0DEBFCDBF11E0F6
:100E3000A0E0B1E0EEE8F7E502C005900D92A43D18
:100E4000B107D9F722E0A4EDB1E001C01D92A23BA9
:100E5000B207E1F717E0C0E1D7E004C02197FE0137
:100E60000E945725CF30D107C9F70E9420170C9454
:100E7000BA2B0C9400008091A002E091A102F091A5
:100E8000A202F8949181282F20959223918378943F
:100E90003DE743E050E0315029F1DA011197F1F7D5
:100EA00090819823C1F3F894928192239283918147
:100EB000982B91837894A3EBBBE01197F1F7F8940A
:100EC000918192239183A3E1B1E01197F1F7908191
:100ED000982381E009F080E07894E3E6F6E031972A
:100EE000F1F7089580E00895EF92FF920F931F931A
:100EF000CF93DF9328E030E080E041E0A3E2B0E070
:100F00009FECE92EF12C9091A002E091A102F091CA
:100F1000A202F8945181592B51836281792F7095E7
:100F2000672362838D01ED012197F1F751815723EA
:100F30005183E8012197F1F750817894F7013197B7
:100F4000F1F7952309F0842B440F21503109D9F68C
:100F5000DF91CF911F910F91FF90EF900895CF9265
:100F6000DF92EF92FF920F931F93CF93DF9328E0CE
:100F700030E041E06BE871E093E7C92ED12CCBE281
:100F8000D0E00BED11E09091A002E091A102F09170
:100F9000A202F92EF094582F542389F1F89452812B
:100FA0005F2152835181592B5183DE011197F1F753
:100FB0005281952B92837894F8013197F1F7440F81
:100FC0002150310901F7F894E091A102F091A202B9
:100FD00091818091A002809598239183E091A10254
:100FE000F091A2029281892382837894DF91CF913C
:100FF0001F910F91FF90EF90DF90CF900895F8949C
:1010000052815F2152835181592B5183DB0111970A
:10101000F1F75281952B92837894F601CECF8330ED
:1010200081F028F4813099F08230A9F0089587305A
:10103000A9F08830C9F08430B1F4809180008F7DB0
:1010400003C0809180008F7780938000089584B5DD
:101050008F7784BD089584B58F7DFBCF8091B000DC
:101060008F778093B00008958091B0008F7DF9CF85
:10107000CF93DF93282F30E0F901E353F24F8491AF
:10108000F901E75FF14FD491F901EB50F24FC491B0
:10109000CC23A1F081110E940F08EC2FF0E0EE0F9D
:1010A000FF1FE551F24FA591B491EC91ED2381E042
:1010B00090E009F480E0DF91CF91089580E090E026
:1010C000FACF1F93CF93DF93282F30E0F901E3533A
:1010D000F24F8491F901E75FF14FD491F901EB50A0
:1010E000F24FC491CC23A9F0162F81110E940F0852
:1010F000EC2FF0E0EE0FFF1FEF51F24FA591B491EE
:101100008FB7F894EC91111108C0D095DE23DC93D1
:101110008FBFDF91CF911F910895DE2BF8CFCF9332
:10112000DF9390E0FC01E75FF14F24918B50924FE9
:10113000FC0184918823C9F090E0880F991FFC017D
:10114000ED53F24FA591B491FC01EF51F24FC591CF
:10115000D49161110DC09FB7F8948C912095822392
:101160008C938881282328839FBFDF91CF91089596
:10117000623051F49FB7F8943C91822F809583237D
:101180008C93E8812E2BEFCF8FB7F894EC912E2B18
:101190002C938FBFEACF3FB7F8948091E8019091EC
:1011A000E901A091EA01B091EB0126B5A89B05C029
:1011B0002F3F19F00196A11DB11D3FBFBA2FA92FD6
:1011C000982F8827BC01CD01620F711D811D911DD3
:1011D00042E0660F771F881F991F4A95D1F708953F
:1011E0008F929F92AF92BF92CF92DF92EF92FF9237
:1011F0006B017C010E94CB084B015C01C114D1043E
:10120000E104F104B9F00E94CB08681979098A0950
:101210009B09683E73408105910580F321E0C21A65
:10122000D108E108F10888EE880E83E0981EA11C21
:10123000B11CE4CFFF90EF90DF90CF90BF90AF90C4
:101240009F908F9008952FB7F8946091E40170916A
:10125000E5018091E6019091E7012FBF0895262FC7
:101260002695820F911DFC01808160FD02C08F7068
:1012700008958295FCCFAF92BF92CF92DF92EF920A
:10128000FF920F931F93CF93DF936C017B018B0130
:10129000040F151FEB015E01AE18BF08C017D10780
:1012A00059F06991D601ED91FC910190F081E02D0A
:1012B000C6010995892B79F7C501DF91CF911F915F
:1012C0000F91FF90EF90DF90CF90BF90AF90089577
:1012D000FC01538D448D252F30E0842F90E0821B3C
:1012E000930B541710F0CF96089501970895FC01C1
:1012F000918D828D981761F0A28DAE0FBF2FB11D19
:101300005D968C91928D9F5F9F73928F90E0089570
:101310008FEF9FEF0895FC01918D828D981731F02A
:10132000828DE80FF11D858D90E008958FEF9FEF7E
:101330000895FC01918D228D892F90E0805C9F4F54
:10134000821B91098F73992708958DEE91E00E9479
:10135000990921E0892B09F420E0822F089580E08B
:1013600090E0892B29F00E94A50981110C940000BE
:101370000895FC01A48DA80FB92FB11DA35ABF4F2A
:101380002C91848D90E001968F739927848FA68984
:10139000B7892C93A089B1898C91837080648C93D8
:1013A000938D848D981306C00288F389E02D808187
:1013B0008F7D80830895EF92FF920F931F93CF93B9
:1013C000DF93EC0181E0888F9B8D8C8D98131AC080
:1013D000E889F989808185FF15C09FB7F894EE8967
:1013E000FF896083E889F9898081837080648083C4
:1013F0009FBF81E090E0DF91CF911F910F91FF900F
:10140000EF900895F62E0B8D10E00F5F1F4F0F73B6
:101410001127E02E8C8D8E110CC00FB607FCFACF71
:10142000E889F989808185FFF5CFCE010E94B9094D
:10143000F1CFEB8DEC0FFD2FF11DE35AFF4FF08242
:101440009FB7F8940B8FEA89FB8980818062CFCFA8
:101450000F931F93CF93DF938C01D0E0C0E0F8018E
:10146000EC0FFD1F6491662341F08DEE91E00E9428
:10147000DB09892B11F02196F2CFCE01DF91CF91BC
:101480001F910F910895682F8DEE91E00C94DB0968
:10149000CF93DF93EC01888D8823B9F0AA89BB89AB
:1014A000E889F9898C9185FD03C0808186FD0DC096
:1014B0000FB607FCF7CF8C9185FFF2CF808185FFB7
:1014C000EDCFCE010E94B909E9CFDF91CF91089508
:1014D000FF920F931F93CF93DF938C01C62FF42EAF
:1014E000D0E0FC1638F06C2FC8010E942F09D80FED
:1014F000CF5FF7CF8D2F8F70DF91CF911F910F911D
:10150000FF9008951F93CF93DF93EC0168E20E9450
:101510002F098F3061F46BE2CE010E942F09182F42
:1015200048E260E2CE010E94680A91E0181390E060
:10153000892FDF91CF911F9108950C94820A1F93F8
:10154000CF93DF93EC014FE060E00E94680A182F10
:1015500069E2CE010E942F0918131FC04FE160E11C
:10156000CE010E94680A182F6AE2CE010E942F095C
:10157000181313C048E260E2CE010E94680A182FD7
:101580006BE2CE010E942F0991E0181301C090E098
:10159000892FDF91CF911F91089591E0F9CF0C949D
:1015A0009F0A0C949F0AAF92BF92CF92DF92EF9264
:1015B000FF920F931F93CF93DF938C01EB018A89E6
:1015C0008D3008F462C08E3108F461C08AE08AABC5
:1015D0006B8970E090E080E00E94792620E030E0A6
:1015E00040E251E40E94CF256BAB7CAB8DAB9EAB50
:1015F0004FE060E0C8010E94680AA82EBA8C81E022
:10160000AB1080E088AF4FE160E1C8010E94680A3A
:10161000C82EDB8C81E0CD1080E089AF48E260E22B
:10162000C8010E94680AE82EFC8C81E0EF1080E07F
:101630008AAF4FE26CE2C8010E94680A91E02D8DEA
:10164000281390E09BAF4DE360E3C8010E94680A55
:1016500091E02E8D281390E09CAFAB101AC0CD10F6
:1016600018C0EF1016C0F80194899F7081E009F44A
:1016700080E08FABDF91CF911F910F91FF90EF90A2
:10168000DF90CF90BF90AF90089584E0A0CF85E029
:101690009ECF81E0EECF0F931F93CF93DF938C010A
:1016A000D42F0E942F09C82F6D2FC8010E942F0927
:1016B00090E1C99FE00111248C2BDF91CF911F9104
:1016C0000F910895CF92DF92EF92FF920F931F93A5
:1016D000CF93DF93EC018B0147E166E10E944B0B56
:1016E000F801808341E260E2CE010E944B0BF801D9
:1016F000818368E2CE010E942F09F801828341E3D1
:1017000060E3CE010E944B0BF801838343E362E365
:10171000CE010E944B0BF80184836CE2CE010E9443
:101720002F0982FB882780F9F801878364E3CE01C3
:101730000E942F09D82E65E3CE010E942F09C82EE2
:1017400066E3CE010E942F09F0E18F9F7001112402
:10175000FC2867E3CE010E942F092D2D30E0322FA7
:1017600022273295307F22273071E82A2E293F29FF
:10177000F8013683258369E2CE010E942F09F80122
:1017800080876AE2CE010E942F09F80181876BE20F
:10179000CE010E942F09F80182876EE3CE010E94DC
:1017A0002F09F80183876FE3CE010E942F09F8010A
:1017B0008487DF91CF911F910F91FF90EF90DF9081
:1017C000CF9008954F70E62FE695E80FF92FF11DA1
:1017D000908160FD04C0907F942B908308959F704A
:1017E00080E1489FA0011124F7CFCF93DF93EC0154
:1017F0004FE068E20E94E20B48E260E2CE010E9404
:10180000680A482F6BE2CE01DF91CF910C94E20B76
:10181000EF92FF920F931F93CF93DF93EC01E62E8D
:101820004FE060E00E94680A082F4FE160E1CE01BE
:101830000E94680A182F48E260E2CE010E94680AFE
:101840008E0D8F70F82E402F4E0D4F7069E2CE0135
:101850000E94E20B412F4E0D4F706AE2CE010E94B2
:10186000E20B4F2D68E2CE010E94E20B4F2D6BE29E
:10187000CE01DF91CF911F910F91FF90EF900C94CB
:10188000E20B60E088E00C94610881E00E94380877
:10189000892B41F082E00E943808892B31F090E0DA
:1018A00080E0089581E090E0089582E090E008955E
:1018B000CF92DF92EF92FF920F931F93CF93DF931C
:1018C000CDB7DEB729970FB6F894DEBF0FBECDBFF8
:1018D000282F80918C0290918D02892B09F449C0A8
:1018E000872F90E0B0E0A0E0BA2FA92F982F88278B
:1018F000A62B822BAD0166277727C92EDA2EEB2E79
:10190000FF241C2D382F20919202222391F0022FC8
:1019100010E0049FF001059FF00D149FF00D1124BD
:101920004F2F2C9D600111241D2D289FC0011124D3
:10193000392FE09198028091930290919402209126
:101940009502E21721F0E80FF92FF11D1082E091C6
:101950009502E80FF92FF11D4083E0919602E80F00
:10196000F92FF11D108320919702820F911DFC0128
:1019700030838091930290919402892B09F47CC06A
:101980000E94CB080091990210919A0220919B022B
:1019900030919C02601771078207930740F46093AF
:1019A000990270939A0280939B0290939C020091FB
:1019B000990210919A0220919B0230919C02601B27
:1019C000710B820B930B6C32714081059105C0F253
:1019D000F89480918E0290918F029A838983E0918E
:1019E0009302F0919402DF01119680818987909192
:1019F0008A02E0919D02F0919E0280919F029923BC
:101A000009F449C09081982B98879081809589230B
:101A10008F838F818C8388E08B8358856F81498584
:101A20003B812C8189819A81508347FD252F3A95EE
:101A30002083262F39F0441F00C00000608300007F
:101A400000C0F2CF38E04D9160830000019761F74C
:101A5000F0939E02E0939D0249873B832C839A83F7
:101A6000898378940E94CB086093990270939A02BC
:101A700080939B0290939C0229960FB6F894DEBF48
:101A80000FBECDBFDF91CF911F910F91FF90EF90CF
:101A9000DF90CF9008959081982B988790818095C2
:101AA00089238F838F818E8388E08D8358856F8112
:101AB00049853D812E8189819A81508347FD252F5B
:101AC00000C000C0208300C000C000C000C000C033
:101AD00060830000262F3A9541F0441F000000C0AB
:101AE00000C000C000C000C0E8CF38E04D9100C089
:101AF000608300C0019709F7F0939E02E0939D0276
:101B000049873D832E83ABCF60910A0170910B0111
:101B100080910C010C94580C6091070170910801A0
:101B2000809109010C94580CCF92DF92EF92FF92B2
:101B30006B017C0185EFC81681E0D806E104F10451
:101B400068F064EF71E080E090E00E94F00884EFBC
:101B5000C81A81E0D80AE108F108ECCFC701B60144
:101B6000FF90EF90DF90CF900C94F00861E088E058
:101B70000E94610866E970E080E090E00C94940DAA
:101B80008F929F92BF92CF92DF92EF92FF920F932C
:101B90001F93CF93DF93F82EC62FD42EC52EB22ECF
:101BA00081110E94B60D0E943B07811111C0F110F6
:101BB0000E94410C81E090E0DF91CF911F910F9145
:101BC000FF90EF90DF90CF90BF909F908F900895FF
:101BD0008C2F0E94AF07C33389F4E801085F1F4FC1
:101BE00023E6822E99249394C4010197F1F70E9471
:101BF00074078993C017D107B9F78E019D2CCD2D9D
:101C0000DC2D93E6C92EDD24D394C6010197F1F7AC
:101C100089910E94AF078C2F89198B15B0F38BE83F
:101C200091E00197F1F7E8010E0D111D83E6C82E32
:101C3000DD24D394C017D10739F0C6010197F1F71D
:101C40000E9474078993F6CFF1100E94410C90E036
:101C500080E0B2CFEF920F931F93CF93DF93CDB776
:101C6000DEB728970FB6F894DEBF0FBECDBF262F84
:101C70008E010F5F1F4F38E0F80111923A95E9F796
:101C8000E12CAC0163E381E00E94C00D28960FB601
:101C9000F894DEBF0FBECDBFDF91CF911F910F91A2
:101CA000EF900895EF920F931F93E22E8A01262F53
:101CB000AC016CEC81E00E94C00D1F910F91EF9080
:101CC00008950F931F93CF938B01C42F242FAB0143
:101CD00064E00E94520E892B41F4F801EC0FF11DD3
:101CE000319781E09081963009F080E0CF911F918B
:101CF0000F910895CF93DF93D82FC92F20E2482F5B
:101D0000592F62E083E191E00E94520E892BB1F4D9
:101D1000ED2FFC2FAF01405E5F4F8FEF90E02191E0
:101D2000922B8223E417F507D1F7992339F08F3FDF
:101D300041F081E090E0DF91CF91089590E080E064
:101D4000FACF8FEF9FEFF7CF0E94410C1092EC017A
:101D500064E670E080E090E00E94940D0C94B60D73
:101D6000BF92CF92DF92EF92FF920F931F93CF9388
:101D7000DF93EC01B62E6A01F22E61E088E00E944A
:101D80006108209729F0BE0190E080E00E94940D48
:101D90000E943B0781110FC060E088E00E9461084B
:101DA00080E0DF91CF911F910F91FF90EF90DF9036
:101DB000CF90BF9008958BE896E00197F1F7BB2094
:101DC00039F08CEC0E94AF0783E691E00197F1F7C0
:101DD000F60180810E94AF07C3E6D1E0CE010197F2
:101DE000F1F7F1E0FF1631F0F60181810E94AF07B3
:101DF0002197F1F7E801E00EF12EF11C03E611E066
:101E0000EC16FD0639F00E9474078993C80101970A
:101E1000F1F7F6CF60E088E00E94610881E0C1CF71
:101E2000EF920F931F93E22E8A01262FAC0161E0FF
:101E300084EA91E00E94B00E1F910F91EF900895F7
:101E4000CF93DF931F92CDB7DEB78091D401882363
:101E500091F0198221E0AE014F5F5F4F63E080E1B6
:101E600091E00E94520E1092D4016EE170E080E089
:101E700090E00E94940D0F90DF91CF9108950F9301
:101E80001F93CF93DF931F92CDB7DEB7198221E066
:101E9000AE014F5F5F4F63E08DE091E00E94520E14
:101EA0008C01892B49F481E08093D4016EE170E0CC
:101EB00080E090E00E94940DC8010F90DF91CF91D7
:101EC0001F910F910895CF92DF92EF92FF921F938F
:101ED000CF93DF93CDB7DEB7A2970FB6F894DEBFEE
:101EE0000FBECDBFFC018381843628F485E04423F6
:101EF00049F08FEF07C0FB0181898E3189F486E0BC
:101F00004111F7CFA2960FB6F894DEBF0FBECDBF3A
:101F1000DF91CF911F91FF90EF90DF90CF900895C8
:101F2000142FAE014E5E5F4F81E1FA0111928A9546
:101F3000E9F721E162E08BE191E00E94520E892BEA
:101F400029F48AA1863011F480E0DCCF0E943F0F93
:101F50009E012F5F3F4F7901892BC1F481E1F90187
:101F600011928A95E9F721E1A70162E089E191E008
:101F70000E94520E6C010E94200F0E94A40ECD28D8
:101F800029F48989863011F482E0BCCF19821A8243
:101F90001B8223E0A70164E085E191E00E94520EDC
:101FA000892B19F48B81863019F0812F8195AACF66
:101FB00083E0A8CFCF9361E088E00E94610866E9E2
:101FC00070E080E090E00E94940D0E943B07C82FD3
:101FD00060E088E00E94610881E0C13009F080E0A3
:101FE000CF910895CF92DF92EF92CF936B01E82EBD
:101FF0001092D501C3E08E2DB6010E94580C68ECFA
:1020000070E080E090E00E94940D0E948C0D64E6E8
:1020100070E080E090E00E94940DC15061F78E2D39
:10202000B601CF91EF90DF90CF900C94580C88239D
:1020300039F09EEF980F81E0923018F080E008951B
:1020400081E00895FC0101900020E9F73197AF018C
:10205000481B590BBC018DEE91E00C943B098FE8B5
:1020600091E00C942210CF93DF930E94280AEC0198
:102070000E942F108C0F9D1FDF91CF910895CF9359
:10208000DF93D62FC42F81111CC080EC90E00E94FA
:10209000280A80E20E94430A8DEA90E0DD2311F0D5
:1020A00087EB90E00E94280A80E20E94430A8AE9B6
:1020B00090E0CC2311F084EA90E0DF91CF910C9472
:1020C000331089EC90E0E3CFFF920F931F93CF93EF
:1020D000DF93EC0189E592E00E94280A48E260E281
:1020E000CE010E94680A182F6BE2CE010E942F09D0
:1020F00001E0181300E04FE160E1CE010E94680AA0
:10210000F82E6AE2CE010E942F0911E0F81210E0C9
:102110004FE060E0CE010E94680AF82E69E2CE012D
:102120000E942F0991E0F81290E0402F612F892F33
:10213000DF91CF911F910F91FF900C943F1088E693
:1021400090E00C9433108F929F92AF92BF920F93B6
:102150001F93CF93DF93CDB7DEB7A1970FB6F89457
:10216000DEBF0FBECDBF19A2423008F44AE08E0197
:102170000F5D1F4F842E912CB12CA12CA501940131
:102180000E943525E62FB901CA01EA30F4F4E05D7A
:10219000D801EE938D01232B242B252B79F790E08A
:1021A00080E0109719F0CD010E942210A1960FB681
:1021B000F894DEBF0FBECDBFDF91CF911F910F917D
:1021C000BF90AF909F908F900895E95CE1CFCF933F
:1021D000DF93682F70E090E080E04AE00E94A31057
:1021E000EC010E942F108C0F9D1FDF91CF9108955D
:1021F000CF93DF93EC018FE692E00E94280A68E219
:10220000CE010E942F09DF91CF910C94E710CF925D
:10221000DF92EF92FF92CF93DF936C01092E000CB7
:10222000EE08FF0897FF1BC08DE20E94430AEC01F5
:1022300066277727CB016C197D098E099F094AE033
:102240000E94A310C80FD91F0E942F108C0F9D1F32
:10225000DF91CF91FF90EF90DF90CF9008954AE00B
:10226000C701B6010E94A310EC01EECFCF92DF921E
:10227000EF92FF92CF93DF93EC0189E891E00E9407
:10228000280A0E9423096B017C010E9423096C1912
:102290007D098E099F09603177428105910558F5C6
:1022A000CE010E947A0E0197F9F40E9423099B0146
:1022B000AC012C193D094E095F0969017A0186E8D4
:1022C00091E00E94280A4AE0C701B6010E94A310CB
:1022D00081E891E00E94331081E0DF91CF91FF907F
:1022E000EF90DF90CF9008958FE791E00E94280A49
:1022F0000E94A40ECACF84E791E00E94280A4AE017
:1023000060E177E280E090E00E94A3108FE691E028
:102310000E94331080E0E1CFCF92DF92EF92FF92E4
:1023200085E591E00E94280A0E9423096B017C0147
:102330000E9423096C197D098E099F09603177423B
:102340008105910540F50E94A40E0E943B07813053
:10235000E9F40E9423099B01AC012C193D094E09A7
:102360005F0969017A018FE491E00E94280A4AE03E
:10237000C701B6010E94A3108AE491E00E943310C5
:1023800081E0FF90EF90DF90CF90089588E491E096
:102390000E94280ACDCF8DE391E00E94280A4AE0EE
:1023A00060E177E280E090E00E94A31088E391E092
:1023B0000E94331080E0E5CF8F929F92AF92BF9240
:1023C000CF92DF92EF92FF920F931F93CF937C01F6
:1023D0000E9423094B015C01C0E00E942309681997
:1023E00079098A099B096031774281059105C0F519
:1023F000C7010E947A0E8C01892B21F1CC23A9F010
:102400000E9423096B017C01C818D908EA08FB085F
:1024100083E592E00E94280A4AE0C701B6010E94C3
:10242000A3108EE492E00E943310C801CF911F9157
:102430000F91FF90EF90DF90CF90BF90AF909F9063
:102440008F900895C11104C084E492E00E94280A8C
:1024500082E492E00E94280A0E94A40EC1E0BDCF4F
:10246000C1110E942F100E948C1110E000E08823FF
:10247000E1F2C701CF911F910F91FF90EF90DF9094
:10248000CF90BF90AF909F908F900C947A0E0F9347
:102490001F93CF93DF93D82FC92FCB01009711F44F
:1024A00086E291E00E94280A0D2F1C2FC0E0DBE09D
:1024B000F80181918F01803118F480E30E94430A72
:1024C000F8013197608170E090E080E040E10E9487
:1024D000A310CF3119F080E20E94430ACF5FC032CF
:1024E00031F4DF91CF911F910F910C942F108C2F0D
:1024F0006D2F0E9415259111DBCF0E942F1084E1D2
:1025000091E00E94280AD4CF813099F070F0853094
:1025100099F08F30A1F0682F70E090E080E04AE001
:102520000E94A31081ED90E002C08DE091E00C9438
:1025300033108EEF90E0FBCF82EF90E0F8CF87EE84
:1025400090E0F5CF4F925F926F927F928F929F9221
:10255000AF92BF92CF92DF92EF92FF92CF936B0137
:102560007C01842EAC019B010E949B27882389F06B
:1025700082E991E0CF91FF90EF90DF90CF90BF90F4
:10258000AF909F908F907F906F905F904F900C9442
:10259000221026013701E89477F82FEF3FEF4FE73D
:1025A0005FE7C301B2010E949B2781110DC02FEF8D
:1025B0003FEF4FE75FE7C301B2010E94CA2518163B
:1025C0001CF486E991E0D6CF2FEF3FEF4FE75FE4B1
:1025D000C701B6010E94292718161CF48AE991E068
:1025E000C9CF2FEF3FEF4FE75FECC701B6010E9465
:1025F000CA2587FDF3CF20E030E0A901C701B6016D
:102600000E94CA25B12CA12C87FF08C08DE20E9430
:10261000430A5C01F7FAF094F7F8F094C82D60E0F3
:1026200070E080E09FE3912C20E030E040E251E454
:102630000E94CF2593949814B8F3A70196010E94A5
:102640005E252B013C010E9448266B017C010E9403
:1026500077269B01AC01C301B2010E945D252B01CD
:102660003C014AE0C701B6010E94A3107C018EE242
:102670000E94430AE80EF91EEA0CFB1CC15018F137
:1026800020E030E040E251E4C301B2010E942E2775
:102690002B013C010E9448264B01B12CA12C4AE0A1
:1026A000C501B4010E94A310E80EF91EC501B401D2
:1026B0000E9477269B01AC01C301B2010E945D25F7
:1026C0002B013C01DBCFC701CF91FF90EF90DF9052
:1026D000CF90BF90AF909F908F907F906F905F90C2
:1026E0004F900895CF93DF93D0E0C0E0009719F0AA
:1026F0000E942210EC010E942F108C0F9D1FDF9171
:10270000CF9108958F929F92AF92BF92CF92DF9216
:10271000EF92FF920F931F93CF93DF93CDB7DEB766
:10272000A8970FB6F894DEBF0FBECDBF4B015A017C
:10273000F22E9E012F5F3F4F690128E2F6011192B0
:102740002A95E9F7EF2C860122E0AC0163E381E0F2
:102750000E94C00D8C01892B79F488E0F601D40128
:1027600001900D928A95E1F74F2D50E0BE01675F11
:102770007F4FC5010E94C528C801A8960FB6F894DE
:10278000DEBF0FBECDBFDF91CF911F910F91FF90A4
:10279000EF90DF90CF90BF90AF909F908F90089573
:1027A0000F931F93CF93DF93CDB7DEB7A0970FB6EC
:1027B000F894DEBF0FBECDBF8C01AE014F5F5F4FFF
:1027C00080E2FA0111928A95E9F720E2B80183E1EB
:1027D00091E00E948213892B89F088E0F801119220
:1027E0008A95E9F780E0A0960FB6F894DEBF0FBE99
:1027F000CDBFDF91CF911F910F91089581E0F3CF6D
:10280000EF92FF920F931F93CF93DF93CDB7DEB775
:10281000A2970FB6F894DEBF0FBECDBF7C018B012F
:102820000E943F0F892BC9F0C8010E94280A83E249
:1028300092E00E9433100E948C11882309F464C036
:102840000E943F0F892B49F0C8010E94280A83E9A2
:1028500091E00E94331080E057C08091EC01882302
:1028600049F086EF91E00E9433100E94200F0E94F1
:10287000A40EF1CF8E010F5F1F4F80E2F80111927D
:102880008A95E9F720E2A80162E08EE391E00E94D8
:10289000520E892B19F082EE91E0E5CF81E0809312
:1028A000EC016EE170E080E090E00E94940D8FE01A
:1028B00089831A8280E2F701DE01139601900D925E
:1028C0008A95E1F762E2C8010E942A0E892B19F06D
:1028D0008CEC91E0C8CF6EE170E080E090E00E9467
:1028E000940D62E08DE191E00E942A0E892B19F08F
:1028F00086EB91E0B8CF6EE170E080E090E00E945E
:10290000940D0E94200F81E0A2960FB6F894DEBFCE
:102910000FBECDBFDF91CF911F910F91FF90EF9030
:1029200008956F927F928F92CF92DF92EF92FF92F3
:102930000F931F93CF93DF93CDB7DEB7C854D10960
:102940000FB6F894DEBF0FBECDBF7C018091D401DD
:1029500081110E94200F0E94A40E6091310170919C
:102960003201809133010E94580C8E010F5B1F4F82
:1029700088E0D8011D928A95E9F7C8010E94D0131A
:10298000882E6E01B1E2CB0ED11C80E2F6011192CD
:102990008A95E9F7C6010E94DC118130910561F149
:1029A000019639F482E194E00E9433100E94840D74
:1029B0000CC082EF93E00E94331060917A01709115
:1029C0007B0180917C010E94F20F0E94410C10E07B
:1029D000812FC85BDF4F0FB6F894DEBF0FBECDBFAF
:1029E000DF91CF911F910F91FF90EF90DF90CF90EB
:1029F0008F907F906F900895811004C08AEA93E0D1
:102A00000E94331041E0B601C8010E94630F182FE5
:102A10008AE993E00E94280A17FF03C08AE793E03F
:102A2000C3CF812F110F990B0E940711D701169662
:102A3000ED91FC91C6010995182F8823B1F0F7019B
:102A4000808581110FC084E293E00E943310609171
:102A50007A0170917B0180917C010E94F20F0E94AB
:102A6000410CB6CF82E593E0F0CF80E2F601DE01C3
:102A7000119601900D928A95E1F701E06090720144
:102A8000709073018090740186ED92E00E94280A94
:102A9000802F0E94E710D701ED91FC91602FCE01AD
:102AA00001960995882DB3010E94580C6CEC72E0D8
:102AB000CE0101960E940014182F8823C9F10E94AC
:102AC000A40ECE0101960E943611811110C086EB32
:102AD00092E00E9433100E949F1088EE92E00E94C4
:102AE00033100E949F1010E0EAE7F1E031C0D701F7
:102AF0001496ED91FC91CE0101960995D70112969D
:102B0000ED91FC91CE0101960995182F811110C00D
:102B100080E2FE01B196DE01119601900D928A9538
:102B2000E1F70F5F073009F0AFCF82E992E0D1CF34
:102B30000E949F10112389F2F701808581110CC03A
:102B400089EF92E00E9433100E949F10E7E7F1E0C6
:102B500060817181828181CF8FE093E0F3CF1F92FA
:102B60000F920FB60F9211242F933F938F939F9341
:102B7000AF93BF938091E4019091E501A091E601AC
:102B8000B091E7013091E30123E0230F2D3758F591
:102B90000196A11DB11D2093E3018093E401909360
:102BA000E501A093E601B093E7018091E8019091DF
:102BB000E901A091EA01B091EB010196A11DB11DBF
:102BC0008093E8019093E901A093EA01B093EB01AF
:102BD000BF91AF919F918F913F912F910F900FBE19
:102BE0000F901F90189526E8230F0296A11DB11D86
:102BF000D2CF1F920F920FB60F9211242F933F93B3
:102C00004F935F936F937F938F939F93AF93BF93F4
:102C1000EF93FF938DEE91E00E94B909FF91EF9140
:102C2000BF91AF919F918F917F916F915F914F91E4
:102C30003F912F910F900FBE0F901F9018951F92EC
:102C40000F920FB60F9211242F938F939F93EF93B0
:102C5000FF93E091FD01F091FE018081E09103027C
:102C6000F091040282FD1BC09081809106028F5F6B
:102C70008F7320910702821741F0E0910602F0E085
:102C8000E351FE4F958F80930602FF91EF919F9144
:102C90008F912F910F900FBE0F901F9018958081EC
:102CA000F4CF1092F0011092EF0188EE93E0A0E0D3
:102CB000B0E08093F1019093F201A093F301B093FF
:102CC000F40181E891E09093EE018093ED0185ECB1
:102CD00090E09093FA018093F90184EC90E0909356
:102CE000FC018093FB0180EC90E09093FE018093C7
:102CF000FD0181EC90E0909300028093FF0182EC53
:102D000090E0909302028093010286EC90E0909311
:102D1000040280930302109206021092070210929E
:102D200008021092090260E086E00E948F08EFE03E
:102D3000FEE0E491E093A002EBEFFDE0E491F0E02F
:102D4000EE0FFF1FE551F24F859194919093A202EF
:102D50008093A1021092AB021092AD021092AC02CD
:102D60001092AA021092A9021092A8021092A70231
:102D70001092A6021092A5021092A4021092A30231
:102D800010928B02109292021092990210929A0263
:102D900010929B0210929C0281E080939802809393
:102DA00095021092960292E09093970280938A0285
:102DB00083E090E090938F0280938E020E94A02780
:102DC0009093940280939302009789F123E0FC0191
:102DD00011922A95E9F781E090E090938D0280931B
:102DE0008C0280E190E09093910280939002809118
:102DF0008B02882341F061E080E10E948F0860E04F
:102E000080E10E946108E5E0FEE0E491F0E0EE0F71
:102E1000FF1FEF51F24F8591949190939E02809302
:102E20009D02E9E1FEE0E491E0939F020895109293
:102E30008F0210928E0210928D0210928C02D1CFCE
:102E4000CF93DF93CDB7DEB7C65FD1090FB6F89445
:102E5000DEBF0FBECDBF789484B5826084BD84B5DB
:102E6000816084BD85B5826085BD85B5816085BD85
:102E700080916E00816080936E001092810080913D
:102E800081008260809381008091810081608093C5
:102E90008100809180008160809380008091B100EA
:102EA00084608093B1008091B00081608093B00015
:102EB00080917A00846080937A0080917A008260A9
:102EC00080937A0080917A00816080937A0080916B
:102ED0007A00806880937A001092C100E091FD0131
:102EE000F091FE0182E08083E091F901F091FA0116
:102EF0001082E091FB01F091FC0180E1808310924F
:102F00000502E0910102F091020286E08083E091E7
:102F1000FF01F0910002808180618083E091FF01D8
:102F2000F0910002808188608083E091FF01F09140
:102F30000002808180688083E091FF01F0910002AF
:102F400080818F7D808361E088E00E948F0860E04F
:102F500088E00E94610861E080E00E948F0860E0E4
:102F600080E00E94610862E081E00E948F0862E0D8
:102F700082E00E948F086EEE72E080E090E00E9496
:102F8000F008809190029091910297FD2EC061E02F
:102F90000E948F0860E0809190020E94610881E0A9
:102FA00080938B0260919202613541F120919302EE
:102FB000309194026150E1F070E08FEF90E50E9453
:102FC0002125F90140918E0250918F02CF01821B81
:102FD000930B8417950778F44081469FC001479F63
:102FE000900D112490833196EDCF10928B02DACFA1
:102FF00070E060E0E6CF81E5809392020E948C0D44
:103000000E949F108DE096E00E94280A87E096E0DB
:103010000E9433100E94450C8C018130910571F0A3
:10302000029709F45EC180EC94E00E9433108FE8AF
:1030300094E00E94331081E594E00AC085ED95E0AC
:103040000E9433108CE995E00E9433108DE695E0E4
:103050000E9433100E949F108AE394E00E94331074
:103060001092DB011092DA011093E2010093E1016A
:10307000209131013091320140913301C951DF4F2C
:10308000288339834A83C75ED04080917201909132
:103090007301A0917401C651DF4F88839983AA837D
:1030A000CA5ED04090917701CF51DF4F9883C15EC7
:1030B000D040A0917801CE51DF4FA883C25ED040AE
:1030C000B0917901CD51DF4FB883C35ED040E0911C
:1030D0007A01CC51DF4FE883C45ED040F0917B0190
:1030E000CB51DF4FF883C55ED04020917C01CA519F
:1030F000DF4F2883C65ED040CF50DF4FE883C15FEB
:10310000D040CE50DF4FF883C25FD040CD50DF4F6C
:103110002883C35FD040CC50DF4F9883C45FD0403A
:10312000CB50DF4FA883C55FD040CA50DF4FB88374
:10313000C65FD040AE01425C5F4FC752DF4F59833C
:103140004883C95DD040CE018B569F4FC552DF4F9B
:1031500099838883CB5DD0401E0195E7290E311CF1
:10316000D1015496C351DF4FB983A883CD5ED040BF
:10317000FA013796C151DF4FF983E883CF5ED04023
:103180000E9423094B015C010091E1011091E201D1
:103190008091DD019091DE01A091DF01B091E0010D
:1031A000A5019401281B390B4A0B5B0BDA01C901FD
:1031B000C297A105B105A8F0C090DA01D090DB015B
:1031C0008092DD019092DE01A092DF01B092E001D9
:1031D0000E94450C7C010817190709F08DC0109258
:1031E000DC0101151105F1F4E090DA01F090DB014A
:1031F0008DEE91E00E949909892BA1F08DEE91E06E
:103200000E9477098F7D833569F4EA94EF2851F0A5
:103210008CEB9CE00E94331081E090E09093DB0106
:103220008093DA018091D6019091D701A091D801C5
:10323000B091D901A5019401281B390B4A0B5B0BF6
:10324000DA01C901883C9105A105B10568F1E0905A
:10325000DA01F090DB018092D6019092D701A09222
:10326000D801B092D9010E94DA0FE114F10409F0FB
:1032700081C0882309F47EC00E949F1085E69CE0EF
:103280000130110539F081E99CE00230110511F09F
:1032900081E49CE00E9433100E949F1081E090E046
:1032A0009093DB018093DA018091DA019091DB0148
:1032B000009709F07FC081E0012B09F080E0809346
:1032C000000181E08093D50180E090E0892B09F432
:1032D00057CF0E94A509882309F42CCF0E94000033
:1032E00029CF8CE395E00E94331085E195E00E94A0
:1032F000331086EE94E0ACCE8091DC018F5F843099
:1033000018F48093DC016DCF1092DC01F092E201A1
:10331000E092E101C6010297029710F0CD2809F56D
:103320000E948C0D1092DB011092DA010E949F1016
:1033300031E0E316F10459F042E0E416F10499F0AB
:103340008FEF9CE00E94331085ED9CE006C082EA7E
:103350009DE00E94331083E79DE00E9433100E949D
:103360009F1087013ECF83E59DE00E94331084E2E9
:103370009DE0F3CF32E0E31AF10842E0E416F104F5
:1033800008F092CF811190CF0E949F10C801019741
:10339000029768F483E19CE00E9433100E949F1022
:1033A0000E948C0D1092DB011092DA017DCF85EF27
:1033B0009BE0F2CF1092D501019709F085CF8FE104
:1033C00091E00230110529F001301105A9F488E2DD
:1033D00091E00E949114582E882309F45AC082E08B
:1033E00090E09093DB018093DA0151106DCF85ED71
:1033F0009BE00E94331068CF8091D40181110E941C
:10340000200F0E94A40EC951DF4F688179818A8103
:10341000C75ED0400E94580CCE010196CB52DF4FC0
:1034200099838883C55DD0408DE3CB52DF4FA8815F
:10343000B981C55DD0401D928A95E9F780E090EC96
:10344000A9E7B4EC8FA798ABA9ABBAAB8BA79CA7A5
:10345000ADA7BEA78FEF8A8BFE01EB54FF4FC95279
:10346000DF4FF983E883C75DD04080E211928A95EF
:10347000E9F7CE018B549F4F0E94DC11009761F455
:103480008EE99BE00E9433100E94410C1092EC01E7
:10349000512C83E090E0A5CF0196F9F40E949F1093
:1034A00083E79BE00E9433108BE39BE00E94331084
:1034B00084E19BE00E9433100E949F1060917A018A
:1034C00070917B0180917C010E94F20F0E94410C5F
:1034D0001092EC015524539482CFBE016D5E7F4F54
:1034E000CE018B549F4F0E94620BBE016F5F7F4FD6
:1034F000CE018B549F4F0E94D30ACE0109960E94A1
:10350000D013898B811104C08AE196E00E943310A8
:1035100040E0BE016B547F4FCE0109960E94630FBD
:103520008A8B853009F0BBC0D1011C92E12C81014E
:1035300021E045E351E061E090E080E00E94B00EC0
:1035400081116FC06EE971E0CE0101960E94CE2814
:103550000E949F1082E09BE00E94280ACE01019603
:103560000E94721387E3C752DF4FA881B981C95DFA
:10357000D0401D928A95E9F78A89853009F4BDC04B
:10358000BBA8863009F41DC28BE1D1011D928A953A
:10359000E9F70B2D063008F005E02BE1A10164E00E
:1035A00086E491E00E94520E892B09F0A2C2F1013B
:1035B000608171816115710509F49BC290E080E022
:1035C0000E94772620E030E04AE754E40E94CF25AD
:1035D0004B015C0171019E01225C3F4F690110E0CB
:1035E000B2E0EB0EF11CE4E0CE0ED11C011709F4A1
:1035F000A2C2D70111966C9111978C91762F682FEA
:1036000090E080E00E94772620E030E04AE754E432
:103610000E94CF25F60160837183828393831F5FAD
:10362000DFCF6AE070E080E090E00E94940D1FAE72
:103630001EAE92E0E92E8E01025C1F4F21E044E3B2
:1036400051E060E090E080E00E94B00E882309F431
:1036500079CF9EAD8FAD9F3FE1F48F3F09F472CFDC
:103660001F929F931F928F9385EA91E09F938F9370
:103670001F9288E08F93E1E0F0E0EC0FFD1FFF93D5
:10368000EF930E94D5280FB6F894DEBF0FBECDBFD2
:103690005FCF9111E5CF882309F454CFE1CF80E1CA
:1036A000C752DF4FA881B981C95DD0401D928A956C
:1036B000E9F720E1AE01425C5F4F62E086E391E012
:1036C0000E94520E892B11F0198242CFFE01FE9604
:1036D000DE011196819190EE980F9F3518F01C92A3
:1036E000188636CF8D93C151DF4F28813981CF5E47
:1036F000D0402E173F0771F7F3CF6AE070E080E00B
:1037000090E00E94940D1BA9CB56DF4F19821882BE
:10371000C559D04020E0AE014B565F4F62E08EE3CA
:1037200091E00E94100F882309F43EC120E0AE0111
:103730004B565F4F62E08EE391E00E94100F22E053
:10374000AE014B565F4F61E089E391E00E94100F9C
:10375000163008F015E0FE01FE966F01F12CE12C09
:1037600000E0812C912C5401E116C0F5D101119695
:103770001C9211971C9222E0A10161E0C701875CB5
:103780009E4F0E94100F882311F1F1016081718119
:10379000CB0101978E3F9F4FD0F490E080E00E94D4
:1037A000772620E030E04AE754E40E94CF259B01D1
:1037B000AC01D60114962D933D934D935C931797CE
:1037C000C501B4010E945E254B015C0101E0BFEF21
:1037D000EB1AFB0AE4E0CE0ED11CC6CF0170D1017A
:1037E00011961C9211971C9222E0A10161E088E3DE
:1037F00091E00E94100F882309F4CEC0F10160818E
:103800007181CB0101978E3F9F4F08F0C5C090E0BA
:1038100080E00E94772620E030E048EC52E40E94ED
:10382000CF252B013C0160E070EC89E794EC4BA6BE
:103830005CA66DA67EA66FA778AB89AB9AAB8A898A
:103840008630D1F50E94B60D0E943B07E82EF12C80
:10385000882371F083E691E00197F1F782ED0E94F1
:10386000AF078BE891E00197F1F70E947407F82EFB
:103870000E94410C60E070EC89E794ECEE20C1F00E
:103880006F2D70E090E080E00E94792620E030E02B
:1038900040E252EC0E942E2720E03CEA41E156E44F
:1038A0000E945E2520E030E048EC52E40E94CF25E3
:1038B0006BA77CA78DA79EA7FE01B0968BE0DF01CA
:1038C0001D928A95E9F7EA888BEF8E0D823008F019
:1038D000B6C12F892E3108F4AFC12D51330BE88CBE
:1038E000F98C4E8983E290E0841B910997FF02C016
:1038F00090E080E0820F931F8E9DB0018F9D700D30
:103900009E9D700D112490E080E00E94772620E0BB
:1039100030E040E05DE30E942E272B013C01B7011F
:1039200090E080E00E9477269B01AC01C301B201C8
:103930000E945E256B017C018C898A3141F08C31BB
:1039400031F0883221F068E572E0823311F468EEDC
:1039500073E090E080E00E9477269B01AC01C701F4
:10396000B6010E94CF259B01AC0160E070E080E8C9
:1039700090E40E945D256B017C0120E030E0A9010C
:103980000E94CA2587FF03C0C12CD12C7601C8A292
:10399000D9A2EAA2FBA21AC2412C80EC582E89E7D8
:1039A000682E84EC782E3FCF412CB0EC5B2EB9E72B
:1039B0006B2EB4EC7B2E00E010E0812C912C540196
:1039C00032CFCB56DF4F1882C559D04084E1D101A8
:1039D0001D928A95E9F70E94B60DE12C8E010B56D7
:1039E0001F4F22E040E451E06CEC80E00E94C00DEB
:1039F0006AE070E080E090E00E94940D0E943B0736
:103A0000182F882309F183E691E00197F1F784EDFF
:103A10000E94AF078BE891E00197F1F76101A3E6FF
:103A2000EA2EFF24F3940E947407F60181936F013C
:103A3000C7010197F1F7C351DF4F28813981CD5E6E
:103A4000D0402E173F0779F70E94410C112309F44B
:103A500043C00B2D0B3008F00AE07101AE01425C4F
:103A60005F4F6A0110E0812C912C540154E0C50E87
:103A7000D11C0117E1F1D70111966C9111978C912E
:103A8000762F682F90E080E00E94772620E030E0DB
:103A900040E251E40E94CF259B01AC0160E070E858
:103AA0008BEB95E40E945D2520E030E04AE754E48A
:103AB0000E94CF259B01AC01F60120833183428314
:103AC0005383C501B4010E945E254B015C011F5F59
:103AD000F2E0EF0EF11CCACF00E0812C912C5401D2
:103AE00060E070EC89E794EC2B013C01A0CE01E092
:103AF000F7CF8DE0C552DF4FA881B981CB5DD040B3
:103B00001D928A95E9F72DE0AE014B565F4F64E0B8
:103B100082E491E00E94520E892B09F443C060E0D8
:103B200070EC89E794EC2B013C0100E010E0812C63
:103B3000912C54017CCED1011E966D917C911F97E2
:103B40005096ED90FC90CB010197412CF0EC5F2E4C
:103B5000F9E76F2EF4EC7F2E8E3F9F4F60F490E0DC
:103B600080E00E94772620E030E048EC52E40E949A
:103B7000CF252B013C01C70101978E3F9F4F68F471
:103B8000B70190E080E00E94772620E030E048EC2A
:103B900052E40E94CF2501E04ACE60E070EC89E754
:103BA00094ECF9CFCF55DF4F8881C15AD040863091
:103BB00009F0B5CFCB56DF4F68817981C559D04028
:103BC00090E080E00E94772620E030E04AE754E46D
:103BD0000E94CF254B015C019E012B563F4F79017E
:103BE000AE01425C5F4F6A0110E052E0E50EF11C4D
:103BF00084E0C80ED11C0117C1F0D70111966C9159
:103C000011978C91762F682F90E080E00E947726A4
:103C100020E030E04AE754E40E94CF25F6016083BB
:103C20007183828393831F5FE0CF60E070EC89E74C
:103C300094EC2B013C01AFCF30E020E050CE8E2D34
:103C40000E941710882309F42FC1FC88F10110820B
:103C500011821282F2E081E0EF1621F023E082E08F
:103C6000E21280E034E0839FC001112443E0B101FF
:103C7000865B9E4F0E94610E70E060E0882319F021
:103C8000D1016D917C91FF20A1F190E080E00E9434
:103C900077262B013C016F2D70E090E080E00E94C0
:103CA00079269B01AC01C301B2010E94CF256B01B3
:103CB0007C0120E030E040EA52E40E9429271816F7
:103CC0000CF492C020E030E040E251E4C701B601BC
:103CD0000E94CF2520E030E040EA50E40E945D25BC
:103CE0006B017C0120E030E0A9010E94CA2587FF1A
:103CF00003C0C12CD12C7601C8A2D9A2EAA2FBA292
:103D0000FA888F2D0E941710811175C080E08EA354
:103D10008A89823009F48AC0833009F4A7C08111EE
:103D2000BCC088E0F10111928A95E9F748E0B10141
:103D30008AE691E00E94610E882309F4AEC0D101A9
:103D400016962C91B0E12B9FA0011124407F537057
:103D5000F1019581292F30E064E0359527956A952A
:103D6000E1F7242B352B848190E0982F8827882732
:103D700093704381842B820F931F40814295469517
:103D8000469543702181F4E02F9F90011124242B4C
:103D9000820F931F9DA38CA38A89811181C085E026
:103DA000D1011D928A95E9F745E0B1018EE691E0D7
:103DB0000E94610E882309F473C0F1018081918112
:103DC000A281B3818FA398A7A9A7BAA70E94DA0FEF
:103DD000582E811187C08BED9AE00E9433100E940B
:103DE000410C1092EC0155CBC12CD12CE0E8EE2E09
:103DF000E0E4FE2E81CFF10111821082F2E081E039
:103E0000FF1621F023E082E0F21280E034E0839F8D
:103E1000C001112442E0B1018A5A9E4F0E94610EF6
:103E2000882309F473CFD1018C9171CF88E0D1013F
:103E30001D928A95E9F748E0B10186E691E00E947B
:103E4000610E882351F1F10120818281422F480FB8
:103E50005527551F2381240F352F311D8581280FAC
:103E6000311D8681820F932F911D94CF86E0D10161
:103E70001D928A95E9F746E0B10182E691E00E9441
:103E8000610E882351F0F10180819281482F490F02
:103E90005527551F9A018381E5CF90E080E07ACFC6
:103EA00080E090E0DC018ECFC453DF4F6881CC5CB2
:103EB000D0406F7070E075956795C12CD12C30E8BB
:103EC000E32E30E4F32E633008F461CD673009F45B
:103ED0005BCD62507109072E000C880B990B0E9474
:103EE000792641CD011104C083EA9AE00E94331083
:103EF0000E949F1086EE98E00E94280ACE0101964B
:103F00000E94721384ED98E00E94280A8989882310
:103F100009F4D3C29E01275F3F4F7901D12CD7010D
:103F20008D917D01803118F480E30E94430AF701EE
:103F30003197608170E090E080E040E10E94A31042
:103F4000B7E0DB1619F080E20E94430AD394E8E060
:103F5000DE12E5CF0E942F1089851F928F938A85EC
:103F60001F928F938B851F928F9380EB91E09F938D
:103F70008F931F928DE08F933F922F920E94D528AE
:103F800082EC98E00E94280AC1010E9472130FB6C9
:103F9000F894DEBF0FBECDBF82EA98E00E94280AE7
:103FA0008A89082E000C990B0E94071180E998E07D
:103FB0000E94280A6B8970E090E080E04AE00E944D
:103FC000A3108CE898E00E94280A8B898D3008F0B5
:103FD00079C28EE798E00E94280A89E20E94430A8B
:103FE0000E942F108FE498E00E94280A6CA97DA9F6
:103FF0008EA99FA941E050E00E94A2128BE498E0B4
:104000000E9433100E949F1089E398E00E94280AC2
:1040100088AD882309F45EC280E298E00E943310E4
:1040200087E298E00E94280A8A8D882309F455C205
:104030008FEE97E00E94331085E098E00E94280AF6
:104040008D890E94841283EF97E00E94280A89AD2F
:10405000882309F445C287ED97E00E9433108AED6A
:1040600097E00E94280A8AAD882309F43CC28DEBB0
:1040700097E00E94331080EC97E00E94280A8BADF5
:10408000882309F433C283EA97E00E94331086EA5A
:1040900097E00E94280A8CAD882309F42AC289E897
:1040A00097E00E9433108CE897E00E94280A8DADBB
:1040B000882309F421C281E897E00E9433100E940E
:1040C0009F10888D998D892B69F08AE697E00E9470
:1040D000280A688D798D90E080E04AE00E94A31064
:1040E0000E942F1020E030E0A90168A179A18AA1E7
:1040F0009BA10E9429271816ECF588E597E00E94FD
:10410000280A68A179A18AA19BA142E050E00E94FF
:10411000A21280E597E00E94280AC8A0D9A0EAA0D0
:10412000FBA020E030E0A901C701B6010E942927C9
:1041300020E030E040E05FE387FDE1C1C701B60168
:104140000E945E250E9441267B01D12CC12C83E276
:10415000CE14DF040CF08DE20E94430A3FEFC31A35
:10416000D30A44E0C416D10491F789E20E94430ABD
:104170000E942F108A890E941710882309F47BC09F
:104180008EA18823B9F18EE397E00E94280A8EA1C0
:104190000E94E710888D998D892B61F18CE297E060
:1041A0000E94280A6EA170E090E080E00E947926CB
:1041B00020E030E048EC52E40E942E276B017C01A5
:1041C000688D798D90E080E00E9477269B01AC019C
:1041D000C701B6010E94CF2520E030E040E850E45E
:1041E0000E945E2541E050E00E94A21289E297E021
:1041F0000E9433108CA19DA1892BE9F187E197E002
:104200000E94280A6CA17DA190E080E04AE00E9413
:10421000A3100E942F10888D998D892B61F185E064
:1042200097E00E94280A6CA17DA190E080E00E94A6
:10423000772620E030E048EC52E40E942E276B0104
:104240007C01688D798D90E080E00E9477269B014B
:10425000AC01C701B6010E94CF2520E030E040E864
:1042600050E40E945E2541E050E00E94A21282E0EC
:1042700097E00E9433108A898550823008F042C04E
:104280008E898823F1F080EF96E00E94280A6E89DB
:1042900070E090E080E00E94792620E030E040EA83
:1042A00050EC0E942E2720E030E040E253E40E94D0
:1042B0005E2541E050E00E94A2128DEE96E00E9441
:1042C00033108F898823F1F08BED96E00E94280A45
:1042D0006F8970E090E080E00E94792620E030E075
:1042E00040EA50E40E942E2720E030E040E253E410
:1042F0000E945D2541E050E00E94A21288ED96E008
:104300000E94331020E030EC49E754EC6BA57CA50B
:104310008DA59EA50E94CA25882381F086EC96E093
:104320000E94280A6BA57CA58DA59EA541E050E0C2
:104330000E94A21283EC96E00E94331020E030EC41
:1043400049E754EC6FA578A989A99AA90E94CA25C2
:10435000882381F081EB96E00E94280A6FA578A956
:1043600089A99AA941E050E00E94A2128EEA96E043
:104370000E9433100E949F108CE996E00E94280A48
:1043800043E050E0C501B4010E94A21289E996E021
:104390000E943310002311F01111B6C085E896E099
:1043A0000E9433108A890E941710882309F450C094
:1043B0006FA178A589A59AA561157105810591055B
:1043C00009F446C01C89112309F442C00E947726D3
:1043D0006B017C01612F70E090E080E00E94792603
:1043E0009B01AC01C701B6010E94CF2520E030E05F
:1043F00044E355E40E94CF256B017C0120E030E0CE
:1044000040E251E40E94CA2511E087FD10C020E07F
:1044100030E040E251E4C701B6010E94CF250E947E
:1044200041266830710514F067E070E0162F0E9495
:104430009F108BE596E00E94280A612F70E090E0C3
:1044400080E04AE00E94A31086E596E00E943310C7
:104450000E949F1070E060E0CE018B549F4F0E943D
:1044600047120E949F1088AD8111FEC087E89AE034
:104470000E943310CC50DF4F6881C45FD040CB50D6
:10448000DF4F7881C55FD040CA50DF4F8881C65F5B
:10449000D0400E94F20F8A890E94171081110E9459
:1044A000A40E0E949F1089E99AE00E9433100E9496
:1044B000410C1092EC010C94EF1984EB98E00E94EF
:1044C00033106ACD8E3118F480E798E084CD81E610
:1044D00098E081CD87E198E0A1CD8CEE97E0AACD60
:1044E00082ED97E0BACD88EB97E0C3CD8EE997E0F7
:1044F000CCCD84E897E0D5CD8CE797E0DECDC70141
:10450000B6010E945D251ECE23967FAC239724968C
:104510008FAC249725969FAC259726960FAD2697AE
:104520008EE390E08C0F9D1F0496C152DF4F99835C
:104530008883CF5DD040C352DF4F7882CD5DD040BD
:10454000482CC252DF4F9882CE5DD040602EB12CF5
:10455000A12CA11608F06BC09FEFA91AB90ABF924F
:10456000AF92A1ECB1E0BF93AF931F92F6E1FF933E
:104570003F922F920E94D528C1010E942210C15261
:10458000DF4FA881B981CF5DD040CD90DD90ED9017
:10459000FD90C152DF4FB983A883CF5DD04043E087
:1045A00050E0C701B6010E94A21282E896E00E9484
:1045B00033100FB6F894DEBF0FBECDBF272D382DB8
:1045C000492D502FC701B6010E942927181624F43F
:1045D0007C2C8D2C9E2C0F2DC352DF4F2881CD5D5E
:1045E000D040342DC252DF4F4881CE5DD040562D91
:1045F000C701B6010E94CA2587FD0CC0C352DF4F18
:10460000C880CD5DD040D42CC252DF4FE880CE5D53
:10461000D040F62CC352DF4FC882CD5DD0404D2C28
:10462000C252DF4FE882CE5DD0406F2C92CF80E740
:1046300096E00E94280AC352DF4F2881CD5DD0400A
:10464000342DC252DF4F4881CE5DD040562D672DAC
:10465000782D892D902F0E945D2543E050E00E9427
:10466000A2128DE696E09CCE8A890E9417108111D5
:1046700032C088E69AE00E94280ACA880C2C000CF6
:10468000DD08EE08FF084AE0C701B601F7FE0BC0DF
:104690008DE20E94430A66277727CB016C197D09BA
:1046A0008E099F094AE00E94A3108CE59AE00E94BF
:1046B0003310CF50DF4F6881C15FD040CE50DF4F05
:1046C0007881C25FD040CD50DF4F8881C35FD0403A
:1046D0000E94F20FE6CE8DE39AE00E94280A8D89AF
:1046E0000E9484120E94840D01E028E0422E89E29B
:1046F0009AE00E94280A802F0E94E71000FFA0C0C5
:1047000089E19AE00E9433100E94840D0E94A40E59
:104710000E943F0F892B31F10E948C11882341F0B8
:104720000E943F0F892BF1F08AEF99E00E9433102D
:1047300010E069C01123D9F28FE499E00E94331090
:10474000CF51DF4F6881C15ED040CE51DF4F7881BD
:10475000C25ED040CD51DF4F8881C35ED0400E9401
:10476000F20F9DCEC552DF4FA881B981CB5DD040FD
:10477000E42D1D92EA95E9F7D101E9E01D92EA9551
:10478000E9F729E0A101BE016B567F4F85E791E073
:104790000E9482130E94200F0E94A40E80E2D10189
:1047A0001D928A95E9F7C1010E943611182F8823BE
:1047B00009F4BECF80E2F101DE01AB54BF4F01909E
:1047C0000D928A95E1F7BE016D5E7F4FCE018B544D
:1047D0009F4F0E94620BBE016F5F7F4FCE018B54D3
:1047E0009F4F0E94D30A8BEE99E00E94280A4BAD9E
:1047F0006AAD89AD0E943F1088AD81111EC084ED65
:1048000099E00E9433100F5F073009F093CF111128
:1048100093CF89E399E00E943310CC51DF4F688138
:10482000C45ED040CB51DF4F7881C55ED040CA51C5
:10483000DF4F8881C65ED0404BCF81EC99E076CFC8
:104840008FEA99E00E943310C651DF4F6881798169
:104850008A81CA5ED0400E94580C80E2FE01EB546F
:10486000FF4FDE01AB56BF4F01900D928A95E1F7E5
:1048700040E068E2CE018B569F4F0E94E20B4FE072
:1048800060E0CE018B569F4F0E94680A482F69E274
:10489000CE018B569F4F0E94E20B4FE160E1CE01AB
:1048A0008B569F4F0E94680A482F6AE2CE018B56B2
:1048B0009F4F0E94E20B48E260E2CE018B569F4F71
:1048C0000E94680A482F6BE2CE018B569F4F0E94D0
:1048D000E20B4FE26CE2CE018B569F4F0E94680ABA
:1048E000482F6EE3CE018B569F4F0E94E20B4DE3A3
:1048F00060E3CE018B569F4F0E94680A482F6FE3FA
:10490000CE018B569F4F0E94E20B67E279E0CE0109
:104910008B569F4F0E94471264E279E0CE018B567E
:104920009F4F0E940014882389F00E94A40E80E209
:10493000F10111928A95E9F7C1010E943611182FF1
:10494000811107C087E099E00E9433108EE699E05C
:10495000EDCE4FE060E0C1010E94680A982ED101BF
:104960005496EC90AE2CA2949FE0A92288248394C4
:104970008A11812C4FE160E1C1010E94680AB82EC2
:10498000F101F588FF2DFF70CF2E772473948F13DC
:10499000712C48E260E2C1010E94680AD82EF294AC
:1049A0008FE0F82266246394DF10612C88EF98E092
:1049B0000E94280A462D672D882D0E943F1080E214
:1049C000F101DE01AB54BF4F01900D928A95E1F7E2
:1049D0009A10BCCFBC10BACFDF10B8CF8E2D8F701D
:1049E00009F0B4CFBE016D5E7F4FCE018B549F4F57
:1049F0000E94620BBE016F5F7F4FCE018B549F4FB1
:104A00000E94D30A88E899E0FCCE809193029091AD
:104A100094020E943C28809190029091910297FD0F
:104A200003C060E00C948F080895991B79E004C0DE
:104A3000991F961708F0961B881F7A95C9F78095DD
:104A40000895AA1BBB1B51E107C0AA1FBB1FA617D5
:104A5000B70710F0A61BB70B881F991F5A95A9F727
:104A600080959095BC01CD010895A1E21A2EAA1B54
:104A7000BB1BFD010DC0AA1FBB1FEE1FFF1FA2170E
:104A8000B307E407F50720F0A21BB30BE40BF50B0B
:104A9000661F771F881F991F1A9469F76095709594
:104AA000809590959B01AC01BD01CF010895EE0F5B
:104AB000FF1F0590F491E02D09945058BB27AA27B9
:104AC0000E9475250C94EF260E94E12638F00E9482
:104AD000E82620F039F49F3F19F426F40C94DE26E2
:104AE0000EF4E095E7FB0C94D826E92F0E940027EE
:104AF00058F3BA17620773078407950720F079F413
:104B0000A6F50C9422270EF4E0950B2EBA2FA02DBB
:104B10000B01B90190010C01CA01A0011124FF276A
:104B2000591B99F0593F50F4503E68F11A16F04065
:104B3000A22F232F342F4427585FF3CF4695379564
:104B40002795A795F0405395C9F77EF41F16BA0B29
:104B5000620B730B840BBAF09150A1F0FF0FBB1FD7
:104B6000661F771F881FC2F70EC0BA0F621F731F20
:104B7000841F48F4879577956795B795F7959E3F7D
:104B800008F0B0CF9395880F08F09927EE0F97950E
:104B9000879508950E94B42608F481E008950E9444
:104BA000E3250C94EF260E94E82658F00E94E126A7
:104BB00040F029F45F3F29F00C94D82651110C9451
:104BC00023270C94DE260E94002768F39923B1F373
:104BD000552391F3951B550BBB27AA276217730723
:104BE000840738F09F5F5F4F220F331F441FAA1FB7
:104BF000A9F335D00E2E3AF0E0E832D09150504073
:104C0000E695001CCAF72BD0FE2F29D0660F771F20
:104C1000881FBB1F261737074807AB07B0E809F006
:104C2000BB0B802DBF01FF2793585F4F3AF09E3F8B
:104C3000510578F00C94D8260C9423275F3FE4F3B9
:104C4000983ED4F3869577956795B795F7959F5FCE
:104C5000C9F7880F911D9695879597F90895E1E01A
:104C6000660F771F881FBB1F621773078407BA0779
:104C700020F0621B730B840BBA0BEE1F88F7E095D4
:104C800008950E9448266894B1110C942327089532
:104C90000E94082788F09F5798F0B92F9927B7519D
:104CA000B0F0E1F0660F771F881F991F1AF0BA95D0
:104CB000C9F714C0B13091F00E942227B1E00895E5
:104CC0000C942227672F782F8827B85F39F0B93FD7
:104CD000CCF3869577956795B395D9F73EF4909583
:104CE0008095709561957F4F8F4F9F4F0895E89401
:104CF00009C097FB3EF490958095709561957F4F24
:104D00008F4F9F4F9923A9F0F92F96E9BB279395D1
:104D1000F695879577956795B795F111F8CFFAF4E1
:104D2000BB0F11F460FF1BC06F5F7F4F8F4F9F4F12
:104D300016C0882311F096E911C0772321F09EE870
:104D4000872F762F05C0662371F096E8862F70E0D6
:104D500060E02AF09A95660F771F881FDAF7880FB0
:104D60009695879597F90895990F0008550FAA0B06
:104D7000E0E8FEEF16161706E807F907C0F012166E
:104D80001306E407F50798F0621B730B840B950B71
:104D900039F40A2661F0232B242B252B21F40895C6
:104DA0000A2609F4A140A6958FEF811D811D089563
:104DB00097F99F6780E870E060E008959FEF80ECCE
:104DC000089500240A941616170618060906089571
:104DD00000240A9412161306140605060895092ED7
:104DE0000394000C11F4882352F0BB0F40F4BF2B46
:104DF00011F460FF04C06F5F7F4F8F4F9F4F089586
:104E000057FD9058440F551F59F05F3F71F047957B
:104E1000880F97FB991F61F09F3F79F08795089560
:104E2000121613061406551FF2CF4695F1DF08C07F
:104E3000161617061806991FF1CF8695710561059C
:104E400008940895E894BB2766277727CB0197F944
:104E500008950E94B42608F48FEF08950E94412718
:104E60000C94EF260E94E12638F00E94E82620F0FC
:104E7000952311F00C94D8260C94DE2611240C9462
:104E800023270E94002770F3959FC1F3950F50E0F0
:104E9000551F629FF001729FBB27F00DB11D639FEC
:104EA000AA27F00DB11DAA1F649F6627B00DA11D92
:104EB000661F829F2227B00DA11D621F739FB00D38
:104EC000A11D621F839FA00D611D221F749F3327A8
:104ED000A00D611D231F849F600D211D822F762F41
:104EE0006A2F11249F5750409AF0F1F088234AF01E
:104EF000EE0FFF1FBB1F661F771F881F915050408A
:104F0000A9F79E3F510580F00C94D8260C942327D6
:104F10005F3FE4F3983ED4F3869577956795B79510
:104F2000F795E7959F5FC1F7FE2B880F911D96952A
:104F3000879597F908950E94B426880B990B0895D8
:104F40000F931F93CF93DF938230910510F482E08B
:104F500090E0E091B002F091B10230E020E0B0E0EA
:104F6000A0E0309799F42115310509F44AC0281BB7
:104F7000390B24303105D8F58A819B816115710583
:104F800089F1FB0193838283FE0111C0408151812D
:104F90000281138148175907E0F04817590799F41F
:104FA000109761F012960C93129713961C933296F9
:104FB000CF01DF91CF911F910F9108950093B0021F
:104FC0001093B102F4CF2115310551F04217530768
:104FD00038F0A901DB019A01BD01DF01F801C1CF61
:104FE000EF01F9CF9093B1028093B002CDCFFE01D3
:104FF000E20FF31F81939193225031093983288363
:10500000D7CF2091AE023091AF02232B41F42091F3
:105010000301309104013093AF022093AE0220913E
:105020000101309102012115310541F42DB73EB740
:105030004091050150910601241B350BE091AE0211
:10504000F091AF02E217F307A0F42E1B3F0B2817D5
:10505000390778F0AC014E5F5F4F2417350748F0F1
:105060004E0F5F1F5093AF024093AE028193919316
:105070009FCFF0E0E0E09CCFCF93DF930097E9F083
:10508000FC01329713821282A091B002B091B1025A
:10509000ED0130E020E01097A1F420813181820FF2
:1050A000931F2091AE023091AF022817390709F003
:1050B00061C0F093AF02E093AE02DF91CF9108950B
:1050C000EA01CE17DF07E8F54A815B819E014115B1
:1050D0005105B1F7E901FB83EA8349915991C40F66
:1050E000D51FEC17FD0761F4808191810296840F32
:1050F000951FE90199838883828193819B838A83A9
:10510000F0E0E0E012968D919C9113970097B9F52D
:105110002D913C911197CD010296820F931F209102
:10512000AE023091AF022817390739F6309751F5A2
:105130001092B1021092B002B093AF02A093AE02EF
:10514000BCCFD383C28340815181840F951FC81780
:10515000D90761F44E5F5F4F88819981480F591FCD
:10516000518340838A819B819383828321153105FA
:1051700009F0B0CFF093B102E093B0029ECFFD01F1
:10518000DC01C0CF13821282D7CFFB01DC0102C049
:1051900001900D9241505040D8F70895FB01DC0179
:1051A00001900D920020E1F70895AEE0B0E0EBED44
:1051B000F8E20C94912B0D891E898F89988D26E039
:1051C0002C831A83098397FF02C080E090E801973F
:1051D0009E838D83AE01455E5F4F698D7A8DCE01D2
:1051E00001960E9405294D815E8157FD0AC02F81DD
:1051F0003885421753070CF49A01020F131FF80168
:1052000010822E96E4E00C94AD2BABE0B0E0EBE026
:10521000F9E20C94832B7C013B018A01FC0117828B
:105220001682838181FFC8C1CE0101965C01F7011E
:105230009381F30193FD859193FF81913F01882331
:1052400009F453C1853239F493FD859193FF81911F
:105250003F01853229F4B70190E00E94F52AE7CF9B
:10526000912C212C312CFFE1F31538F08B3211F108
:1052700090F4803209F1833229F137FC3CC020EDF3
:10528000280F2A3050F536FE20C08AE0989E200D67
:105290001124922E06C08D3291F0803371F76894FC
:1052A00030F8F30193FD859193FF81913F018111C6
:1052B000DACF21C0689431F8689432F8F2CF68945C
:1052C00033F8EFCF689434F8ECCFEAE02E9E200D4F
:1052D0001124222E689435F8E4CF8E3229F436FC5E
:1052E00004C1689436F8DDCF8C3619F4689437F829
:1052F000D8CF8836B1F2982F9F7D95549330E0F047
:105300008336A1F18337C1F1833509F063C02801E9
:10531000F2E04F0E511CF801C080D180692D70E081
:1053200036FC02C06FEF7FEFC6010E94DF2A4C01FE
:10533000689437F882010AC00C5F1F4FFFE3F983BE
:1053400088248394912C6501E89437F833FE2DC0AE
:10535000522C8114910471F5552009F468CFB701DE
:1053600080E290E00E94F52A5A94F6CFF8018081FD
:1053700089830E5F1F4FE4CF2801F2E04F0E511CCE
:10538000F801C080D180692D70E036FC02C06FEF5B
:105390007FEFC6010E94EA2A4C018201D5CFB701F6
:1053A00080E290E00E94F52A2A942814190409F05A
:1053B000B0F7CECFF60137FC859137FE81916F01B2
:1053C000B70190E00E94F52A51105A94F1E08F1A2B
:1053D0009108BFCF843619F0893609F077C0F801FB
:1053E00037FE6BC060817181828193810C5F1F4F9A
:1053F000F32DFF763F2E97FF09C09095809570950D
:1054000061957F4F8F4F9F4F689437F82AE030E0C7
:10541000A5010E94252BC82ECA188C2C432C36FEC1
:105420000CC0E89440F8C91440F434FE05C032FCC6
:1054300003C0F32DFE7E4F2E892C44FE95C0FE0145
:10544000EC0DF11D8081803309F087C0242D297E69
:10545000422E842D8870582E43FC95C040FE8FC08C
:105460009C2C821418F42C0C922C981844FE91C099
:10547000B70180E390E00E94F52A42FE09C088E768
:1054800090E041FE02C088E590E0B7010E94F52A55
:10549000C91408F48AC0CA94D12C9FEFC91AD90A3A
:1054A000CA0CDB1CF60182916F01B70190E00E94EB
:1054B000F52AAC14BD04B1F74FCF60817181072E7E
:1054C000000C880B990B0E5F1F4F92CFD32CE894E2
:1054D000D4F82AE030E0853739F1232D297FD22E08
:1054E0008F3601F148F48835A9F0F701868197815C
:1054F0002B96E2E10C949F2B803749F08837A9F76F
:10550000D4FE02C06894D2F820E130E00DC0689467
:10551000D4F8F6CF34FE03C0822F8660D82E20E167
:1055200032E002C028E030E0F801D7FE0FC0608111
:105530007181828193810C5F1F4FA5010E94252BF1
:10554000C82ECA183D2CE89437F867CF6081718166
:1055500090E080E00E5F1F4FF0CF42FC02C08394CA
:1055600078CF8394839475CF842D867809F471CF96
:10557000F6CFB70180E290E00E94F52A839482146E
:10558000C0F3512C73CF522C5818821408F46ECFEC
:10559000F8CF842D867809F47BCF8BE241FE80E240
:1055A00047FC8DE2B70190E071CFB70180E390E056
:1055B0000E94F52A9A946CCF8FEF9FEF99CFFC0150
:1055C0000590615070400110D8F7809590958E0F2E
:1055D0009F1F0895FC016150704001900110D8F7A1
:1055E000809590958E0F9F1F08950F931F93CF93D3
:1055F000DF93182F092FEB018B8181FD09C01FEF6D
:105600000FEF812F902FDF91CF911F910F91089570
:1056100082FF14C02E813F818C819D81281739071C
:105620003CF4E881F981CF01019699838883108346
:105630008E819F8101969F838E83E3CFE885F985D4
:10564000812F0995892BA1F3DACFFA01AA272830F7
:1056500051F1203181F1E8946F936E7F6E5F7F4F3F
:105660008F4F9F4FAF4FB1E03ED0B4E03CD0670FBB
:10567000781F891F9A1FA11D680F791F8A1F911D0E
:10568000A11D6A0F711D811D911DA11D20D009F45E
:1056900068943F912AE0269F11243019305D3193A0
:1056A000DEF6CF010895462F4770405D4193B3E089
:1056B0000FD0C9F7F6CF462F4F70405D4A3318F030
:1056C000495D31FD4052419302D0A9F7EACFB4E0E1
:1056D000A6959795879577956795BA95C9F7009799
:1056E0006105710508959B01AC010A2E069457953A
:1056F000479537952795BA95C9F7620F731F841F91
:10570000951FA01D08952F923F924F925F926F9226
:105710007F928F929F92AF92BF92CF92DF92EF9241
:10572000FF920F931F93CF93DF93CDB7DEB7CA1BC2
:10573000DB0B0FB6F894DEBF0FBECDBF09942A88ED
:10574000398848885F846E847D848C849B84AA8495
:10575000B984C884DF80EE80FD800C811B81AA8122
:10576000B981CE0FD11D0FB6F894DEBF0FBECDBFED
:10577000ED01089517E0C0E1D7E004C0FE010E94EA
:0E57800057252196C131D107C9F7F894FFCF04
:10578E00010000B2028000000000503C00D996A536
:10579E00D9FFFFAA00D42C0002DC0ADC0B55A508A9
:1057AE000CCF0A6410D10A01F50B820AF8109D0A7B
:1057BE00000000503199DC0C523132333435F00098
:1057CE001021D700000CD70000FFD4500102D604E0
:1057DE000502D6380202D4BA0001D68D0501D609CB
:1057EE000301D65B0304D65F0507D48D0007D719D6
:1057FE000004500050DA0400500050000000000079
:10580E0000DB093B096809480A990977098B090DDC
:10581E000A006E616E00696E66006F766600424C1D
:10582E003138787800424C253032582530325800C5
:10583E00253032642F253032642F323025303264D9
:10584E000043656C6C2025327520202020202020FE
:04585E00203A2000CC
:00000001FF
