:100000000C940D070C9435070C9435070C943507A8
:100010000C9435070C9435070C9435070C94350770
:100020000C9435070C9435070C9435070C94350760
:100030000C9435070C9435070C9435070C94350750
:100040000C94C0150C9435070C9430160C940A16B9
:100050000C9435070C9435070C9435070C94350730
:100060000C9435070C9435072D2D2D2D2D2D2D2D70
:100070002D2D2D2D2D2D2D2D2D2D2D2D2D2D2D2DB0
:100080002D2D2D2D2D2D2D2D2D2D2D2D2D2D2D2DA0
:100090002D2D2D2D2D2D2D2D2D0033322D34303D98
:1000A0006261640033322D34303D6F6B0031362D88
:1000B00033313D6261640031362D33313D6F6B0069
:1000C000302D31353D62616400302D31353D6F6B2F
:1000D00000202D20496E76616C6964204572726F34
:1000E0007220436F6465003135202D2044656164C2
:1000F0003F0035202D205761726E696E67003120F8
:100100002D204F7665726C6F616465640030202D20
:10011000204F4B00202020202020202020202020A5
:100120002020202020004672616D652020202020A4
:1001300020202020203A2000206D732900205449DF
:100140004D454F55542028002E00206D7329002066
:100150004F4B20280020205B4E6F20726573706F1C
:100160006E73655D202D2077616974696E6700206C
:100170006D7329002054494D454F55542028002EB9
:1001800000206D73290020280020205761697469C0
:100190006E67005374696C6C206E6F2070726573AB
:1001A000656E63652E2041626F7274696E67207799
:1001B000726974652E00202053746F72653A206E48
:1001C0006F2070726573656E63652E002020577214
:1001D0006974653A206E6F2070726573656E636531
:1001E0002E00202041726D3A206E6F207072657370
:1001F000656E63652E00202041726D20616C726512
:1002000061647920697373756564202D20706F7740
:1002100065722D6379636C652072657175697265AD
:10022000642E004E6F2070726573656E6365206585
:100230006E746572696E6720746573746D6F646542
:100240002E002E00202057616974696E6700206DB2
:10025000732900204F4B20280020205B4C6F636BDC
:100260005D20436865636B73756D73203A200020D1
:10027000205B4C6F636B5D204661696C7572652015
:10028000636F6465206E7962626C65203430203D56
:10029000200020205B4C6F636B5D204661696C65BC
:1002A0006420616674657220616C6C206174746591
:1002B0006D7074732E0020205B4C6F636B5D204E5D
:1002C0006F20726573706F6E73652E0020205B4C1B
:1002D0006F636B5D200020205B4C6F636B5D204182
:1002E0007474656D7074200020205B4C6F636B5DCF
:1002F000204641494C45442E0020205B4C6F636BE7
:100300005D2044454144204C4F434B45442E002042
:10031000205B4C6F636B5D20435243204C4F434B3B
:1003200045442E0020205B4C6F636B5D204261745E
:100330007465727920616C7265616479206861739B
:10034000206661696C75726520636F646520313564
:100350002E0020205B4C6F636B5D204261747465DE
:10036000727920697320616C7265616479204352EF
:1003700043204C4F434B45442E00756E737570708F
:100380006F727465642028352C20362C206F722003
:10039000756E6B6E6F776E292E0020205B4C6F633D
:1003A0006B5D20547970653A200020205B4C6F63B0
:1003B0006B5D205741524E494E473A20524F4D20D7
:1003C00049442072656164206661696C65643B2004
:1003D0007479706520646574656374696F6E206DEF
:1003E000617920626520756E72656C6961626C6509
:1003F0002E0020205B4C6F636B5D204552524F52A4
:100400003A204E6F2076616C6964206672616D657A
:100410002E0020205B4C6F636B5D205072652D7445
:100420007970652D302048433038202D20756E734B
:100430007570706F727465642E0057616974696EAF
:100440006720666F7220626174746572792E2E2E39
:10045000002020427269646765204750494F302D63
:100460004750494F3120666F722064656164206C8B
:100470006F636B2C204750494F302D4750494F3206
:1004800020666F7220435243206C6F636B2E0020F6
:1004900020277327203D2072657363616E207C20C6
:1004A0006175746F2D6465746563747320636F6E1A
:1004B0006E6563742F646973636F6E6E6563740039
:1004C00020204D616B697461204D6F6E69746F728D
:1004D000202D205363616E202F20556E6C6F636B4F
:1004E000204D6F646500202052656D6F7665206237
:1004F000726964676520746F20737769746368201C
:10050000746F207363616E2F756E6C6F636B206DFB
:100510006F64652E0020204750494F302D475049C9
:100520004F322062726964676564202D3E20435219
:1005300043204C4F434B204D4F44450020204D61FC
:100540006B69746120435243204C4F434B205574D8
:10055000696C697479202D2054797065732030207E
:100560002F2032202F2033206F6E6C7900202052F4
:10057000656D6F76652062726964676520746F20AF
:1005800073776974636820746F207363616E2F756D
:100590006E6C6F636B206D6F64652E00202047507A
:1005A000494F302D4750494F312062726964676569
:1005B00064202D3E2044454144204C4F434B204D68
:1005C0004F444520286E7962626C65203430203DAE
:1005D000203135290020204D616B6974612044452C
:1005E0004144204C4F434B205574696C6974792009
:1005F0002D2054797065732030202F2032202F2039
:1006000033206F6E6C7900312E352E30002020465D
:1006100069726D776172652076005741524E494E7E
:10062000473A20524F4D204944207265616420664C
:1006300061696C65643B207573696E672066616CE7
:100640006C6261636B2074797065206465746563A6
:1006500074696F6E2E00202F20370053746174650B
:10066000206F66206368617267653A200043656C9D
:100670006C20646966662020202020203A20002813
:100680006E6F2063656C6C73207265706F72746539
:100690006429005061636B20766F6C74616765201C
:1006A00020203A200020430054656D7020284D6FB3
:1006B000736665742920203A200020430054656D3C
:1006C00070202843656C6C73292020203A2000207C
:1006D00025004F7665726C6F6164202520202020F4
:1006E000203A20002025004F4420252020202020D3
:1006F0002020202020203A20002025004F766572FF
:100700006C6F6164202520202020203A20004F7645
:1007100065726C6F616420636E742020203A200043
:100720002025004F4420252020202020202020208C
:1007300020203A20004F44206576656E7473202097
:10074000202020203A2000202F203420202800487C
:1007500065616C74682020202020202020203A2011
:10076000004379636C6520636F756E7420202020D0
:100770003A20004641494C004F4B004641494C004D
:100780004F4B00417578204353756D2034382D361A
:1007900031203A20004641494C004F4B00417578CA
:1007A000204353756D2034342D3437203A200046D1
:1007B00041494C004F4B00436865636B73756D2076
:1007C00033322D3430203A20004641494C004F4B03
:1007D00000436865636B73756D2031362D333120AE
:1007E0003A20004E6F0059455300436865636B73B0
:1007F000756D20302D313520203A20004661696C1E
:1008000075726520636F64652020203A2000554E84
:100810004C4F434B4544004C4F434B4544004365CC
:100820006C6C206661696C7572652020203A20002E
:100830004C6F636B20737461747573202020203AB1
:100840002000204168004361706163697479202051
:1008500020202020203A200031302063656C6C205D
:10086000424C3336787800352063656C6C20424CFE
:100870003138787800342063656C6C20424C313418
:10088000787800762020280042617474657279209F
:10089000747970652020203A200044657465637483
:1008A0006564207479706520203A200028756E6197
:1008B0007661696C61626C6529004D6667206461D0
:1008C0007465202020202020203A2000524F4D2007
:1008D00049442020202020202020203A20004D6F55
:1008E00064656C202020202020202020203A200039
:1008F0002020436865636B73756D73203A20002078
:10090000204E6F20726573706F6E73652064757210
:10091000696E67207665726966792E002020002056
:1009200020526570616972206672616D65203A209F
:100930000042617474657279207374696C6C206C08
:100940006F636B65642E0042617474657279207305
:1009500075636365737366756C6C7920756E6C6F07
:10096000636B65642E0020202D3E204672616D650C
:1009700020726570616972206661696C65642E0021
:1009800020202D3E204672616D6520726570616980
:1009900072207375636365656465642E20554E4CE3
:1009A0004F434B45442E0020204672616D652072F6
:1009B00065706169722E2E2E0020202D3E2053740A
:1009C000696C6C206C6F636B65642E0020202D3E7B
:1009D00020554E4C4F434B454420627920444130D2
:1009E000342E002020436865636B73756D73203A65
:1009F000200020205374696C6C206E6F207072652B
:100A000073656E63652E20536B697070696E672E17
:100A1000002020444130342072657365742E2E2EE0
:100A2000002D2D2D20556E6C6F636B2061747465E5
:100A30006D7074200042617474657279204C4F436C
:100A40004B45442E204661696C75726520636F6466
:100A5000653A20002E20536B697070696E672E0016
:100A6000556E6C6F636B206E6F7420737570706F52
:100A70007274656420666F7220747970652000421C
:100A800061747465727920554E4C4F434B45442E2A
:100A900000436F6D706C6574652E005741524E496E
:100AA0004E473A20766F6C746167652072656164A9
:100AB000206661696C65643B2063656C6C206461D1
:100AC0007461206D6179206265206D697373696E50
:100AD000672E00426174746572792072656D6F765D
:100AE000656420647572696E67207363616E2E2081
:100AF00041626F7274696E672E0042617474657230
:100B00007920666F756E6420203A20002020202016
:100B10002020202020444F204E4F542063686172D3
:100B20006765206F6E20616E79206368617267650A
:100B3000722E002020202020202020204672656573
:100B40007363616C65204D433930384A4B3345201F
:100B5000424D53202D2D206E6F2063656C6C2070EC
:100B6000726F74656374696F6E2E005741524E49FF
:100B70004E473A205072652D747970652D302048AB
:100B800043303820626174746572792064657465DD
:100B90006374656421004552524F523A2042617499
:100BA00074657279206E6F7420726573706F6E64F5
:100BB000696E67206166746572207265747269651A
:100BC000732E2041626F7274696E672E002020526E
:100BD000656D6F7665206261747465727920616EEF
:100BE000642074727920616761696E2E0020204252
:100BF0006174746572792072656D6F7665642E20FC
:100C000057616974696E672E2E2E0020205B4C6F31
:100C1000636B5D20426174746572792072656D6FDB
:100C20007665642E2057616974696E6720666F72FD
:100C3000206E6578742E2E2E00202042617474651B
:100C40007279206465746563746564202D20737403
:100C5000617274696E67207363616E2E0020205B81
:100C60004C6F636B5D2042617474657279206465BA
:100C7000746563746564202D2064656164206C6F05
:100C8000636B696E672E2E2E0020205B4C6F636BAA
:100C90005D20426174746572792064657465637463
:100CA0006564202D20435243206C6F636B696E672F
:100CB0002E2E2E004D616E75616C2072657363611E
:100CC0006E207265717565737465642E0020204214
:100CD00072696467652072656D6F7665642E204960
:100CE0006E73657274206261747465727920746FBA
:100CF000207363616E2E0020204D6F646520636851
:100D0000616E676564202D3E205343414E202F20A5
:100D1000554E4C4F434B204D4F44450020204750EB
:100D2000494F302D4750494F3220627269646765E0
:100D3000642E20496E7365727420626174746572EA
:100D40007920746F206C6F636B2E0020204D6F64D0
:100D500065206368616E676564202D3E20435243C1
:100D6000204C4F434B204D4F4445002020475049D5
:100D70004F302D4750494F31206272696467656476
:100D80002E20496E73657274206261747465727985
:100D900020746F206C6F636B2E0020204D6F646594
:100DA000206368616E676564202D3E2044454144A0
:100DB000204C4F434B204D4F444500000000002481
:100DC0000027002A000000000800020100000304C0
:100DD00007000000000000000000000000250028BF
:100DE000002B00000000002300260029000404045A
:100DF00004040404040202020202020303030303C4
:100E000003010204081020408001020408102001A0
:100E10000204081020006216FE2411241FBECFEF2A
:100E2000D8E0DEBFCDBF11E0A0E0B1E0E0E8F7E53B
:100E300002C005900D92A43DB107D9F722E0A4EDC0
:100E4000B1E001C01D92A23BB207E1F717E0CCE090
:100E5000D7E004C02197FE010E945025CB30D10776
:100E6000C9F70E9431170C94B32B0C9400008091A9
:100E7000A002E091A102F091A202F8949181282FA2
:100E800020959223918378943DE743E050E03150E0
:100E900029F1DA011197F1F790819823C1F3F894C1
:100EA0009281922392839181982B91837894A3EBE2
:100EB000BBE01197F1F7F894918192239183A3E11C
:100EC000B1E01197F1F79081982381E009F080E07B
:100ED0007894E3E6F6E03197F1F7089580E008951D
:100EE000EF92FF920F931F93CF93DF9328E030E0B0
:100EF00080E041E0A3E2B0E09FECE92EF12C90917C
:100F0000A002E091A102F091A202F8945181592B24
:100F100051836281792F7095672362838D01ED0182
:100F20002197F1F7518157235183E8012197F1F778
:100F300050817894F7013197F1F7952309F0842BCC
:100F4000440F21503109D9F6DF91CF911F910F91B4
:100F5000FF90EF900895CF92DF92EF92FF920F9360
:100F60001F93CF93DF9328E030E041E06BE871E01E
:100F700093E7C92ED12CCBE2D0E00BED11E090919C
:100F8000A002E091A102F091A202F92EF094582F54
:100F9000542389F1F89452815F2152835181592B56
:100FA0005183DE011197F1F75281952B928378944A
:100FB000F8013197F1F7440F2150310901F7F89406
:100FC000E091A102F091A20291818091A00280950E
:100FD00098239183E091A102F091A202928189234A
:100FE00082837894DF91CF911F910F91FF90EF90C2
:100FF000DF90CF900895F89452815F215283518100
:10100000592B5183DB011197F1F75281952B928374
:101010007894F601CECF833081F028F4813099F0B6
:101020008230A9F008958730A9F08830C9F0843063
:10103000B1F4809180008F7D03C0809180008F7714
:1010400080938000089584B58F7784BD089584B51A
:101050008F7DFBCF8091B0008F778093B000089593
:101060008091B0008F7DF9CFCF93DF93282F30E0B0
:10107000F901EB53F24F8491F901EF5FF14FD491F5
:10108000F901E351F24FC491CC23A1F081110E94E8
:101090000B08EC2FF0E0EE0FFF1FED51F24FA59182
:1010A000B491EC91ED2381E090E009F480E0DF91D0
:1010B000CF91089580E090E0FACF1F93CF93DF9314
:1010C000282F30E0F901EB53F24F8491F901EF5FE3
:1010D000F14FD491F901E351F24FC491CC23A9F01F
:1010E000162F81110E940B08EC2FF0E0EE0FFF1F6E
:1010F000E752F24FA591B4918FB7F894EC9111118A
:1011000008C0D095DE23DC938FBFDF91CF911F9174
:101110000895DE2BF8CFCF93DF9390E0FC01EF5FD3
:10112000F14F24918351924FFC0184918823C9F09F
:1011300090E0880F991FFC01E554F24FA591B491FE
:10114000FC01E752F24FC591D49161110DC09FB7D8
:10115000F8948C91209582238C938881282328836E
:101160009FBFDF91CF910895623051F49FB7F894FB
:101170003C91822F809583238C93E8812E2BEFCF97
:101180008FB7F894EC912E2B2C938FBFEACF3FB7FB
:10119000F8948091E8019091E901A091EA01B09161
:1011A000EB0126B5A89B05C02F3F19F00196A11DA4
:1011B000B11D3FBFBA2FA92F982F8827BC01CD01A1
:1011C000620F711D811D911D42E0660F771F881F00
:1011D000991F4A95D1F708958F929F92AF92BF922F
:1011E000CF92DF92EF92FF926B017C010E94C708C1
:1011F0004B015C01C114D104E104F104B9F00E9477
:10120000C708681979098A099B09683E73408105F6
:10121000910580F321E0C21AD108E108F10888EEB7
:10122000880E83E0981EA11CB11CE4CFFF90EF90C4
:10123000DF90CF90BF90AF909F908F9008952FB781
:10124000F8946091E4017091E5018091E60190913C
:10125000E7012FBF0895262F2695820F911DFC01CF
:10126000808160FD02C08F7008958295FCCFAF929F
:10127000BF92CF92DF92EF92FF920F931F93CF9383
:10128000DF936C017B018B01040F151FEB015E01E5
:10129000AE18BF08C017D10759F06991D601ED917A
:1012A000FC910190F081E02DC6010995892B79F719
:1012B000C501DF91CF911F910F91FF90EF90DF90CB
:1012C000CF90BF90AF900895FC01538D448D252F92
:1012D00030E0842F90E0821B930B541710F0CF96D0
:1012E000089501970895FC01918D828D981761F002
:1012F000A28DAE0FBF2FB11D5D968C91928D9F5F19
:101300009F73928F90E008958FEF9FEF0895FC01F7
:10131000918D828D981731F0828DE80FF11D858DAA
:1013200090E008958FEF9FEF0895FC01918D228D3D
:10133000892F90E0805C9F4F821B91098F739927C2
:1013400008958DEE91E00E94950921E0892B09F422
:1013500020E0822F089580E090E0892B29F00E9400
:10136000A10981110C9400000895FC01A48DA80F1F
:10137000B92FB11DA35ABF4F2C91848D90E00196D7
:101380008F739927848FA689B7892C93A089B189F7
:101390008C91837080648C93938D848D981306C098
:1013A0000288F389E02D80818F7D80830895EF92FC
:1013B000FF920F931F93CF93DF93EC0181E0888F0F
:1013C0009B8D8C8D98131AC0E889F989808185FFDF
:1013D00015C09FB7F894EE89FF896083E889F98981
:1013E00080818370806480839FBF81E090E0DF9183
:1013F000CF911F910F91FF90EF900895F62E0B8DD6
:1014000010E00F5F1F4F0F731127E02E8C8D8E1190
:101410000CC00FB607FCFACFE889F989808185FFF7
:10142000F5CFCE010E94B509F1CFEB8DEC0FFD2F6A
:10143000F11DE35AFF4FF0829FB7F8940B8FEA89B2
:10144000FB8980818062CFCF0F931F93CF93DF936F
:101450008C01D0E0C0E0F801EC0FFD1F6491662321
:1014600041F08DEE91E00E94D709892B11F0219671
:10147000F2CFCE01DF91CF911F910F910895682F88
:101480008DEE91E00C94D709CF93DF93EC01888D1A
:101490008823B9F0AA89BB89E889F9898C9185FDEF
:1014A00003C0808186FD0DC00FB607FCF7CF8C917D
:1014B00085FFF2CF808185FFEDCFCE010E94B50977
:1014C000E9CFDF91CF910895FF920F931F93CF93B0
:1014D000DF938C01C62FF42ED0E0FC1638F06C2F71
:1014E000C8010E942B09D80FCF5FF7CF8D2F8F70C7
:1014F000DF91CF911F910F91FF9008951F93CF938C
:10150000DF93EC0168E20E942B098F3061F46BE2FB
:10151000CE010E942B09182F48E260E2CE010E9402
:10152000640A91E0181390E0892FDF91CF911F9109
:1015300008950C947E0A1F93CF93DF93EC014FE044
:1015400060E00E94640A182F69E2CE010E942B0914
:1015500018131FC04FE160E1CE010E94640A182FEA
:101560006AE2CE010E942B09181313C048E260E220
:10157000CE010E94640A182F6BE2CE010E942B0953
:1015800091E0181301C090E0892FDF91CF911F9156
:10159000089591E0F9CF0C949B0A0C949B0AAF92AA
:1015A000BF92CF92DF92EF92FF920F931F93CF9350
:1015B000DF938C01EB018A898D3008F462C08E3193
:1015C00008F461C08AE08AAB6B8970E090E080E04B
:1015D0000E94722620E030E040E251E40E94C825DB
:1015E0006BAB7CAB8DAB9EAB4FE060E0C8010E9463
:1015F000640AA82EBA8C81E0AB1080E088AF4FE17E
:1016000060E1C8010E94640AC82EDB8C81E0CD1025
:1016100080E089AF48E260E2C8010E94640AE82ED7
:10162000FC8C81E0EF1080E08AAF4FE26CE2C801F1
:101630000E94640A91E02D8D281390E09BAF4DE34A
:1016400060E3C8010E94640A91E02E8D281390E0A7
:101650009CAFAB101AC0CD1018C0EF1016C0F80127
:1016600094899F7081E009F480E08FABDF91CF9186
:101670001F910F91FF90EF90DF90CF90BF90AF90B0
:10168000089584E0A0CF85E09ECF81E0EECF0F9358
:101690001F93CF93DF938C01D42F0E942B09C82F67
:1016A0006D2FC8010E942B0990E1C99FE001112410
:1016B0008C2BDF91CF911F910F910895CF92DF92E4
:1016C000EF92FF920F931F93CF93DF93EC018B0167
:1016D00047E166E10E94470BF801808341E260E246
:1016E000CE010E94470BF801818368E2CE010E947F
:1016F0002B09F801828341E360E3CE010E94470B8E
:10170000F801838343E362E3CE010E94470BF801B3
:1017100084836CE2CE010E942B0982FB882780F92A
:10172000F801878364E3CE010E942B09D82E65E37C
:10173000CE010E942B09C82E66E3CE010E942B0920
:10174000F0E18F9F70011124FC2867E3CE010E9415
:101750002B092D2D30E0322F22273295307F222782
:101760003071E82A2E293F29F8013683258369E262
:10177000CE010E942B09F80180876AE2CE010E9407
:101780002B09F80181876BE2CE010E942B09F80139
:1017900082876EE3CE010E942B09F80183876FE3F5
:1017A000CE010E942B09F8018487DF91CF911F9110
:1017B0000F91FF90EF90DF90CF9008954F70E62F3C
:1017C000E695E80FF92FF11D908160FD04C0907F30
:1017D000942B908308959F7080E1489FA00111246D
:1017E000F7CFCF93DF93EC014FE068E20E94DE0B6E
:1017F00048E260E2CE010E94640A482F6BE2CE010B
:10180000DF91CF910C94DE0BEF92FF920F931F9319
:10181000CF93DF93EC01E62E4FE060E00E94640A74
:10182000082F4FE160E1CE010E94640A182F48E2C0
:1018300060E2CE010E94640A8E0D8F70F82E402F58
:101840004E0D4F7069E2CE010E94DE0B412F4E0D0E
:101850004F706AE2CE010E94DE0B4F2D68E2CE018E
:101860000E94DE0B4F2D6BE2CE01DF91CF911F91D5
:101870000F91FF90EF900C94DE0B60E088E00C94E9
:101880005D0881E00E943408892B41F082E00E94CB
:101890003408892B31F090E080E0089581E090E0F9
:1018A000089582E090E00895CF92DF92EF92FF9248
:1018B0000F931F93CF93DF93CDB7DEB729970FB662
:1018C000F894DEBF0FBECDBF282F80918C0290917F
:1018D0008D02892B09F449C0872F90E0B0E0A0E089
:1018E000BA2FA92F982F8827A62B822BAD01662708
:1018F0007727C92EDA2EEB2EFF241C2D382F2091AE
:101900009202222391F0022F10E0049FF001059F24
:10191000F00D149FF00D11244F2F2C9D6001112408
:101920001D2D289FC0011124392FE091980280912C
:1019300093029091940220919502E21721F0E80F12
:10194000F92FF11D1082E0919502E80FF92FF11D9A
:101950004083E0919602E80FF92FF11D108320914A
:101960009702820F911DFC01308380919302909128
:101970009402892B09F47CC00E94C7080091990247
:1019800010919A0220919B0230919C02601771077E
:101990008207930740F46093990270939A028093B0
:1019A0009B0290939C020091990210919A022091BF
:1019B0009B0230919C02601B710B820B930B6C326B
:1019C000714081059105C0F2F89480918E0290914A
:1019D0008F029A838983E0919302F0919402DF0150
:1019E00011968081898790918A02E0919D02F09101
:1019F0009E0280919F02992309F449C09081982BFF
:101A000098879081809589238F838F818C8388E04C
:101A10008B8358856F8149853B812C8189819A818F
:101A2000508347FD252F3A952083262F39F0441FF8
:101A300000C000006083000000C0F2CF38E04D918C
:101A400060830000019761F7F0939E02E0939D028E
:101A500049873B832C839A83898378940E94C708A3
:101A60006093990270939A0280939B0290939C02D8
:101A700029960FB6F894DEBF0FBECDBFDF91CF9190
:101A80001F910F91FF90EF90DF90CF90089590817C
:101A9000982B98879081809589238F838F818E835F
:101AA00088E08D8358856F8149853D812E818981AC
:101AB0009A81508347FD252F00C000C0208300C0BD
:101AC00000C000C000C000C060830000262F3A950F
:101AD00041F0441F000000C000C000C000C000C0B2
:101AE000E8CF38E04D9100C0608300C0019709F74E
:101AF000F0939E02E0939D0249873D832E83ABCFF6
:101B000060910A0170910B0180910C010C94540CAE
:101B10006091070170910801809109010C94540CA7
:101B2000CF92DF92EF92FF926B017C0185EFC81696
:101B300081E0D806E104F10468F064EF71E080E030
:101B400090E00E94EC0884EFC81A81E0D80AE1080E
:101B5000F108ECCFC701B601FF90EF90DF90CF9076
:101B60000C94EC0861E088E00E945D0866E970E092
:101B700080E090E00C94900D8F929F92BF92CF9254
:101B8000DF92EF92FF920F931F93CF93DF93F82E84
:101B9000C62FD42EC52EB22E81110E94B20D0E94E6
:101BA0003707811111C0F1100E943D0C81E090E0D7
:101BB000DF91CF911F910F91FF90EF90DF90CF9029
:101BC000BF909F908F9008958C2F0E94AB07C333D6
:101BD00089F4E801085F1F4F23E6822E992493942D
:101BE000C4010197F1F70E9470078993C017D107CC
:101BF000B9F78E019D2CCD2DDC2D93E6C92EDD2469
:101C0000D394C6010197F1F789910E94AB078C2FFD
:101C100089198B15B0F38BE891E00197F1F7E80192
:101C20000E0D111D83E6C82EDD24D394C017D107F5
:101C300039F0C6010197F1F70E9470078993F6CF3A
:101C4000F1100E943D0C90E080E0B2CFEF920F9334
:101C50001F93CF93DF93CDB7DEB728970FB6F894D5
:101C6000DEBF0FBECDBF262F8E010F5F1F4F38E0A6
:101C7000F80111923A95E9F7E12CAC0163E381E0B8
:101C80000E94BC0D28960FB6F894DEBF0FBECDBFE4
:101C9000DF91CF911F910F91EF900895EF920F93E5
:101CA0001F93E22E8A01262FAC016CEC81E00E948A
:101CB000BC0D1F910F91EF9008950F931F93CF9339
:101CC0008B01C42F242FAB0164E00E944E0E892BA0
:101CD00041F4F801EC0FF11D319781E090819630CD
:101CE00009F080E0CF911F910F910895CF93DF937A
:101CF000D82FC92F20E2482F592F62E083E191E0CD
:101D00000E944E0E892BB1F4ED2FFC2FAF01405EE7
:101D10005F4F8FEF90E02191922B8223E417F5071C
:101D2000D1F7992339F08F3F41F081E090E0DF91C6
:101D3000CF91089590E080E0FACF8FEF9FEFF7CF3B
:101D40000E943D0C1092EC0164E670E080E090E0AF
:101D50000E94900D0C94B20DBF92CF92DF92EF9241
:101D6000FF920F931F93CF93DF93EC01B62E6A017E
:101D7000F22E61E088E00E945D08209729F0BE0104
:101D800090E080E00E94900D0E94370781110FC003
:101D900060E088E00E945D0880E0DF91CF911F91B4
:101DA0000F91FF90EF90DF90CF90BF9008958BE858
:101DB00096E00197F1F7BB2039F08CEC0E94AB075D
:101DC00083E691E00197F1F7F60180810E94AB076D
:101DD000C3E6D1E0CE010197F1F7F1E0FF1631F053
:101DE000F60181810E94AB072197F1F7E801E00E2F
:101DF000F12EF11C03E611E0EC16FD0639F00E940D
:101E000070078993C8010197F1F7F6CF60E088E089
:101E10000E945D0881E0C1CFEF920F931F93E22EE5
:101E20008A01262FAC0161E084EA91E00E94AC0EA9
:101E30001F910F91EF900895CF93DF931F92CDB72D
:101E4000DEB78091D401882391F0198221E0AE01A0
:101E50004F5F5F4F63E080E191E00E944E0E109271
:101E6000D4016EE170E080E090E00E94900D0F9050
:101E7000DF91CF9108950F931F93CF93DF931F921C
:101E8000CDB7DEB7198221E0AE014F5F5F4F63E04F
:101E90008DE091E00E944E0E8C01892B49F481E087
:101EA0008093D4016EE170E080E090E00E94900D9C
:101EB000C8010F90DF91CF911F910F910895CF929C
:101EC000DF92EF92FF921F93CF93DF93CDB7DEB7F0
:101ED000A2970FB6F894DEBF0FBECDBFFC01838181
:101EE000843628F485E0442349F08FEF07C0FB01D6
:101EF00081898E3189F486E04111F7CFA2960FB621
:101F0000F894DEBF0FBECDBFDF91CF911F91FF9040
:101F1000EF90DF90CF900895142FAE014E5E5F4F8B
:101F200081E1FA0111928A95E9F721E162E08BE102
:101F300091E00E944E0E892B29F48AA1863011F47B
:101F400080E0DCCF0E943B0F9E012F5F3F4F790165
:101F5000892BC1F481E1F90111928A95E9F721E118
:101F6000A70162E089E191E00E944E0E6C010E949F
:101F70001C0F0E94A00ECD2829F48989863011F407
:101F800082E0BCCF19821A821B8223E0A70164E0A1
:101F900085E191E00E944E0E892B19F48B818630E9
:101FA00019F0812F8195AACF83E0A8CFCF9361E06C
:101FB00088E00E945D0866E970E080E090E00E94A1
:101FC000900D0E943707C82F60E088E00E945D08EE
:101FD00081E0C13009F080E0CF910895CF92DF9287
:101FE000EF92CF936B01E82E1092D501C3E08E2DB6
:101FF000B6010E94540C68EC70E080E090E00E9412
:10200000900D0E94880D64E670E080E090E00E94F0
:10201000900DC15061F78E2DB601CF91EF90DF90FA
:10202000CF900C94540C882339F09EEF980F81E0E8
:10203000923018F080E0089581E00895FC0101904D
:102040000020E9F73197AF01481B590BBC018DEE19
:1020500091E00C9437098FE891E00C941E10CF9317
:10206000DF930E94240AEC010E942B108C0F9D1F0D
:10207000DF91CF910895CF93DF93D62FC42F811195
:102080001CC080EC90E00E94240A80E20E943F0A7B
:102090008DEA90E0DD2311F087EB90E00E94240AA6
:1020A00080E20E943F0A8AE990E0CC2311F084EAA2
:1020B00090E0DF91CF910C942F1089EC90E0E3CF6A
:1020C000FF920F931F93CF93DF93EC0189E592E08A
:1020D0000E94240A48E260E2CE010E94640A182F9E
:1020E0006BE2CE010E942B0901E0181300E04FE1E2
:1020F00060E1CE010E94640AF82E6AE2CE010E94DD
:102100002B0911E0F81210E04FE060E0CE010E94D0
:10211000640AF82E69E2CE010E942B0991E0F812C0
:1021200090E0402F612F892FDF91CF911F910F9168
:10213000FF900C943B1088E690E00C942F108F9247
:102140009F92AF92BF920F931F93CF93DF93CDB720
:10215000DEB7A1970FB6F894DEBF0FBECDBF19A2B0
:10216000423008F44AE08E010F5D1F4F842E912CFF
:10217000B12CA12CA50194010E942E25E62FB901B6
:10218000CA01EA30F4F4E05DD801EE938D01232B0F
:10219000242B252B79F790E080E0109719F0CD01E2
:1021A0000E941E10A1960FB6F894DEBF0FBECDBFE1
:1021B000DF91CF911F910F91BF90AF909F908F9023
:1021C0000895E95CE1CFCF93DF93682F70E090E052
:1021D00080E04AE00E949F10EC010E942B108C0FBF
:1021E0009D1FDF91CF910895CF93DF93EC018FE690
:1021F00092E00E94240A68E2CE010E942B09DF913E
:10220000CF910C94E310CF92DF92EF92FF92CF9395
:10221000DF936C01092E000CEE08FF0897FF1BC02E
:102220008DE20E943F0AEC0166277727CB016C19EB
:102230007D098E099F094AE00E949F10C80FD91F8F
:102240000E942B108C0F9D1FDF91CF91FF90EF907C
:10225000DF90CF9008954AE0C701B6010E949F1019
:10226000EC01EECFCF92DF92EF92FF92CF93DF930C
:10227000EC0189E891E00E94240A0E941F096B0189
:102280007C010E941F096C197D098E099F0960312C
:1022900077428105910558F5CE010E94760E01978F
:1022A000F9F40E941F099B01AC012C193D094E094C
:1022B0005F0969017A0186E891E00E94240A4AE0F8
:1022C000C701B6010E949F1081E891E00E942F1083
:1022D00081E0DF91CF91FF90EF90DF90CF90089554
:1022E0008FE791E00E94240A0E94A00ECACF84E7E3
:1022F00091E00E94240A4AE060E177E280E090E009
:102300000E949F108FE691E00E942F1080E0E1CFA5
:10231000CF92DF92EF92FF9285E591E00E94240A2E
:102320000E941F096B017C010E941F096C197D0925
:102330008E099F09603177428105910540F50E9421
:10234000A00E0E9437078130E9F40E941F099B010B
:10235000AC012C193D094E095F0969017A018FE42E
:1023600091E00E94240A4AE0C701B6010E949F1032
:102370008AE491E00E942F1081E0FF90EF90DF90BF
:10238000CF90089588E491E00E94240ACDCF8DE398
:1023900091E00E94240A4AE060E177E280E090E068
:1023A0000E949F1088E391E00E942F1080E0E5CF0B
:1023B0008F929F92AF92BF92CF92DF92EF92FF9255
:1023C0000F931F93CF937C010E941F094B015C0167
:1023D000C0E00E941F09681979098A099B096031C8
:1023E000774281059105C0F5C7010E94760E8C01E8
:1023F000892B21F1CC23A9F00E941F096B017C01DC
:10240000C818D908EA08FB0883E592E00E94240A6C
:102410004AE0C701B6010E949F108EE492E00E943C
:102420002F10C801CF911F910F91FF90EF90DF9077
:10243000CF90BF90AF909F908F900895C11104C02E
:1024400084E492E00E94240A82E492E00E94240A3A
:102450000E94A00EC1E0BDCFC1110E942B100E94AE
:10246000881110E000E08823E1F2C701CF911F91AD
:102470000F91FF90EF90DF90CF90BF90AF909F9023
:102480008F900C94760E0F931F93CF93DF93D82FDA
:10249000C92FCB01009711F486E291E00E94240A33
:1024A0000D2F1C2FC0E0DBE0F80181918F018031FE
:1024B00018F480E30E943F0AF8013197608170E0D0
:1024C00090E080E040E10E949F10CF3119F080E25F
:1024D0000E943F0ACF5FC03231F4DF91CF911F914C
:1024E0000F910C942B108C2F6D2F0E940E259111A3
:1024F000DBCF0E942B1084E191E00E94240AD4CF0C
:10250000813099F070F0853099F08F30A1F0682F0C
:1025100070E090E080E04AE00E949F1081ED90E042
:1025200002C08DE091E00C942F108EEF90E0FBCF75
:1025300082EF90E0F8CF87EE90E0F5CF4F925F9278
:102540006F927F928F929F92AF92BF92CF92DF92C3
:10255000EF92FF920F931F93CF936B017C01742E28
:10256000AC019B010E949427882399F082E991E0B5
:10257000CF911F910F91FF90EF90DF90CF90BF9080
:10258000AF909F908F907F906F905F904F900C9442
:102590001E1046015701E894B7F82FEF3FEF4FE7C1
:1025A0005FE7C501B4010E94942781110DC02FEF90
:1025B0003FEF4FE75FE7C501B4010E94C32518163E
:1025C0001CF486E991E0D4CF2FEF3FEF4FE75FE4B3
:1025D000C701B6010E94222718161CF48AE991E06F
:1025E000C7CF2FEF3FEF4FE75FECC701B6010E9467
:1025F000C32587FDF3CF20E030E0A901C701B60174
:102600000E94C32510E000E087FF08C08DE20E9411
:102610003F0A8C01F7FAF094F7F8F094C0E060E01C
:1026200070E080E09FE37C1641F020E030E040E283
:1026300051E40E94C825CF5FF6CFA70196010E9402
:1026400057252B013C010E9441264B015C014AE0C9
:102650000E949F107C01E00EF11ECC23B1F1C50158
:10266000B4010E9470269B01AC01C301B2010E941B
:1026700056254B015C018EE20E943F0AE80EF91ECE
:10268000C15018F120E030E040E251E4C501B4014E
:102690000E9427272B013C010E9441264B01B12CAF
:1026A000A12C4AE0C501B4010E949F10E80EF91E5A
:1026B000C501B4010E9470269B01AC01C301B201A7
:1026C0000E9456254B015C01DBCFC701CF911F91C2
:1026D0000F91FF90EF90DF90CF90BF90AF909F90C1
:1026E0008F907F906F905F904F900895CF93DF937E
:1026F00043E00E949E12EC010E942B108C0F9D1F44
:10270000DF91CF910895CF93DF93D0E0C0E00097A1
:1027100019F00E941E10EC010E942B108C0F9D1FBF
:10272000DF91CF9108958F929F92AF92BF92CF92F7
:10273000DF92EF92FF920F931F93CF93DF93CDB76A
:10274000DEB7A8970FB6F894DEBF0FBECDBF4B0122
:102750005A01F22E9E012F5F3F4F690128E2F601D8
:1027600011922A95E9F7EF2C860122E0AC0163E390
:1027700081E00E94BC0D8C01892B79F488E0F60180
:10278000D40101900D928A95E1F74F2D50E0BE01E2
:10279000675F7F4FC5010E94BE28C801A8960FB68B
:1027A000F894DEBF0FBECDBFDF91CF911F910F9187
:1027B000FF90EF90DF90CF90BF90AF909F908F9061
:1027C00008950F931F93CF93DF93CDB7DEB7A097F4
:1027D0000FB6F894DEBF0FBECDBF8C01AE014F5FC8
:1027E0005F4F80E2FA0111928A95E9F720E2B80181
:1027F00083E191E00E949313892B89F088E0F8012E
:1028000011928A95E9F780E0A0960FB6F894DEBFA2
:102810000FBECDBFDF91CF911F910F91089581E041
:10282000F3CFEF92FF920F931F93CF93DF93CDB728
:10283000DEB7A2970FB6F894DEBF0FBECDBF7C0106
:102840008B010E943B0F892BC9F0C8010E94240A0A
:1028500083E292E00E942F100E948811882309F4DD
:1028600064C00E943B0F892B49F0C8010E94240AD2
:1028700083E991E00E942F1080E057C08091EC0125
:10288000882349F086EF91E00E942F100E941C0FD0
:102890000E94A00EF1CF8E010F5F1F4F80E2F80162
:1028A00011928A95E9F720E2A80162E08EE391E0B7
:1028B0000E944E0E892B19F082EE91E0E5CF81E067
:1028C0008093EC016EE170E080E090E00E94900D5A
:1028D0008FE089831A8280E2F701DE01139601906E
:1028E0000D928A95E1F762E2C8010E94260E892BBB
:1028F00019F08CEC91E0C8CF6EE170E080E090E0E0
:102900000E94900D62E08DE191E00E94260E892BDD
:1029100019F086EB91E0B8CF6EE170E080E090E0D6
:102920000E94900D0E941C0F81E0A2960FB6F894B1
:10293000DEBF0FBECDBFDF91CF911F910F91FF90F2
:10294000EF9008956F927F928F92CF92DF92EF92E5
:10295000FF920F931F93CF93DF93CDB7DEB7C85489
:10296000D1090FB6F894DEBF0FBECDBF7C018091B8
:10297000D40181110E941C0F0E94A00E60913101B0
:1029800070913201809133010E94540C8E010F5BD3
:102990001F4F88E0D8011D928A95E9F7C8010E946F
:1029A000E113882E6E01B1E2CB0ED11C80E2F6015C
:1029B00011928A95E9F7C6010E94D81181309105DC
:1029C00061F1019639F482E194E00E942F100E9497
:1029D000800D0CC082EF93E00E942F1060917A016D
:1029E00070917B0180917C010E94EE0F0E943D0C52
:1029F00010E0812FC85BDF4F0FB6F894DEBF0FBE2B
:102A0000CDBFDF91CF911F910F91FF90EF90DF909D
:102A1000CF908F907F906F900895811004C08AEAC4
:102A200093E00E942F1041E0B601C8010E945F0FA1
:102A3000182F8AE993E00E94240A17FF03C08AE74F
:102A400093E0C3CF812F110F990B0E940311D7017F
:102A50001696ED91FC91C6010995182F8823B1F0C7
:102A6000F701808581110FC084E293E00E942F104E
:102A700060917A0170917B0180917C010E94EE0F40
:102A80000E943D0CB6CF82E593E0F0CF80E2F601E4
:102A9000DE01119601900D928A95E1F701E06090B8
:102AA0007201709073018090740186ED92E00E9433
:102AB000240A802F0E94E310D701ED91FC91602F32
:102AC000CE0101960995882DB3010E94540C6CEC3F
:102AD00072E0CE0101960E941114182F8823C9F1CB
:102AE0000E94A00ECE0101960E943211811110C0E9
:102AF00086EB92E00E942F100E949B1088EE92E0DD
:102B00000E942F100E949B1010E0EAE7F1E031C014
:102B1000D7011496ED91FC91CE0101960995D7014C
:102B20001296ED91FC91CE0101960995182F811115
:102B300010C080E2FE01B196DE01119601900D9267
:102B40008A95E1F70F5F073009F0AFCF82E992E095
:102B5000D1CF0E949B10112389F2F701808581114A
:102B60000CC089EF92E00E942F100E949B10E7E7B3
:102B7000F1E060817181828181CF8FE093E0F3CFBA
:102B80001F920F920FB60F9211242F933F938F93A2
:102B90009F93AF93BF938091E4019091E501A09141
:102BA000E601B091E7013091E30123E0230F2D37D7
:102BB00058F50196A11DB11D2093E3018093E40116
:102BC0009093E501A093E601B093E7018091E801BD
:102BD0009091E901A091EA01B091EB010196A11D4C
:102BE000B11D8093E8019093E901A093EA01B093AD
:102BF000EB01BF91AF919F918F913F912F910F90DA
:102C00000FBE0F901F90189526E8230F0296A11D66
:102C1000B11DD2CF1F920F920FB60F9211242F9396
:102C20003F934F935F936F937F938F939F93AF9354
:102C3000BF93EF93FF938DEE91E00E94B509FF9152
:102C4000EF91BF91AF919F918F917F916F915F9124
:102C50004F913F912F910F900FBE0F901F9018959D
:102C60001F920F920FB60F9211242F938F939F9361
:102C7000EF93FF93E091FD01F091FE018081E091DF
:102C80000302F091040282FD1BC090818091060234
:102C90008F5F8F7320910702821741F0E091060247
:102CA000F0E0E351FE4F958F80930602FF91EF9184
:102CB0009F918F912F910F900FBE0F901F9018959D
:102CC0008081F4CF1092F0011092EF0188EE93E032
:102CD000A0E0B0E08093F1019093F201A093F301A2
:102CE000B093F40181E891E09093EE018093ED01BF
:102CF00085EC90E09093FA018093F90184EC90E0E8
:102D00009093FC018093FB0180EC90E09093FE0196
:102D10008093FD0181EC90E0909300028093FF018D
:102D200082EC90E0909302028093010286EC90E0A6
:102D300090930402809303021092060210920702FD
:102D4000109208021092090260E086E00E948B084F
:102D5000E7E0FEE0E491E093A002E3EFFDE0E49120
:102D6000F0E0EE0FFF1FED51F24F8591949190939B
:102D7000A2028093A1021092AB021092AD021092B7
:102D8000AC021092AA021092A9021092A80210920C
:102D9000A7021092A6021092A5021092A40210920D
:102DA000A30210928B02109292021092990210923A
:102DB0009A0210929B0210929C0281E080939802EA
:102DC000809395021092960292E0909397028093DE
:102DD0008A0283E090E090938F0280938E020E949B
:102DE00099279093940280939302009789F123E0AE
:102DF000FC0111922A95E9F781E090E090938D0211
:102E000080938C0280E190E09093910280939002F5
:102E100080918B02882341F061E080E10E948B0861
:102E200060E080E10E945D08EDEFFDE0E491F0E0FC
:102E3000EE0FFF1FE752F24F8591949190939E02FF
:102E400080939D02E1E1FEE0E491E0939F0208950A
:102E500010928F0210928E0210928D0210928C02AC
:102E6000D1CFCF93DF93CDB7DEB7C65FD1090FB611
:102E7000F894DEBF0FBECDBF789484B5826084BD68
:102E800084B5816084BD85B5826085BD85B581606E
:102E900085BD80916E00816080936E0010928100EC
:102EA00080918100826080938100809181008160A7
:102EB0008093810080918000816080938000809168
:102EC000B10084608093B1008091B00081608093F4
:102ED000B00080917A00846080937A0080917A00BB
:102EE000826080937A0080917A00816080937A007A
:102EF00080917A00806880937A001092C100E091FE
:102F0000FD01F091FE0182E08083E091F901F091F2
:102F1000FA011082E091FB01F091FC0180E18083D5
:102F200010920502E0910102F091020286E0808396
:102F3000E091FF01F0910002808180618083E09147
:102F4000FF01F0910002808188608083E091FF01A1
:102F5000F0910002808180688083E091FF01F09110
:102F6000000280818F7D808361E088E00E948B0871
:102F700060E088E00E945D0861E080E00E948B08CC
:102F800060E080E00E945D0862E081E00E948B08C2
:102F900062E082E00E948B086EEE72E080E090E0DA
:102FA0000E94EC08809190029091910297FD2EC0B2
:102FB00061E00E948B0860E0809190020E945D08B1
:102FC00081E080938B0260919202613541F1209102
:102FD0009302309194026150E1F070E08FEF90E540
:102FE0000E941A25F90140918E0250918F02CF0163
:102FF000821B930B8417950778F44081469FC0018C
:10300000479F900D112490833196EDCF10928B0243
:10301000DACF70E060E0E6CF81E5809392020E9413
:10302000880D0E949B108DE096E00E94240A87E0A4
:1030300096E00E942F100E94410C8C018130910576
:1030400071F0029709F45EC180EC94E00E942F10A9
:103050008FE894E00E942F1081E594E00AC085ED8E
:1030600095E00E942F108CE995E00E942F108DE6CC
:1030700095E00E942F100E949B108AE394E00E942A
:103080002F101092DB011092DA011093E2010093ED
:10309000E101209131013091320140913301C95158
:1030A000DF4F288339834A83C75ED0408091720105
:1030B00090917301A0917401C651DF4F8883998369
:1030C000AA83CA5ED04090917701CF51DF4F988399
:1030D000C15ED040A0917801CE51DF4FA883C25E7F
:1030E000D040B0917901CD51DF4FB883C35ED0405D
:1030F000E0917A01CC51DF4FE883C45ED040F0917B
:103100007B01CB51DF4FF883C55ED04020917C011D
:10311000CA51DF4F2883C65ED040CF50DF4FE883CF
:10312000C15FD040CE50DF4FF883C25FD040CD505A
:10313000DF4F2883C35FD040CC50DF4F9883C45FFC
:10314000D040CB50DF4FA883C55FD040CA50DF4F7F
:10315000B883C65FD040AE01425C5F4FC752DF4FBD
:1031600059834883C95DD040CE018B569F4FC552CD
:10317000DF4F99838883CB5DD0401E0195E7290EF0
:10318000311CD1015496C351DF4FB983A883CD5E62
:10319000D040FA013796C151DF4FF983E883CF5E03
:1031A000D0400E941F094B015C010091E101109188
:1031B000E2018091DD019091DE01A091DF01B091EB
:1031C000E001A5019401281B390B4A0B5B0BDA01C6
:1031D000C901C297A105B105A8F0C090DA01D0904D
:1031E000DB018092DD019092DE01A092DF01B092BE
:1031F000E0010E94410C7C010817190709F08DC0FD
:103200001092DC0101151105F1F4E090DA01F09063
:10321000DB018DEE91E00E949509892BA1F08DEEE6
:1032200091E00E9473098F7D833569F4EA94EF2859
:1032300051F084EB9CE00E942F1081E090E090938D
:10324000DB018093DA018091D6019091D701A091A2
:10325000D801B091D901A5019401281B390B4A0B63
:103260005B0BDA01C901883C9105A105B10568F144
:10327000E090DA01F090DB018092D6019092D701C4
:10328000A092D801B092D9010E94D60FE114F104A6
:1032900009F081C0882309F47EC00E949B108DE54F
:1032A0009CE00130110539F089E89CE002301105FD
:1032B00011F089E39CE00E942F100E949B1081E096
:1032C00090E09093DB018093DA018091DA01909194
:1032D000DB01009709F07FC081E0012B09F080E05D
:1032E0008093000181E08093D50180E090E0892BFC
:1032F00009F457CF0E94A109882309F42CCF0E941A
:10330000000029CF8CE395E00E942F1085E195E025
:103310000E942F1086EE94E0ACCE8091DC018F5F8E
:10332000843018F48093DC016DCF1092DC01F092B0
:10333000E201E092E101C6010297029710F0CD2868
:1033400009F50E94880D1092DB011092DA010E94AB
:103350009B1031E0E316F10459F042E0E416F10469
:1033600099F087EF9CE00E942F108DEC9CE006C046
:103370008AE99DE00E942F108BE69DE00E942F10AD
:103380000E949B1087013ECF8BE49DE00E942F108E
:103390008CE19DE0F3CF32E0E31AF10842E0E4165D
:1033A000F10408F092CF811190CF0E949B10C801C8
:1033B0000197029768F48BE09CE00E942F100E9416
:1033C0009B100E94880D1092DB011092DA017DCFD4
:1033D0008DEE9BE0F2CF1092D501019709F085CFD9
:1033E0008FE191E00230110529F001301105A9F4B7
:1033F00088E291E00E94A214582E882309F45AC052
:1034000082E090E09093DB018093DA0151106DCF60
:103410008DEC9BE00E942F1068CF8091D401811128
:103420000E941C0F0E94A00EC951DF4F6881798154
:103430008A81C75ED0400E94540CCE010196CB52C7
:10344000DF4F99838883C55DD0408DE3CB52DF4F3A
:10345000A881B981C55DD0401D928A95E9F780E0C9
:1034600090ECA9E7B4EC8FA798ABA9ABBAAB8BA74C
:103470009CA7ADA7BEA78FEF8A8BFE01EB54FF4F31
:10348000C952DF4FF983E883C75DD04080E21192D3
:103490008A95E9F7CE018B549F4F0E94D81100976F
:1034A00061F486E99BE00E942F100E943D0C10926F
:1034B000EC01512C83E090E0A5CF0196F9F40E9435
:1034C0009B108BE69BE00E942F1083E39BE00E9401
:1034D0002F108CE09BE00E942F100E949B106091A7
:1034E0007A0170917B0180917C010E94EE0F0E9415
:1034F0003D0C1092EC015524539482CFBE016D5EB9
:103500007F4FCE018B549F4F0E945E0BBE016F5FB9
:103510007F4FCE018B549F4F0E94CF0ACE01099658
:103520000E94E113898B811104C08AE196E00E9418
:103530002F1040E0BE016B547F4FCE0109960E94D0
:103540005F0F8A8B853009F0BBC0D1011C92E12C42
:10355000810121E045E351E061E090E080E00E94DC
:10356000AC0E81116FC06EE971E0CE0101960E9430
:10357000C7280E949B108AEF9AE00E94240ACE017D
:1035800001960E94831387E3C752DF4FA881B98158
:10359000C95DD0401D928A95E9F78A89853009F482
:1035A000BDC0BBA8863009F41DC28BE1D1011D92BC
:1035B0008A95E9F70B2D063008F005E02BE1A10113
:1035C00064E086E491E00E944E0E892B09F0A2C2CD
:1035D000F101608171816115710509F49BC290E070
:1035E00080E00E94702620E030E04AE754E40E9428
:1035F000C8254B015C0171019E01225C3F4F6901AE
:1036000010E0B2E0EB0EF11CE4E0CE0ED11C01178D
:1036100009F4A2C2D70111966C9111978C91762F63
:10362000682F90E080E00E94702620E030E04AE7BA
:1036300054E40E94C825F6016083718382839383DA
:103640001F5FDFCF6AE070E080E090E00E94900DA5
:103650001FAE1EAE92E0E92E8E01025C1F4F21E0EC
:1036600044E351E060E090E080E00E94AC0E8823EB
:1036700009F479CF9EAD8FAD9F3FE1F48F3F09F400
:1036800072CF1F929F931F928F9385EA91E09F9331
:103690008F931F9288E08F93E1E0F0E0EC0FFD1F25
:1036A000FF93EF930E94CE280FB6F894DEBF0FBEB3
:1036B000CDBF5FCF9111E5CF882309F454CFE1CF7F
:1036C00080E1C752DF4FA881B981C95DD0401D920A
:1036D0008A95E9F720E1AE01425C5F4F62E086E344
:1036E00091E00E944E0E892B11F0198242CFFE010B
:1036F000FE96DE011196819190EE980F9F3518F09D
:103700001C92188636CF8D93C151DF4F28813981A5
:10371000CF5ED0402E173F0771F7F3CF6AE070E01D
:1037200080E090E00E94900D1BA9CB56DF4F1982DC
:103730001882C559D04020E0AE014B565F4F62E081
:103740008EE391E00E940C0F882309F43EC120E033
:10375000AE014B565F4F62E08EE391E00E940C0F8A
:1037600022E0AE014B565F4F61E089E391E00E9499
:103770000C0F163008F015E0FE01FE966F01F12CDB
:10378000E12C00E0812C912C5401E116C0F5D1010F
:1037900011961C9211971C9222E0A10161E0C701D1
:1037A000875C9E4F0E940C0F882311F1F10160810C
:1037B0007181CB0101978E3F9F4FD0F490E080E064
:1037C0000E94702620E030E04AE754E40E94C825B9
:1037D0009B01AC01D60114962D933D934D935C93C0
:1037E0001797C501B4010E9457254B015C0101E008
:1037F000BFEFEB1AFB0AE4E0CE0ED11CC6CF01707E
:10380000D10111961C9211971C9222E0A10161E056
:1038100088E391E00E940C0F882309F4CEC0F101E7
:1038200060817181CB0101978E3F9F4F08F0C5C029
:1038300090E080E00E94702620E030E048EC52E406
:103840000E94C8252B013C0160E070EC89E794ECF4
:103850004BA65CA66DA67EA66FA778AB89AB9AAB8C
:103860008A898630D1F50E94B20D0E943707E82E72
:10387000F12C882371F083E691E00197F1F782ED56
:103880000E94AB078BE891E00197F1F70E94700767
:10389000F82E0E943D0C60E070EC89E794ECEE207D
:1038A000C1F06F2D70E090E080E00E94722620E071
:1038B00030E040E252EC0E94272720E03CEA41E160
:1038C00056E40E94572520E030E048EC52E40E9484
:1038D000C8256BA77CA78DA79EA7FE01B0968BE09D
:1038E000DF011D928A95E9F7EA888BEF8E0D823011
:1038F00008F0B6C12F892E3108F4AFC12D51330B1A
:10390000E88CF98C4E8983E290E0841B910997FF43
:1039100002C090E080E0820F931F8E9DB0018F9DCA
:10392000700D9E9D700D112490E080E00E94702625
:1039300020E030E040E05DE30E9427272B013C01BE
:10394000B70190E080E00E9470269B01AC01C301AA
:10395000B2010E9457256B017C018C898A3141F0AC
:103960008C3131F0883221F068E572E0823311F455
:1039700068EE73E090E080E00E9470269B01AC014D
:10398000C701B6010E94C8259B01AC0160E070E050
:1039900080E890E40E9456256B017C0120E030E035
:1039A000A9010E94C32587FF03C0C12CD12C760139
:1039B000C8A2D9A2EAA2FBA21AC2412C80EC582EBE
:1039C00089E7682E84EC782E3FCF412CB0EC5B2E3B
:1039D000B9E76B2EB4EC7B2E00E010E0812C912C2B
:1039E000540132CFCB56DF4F1882C559D04084E105
:1039F000D1011D928A95E9F70E94B20DE12C8E014A
:103A00000B561F4F22E040E451E06CEC80E00E9436
:103A1000BC0D6AE070E080E090E00E94900D0E9492
:103A20003707182F882309F183E691E00197F1F712
:103A300084ED0E94AB078BE891E00197F1F76101FB
:103A4000A3E6EA2EFF24F3940E947007F601819307
:103A50006F01C7010197F1F7C351DF4F2881398109
:103A6000CD5ED0402E173F0779F70E943D0C112301
:103A700009F443C00B2D0B3008F00AE07101AE01D0
:103A8000425C5F4F6A0110E0812C912C540154E09C
:103A9000C50ED11C0117E1F1D70111966C91119758
:103AA0008C91762F682F90E080E00E94702620E0B5
:103AB00030E040E251E40E94C8259B01AC0160E087
:103AC00070E88BEB95E40E94562520E030E04AE751
:103AD00054E40E94C8259B01AC01F6012083318388
:103AE00042835383C501B4010E9457254B015C01F9
:103AF0001F5FF2E0EF0EF11CCACF00E0812C912C89
:103B0000540160E070EC89E794EC2B013C01A0CEFD
:103B100001E0F7CF8DE0C552DF4FA881B981CB5DC1
:103B2000D0401D928A95E9F72DE0AE014B565F4FCC
:103B300064E082E491E00E944E0E892B09F443C0B8
:103B400060E070EC89E794EC2B013C0100E010E0B0
:103B5000812C912C54017CCED1011E966D917C91CB
:103B60001F975096ED90FC90CB010197412CF0EC03
:103B70005F2EF9E76F2EF4EC7F2E8E3F9F4F60F49F
:103B800090E080E00E94702620E030E048EC52E4B3
:103B90000E94C8252B013C01C70101978E3F9F4F12
:103BA00068F4B70190E080E00E94702620E030E0E9
:103BB00048EC52E40E94C82501E04ACE60E070EC77
:103BC00089E794ECF9CFCF55DF4F8881C15AD040B7
:103BD000863009F0B5CFCB56DF4F68817981C55962
:103BE000D04090E080E00E94702620E030E04AE77C
:103BF00054E40E94C8254B015C019E012B563F4FA7
:103C00007901AE01425C5F4F6A0110E052E0E50EBF
:103C1000F11C84E0C80ED11C0117C1F0D701119628
:103C20006C9111978C91762F682F90E080E00E9424
:103C3000702620E030E04AE754E40E94C825F601EF
:103C400060837183828393831F5FE0CF60E070ECB9
:103C500089E794EC2B013C01AFCF30E020E050CE5F
:103C60008E2D0E941310882309F42FC1FC88F101C6
:103C7000108211821282F2E081E0EF1621F023E03F
:103C800082E0E21280E034E0839FC001112443E02F
:103C9000B101865B9E4F0E945D0E70E060E088235C
:103CA00019F0D1016D917C91FF20A1F190E080E0AD
:103CB0000E9470262B013C016F2D70E090E080E0A7
:103CC0000E9472269B01AC01C301B2010E94C8256B
:103CD0006B017C0120E030E040EA52E40E942227A0
:103CE00018160CF492C020E030E040E251E4C70125
:103CF000B6010E94C82520E030E040EA50E40E946E
:103D000056256B017C0120E030E0A9010E94C3250B
:103D100087FF03C0C12CD12C7601C8A2D9A2EAA288
:103D2000FBA2FA888F2D0E941310811175C080E0CC
:103D30008EA38A89823009F48AC0833009F4A7C02F
:103D40008111BCC088E0F10111928A95E9F748E041
:103D5000B1018AE691E00E945D0E882309F4AEC0AD
:103D6000D10116962C91B0E12B9FA0011124407F28
:103D70005370F1019581292F30E064E03595279546
:103D80006A95E1F7242B352B848190E0982F8827C2
:103D9000882793704381842B820F931F4081429523
:103DA0004695469543702181F4E02F9F90011124A0
:103DB000242B820F931F9DA38CA38A89811181C01C
:103DC00085E0D1011D928A95E9F745E0B1018EE6C3
:103DD00091E00E945D0E882309F473C0F101808197
:103DE0009181A281B3818FA398A7A9A7BAA70E94A6
:103DF000D60F582E811187C083ED9AE00E942F10B4
:103E00000E943D0C1092EC0155CBC12CD12CE0E866
:103E1000EE2EE0E4FE2E81CFF10111821082F2E05D
:103E200081E0FF1621F023E082E0F21280E034E02E
:103E3000839FC001112442E0B1018A5A9E4F0E9423
:103E40005D0E882309F473CFD1018C9171CF88E086
:103E5000D1011D928A95E9F748E0B10186E691E02B
:103E60000E945D0E882351F1F10120818281422F51
:103E7000480F5527551F2381240F352F311D85816C
:103E8000280F311D8681820F932F911D94CF86E0DC
:103E9000D1011D928A95E9F746E0B10182E691E0F1
:103EA0000E945D0E882351F0F10180819281482F9C
:103EB000490F5527551F9A018381E5CF90E080E097
:103EC0007ACF80E090E0DC018ECFC453DF4F688171
:103ED000CC5CD0406F7070E075956795C12CD12C8B
:103EE00030E8E32E30E4F32E633008F461CD673020
:103EF00009F45BCD62507109072E000C880B990BF9
:103F00000E94722641CD011104C08BE99AE00E9403
:103F10002F100E949B108EED98E00E94240ACE0183
:103F200001960E9483138CEC98E00E94240A8989F0
:103F3000882309F4C5C29E01275F3F4F7901D12C28
:103F4000D7018D917D01803118F480E30E943F0AF2
:103F5000F7013197608170E090E080E040E10E94DD
:103F60009F10B7E0DB1619F080E20E943F0AD3945D
:103F7000E8E0DE12E5CF0E942B1089851F928F9317
:103F80008A851F928F938B851F928F9380EB91E090
:103F90009F938F931F928DE08F933F922F920E9459
:103FA000CE288AEB98E00E94240AC1010E94831364
:103FB0000FB6F894DEBF0FBECDBF8AE998E00E942D
:103FC000240A8A89082E000C990B0E94031188E8A4
:103FD00098E00E94240A6B8970E090E080E04AE05B
:103FE0000E949F1083E898E00E94240A8B898D30FC
:103FF00008F06BC285E798E00E94240A89E20E94DB
:104000003F0A0E942B1086E498E00E94240A6CA9C3
:104010007DA98EA99FA941E00E949E1282E498E0AA
:104020000E942F100E949B1080E398E00E94240AB7
:1040300088AD882309F451C287E198E00E942F10CF
:104040008EE198E00E94240A8A8D882309F448C2F0
:1040500086EE97E00E942F108CEF97E00E94240AD2
:104060008D890E9480128AEE97E00E94240A89AD11
:10407000882309F438C28EEC97E00E942F1081ED5E
:1040800097E00E94240A8AAD882309F42FC284EBAA
:1040900097E00E942F1087EB97E00E94240A8BADD7
:1040A000882309F426C28AE997E00E942F108DE93F
:1040B00097E00E94240A8CAD882309F41DC280E891
:1040C00097E00E942F1083E897E00E94240A8DADAC
:1040D000882309F414C288E797E00E942F100E94F9
:1040E0009B10888D998D892B69F081E697E00E945D
:1040F000240A688D798D90E080E04AE00E949F104C
:104100000E942B1020E030E0A90168A179A18AA1CA
:104110009BA10E9422271816E4F58FE497E00E94E5
:10412000240A68A179A18AA19BA142E00E949E1263
:1041300087E497E00E94240AC8A0D9A0EAA0FBA0C7
:1041400020E030E0A901C701B6010E94222720E04B
:1041500030E040E05FE387FDD5C1C701B6010E94B2
:1041600057250E943A267B01D12CC12C83E2CE1424
:10417000DF040CF08DE20E943F0A3FEFC31AD30A1E
:1041800044E0C416D10491F789E20E943F0A0E94DC
:104190002B108A890E941310882309F479C08EA1FC
:1041A0008823B1F185E397E00E94240A8EA10E9442
:1041B000E310888D998D892B59F183E297E00E9455
:1041C000240A6EA170E090E080E00E94722620E058
:1041D00030E048EC52E40E9427276B017C01688D97
:1041E000798D90E080E00E9470269B01AC01C701B0
:1041F000B6010E94C82520E030E040E850E40E946B
:10420000572541E00E949E1280E297E00E942F1005
:104210008CA19DA1892BE1F18EE097E00E94240AF8
:104220006CA17DA190E080E04AE00E949F100E9476
:104230002B10888D998D892B59F18CEF96E00E9477
:10424000240A6CA17DA190E080E00E94702620E00D
:1042500030E048EC52E40E9427276B017C01688D16
:10426000798D90E080E00E9470269B01AC01C7012F
:10427000B6010E94C82520E030E040E850E40E94EA
:10428000572541E00E949E1289EF96E00E942F1070
:104290008A898550823008F040C08E898823E9F0F1
:1042A00087EE96E00E94240A6E8970E090E080E03C
:1042B0000E94722620E030E040EA50EC0E9427275E
:1042C00020E030E040E253E40E94572541E00E94A4
:1042D0009E1284EE96E00E942F108F898823E9F0C9
:1042E00082ED96E00E94240A6F8970E090E080E001
:1042F0000E94722620E030E040EA50E40E94272726
:1043000020E030E040E253E40E94562541E00E9464
:104310009E128FEC96E00E942F1020E030EC49E7CF
:1043200054EC6BA57CA58DA59EA50E94C325882372
:1043300079F08DEB96E00E94240A6BA57CA58DA5F3
:104340009EA541E00E949E128AEB96E00E942F10EB
:1043500020E030EC49E754EC6FA578A989A99AA927
:104360000E94C325882379F088EA96E00E94240AF7
:104370006FA578A989A99AA941E00E949E1285EAB1
:1043800096E00E942F100E949B1083E996E00E9405
:10439000240AC501B4010E947613002311F0111103
:1043A000B6C08FE796E00E942F108A890E941310F2
:1043B000882309F450C06FA178A589A59AA5611535
:1043C00071058105910509F446C01C89112309F482
:1043D00042C00E9470266B017C01612F70E090E06A
:1043E00080E00E9472269B01AC01C701B6010E94C9
:1043F000C82520E030E044E355E40E94C8256B0165
:104400007C0120E030E040E251E40E94C32511E04D
:1044100087FD10C020E030E040E251E4C701B60162
:104420000E94C8250E943A266830710514F067E0A2
:1044300070E0162F0E949B108BE596E00E94240AE4
:10444000612F70E090E080E04AE00E949F1086E5D6
:1044500096E00E942F100E949B1070E060E0CE0159
:104460008B549F4F0E9443120E949B1088AD811174
:10447000F4C08FE79AE00E942F10CC50DF4F688184
:10448000C45FD040CB50DF4F7881C55FD040CA5069
:10449000DF4F8881C65FD0400E94EE0F8A890E945C
:1044A000131081110E94A00E0E949B1081E99AE0D6
:1044B0000E942F100E943D0C1092EC010C94001AE7
:1044C0008CEA98E00E942F1078CD8E3118F487E6A0
:1044D00098E092CD88E598E08FCD8EE098E0AECD63
:1044E00083EE97E0B7CD89EC97E0C7CD8FEA97E0F0
:1044F000D0CD85E997E0D9CD8BE797E0E2CD83E792
:1045000097E0EBCDC701B6010E9456252ACE23962F
:104510007FAC239724968FAC249725969FAC259744
:1045200026960FAD26978EE390E08C0F9D1F049684
:10453000C152DF4F99838883CF5DD040C352DF4F94
:104540007882CD5DD040482CC252DF4F9882CE5D3C
:10455000D040602EB12CA12CA11608F065C09FEFB1
:10456000A91AB90ABF92AF92A1ECB1E0BF93AF9381
:104570001F92F6E1FF933F922F920E94CE28C10135
:104580000E941E10C152DF4FA881B981CF5DD0407B
:10459000CD90DD90ED90FD90C152DF4FB983A8839F
:1045A000CF5DD040C701B6010E9476130FB6F894D4
:1045B000DEBF0FBECDBF272D382D492D502FC7018F
:1045C000B6010E942227181624F47C2C8D2C9E2CD8
:1045D0000F2DC352DF4F2881CD5DD040342DC25204
:1045E000DF4F4881CE5DD040562DC701B6010E94F5
:1045F000C32587FD0CC0C352DF4FC880CD5DD040BE
:10460000D42CC252DF4FE880CE5DD040F62CC3528E
:10461000DF4FC882CD5DD0404D2CC252DF4FE882C3
:10462000CE5DD0406F2C98CF8DE696E00E94240A94
:10463000C352DF4F2881CD5DD040342DC252DF4FB1
:104640004881CE5DD040562D672D782D892D902F35
:104650000E9456250E947613A8CE8A890E941310C4
:10466000811132C080E69AE00E94240ACA880C2C8C
:10467000000CDD08EE08FF084AE0C701B601F7FEAE
:104680000BC08DE20E943F0A66277727CB016C1989
:104690007D098E099F094AE00E949F1084E59AE0F7
:1046A0000E942F10CF50DF4F6881C15FD040CE50A5
:1046B000DF4F7881C25FD040CD50DF4F8881C35F2C
:1046C000D0400E94EE0FF0CE85E39AE00E94240ACB
:1046D0008D890E9480120E94800D01E028E0422E08
:1046E00081E29AE00E94240A802F0E94E31000FFDA
:1046F000A0C081E19AE00E942F100E94800D0E94CC
:10470000A00E0E943B0F892B31F10E948811882353
:1047100041F00E943B0F892BF1F082EF99E00E945B
:104720002F1010E069C01123D9F287E499E00E94AC
:104730002F10CF51DF4F6881C15ED040CE51DF4F87
:104740007881C25ED040CD51DF4F8881C35ED040BA
:104750000E94EE0FA7CEC552DF4FA881B981CB5D75
:10476000D040E42D1D92EA95E9F7D101E9E01D92D0
:10477000EA95E9F729E0A101BE016B567F4F85E775
:1047800091E00E9493130E941C0F0E94A00E80E2F1
:10479000D1011D928A95E9F7C1010E943211182FAB
:1047A000882309F4BECF80E2F101DE01AB54BF4F94
:1047B00001900D928A95E1F7BE016D5E7F4FCE01AB
:1047C0008B549F4F0E945E0BBE016F5F7F4FCE01E7
:1047D0008B549F4F0E94CF0A83EE99E00E94240AD7
:1047E0004BAD6AAD89AD0E943B1088AD81111EC0F2
:1047F0008CEC99E00E942F100F5F073009F093CFE7
:10480000111193CF81E399E00E942F10CC51DF4F1B
:104810006881C45ED040CB51DF4F7881C55ED04007
:10482000CA51DF4F8881C65ED0404BCF89EB99E0FB
:1048300076CF87EA99E00E942F10C651DF4F68813A
:1048400079818A81CA5ED0400E94540C80E2FE01C8
:10485000EB54FF4FDE01AB56BF4F01900D928A958E
:10486000E1F740E068E2CE018B569F4F0E94DE0BDD
:104870004FE060E0CE018B569F4F0E94640A482FA4
:1048800069E2CE018B569F4F0E94DE0B4FE160E143
:10489000CE018B569F4F0E94640A482F6AE2CE01D8
:1048A0008B569F4F0E94DE0B48E260E2CE018B5692
:1048B0009F4F0E94640A482F6BE2CE018B569F4F98
:1048C0000E94DE0B4FE26CE2CE018B569F4F0E949E
:1048D000640A482F6EE3CE018B569F4F0E94DE0B79
:1048E0004DE360E3CE018B569F4F0E94640A482F30
:1048F0006FE3CE018B569F4F0E94DE0B6FE179E094
:10490000CE018B569F4F0E9443126CE179E0CE019D
:104910008B569F4F0E941114882389F00E94A00E8D
:1049200080E2F10111928A95E9F7C1010E943211EA
:10493000182F811107C08FEF98E00E942F1086E694
:1049400099E0EDCE4FE060E0C1010E94640A982E2C
:10495000D1015496EC90AE2CA2949FE0A922882419
:1049600083948A11812C4FE160E1C1010E94640AA5
:10497000B82EF101F588FF2DFF70CF2E77247394A8
:104980008F13712C48E260E2C1010E94640AD82EA4
:10499000F2948FE0F82266246394DF10612C80EF9C
:1049A00098E00E94240A462D672D882D0E943B1016
:1049B00080E2F101DE01AB54BF4F01900D928A9568
:1049C000E1F79A10BCCFBC10BACFDF10B8CF8E2D54
:1049D0008F7009F0B4CFBE016D5E7F4FCE018B5456
:1049E0009F4F0E945E0BBE016F5F7F4FCE018B54C5
:1049F0009F4F0E94CF0A80E899E0FCCE80919302FD
:104A0000909194020E943528809190029091910299
:104A100097FD03C060E00C948B080895991B79E022
:104A200004C0991F961708F0961B881F7A95C9F73E
:104A300080950895AA1BBB1B51E107C0AA1FBB1F8D
:104A4000A617B70710F0A61BB70B881F991F5A951A
:104A5000A9F780959095BC01CD010895A1E21A2E89
:104A6000AA1BBB1BFD010DC0AA1FBB1FEE1FFF1F12
:104A7000A217B307E407F50720F0A21BB30BE40B62
:104A8000F50B661F771F881F991F1A9469F76095A9
:104A90007095809590959B01AC01BD01CF01089563
:104AA000EE0FFF1F0590F491E02D09945058BB279D
:104AB000AA270E946E250C94E8260E94DA2638F078
:104AC0000E94E12620F039F49F3F19F426F40C945B
:104AD000D7260EF4E095E7FB0C94D126E92F0E942F
:104AE000F92658F3BA17620773078407950720F071
:104AF00079F4A6F50C941B270EF4E0950B2EBA2F33
:104B0000A02D0B01B90190010C01CA01A0011124D3
:104B1000FF27591B99F0593F50F4503E68F11A167F
:104B2000F040A22F232F342F4427585FF3CF469510
:104B300037952795A795F0405395C9F77EF41F1632
:104B4000BA0B620B730B840BBAF09150A1F0FF0FFC
:104B5000BB1F661F771F881FC2F70EC0BA0F621FE8
:104B6000731F841F48F4879577956795B795F795D8
:104B70009E3F08F0B0CF9395880F08F09927EE0F6D
:104B80009795879508950E94AD2608F481E00895D1
:104B90000E94DC250C94E8260E94E12658F00E9431
:104BA000DA2640F029F45F3F29F00C94D126511108
:104BB0000C941C270C94D7260E94F92668F399239D
:104BC000B1F3552391F3951B550BBB27AA27621709
:104BD0007307840738F09F5F5F4F220F331F441F16
:104BE000AA1FA9F335D00E2E3AF0E0E832D091504A
:104BF0005040E695001CCAF72BD0FE2F29D0660F37
:104C0000771F881FBB1F261737074807AB07B0E879
:104C100009F0BB0B802DBF01FF2793585F4F3AF07F
:104C20009E3F510578F00C94D1260C941C275F3FD1
:104C3000E4F3983ED4F3869577956795B795F79505
:104C40009F5FC9F7880F911D9695879597F90895ED
:104C5000E1E0660F771F881FBB1F62177307840789
:104C6000BA0720F0621B730B840BBA0BEE1F88F798
:104C7000E09508950E9441266894B1110C941C2778
:104C800008950E94012788F09F5798F0B92F99271F
:104C9000B751B0F0E1F0660F771F881F991F1AF027
:104CA000BA95C9F714C0B13091F00E941B27B1E04A
:104CB00008950C941B27672F782F8827B85F39F049
:104CC000B93FCCF3869577956795B395D9F73EF4C0
:104CD00090958095709561957F4F8F4F9F4F089568
:104CE000E89409C097FB3EF4909580957095619586
:104CF0007F4F8F4F9F4F9923A9F0F92F96E9BB273C
:104D00009395F695879577956795B795F111F8CFB7
:104D1000FAF4BB0F11F460FF1BC06F5F7F4F8F4F22
:104D20009F4F16C0882311F096E911C0772321F018
:104D30009EE8872F762F05C0662371F096E8862FB0
:104D400070E060E02AF09A95660F771F881FDAF707
:104D5000880F9695879597F90895990F0008550F34
:104D6000AA0BE0E8FEEF16161706E807F907C0F0F1
:104D700012161306E407F50798F0621B730B840BF9
:104D8000950B39F40A2661F0232B242B252B21F4D3
:104D900008950A2609F4A140A6958FEF811D811D73
:104DA000089597F99F6780E870E060E008959FEFAD
:104DB00080EC089500240A941616170618060906B2
:104DC000089500240A941216130614060506089581
:104DD000092E0394000C11F4882352F0BB0F40F409
:104DE000BF2B11F460FF04C06F5F7F4F8F4F9F4F49
:104DF000089557FD9058440F551F59F05F3F71F0CB
:104E00004795880F97FB991F61F09F3F79F0879531
:104E10000895121613061406551FF2CF4695F1DFBA
:104E200008C0161617061806991FF1CF869571054A
:104E3000610508940895E894BB2766277727CB017E
:104E400097F908950E94AD2608F48FEF08950E9407
:104E50003A270C94E8260E94DA2638F00E94E126D0
:104E600020F0952311F00C94D1260C94D726112410
:104E70000C941C270E94F92670F3959FC1F3950F9F
:104E800050E0551F629FF001729FBB27F00DB11DCE
:104E9000639FAA27F00DB11DAA1F649F6627B00D5E
:104EA000A11D661F829F2227B00DA11D621F739F47
:104EB000B00DA11D621F839FA00D611D221F749F55
:104EC0003327A00D611D231F849F600D211D822F9C
:104ED000762F6A2F11249F5750409AF0F1F08823C3
:104EE0004AF0EE0FFF1FBB1F661F771F881F9150F0
:104EF0005040A9F79E3F510580F00C94D1260C94A8
:104F00001C275F3FE4F3983ED4F386957795679529
:104F1000B795F795E7959F5FC1F7FE2B880F911D19
:104F20009695879597F908950E94AD26880B990B61
:104F300008950F931F93CF93DF938230910510F460
:104F400082E090E0E091B002F091B10230E020E028
:104F5000B0E0A0E0309799F42115310509F44AC07A
:104F6000281B390B24303105D8F58A819B816115C6
:104F7000710589F1FB0193838283FE0111C0408199
:104F800051810281138148175907E0F048175907EA
:104F900099F4109761F012960C93129713961C9344
:104FA0003296CF01DF91CF911F910F910895009319
:104FB000B0021093B102F4CF2115310551F0421720
:104FC000530738F0A901DB019A01BD01DF01F801A7
:104FD000C1CFEF01F9CF9093B1028093B002CDCF52
:104FE000FE01E20FF31F819391932250310939831F
:104FF0002883D7CF2091AE023091AF02232B41F40A
:1050000020910301309104013093AF022093AE024E
:1050100020910101309102012115310541F42DB794
:105020003EB74091050150910601241B350BE091DC
:10503000AE02F091AF02E217F307A0F42E1B3F0B74
:105040002817390778F0AC014E5F5F4F24173507FA
:1050500048F04E0F5F1F5093AF024093AE02819312
:1050600091939FCFF0E0E0E09CCFCF93DF93009748
:10507000E9F0FC01329713821282A091B002B09144
:10508000B102ED0130E020E01097A1F420813181E0
:10509000820F931F2091AE023091AF02281739077B
:1050A00009F061C0F093AF02E093AE02DF91CF91BF
:1050B0000895EA01CE17DF07E8F54A815B819E017A
:1050C00041155105B1F7E901FB83EA8349915991F3
:1050D000C40FD51FEC17FD0761F480819181029602
:1050E000840F951FE90199838883828193819B8333
:1050F0008A83F0E0E0E012968D919C9113970097DF
:10510000B9F52D913C911197CD010296820F931F15
:105110002091AE023091AF022817390739F6309747
:1051200051F51092B1021092B002B093AF02A09369
:10513000AE02BCCFD383C28340815181840F951FBF
:10514000C817D90761F44E5F5F4F88819981480F76
:10515000591F518340838A819B81938382832115C8
:10516000310509F0B0CFF093B102E093B0029ECFC9
:10517000FD01DC01C0CF13821282D7CFFB01DC011D
:1051800002C001900D9241505040D8F70895FB01A4
:10519000DC0101900D920020E1F70895AEE0B0E04F
:1051A000E4EDF8E20C948A2B0D891E898F89988D85
:1051B00026E02C831A83098397FF02C080E090E8E1
:1051C00001979E838D83AE01455E5F4F698D7A8D19
:1051D000CE0101960E94FE284D815E8157FD0AC0D6
:1051E0002F813885421753070CF49A01020F131FC1
:1051F000F80110822E96E4E00C94A62BABE0B0E010
:10520000E4E0F9E20C947C2B7C013B018A01FC0177
:1052100017821682838181FFC8C1CE0101965C018D
:10522000F7019381F30193FD859193FF81913F01F4
:10523000882309F453C1853239F493FD859193FF96
:1052400081913F01853229F4B70190E00E94EE2A56
:10525000E7CF912C212C312CFFE1F31538F08B3264
:1052600011F190F4803209F1833229F137FC3CC00E
:1052700020ED280F2A3050F536FE20C08AE0989E97
:10528000200D1124922E06C08D3291F0803371F7DB
:10529000689430F8F30193FD859193FF81913F016C
:1052A0008111DACF21C0689431F8689432F8F2CFD6
:1052B000689433F8EFCF689434F8ECCFEAE02E9E90
:1052C000200D1124222E689435F8E4CF8E3229F473
:1052D00036FC04C1689436F8DDCF8C3619F4689436
:1052E00037F8D8CF8836B1F2982F9F7D95549330F8
:1052F000E0F08336A1F18337C1F1833509F063C053
:105300002801F2E04F0E511CF801C080D180692DB8
:1053100070E036FC02C06FEF7FEFC6010E94D82A12
:105320004C01689437F882010AC00C5F1F4FFFE3FD
:10533000F98388248394912C6501E89437F833FE2F
:105340002DC0522C8114910471F5552009F468CFB9
:10535000B70180E290E00E94EE2A5A94F6CFF8015D
:10536000808189830E5F1F4FE4CF2801F2E04F0E4A
:10537000511CF801C080D180692D70E036FC02C05C
:105380006FEF7FEFC6010E94E32A4C018201D5CF67
:10539000B70180E290E00E94EE2A2A9428141904B2
:1053A00009F0B0F7CECFF60137FC859137FE819139
:1053B0006F01B70190E00E94EE2A51105A94F1E07B
:1053C0008F1A9108BFCF843619F0893609F077C05B
:1053D000F80137FE6BC060817181828193810C5F1F
:1053E0001F4FF32DFF763F2E97FF09C090958095B4
:1053F000709561957F4F8F4F9F4F689437F82AE0E3
:1054000030E0A5010E941E2BC82ECA188C2C432CFC
:1054100036FE0CC0E89440F8C91440F434FE05C0D0
:1054200032FC03C0F32DFE7E4F2E892C44FE95C026
:10543000FE01EC0DF11D8081803309F087C0242D21
:10544000297E422E842D8870582E43FC95C040FE44
:105450008FC09C2C821418F42C0C922C981844FEAB
:1054600091C0B70180E390E00E94EE2A42FE09C09D
:1054700088E790E041FE02C088E590E0B7010E9415
:10548000EE2AC91408F48AC0CA94D12C9FEFC91A15
:10549000D90ACA0CDB1CF60182916F01B70190E0BA
:1054A0000E94EE2AAC14BD04B1F74FCF6081718128
:1054B000072E000C880B990B0E5F1F4F92CFD32C39
:1054C000E894D4F82AE030E0853739F1232D297F9C
:1054D000D22E8F3601F148F48835A9F0F701868184
:1054E00097812B96E2E10C94982B803749F088370E
:1054F000A9F7D4FE02C06894D2F820E130E00DC0D4
:105500006894D4F8F6CF34FE03C0822F8660D82E7C
:1055100020E132E002C028E030E0F801D7FE0FC001
:1055200060817181828193810C5F1F4FA5010E9470
:105530001E2BC82ECA183D2CE89437F867CF60811F
:10554000718190E080E00E5F1F4FF0CF42FC02C0FF
:10555000839478CF8394839475CF842D867809F4CF
:1055600071CFF6CFB70180E290E00E94EE2A8394DB
:105570008214C0F3512C73CF522C5818821408F4A3
:105580006ECFF8CF842D867809F47BCF8BE241FE75
:1055900080E247FC8DE2B70190E071CFB70180E374
:1055A00090E00E94EE2A9A946CCF8FEF9FEF99CFF4
:1055B000FC010590615070400110D8F780959095DE
:1055C0008E0F9F1F0895FC016150704001900110E3
:1055D000D8F7809590958E0F9F1F08950F931F9376
:1055E000CF93DF93182F092FEB018B8181FD09C029
:1055F0001FEF0FEF812F902FDF91CF911F910F9110
:10560000089582FF14C02E813F818C819D812817CF
:1056100039073CF4E881F981CF01019699838883A9
:1056200010838E819F8101969F838E83E3CFE885CF
:10563000F985812F0995892BA1F3DACFFA01AA27E1
:10564000283051F1203181F1E8946F936E7F6E5FC5
:105650007F4F8F4F9F4FAF4FB1E03ED0B4E03CD073
:10566000670F781F891F9A1FA11D680F791F8A1F56
:10567000911DA11D6A0F711D811D911DA11D20D0BD
:1056800009F468943F912AE0269F11243019305D77
:105690003193DEF6CF010895462F4770405D419368
:1056A000B3E00FD0C9F7F6CF462F4F70405D4A33B5
:1056B00018F0495D31FD4052419302D0A9F7EACF7D
:1056C000B4E0A6959795879577956795BA95C9F7AC
:1056D00000976105710508959B01AC010A2E06949F
:1056E0005795479537952795BA95C9F7620F731F58
:1056F000841F951FA01D08952F923F924F925F9295
:105700006F927F928F929F92AF92BF92CF92DF92D1
:10571000EF92FF920F931F93CF93DF93CDB7DEB736
:10572000CA1BDB0B0FB6F894DEBF0FBECDBF0994CA
:105730002A88398848885F846E847D848C849B8421
:10574000AA84B984C884DF80EE80FD800C811B812F
:10575000AA81B981CE0FD11D0FB6F894DEBF0FBE5E
:10576000CDBFED01089517E0CCE0D7E004C0FE0105
:105770000E9450252196CD30D107C9F7F894FFCF6C
:10578000010000B2028000000000503C00D996A544
:10579000D9FFFFAA00D42C0002DC0ADC0B55A504BB
:1057A0000CCB0A6010CD0A01F10B7E0AF410990AA5
:1057B000000000503199DC0C523132333435F000A6
:1057C0001021D700000CD70000FFD4500102D604EE
:1057D0000502D6380202D4BA0001D68D0501D609D9
:1057E0000301D65B0304D65F0507D48D0007D719E4
:1057F0000004500050DA0400500050000000000087
:1058000000D70937096409440A9509730987090D06
:105810000A006E616E00696E66006F766600424C2B
:105820003138787800424C253032582530325800D3
:10583000253032642F253032642F323025303264E7
:105840000043656C6C20253275202020202020200C
:04585000203A2000DA
:00000001FF
