:100000000C9436050C945E050C945E050C945E050C
:100010000C945E050C945E050C945E050C945E05D4
:100020000C945E050C945E050C945E050C945E05C4
:100030000C945E050C945E050C945E050C945E05B4
:100040000C94A50E0C945E050C94150F0C94EF0EF9
:100050000C945E050C945E050C945E050C945E0594
:100060000C945E050C945E052D2D2D2D2D2D2D2D22
:100070002D2D2D2D2D2D2D2D2D2D2D2D2D2D2D2DB0
:100080002D2D2D2D2D2D2D2D2D2D2D2D2D2D2D2DA0
:100090002D2D2D2D0057616974696E6720666F7272
:1000A00020626174746572792E2E2E003D3D3D3DB7
:1000B0003D3D3D3D3D3D3D3D3D3D3D3D3D3D3D3D70
:1000C0003D3D3D3D3D3D3D3D3D3D3D3D3D3D3D3D60
:1000D0003D3D3D3D3D3D3D3D002020277327203DDA
:1000E0002072657363616E207C206175746F2D646E
:1000F00065746563747320636F6E6E6563742F64DB
:100100006973636F6E6E6563740020204D616B6967
:100110007461204D6F6E69746F7220E2809420507C
:10012000726F64756374696F6E003D3D3D3D3D3D8A
:100130003D3D3D3D3D3D3D3D3D3D3D3D3D3D3D3DEF
:100140003D3D3D3D3D3D3D3D3D3D3D3D3D3D3D3DDF
:100150003D3D3D3D3D3D004672616D6520202020C6
:100160002020202020203A2000202F203700537408
:10017000617465206F66206368617267653A20006C
:1001800020560043656C6C20646966662020202040
:1001900020203A20002056002056005061636B203A
:1001A000766F6C746167652020203A200020430040
:1001B00054656D7020284D6F736665742920203A50
:1001C000200020430054656D70202843656C6C73DB
:1001D000292020203A20002025004F7665726C6F80
:1001E0006164202520202020203A20002025004F77
:1001F00044202520202020202020202020203A20BC
:10020000002025004F7665726C6F616420252020E8
:100210002020203A20002025004F442025202020A7
:1002200020202020202020203A20004F7665726C6C
:100230006F616420636E742020203A20004F4420B8
:100240006576656E74732020202020203A200046B9
:1002500041494C004F4B00202F20342020280048DB
:1002600065616C74682020202020202020203A2006
:10027000004379636C6520636F756E7420202020C5
:100280003A20004641494C004F4B004175782043CD
:1002900053756D2034382D3631203A2000464149BF
:1002A0004C004F4B00417578204353756D2034341A
:1002B0002D3437203A20004641494C004F4B004333
:1002C0006865636B73756D2033322D3430203A20AE
:1002D000004641494C004F4B00436865636B7375A2
:1002E0006D2031362D3331203A2000436865636B31
:1002F00073756D20302D313520203A2000313520A6
:100300002D20437269746963616C206661756C7439
:100310002028686172642D6C6F636B65642062795C
:100320002063686172676572290035202D2057614E
:10033000726E696E670031202D204F7665726C6F8A
:10034000616465640030202D204F4B004E6F0059D2
:100350004553004661696C75726520636F64652062
:1003600020203A2000554E4C4F434B4544004C4F03
:10037000434B45440043656C6C206661696C757243
:10038000652020203A20004C6F636B2073746174E9
:100390007573202020203A200020416800436170BE
:1003A0006163697479202020202020203A200031C8
:1003B000302063656C6C20424C33367878003520F1
:1003C00063656C6C20424C3138787800342063656A
:1003D0006C6C20424C313478780020202800426137
:1003E000747465727920747970652020203A200039
:1003F0004465746563746564207479706520203A7F
:1004000020004D6667206461746520202020202034
:10041000203A2000524F4D20494420202020202007
:100420002020203A20004D6F64656C202020202081
:1004300020202020203A20004641494C004F4B000C
:100440004641494C004F4B00202056657269667941
:1004500020636865636B73756D2033322D343020F3
:100460003A20004641494C004F4B0020205665720F
:1004700069667920636865636B73756D2031362D0D
:100480003331203A20002020566572696679206356
:100490006865636B73756D20302D313520203A20EF
:1004A0000020204672616D652077726974653A207C
:1004B0006E6F20726573706F6E73652064757269FC
:1004C0006E67207665726966792E0020204672611B
:1004D0006D652077726974653A206E6F2070726561
:1004E00073656E6365206F6E2073746F72652E0086
:1004F00020204672616D652077726974653A206EBE
:100500006F2070726573656E6365206F6E20777201
:100510006974652E0020204672616D6520777269CE
:1005200074653A20636861726765722061726D203C
:10053000616C7265616479206973737565642E20DE
:10054000506F7765722D6379636C65207265717584
:10055000697265642E0020204672616D6520777295
:100560006974653A206E6F2070726573656E63659D
:10057000206F6E20746573742D6D6F646520656ED9
:100580007465722E0020204672616D6520746F20A4
:1005900077726974653A200020202D3E20467261F2
:1005A0006D65207772697465206661696C65642E7B
:1005B0000020202D3E204672616D6520777269749F
:1005C00065207375636365656465642E20554E4CC4
:1005D0004F434B45442E0020202D3E204368656349
:1005E0006B73756D7320636F72727570743B20440A
:1005F000412030342063616E6E6F74206669782EFE
:1006000020547279696E67206672616D6520777219
:100610006974652E2E2E0020202D3E205374696CA7
:100620006C206C6F636B656420286E6F6E2D636841
:1006300065636B73756D20726561736F6E292E2013
:1006400043616E6E6F74207265636F7665722E0003
:1006500020202D3E20554E4C4F434B45442062797F
:100660002044412030342E004641494C004F4B007D
:100670004641494C004F4B002020436865636B7333
:10068000756D2033322D3430203A20004641494CDC
:10069000004F4B002020436865636B73756D2031FC
:1006A000362D3331203A20002020436865636B7378
:1006B000756D20302D313520203A20002020556ED8
:1006C0006C6F636B3A206E6F20726573706F6E7320
:1006D000652061667465722044412030342E00200C
:1006E00020556E6C6F636B3A206E6F20707265736D
:1006F000656E636520656E746572696E67207465EA
:100700007374206D6F64652E00436F756C64206E8A
:100710006F7420756E6C6F636B20626174746572A8
:10072000792E004261747465727920737563636514
:10073000737366756C6C7920756E6C6F636B656432
:100740002E00417474656D7074696E672044412099
:10075000303420756E6C6F636B2E2E2E002E204E63
:100760006F20756E6C6F636B20617474656D70744F
:1007700065642E00556E6C6F636B206E6F74207312
:100780007570706F7274656420666F722074797012
:1007900065200042617474657279204C4F434B456B
:1007A000442E204661696C75726520636F64653AFA
:1007B00020004261747465727920554E4C4F434B52
:1007C00045442E00436F6D706C6574652E00426168
:1007D00074746572792072656D6F766564206475D6
:1007E00072696E67207363616E2E2041626F72744E
:1007F000696E672E004261747465727920666F7548
:100800006E6420203A20002020202020202020205C
:10081000444F204E4F5420636861726765206F6EAD
:1008200020616E7920636861726765722E002020F6
:1008300020202020202020467265657363616C654E
:10084000204D433930384A4B334520424D53202DFB
:100850002D206E6F2063656C6C2070726F74656301
:1008600074696F6E2E005741524E494E473A2050E0
:1008700072652D747970652D3020484330382062C0
:10088000617474657279206465746563746564214C
:10089000004552524F523A20426174746572792079
:1008A0006E6F7420726573706F6E64696E6720611D
:1008B0006674657220726574726965732E20416278
:1008C0006F7274696E672E003D3D3D3D3D3D3D3D7F
:1008D0003D3D3D3D3D3D3D3D3D3D3D3D3D3D3D3D48
:1008E0003D3D3D3D3D3D3D3D3D3D3D3D3D3D3D3D38
:1008F0003D3D3D3D0020204D616B697461204D6F91
:100900006E69746F72202D205363616E6E696E671D
:100910002E2E2E003D3D3D3D3D3D3D3D3D3D3D3D71
:100920003D3D3D3D3D3D3D3D3D3D3D3D3D3D3D3DF7
:100930003D3D3D3D3D3D3D3D3D3D3D3D3D3D3D3DE7
:100940000057616974696E6720666F722062617416
:10095000746572792E2E2E003D3D3D3D3D3D3D3D61
:100960003D3D3D3D3D3D3D3D3D3D3D3D3D3D3D3DB7
:100970003D3D3D3D3D3D3D3D3D3D3D3D3D3D3D3DA7
:100980003D3D3D3D002020426174746572792072C6
:10099000656D6F7665642E2057616974696E672E88
:1009A0002E2E003D3D3D3D3D3D3D3D3D3D3D3D3DD2
:1009B0003D3D3D3D3D3D3D3D3D3D3D3D3D3D3D3D67
:1009C0003D3D3D3D3D3D3D3D3D3D3D3D3D3D3D0094
:1009D00042617474657279206465746563746564DA
:1009E00020E28094207374617274696E672073636F
:1009F000616E2E004D616E75616C2072657363616E
:100A00006E207265717565737465642E0000000058
:100A100000240027002A0000000008000201000056
:100A20000304070000000000000000000000002593
:100A30000028002B000000000023002600290004ED
:100A40000404040404040402020202020203030375
:100A5000030303010204081020408001020408106F
:100A60002001020408102000470FA51E11241FBEFC
:100A7000CFEFD8E0DEBFCDBF11E0A0E0B1E0E8EEFF
:100A8000FAE402C005900D92A03BB107D9F722E02D
:100A9000A0EBB1E001C01D92AA38B207E1F715E062
:100AA000C5E3D5E004C02197FE010E94FE1EC433B9
:100AB000D107C9F70E9416100C9467250C9400000A
:100AC00080917802E0917902F0917A02F894918114
:100AD000282F20959223918378943DE743E050E0BE
:100AE000315029F1DA011197F1F790819823C1F380
:100AF000F8949281922392839181982B9183789498
:100B0000A3EBBBE01197F1F7F894918192239183C5
:100B1000A3E1B1E01197F1F79081982381E009F00A
:100B200080E07894E3E6F6E03197F1F7089580E00D
:100B30000895EF92FF920F931F93CF93DF9328E0D6
:100B400030E080E041E0A3E2B0E09FECE92EF12C40
:100B500090917802E0917902F0917A02F8945181B3
:100B6000592B51836281792F7095672362838D01A0
:100B7000ED012197F1F7518157235183E801219726
:100B8000F1F750817894F7013197F1F7952309F047
:100B9000842B440F21503109D9F6DF91CF911F9159
:100BA0000F91FF90EF900895CF92DF92EF92FF9216
:100BB0000F931F93CF93DF9328E030E041E06BE881
:100BC00071E093E7C92ED12CCBE2D0E00BED11E020
:100BD00090917802E0917902F0917A02F92EF094E6
:100BE000582F542389F1F89452815F215283518107
:100BF000592B5183DE011197F1F75281952B928386
:100C00007894F8013197F1F7440F2150310901F739
:100C1000F894E0917902F0917A02918180917802C2
:100C2000809598239183E0917902F0917A029281E4
:100C3000892382837894DF91CF911F910F91FF9048
:100C4000EF90DF90CF900895F89452815F21528306
:100C50005181592B5183DB011197F1F75281952B6B
:100C600092837894F601CECF8F929F92AF92BF92EB
:100C7000CF92DF92EF92FF920F931F93CF93DF9368
:100C8000D82E892EC62E8A010E946005882309F479
:100C90004AC083E30E94D405E801289678012BE836
:100CA000A22EBB24B394C5010197F1F70E949905C8
:100CB000F70181937F01EC17FD07A9F79D2CED2C1F
:100CC000F82C9BE8A92EBB24B394C5010197F1F73A
:100CD000F70181917F010E94D4058E2D89198C1511
:100CE000A0F383E592E00197F1F70F5E1F4F8BE8C9
:100CF000E82EFF24F394C7010197F1F70E949905AC
:100D00008993C017D107B9F790E080E0DF91CF91C8
:100D10001F910F91FF90EF90DF90CF90BF90AF9019
:100D20009F908F90089581E090E0F0CF90E0FC01DB
:100D3000E95EF54F2491FC01ED5AF54F3491FC0129
:100D4000E15CF54FE491EE23C9F0222339F0233022
:100D500001F1A8F4213019F1223029F1F0E0EE0F71
:100D6000FF1FE55DF54FA591B4918FB7F894EC9115
:100D7000611126C030953E233C938FBF08952730E4
:100D8000A9F02830C9F0243049F7809180008F7D88
:100D900003C0809180008F7780938000DFCF84B57F
:100DA0008F7784BDDBCF84B58F7DFBCF8091B00082
:100DB0008F778093B000D2CF8091B0008F7DF9CF34
:100DC0003E2BDACFCF93DF9390E0FC01ED5AF54F45
:100DD0002491815C954FFC0184918823D1F090E0AF
:100DE000880F991FFC01E35FF54FA591B491FC01B9
:100DF000E55DF54FC591D49161110EC09FB7F89490
:100E00008C91E22FE0958E238C932881E223E88356
:100E10009FBFDF91CF9108958FB7F894EC91E22BAB
:100E2000EC938FBFF6CF3FB7F8948091C0019091BB
:100E3000C101A091C201B091C30126B5A89B05C014
:100E40002F3F19F00196A11DB11D3FBFBA2FA92F49
:100E5000982F8827BC01CD01620F711D811D911D46
:100E600042E0660F771F881F991F4A95D1F70895B2
:100E70008F929F92AF92BF92CF92DF92EF92FF92AA
:100E80006B017C010E9413074B015C01C114D1046A
:100E9000E104F104B9F00E941307681979098A097D
:100EA0009B09683E73408105910580F321E0C21AD9
:100EB000D108E108F10888EE880E83E0981EA11C95
:100EC000B11CE4CFFF90EF90DF90CF90BF90AF9038
:100ED0009F908F900895262F2695820F911DFC01DB
:100EE000808160FD02C08F7008958295FCCFAF9223
:100EF000BF92CF92DF92EF92FF920F931F93CF9307
:100F0000DF936C017B018B01040F151FEB015E0168
:100F1000AE18BF08C017D10759F06991D601ED91FD
:100F2000FC910190F081E02DC6010995892B79F79C
:100F3000C501DF91CF911F910F91FF90EF90DF904E
:100F4000CF90BF90AF900895FC01538D448D252F15
:100F500030E0842F90E0821B930B541710F0CF9653
:100F6000089501970895FC01918D828D981761F085
:100F7000A28DAE0FBF2FB11D5D968C91928D9F5F9C
:100F80009F73928F90E008958FEF9FEF0895FC017B
:100F9000918D828D981731F0828DE80FF11D858D2E
:100FA00090E008958FEF9FEF0895FC01918D228DC1
:100FB000892F90E0805C9F4F821B91098F73992746
:100FC000089585EC91E00E94D50721E0892B09F472
:100FD00020E0822F089580E090E0892B29F00E9484
:100FE000E10781110C9400000895FC01A48DA80F65
:100FF000B92FB11DA35ABF4F2C91848D90E001965B
:101000008F739927848FA689B7892C93A089B1897A
:101010008C91837080648C93938D848D981306C01B
:101020000288F389E02D80818F7D80830895EF927F
:10103000FF920F931F93CF93DF93EC0181E0888F92
:101040009B8D8C8D98131AC0E889F989808185FF62
:1010500015C09FB7F894EE89FF896083E889F98904
:1010600080818370806480839FBF81E090E0DF9106
:10107000CF911F910F91FF90EF900895F62E0B8D59
:1010800010E00F5F1F4F0F731127E02E8C8D8E1114
:101090000CC00FB607FCFACFE889F989808185FF7B
:1010A000F5CFCE010E94F507F1CFEB8DEC0FFD2FB0
:1010B000F11DE35AFF4FF0829FB7F8940B8FEA8936
:1010C000FB8980818062CFCF0F931F93CF93DF93F3
:1010D0008C01D0E0C0E0F801EC0FFD1F64916623A5
:1010E00041F085EC91E00E941708892B11F02196C0
:1010F000F2CFCE01DF91CF911F910F910895682F0C
:1011000085EC91E00C941708CF93DF93EC01888D68
:101110008823B9F0AA89BB89E889F9898C9185FD72
:1011200003C0808186FD0DC00FB607FCF7CF8C9100
:1011300085FFF2CF808185FFEDCFCE010E94F507BC
:10114000E9CFDF91CF910895CF92DF92EF92FF9296
:101150000F931F93CF93DF937C01C62ED42E152FB0
:10116000022F8CEC0E94D405CBE8D1E0CE01019790
:10117000F1F7F70180810E94D405F1E0CF1631F03C
:101180002197F1F7F70181810E94D40583E592E070
:101190000197F1F7CD2DD12F0C0F1D2F111D8BE8CD
:1011A000E82EFF24F394C017D10739F0C701019747
:1011B000F1F70E9499058993F6CF90E080E0DF91E6
:1011C000CF911F910F91FF90EF90DF90CF900895F6
:1011D000EF92FF920F931F93CF93DF937C01162F13
:1011E000042FD0E0C0E0011740F0612FC7010E943A
:1011F0006B07C80FD11D1F5FF6CFCE01CF3FD105C2
:1012000019F010F08FEF90E08F70DF91CF911F9168
:101210000F91FF90EF900895AF92BF92CF92DF921F
:10122000EF92FF920F931F93CF93DF938C01EB010B
:101230008A898D3008F065C084E08BAB6B8970E0E3
:1012400090E080E00E942F2020E030E040E251E476
:101250000E94851F6CAB7DAB8EAB9FAB4FE060E017
:10126000C8010E94E808A82EDB8C81E0AD1080E068
:1012700089AF4FE160E1C8010E94E808B82EEC8C0C
:1012800081E0BE1080E08AAF48E260E2C8010E94BF
:10129000E808C82EFD8C81E0CF1080E08BAF4FE2D4
:1012A0006CE2C8010E94E80891E02E8D281390E0BE
:1012B0009CAF4DE360E3C8010E94E80891E02F8DE8
:1012C000281390E09DAF8FE0D81207C0E81205C048
:1012D000F81203C08D898F30D1F0AD1018C081E0B5
:1012E000BE1003C0CF1001C080E088AFDF91CF9166
:1012F0001F910F91FF90EF90DF90CF90BF90AF9034
:1013000008958E3110F485E098CF8AE096CF81E081
:10131000ECCF0F931F93CF93DF938C01D42F0E94B8
:101320006B07C82F6D2FC8010E946B0790E1C99F02
:10133000E00111248C2BDF91CF911F910F91089523
:10134000CF92DF92EF92FF920F931F93CF93DF9391
:10135000EC018B0147E166E10E948909F801808375
:1013600041E260E2CE010E948909F801818343E2F3
:1013700062E2CE010E948909F801828368E2CE010F
:101380000E946B07F801838341E360E3CE010E9472
:101390008909F801848343E362E3CE010E9489094D
:1013A000F80185836CE2CE010E946B0782FB8827DF
:1013B00080F9F801808764E3CE010E946B07D82E84
:1013C00065E3CE010E946B07C82E66E3CE010E9442
:1013D0006B07F0E18F9F70011124FC2867E3CE01B9
:1013E0000E946B072D2D30E0322F22273295307F5F
:1013F00022273071E82A2E293F29F80137832683D6
:1014000069E2CE010E946B07F80181876AE2CE0192
:101410000E946B07F80182876BE2CE010E946B0786
:10142000F80183876EE3CE010E946B07F801848781
:101430006FE3CE010E946B07F8018587DF91CF91A2
:101440001F910F91FF90EF90DF90CF9008954F7014
:10145000E62FE695E80FF92FF11D908160FD04C09D
:10146000907F942B908308959F7080E1489FA00106
:101470001124F7CFCF9361E088E00E94960662E3E3
:1014800070E080E090E00E9438070E946005C82F5D
:1014900060E088E00E94960681E0C13009F080E0BB
:1014A000CF91089560E088E00C949606CF93DF9387
:1014B000EC0161E088E00E949606BE0190E080E0C9
:1014C000DF91CF910C9438070E94520A1092C40108
:1014D00066E970E080E090E00E94380788EC90E0D8
:1014E0000C94560AAF92BF92CF92DF92EF92FF9286
:1014F0000F931F93CF93DF93CDB7DEB7E3970FB66C
:10150000F894DEBF0FBECDBF082F81E17E0123E23C
:10151000E20EF11CF701282F11922A95E9F76E01CE
:1015200032E1C30ED11CF601282F11922A95E9F75A
:10153000FE0131965F0111928A95E9F710E082E38E
:1015400090E00E94560AA70163E086E591E00E94C0
:101550003406892BA1F00E94520A80E0E3960FB670
:10156000F894DEBF0FBECDBFDF91CF911F910F91D9
:10157000FF90EF90DF90CF90BF90AF900895A601BD
:1015800062E084E591E00E943406892B21F766E948
:1015900070E080E090E00E943807A70163E086E5F4
:1015A00091E00E943406892BB1F6A50162E082E544
:1015B00091E00E943406892B71F60E94520A64E67B
:1015C00070E080E090E00E9438071F5F0113B7CF02
:1015D0000E94640A81E0C2CF9F92AF92BF92CF92E5
:1015E000DF92EF92FF920F931F93CF93DF93F82E2A
:1015F000992EB62E8A01E22E84E690E00E94560AC9
:101600000E946005811110C00E94520A81E090E0A2
:10161000DF91CF911F910F91FF90EF90DF90CF90CE
:10162000BF90AF909F90089583E30E94D405E80196
:10163000085F1F4F2BE8C22EDD24D394C60101970B
:10164000F1F70E9499058993C017D107B9F7AF2C1C
:10165000CF2DD92D9BE8C92EDD24D394C601019747
:10166000F1F789910E94D4058C2F8A198B15B0F35C
:1016700083E592E00197F1F7E80110E08BE8C82ECE
:10168000DD24D394E11641F0C6010197F1F70E94E1
:10169000990589931F5FF6CF0E94520A90E080E07F
:1016A000B7CFAF92BF92CF92DF92EF92FF920F939C
:1016B0001F93CF93DF93182FD92EB62E7A01022FC6
:1016C00084E690E00E94560A0E94600581110FC0D6
:1016D0000E94520A81E090E0DF91CF911F910F911B
:1016E000FF90EF90DF90CF90BF90AF9008958CEC7B
:1016F0000E94D405A12EC12FDD2D9BE8C92EDD242B
:10170000D394C6010197F1F789910E94D4058C2FDB
:101710008A198B15B0F383E592E00197F1F7E701A1
:101720000E0D1F2D111D8BE8E82EFF24F3940C17CE
:101730001D0739F0C7010197F1F70E9499058993B8
:10174000F6CF0E94520A90E080E0C6CFCF93DF939D
:10175000D82FC92F20E2482F592F62E081E291E073
:101760000E94510B892BB1F4ED2FFC2FAF01405E8D
:101770005F4F8FEF90E02191922B8223E417F507C2
:10178000D1F7992339F08F3F41F081E090E0DF916C
:10179000CF91089590E080E0FACF8FEF9FEFF7CFE1
:1017A000CF93DF931F92CDB7DEB78091B00188232E
:1017B00091F0198221E0AE014F5F5F4F63E08EE14F
:1017C00091E00E94510B1092B00164E170E080E062
:1017D00090E00E9438070F90DF91CF9108950F930A
:1017E0001F93CF93DF931F92CDB7DEB7198221E00D
:1017F000AE014F5F5F4F63E086E591E00E94510BC1
:101800008C01892B49F481E08093B00164E170E0A0
:1018100080E090E00E943807C8010F90DF91CF91DF
:101820001F910F910895CF92DF92EF92FF920F9345
:101830001F93CF93DF93CDB7DEB729970FB6F894F8
:10184000DEBF0FBECDBF962F20916402309165029E
:10185000232B09F444C050E070E060E0592B682B62
:101860008B0122273327C52ED62EE72EFF24BC2D31
:10187000A42F80916A02882391F0A82FB0E0A09F46
:10188000F001A19FF00DB09FF00D11240F2F8C9D42
:1018900060011124BD2D849FA0011124A52FE0918A
:1018A000700280916B0290916C0220916D02E217A0
:1018B00021F0E80FF92FF11D1082E0916D02E80F81
:1018C000F92FF11D0083E0916E02E80FF92FF11D51
:1018D000B08320916F02820F911DFC01A083809143
:1018E0006B0290916C02892B09F47CC00E94130753
:1018F0000091710210917202209173023091740272
:10190000601771078207930740F460937102709328
:10191000720280937302909374020091710210918D
:1019200072022091730230917402601B710B820B62
:10193000930B6C32714081059105C0F2F89480914F
:101940006602909167029A838983E0916B02F0911D
:101950006C02DF0111968081898790916202E0918B
:101960007502F091760280917702992309F449C0BB
:101970009081982B98879081809589238F838F8180
:101980008C8388E08B8358856F8149853B812C81CE
:1019900089819A81508347FD252F3A952083262FF0
:1019A00039F0441F00C000006083000000C0F2CF87
:1019B00038E04D9160830000019761F7F093760263
:1019C000E093750249873B832C839A8389837894BB
:1019D0000E941307609371027093720280937302E6
:1019E0009093740229960FB6F894DEBF0FBECDBF58
:1019F000DF91CF911F910F91FF90EF90DF90CF90EB
:101A000008959081982B98879081809589238F8362
:101A10008F818E8388E08D8358856F8149853D81D4
:101A20002E8189819A81508347FD252F00C000C0F7
:101A3000208300C000C000C000C000C06083000060
:101A4000262F3A9541F0441F000000C000C000C09E
:101A500000C000C0E8CF38E04D9100C0608300C0F6
:101A6000019709F7F0937602E093750249873D8369
:101A70002E83ABCF40E060E080E50C94130C40E097
:101A800060E580E00C94130C40E060E080E00C9492
:101A9000130CFC0101900020E9F73197AF01481BBE
:101AA000590BBC0185EC91E00C9477078BE691E033
:101AB0000C94490DCF93DF930E946408EC010E94BF
:101AC000560D8C0F9D1FDF91CF91089588E690E011
:101AD0000C945A0D8F929F92AF92BF920F931F93C7
:101AE000CF93DF93CDB7DEB7A1970FB6F894DEBFE3
:101AF0000FBECDBF19A2423008F44AE08E010F5D3F
:101B00001F4F842E912CB12CA12CA50194010E9471
:101B1000C91EE62FB901CA01EA30F4F4E05DD8012C
:101B2000EE938D01232B242B252B79F790E080E079
:101B3000109719F0CD010E94490DA1960FB6F894A7
:101B4000DEBF0FBECDBFDF91CF911F910F91BF9030
:101B5000AF909F908F900895E95CE1CFCF93DF9392
:101B6000682F70E090E080E04AE00E946A0DEC018E
:101B70000E94560D8C0F9D1FDF91CF9108954F92BB
:101B80005F926F927F928F929F92AF92BF92CF920D
:101B9000DF92EF92FF92CF93DF936B017C01D42F02
:101BA000AC019B010E945121882391F08EE691E0C7
:101BB000DF91CF91FF90EF90DF90CF90BF90AF90EB
:101BC0009F908F907F906F905F904F900C94490DF5
:101BD00026013701E89477F82FEF3FEF4FE75FE7F3
:101BE000C301B2010E94512181110DC02FEF3FEFBF
:101BF0004FE75FE7C301B2010E94801F18161CF473
:101C000082E791E0D5CF2FEF3FEF4FE75FE4C701C9
:101C1000B6010E94DF2018161CF486E791E0C8CFB9
:101C20002FEF3FEF4FE75FECC701B6010E94801F27
:101C300087FDF3CF20E030E0A901C701B6010E9483
:101C4000801F912C812C87FF08C08DE20E947F08A5
:101C50004C01F7FAF094F7F8F094CD2FA12C60E046
:101C600070E080E09FE3AD1640F420E030E040E219
:101C700051E40E94851FA394F6CFA70196010E940C
:101C8000141F2B013C010E94FE1F5B016C014AE006
:101C90000E946A0D7C01E80CF91CDD23B1F1C6013C
:101CA000B5010E942D209B01AC01C301B2010E942D
:101CB000131F4B015C018EE20E947F08E80EF91EA3
:101CC000C15018F120E030E040E251E4C501B40118
:101CD0000E94E4202B013C010E94FE1F4B01B12C0D
:101CE000A12C4AE0C501B4010E946A0DE80EF91E5C
:101CF000C501B4010E942D209B01AC01C301B201BA
:101D00000E94131F4B015C01DBCFC701DF91CF9114
:101D1000FF90EF90DF90CF90BF90AF909F908F900B
:101D20007F906F905F904F900895CF93DF93D0E0B6
:101D3000C0E0009719F00E94490DEC010E94560D79
:101D40008C0F9D1FDF91CF9108951F920F920FB6B8
:101D50000F9211242F933F938F939F93AF93BF9331
:101D60008091BC019091BD01A091BE01B091BF01D5
:101D70003091BB0123E0230F2D3758F50196A11DAB
:101D8000B11D2093BB018093BC019093BD01A09332
:101D9000BE01B093BF018091C0019091C101A0919B
:101DA000C201B091C3010196A11DB11D8093C00174
:101DB0009093C101A093C201B093C301BF91AF91B1
:101DC0009F918F913F912F910F900FBE0F901F9079
:101DD000189526E8230F0296A11DB11DD2CF1F92A0
:101DE0000F920FB60F9211242F933F934F935F934F
:101DF0006F937F938F939F93AF93BF93EF93FF93D3
:101E000085EC91E00E94F507FF91EF91BF91AF91B2
:101E10009F918F917F916F915F914F913F912F9102
:101E20000F900FBE0F901F9018951F920F920FB634
:101E30000F9211242F938F939F93EF93FF93E09131
:101E4000D501F091D6018081E091DB01F091DC01B8
:101E500082FD1BC090818091DE018F5F8F73209186
:101E6000DF01821741F0E091DE01F0E0EB53FE4F1D
:101E7000958F8093DE01FF91EF919F918F912F912C
:101E80000F900FBE0F901F9018958081F4CF109285
:101E9000C8011092C70188EE93E0A0E0B0E0809303
:101EA000C9019093CA01A093CB01B093CC018DE5F9
:101EB00091E09093C6018093C50185EC90E09093EA
:101EC000D2018093D10184EC90E09093D40180936F
:101ED000D30180EC90E09093D6018093D50181EC02
:101EE00090E09093D8018093D70182EC90E090939A
:101EF000DA018093D90186EC90E09093DC01809325
:101F0000DB011092DE011092DF011092E0011092CD
:101F1000E10160E086E00E94E206E9E5FAE0E49192
:101F2000E0937802E5E4FAE0E491F0E0EE0FFF1FC1
:101F3000EB5CF54F8591949190937A0280937902AE
:101F400010928302109285021092840210928202F3
:101F5000109281021092800210927F0210927E02F3
:101F600010927D0210927C0210927B02109263020A
:101F700010926A0210927102109272021092730211
:101F80001092740281E08093700280936D0210922F
:101F90006E0292E090936F028093620283E090E081
:101FA00090936702809366020E94562190936C0280
:101FB00080936B02009789F123E0FC0111922A952E
:101FC000E9F781E090E0909365028093640280E1FC
:101FD00090E0909369028093680280916302882365
:101FE00041F061E080E10E94E20660E080E10E9451
:101FF0009606EFE4FAE0E491F0E0EE0FFF1FE55DF6
:10200000F54F859194919093760280937502E3E663
:10201000FAE0E491E093770208951092670210923B
:1020200066021092650210926402D1CFCF93DF93C3
:10203000CDB7DEB7C752D1400FB6F894DEBF0FBEA2
:10204000CDBF789484B5826084BD84B5816084BD41
:1020500085B5826085BD85B5816085BD80916E0046
:10206000816080936E001092810080918100826077
:1020700080938100809181008160809381008091B4
:1020800080008160809380008091B10084608093A3
:10209000B1008091B00081608093B00080917A009F
:1020A000846080937A0080917A00826080937A00C5
:1020B00080917A00816080937A0080917A008068B4
:1020C00080937A001092C100E091D501F091D60181
:1020D00082E08083E091D101F091D2011082E09101
:1020E000D301F091D40180E180831092DD01E09171
:1020F000D901F091DA0186E08083E091D701F09177
:10210000D801808180618083E091D701F091D8016E
:10211000808188608083E091D701F091D80180812F
:1021200080688083E091D701F091D80180818F7D14
:10213000808361E088E00E94E20660E088E00E941F
:102140009606809168029091690297FD2EC061E029
:102150000E94E20660E0809168020E94960681E09B
:102160008093630260916A02613541F120916B02B4
:1021700030916C026150E1F070E08FEF90E50E94C9
:10218000B51EF9014091660250916702CF01821B92
:10219000930B8417950778F44081469FC001479FB1
:1021A000900D112490833196EDCF10926302DACF17
:1021B00070E060E0E6CF81E580936A020E94440D02
:1021C00064EF71E080E090E00E9438078AE291E0DD
:1021D0000E945A0D8AE091E00E945A0D89ED90E02C
:1021E0000E945A0D8CEA90E00E945A0D85E990E019
:1021F0000E945A0D1092BA011092B9012091060165
:10220000309107014091080150910901C05FDE4FF4
:10221000288339834A835B83C051D14080910A016E
:1022200090910B01A0910C01B0910D01CC5EDE4F9D
:1022300088839983AA83BB83C451D14020910E0126
:1022400030910F014091100150911101C85EDE4F95
:10225000288339834A835B83C851D140809112011E
:1022600090911301A0911401B0911501C45EDE4F4D
:1022700088839983AA83BB83CC51D14020911601D6
:10228000309117014091180150911901C05EDE4F45
:10229000288339834A835B83C052D14080911A01DD
:1022A00090911B01A0911C01B0911D01CC5DDE4FEE
:1022B00088839983AA83BB83C452D1401E019FE3C4
:1022C000290E311CDE01AB51BF4FCB5FDE4FB9830E
:1022D000A883C550D140F1017296C25FDE4FF983E9
:1022E000E883CE50D1408FB7F894C090BC01D09015
:1022F000BD01E090BE01F090BF018FBF85EC91E081
:102300000E94D507892BB9F085EC91E00E94B307B4
:102310008F7D833581F48091B9019091BA01019745
:1023200051F084EF99E00E945A0D81E090E0909383
:10233000BA018093B9018091B5019091B601A09145
:10234000B701B091B801A7019601281B390B4A0BC0
:102350005B0BDA01C90180329340A105B105F0F0B1
:102360000091B9011091BA01C092B501D092B601A5
:10237000E092B701F092B8010E943A0A01151105E6
:1023800009F0ACC0882389F080ED99E00E945A0DD5
:1023900081E090E09093BA018093B9018091B901F6
:1023A0009091BA01892B09F045C08091B1019091BB
:1023B000B201A091B301B091B401A7019601281B0D
:1023C000390B4A0B5B0BDA01C9014497A105B10532
:1023D00088F1C092B101D092B201E092B301F092C3
:1023E000B4012FB7F8946091BC017091BD01809148
:1023F000BE019091BF012FBF20ED37E040E050E0DB
:102400000E94C91E9B01AC01283E83E038074105AC
:10241000510508F07EC0A0E5B0E00E94EB1E28EE5A
:1024200033E040E050E00E94C91E822F422F682F07
:102430000E94130C8091B9019091BA01019711F09B
:102440000C94951E0E94D00B0E94640A40E560E047
:1024500080E00E94130C84E199E00E945A0D85EF00
:1024600098E00E945A0D88EC98E00E945A0D8EE385
:10247000D1011D928A95E9F780E090ECA9E7B4ECD0
:10248000F10183A794A7A5A7B6A787A790ABA1AB97
:10249000B2AB8FEF9FEF61969FAF8EAF619780E2F7
:1024A000CB5FDE4FA881B981C550D1401D928A957E
:1024B000E9F71FE0CE018B519F4F0E94A60B0097BA
:1024C00011F00C94771E68EC70E080E090E00E94C0
:1024D0003807115079F781E998E0FFC402301105FF
:1024E00009F0A8CF8111A6CF0E94560D83EA99E08A
:1024F0000E945A0D85E899E00E945A0D88E599E0FE
:102500000E945A0D0E94440D1092BA011092B90116
:1025100045CFA0EBBFEF0E94F91E7F588D4F9F4F14
:102520007ECFC25FDE4F68817981CE50D140CE012F
:102530008B519F4F0E94A009B101CE018B519F4F3B
:102540000E940C09FE0131965F0188E2DF011D92B5
:102550008A95E9F720E2AF0162E081E291E00E9412
:10256000EC0A88E0F501DE01A95BBF4F01900D92F6
:102570008A95E1F72B968FAD2B97843608F08DC0A6
:1025800085E090E061969FAF8EAF6197EE961FAEAB
:10259000EE9720E0AE0143585F4F61E08CE291E09E
:1025A0000E94510B892B09F4E2C06AE771E0C10176
:1025B0000E947B220E94660D85EF97E00E946408CE
:1025C000C1010E94950E61968EAD9FAD61970097F7
:1025D00019F00297029718F481E00E94720A4E01E6
:1025E000BDE78B0E911C88E2F40111928A95E9F700
:1025F000E396DFACE39761968EAD9FAD6197853032
:10260000910509F4EBC0069709F4F3C18BE1D501FC
:102610001D928A95E9F72BE1A50164E083E391E03F
:102620000E94510B892B09F051C269817A81611591
:10263000710509F44BC290E080E00E942D2020E05B
:1026400030E04AE754E40E94851F2B013C01B5E0CD
:10265000BD1510F4A5E0DA2E85017401C12C0E5FC2
:102660001F4FDC1409F448C2D80111966C911197E0
:102670008C91762F682F90E080E00E942D2020E042
:1026800030E04AE754E40E94851FF701619371939B
:10269000819391937F01C394E2CFCA50DF4F888129
:1026A000C65FD0408E3109F45FC081E1F50111921F
:1026B0008A95E9F721E1A50162E089E291E00E94B3
:1026C000510B892BC1F489898630A9F461961FAE1C
:1026D0001EAE619780E1D5011D928A95E9F720E150
:1026E000A50162E08DE291E00E94510B892B09F473
:1026F00061C01FAE5FCF0E94EF0B892B09F581E10E
:10270000D5011D928A95E9F721E1A50162E087E2F2
:1027100091E00E94510B8C010E94D00B66E970E0A1
:1027200080E090E00E943807012B51F489898630BF
:1027300039F482E090E061969FAF8EAF6197CACF87
:1027400019821A821B8223E0A50164E083E291E0F2
:102750000E94510B892B09F0B9CF8B81863009F08B
:10276000B5CF83E090E0E7CF86E090E0E4CF1A8237
:10277000198222E0A50161E08BE291E00E94510BF9
:10278000892B09F012CF89811F928F938A811F9222
:102790008F9381E891E09F938F931F9288E08F93AE
:1027A0003F922F920E9482220FB6F894DEBF0FBE96
:1027B000CDBF00CFF501D1019E01285F3F4F819130
:1027C00090EE980F9F3528F01C9227961FAE279702
:1027D000F1CE8D932E173F0791F7F7CF1D2D1630B1
:1027E00008F015E084E690E00E94560A740100E0CB
:1027F000412C512C32018BE8C82EDD24D3941017C4
:1028000009F440C00E9460058823B9F1C601019710
:10281000F1F781E3800F0E94D40583E592E00197F0
:10282000F1F70E949905C95FDE4F8883C750D140F8
:10283000C6010197F1F70E949905C95FDE4FF88143
:10284000C750D140982F8F2FBC0190E080E00E94AC
:102850002D2020E030E04AE754E40E94851F9B01D0
:10286000AC01D7012D933D934D935C931397C30116
:10287000B2010E94141F2B013C010F5FB4E0EB0E6C
:10288000F11CBDCF0E94520A61968EAD9FAD61973B
:102890009C01255031092230310530F5069709F4A5
:1028A000A6C11A82198222E0A50161E08BE391E0C2
:1028B0000E94510B892B09F0BDC169817A8190E09A
:1028C00080E00E942D2020E030E040E251E40E94B0
:1028D000851F23E333E948E853E40E94131FF10105
:1028E00063A774A785A796A761968EAD9FAD6197E4
:1028F0009C01255031092230310508F0A3C16796AB
:102900002FAD67972E3108F49AC12D51330B69967C
:102910000EAD1FAD699766964FAD669783E290E066
:10292000841B910997FF02C090E080E0820F931F03
:10293000809FB001819F700D909F700D112490E0D9
:1029400080E00E942D2020E030E040E05DE30E9426
:10295000E4206B017C01B80190E080E00E942D2012
:102960009B01AC01C701B6010E94141F6B017C01E1
:1029700063968FAD63978A3141F08C3131F08832A4
:1029800021F068E572E0823311F468EE73E090E0C4
:1029900080E00E942D209B01AC01C701B6010E947E
:1029A000851F9B01AC0160E070E080E890E40E942C
:1029B000131F6B017C0120E030E0A9010E94801F01
:1029C00087FF03C0C12CD12C7601D1019096CD9206
:1029D000DD92ED92FC929397A6961FAEA697A596D0
:1029E0001FAE1EAEA597F10117A210A611A612A642
:1029F0006EC2CB55DF4F1882C55AD04084E1F50135
:102A000011928A95E9F784E690E00E94560A0E94A6
:102A10006005882349F020E0AE014B555F4F62E02E
:102A200088E391E00E94A4086AE070E080E090E012
:102A30000E9438070E946005882339F024E1A5012F
:102A400061E087E391E00E94A4080E94520AFAE044
:102A5000FD1510F4BAE0DB2E85017401C12C412C68
:102A6000512C3201DC1409F40FCFD80111966C916E
:102A700011978C91762F682F90E080E00E942D2096
:102A800020E030E040E251E40E94851F9B01AC0150
:102A900060E070E88BEB95E40E94131F20E030E0CB
:102AA0004AE754E40E94851F9B01AC01F701219382
:102AB0003193419351937F01C301B2010E94141FCE
:102AC0002B013C01C3940E5F1F4FCCCF8E010B55E1
:102AD0001F4F8DE0F80111928A95E9F72DE0A801CA
:102AE00064E08FE291E00E94510B892B09F447C00A
:102AF000412C512C3201C8CE6F85788909891A89F9
:102B0000693EF3E07F07B0F190E080E00E942D2065
:102B100020E030E040E251E40E94851F23E333E9E6
:102B200048E853E40E94131FD1019B966D937D9357
:102B30008D939C939E9760E070EC89E794EC093E3E
:102B4000B3E01B0788F0B80190E080E00E942D20E0
:102B500020E030E040E251E40E94851F23E333E9A6
:102B600048E853E40E94131FF10167A770AB81ABE3
:102B700092AB8ACE60E070EC89E794ECD5CFD801B7
:102B80001C968C911C97863009F0B2CF6D917C9188
:102B900090E080E00E942D2020E030E04AE754E4FD
:102BA0000E94851F2B013C01B5E0BD1510F4F5E036
:102BB000DF2E7401C12C0E5F1F4FDC1409F464CEAC
:102BC000F80161818081762F682F90E080E00E947B
:102BD0002D2020E030E04AE754E40E94851FD70111
:102BE0006D937D938D939D937D01C394E4CF198262
:102BF00021E0A50161E08AE391E00E94510B892B5D
:102C0000C9F4698170E090E080E00E942F2020E00C
:102C100030E040E252EC0E94E42020E03CEA41E156
:102C200056E40E94141F20E030E048EC52E40E9479
:102C3000851F55CE60E070EC89E794EC50CE30E013
:102C400020E065CE009779F082309105C9F00397B6
:102C500009F0A3C1CC5DDE4F288139814A815B81B7
:102C6000C452D14008C0C45EDE4F288139814A81F8
:102C70005B81CC51D14029833A834B835C830CC068
:102C8000C05EDE4F88819981AA81BB81C052D1404C
:102C900089839A83AB83BC83CB55DF4F188219821B
:102CA0001A82C55AD04023E0AE014B555F4F64E015
:102CB000C5010E94510B892B69F4C955DF4F8881EA
:102CC000C75AD040CB55DF4F68817981C55AD04073
:102CD000863011F070E060E063961FAD63971123BA
:102CE00099F190E080E00E942D206B017C01612F22
:102CF00070E090E080E00E942F209B01AC01C701B2
:102D0000B6010E94851F6B017C0120E030E040EAA3
:102D100052E40E94DF201816E4F120E030E040E2A7
:102D200051E4C701B6010E94851F20E030E040EA6F
:102D300050E40E94131F6B017C0120E030E0A901E8
:102D40000E94801F87FF03C0C12CD12C7601D101C6
:102D50009096CD92DD92ED92FC92939761968EAD16
:102D60009FAD619782309105D9F08330910509F4C8
:102D7000C5C0892B09F0CBC0C85EDE4F28813981E0
:102D80004A815B81C851D14029833A834B835C835C
:102D900013C0C12CD12CE0E8EE2EE0E4FE2ED7CFFC
:102DA000C05FDE4F88819981AA81BB81C051D1402B
:102DB00089839A83AB83BC83CB55DF4F19821882FA
:102DC000C55AD04022E0AE014B555F4F64E0C501CB
:102DD0000E94510B892B09F09AC0CA55DF4F888198
:102DE000C65AD040863009F092C0CB55DF4F88815B
:102DF000C55AD040A6968FAFA69761968EAD9FAD6F
:102E000061978230910509F484C08330910509F4FB
:102E1000A3C0892B09F0BAC088E0D5011D928A951C
:102E2000E9F728E0A50164E084E491E00E94510BF9
:102E3000892B09F0ABC08885863009F0A7C02F81A7
:102E4000B0E12B9FA0011124407F53709E81292F58
:102E500030E064E0359527956A95E1F7242B352B12
:102E60008D8190E0982F8827882793704C81842B40
:102E7000820F931F498142954695469543702A815A
:102E8000E4E02E9F90011124242B820F931FA5961E
:102E90009FAF8EAFA59785E0D5011D928A95E9F782
:102EA00025E0A50164E088E491E00E94510B892BA4
:102EB00009F06FC08D81863009F06BC089819A81DD
:102EC000AB81BC81F10187A390A7A1A7B2A70E9403
:102ED0003A0A811180C08EEC97E00E945A0D0E9440
:102EE000440D0E94520A0E94440D1092BA011092A1
:102EF000B90181E499E00E945A0D17C7CC5EDE4FFC
:102F0000288139814A815B81C451D1403DCF80E025
:102F100071CF88E0D5011D928A95E9F728E0A501D7
:102F200064E080E491E00E94510B892B79F588855B
:102F3000863061F529818B81E22FE80FFF27FF1F83
:102F40002C812E0F3F2F311D8E81280F311D8F8137
:102F5000820F932F911D9BCF86E0D5011D928A95FC
:102F6000E9F726E0A50164E08CE391E00E94510BB3
:102F7000892B61F48E81863049F489819B81E82F09
:102F8000E90FFF27FF1F9F018C81E2CF90E080E0D7
:102F90007ECF80E090E0DC0195CFC450DF4F6881A8
:102FA000CC5FD0406F7070E075956795C12CD12CC7
:102FB00020E8E22E20E4F22E633008F406CD6730DC
:102FC00009F400CD62507109072E000C880B990B93
:102FD0000E942F20E6CC0E94660D86E294E00E94BB
:102FE0006408C1010E94950E84E194E00E94640887
:102FF0008101085F1F4FF12CD8018D918D01803127
:1030000018F480E30E947F08F8013197608170E036
:1030100090E080E040E10E946A0DB7E0FB1619F0F5
:1030200080E20E947F08F394E8E0FE12E5CF0E9460
:10303000560D28968FAD28971F928F9329968FADA6
:1030400029971F928F932A968FAD2A971F928F935D
:103050008CE891E09F938F931F928DE08F938E0168
:103060000B551F4F1F930F930E94822282E094E022
:103070000E946408C8010E94950E80EF93E00E94B0
:1030800064086196CEACDFAC61970D2C000CEE08A5
:10309000FF080FB6F894DEBF0FBECDBF4AE0C701F0
:1030A000B601F7FE0BC08DE20E947F0866277727E6
:1030B000CB016C197D098E099F094AE00E946A0DB7
:1030C0000E94560D8EED93E00E94640862966FADEB
:1030D000629770E090E080E04AE00E946A0D8AED1D
:1030E00093E00E94640862968FAD62978D3008F07D
:1030F0004CC08CEC93E00E94640889E20E947F0837
:103100000E94560D8DE993E00E946408D101D49687
:103110006D917D918D919C91D79741E050E00E94F7
:10312000BF0D89E993E00E945A0D0E94660D87E861
:1031300093E00E946408E8968FADE897882369F1D0
:103140008EE693E00E945A0D85E793E00E946408A2
:103150006A968FAD6A97882319F18FE493E00E94F5
:103160005A0D83E593E00E94640865968FAD6597DC
:10317000813009F473C2B8F0853009F472C28F301F
:1031800009F472C20E94AE0D12C08E3118F48EEB9B
:1031900093E0B1CF8FEA93E0AECF85E693E0D2CF54
:1031A0008CE493E0DCCF85E493E00E945A0D8BEE33
:1031B00092E00E946408E9968FADE997882309F4AC
:1031C00056C286ED92E00E945A0D89ED92E00E946F
:1031D0006408EA968FADEA97882309F44BC28CEB1A
:1031E00092E00E945A0D8FEB92E00E946408EB96E9
:1031F0008FADEB97882309F440C282EA92E00E94E7
:103200005A0D85EA92E00E946408EC968FADEC9727
:10321000882309F435C288E892E00E945A0D8BE8B1
:1032200092E00E946408ED968FADED97882309F433
:103230002AC284E592E00E945A0D0E94660D81E741
:1032400092E00E94640869966EAD7FAD699790E048
:1032500080E04AE00E946A0D0E94560D8FE592E0E0
:103260000E946408F10160A171A182A193A142E0D2
:1032700050E00E94BF0D87E592E00E946408D101F2
:103280009096CD90DD90ED90FC90939720E030E00B
:10329000A901C701B6010E94DF2020E030E040E034
:1032A0005FE387FDF3C1C701B6010E94141F0E94AE
:1032B000F71F8B01F12CE12C83E2E016F1060CF0F4
:1032C0008DE20E947F08BFEFEB1AFB0AE4E0EE16E6
:1032D000F10491F789E20E947F080E94560D6196E1
:1032E0008EAD9FAD6197009721F00297029708F08D
:1032F00087C08DE392E00E946408A6968FADA697E2
:103300000E94AE0D8BE292E00E946408A5966EAD1D
:103310007FADA59790E080E04AE00E946A0D0E9490
:10332000560DA696FFACA697FF2091F169960EADBB
:103330001FAD69970115110559F189E192E00E94CD
:1033400064086F2D70E090E080E00E942F2020E064
:1033500030E048EC52E40E94E4206B017C01B801AB
:1033600090E080E00E942D209B01AC01C701B601D6
:103370000E94851F20E030E040E850E40E94141FC6
:1033800041E050E00E94BF0D86E192E00E945A0D9C
:10339000A596EEACFFACA597E114F10489F169960E
:1033A0000EAD1FAD69970115110551F184E092E052
:1033B0000E946408B70190E080E00E942D2020E088
:1033C00030E048EC52E40E94E4206B017C01B8013B
:1033D00090E080E00E942D209B01AC01C701B60166
:1033E0000E94851F20E030E040E850E40E94141F56
:1033F00041E050E00E94BF0D81E092E00E945A0D32
:1034000061968EAD9FAD61970597029708F054C005
:1034100066966FAD669770E090E080E00E942F2086
:1034200020E030E040EA50EC0E94E42020E030E070
:1034300040E253E40E94141FC95FDE4F6883798322
:103440008A839B83C750D14067966FAD679770E0C2
:1034500090E080E00E942F2020E030E040EA50E43D
:103460000E94E42020E030E040E253E40E94131F79
:103470006B017C018FEE91E00E94640841E050E016
:10348000C95FDE4F688179818A819B81C750D140B5
:103490000E94BF0D8CEE91E00E945A0D8AED91E0E2
:1034A0000E94640841E050E0C701B6010E94BF0DD0
:1034B00087ED91E00E945A0D20E030EC49E754EC92
:1034C000D1019B966D917D918D919C919E970E94CB
:1034D000801F8111E0C020E030EC49E754ECF1019D
:1034E00067A570A981A992A90E94801F8111E6C0D9
:1034F0000E94660D8BE991E00E94640843E050E071
:10350000C301B2010E94BF0D88E991E00E945A0DEB
:10351000F401F081C95FDE4FF883C750D140D40178
:103520001196BC91C55FDE4FB883CB50D140F401FA
:10353000C280D380C95FDE4F6880C750D1407B2EE8
:10354000C45FDE4FC882CC50D140C35FDE4FD8820B
:10355000CD50D140512CE3968FADE397581608F02B
:10356000CFC0052D10E0C80101969F938F932DE9E0
:1035700031E03F932F931F9256E15F93BF92AF923A
:103580000E948222C5010E94490D000F111F000FE9
:10359000111F080D191DD8016D917D918D919C9180
:1035A00043E050E00E94BF0D85E991E00E945A0D72
:1035B000F8014080E180F28013810FB6F894DEBFFD
:1035C0000FBECDBFC95FDE4F2881C750D140C55F58
:1035D000DE4F3881CB50D140A601642D7E2D8F2D3A
:1035E000912F0E94DF20181664F4C95FDE4F4882D5
:1035F000C750D140C55FDE4FE882CB50D140CF2CC1
:10360000D12E9301C45FDE4F4881CC50D140C35FBF
:10361000DE4F5881CD50D140642D7E2D8F2D912FBE
:103620000E94801F87FD0CC0462CE72CC45FDE4F34
:10363000F880CC50D140C35FDE4F1881CD50D140CF
:103640005394642C7E2CC45FDE4FF882CC50D14062
:10365000C35FDE4F1883CD50D1407DCF86E393E02A
:10366000A4CD8AE293E0A1CD8DEF92E09ECD81EDD5
:1036700092E0A9CD87EB92E0B4CD8DE992E0BFCD89
:1036800083E892E0CACD8FE492E0D5CDC701B601C0
:103690000E94131F0CCE85EC91E00E946408D101BA
:1036A0009B966D917D918D919C919E9741E050E00C
:1036B0000E94BF0D82EC91E00E945A0D20E030EC98
:1036C00049E754ECF10167A570A981A992A90E946C
:1036D000801F882309F40CCF80EB91E00E946408DE
:1036E000D1019F966D917D918D919C91D29741E0F2
:1036F00050E00E94BF0D8DEA91E00E945A0DF8CE75
:103700009301C45FDE4F4881CC50D140C35FDE4F90
:103710005881CD50D140C95FDE4F6881C750D1403C
:10372000C55FDE4F7881CB50D140C6010E94131F88
:103730006B017C0183E891E00E94640843E050E063
:10374000C701B6010E94BF0D80E891E00E945A0DAA
:1037500061968EAD9FAD6197009721F00297029719
:1037600008F055C0D10197966D917D918D919C91F6
:103770009A97611571058105910509F448C0639612
:103780001FAD6397112309F442C00E942D206B01E5
:103790007C01612F70E090E080E00E942F209B016F
:1037A000AC01C701B6010E94851F20E030E044E370
:1037B00055E40E94851F6B017C0120E030E040E26F
:1037C00051E40E94801F11E087FD10C020E030E02E
:1037D00040E251E4C701B6010E94851F0E94F71F15
:1037E0006830710514F067E070E0162F0E94660DD6
:1037F0008EE691E00E946408612F70E090E080E026
:103800004AE00E946A0D89E691E00E945A0D0E94EA
:10381000660D87E591E00E9464088E010B511F4FF1
:10382000D12C7801F80181918F01803118F480E367
:103830000E947F08F8013197608170E090E080E09D
:1038400040E10E946A0DFFE1DF1619F080E20E945C
:103850007F08D39420E2D212E5CF0E94560D0E9439
:10386000660DE8968FADE89781111BC082EB97E05B
:103870000E945A0D0E943F0D61968EAD9FAD6197DB
:10388000009719F00297029718F483E00E94720AD9
:103890000E943F0D0E94660D84EC97E00E945A0D35
:1038A0003CC283E997E00E94640865968FAD6597F6
:1038B0000E94AE0D61968EAD9FAD6197009741F16C
:1038C0000297029728F184E797E00E9464086196C6
:1038D000CEACDFAC61970D2C000CEE08FF084AE07F
:1038E000C701B601F7FE0BC08DE20E947F08662774
:1038F0007727CB016C197D098E099F094AE00E9448
:103900006A0D8DE597E00E945A0D0E943A0DC2CFD4
:1039100082E497E00E945A0D40E06CE380E50E944B
:10392000130C82E00E94720A0E94640A0E94EF0B4C
:10393000892B39F08FED96E00E945A0D89E097E0CF
:10394000E2CF8E010F5F1F4F81E1D8011D928A9552
:10395000E9F729E0A80162E080E591E00E94EC0A25
:1039600062E370E080E090E00E9438070E94D00B94
:1039700062E370E080E090E00E943807C7010E9497
:10398000A60B019719F08CEB96E0D6CFB1016E5ED5
:103990007F4FC7010E94A009B101C7010E940C0915
:1039A00088EA96E00E946408E9968FADE99788233B
:1039B00071F181E996E00E945A0D84E996E00E9437
:1039C0006408EA968FADEA97882321F185E796E0AF
:1039D0000E945A0D88E796E00E946408EB968FAD2E
:1039E000EB978823D1F08DE696E00E945A0DE89679
:1039F0008FADE897811114C080E596E00E945A0DC2
:103A000083E297E00E945A0D0E943F0D3ECF8CE862
:103A100096E0D1CF80E796E0DBCF88E696E0E5CF71
:103A2000E9968FADE997882369F0EA968FADEA971A
:103A3000882341F0EB968FADEB97882319F087E14F
:103A400096E07ACF87ED95E00E945A0D40E560E060
:103A500080E50E94130C82E00E94720A80E2F70166
:103A6000DE01AB53BF4F01900D928A95E1F740E024
:103A700068E2CE018B539F4F0E94270A4FE060E01F
:103A8000CE018B539F4F0E94E808482F69E2CE0178
:103A90008B539F4F0E94270A4FE160E1CE018B5369
:103AA0009F4F0E94E808482F6AE2CE018B539F4F38
:103AB0000E94270A48E260E2CE018B539F4F0E948A
:103AC000E808482F6BE2CE018B539F4F0E94270AD4
:103AD0004FE26CE2CE018B539F4F0E94E808482FC3
:103AE0006EE3CE018B539F4F0E94270A4DE360E3A4
:103AF000CE018B539F4F0E94E808482F6FE3CE0101
:103B00008B539F4F0E94270A85E895E00E94640826
:103B1000FE01EB53FF4F6F01B12CD6018D916D016A
:103B2000803118F480E30E947F08F60131976081AC
:103B300070E090E080E040E10E946A0DBFE1BB16BA
:103B400019F080E20E947F08B394E0E2BE12E5CF54
:103B50000E94560D0E94EF0B892B29F086E595E017
:103B60000E945A0D0AC08091C401882349F085E162
:103B700095E00E945A0D0E94D00B88E995E0DCCEBA
:103B8000D801EB2D1D92EA95E9F720E2A80162E049
:103B90008EE491E00E94510B81E08093C4016AE0C1
:103BA00070E080E090E00E9438078FE089831A82FD
:103BB00080E2FE01EB53FF4FDE01139601900D9260
:103BC0008A95E1F76E01F5EACF0ED11C88E0A82EA8
:103BD000D601EA2D1D92EA95E9F720E0A60162E2FE
:103BE000C8010E94EC0A892B19F080EF94E0C1CF44
:103BF00064E170E080E090E00E943807D8011D92F7
:103C0000AA94E9F720E0A80162E08CE491E00E9428
:103C1000EC0A892B19F08BEC94E0ABCF62E370E0F7
:103C200080E090E00E9438070E94D00B0E94640A56
:103C3000F6011192BA94E9F7C6010E94A60B01970A
:103C400019F081EA94E08CCF8EE3D8011D928A9519
:103C5000E9F7BE016D5E7F4FC6010E94A009B80161
:103C6000C6010E940C0986E894E00E9464088AADAF
:103C70008823A1F188E694E00E945A0D8BE694E037
:103C80000E9464088BAD882361F185E494E00E9472
:103C90005A0D88E494E00E9464088CAD882321F1D9
:103CA0008DE394E00E945A0D89AD811166CF80E2C8
:103CB000F601D70101900D928A95E1F7C25FDE4FC0
:103CC00068817981CE50D140C7010E94A009B1011D
:103CD000C7010E940C0981EB95E090CE83E694E049
:103CE000CBCF80E494E0D3CF88E394E0DBCF0196A0
:103CF00011F00C9491120E94660D86E698E00E94E5
:103D00005A0D8EE298E00E945A0D87E098E00E94DA
:103D10005A0D0E94660D0E943A0D0E94520A82E0DE
:103D200090E09093BA018093B90180E090E0892BF4
:103D300011F40C9473110E94E107882311F40C9480
:103D40005E110E9400000C945E1180916B029091B4
:103D50006C020E94F221809168029091690297FDA5
:103D600003C060E00C94E2060895AA1BBB1B51E15E
:103D700007C0AA1FBB1FA617B70710F0A61BB70BDB
:103D8000881F991F5A95A9F780959095BC01CD0180
:103D90000895A1E21A2EAA1BBB1BFD010DC0AA1F8C
:103DA000BB1FEE1FFF1FA217B307E407F50720F0A4
:103DB000A21BB30BE40BF50B661F771F881F991F1F
:103DC0001A9469F760957095809590959B01AC0168
:103DD000BD01CF0108950E94041FA59F900DB49FBF
:103DE000900DA49F800D911D11240895B7FF0C9490
:103DF000EB1E0E94EB1E821B930B0895EE0FFF1F1C
:103E00000590F491E02D0994A29FB001B39FC001E9
:103E1000A39F700D811D1124911DB29F700D811DF6
:103E20001124911D08955058BB27AA270E942B1FCB
:103E30000C94A5200E94972038F00E949E2020F02C
:103E400039F49F3F19F426F40C9494200EF4E09575
:103E5000E7FB0C948E20E92F0E94B62058F3BA1786
:103E6000620773078407950720F079F4A6F50C9490
:103E7000D8200EF4E0950B2EBA2FA02D0B01B9011E
:103E800090010C01CA01A0011124FF27591B99F0D0
:103E9000593F50F4503E68F11A16F040A22F232FDC
:103EA000342F4427585FF3CF469537952795A7952C
:103EB000F0405395C9F77EF41F16BA0B620B730BD3
:103EC000840BBAF09150A1F0FF0FBB1F661F771F44
:103ED000881FC2F70EC0BA0F621F731F841F48F4F9
:103EE000879577956795B795F7959E3F08F0B0CF82
:103EF0009395880F08F09927EE0F97958795089569
:103F00000E946A2008F481E008950E94991F0C9491
:103F1000A5200E949E2058F00E94972040F029F48E
:103F20005F3F29F00C948E2051110C94D9200C94F1
:103F300094200E94B62068F39923B1F3552391F39E
:103F4000951B550BBB27AA2762177307840738F008
:103F50009F5F5F4F220F331F441FAA1FA9F335D065
:103F60000E2E3AF0E0E832D091505040E695001C19
:103F7000CAF72BD0FE2F29D0660F771F881FBB1FD3
:103F8000261737074807AB07B0E809F0BB0B802DB1
:103F9000BF01FF2793585F4F3AF09E3F510578F0DD
:103FA0000C948E200C94D9205F3FE4F3983ED4F318
:103FB000869577956795B795F7959F5FC9F7880FB1
:103FC000911D9695879597F90895E1E0660F771F03
:103FD000881FBB1F621773078407BA0720F0621B94
:103FE000730B840BBA0BEE1F88F7E09508950E94BF
:103FF000FE1F6894B1110C94D92008950E94BE2030
:1040000088F09F5798F0B92F9927B751B0F0E1F099
:10401000660F771F881F991F1AF0BA95C9F714C049
:10402000B13091F00E94D820B1E008950C94D820CE
:10403000672F782F8827B85F39F0B93FCCF3869582
:1040400077956795B395D9F73EF4909580957095DF
:1040500061957F4F8F4F9F4F0895E89409C097FB5C
:104060003EF490958095709561957F4F8F4F9F4F4F
:104070009923A9F0F92F96E9BB279395F695879593
:1040800077956795B795F111F8CFFAF4BB0F11F456
:1040900060FF1BC06F5F7F4F8F4F9F4F16C08823FD
:1040A00011F096E911C0772321F09EE8872F762F33
:1040B00005C0662371F096E8862F70E060E02AF074
:1040C0009A95660F771F881FDAF7880F9695879560
:1040D00097F90895990F0008550FAA0BE0E8FEEF35
:1040E00016161706E807F907C0F012161306E407BC
:1040F000F50798F0621B730B840B950B39F40A26B5
:1041000061F0232B242B252B21F408950A2609F492
:10411000A140A6958FEF811D811D089597F99F6796
:1041200080E870E060E008959FEF80EC089500243F
:104130000A941616170618060906089500240A940C
:1041400012161306140605060895092E0394000C92
:1041500011F4882352F0BB0F40F4BF2B11F460FF21
:1041600004C06F5F7F4F8F4F9F4F089557FD90584A
:10417000440F551F59F05F3F71F04795880F97FB2B
:10418000991F61F09F3F79F08795089512161306E5
:104190001406551FF2CF4695F1DF08C01616170614
:1041A0001806991FF1CF8695710561050894089549
:1041B000E894BB2766277727CB0197F908950E94DB
:1041C0006A2008F48FEF08950E94F7200C94A52030
:1041D0000E94972038F00E949E2020F0952311F035
:1041E0000C948E200C94942011240C94D9200E94BD
:1041F000B62070F3959FC1F3950F50E0551F629F55
:10420000F001729FBB27F00DB11D639FAA27F00D2F
:10421000B11DAA1F649F6627B00DA11D661F829F56
:104220002227B00DA11D621F739FB00DA11D621F3B
:10423000839FA00D611D221F749F3327A00D611D58
:10424000231F849F600D211D822F762F6A2F11243A
:104250009F5750409AF0F1F088234AF0EE0FFF1F6D
:10426000BB1F661F771F881F91505040A9F79E3FC4
:10427000510580F00C948E200C94D9205F3FE4F31C
:10428000983ED4F3869577956795B795F795E7951A
:104290009F5FC1F7FE2B880F911D9695879597F923
:1042A00008950E946A20880B990B08950F931F931D
:1042B000CF93DF938230910510F482E090E0E0919B
:1042C0008802F091890230E020E0B0E0A0E0309771
:1042D00099F42115310509F44AC0281B390B243003
:1042E0003105D8F58A819B816115710589F1FB0142
:1042F00093838283FE0111C0408151810281138129
:1043000048175907E0F04817590799F4109761F0DA
:1043100012960C93129713961C933296CF01DF914D
:10432000CF911F910F9108950093880210938902F5
:10433000F4CF2115310551F04217530738F0A90188
:10434000DB019A01BD01DF01F801C1CFEF01F9CF17
:104350009093890280938802CDCFFE01E20FF31F74
:10436000819391932250310939832883D7CF2091AB
:10437000860230918702232B41F420910201309173
:10438000030130938702209386022091000130912F
:1043900001012115310541F42DB73EB740910401CB
:1043A00050910501241B350BE0918602F0918702A4
:1043B000E217F307A0F42E1B3F0B2817390778F0FC
:1043C000AC014E5F5F4F2417350748F04E0F5F1F5B
:1043D0005093870240938602819391939FCFF0E0A0
:1043E000E0E09CCFCF93DF930097E9F0FC01329798
:1043F00013821282A0918802B0918902ED0130E00F
:1044000020E01097A1F420813181820F931F209129
:104410008602309187022817390709F061C0F093AE
:104420008702E0938602DF91CF910895EA01CE17CB
:10443000DF07E8F54A815B819E0141155105B1F71F
:10444000E901FB83EA8349915991C40FD51FEC1709
:10445000FD0761F4808191810296840F951FE90127
:1044600099838883828193819B838A83F0E0E0E053
:1044700012968D919C9113970097B9F52D913C91CF
:104480001197CD010296820F931F209186023091E1
:1044900087022817390739F6309751F510928902AB
:1044A00010928802B0938702A0938602BCCFD38378
:1044B000C28340815181840F951FC817D90761F4C9
:1044C0004E5F5F4F88819981480F591F5183408308
:1044D0008A819B81938382832115310509F0B0CFB6
:1044E000F0938902E09388029ECFFD01DC01C0CFEA
:1044F00013821282D7CFFB01DC0101900D920020C4
:10450000E1F70895AEE0B0E0E8E8F2E20C943E2571
:104510000D891E898F89988D26E02C831A83098343
:1045200097FF02C080E090E801979E838D83AE01E3
:10453000455E5F4F698D7A8DCE0101960E94B22251
:104540004D815E8157FD0AC02F8138854217530780
:104550000CF49A01020F131FF80110822E96E4E06A
:104560000C945A25ABE0B0E0E8EBF2E20C94302575
:104570007C013B018A01FC0117821682838181FF45
:10458000C8C1CE0101965C01F7019381F30193FD4F
:10459000859193FF81913F01882309F453C18532AE
:1045A00039F493FD859193FF81913F01853229F480
:1045B000B70190E00E94A224E7CF912C212C312C4E
:1045C000FFE1F31538F08B3211F190F4803209F1EC
:1045D000833229F137FC3CC020ED280F2A3050F5FA
:1045E00036FE20C08AE0989E200D1124922E06C02F
:1045F0008D3291F0803371F7689430F8F30193FDB8
:10460000859193FF81913F018111DACF21C0689498
:1046100031F8689432F8F2CF689433F8EFCF6894A9
:1046200034F8ECCFEAE02E9E200D1124222E68945F
:1046300035F8E4CF8E3229F436FC04C1689436F89C
:10464000DDCF8C3619F4689437F8D8CF8836B1F2BC
:10465000982F9F7D95549330E0F08336A1F18337F6
:10466000C1F1833509F063C02801F2E04F0E511CFF
:10467000F801C080D180692D70E036FC02C06FEF78
:104680007FEFC6010E948C244C01689437F88201A8
:104690000AC00C5F1F4FFFE3F98388248394912C99
:1046A0006501E89437F833FE2DC0522C8114910433
:1046B00071F5552009F468CFB70180E290E00E94BF
:1046C000A2245A94F6CFF801808189830E5F1F4F90
:1046D000E4CF2801F2E04F0E511CF801C080D180D8
:1046E000692D70E036FC02C06FEF7FEFC6010E94BB
:1046F00097244C018201D5CFB70180E290E00E945F
:10470000A2242A942814190409F0B0F7CECFF60198
:1047100037FC859137FE81916F01B70190E00E94CF
:10472000A22451105A94F1E08F1A9108BFCF843619
:1047300019F0893609F077C0F80137FE6BC0608147
:104740007181828193810C5F1F4FF32DFF763F2E85
:1047500097FF09C090958095709561957F4F8F4F19
:104760009F4F689437F82AE030E0A5010E94D224D8
:10477000C82ECA188C2C432C36FE0CC0E89440F886
:10478000C91440F434FE05C032FC03C0F32DFE7E94
:104790004F2E892C44FE95C0FE01EC0DF11D808149
:1047A000803309F087C0242D297E422E842D887005
:1047B000582E43FC95C040FE8FC09C2C821418F4E8
:1047C0002C0C922C981844FE91C0B70180E390E025
:1047D0000E94A22442FE09C088E790E041FE02C088
:1047E00088E590E0B7010E94A224C91408F48AC0A9
:1047F000CA94D12C9FEFC91AD90ACA0CDB1CF60146
:1048000082916F01B70190E00E94A224AC14BD0414
:10481000B1F74FCF60817181072E000C880B990B87
:104820000E5F1F4F92CFD32CE894D4F82AE030E0EB
:10483000853739F1232D297FD22E8F3601F148F4A7
:104840008835A9F0F701868197812B96E2E10C94D7
:104850004C25803749F08837A9F7D4FE02C0689408
:10486000D2F820E130E00DC06894D4F8F6CF34FEE1
:1048700003C0822F8660D82E20E132E002C028E0FB
:1048800030E0F801D7FE0FC0608171818281938191
:104890000C5F1F4FA5010E94D224C82ECA183D2CC0
:1048A000E89437F867CF6081718190E080E00E5F17
:1048B0001F4FF0CF42FC02C0839478CF839483943F
:1048C00075CF842D867809F471CFF6CFB70180E2D9
:1048D00090E00E94A22483948214C0F3512C73CFE1
:1048E000522C5818821408F46ECFF8CF842D867895
:1048F00009F47BCF8BE241FE80E247FC8DE2B701F9
:1049000090E071CFB70180E390E00E94A2249A94D6
:104910006CCF8FEF9FEF99CFFC01059061507040F5
:104920000110D8F7809590958E0F9F1F0895FC0178
:104930006150704001900110D8F7809590958E0FCE
:104940009F1F08950F931F93CF93DF93182F092F65
:10495000EB018B8181FD09C01FEF0FEF812F902F9D
:10496000DF91CF911F910F91089582FF14C02E8186
:104970003F818C819D81281739073CF4E881F981BA
:10498000CF0101969983888310838E819F81019640
:104990009F838E83E3CFE885F985812F0995892B45
:1049A000A1F3DACFFA01AA27283051F1203181F1A1
:1049B000E8946F936E7F6E5F7F4F8F4F9F4FAF4F27
:1049C000B1E03ED0B4E03CD0670F781F891F9A1F3A
:1049D000A11D680F791F8A1F911DA11D6A0F711DEE
:1049E000811D911DA11D20D009F468943F912AE0FA
:1049F000269F11243019305D3193DEF6CF010895E2
:104A0000462F4770405D4193B3E00FD0C9F7F6CF12
:104A1000462F4F70405D4A3318F0495D31FD4052DA
:104A2000419302D0A9F7EACFB4E0A6959795879570
:104A300077956795BA95C9F700976105710508954F
:104A40009B01AC010A2E06945795479537952795FB
:104A5000BA95C9F7620F731F841F951FA01D089593
:104A60002F923F924F925F926F927F928F929F927E
:104A7000AF92BF92CF92DF92EF92FF920F931F936C
:104A8000CF93DF93CDB7DEB7CA1BDB0B0FB6F8941D
:104A9000DEBF0FBECDBF09942A88398848885F845D
:104AA0006E847D848C849B84AA84B984C884DF80CE
:104AB000EE80FD800C811B81AA81B981CE0FD11DB2
:104AC0000FB6F894DEBF0FBECDBFED01089515E01F
:104AD000C5E3D5E004C0FE010E94FE1E2196C63348
:084AE000D107C9F7F894FFCFDC
:104AE80000008A028000D68D0501D6090301D4BAD8
:104AF8000001D4500102D6040502D6380202D9FFBB
:104B0800FFAA00D42C0002DC0ADC0B3199DC0CD79C
:104B180000000CD70000FFD41021D252D65B03044A
:104B2800D65F0507D48D0007D719000455A5F000F6
:104B3800DA04DA34DA31D996A500000000170877CC
:104B480007A4078408D507B307C7070D0A006E61D5
:104B58006E00696E66006F766600424C78787878E9
:104B680000424C2530325825303258002530326406
:104B78002F253032642F3230253032640043656C83
:104B88006C2025327520202020202020203A20006B
:00000001FF
