:100000000C94C8060C94F0060C94F0060C94F006C0
:100010000C94F0060C94F0060C94F0060C94F00688
:100020000C94F0060C94F0060C94F0060C94F00678
:100030000C94F0060C94F0060C94F0060C94F00668
:100040000C94F9110C94F0060C9469120C94431260
:100050000C94F0060C94F0060C94F0060C94F00648
:100060000C94F0060C94F0062D2D2D2D2D2D2D2DFC
:100070002D2D2D2D2D2D2D2D2D2D2D2D2D2D2D2DB0
:100080002D2D2D2D2D2D2D2D2D2D2D2D2D2D2D2DA0
:100090002D2D2D2D00202053746F72653A206E6F28
:1000A0002070726573656E63652E0020205772693B
:1000B00074653A206E6F2070726573656E63652E8D
:1000C00000202041726D3A206E6F2070726573655A
:1000D0006E63652E00202041726D20616C72656137
:1000E00064792069737375656420E2809420706F71
:1000F0007765722D6379636C6520726571756972BD
:1001000065642E0057616974696E6720666F72209E
:10011000626174746572792E2E2E002020427269FD
:10012000646765204750494F342D4750494F35206B
:10013000746F20656E746572206C6F636B206D6FD9
:1001400064652E002020277327203D20726573638D
:10015000616E207C206175746F2D646574656374B5
:100160007320636F6E6E6563742F646973636F6E63
:100170006E6563740020204D616B697461204D6F62
:100180006E69746F7220E28094205363616E202F39
:1001900020556E6C6F636B204D6F6465002020529C
:1001A000656D6F76652062726964676520746F2083
:1001B00073776974636820746F207363616E2F7541
:1001C0006E6C6F636B206D6F64652E002020427231
:1001D00069646765204750494F342D4750494F3572
:1001E00020646574656374656420E28692204C4FD8
:1001F000434B204D4F44450020204D616B69746195
:10020000204C4F434B205574696C69747920E2800F
:10021000942054797065732030202F2032202F20B5
:1002200033206F6E6C790020205B4C6F636B5D2018
:100230005665726966793A206E7962626C657320E0
:10024000646964206E6F7420686F6C6420616674EA
:10025000657220706F7765722D6379636C652E000F
:1002600020205B4C6F636B5D204C6F636B20636F72
:100270006E6669726D65642E0020205B4C6F636B47
:100280005D205665726966793A206E6F20726573DB
:10029000706F6E73652E0020205B4C6F636B5D206A
:1002A000506173732031207665726966793A206EE9
:1002B0007962626C657320646964206E6F74207368
:1002C0007469636B2E0020205B4C6F636B5D205064
:1002D0006173732031207665726966793A206E6F9A
:1002E00020726573706F6E73652E0020205B4C6FFB
:1002F000636B5D205061737320313A2077726974AB
:10030000696E672E2E2E0020205B4C6F636B5D2084
:100310004641494C45442E0020205B4C6F636B5D89
:10032000204C4F434B45442E0020205B4C6F636BA9
:100330005D204465706C6F79696E672068617264D6
:100340002D6C6F636B2073656E74696E656C2E2EF9
:100350002E0020205B4C6F636B5D204261747465DE
:10036000727920697320616C7265616479206C6FA9
:10037000636B65642E00756E737570706F72746553
:10038000642028352C20362C206F7220756E6B6E01
:100390006F776E292E20536B697070696E672E001F
:1003A00020205B4C6F636B5D20547970653A2000B0
:1003B00020205B4C6F636B5D205072652D747970EB
:1003C000652D30204843303820E2809420756E73CC
:1003D0007570706F727465642E0020205B4C6F63C3
:1003E0006B5D204552524F523A204E6F2076616C21
:1003F0006964206672616D652E0020205B4C6F631E
:100400006B5D204261747465727920646574656304
:1004100074656420E28094206964656E746966790D
:10042000696E672E2E2E004672616D652020202099
:100430002020202020203A2000202F203700537435
:10044000617465206F66206368617267653A200099
:1004500020560043656C6C2064696666202020206D
:1004600020203A2000205600286E6F2063656C6CB7
:1004700073207265706F7274656429002056005095
:1004800061636B20766F6C746167652020203A2071
:100490000020430054656D7020284D6F73666574AD
:1004A0002920203A200020430054656D7020284305
:1004B000656C6C73292020203A20002025004F769F
:1004C00065726C6F6164202520202020203A200076
:1004D0002025004F442025202020202020202020DF
:1004E00020203A20002025004F7665726C6F6164F1
:1004F000202520202020203A20002025004F4420C5
:100500002520202020202020202020203A20004FBD
:100510007665726C6F616420636E742020203A20CF
:10052000004F44206576656E7473202020202020C3
:100530003A20004641494C004F4B00202F203420E8
:100540002028004865616C7468202020202020202D
:1005500020203A20004379636C6520636F756E74C8
:10056000202020203A20004641494C004F4B0041BA
:100570007578204353756D2034382D3631203A205C
:10058000004641494C004F4B00417578204353755C
:100590006D2034342D3437203A20004641494C0038
:1005A0004F4B00436865636B73756D2033322D3498
:1005B00030203A20004641494C004F4B00436865CB
:1005C000636B73756D2031362D3331203A20004333
:1005D0006865636B73756D20302D313520203A20AE
:1005E000003135202D20556E6B6E6F776E20637253
:1005F00069746963616C206661756C742028424D72
:100600005320636F6E73696465726564206465610D
:1006100064290035202D205761726E696E670031A4
:10062000202D204F7665726C6F6164656400302008
:100630002D204F4B004E6F00594553004661696CA9
:1006400075726520636F64652020203A2000554E46
:100650004C4F434B4544004C4F434B45440043658E
:100660006C6C206661696C7572652020203A2000F0
:100670004C6F636B20737461747573202020203A73
:100680002000204168004361706163697479202013
:1006900020202020203A200031302063656C6C201F
:1006A000424C3336787800352063656C6C20424CC0
:1006B0003138787800342063656C6C20424C3134DA
:1006C0007878002020280042617474657279207463
:1006D0007970652020203A20004465746563746554
:1006E00064207479706520203A20004D666720648C
:1006F000617465202020202020203A2000524F4D98
:100700002049442020202020202020203A20004D75
:100710006F64656C202020202020202020203A209B
:10072000004641494C004F4B004641494C004F4B5D
:10073000005665726966792033322D3430202020CE
:100740003A20004641494C004F4B0056657269669D
:10075000792031362D33312020203A200056657221
:1007600069667920302D3135202020203A20002064
:10077000204E6F20726573706F6E736520647572A2
:10078000696E67207665726966792E0020204E6F4B
:100790002070726573656E6365206F6E207465737B
:1007A000742D6D6F646520656E7465722E005265E0
:1007B00070616972206672616D652020203A2000A8
:1007C00020202D3E204672616D6520726570616942
:1007D00072206661696C65642E0020202D3E2046E3
:1007E00072616D65207265706169722073756363F3
:1007F00065656465642E20554E4C4F434B45442E31
:100800000020202D3E20436865636B73756D732057
:10081000636F72727570743B20747279696E6720B1
:100820006672616D65207265706169722E2E2E0090
:1008300020202D3E205374696C6C206C6F636B65B7
:100840006420286E6F6E2D636865636B73756D2011
:10085000726561736F6E292E2043616E6E6F742016
:100860007265636F7665722E0020202D3E20554EF6
:100870004C4F434B45442062792044412030342E74
:10088000004641494C004F4B004641494C004F4BFC
:1008900000436865636B73756D2033322D343020EF
:1008A0003A20004641494C004F4B00436865636B5A
:1008B00073756D2031362D3331203A200043686541
:1008C000636B73756D20302D313520203A20002068
:1008D00020556E6C6F636B3A206E6F20726573707B
:1008E0006F6E7365206166746572204441203034F8
:1008F0002E002020556E6C6F636B3A206E6F207057
:10090000726573656E636520656E746572696E6786
:100910002074657374206D6F64652E00436F756C71
:1009200064206E6F7420756E6C6F636B20626174EF
:10093000746572792E0042617474657279207375E2
:10094000636365737366756C6C7920756E6C6F6329
:100950006B65642E00417474656D7074696E6720F8
:10096000444120303420756E6C6F636B2E2E2E0048
:100970002E20536B697070696E672E00556E6C6F18
:10098000636B206E6F7420737570706F7274656422
:1009900020666F72207479706520004261747465FE
:1009A0007279204C4F434B45442E204661696C754B
:1009B000726520636F64653A2000426174746572E9
:1009C0007920554E4C4F434B45442E0020202D3E60
:1009D000204672616D6520726570616972206E6F6C
:1009E0007420737570706F7274656420666F722006
:1009F0007468697320424D5320747970652E00200D
:100A0000202D3E204672616D6520726570616972AD
:100A10002077696C6C20626520617474656D7074F8
:100A200065642069662062617474657279206973F7
:100A3000206C6F636B65642E002020436865636BD8
:100A400073756D2033322D3430203A204641494CA5
:100A5000002020436865636B73756D2031362D333C
:100A600031203A204641494C002020436865636BA1
:100A700073756D20302D313520203A204641494C88
:100A800000436865636B73756D20616E6F6D616C9B
:100A9000792064657465637465642028736570618A
:100AA000726174652066726F6D206C6F636B20736A
:100AB00074617465293A00436F6D706C6574652EBE
:100AC00000426174746572792072656D6F76656439
:100AD00020647572696E67207363616E2E204162B7
:100AE0006F7274696E672E0042617474657279204A
:100AF000666F756E6420203A200020202020202080
:100B0000202020444F204E4F542063686172676557
:100B1000206F6E20616E7920636861726765722E46
:100B2000002020202020202020204672656573634D
:100B3000616C65204D433930384A4B334520424D76
:100B400053202D2D206E6F2063656C6C2070726FAA
:100B500074656374696F6E2E005741524E494E475B
:100B60003A205072652D747970652D3020484330DD
:100B70003820626174746572792064657465637489
:100B8000656421004552524F523A204261747465A7
:100B90007279206E6F7420726573706F6E64696E07
:100BA0006720616674657220726574726965732E60
:100BB0002041626F7274696E672E0052656D6F76A8
:100BC00065206261747465727920616E642074724C
:100BD0007920616761696E2E00202042617474651E
:100BE00072792072656D6F7665642E205761697425
:100BF000696E672E2E2E0020205B4C6F636B5D208C
:100C0000426174746572792072656D6F7665642EC9
:100C10002057616974696E6720666F72206E65780F
:100C2000742E2E2E00202042617474657279206427
:100C30006574656374656420E280942073746172E6
:100C400074696E67207363616E2E0020205B4C6FA9
:100C5000636B5D20426174746572792064657465AC
:100C60006374656420E28094206C6F636B696E67C7
:100C70002E2E2E004D616E75616C2072657363615E
:100C80006E207265717565737465642E0020204254
:100C900072696467652072656D6F7665642E2049A0
:100CA0006E73657274206261747465727920746FFA
:100CB000207363616E2E0020204D6F646520636891
:100CC000616E67656420E28692205343414E202F77
:100CD00020554E4C4F434B204D4F44450020204261
:100CE0007269646765204750494F342D4750494F1A
:100CF000352064657465637465642E20496E736580
:100D00007274206261747465727920746F206C6FE4
:100D1000636B2E0020204D6F6465206368616E67F1
:100D2000656420E28692204C4F434B204D4F444552
:100D30000000000000240027002A00000000080036
:100D40000201000003040700000000000000000092
:100D5000000000250028002B0000000000230026D2
:100D60000029000404040404040404020202020230
:100D7000020303030303030102040810204080015F
:100D80000204081020010204081020009B122223F4
:100D900011241FBECFEFD8E0DEBFCDBF11E0A0E031
:100DA000B1E0EAE0F4E502C005900D92A23CB10783
:100DB000D9F722E0A2ECB1E001C01D92A23AB2073D
:100DC000E1F716E0C7ECD6E004C02197FE010E94CF
:100DD0008F23C63CD107C9F70E946A130C94F829E7
:100DE0000C94000080919002E0919102F0919202A7
:100DF000F8949181282F20959223918378943DE750
:100E000043E050E0315029F1DA011197F1F7908178
:100E10009823C1F3F8949281922392839181982B25
:100E200091837894A3EBBBE01197F1F7F89491814B
:100E300092239183A3E1B1E01197F1F79081982378
:100E400081E009F080E07894E3E6F6E03197F1F78D
:100E5000089580E00895CF92DF92EF92FF920F9372
:100E60001F93CF93DF9328E030E041E06BE871E01F
:100E700093E7C92ED12CCBE2D0E00BED11E090919D
:100E80009002E0919102F0919202F92EF094582F85
:100E9000542389F1F89452815F2152835181592B57
:100EA0005183DE011197F1F75281952B928378944B
:100EB000F8013197F1F7440F2150310901F7F89407
:100EC000E0919102F091920291818091900280953F
:100ED00098239183E0919102F0919202928189236B
:100EE00082837894DF91CF911F910F91FF90EF90C3
:100EF000DF90CF900895F89452815F215283518101
:100F0000592B5183DB011197F1F75281952B928375
:100F10007894F601CECFEF92FF920F931F93CF9369
:100F2000DF9328E030E080E041E0A3E2B0E09FEC16
:100F3000E92EF12C90919002E0919102F0919202B1
:100F4000F8945181592B51836281792F70956723D1
:100F500062838D01ED012197F1F751815723518370
:100F6000E8012197F1F750817894F7013197F1F773
:100F7000952309F0842B440F21503109D9F6DF91D4
:100F8000CF911F910F91FF90EF900895833081F0E2
:100F900028F4813099F08230A9F008958730A9F0C3
:100FA0008830C9F08430B1F4809180008F7D03C017
:100FB000809180008F7780938000089584B58F772B
:100FC00084BD089584B58F7DFBCF8091B0008F776D
:100FD0008093B00008958091B0008F7DF9CFCF93BA
:100FE000DF93E0E4FDE08491ECE7FDE0D491E8E6F6
:100FF000FDE0C491CC23A1F081110E94C607EC2F23
:10100000F0E0EE0FFF1FE75AF24FA591B491EC917B
:10101000ED2381E090E009F480E0DF91CF91089525
:1010200080E090E0FACF1F93CF93DF93282F30E03A
:10103000F901E55CF24F8491F901E958F24FD4913E
:10104000F901ED59F24FC491CC23A9F0162F81116B
:101050000E94C607EC2FF0E0EE0FFF1FE15BF24F9E
:10106000A591B4918FB7F894EC91111108C0D09567
:10107000DE23DC938FBFDF91CF911F910895DE2B8C
:10108000F8CFCF93DF9390E0FC01E958F24F249121
:101090008D59924FFC0184918823C9F090E0880F0C
:1010A000991FFC01EF5CF24FA591B491FC01E15B4B
:1010B000F24FC591D49161110DC09FB7F8948C91F6
:1010C000209582238C938881282328839FBFDF91DA
:1010D000CF910895623051F49FB7F8943C91822FDC
:1010E000809583238C93E8812E2BEFCF8FB7F894D4
:1010F000EC912E2B2C938FBFEACF3FB7F8948091C1
:10110000D8019091D901A091DA01B091DB0126B507
:10111000A89B05C02F3F19F00196A11DB11D3FBF2F
:10112000BA2FA92F982F8827BC01CD01620F711DFE
:10113000811D911D42E0660F771F881F991F4A95F8
:10114000D1F708958F929F92AF92BF92CF92DF9284
:10115000EF92FF926B017C010E947D084B015C01C4
:10116000C114D104E104F104B9F00E947D086819AA
:1011700079098A099B09683E73408105910580F3CE
:1011800021E0C21AD108E108F10888EE880E83E058
:10119000981EA11CB11CE4CFFF90EF90DF90CF9080
:1011A000BF90AF909F908F900895262F2695820F25
:1011B000911DFC01808160FD02C08F7008958295B1
:1011C000FCCFAF92BF92CF92DF92EF92FF920F933C
:1011D0001F93CF93DF936C017B018B01040F151FCD
:1011E000EB015E01AE18BF08C017D10759F0699135
:1011F000D601ED91FC910190F081E02DC601099599
:10120000892B79F7C501DF91CF911F910F91FF9045
:10121000EF90DF90CF90BF90AF900895FC01538D79
:10122000448D252F30E0842F90E0821B930B5417C0
:1012300010F0CF96089501970895FC01918D828D4D
:10124000981761F0A28DAE0FBF2FB11D5D968C91E6
:10125000928D9F5F9F73928F90E008958FEF9FEF25
:101260000895FC01918D828D981731F0828DE80FE1
:10127000F11D858D90E008958FEF9FEF0895FC019B
:10128000918D228D892F90E0805C9F4F821B910968
:101290008F73992708958DED91E00E943F0921E019
:1012A000892B09F420E0822F089580E090E0892BBB
:1012B00029F00E944B0981110C9400000895FC0153
:1012C000A48DA80FB92FB11DA35ABF4F2C91848DA7
:1012D00090E001968F739927848FA689B7892C9304
:1012E000A089B1898C91837080648C93938D848D57
:1012F000981306C00288F389E02D80818F7D80835A
:101300000895EF92FF920F931F93CF93DF93EC0119
:1013100081E0888F9B8D8C8D98131AC0E889F9899C
:10132000808185FF15C09FB7F894EE89FF8960839F
:10133000E889F98980818370806480839FBF81E020
:1013400090E0DF91CF911F910F91FF90EF90089562
:10135000F62E0B8D10E00F5F1F4F0F731127E02E3D
:101360008C8D8E110CC00FB607FCFACFE889F98975
:10137000808185FFF5CFCE010E945F09F1CFEB8D13
:10138000EC0FFD2FF11DE35AFF4FF0829FB7F89449
:101390000B8FEA89FB8980818062CFCF0F931F93E7
:1013A000CF93DF938C01D0E0C0E0F801EC0FFD1F7C
:1013B0006491662341F08DED91E00E948109892BB3
:1013C00011F02196F2CFCE01DF91CF911F910F91B5
:1013D0000895682F8DED91E00C948109CF93DF93F0
:1013E000EC01888D8823B9F0AA89BB89E889F9893D
:1013F0008C9185FD03C0808186FD0DC00FB607FC72
:10140000F7CF8C9185FFF2CF808185FFEDCFCE01A4
:101410000E945F09E9CFDF91CF9108950F931F9349
:10142000CF938C01C8E26C2FC8010E94D5088F3081
:1014300041F4CF5FCC32B9F781E0CF911F910F918A
:10144000089580E0FACF009749F09C0122503109BD
:1014500081E02230310518F080E0089581E00895A0
:10146000EF92FF920F931F93CF93DF937C01162F80
:10147000042FD0E0C0E0011740F0612FC7010E94A7
:10148000D508C80FD11D1F5FF6CFCE01CF3FD105C4
:1014900019F010F08FEF90E08F70DF91CF911F91D6
:1014A0000F91FF90EF900895DF92EF92FF920F93CC
:1014B0001F93CF93DF938C01EB018A898D3008F461
:1014C00055C08E3108F454C08AE08BAB6B8970E054
:1014D00090E080E00E94C02420E030E040E251E44F
:1014E0000E9416246CAB7DAB8EAB9FAB4FE060E0EF
:1014F000C8010E94300ADB8C91E08D1190E099AF19
:101500004FE160E1C8010E94300AEC8C91E08E113D
:1015100090E09AAF48E260E2C8010E94300AFD8C78
:1015200091E08F1190E09BAF4FE26CE2C8010E9406
:10153000300A91E02E8D281390E09CAF4DE360E3DC
:10154000C8010E94300A91E02F8D281390E09DAFD2
:101550008FE0D81204C0E81202C0F81659F0F80162
:1015600084898F7091E051F490E008C084E0ADCFA1
:1015700085E0ABCF8D8991E08F3089F798AFDF910F
:10158000CF911F910F91FF90EF90DF9008950F93EF
:101590001F93CF93DF938C01D42F0E94D508C82FBF
:1015A0006D2FC8010E94D50890E1C99FE001112468
:1015B0008C2BDF91CF911F910F910895CF92DF92E5
:1015C000EF92FF920F931F93CF93DF93EC018B0168
:1015D00047E166E10E94C70AF801808341E260E2C8
:1015E000CE010E94C70AF801818343E262E2CE0184
:1015F0000E94C70AF801828368E2CE010E94D508E2
:10160000F801838341E360E3CE010E94C70AF80139
:10161000848343E362E3CE010E94C70AF801858315
:101620006CE2CE010E94D50882FB882780F9F80180
:10163000808764E3CE010E94D508D82E65E3CE01F1
:101640000E94D508C82E66E3CE010E94D508F0E1BD
:101650008F9F70011124FC2867E3CE010E94D508FA
:101660002D2D30E0322F22273295307F2227307106
:10167000E82A2E293F29F8013783268369E2CE0123
:101680000E94D508F80181876AE2CE010E94D50840
:10169000F80182876BE2CE010E94D508F8018387AA
:1016A0006EE3CE010E94D508F80184876FE3CE0176
:1016B0000E94D508F8018587DF91CF911F910F9186
:1016C000FF90EF90DF90CF9008954F70E62FE69552
:1016D000E80FF92FF11D908160FD04C0907F942BDD
:1016E000908308959F7080E1489FA0011124F7CF57
:1016F000CF9361E088E00E94130862E370E080E02D
:1017000090E00E94A2080E94F206C82F60E088E0E4
:101710000E94130881E0C13009F080E0CF91089564
:1017200060E088E00C941308CF93DF93EC0161E054
:1017300088E00E941308BE0190E080E0DF91CF9125
:101740000C94A2080E94900B1092DC0166E970E0F4
:1017500080E090E00E94A20888EC90E00C94940B4A
:101760008F929F92BF92CF92DF92EF92FF920F9350
:101770001F93CF93DF93F82EC62FD42EC52EB22EF3
:10178000882321F084E690E00E94940B0E94F206E8
:10179000811111C0F1100E94900B81E090E0DF9167
:1017A000CF911F910F91FF90EF90DF90CF90BF905E
:1017B0009F908F9008958C2F0E942B07C33389F43C
:1017C000E801085F1F4F2BE8822E99249394C401EF
:1017D0000197F1F70E948B078993C017D107B9F7DA
:1017E0008E019D2CCD2DDC2D9BE8C92EDD24D394BC
:1017F000C6010197F1F789910E942B078C2F891957
:101800008B15B0F383E592E00197F1F7E8010E0D37
:10181000111D8BE8C82EDD24D394C017D10739F0F1
:10182000C6010197F1F70E948B078993F6CFF1105B
:101830000E94900B90E080E0B2CFEF920F931F9345
:10184000262F39E0E32E8A01AC0163E380E00E9499
:10185000B00B1F910F91EF900895EF920F931F938C
:10186000E22E8A01262FAC016CEC81E00E94B00BC5
:101870001F910F91EF9008950F931F93CF938B01BA
:10188000C42F242FAB0164E00E942D0C892B41F45E
:10189000F801EC0FF11D319781E09081963009F04D
:1018A00080E0CF911F910F910895CF93DF93D82FB0
:1018B000C92F20E2482F592F62E080E191E00E9479
:1018C0002D0C892BB1F4ED2FFC2FAF01405E5F4F43
:1018D0008FEF90E02191922B8223E417F507D1F747
:1018E000992339F08F3F41F081E090E0DF91CF9173
:1018F000089590E080E0FACF8FEF9FEFF7CFCF937E
:10190000DF931F92CDB7DEB78091C201882391F09B
:10191000198221E0AE014F5F5F4F63E082E691E004
:101920000E942D0C1092C20164E170E080E090E012
:101930000E94A2080F90DF91CF9108950F931F93FB
:10194000CF93DF931F92CDB7DEB7198221E0AE01AE
:101950004F5F5F4F63E087E691E00E942D0C8C01A2
:10196000892B49F481E08093C20164E170E080E05A
:1019700090E00E94A208C8010F90DF91CF911F91C3
:101980000F910895CF92DF92EF92FF921F93CF9322
:10199000DF93CDB7DEB7A2970FB6F894DEBF0FBEC8
:1019A000CDBFFC018381843628F485E0442349F0CF
:1019B0008FEF07C0FB0181898E3189F486E04111E8
:1019C000F7CFA2960FB6F894DEBF0FBECDBFDF9162
:1019D000CF911F91FF90EF90DF90CF900895142F3B
:1019E000AE014E5E5F4F81E1FA0111928A95E9F7EF
:1019F00021E162E08CE091E00E942D0C892B29F41A
:101A00008AA1863011F480E0DCCF0E949E0C9E01FA
:101A10002F5F3F4F7901892BE1F481E1F9011192A8
:101A20008A95E9F721E1A70162E08AE091E00E944E
:101A30002D0C6C010E947F0C66E970E080E090E064
:101A40000E94A208CD2829F48989863011F482E009
:101A5000B8CF19821A821B8223E0A70164E086E0D6
:101A600091E00E942D0C892B19F48B81863019F09E
:101A7000812F8195A6CF83E0A4CFCF92DF92EF9202
:101A8000FF920F931F93CF93DF93CDB7DEB72997C4
:101A90000FB6F894DEBF0FBECDBF282F80917C0219
:101AA00090917D02892B09F449C0872F90E0B0E026
:101AB000A0E0BA2FA92F982F8827A62B822BAD0143
:101AC00066277727C92EDA2EEB2EFF241C2D382F00
:101AD00020918202222391F0022F10E0049FF00156
:101AE000059FF00D149FF00D11244F2F2C9D6001C8
:101AF00011241D2D289FC0011124392FE091880247
:101B0000809183029091840220918502E21721F056
:101B1000E80FF92FF11D1082E0918502E80FF92FEF
:101B2000F11D4083E0918602E80FF92FF11D10832B
:101B300020918702820F911DFC01308380918302E6
:101B400090918402892B09F47CC00E947D08009149
:101B5000890210918A0220918B0230918C026017C9
:101B600071078207930740F46093890270938A0299
:101B700080938B0290938C020091890210918A02CB
:101B800020918B0230918C02601B710B820B930BA6
:101B90006C32714081059105C0F2F89480917E020B
:101BA00090917F029A838983E0918302F09184026D
:101BB000DF0111968081898790917A02E0918D02F0
:101BC000F0918E0280918F02992309F449C090818F
:101BD000982B98879081809589238F838F818C8320
:101BE00088E08B8358856F8149853B812C81898171
:101BF0009A81508347FD252F3A952083262F39F06F
:101C0000441F00C000006083000000C0F2CF38E035
:101C10004D9160830000019761F7F0938E02E0938D
:101C20008D0249873B832C839A83898378940E9411
:101C30007D086093890270938A0280938B0290934F
:101C40008C0229960FB6F894DEBF0FBECDBFDF9190
:101C5000CF911F910F91FF90EF90DF90CF9008955B
:101C60009081982B98879081809589238F838F818D
:101C70008E8388E08D8358856F8149853D812E81D3
:101C800089819A81508347FD252F00C000C02083A1
:101C900000C000C000C000C000C060830000262F4C
:101CA0003A9541F0441F000000C000C000C000C0D1
:101CB00000C0E8CF38E04D9100C0608300C00197BC
:101CC00009F7F0938E02E0938D0249873D832E83BE
:101CD000ABCF6091570170915801809159010C94DC
:101CE0003D0D60915A0170915B0180915C010C94F3
:101CF0003D0D5F926F927F928F929F92AF92BF92B3
:101D0000CF92DF92EF92FF920F931F93CF93DF93C7
:101D1000CDB7DEB7E3970FB6F894DEBF0FBECDBFE9
:101D2000082F722E632E542E11E0211105C031119F
:101D300003C0411101C010E0F12CE12C4B01B12C8A
:101D4000A12C802F8150990B6C0182E390E00E94BE
:101D5000940BAE014D5D5F4F63E087E691E00E941A
:101D60001D0C892B11F1AE014D5D5F4F63E082E6E2
:101D700091E00E941D0C0E94900B10E0812FE396D1
:101D80000FB6F894DEBF0FBECDBFDF91CF911F918C
:101D90000F91FF90EF90DF90CF90BF90AF909F900A
:101DA0008F907F906F905F900895AE014E5E5F4F71
:101DB00062E085E691E00E941D0C892BA1F61123BB
:101DC00029F0672D762D852D0E943D0DC501B401AA
:101DD0000E94A208AE014D5D5F4F63E087E691E08F
:101DE0000E941D0C892B09F0BECFAE014F5F5F4FE3
:101DF00062E080E691E00E941D0C892B09F0B3CFD0
:101E0000112329F0EC14FD0414F40E94710E0E94B9
:101E1000900BEC14FD0434F464E670E080E090E094
:101E20000E94A2089FEFE91AF90AE01608F48DCF84
:101E300082E390E00E94940BAE014D5D5F4F63E042
:101E400082E691E00E941D0C0E94900B111196CF2A
:101E50000E94A20B11E092CFCF93C3E00E94690EC3
:101E600068EC70E080E090E00E94A2080E94710E91
:101E700064E670E080E090E00E94A208C15071F733
:101E8000CF910C94690ECF92DF92EF92CF93C3E083
:101E9000C0905D01D0905E01E0905F018E2DB60193
:101EA0000E943D0D68EC70E080E090E00E94A20886
:101EB0000E94710E64E670E080E090E00E94A2084B
:101EC000C15061F78E2DB601CF91EF90DF90CF908A
:101ED0000C943D0DDF92EF92FF920F931F93CF93DF
:101EE000DF93EC01062F10E080E2D82E7E0180E225
:101EF000E80EF11CFE018D2D11928A95E9F720E282
:101F0000AE0162E080E191E00E942D0C892B59F036
:101F100068EC70E080E090E00E94A2081F5F01136F
:101F2000E9CF80E00EC0FE018FEF90E02191922B6F
:101F30008223EE16FF06D1F7992351F38F3F41F329
:101F400081E0DF91CF911F910F91FF90EF90DF9093
:101F50000895FC0101900020E9F73197AF01481B7B
:101F6000590BBC018DED91E00C94E1088CE791E0F8
:101F70000C94A90FCF93DF930E94CE09EC010E942D
:101F8000B60F8C0F9D1FDF91CF91089588E690E0EA
:101F90000C94BA0F8F929F92AF92BF920F931F93A0
:101FA000CF93DF93CDB7DEB7A1970FB6F894DEBF1E
:101FB0000FBECDBF19A2423008F44AE08E010F5D7A
:101FC0001F4F842E912CB12CA12CA50194010E94AD
:101FD0005A23E62FB901CA01EA30F4F4E05DD801D2
:101FE000EE938D01232B242B252B79F790E080E0B5
:101FF000109719F0CD010E94A90FA1960FB6F89481
:10200000DEBF0FBECDBFDF91CF911F910F91BF906B
:10201000AF909F908F900895E95CE1CFCF93DF93CD
:10202000682F70E090E080E04AE00E94CA0FEC0167
:102030000E94B60F8C0F9D1FDF91CF910895CF9214
:10204000DF92EF92FF92CF93DF936C01990FEE082E
:10205000FF08F7FE1BC08DE20E94E909EC0166272C
:102060007727CB016C197D098E099F094AE00E94F0
:10207000CA0FC80FD91F0E94B60F8C0F9D1FDF918A
:10208000CF91FF90EF90DF90CF9008954AE0C70185
:10209000B6010E94CA0FEC01EECF4F925F926F9291
:1020A0007F928F929F92AF92BF92CF92DF92EF92E8
:1020B000FF92CF936B017C01842EAC019B010E94A7
:1020C000E225882389F08FE791E0CF91FF90EF9090
:1020D000DF90CF90BF90AF909F908F907F906F9048
:1020E0005F904F900C94A90F26013701E89477F880
:1020F0002FEF3FEF4FE75FE7C301B2010E94E225F8
:1021000081110DC02FEF3FEF4FE75FE7C301B20131
:102110000E94112418161CF483E891E0D6CF2FEF0B
:102120003FEF4FE75FE4C701B6010E947025181624
:102130001CF487E891E0C9CF2FEF3FEF4FE75FEC4A
:10214000C701B6010E94112487FDF3CF20E030E0E3
:10215000A901C701B6010E941124B12CA12C87FF4F
:1021600008C08DE20E94E9095C01F7FAF094F7F8E3
:10217000F094C82D60E070E080E09FE3912C20E0B7
:1021800030E040E251E40E94162493949814B8F38E
:10219000A70196010E94A5232B013C010E948F24D8
:1021A0006B017C010E94BE249B01AC01C301B20102
:1021B0000E94A4232B013C014AE0C701B6010E9402
:1021C000CA0F7C018EE20E94E909E80EF91EEA0CB2
:1021D000FB1CC15018F120E030E040E251E4C301A3
:1021E000B2010E9475252B013C010E948F244B01F6
:1021F000B12CA12C4AE0C501B4010E94CA0FE80E1F
:10220000F91EC501B4010E94BE249B01AC01C301AB
:10221000B2010E94A4232B013C01DBCFC701CF9167
:10222000FF90EF90DF90CF90BF90AF909F908F90F6
:102230007F906F905F904F900895CF93DF93D0E0A1
:10224000C0E0009719F00E94A90FEC010E94B60FA0
:102250008C0F9D1FDF91CF910895BF92CF92DF9297
:10226000EF92FF920F931F93CF93DF93CDB7DEB71B
:10227000CA54D1090FB6F894DEBF0FBECDBF8C0192
:10228000F090DC01FF20B9F085ED90E00E94BA0FDC
:10229000F12C8F2DC65BDF4F0FB6F894DEBF0FBE5B
:1022A000CDBFDF91CF911F910F91FF90EF90DF9005
:1022B000CF90BF900895AE014D5D5F4F80E2FA016F
:1022C00011928A95E9F720E262E084E291E00E94AF
:1022D0002D0C892B29F081EC90E00E94BA0FD9CF08
:1022E00081E08093DC0162E370E080E090E00E9496
:1022F000A2088FE089831A8280E2F801DE0113963A
:1023000001900D928A95E1F78E010D5B1F4F88E0D9
:10231000B82EF8018B2D11928A95E9F7E12C22E273
:10232000FE0131966F01AF0163E381E00E94B00BC3
:10233000892B19F08BEA90E0D0CF62E370E080E067
:1023400090E00E94A208F6011192BA94E9F7E12CFC
:10235000860122E04EE051E063E381E00E94B00B91
:10236000892B19F085E990E0B8CF64E670E080E051
:1023700090E00E94A208FF24F3948BCFAF92BF920B
:10238000CF92DF92EF920F931F93CF93DF93CDB74E
:10239000DEB7A8970FB6F894DEBF0FBECDBF5C01C5
:1023A000CE0101966C0188E2F60111928A95E9F757
:1023B00080E2E82E860122E040E151E063E381E023
:1023C0000E94B00B88E0F601D50101900D928A952C
:1023D000E1F7A8960FB6F894DEBF0FBECDBFDF9130
:1023E000CF911F910F91EF90DF90CF90BF90AF9062
:1023F00008951F920F920FB60F9211242F933F93BF
:102400008F939F93AF93BF938091D4019091D50107
:10241000A091D601B091D7013091D30123E0230FD1
:102420002D3758F50196A11DB11D2093D30180933E
:10243000D4019093D501A093D601B093D701809198
:10244000D8019091D901A091DA01B091DB010196F8
:10245000A11DB11D8093D8019093D901A093DA01F9
:10246000B093DB01BF91AF919F918F913F912F91DD
:102470000F900FBE0F901F90189526E8230F02961D
:10248000A11DB11DD2CF1F920F920FB60F92112432
:102490002F933F934F935F936F937F938F939F936C
:1024A000AF93BF93EF93FF938DED91E00E945F098F
:1024B000FF91EF91BF91AF919F918F917F916F911C
:1024C0005F914F913F912F910F900FBE0F901F90F2
:1024D00018951F920F920FB60F9211242F938F937E
:1024E0009F93EF93FF93E091ED01F091EE018081D6
:1024F000E091F301F091F40182FD1BC09081809185
:10250000F6018F5F8F732091F701821741F0E09100
:10251000F601F0E0E352FE4F958F8093F601FF91B4
:10252000EF919F918F912F910F900FBE0F901F9061
:1025300018958081F4CF1092E0011092DF0188EEAF
:1025400093E0A0E0B0E08093E1019093E201A093DA
:10255000E301B093E4018EE691E09093DE01809375
:10256000DD0185EC90E09093EA018093E90184EC31
:1025700090E09093EC018093EB0180EC90E09093DD
:10258000EE018093ED0181EC90E09093F001809357
:10259000EF0182EC90E09093F2018093F10186ECE0
:1025A00090E09093F4018093F3011092F601109261
:1025B000F7011092F8011092F90160E086E00E94A4
:1025C0004108EDE7FDE0E491E0939002E9E6FDE0EB
:1025D000E491F0E0EE0FFF1FE75AF24F85919491DE
:1025E000909392028093910210929B0210929D020E
:1025F00010929C0210929A021092990210929802E4
:1026000010929702109296021092950210929402E4
:102610001092930210927B02109282021092890211
:1026200010928A0210928B0210928C0281E08093A9
:102630008802809385021092860292E0909387022E
:1026400080937A0283E090E090937F0280937E02F1
:102650000E94E7259093840280938302009789F17A
:1026600023E0FC0111922A95E9F781E090E0909334
:102670007D0280937C0280E190E0909381028093C0
:10268000800280917B02882341F061E080E10E941A
:10269000410860E080E10E941308E3E7FDE0E49177
:1026A000F0E0EE0FFF1FE15BF24F85919491909364
:1026B0008E0280938D02E7E8FDE0E491E0938F02C3
:1026C000089510927F0210927E0210927D02109265
:1026D0007C02D1CFCF93DF93CDB7DEB7C651D140C7
:1026E0000FB6F894DEBF0FBECDBF789484B582607C
:1026F00084BD84B5816084BD85B5826085BD85B5A6
:10270000816085BD80916E00816080936E00109223
:10271000810080918100826080938100809181009E
:10272000816080938100809180008160809380002F
:102730008091B10084608093B1008091B00081608D
:102740008093B00080917A00846080937A008091B9
:102750007A00826080937A0080917A008160809311
:102760007A0080917A00806880937A001092C1008C
:10277000E091ED01F091EE0182E08083E091E901CA
:10278000F091EA011082E091EB01F091EC0180E11F
:1027900080831092F501E091F101F091F20186E061
:1027A0008083E091EF01F091F0018081806180836E
:1027B000E091EF01F091F001808188608083E091E9
:1027C000EF01F091F001808180688083E091EF015A
:1027D000F091F00180818F7D808361E088E00E942C
:1027E000410860E088E00E94130861E084E00E94F4
:1027F000410860E084E00E94130862E085E00E94E6
:102800004108809180029091810297FD2EC061E085
:102810000E94410860E0809180020E94130881E0DC
:1028200080937B0260918202613541F120918302A5
:10283000309184026150E1F070E08FEF90E50E94EA
:102840003223F90140917E0250917F02CF01821B19
:10285000930B8417950778F44081469FC001479FEA
:10286000900D112490833196EDCF10927B02DACF38
:1028700070E060E0E6CF81E5809382020E94710EF5
:1028800064EF71E080E090E00E94A2080E94C60F11
:102890000E94EF07892B09F077C188EF91E00E9431
:1028A000BA0F8CEC91E00E94BA0F8DE991E00E9482
:1028B000BA0F0E94C60F84E091E00E94BA0F1092F6
:1028C000CC011092CB010E94EF0721E0892B09F087
:1028D00020E02093D2012091120130911301409108
:1028E0001401C15FDE4F288339834A83CF50D14022
:1028F000AE01415C5F4F3A011E0155EE250E311CC1
:10290000C3014296CE5EDE4F99838883C251D14087
:1029100020914F013091500140915101CC5EDE4F2A
:10292000288339834A83C451D140AE0143585F4F55
:10293000CB5FDE4F59834883C550D1408FB7F894A1
:10294000C090D401D090D501E090D601F090D7018D
:102950008FBFB090D2018091CE019091CF01A09114
:10296000D001B091D101A7019601281B390B4A0B68
:102970005B0BDA01C901C297A105B105A0F0C092B5
:10298000CE01D092CF01E092D001F092D1010E940D
:10299000EF078C01AA24A394892B09F0A12CBA106B
:1029A000FEC01092CD01B1101EC00091CB0110915C
:1029B000CC018DED91E00E943F09892BA1F08DEDB6
:1029C00091E00E941D098F7D833569F40130110566
:1029D00051F084E79CE00E94BA0F81E090E0909370
:1029E000CC018093CB018091C7019091C801A09147
:1029F000C901B091CA01A7019601281B390B4A0BE6
:102A00005B0BDA01C90180329340A105B10538F1B1
:102A10000091CB011091CC01C092C701D092C801A6
:102A2000E092C901F092CA010E94780B01151105CC
:102A300009F0EAC0882309F4E7C00E94C60F8BE4BE
:102A40009CE0B11002C085E29CE00E94BA0F0E9497
:102A5000C60F81E090E09093CC018093CB018091F0
:102A6000CB019091CC01892B09F050C08091C3011A
:102A70009091C401A091C501B091C601A701960132
:102A8000281B390B4A0B5B0BDA01C9014497A105DE
:102A9000B105E0F1C092C301D092C401E092C5013A
:102AA000F092C60110E0B11001C010E52FB7F89404
:102AB0006091D4017091D5018091D6019091D70198
:102AC0002FBF20ED37E040E050E00E945A239B01E9
:102AD000AC01283E83E038074105510508F0AFC03E
:102AE000A0E5B0E00E947C2328EE33E040E050E017
:102AF0000E945A23219FC001112460E570E00E94CA
:102B00004623862F622F782F0E943D0D8091CB01A6
:102B10009091CC01019709F05BC1BB2009F46BC116
:102B20000E947F0C0E94A20BC15FDE4F68817981F9
:102B30008A81CF50D1400E943D0D0E94C60F8AEF7E
:102B400093E00E94BA0F0E94C60F88E0CB5FDE4F71
:102B5000A881B981C550D1401D928A95E9F7CE016F
:102B600083589F4F0E94BE116FE0C3010E946A0FFD
:102B7000B82E81116CC08AED93E00E94BA0F0E94BA
:102B8000430F0E94900B7EC085E791E00E94BA0F30
:102B900084E491E00E94BA0F8BE191E088CE8091AD
:102BA000CD018F5F843018F48093CD01FCCE8091ED
:102BB000CB019091CC011092CD01A092D2019C0149
:102BC000225031092230310510F0892BA1F40E94E6
:102BD000710E1092CC011092CB010E94C60F012BF6
:102BE00061F484E19DE00E94BA0F8DED9CE00E94AB
:102BF000BA0F0E94C60FBA2CD6CE87EB9CE00E947B
:102C0000BA0F8DE89CE0F3CF025011090230110594
:102C100008F025CF811123CF0E94C60F87EF9BE0DC
:102C2000B11002C089ED9BE00E94BA0F0E94C60F4E
:102C30000E94710E1092CC011092CB0110CFA0EB2C
:102C4000BFEF0E948A237F588D4F9F4F4DCFF301D6
:102C50009301205E3F4F8FEF91918923E217F30795
:102C6000D9F78F3F91F480EB93E00E94BA0F609107
:102C70004F0170915001809151010E943D0D0E94C1
:102C8000900BB12C83E090E099C041E0B301CE01FC
:102C900083589F4F0E94C20C182F80EA93E00E9435
:102CA000CE0917FF03C086E793E0DFCF812F110F16
:102CB000990B0E941F10C3010E940E0AB82E882390
:102CC00049F082E593E00E94BA0F0E94430F0E94F0
:102CD000900B72C020915A0130915B0140915C01D0
:102CE00066E970E082E00E94790E89E293E00E943A
:102CF000BA0F18E24FE0612FC3010E94650B1F5FFE
:102D00001C32C1F78BEE92E00E94BA0F6091520123
:102D100070915301809154010E943D0DC3010E94A6
:102D20002D11B82E811107C00E94A20B0E94C60F60
:102D300087E093E034C00E94A20B6AE0CE010196C6
:102D40000E946A0FB82E86EC92E0BB2009F44DC0B9
:102D5000CE0101960E940E0AB82E87E992E0BB20B0
:102D600009F443C00E94A20B6AE0CE0101960E94C2
:102D70006A0FB82E89E792E0BB20B9F1CE01019627
:102D80000E940E0AB82E87E292E0BB2071F180E625
:102D900092E00E94BA0F0E94C60F88E193E00E9461
:102DA000BA0F0E94C60FBB2019F10E942C0F0E947F
:102DB000900BBB2009F466CF82E090E09093CC01A9
:102DC0008093CB01B11004C08BEB9BE00E94BA0F43
:102DD00080E090E0892B09F4B1CD0E944B09882353
:102DE00009F4ACCD0E940000A0CD0E94BA0F9ECF86
:102DF0000E94430FDCCF0E947F0C0E94A20BC15F98
:102E0000DE4F688179818A81CF50D1400E943D0D8B
:102E10008EE3F30111928A95E9F780E090ECA9E73F
:102E2000B4ECF30187A790ABA1ABB2AB83A794A797
:102E3000A5A7B6A78FEF9FEF61969FAF8EAF619763
:102E400080E2D1011D928A95E9F71FE0C1010E943D
:102E5000550C009711F00C94062368EC70E080E0AC
:102E600090E00E94A208115089F784E89BE00E943C
:102E7000BA0F0E94710E85CECE5EDE4F68817981D9
:102E8000C251D140C1010E94DE0AB301C1010E94BA
:102E9000540A8301085F1F4FC8010E94BE1140E021
:102EA000B101C8010E94C20C082E000C990B61965A
:102EB0009FAF8EAF6197FE0131962F01059709F004
:102EC000B9C0EE961FAEEE9720E0AE0143585F4FBB
:102ED00061E086E191E00E942D0C892B89F41A8231
:102EE000198222E0A20161E085E191E00E942D0CAF
:102EF000892B31F499818A819F3F41F48F3F51F4AE
:102F000066E971E0C3010E940C2718C0911102C04C
:102F10008823B1F31F929F931F928F938BE891E0C8
:102F20009F938F931F9288E08F937F926F920E945E
:102F300013270FB6F894DEBF0FBECDBF0E94C60F99
:102F400088EE9AE00E94CE09C3010E941D1161968D
:102F50008EAD9FAD61970E94230A882359F020917E
:102F60005A0130915B0140915C0166E970E081E0BB
:102F70000E94790E88E2CB5FDE4FE881F981C5506F
:102F8000D14011928A95E9F7E396BFACE397619639
:102F90008EAD9FAD61978530910509F46FC006979E
:102FA00009F468C28BE1D2011D928A95E9F72BE101
:102FB000A20164E08DE191E00E942D0C892B09F0C3
:102FC000C5C269817A816115710509F4BFC290E0BB
:102FD00080E00E94BE2420E030E04AE754E40E94F2
:102FE00016246B017C018201FE01E358FF4F4F0163
:102FF000A12C0E5F1F4F8B2DB5E0BB1508F485E0AB
:10300000A81608F0B9C2F80161818081762F682F77
:1030100090E080E00E94BE2420E030E04AE754E4E3
:103020000E941624D4016D937D938D939D934D0141
:10303000A394DFCF80E1DF011D928A95E9F720E1BB
:10304000AF0162E087E191E00E942D0C892B11F025
:103050001FAE74CFF201D3019E01285F3F4F8191D3
:1030600090EE980F9F3528F01C9227961FAE279759
:1030700065CF8D932E173F0791F7F7CF80E2D201EE
:103080001D928A95E9F720E2A20162E084E291E0D4
:103090000E942D0C64E170E080E090E00E94A208A4
:1030A00020E2A20162E084E291E00E942D0C64E142
:1030B00070E080E090E00E94A20884E690E00E9428
:1030C000940B8E0103581F4FA12CC12CD12C7601DB
:1030D000ABE88A2E992493948B2DB5E0BB1508F4A8
:1030E00085E0A81608F03FC00E94F2068823B9F1D7
:1030F000C4010197F1F781E38A0D0E942B0783E554
:1031000092E00197F1F70E948B07C95FDE4F888339
:10311000C750D140C4010197F1F70E948B07C95FE6
:10312000DE4FE881C750D140982F8E2FBC0190E030
:1031300080E00E94BE2420E030E04AE754E40E9490
:1031400016249B01AC01D8012D933D934D935C93C4
:103150001397C701B6010E94A5236B017C01A394BC
:103160000C5F1F4FB9CF0E94900B61968EAD9FAD43
:1031700061979C01255031092230310540F50597B2
:1031800009F078C21A82198222E0A20161E086E287
:1031900091E00E942D0C892B09F0A1C269817A81EE
:1031A00090E080E00E94BE2420E030E040E251E464
:1031B0000E94162423E333E948E853E40E94A42341
:1031C000D3019B966D937D938D939C939E97A6962A
:1031D0001FAEA697A5961FAE1EAEA597F30117A228
:1031E00010A611A612A661968EAD9FAD61979C01A7
:1031F000255031092230310508F079C267962FAD8C
:1032000067972E3108F470C22D51330B69960EADBD
:103210001FAD699766964FAD669783E290E0841B79
:10322000910997FF02C090E080E0820F931F809F7A
:10323000B001819F700D909F700D112490E080E08F
:103240000E94BE2420E030E040E05DE30E9475254E
:103250004B015C01B80190E080E00E94BE249B011C
:10326000AC01C501B4010E94A5234B015C0163962A
:103270008FAD63978A3141F08C3131F0883221F083
:1032800068E572E0823311F468EE73E090E080E06C
:103290000E94BE249B01AC01C501B4010E9416240A
:1032A0009B01AC0160E070E080E890E40E94A42300
:1032B0004B015C0120E030E0A9010E94112487FF4E
:1032C00003C0812C912C5401D30190968D929D9234
:1032D000AD92BC9293970E94780BB82E81EC9AE045
:1032E000BB2009F4C4CD0E94C60F8FE097E00E9476
:1032F000CE09C3010E941D118DEF96E00E94CE09F8
:103300008301085F1F4FA12CD8018D918D01803161
:1033100018F480E30E94E909F8013197608170E0B8
:1033200090E080E040E10E94CA0FB7E0AB1619F0D0
:1033300080E20E94E909A394E8E0AE12E5CF0E9482
:10334000B60F28968FAD28971F928F9329968FAD31
:1033500029971F928F932A968FAD2A971F928F934A
:103360008DE991E09F938F931F928DE08F938E0153
:103370000B551F4F1F930F930E9413278BEE96E060
:103380000E94CE09C8010E941D1189ED96E00E949D
:10339000CE0961968EAD9FAD61970E941F1087EC9C
:1033A00096E00E94CE0962966FAD629770E090E061
:1033B00080E04AE00E94CA0F83EC96E00E94CE09AA
:1033C00062968FAD62970FB6F894DEBF0FBECDBF89
:1033D0008D3008F00AC385EB96E00E94CE0989E2A1
:1033E0000E94E9090E94B60F86E896E00E94CE0985
:1033F000D301D4966D917D918D919C91D79741E0A9
:1034000050E00E944D1082E896E00E94BA0F0E94A0
:10341000C60F80E796E00E94CE09E8968FADE89748
:10342000882309F4EAC287E596E00E94BA0F8EE588
:1034300096E00E94CE096A968FAD6A97882309F4B8
:10344000DFC288E396E00E94BA0F8CE396E00E9408
:10345000CE0965968FAD6597813009F440C508F4B3
:10346000D2C2853009F43EC58F3009F43EC50E94B2
:103470000E10CDC2CB55DF4F1882C55AD04084E123
:10348000F20111928A95E9F784E690E00E94940B8C
:10349000E12C8E010B551F4F22E042E251E06CEC13
:1034A00080E00E94B00B6AE070E080E090E00E9453
:1034B000A208F4E1EF2E820121E041E251E06CEC40
:1034C00080E00E94B00B0E94900B9E0123583F4F5A
:1034D0004901A12CC12CD12C76018B2D3AE03B1552
:1034E00008F48AE0A81608F040CED80111966C9135
:1034F00011978C91762F682F90E080E00E94BE2477
:1035000020E030E040E251E40E9416249B01AC012F
:1035100060E070E88BEB95E40E94A42320E030E0AB
:103520004AE754E40E9416249B01AC01F401219364
:103530003193419351934F01C701B6010E94A523D6
:103540006B017C01A3940E5F1F4FC7CF8E010B55FB
:103550001F4F8DE0D8011D928A95E9F72DE0A80153
:1035600064E089E191E00E942D0C892B09F447C0A9
:10357000C12CD12C7601F9CD6F85788909891A89FA
:10358000693EB3E07B07B0F190E080E00E94BE248A
:1035900020E030E040E251E40E94162423E333E9C6
:1035A00048E853E40E94A423F30163A774A785A706
:1035B00096A760E070EC89E794EC093EF3E01F0702
:1035C00088F0B80190E080E00E94BE2420E030E066
:1035D00040E251E40E94162423E333E948E853E42F
:1035E0000E94A423D3019F966D937D938D939C930A
:1035F000D297BBCD60E070EC89E794ECD5CFF801B1
:103600008485863009F0B4CF6081718190E080E0DC
:103610000E94BE2420E030E04AE754E40E941624D1
:103620006B017C019E0123583F4F4901A12C0E5F85
:103630001F4F8B2D35E03B1508F485E0A81608F0E8
:1036400094CDD80111966C9111978C91762F682F9B
:1036500090E080E00E94BE2420E030E04AE754E49D
:103660000E941624F40161937193819391934F0109
:10367000A394DDCF84E690E00E94940B0E94F206B2
:10368000082F10E0882371F08BE891E00197F1F7A3
:1036900082ED0E942B0783E592E00197F1F70E94EB
:1036A0008B07182F0E94900B0023C9F0612F70E048
:1036B00090E080E00E94C02420E030E040E252EC44
:1036C0000E94752520E03CEA41E156E40E94A523D2
:1036D00020E030E048EC52E40E94162471CD60E016
:1036E00070EC89E794EC6CCD30E020E08FCD009752
:1036F00039F09C01225031092230310508F042C1D5
:1037000063961FAD6397009709F4C1C09C012250D6
:1037100031092230310508F4BAC070E060E01123AD
:10372000A1F190E080E00E94BE244B015C01612F7A
:1037300070E090E080E00E94C0249B01AC01C501D4
:10374000B4010E9416244B015C0120E030E040EA05
:1037500052E40E94702518160CF4B6C020E030E048
:1037600040E251E4C501B4010E94162420E030E09B
:1037700040EA50E40E94A4234B015C0120E030E0C9
:10378000A9010E94112487FF03C0812C912C5401B0
:10379000F30180A291A2A2A2B3A261968EAD9FADC9
:1037A0006197009709F497C09C012250310922309B
:1037B000310508F490C080E0A6968FAFA697619679
:1037C0008EAD9FAD61978230910509F49FC0833023
:1037D000910509F4BAC0892B09F0CDC088E0D20167
:1037E0001D928A95E9F748E0B20187E491E00E94D2
:1037F0003C0C882309F4BFC02F81B0E12B9FA001AE
:103800001124407F53709E81292F30E064E035956C
:1038100027956A95E1F7242B352B8D8190E0982F21
:103820008827882793704C81842B820F931F4981AE
:1038300042954695469543702A81E4E02E9F90017B
:103840001124242B820F931FA5969FAF8EAFA597AF
:1038500061968EAD9FAD6197892B09F08FC085E091
:10386000D2011D928A95E9F745E0B2018BE491E01F
:103870000E943C0C882309F481C089819A81AB8124
:10388000BC81F30187A390A7A1A7B2A724CD198279
:103890001A821B828230910599F0039799F482E095
:1038A000B4E08B9FC001112443E0B201895D9E4FBB
:1038B0000E943C0C882309F430CF69817A812FCF94
:1038C00081E0EECF80E0ECCF812C912CE0E8AE2EB1
:1038D000E0E4BE2E5DCF1A8219828230910591F00C
:1038E000039791F482E0F4E08F9FC001112442E03D
:1038F000B2018D5C9E4F0E943C0C882309F45BCF83
:1039000089815ACF81E0EFCF80E0EDCF88E0D2010E
:103910001D928A95E9F748E0B20183E491E00E94A4
:103920003C0C882341F129818B81E22FE80FFF278E
:10393000FF1F2C812E0F3F2F311D8E81280F311D2F
:103940008F81820F932F911D7FCF86E0D2011D9230
:103950008A95E9F746E0B2018FE391E00E943C0CC2
:10396000882349F089819B81E82FE90FFF27FF1FFA
:103970009F018C81E6CF90E080E066CF80E090E010
:10398000DC017FCFD10157966C916F7070E0759517
:103990006795812C912C20E8A22E20E4B22E633072
:1039A000F0F06730C9F062507109072E000C880BE7
:1039B000990B0E94C0249B01AC0160E070E080E89C
:1039C00090E40E94A4234B015C0120E030E0A901B7
:1039D0000E94112487FF03C0812C912C5401F30114
:1039E00080A291A2A2A2B3A276CC8E3118F487EA6B
:1039F00096E0F3CC88E996E0F0CC8EE496E015CD25
:103A000085E396E020CD8EE296E00E94BA0F8FEC1F
:103A100095E00E94CE09E9968FADE997882309F4D5
:103A200067C28AEB95E00E94BA0F8DEB95E00E9489
:103A3000CE09EA968FADEA97882309F45CC280EA42
:103A400095E00E94BA0F83EA95E00E94CE09EB96BA
:103A50008FADEB97882309F451C286E895E00E9468
:103A6000BA0F89E895E00E94CE09EC968FADEC97ED
:103A7000882309F446C28CE695E00E94BA0F8FE6CF
:103A800095E00E94CE09ED968FADED97882309F45D
:103A90003BC288E395E00E94BA0F0E94C60F85E5FD
:103AA00095E00E94CE0969966EAD7FAD699790E072
:103AB00080E04AE00E94CA0F0E94B60F83E495E0BE
:103AC0000E94CE09F30160A171A182A193A142E0FD
:103AD00050E00E944D108BE395E00E94CE09D30187
:103AE00090962D913D914D915C919397C95FDE4FDA
:103AF000288339834A835B83C750D14020E030E07C
:103B0000A901C95FDE4F688179818A819B81C75095
:103B1000D1400E94702520E030E040E05FE387FD67
:103B2000F6C1C95FDE4F688179818A819B81C75068
:103B3000D1400E94A5230E9488248B01912C812CC6
:103B400083E2801691060CF08DE20E94E909BFEF36
:103B50008B1A9B0AE4E08E16910491F789E20E9489
:103B6000E9090E94B60F61968EAD9FAD61970097EF
:103B700021F00297029708F0A9C081E295E00E9427
:103B8000CE09A6968FADA6970E940E108FE095E005
:103B90000E94CE09A5966EAD7FADA59790E080E01E
:103BA0004AE00E94CA0F0E94B60FA6968FADA69754
:103BB000882309F442C069968EAD9FAD6997892B21
:103BC000E1F18DEF94E00E94CE09A6966FADA69725
:103BD00070E090E080E00E94C02420E030E048ECFB
:103BE00052E40E947525C95FDE4F688379838A831A
:103BF0009B83C750D14069966EAD7FAD699790E0C9
:103C000080E00E94BE249B01AC01C95FDE4F688149
:103C100079818A819B81C750D1400E94162420E07F
:103C200030E040E850E40E94A52341E050E00E94CB
:103C30004D108AEF94E00E94BA0FA5968EAD9FAD0D
:103C4000A597892B09F442C069968EAD9FAD6997FF
:103C5000892BE1F188EE94E00E94CE09A5966EAD25
:103C60007FADA59790E080E00E94BE2420E030E088
:103C700048EC52E40E947525C95FDE4F6883798362
:103C80008A839B83C750D14069966EAD7FAD69979B
:103C900090E080E00E94BE249B01AC01C95FDE4F32
:103CA000688179818A819B81C750D1400E94162406
:103CB00020E030E040E850E40E94A52341E050E0DD
:103CC0000E944D1085EE94E00E94BA0F61968EAD71
:103CD0009FAD61970597029708F040C083ED94E08F
:103CE0000E94CE0966966FAD669770E090E080E026
:103CF0000E94C02420E030E040EA50EC0E9475258C
:103D000020E030E040E253E40E94A52341E050E08F
:103D10000E944D1080ED94E00E94BA0F8EEB94E06B
:103D20000E94CE0967966FAD679770E090E080E0E3
:103D30000E94C02420E030E040EA50E40E94752553
:103D400020E030E040E253E40E94A42341E050E050
:103D50000E944D108BEB94E00E94BA0F20E030ECF3
:103D600049E754ECD3019B966D917D918D919C9187
:103D70009E970E941124882389F089EA94E00E948A
:103D8000CE09F30163A574A585A596A541E050E091
:103D90000E944D1086EA94E00E94BA0F20E030ECB9
:103DA00049E754ECD3019F966D917D918D919C9143
:103DB000D2970E941124882389F084E994E00E941C
:103DC000CE09F30167A570A981A992A941E050E04D
:103DD0000E944D1081E994E00E94BA0F0E94C60F24
:103DE0008FE794E00E94CE0943E050E0C701B6019E
:103DF0000E944D108CE794E00E94BA0FE3968FADBD
:103E0000E39781118FC088E694E00E94BA0F0E9468
:103E1000C60FE9968FADE997882351F0EA968FADEA
:103E2000EA97882329F0EB968FADEB9781112CC090
:103E300081E89AE00E94BA0FE9968FADE997811167
:103E400004C089E69AE00E94BA0FEA968FADEA971D
:103E5000811104C081E59AE00E94BA0FEB968FAD04
:103E6000EB97811104C089E39AE00E94BA0F619632
:103E70008EAD9FAD61970E94230A882309F4C8C1C3
:103E80008FEF99E00E94BA0FE8968FADE897811105
:103E9000C5C18AEB99E00E94BA0F61968EAD9FADC5
:103EA00061970E94230A882309F4B5C12091570124
:103EB000309158014091590168EC70E083E00E9414
:103EC000790E0E94690E0E94A20B0E94690E0E9448
:103ED000C60F87EB9AE00E94BA0F0C9467168FE129
:103EE00096E093CD83E196E090CD81EE95E08DCD87
:103EF00085EB95E098CD8BE995E0A3CD81E895E041
:103F0000AECD87E695E0B9CD83E395E0C4CDC95F3A
:103F1000DE4F688179818A819B81C750D1400E94A0
:103F2000A42309CEEE96FFADEE97C95FDE4FF8836E
:103F3000C750D140EF962FADEF97C55FDE4F288376
:103F4000CB50D140C158DF4FD880CF57D040C05858
:103F5000DF4FE880C058D0408F2EC45FDE4F2883EB
:103F6000CC50D140C35FDE4FD882CD50D140C25F2C
:103F7000DE4FE882CE50D140C12CE3968FADE3975F
:103F8000C81608F094C00C2D10E0C80101969F934C
:103F90008F934EEA51E05F934F931F9296E19F9368
:103FA0005F924F920E941327C2010E94A90F000F37
:103FB000111F000F111FADE7B0E0AC0FBD1F0A0FBE
:103FC0001B1FF801608171818281938143E050E081
:103FD0000E944D1085E694E00E94BA0FD8019C9093
:103FE0001196AC9011971296FC90129713961C9113
:103FF0000FB6F894DEBF0FBECDBFC95FDE4F28817C
:10400000C750D140C55FDE4F3881CB50D1404D2DD8
:104010005E2D692D7A2D8F2D912F0E9470251816F7
:1040200064F4C95FDE4F9882C750D140C55FDE4F50
:10403000A882CB50D140DF2CE12E282DC45FDE4F6B
:104040003881CC50D140C35FDE4F4881CD50D14044
:10405000C25FDE4F5881CE50D140692D7A2D8F2D11
:10406000912F0E94112487FD10C0982CC45FDE4F51
:10407000A880CC50D140C35FDE4FF880CD50D140F6
:10408000C25FDE4F1881CE50D140C394892CC45FEB
:10409000DE4FA882CC50D140C35FDE4FF882CD50B6
:1040A000D140C25FDE4F1883CE50D14066CF83E54A
:1040B00094E00E94CE09282DC45FDE4F3881CC5099
:1040C000D140C35FDE4F4881CD50D140C25FDE4F4B
:1040D0005881CE50D140C95FDE4F6881C750D14072
:1040E000C55FDE4F7881CB50D1408D2D9E2D0E9433
:1040F000A42343E050E00E944D1080E594E00E942C
:10410000BA0F61968EAD9FAD6197009721F002972F
:10411000029708F055C0D30197966D917D918D91CE
:104120009C919A97611571058105910509F448C024
:1041300063961FAD6397112309F442C00E94BE2409
:104140006B017C01612F70E090E080E00E94C02450
:104150009B01AC01C701B6010E94162420E030E0AB
:1041600044E355E40E9416246B017C0120E030E01A
:1041700040E251E40E94112411E087FD10C020E0CC
:1041800030E040E251E4C701B6010E9416240E94CB
:1041900088246830710514F067E070E0162F0E94E3
:1041A000C60F8EE394E00E94CE09612F70E090E08C
:1041B00080E04AE00E94CA0F89E394E00E94BA0FAF
:1041C0000E94C60F87E294E00E94CE098E010B5137
:1041D0001F4FF12CF80181918F01803118F480E399
:1041E0000E94E909F8013197608170E090E080E079
:1041F00040E10E94CA0FFFE1FF1619F080E20E9421
:10420000E909F39420E2F212E5CF0E94B60FFFCD48
:104210008CEC99E037CE0E942C0F57CE8BE999E0B9
:104220000E94CE0965968FAD65970E940E1061962B
:104230008EAD9FAD61970E94230A811125C08CE746
:1042400099E00E94CE096196CEACDFAC61970D2C4F
:10425000000CEE08FF084AE0C701B601F7FE0BC0EC
:104260008DE20E94E90966277727CB016C197D0949
:104270008E099F094AE00E94CA0F80E799E00E94D8
:10428000BA0F0E94430F23CE85E599E00E94BA0F32
:10429000CC5EDE4F688179818A81C451D1400E9411
:1042A0003D0D80905A0190905B01A0905C014A2DD9
:1042B000940166E970E082E00E94790E0E94A20BF0
:1042C0000E949E0C892B39F082EF98E00E94BA0F71
:1042D0008CE199E0D4CFAE014F5F5F4F6A0181E17D
:1042E000DA011D928A95E9F789E0E82E8A0122E039
:1042F00045E551E063E381E00E94B00B62E370E0CA
:1043000080E090E00E94A2080E947F0C62E370E0CF
:1043100080E090E00E94A208C1010E94550C019724
:1043200019F08FEC98E0D2CFCE5EDE4F68817981B4
:10433000C251D140C1010E94DE0AB301C1010E94F5
:10434000540A8DEB98E00E94CE09E9968FADE9976B
:104350008823D9F188EA98E00E94BA0F8BEA98E0A6
:104360000E94CE09EA968FADEA97882389F18EE8FC
:1043700098E00E94BA0F81E998E00E94CE09EB967E
:104380008FADEB97882339F186E898E00E94BA0F49
:10439000E8968FADE897811121C089E698E00E94E8
:1043A000BA0F86E399E00E94BA0F2091570130912D
:1043B00058014091590168EC70E083E00E94790E49
:1043C0000E94690E0E94A20B82CD83EA98E0C4CFBE
:1043D00089E898E0CECF81E898E0D8CFE9968FAD14
:1043E000E997882369F0EA968FADEA97882341F030
:1043F000EB968FADEB97882319F080E398E066CFBA
:1044000081E098E00E94BA0F6091520170915301CF
:10441000809154010E943D0D4A2D940166E970E09F
:1044200082E00E94790E80E2F101DE01AB53BF4FC2
:1044300001900D928A95E1F740E068E2CE018B533E
:104440009F4F0E94650B4FE060E0CE018B539F4F62
:104450000E94300A482F69E2CE018B539F4F0E9481
:10446000650B4FE160E1CE018B539F4F0E94300AF4
:10447000482F6AE2CE018B539F4F0E94650B48E2A2
:1044800060E2CE018B539F4F0E94300A482F6BE2AF
:10449000CE018B539F4F0E94650B4FE26CE2CE0121
:1044A0008B539F4F0E94300A482F6EE3CE018B53EF
:1044B0009F4F0E94650B4DE360E3CE018B539F4FEE
:1044C0000E94300A482F6FE3CE018B539F4F0E940A
:1044D000650B8EEA97E00E94CE098E010B531F4FA9
:1044E000F12CF80181918F01803118F480E30E9452
:1044F000E909F8013197608170E090E080E040E1E7
:104500000E94CA0FFFE1FF1619F080E20E94E9093C
:10451000F39420E2F212E5CF0E94B60F0E949E0CA7
:10452000892B29F08CE897E00E94BA0F09C0CE01D0
:104530008B539F4F0E942D11811105C00E947F0C4B
:1045400080EC97E0C3CE0E947F0C0E94A20B8E01EC
:104550000B551F4FD8011D92FA94E9F7C8010E942C
:10456000550C019719F08FE697E0DECF8EE3F60148
:1045700011928A95E9F7BE016D5E7F4FC8010E94D6
:10458000DE0AB601C8010E94540A8DE597E00E9438
:10459000CE098AAD882389F188E497E00E94BA0F9A
:1045A0008BE497E00E94CE098BAD882349F18EE21F
:1045B00097E00E94BA0F81E397E00E94CE098CAD8C
:1045C000882309F186E297E00E94BA0F89AD811134
:1045D000B7CF80E2F801D10101900D928A95E1F701
:1045E000B3016E5E7F4FC1010E94DE0AB301C101BB
:1045F0000E94540A8AED97E0D2CE83E497E0CECFB2
:1046000089E297E0D6CF81E297E0DECF019611F004
:104610000C943C170E94C60F89E59BE00E94BA0FDC
:1046200081E29BE00E94BA0F8AEF9AE00E94BA0FE3
:104630000E94C60F0E94430F0E94900BBB24B394AC
:104640000C94DC1680918302909184020E94832650
:10465000809180029091810297FD03C060E00C94EC
:1046600041080895AA1BBB1B51E107C0AA1FBB1F2D
:10467000A617B70710F0A61BB70B881F991F5A95EE
:10468000A9F780959095BC01CD01089597FB072E61
:1046900016F4009407D077FD09D00E94322307FC5E
:1046A00005D03EF4909581959F4F08957095619542
:1046B0007F4F0895A1E21A2EAA1BBB1BFD010DC05E
:1046C000AA1FBB1FEE1FFF1FA217B307E407F507C2
:1046D00020F0A21BB30BE40BF50B661F771F881F9E
:1046E000991F1A9469F760957095809590959B0134
:1046F000AC01BD01CF0108950E949523A59F900DA7
:10470000B49F900DA49F800D911D11240895B7FFB3
:104710000C947C230E947C23821B930B0895EE0F44
:10472000FF1F0590F491E02D0994A29FB001B39F63
:10473000C001A39F700D811D1124911DB29F700DAA
:10474000811D1124911D08955058BB27AA270E944E
:10475000BC230C9436250E94282538F00E942F2572
:1047600020F039F49F3F19F426F40C9425250EF41B
:10477000E095E7FB0C941F25E92F0E94472558F38D
:10478000BA17620773078407950720F079F4A6F536
:104790000C9469250EF4E0950B2EBA2FA02D0B0179
:1047A000B90190010C01CA01A0011124FF27591B76
:1047B00099F0593F50F4503E68F11A16F040A22F7C
:1047C000232F342F4427585FF3CF469537952795ED
:1047D000A795F0405395C9F77EF41F16BA0B620BEC
:1047E000730B840BBAF09150A1F0FF0FBB1F661F33
:1047F000771F881FC2F70EC0BA0F621F731F841F76
:1048000048F4879577956795B795F7959E3F08F09B
:10481000B0CF9395880F08F09927EE0F979587955D
:1048200008950E94FB2408F481E008950E942A2440
:104830000C9436250E942F2558F00E94282540F020
:1048400029F45F3F29F00C941F2551110C946A251F
:104850000C9425250E94472568F39923B1F355232D
:1048600091F3951B550BBB27AA2762177307840783
:1048700038F09F5F5F4F220F331F441FAA1FA9F319
:1048800035D00E2E3AF0E0E832D091505040E69507
:10489000001CCAF72BD0FE2F29D0660F771F881F68
:1048A000BB1F261737074807AB07B0E809F0BB0B5B
:1048B000802DBF01FF2793585F4F3AF09E3F51056F
:1048C00078F00C941F250C946A255F3FE4F3983E22
:1048D000D4F3869577956795B795F7959F5FC9F758
:1048E000880F911D9695879597F90895E1E0660FD9
:1048F000771F881FBB1F621773078407BA0720F052
:10490000621B730B840BBA0BEE1F88F7E0950895BA
:104910000E948F246894B1110C946A2508950E9416
:104920004F2588F09F5798F0B92F9927B751B0F0CD
:10493000E1F0660F771F881F991F1AF0BA95C9F723
:1049400014C0B13091F00E946925B1E008950C9433
:104950006925672F782F8827B85F39F0B93FCCF3E6
:10496000869577956795B395D9F73EF490958095A0
:10497000709561957F4F8F4F9F4F0895E89409C0C0
:1049800097FB3EF490958095709561957F4F8F4F82
:104990009F4F9923A9F0F92F96E9BB279395F69598
:1049A000879577956795B795F111F8CFFAF4BB0F16
:1049B00011F460FF1BC06F5F7F4F8F4F9F4F16C07A
:1049C000882311F096E911C0772321F09EE8872F04
:1049D000762F05C0662371F096E8862F70E060E0C0
:1049E0002AF09A95660F771F881FDAF7880F969539
:1049F000879597F90895990F0008550FAA0BE0E8DD
:104A0000FEEF16161706E807F907C0F01216130690
:104A1000E407F50798F0621B730B840B950B39F4D0
:104A20000A2661F0232B242B252B21F408950A2636
:104A300009F4A140A6958FEF811D811D089597F976
:104A40009F6780E870E060E008959FEF80EC089534
:104A500000240A941616170618060906089500245D
:104A60000A9412161306140605060895092E0394D7
:104A7000000C11F4882352F0BB0F40F4BF2B11F44B
:104A800060FF04C06F5F7F4F8F4F9F4F089557FDAA
:104A90009058440F551F59F05F3F71F04795880FAC
:104AA00097FB991F61F09F3F79F087950895121643
:104AB00013061406551FF2CF4695F1DF08C01616EF
:104AC00017061806991FF1CF8695710561050894A0
:104AD0000895E894BB2766277727CB0197F90895B7
:104AE0000E94FB2408F48FEF08950E9488250C94FF
:104AF00036250E94282538F00E942F2520F0952386
:104B000011F00C941F250C94252511240C946A2572
:104B10000E94472570F3959FC1F3950F50E0551FF4
:104B2000629FF001729FBB27F00DB11D639FAA2702
:104B3000F00DB11DAA1F649F6627B00DA11D661F51
:104B4000829F2227B00DA11D621F739FB00DA11D72
:104B5000621F839FA00D611D221F749F3327A00D2C
:104B6000611D231F849F600D211D822F762F6A2FC8
:104B700011249F5750409AF0F1F088234AF0EE0F2D
:104B8000FF1FBB1F661F771F881F91505040A9F75A
:104B90009E3F510580F00C941F250C946A255F3FC1
:104BA000E4F3983ED4F3869577956795B795F79596
:104BB000E7959F5FC1F7FE2B880F911D969587950E
:104BC00097F908950E94FB24880B990B08950F9381
:104BD0001F93CF93DF938230910510F482E090E031
:104BE000E091A002F091A10230E020E0B0E0A0E06E
:104BF000309799F42115310509F44AC0281B390B67
:104C000024303105D8F58A819B816115710589F1C0
:104C1000FB0193838283FE0111C040815181028197
:104C2000138148175907E0F04817590799F410976E
:104C300061F012960C93129713961C933296CF0143
:104C4000DF91CF911F910F9108950093A0021093CF
:104C5000A102F4CF2115310551F04217530738F066
:104C6000A901DB019A01BD01DF01F801C1CFEF010C
:104C7000F9CF9093A1028093A002CDCFFE01E20F65
:104C8000F31F819391932250310939832883D7CF21
:104C900020919E0230919F02232B41F4209102012A
:104CA0003091030130939F0220939E0220910001D6
:104CB000309101012115310541F42DB73EB74091E6
:104CC000040150910501241B350BE0919E02F091E7
:104CD0009F02E217F307A0F42E1B3F0B281739079A
:104CE00078F0AC014E5F5F4F2417350748F04E0F48
:104CF0005F1F50939F0240939E02819391939FCF99
:104D0000F0E0E0E09CCFCF93DF930097E9F0FC0167
:104D1000329713821282A091A002B091A102ED01FC
:104D200030E020E01097A1F420813181820F931FA1
:104D300020919E0230919F022817390709F061C027
:104D4000F0939F02E0939E02DF91CF910895EA01D4
:104D5000CE17DF07E8F54A815B819E0141155105B9
:104D6000B1F7E901FB83EA8349915991C40FD51F3B
:104D7000EC17FD0761F4808191810296840F951FE5
:104D8000E90199838883828193819B838A83F0E000
:104D9000E0E012968D919C9113970097B9F52D91B3
:104DA0003C911197CD010296820F931F20919E0294
:104DB00030919F022817390739F6309751F5109234
:104DC000A1021092A002B0939F02A0939E02BCCFBA
:104DD000D383C28340815181840F951FC817D9079F
:104DE00061F44E5F5F4F88819981480F591F51834D
:104DF00040838A819B81938382832115310509F049
:104E0000B0CFF093A102E093A0029ECFFD01DC01A0
:104E1000C0CF13821282D7CFFB01DC0101900D922B
:104E20000020E1F70895AEE0B0E0E9E1F7E20C948C
:104E3000CF290D891E898F89988D26E02C831A83AE
:104E4000098397FF02C080E090E801979E838D83DD
:104E5000AE01455E5F4F698D7A8DCE0101960E944D
:104E600043274D815E8157FD0AC02F813885421747
:104E700053070CF49A01020F131FF80110822E96AB
:104E8000E4E00C94EB29ABE0B0E0E9E4F7E20C9449
:104E9000C1297C013B018A01FC01178216828381B2
:104EA00081FFC8C1CE0101965C01F7019381F30136
:104EB00093FD859193FF81913F01882309F453C1AC
:104EC000853239F493FD859193FF81913F018532BD
:104ED00029F4B70190E00E943329E7CF912C212CCF
:104EE000312CFFE1F31538F08B3211F190F4803260
:104EF00009F1833229F137FC3CC020ED280F2A301C
:104F000050F536FE20C08AE0989E200D1124922E86
:104F100006C08D3291F0803371F7689430F8F30158
:104F200093FD859193FF81913F018111DACF21C0DB
:104F3000689431F8689432F8F2CF689433F8EFCF80
:104F4000689434F8ECCFEAE02E9E200D1124222E36
:104F5000689435F8E4CF8E3229F436FC04C16894A5
:104F600036F8DDCF8C3619F4689437F8D8CF883608
:104F7000B1F2982F9F7D95549330E0F08336A1F1E4
:104F80008337C1F1833509F063C02801F2E04F0E89
:104F9000511CF801C080D180692D70E036FC02C040
:104FA0006FEF7FEFC6010E941D294C01689437F80E
:104FB00082010AC00C5F1F4FFFE3F98388248394AA
:104FC000912C6501E89437F833FE2DC0522C8114E2
:104FD000910471F5552009F468CFB70180E290E0A3
:104FE0000E9433295A94F6CFF801808189830E5F9D
:104FF0001F4FE4CF2801F2E04F0E511CF801C08092
:10500000D180692D70E036FC02C06FEF7FEFC601E2
:105010000E9428294C018201D5CFB70180E290E09F
:105020000E9433292A942814190409F0B0F7CECF2E
:10503000F60137FC859137FE81916F01B70190E051
:105040000E94332951105A94F1E08F1A9108BFCF72
:10505000843619F0893609F077C0F80137FE6BC045
:1050600060817181828193810C5F1F4FF32DFF76E8
:105070003F2E97FF09C090958095709561957F4F61
:105080008F4F9F4F689437F82AE030E0A5010E94C7
:105090006329C82ECA188C2C432C36FE0CC0E89409
:1050A00040F8C91440F434FE05C032FC03C0F32DAF
:1050B000FE7E4F2E892C44FE95C0FE01EC0DF11DA5
:1050C0008081803309F087C0242D297E422E842DD3
:1050D0008870582E43FC95C040FE8FC09C2C8214D3
:1050E00018F42C0C922C981844FE91C0B70180E360
:1050F00090E00E94332942FE09C088E790E041FE1B
:1051000002C088E590E0B7010E943329C91408F471
:105110008AC0CA94D12C9FEFC91AD90ACA0CDB1CC9
:10512000F60182916F01B70190E00E943329AC141F
:10513000BD04B1F74FCF60817181072E000C880B41
:10514000990B0E5F1F4F92CFD32CE894D4F82AE02E
:1051500030E0853739F1232D297FD22E8F3601F1AA
:1051600048F48835A9F0F701868197812B96E2E112
:105170000C94DD29803749F08837A9F7D4FE02C0A6
:105180006894D2F820E130E00DC06894D4F8F6CFEE
:1051900034FE03C0822F8660D82E20E132E002C0A8
:1051A00028E030E0F801D7FE0FC060817181828174
:1051B00093810C5F1F4FA5010E946329C82ECA1856
:1051C0003D2CE89437F867CF6081718190E080E0F2
:1051D0000E5F1F4FF0CF42FC02C0839478CF8394C0
:1051E000839475CF842D867809F471CFF6CFB701FB
:1051F00080E290E00E94332983948214C0F3512C02
:1052000073CF522C5818821408F46ECFF8CF842D27
:10521000867809F47BCF8BE241FE80E247FC8DE289
:10522000B70190E071CFB70180E390E00E9433298D
:105230009A946CCF8FEF9FEF99CFFC01059061504E
:1052400070400110D8F7809590958E0F9F1F08959C
:10525000FC016150704001900110D8F78095909545
:105260008E0F9F1F08950F931F93CF93DF93182FD7
:10527000092FEB018B8181FD09C01FEF0FEF812FFB
:10528000902FDF91CF911F910F91089582FF14C04D
:105290002E813F818C819D81281739073CF4E8815C
:1052A000F981CF0101969983888310838E819F8134
:1052B00001969F838E83E3CFE885F985812F099539
:1052C000892BA1F3DACFFA01AA27283051F1203136
:1052D00081F1E8946F936E7F6E5F7F4F8F4F9F4F8A
:1052E000AF4FB1E03ED0B4E03CD0670F781F891FCC
:1052F0009A1FA11D680F791F8A1F911DA11D6A0F9A
:10530000711D811D911DA11D20D009F468943F914C
:105310002AE0269F11243019305D3193DEF6CF014B
:105320000895462F4770405D4193B3E00FD0C9F711
:10533000F6CF462F4F70405D4A3318F0495D31FD7E
:105340004052419302D0A9F7EACFB4E0A6959795D1
:10535000879577956795BA95C9F7009761057105A7
:1053600008959B01AC010A2E0694579547953795F1
:105370002795BA95C9F7620F731F841F951FA01D4B
:1053800008952F923F924F925F926F927F928F92E9
:105390009F92AF92BF92CF92DF92EF92FF920F93C4
:1053A0001F93CF93DF93CDB7DEB7CA1BDB0B0FB6CE
:1053B000F894DEBF0FBECDBF09942A88398848888B
:1053C0005F846E847D848C849B84AA84B984C88421
:1053D000DF80EE80FD800C811B81AA81B981CE0F18
:1053E000D11D0FB6F894DEBF0FBECDBFED010895FD
:1053F00016E0C7ECD6E004C0FE010E948F23219680
:0A540000C83CD107C9F7F894FFCFAC
:10540A000000A2028000D42C0002DC0ADC0B55A5A5
:10541A00AA000000503199DC0CD700000CD700001C
:10542A00FFD41021F00052D4500102D6040502D64E
:10543A00380202D4BA0001D68D0501D6090301D675
:10544A005B0304D65F0507D48D0007D71900045003
:10545A003C00500050DA04005000000000500000E8
:10546A00DA34D9FFFFDA31D996A5000000008109A4
:10547A00E1080E09EE093F091D0931090D0A006EFE
:10548A00616E00696E66006F766600424C253032A6
:10549A00582530325800424C31387878002530325D
:1054AA00642F253032642F32302530326400436550
:1054BA006C6C2025327520202020202020203A20C4
:0254CA000000E0
:00000001FF
