:100000000C9432070C945A070C945A070C945A0714
:100010000C945A070C945A070C945A070C945A07DC
:100020000C945A070C945A070C945A070C945A07CC
:100030000C945A070C945A070C945A070C945A07BC
:100040000C94D0130C945A070C9440140C941A146A
:100050000C945A070C945A070C945A070C945A079C
:100060000C945A070C945A072D2D2D2D2D2D2D2D26
:100070002D2D2D2D2D2D2D2D2D2D2D2D2D2D2D2DB0
:100080002D2D2D2D2D2D2D2D2D2D2D2D2D2D2D2DA0
:100090002D2D2D2D2D2D2D2D2D002020202020200B
:1000A0002020202020202020202020004672616D6A
:1000B00065202020202020202020203A2000206DB4
:1000C0007329002054494D454F55542028002E00D7
:1000D000206D732900204F4B20280020205B4E6F9D
:1000E00020726573706F6E73655D202D2077616976
:1000F00074696E6700206D7329002054494D454F87
:1001000055542028002E00206D732900202800203F
:100110002057616974696E67005374696C6C206E56
:100120006F2070726573656E63652E2041626F7219
:1001300074696E672077726974652E00202053748D
:100140006F72653A206E6F2070726573656E6365BD
:100150002E00202057726974653A206E6F207072ED
:100160006573656E63652E00202041726D3A206EC6
:100170006F2070726573656E63652E00202041727A
:100180006D20616C72656164792069737375656453
:10019000202D20706F7765722D6379636C652072F6
:1001A000657175697265642E004E6F20707265739B
:1001B000656E636520656E746572696E672074652F
:1001C00073746D6F64652E002E0020205761697472
:1001D000696E6700206D732900204F4B202800575F
:1001E000616974696E6720666F72206261747465FC
:1001F00072792E2E2E002020427269646765204796
:1002000050494F302D4750494F3120666F72204F73
:100210006D656761206C6F636B2E0020202773274C
:10022000203D2072657363616E207C206175746F60
:100230002D6465746563747320636F6E6E6563749B
:100240002F646973636F6E6E6563740020204D6167
:100250006B697461204D6F6E69746F72202D20532D
:1002600063616E202F20556E6C6F636B204D6F6441
:100270006500202052656D6F766520627269646743
:100280006520746F2073776974636820746F2073BE
:1002900063616E2F756E6C6F636B206D6F64652E7E
:1002A0000020204750494F302D4750494F312062A0
:1002B000726964676564202D3E204F4D454741209B
:1002C0004C4F434B204D4F444520286E7962626C61
:1002D00065203334290020204D616B697461204F03
:1002E0004D454741204C4F434B205574696C697410
:1002F00079202D2054797065732030202F203220F2
:100300002F2033206F6E6C7900312E352E30002077
:10031000204669726D7761726520760020205B4C03
:100320006F636B5D204641494C45442E0020205BA5
:100330004C6F636B5D204F4D454741204C4F434B05
:1003400045442E204E7962626C65203334207365FB
:1003500074206E6F6E2D7A65726F2E0020205B4CBC
:100360006F636B5D204E7962626C65203334203D93
:10037000200020205B4C6F636B5D204E6F20726508
:1003800073706F6E73652E0020205B4C6F636B5D26
:10039000200020205B4C6F636B5D20417474656DA1
:1003A0007074200020205B4C6F636B5D2042617491
:1003B0007465727920616C7265616479204F4D4576
:1003C0004741204C4F434B454420286E7962626C74
:1003D0006520333420213D2030292E00756E737541
:1003E00070706F727465642028352C20362C206F55
:1003F0007220756E6B6E6F776E292E0020205B4C1D
:100400006F636B5D20547970653A200020205B4C4F
:100410006F636B5D205741524E494E473A20524F11
:100420004D2049442072656164206661696C656491
:100430002E0020205B4C6F636B5D204552524F5263
:100440003A204E6F2076616C6964206672616D653A
:100450002E0020205B4C6F636B5D205072652D7405
:100460007970652D302048433038202D20756E730B
:100470007570706F727465642E005741524E494E0C
:10048000473A20524F4D20494420726561642066EE
:1004900061696C65643B207573696E672066616C89
:1004A0006C6261636B207479706520646574656348
:1004B00074696F6E2E00202D20496E76616C696420
:1004C000204572726F7220436F6465003135202DB4
:1004D00020446561643F0035202D205761726E69AC
:1004E0006E670031202D204F7665726C6F616465F8
:1004F000640030202D204F4B00202042797465206D
:100500003139203D2030783030202020286D75731F
:1005100074206E6F74206265207A65726F290020E6
:100520002042797465203138203D203078303020E9
:100530002020286D757374206E6F74206265207A98
:1005400065726F2900202043533220202020202074
:100550002020202020202020286D69736D61746385
:1005600068206E7962626C65732033322D343029D5
:100570000020204353312020202020202020202034
:1005800020202020286D69736D61746368206E7966
:1005900062626C65732031362D333129002020438F
:1005A0005330202020202020202020202020202008
:1005B000286D69736D61746368206E7962626C6521
:1005C0007320302D313529004C6F636B20636175CA
:1005D000736573202020203A00202F2037005374A9
:1005E000617465206F66206368617267653A2000F8
:1005F00043656C6C20646966662020202020203AC8
:100600002000286E6F2063656C6C73207265706FBC
:100610007274656429005061636B20766F6C74613D
:1006200067652020203A200020430054656D70202B
:10063000284D6F736665742920203A2000204300FE
:1006400054656D70202843656C6C73292020203A16
:1006500020002025004F7665726C6F616420252094
:10066000202020203A20002025004F442025202053
:100670002020202020202020203A20002025004F6C
:100680007665726C6F6164202520202020203A203E
:10069000004F7665726C6F616420636E7420202059
:1006A0003A20002025004F44202520202020202013
:1006B00020202020203A20004F44206576656E746B
:1006C000732020202020203A2000202F20342020BA
:1006D00028004865616C746820202020202020209C
:1006E000203A20004379636C6520636F756E742037
:1006F0002020203A200042797465203139202020C2
:1007000020202020203A20424144202830783030D8
:100710002C206D757374206E6F74206265203029F3
:1007200000427974652031392020202020202020AB
:100730003A204F4B00427974652031382020202028
:10074000202020203A204241442028307830302C8C
:10075000206D757374206E6F7420626520302900DF
:100760004279746520313820202020202020203A32
:10077000204F4B004E7962626C652033342020207C
:100780002020203A204F4B004279746520312020F0
:10079000202020202020203A204F4B0042797465F1
:1007A00020302020202020202020203A204F4B00E5
:1007B000424144004F4B00424144004F4B004175C1
:1007C00078204353756D2034382D3631203A20007F
:1007D000424144004F4B00417578204353756D20D2
:1007E00034342D3437203A2000424144004F4B002E
:1007F000436865636B73756D2033322D3430203A56
:100800002000424144004F4B00436865636B7375A1
:100810006D2031362D3331203A20004E6F0059457E
:100820005300436865636B73756D20302D3135203F
:10083000203A20004661696C75726520636F6465BB
:100840002020203A2000554E4C4F434B4544004C4D
:100850004F434B45440043656C6C206661696C7581
:1008600072652020203A20004C6F636B2073746106
:10087000747573202020203A2000204168004361D5
:10088000706163697479202020202020203A2000A4
:1008900031302063656C6C20424C333678780035FB
:1008A0002063656C6C20424C3138787800342063CA
:1008B000656C6C20424C313478780076202028001A
:1008C0004261747465727920747970652020203AD1
:1008D00020004465746563746564207479706520D4
:1008E000203A200028756E617661696C61626C65E2
:1008F00029004D6667206461746520202020202037
:10090000203A2000524F4D20494420202020202012
:100910002020203A20004D6F64656C20202020208C
:1009200020202020203A200033322D34303D6261D7
:10093000640033322D34303D6F6B0031362D33314E
:100940003D6261640031362D33313D6F6B00302DD7
:1009500031353D62616400302D31353D6F6B0020D3
:10096000204441303420636C6561722E2E2E0020AD
:1009700020436865636B73756D73203A20002020F7
:100980004E6F20726573706F6E7365206475726947
:100990006E67207665726966792E0020200020201F
:1009A000526570616972206672616D65203A20003F
:1009B00042617474657279207374696C6C206C6F19
:1009C000636B65642E00426174746572792073757F
:1009D000636365737366756C6C7920756E6C6F6399
:1009E0006B65642E0020202D3E204672616D6520CF
:1009F000726570616972206661696C65642E0020A1
:100A0000202D3E20526570616972656420627574A4
:100A1000207374696C6C206C6F636B65642E20525C
:100A200065747279696E672E0020202D3E20467213
:100A3000616D6520726570616972207375636365AD
:100A4000656465642E20554E4C4F434B45442E0043
:100A500029002D2D2D205374657020323A204672C6
:100A6000616D6520726570616972202861747465BA
:100A70006D7074200020202D3E205374696C6C2012
:100A80006C6F636B65642E2050726F63656564697B
:100A90006E6720746F206672616D6520726570618B
:100AA00069722E0020202D3E20554E4C4F434B4561
:100AB0004420627920444130342E002D2D2D2053C6
:100AC00074657020313A204441303420726573657A
:100AD000740042617474657279204C4F434B4544F5
:100AE0002E002E20536B697070696E672E00556E54
:100AF0006C6F636B206E6F7420737570706F72749F
:100B0000656420666F72207479706520004261749C
:100B10007465727920554E4C4F434B45442E00432B
:100B20006F6D706C6574652E005620E280942063B2
:100B30006865636B2062616C616E63696E672074C7
:100B40006162732E005741524E494E473A20436529
:100B50006C6C20696D62616C616E63652000574149
:100B6000524E494E473A20766F6C74616765207229
:100B7000656164206661696C65643B2063656C6CCB
:100B80002064617461206D6179206265206D6973F4
:100B900073696E672E0042617474657279207265A4
:100BA0006D6F76656420647572696E67207363612A
:100BB0006E2E2041626F7274696E672E00426174FE
:100BC0007465727920666F756E6420203A2000206B
:100BD0002020202020202020444F204E4F542063EE
:100BE0006861726765206F6E20616E79206368614D
:100BF000726765722E0020202020202020202046B1
:100C00007265657363616C65204D433930384A4BBA
:100C1000334520424D53202D2D206E6F2063656C8F
:100C20006C2070726F74656374696F6E2E0057412B
:100C3000524E494E473A205072652D747970652D99
:100C400030204843303820626174746572792064C2
:100C50006574656374656421004552524F523A20B1
:100C600042617474657279206E6F7420726573705E
:100C70006F6E64696E672061667465722072657458
:100C8000726965732E2041626F7274696E672E00FF
:100C9000202052656D6F766520626174746572798B
:100CA00020616E642074727920616761696E2E0024
:100CB0002020426174746572792072656D6F76656B
:100CC000642E2057616974696E672E2E2E002020D5
:100CD0005B4C6F636B5D2042617474657279207246
:100CE000656D6F7665642E2057616974696E672043
:100CF000666F72206E6578742E2E2E002020426161
:100D00007474657279206465746563746564202DFC
:100D1000207374617274696E67207363616E2E0054
:100D200020205B4C6F636B5D204261747465727947
:100D3000206465746563746564202D206F6D65673C
:100D400061206C6F636B696E672E2E2E004D616E95
:100D500075616C2072657363616E20726571756573
:100D6000737465642E002020427269646765207286
:100D7000656D6F7665642E20496E736572742062AE
:100D800061747465727920746F207363616E2E00D4
:100D900020204D6F6465206368616E676564202D57
:100DA0003E205343414E202F20554E4C4F434B2065
:100DB0004D4F44450020204750494F302D47504962
:100DC0004F3120627269646765642E20496E7365D5
:100DD0007274206261747465727920746F206C6F14
:100DE000636B2E0020204D6F6465206368616E6721
:100DF0006564202D3E204F4D454741204C4F434BCD
:100E0000204D4F44450000000000240027002A0028
:100E100000000008000201000003040700000000B9
:100E20000000000000000000250028002B0000004A
:100E30000000230026002900040404040404040420
:100E40000202020202020303030303030102040875
:100E50001020408001020408102001020408102024
:100E60007214F52611241FBECFEFD8E0DEBFCDBF30
:100E700012E0A0E0B1E0EEE6FBE502C005900D92C5
:100E8000A83EB107D9F723E0A8EEB2E001C01D9259
:100E9000AA3CB207E1F717E0C1E3D7E004C021970D
:100EA000FE010E944727C033D107C9F70E944115B0
:100EB0000C94AA2D0C9400008091B803E091B90322
:100EC000F091BA03F8949181282F20959223918371
:100ED00078943DE743E050E0315029F1DA01119771
:100EE000F1F790819823C1F3F89492819223928331
:100EF0009181982B91837894A3EBBBE01197F1F744
:100F0000F894918192239183A3E1B1E01197F1F7D5
:100F10009081982381E009F080E07894E3E6F6E0A0
:100F20003197F1F7089580E00895EF92FF920F93C3
:100F30001F93CF93DF9328E030E080E041E0A3E20D
:100F4000B0E09FECE92EF12C9091B803E091B90349
:100F5000F091BA03F8945181592B51836281792F12
:100F60007095672362838D01ED012197F1F751811F
:100F700057235183E8012197F1F750817894F701C5
:100F80003197F1F7952309F0842B440F2150310953
:100F9000D9F6DF91CF911F910F91FF90EF900895B7
:100FA000CF92DF92EF92FF920F931F93CF93DF9335
:100FB00028E030E041E06BE871E093E7C92ED12CE6
:100FC000CBE2D0E00BED11E09091B803E091B903D2
:100FD000F091BA03F92EF094582F542389F1F89424
:100FE00052815F2152835181592B5183DE01119728
:100FF000F1F75281952B92837894F8013197F1F7AC
:10100000440F2150310901F7F894E091B903F091B0
:10101000BA0391818091B803809598239183E091E0
:10102000B903F091BA039281892382837894DF9186
:10103000CF911F910F91FF90EF90DF90CF90089587
:10104000F89452815F2152835181592B5183DB01E6
:101050001197F1F75281952B92837894F601CECFB8
:10106000833081F028F4813099F08230A9F008951E
:101070008730A9F08830C9F08430B1F480918000C5
:101080008F7D03C0809180008F77809380000895CA
:1010900084B58F7784BD089584B58F7DFBCF809113
:1010A000B0008F778093B00008958091B0008F7D5D
:1010B000F9CFCF93DF93E1E1FEE08491EDE4FEE030
:1010C000D491E9E3FEE0C491CC23A1F081110E9408
:1010D0003008EC2FF0E0EE0FFF1FE25DF14FA5911D
:1010E000B491EC91ED2381E090E009F480E0DF9190
:1010F000CF91089580E090E0FACF1F93CF93DF93D4
:10110000282F30E0F901E05FF14F8491F901E45BB1
:10111000F14FD491F901E85CF14FC491CC23A9F0CF
:10112000162F81110E943008EC2FF0E0EE0FFF1F08
:10113000EC5DF14FA591B4918FB7F894EC9111113A
:1011400008C0D095DE23DC938FBFDF91CF911F9134
:101150000895DE2BF8CFCF93DF9390E0FC01E45BA2
:10116000F14F2491885C914FFC0184918823C9F050
:1011700090E0880F991FFC01EA5FF14FA591B491AF
:10118000FC01EC5DF14FC591D49161110DC09FB789
:10119000F8948C91209582238C938881282328832E
:1011A0009FBFDF91CF910895623051F49FB7F894BB
:1011B0003C91822F809583238C93E8812E2BEFCF57
:1011C0008FB7F894EC912E2B2C938FBFEACF3FB7BB
:1011D000F8948091000390910103A0910203B091D3
:1011E000030326B5A89B05C02F3F19F00196A11D4A
:1011F000B11D3FBFBA2FA92F982F8827BC01CD0161
:10120000620F711D811D911D42E0660F771F881FBF
:10121000991F4A95D1F708958F929F92AF92BF92EE
:10122000CF92DF92EF92FF926B017C010E94E70860
:101230004B015C01C114D104E104F104B9F00E9436
:10124000E708681979098A099B09683E7340810596
:10125000910580F321E0C21AD108E108F10888EE77
:10126000880E83E0981EA11CB11CE4CFFF90EF9084
:10127000DF90CF90BF90AF909F908F9008952FB741
:10128000F8946091FC027091FD028091FE029091B1
:10129000FF022FBF0895262F2695820F911DFC0176
:1012A000808160FD02C08F7008958295FCCFAF925F
:1012B000BF92CF92DF92EF92FF920F931F93CF9343
:1012C000DF936C017B018B01040F151FEB015E01A5
:1012D000AE18BF08C017D10759F06991D601ED913A
:1012E000FC910190F081E02DC6010995892B79F7D9
:1012F000C501DF91CF911F910F91FF90EF90DF908B
:10130000CF90BF90AF900895FC01538D448D252F51
:1013100030E0842F90E0821B930B541710F0CF968F
:10132000089501970895FC01918D828D981761F0C1
:10133000A28DAE0FBF2FB11D5D968C91928D9F5FD8
:101340009F73928F90E008958FEF9FEF0895FC01B7
:10135000918D828D981731F0828DE80FF11D858D6A
:1013600090E008958FEF9FEF0895FC01918D228DFD
:10137000892F90E0805C9F4F821B91098F73992782
:10138000089585E093E00E94B50921E0892B09F4D6
:1013900020E0822F089580E090E0892B29F00E94C0
:1013A000C10981110C9400000895FC01A48DA80FBF
:1013B000B92FB11DA35ABF4F2C91848D90E0019697
:1013C0008F739927848FA689B7892C93A089B189B7
:1013D0008C91837080648C93938D848D981306C058
:1013E0000288F389E02D80818F7D80830895EF92BC
:1013F000FF920F931F93CF93DF93EC0181E0888FCF
:101400009B8D8C8D98131AC0E889F989808185FF9E
:1014100015C09FB7F894EE89FF896083E889F98940
:1014200080818370806480839FBF81E090E0DF9142
:10143000CF911F910F91FF90EF900895F62E0B8D95
:1014400010E00F5F1F4F0F731127E02E8C8D8E1150
:101450000CC00FB607FCFACFE889F989808185FFB7
:10146000F5CFCE010E94D509F1CFEB8DEC0FFD2F0A
:10147000F11DE35AFF4FF0829FB7F8940B8FEA8972
:10148000FB8980818062CFCF0F931F93CF93DF932F
:101490008C01D0E0C0E0F801EC0FFD1F64916623E1
:1014A00041F085E093E00E94F709892B11F0219625
:1014B000F2CFCE01DF91CF911F910F910895682F48
:1014C00085E093E00C94F709CF93DF93EC01888DCE
:1014D0008823B9F0AA89BB89E889F9898C9185FDAF
:1014E00003C0808186FD0DC00FB607FCF7CF8C913D
:1014F00085FFF2CF808185FFEDCFCE010E94D50917
:10150000E9CFDF91CF910895FF920F931F93CF936F
:10151000DF938C01C62FF42ED0E0FC1638F06C2F30
:10152000C8010E944B09D80FCF5FF7CF8D2F8F7066
:10153000DF91CF911F910F91FF900895AF92BF92CD
:10154000CF92DF92EF92FF920F931F93CF93DF938F
:101550008C01EB018A898D3008F4AFC08E3108F020
:10156000AEC085E08AAB6B8970E090E080E00E94BD
:10157000692820E030E040E251E40E94BF276BABD5
:101580007CAB8DAB9EAB4FE060E0C8010E94840A4B
:10159000A82EBA8C81E0AB1080E088AF4FE160E10B
:1015A000C8010E94840AC82EDB8C81E0CD1080E047
:1015B00089AF48E260E2C8010E94840AE82EFC8CF0
:1015C00081E0EF1080E08AAF4FE26CE2C8010E9438
:1015D000840A91E02D8D281390E09BAF4DE360E3EA
:1015E000C8010E94840A91E02E8D281390E09CAFE0
:1015F0001EAE1DAE8C89882321F081E090E09EAF65
:101600008DAFAB1429F08DAD9EAD82609EAF8DAFD6
:10161000CD1429F08DAD9EAD84609EAF8DAFEF14DB
:1016200029F08DAD9EAD88609EAF8DAFF8018081B1
:10163000813F39F0803529F08DAD9EAD80619EAF40
:101640008DAFF8018181982F9F7E963239F08133DA
:1016500029F08DAD9EAD80629EAF8DAF62E2C80174
:101660000E944B09882329F08DAD9EAD80649EAF0A
:101670008DAFF8018289811105C08DAD9EAD806866
:101680009EAF8DAFF8018389811105C08DAD9EADF0
:1016900091609EAF8DAF81E02DAD3EAD232B09F45F
:1016A00080E08FABDF91CF911F910F91FF90EF9072
:1016B000DF90CF90BF90AF90089584E053CF8AE041
:1016C00051CF0F931F93CF93DF938C01D42F0E94A0
:1016D0004B09C82F6D2FC8010E944B0990E1C99F8B
:1016E000E00111248C2BDF91CF911F910F91089570
:1016F000CF92DF92EF92FF920F931F93CF93DF93DE
:10170000EC018B0147E166E10E94610BF8018083E7
:1017100041E260E2CE010E94610BF801818368E240
:10172000CE010E944B09F801828341E360E3CE01C0
:101730000E94610BF801838343E362E3CE010E94C0
:10174000610BF80184836CE2CE010E944B0982FB9D
:10175000882780F9F801878364E3CE010E944B0952
:10176000D82E65E3CE010E944B09C82E66E3CE0158
:101770000E944B09F0E18F9F70011124FC2867E360
:10178000CE010E944B092D2D30E0322F22273295B9
:10179000307F22273071E82A2E293F29F80136832D
:1017A000258369E2CE010E944B09F80180876AE235
:1017B000CE010E944B09F80181876BE2CE010E94A5
:1017C0004B09F80182876EE3CE010E944B09F801B4
:1017D00083876FE3CE010E944B09F8018487DF9174
:1017E000CF911F910F91FF90EF90DF90CF900895D0
:1017F0004F70E62FE695E80FF92FF11D908160FDFF
:1018000004C0907F942B908308959F7080E1489F3F
:10181000A0011124F7CF60E088E00C947D08CF92FE
:10182000DF92EF92FF920F931F93CF93DF93CDB789
:10183000DEB729970FB6F894DEBF0FBECDBF282FB5
:101840008091A4039091A503892B09F449C0872FA7
:1018500090E0B0E0A0E0BA2FA92F982F8827A62B00
:10186000822BAD0166277727C92EDA2EEB2EFF24B7
:101870001C2D382F2091AA03222391F0022F10E073
:10188000049FF001059FF00D149FF00D11244F2FC0
:101890002C9D600111241D2D289FC0011124392F7A
:1018A000E091B0038091AB039091AC032091AD0324
:1018B000E21721F0E80FF92FF11D1082E091AD033E
:1018C000E80FF92FF11D4083E091AE03E80FF92FE7
:1018D000F11D10832091AF03820F911DFC01308315
:1018E0008091AB039091AC03892B09F47CC00E94DA
:1018F000E7080091B1031091B2032091B303309136
:10190000B403601771078207930740F46093B10333
:101910007093B2038093B3039093B4030091B10327
:101920001091B2032091B3033091B403601B710B8B
:10193000820B930B6C32714081059105C0F2F894D3
:101940008091A6039091A7039A838983E091AB03CA
:10195000F091AC03DF011196808189879091A203F9
:10196000E091B503F091B6038091B703992309F490
:1019700049C09081982B98879081809589238F8387
:101980008F818C8388E08B8358856F8149853B816B
:101990002C8189819A81508347FD252F3A95208398
:1019A000262F39F0441F00C000006083000000C0F3
:1019B000F2CF38E04D9160830000019761F7F0931A
:1019C000B603E093B50349873B832C839A838983CD
:1019D00078940E94E7086093B1037093B2038093F8
:1019E000B3039093B40329960FB6F894DEBF0FBEED
:1019F000CDBFDF91CF911F910F91FF90EF90DF90BE
:101A0000CF9008959081982B988790818095892315
:101A10008F838F818E8388E08D8358856F81498580
:101A20003D812E8189819A81508347FD252F00C0F9
:101A300000C0208300C000C000C000C000C06083A0
:101A40000000262F3A9541F0441F000000C000C05E
:101A500000C000C000C0E8CF38E04D9100C06083F6
:101A600000C0019709F7F093B603E093B5034987E7
:101A70003D832E83ABCF60910A0170910B01809161
:101A80000C010C940F0C609107017091080180917A
:101A900009010C940F0CCF92DF92EF92FF926B0131
:101AA0007C0185EFC81681E0D806E104F10468F0F6
:101AB00064EF71E080E090E00E940C0984EFC81AA6
:101AC00081E0D80AE108F108ECCFC701B601FF9028
:101AD000EF90DF90CF900C940C0961E088E00E94B9
:101AE0007D0866E970E080E090E00C944B0D8F92E9
:101AF0009F92BF92CF92DF92EF92FF920F931F932C
:101B0000CF93DF93F82EC62FD42EC52EB22E81117F
:101B10000E946D0D0E945C07811111C0F1100E949E
:101B20000B0C81E090E0DF91CF911F910F91FF901E
:101B3000EF90DF90CF90BF909F908F9008958C2F63
:101B40000E94D007C33389F4E801085F1F4F23E6E2
:101B5000822E99249394C4010197F1F70E9495076E
:101B60008993C017D107B9F78E019D2CCD2DDC2D9F
:101B700093E6C92EDD24D394C6010197F1F789912C
:101B80000E94D0078C2F89198B15B0F38BE891E058
:101B90000197F1F7E8010E0D111D83E6C82EDD2433
:101BA000D394C017D10739F0C6010197F1F70E940D
:101BB00095078993F6CFF1100E940B0C90E080E01E
:101BC000B2CFEF920F931F93CF93DF93CDB7DEB7D2
:101BD00028970FB6F894DEBF0FBECDBF262F8E011B
:101BE0000F5F1F4F38E0F80111923A95E9F7E12CA9
:101BF000AC0163E381E00E94770D28960FB6F8945C
:101C0000DEBF0FBECDBFDF91CF911F910F91EF903F
:101C10000895EF920F931F93E22E8A01262FAC01B5
:101C20006CEC81E00E94770D1F910F91EF90089569
:101C30000F931F93CF938B01C42F242FAB0164E02C
:101C40000E94090E892B41F4F801EC0FF11D319728
:101C500081E09081963009F080E0CF911F910F9143
:101C60000895CF93DF93D82FC92F20E2482F592F03
:101C700062E083E191E00E94090E892BB1F4ED2F1F
:101C8000FC2FAF01405E5F4F8FEF90E02191922BD0
:101C90008223E417F507D1F7992339F08F3F41F0FC
:101CA00081E090E0DF91CF91089590E080E0FACF5D
:101CB0008FEF9FEFF7CF0E940B0C1092040364E6A6
:101CC00070E080E090E00E944B0D0C946D0DBF928F
:101CD000CF92DF92EF92FF920F931F93CF93DF93F8
:101CE000EC01B62E6A01F22E61E088E00E947D08C8
:101CF000209729F0BE0190E080E00E944B0D0E94E9
:101D00005C0781110FC060E088E00E947D0880E0E0
:101D1000DF91CF911F910F91FF90EF90DF90CF90C7
:101D2000BF9008958BE896E00197F1F7BB2039F05A
:101D30008CEC0E94D00783E691E00197F1F7F60161
:101D400080810E94D007C3E6D1E0CE010197F1F770
:101D5000F1E0FF1631F0F60181810E94D007219752
:101D6000F1F7E801E00EF12EF11C03E611E0EC16AC
:101D7000FD0639F00E9495078993C8010197F1F794
:101D8000F6CF60E088E00E947D0881E0C1CFEF924D
:101D90000F931F93E22E8A01262FAC0161E084EAA3
:101DA00091E00E94670E1F910F91EF900895CF93DD
:101DB000DF931F92CDB7DEB78091EB02882391F0BD
:101DC000198221E0AE014F5F5F4F63E080E191E057
:101DD0000E94090E1092EB026EE170E080E090E04C
:101DE0000E944B0D0F90DF91CF9108950F931F9399
:101DF000CF93DF931F92CDB7DEB7198221E0AE01FA
:101E00004F5F5F4F63E08DE091E00E94090E8C010F
:101E1000892B49F481E08093EB026EE170E080E071
:101E200090E00E944B0DC8010F90DF91CF911F9160
:101E30000F910895CF92DF92EF92FF921F93CF936D
:101E4000DF93CDB7DEB7A2970FB6F894DEBF0FBE13
:101E5000CDBFFC018381843628F485E0442349F01A
:101E60008FEF07C0FB0181898E3189F486E0411133
:101E7000F7CFA2960FB6F894DEBF0FBECDBFDF91AD
:101E8000CF911F91FF90EF90DF90CF900895142F86
:101E9000AE014E5E5F4F81E1FA0111928A95E9F73A
:101EA00021E162E08BE191E00E94090E892B29F487
:101EB0008AA1863011F480E0DCCF0E94F60E9E01EC
:101EC0002F5F3F4F7901892BC1F481E1F901119214
:101ED0008A95E9F721E1A70162E089E191E00E949A
:101EE000090E6C010E94D70E0E945B0ECD2829F4CA
:101EF0008989863011F482E0BCCF19821A821B8254
:101F000023E0A70164E085E191E00E94090E892B9E
:101F100019F48B81863019F0812F8195AACF83E047
:101F2000A8CFCF9361E088E00E947D0866E970E069
:101F300080E090E00E944B0D0E945C07C82F60E09B
:101F400088E00E947D0881E0C13009F080E0CF91F7
:101F50000895CF92DF92EF92CF936B01E82E10920B
:101F6000EC02C3E08E2DB6010E940F0C68EC70E00D
:101F700080E090E00E944B0D0E94430D64E670E00B
:101F800080E090E00E944B0DC15061F78E2DB601AC
:101F9000CF91EF90DF90CF900C940F0C882339F005
:101FA0009EEF980F81E0923018F080E0089581E074
:101FB0000895FC0101900020E9F73197AF01481B1B
:101FC000590BBC0185E093E00C9457098DE791E033
:101FD0000C94D90FCF93DF930E94440AEC010E9426
:101FE000E60F8C0F9D1FDF91CF91089588E690E05A
:101FF0000C94EA0F8F929F92AF92BF920F931F9310
:10200000CF93DF93CDB7DEB7A1970FB6F894DEBFBD
:102010000FBECDBF19A2423008F44AE08E010F5D19
:102020001F4F842E912CB12CA12CA50194010E944C
:102030002527E62FB901CA01EA30F4F4E05DD801A2
:10204000EE938D01232B242B252B79F790E080E054
:10205000109719F0CD010E94D90FA1960FB6F894F0
:10206000DEBF0FBECDBFDF91CF911F910F91BF900B
:10207000AF909F908F900895E95CE1CFCF93DF936D
:10208000682F70E090E080E04AE00E94FA0FEC01D7
:102090000E94E60F8C0F9D1FDF91CF910895CF9284
:1020A000DF92EF92FF92CF93DF936C01092E000C29
:1020B000EE08FF0897FF1BC08DE20E945F0AEC014B
:1020C00066277727CB016C197D098E099F094AE0A5
:1020D0000E94FA0FC80FD91F0E94E60F8C0F9D1F98
:1020E000DF91CF91FF90EF90DF90CF9008954AE07D
:1020F000C701B6010E94FA0FEC01EECFCF92DF923A
:10210000EF92FF92CF93DF93EC018FE091E00E947A
:10211000440A0E943F096B017C010E943F096C192F
:102120007D098E099F09603177428105910558F537
:10213000CE010E94310E0197F9F40E943F099B01E4
:10214000AC012C193D094E095F0969017A018CE047
:1021500091E00E94440A4AE0C701B6010E94FA0FCA
:1021600087E091E00E94EA0F81E0DF91CF91FF903C
:10217000EF90DF90CF90089585E091E00E94440AAF
:102180000E945B0ECACF8AEF90E00E94440A4AE0A8
:1021900060E177E280E090E00E94FA0F85EF90E046
:1021A0000E94EA0F80E0E1CFCF92DF92EF92FF92A0
:1021B0008BED90E00E94440A0E943F096B017C0174
:1021C0000E943F096C197D098E099F096031774291
:1021D0008105910540F50E945B0E0E945C078130ED
:1021E000E9F40E943F099B01AC012C193D094E09FD
:1021F0005F0969017A0185ED90E00E94440A4AE096
:10220000C701B6010E94FA0F80ED90E00E94EA0F2C
:1022100081E0FF90EF90DF90CF9008958EEC90E0FA
:102220000E94440ACDCF83EC90E00E94440A4AE029
:1022300060E177E280E090E00E94FA0F8EEB90E0A0
:102240000E94EA0F80E0E5CF8F929F92AF92BF92FB
:10225000CF92DF92EF92FF920F931F93CF937C0167
:102260000E943F094B015C01C0E00E943F096819D0
:1022700079098A099B096031774281059105C0F58A
:10228000C7010E94310E8C01892B21F1CC23A9F0CA
:102290000E943F096B017C01C818D908EA08FB08B5
:1022A00089ED91E00E94440A4AE0C701B6010E940C
:1022B000FA0F84ED91E00E94EA0FC801CF911F91BF
:1022C0000F91FF90EF90DF90CF90BF90AF909F90D5
:1022D0008F900895C11104C08AEC91E00E94440AD5
:1022E00088EC91E00E94440A0E945B0EC1E0BDCFE1
:1022F000C1110E94E60F0E94D41010E000E0882374
:10230000E1F2C701CF911F910F91FF90EF90DF9005
:10231000CF90BF90AF909F908F900C94310E0F9301
:102320001F93CF93DF93D82FC92FCB01009711F4C0
:102330008CEA90E00E94440A0D2F1C2FC0E0DBE0E5
:10234000F80181918F01803118F480E30E945F0AC7
:10235000F8013197608170E090E080E040E10E94F8
:10236000FA0FCF3119F080E20E945F0ACF5FC032CE
:1023700031F4DF91CF911F910F910C94E60F8C2FC8
:102380006D2F0E9405279111DBCF0E94E60F8AE98D
:1023900090E00E94440AD4CFCF93DF93D0E0C0E016
:1023A000009719F00E94D90FEC010E94E60F8C0FE4
:1023B0009D1FDF91CF9108954F925F926F927F9210
:1023C0008F929F92AF92BF92CF92DF92EF92FF9245
:1023D0000F931F93CF936B017C01742EAC019B0173
:1023E0000E948B29882399F080E891E0CF911F917A
:1023F0000F91FF90EF90DF90CF90BF90AF909F90A4
:102400008F907F906F905F904F900C94D90F460102
:102410005701E894B7F82FEF3FEF4FE75FE7C501AB
:10242000B4010E948B2981110DC02FEF3FEF4FE7C0
:102430005FE7C501B4010E94BA2718161CF484E8AE
:1024400091E0D4CF2FEF3FEF4FE75FE4C701B60134
:102450000E94192918161CF488E891E0C7CF2FEFC5
:102460003FEF4FE75FECC701B6010E94BA2787FD37
:10247000F3CF20E030E0A901C701B6010E94BA27DE
:1024800010E000E087FF08C08DE20E945F0A8C0127
:10249000F7FAF094F7F8F094C0E060E070E080E0C4
:1024A0009FE37C1641F020E030E040E251E40E94DE
:1024B000BF27CF5FF6CFA70196010E944E272B01C1
:1024C0003C010E9438284B015C014AE00E94FA0F4F
:1024D0007C01E00EF11ECC23B1F1C501B4010E94D4
:1024E00067289B01AC01C301B2010E944D274B013B
:1024F0005C018EE20E945F0AE80EF91EC15018F1DD
:1025000020E030E040E251E4C501B4010E941E2900
:102510002B013C010E9438284B01B12CA12C4AE030
:10252000C501B4010E94FA0FE80EF91EC501B401FD
:102530000E9467289B01AC01C301B2010E944D2794
:102540004B015C01DBCFC701CF911F910F91FF9031
:10255000EF90DF90CF90BF90AF909F908F907F9043
:102560006F905F904F900895CF93DF9343E00E9468
:10257000DC11EC010E94E60F8C0F9D1FDF91CF91C3
:1025800008958F929F92AF92BF92CF92DF92EF9277
:10259000FF920F931F93CF93DF93CDB7DEB7A8972A
:1025A0000FB6F894DEBF0FBECDBF4B015A01F22E1D
:1025B0009E012F5F3F4F690128E2F60111922A9593
:1025C000E9F7EF2C860122E0AC0163E381E00E9491
:1025D000770D8C01892B79F488E0F601D401019004
:1025E0000D928A95E1F74F2D50E0BE01675F7F4F56
:1025F000C5010E94B52AC801A8960FB6F894DEBF9F
:102600000FBECDBFDF91CF911F910F91FF90EF9043
:10261000DF90CF90BF90AF909F908F9008950F93D1
:102620001F93CF93DF93CDB7DEB7A0970FB6F89483
:10263000DEBF0FBECDBF8C01AE014F5F5F4F80E2AA
:10264000FA0111928A95E9F720E2B80183E191E05D
:102650000E94C112892B89F088E0F80111928A95B5
:10266000E9F780E0A0960FB6F894DEBF0FBECDBFAD
:10267000DF91CF911F910F91089581E0F3CFEF92F9
:10268000FF920F931F93CF93DF93CDB7DEB7A2973F
:102690000FB6F894DEBF0FBECDBF7C018B010E9448
:1026A000F60E892BC9F0C8010E94440A89EA91E01C
:1026B0000E94EA0F0E94D410882309F464C00E948B
:1026C000F60E892B49F0C8010E94440A89E191E085
:1026D0000E94EA0F80E057C080910403882349F0EC
:1026E0008CE791E00E94EA0F0E94D70E0E945B0ED9
:1026F000F1CF8E010F5F1F4F80E2F80111928A9592
:10270000E9F720E2A80162E08CE291E00E94090E64
:10271000892B19F088E691E0E5CF81E080930403EE
:102720006EE170E080E090E00E944B0D8FE08983C5
:102730001A8280E2F701DE01139601900D928A95CC
:10274000E1F762E2C8010E94E10D892B19F082E5F0
:1027500091E0C8CF6EE170E080E090E00E944B0D08
:1027600062E08DE191E00E94E10D892B19F08CE38C
:1027700091E0B8CF6EE170E080E090E00E944B0DF8
:102780000E94D70E81E0A2960FB6F894DEBF0FBE6E
:10279000CDBFDF91CF911F910F91FF90EF900895E2
:1027A0001F920F920FB60F9211242F933F938F9386
:1027B0009F93AF93BF938091FC029091FD02A091F3
:1027C000FE02B091FF023091FB0223E0230F2D3770
:1027D00058F50196A11DB11D2093FB028093FC02C8
:1027E0009093FD02A093FE02B093FF02809100033C
:1027F00090910103A0910203B09103030196A11DE2
:10280000B11D8093000390930103A0930203B09342
:102810000303BF91AF919F918F913F912F910F90A3
:102820000FBE0F901F90189526E8230F0296A11D4A
:10283000B11DD2CF1F920F920FB60F9211242F937A
:102840003F934F935F936F937F938F939F93AF9338
:10285000BF93EF93FF9385E093E00E94D509FF912A
:10286000EF91BF91AF919F918F917F916F915F9108
:102870004F913F912F910F900FBE0F901F90189581
:102880001F920F920FB60F9211242F938F939F9345
:10289000EF93FF93E0911503F09116038081E0918F
:1028A0001B03F0911C0382FD1BC0908180911E03CD
:1028B0008F5F8F7320911F03821741F0E0911E03F9
:1028C000F0E0EB5FFC4F958F80931E03FF91EF913B
:1028D0009F918F912F910F900FBE0F901F90189581
:1028E0008081F4CF109208031092070388EE93E0E2
:1028F000A0E0B0E08093090390930A03A0930B0338
:10290000B0930C038FE691E0909306038093050348
:1029100085EC90E0909312038093110384EC90E097
:10292000909314038093130380EC90E0909316032C
:102930008093150381EC90E0909318038093170324
:1029400082EC90E090931A038093190386EC90E058
:1029500090931C0380931B0310921E0310921F037D
:10296000109220031092210360E086E00E94AB08E1
:10297000E2E5FEE0E491E093B803EEE3FEE0E491EB
:10298000F0E0EE0FFF1FE25DF14F8591949190937F
:10299000BA038093B9031092C3031092C503109237
:1029A000C4031092C2031092C1031092C00310928C
:1029B000BF031092BE031092BD031092BC0310928D
:1029C000BB031092A3031092AA031092B1031092BA
:1029D000B2031092B3031092B40381E08093B0036A
:1029E0008093AD031092AE0392E09093AF03809377
:1029F000A20383E090E09093A7038093A6030E9434
:102A000090299093AC038093AB03009789F123E066
:102A1000FC0111922A95E9F781E090E09093A503DB
:102A20008093A40380E190E09093A9038093A8038E
:102A30008091A303882341F061E080E10E94AB080C
:102A400060E080E10E947D08E8E4FEE0E491F0E0CF
:102A5000EE0FFF1FEC5DF14F859194919093B603BB
:102A60008093B503ECE5FEE0E491E093B7030895AD
:102A70001092A7031092A6031092A5031092A4032C
:102A8000D1CFCF93DF93CDB7DEB7C153D1400FB6CF
:102A9000F894DEBF0FBECDBF789484B5826084BD4C
:102AA00084B5816084BD85B5826085BD85B5816052
:102AB00085BD80916E00816080936E0010928100D0
:102AC000809181008260809381008091810081608B
:102AD000809381008091800081608093800080914C
:102AE000B10084608093B1008091B00081608093D8
:102AF000B00080917A00846080937A0080917A009F
:102B0000826080937A0080917A00816080937A005D
:102B100080917A00806880937A001092C100E091E1
:102B20001503F091160382E08083E0911103F09188
:102B300012031082E0911303F091140380E180836B
:102B400010921D03E0911903F0911A0386E080832F
:102B5000E0911703F0911803808180618083E091F8
:102B60001703F0911803808188608083E091170338
:102B7000F0911803808180688083E0911703F091C1
:102B8000180380818F7D808361E088E00E94AB081C
:102B900060E088E00E947D0861E080E00E94AB0870
:102BA00060E080E00E947D0862E081E00E94AB0866
:102BB0006EEE72E080E090E00E940C098091A80324
:102BC0009091A90397FD2EC061E00E94AB0860E0E0
:102BD0008091A8030E947D0881E08093A303609107
:102BE000AA03613541F12091AB033091AC036150F0
:102BF000E1F070E08FEF90E50E941127F90140911C
:102C0000A6035091A703CF01821B930B841795074E
:102C100078F44081469FC001479F900D1124908316
:102C20003196EDCF1092A303DACF70E060E0E6CFEB
:102C300081E58093AA030E94430D0E94F60F8FE066
:102C400093E00E94440A89E093E00E94EA0F0E9408
:102C50005908892B09F048C186ED92E00E94EA0FDD
:102C600081EA92E00E94EA0F82E792E00E94EA0F76
:102C700001E010E00E94F60F8FED91E00E94EA0F54
:102C80001092F3021092F2021093FA020093F902EA
:102C900020911F013091200140912101C15EDE4F42
:102CA000288339834A83CF51D14080916501909127
:102CB0006601A0916701CB5DDE4F88839983AA836B
:102CC000C552D14020916001309161014091620173
:102CD000C85DDE4F288339834A83C852D140AE0194
:102CE00049585F4F1A0150916801CE5DDE4F5883FD
:102CF000C252D14080916901CD5DDE4F8883C352BD
:102D0000D14090916A01CC5DDE4F9883C452D1408E
:102D1000C15DDE4F5883CF52D140C05DDE4F888306
:102D2000C053D140CF5CDE4F9883C153D140D10115
:102D30005496C55DDE4FB983A883CB52D140FE01C6
:102D4000E05CFF4FCD5EDE4FF983E883C351D14095
:102D50009E0129553F4FCB5EDE4F39832883C551F5
:102D6000D140AE01495F5E4FC95EDE4F5983488353
:102D7000C751D140CF010796C35DDE4F9983888349
:102D8000CD52D1400E943F096B017C010091F902B4
:102D90001091FA028091F5029091F602A091F7024B
:102DA000B091F802A7019601281B390B4A0B5B0B67
:102DB000DA01C901C297A105B105D8F08090F202ED
:102DC0009090F302C092F502D092F602E092F702E0
:102DD000F092F8020E94590877247394892B09F025
:102DE000712CA72CB12C0A151B0509F08CC0109270
:102DF000F40201151105F1F4A090F202B090F30273
:102E000085E093E00E94B509892BA1F085E093E06D
:102E10000E9493098F7D833569F4AA94AB2851F001
:102E20008DE49DE00E94EA0F81E090E09093F30230
:102E30008093F2028091EE029091EF02A091F00255
:102E4000B091F102A7019601281B390B4A0B5B0BCD
:102E5000DA01C901883C9105A105B10540F1A090B6
:102E6000F202B090F302C092EE02D092EF02E09232
:102E7000F002F092F1020E94910FA114B10409F046
:102E800074C0882309F471C00E94F60F80E29DE0AF
:102E90000130110511F08CEF9CE00E94EA0F0E94B6
:102EA000F60F81E090E09093F3028093F20280911C
:102EB000F2029091F302009709F077C081E0012BB4
:102EC00009F080E08093000181E08093EC0280E0D3
:102ED00090E0892B09F456CF0E94C109882309F498
:102EE0002ECF0E9400002BCF8CE492E00E94EA0FCC
:102EF0008BE192E00E94EA0F86EF91E00E94EA0FD8
:102F000010E000E0B7CE8091F4028F5F843018F4B7
:102F10008093F4026ECF1092F402B092FA02A09263
:102F2000F902C4010297029710F08928A9F40E94BF
:102F3000430D1092F3021092F2020E94F60F31E05C
:102F400073120CC084EE9DE00E94EA0F85EB9DE0B9
:102F50000E94EA0F0E94F60F85014BCF80E99DE0A9
:102F60000E94EA0F86E69DE0F3CF32E0A31AB10893
:102F700042E0A416B10408F09ACF811198CF0E94C4
:102F8000F60F8EEC9CE00130110511F080EB9CE017
:102F90000E94EA0F0E94F60F0E94430D1092F30266
:102FA0001092F2021092ED0282CF1092EC02019781
:102FB00009F08DCF8091EB020130110509F00AC1B3
:102FC00081110E94D70E0E945B0EC15EDE4F6881A8
:102FD00079818A81CF51D1400E940F0C88E0CB5E6D
:102FE000DE4FA881B981C551D1401D928A95E9F77C
:102FF000CE0189559F4F0E940F13182F80E2F101D7
:1030000011928A95E9F7C1010E942411813091053E
:10301000D9F0019639F482E594E00E94EA0F0E940B
:103020003B0D0CC082E394E00E94EA0F60916801BE
:103030007091690180916A010E94A90F0E940B0C96
:10304000512C83E090E04DC0111104C08CE094E05D
:103050000E94EA0F41E0B101CE0189559F4F0E94C5
:103060001A0F182F8CEF93E00E94440A17FF03C039
:103070008CED93E0D2CF812F110F990B0E944F104E
:10308000D10151968C918F70B9F184EA93E00E943E
:10309000EA0F609168017091690180916A010E9454
:1030A000A90F0E940B0C5524539419C0882379F161
:1030B0000E94F60F552009F46FC08DE293E00E9444
:1030C000EA0F0E94F60FE5E6F1E0608171818281EE
:1030D0000E94A90F0E940B0C552009F4B2CF82E088
:1030E00090E09093F3028093F2025110F0CE80E9C9
:1030F0009CE00E94EA0FEBCE11E004ED60906001CD
:103100007090610180906201FE0131967F0182E939
:1031100093E00E94440A812F0E943E1080E2F10158
:10312000DE01A05CBF4F01900D928A95E1F7629697
:103130000FAF629748E260E2CE01805C9F4F0E9431
:10314000840A482F6BE2CE01805C9F4F0E94F80BEF
:10315000882DB3010E940F0C68E873E0CE01805CFB
:103160009F4F0E943F13582E811103C00E940B0CE9
:1031700068CF0E945B0E80E2D7011D928A95E9F725
:10318000C7010E947E10582E811110C082E793E083
:103190000E94EA0F0E94F60F8CE193E00E94EA0F72
:1031A0000E94F60F512CE8E6F1E08FCF8CE593E01A
:1031B0000E94440A8A898F700E943E108A898F700B
:1031C0001F5F173009F072CF55245394811170CFCF
:1031D000512C6ECF81110E94D70E0E945B0EC15EF2
:1031E000DE4F688179818A81CF51D1400E940F0CD6
:1031F000FE013196C15FDE4FF983E883CF50D140A5
:103200008FE311928A95E9F780E090ECA9E7B4EC9E
:103210008FA798ABA9ABBAAB8BA79CA7ADA7BEA74E
:103220008FEF8A8B9E0129513F4FCF5EDE4F39834E
:103230002883C151D14080E2D9011D928A95E9F7D6
:10324000C9010E942411009749F489E59CE00E947D
:10325000EA0F0E940B0C10920403F2CE0196E9F4DF
:103260000E94F60F8EE29CE00E94EA0F86EF9BE040
:103270000E94EA0F8FEC9BE00E94EA0F0E94F60F7B
:10328000609168017091690180916A010E94A90FA3
:103290000E940B0C1092040306CFBE016D5E7F4F9F
:1032A000CE0189519F4F0E94780BBE016F5F7F4F07
:1032B000CE0189519F4F0E949E0ACE0109960E941D
:1032C0000F13898B811104C08AE794E00E94EA0FF2
:1032D00040E0BE0169517F4FCE0109960E941A0F4E
:1032E0008A8B853009F0C1C0F1011082E12C810187
:1032F00021E043E251E061E090E080E00E94670E4F
:1033000081116FC06CE871E0CE0101960E94BE2A67
:103310000E94F60F8DEB9BE00E94440ACE010196BD
:103320000E94CC1187E3CD5EDE4FA881B981C351E5
:10333000D1401D928A95E9F78A89853009F4C4C085
:10334000BBA8863009F42EC28BE1D1011D928A956B
:10335000E9F70B2D063008F005E02BE1A10164E050
:1033600084E391E00E94090E892B09F0BDC2F101AE
:10337000608171816115710509F4B6C290E080E049
:103380000E94672820E030E04AE754E40E94BF270B
:103390004B015C0171019E01205C3F4F690110E00F
:1033A000B2E0EB0EF11CE4E0CE0ED11C011709F4E3
:1033B000C1C2D70111966C9111978C91762F682F0D
:1033C00090E080E00E94672820E030E04AE754E483
:1033D0000E94BF27F60160837183828393831F5FFE
:1033E000DFCF6AE070E080E090E00E944B0D229613
:1033F0001FAE1EAE229742E0E42E8E01005C1F4FEE
:1034000021E042E251E060E090E080E00E94670E3F
:10341000882309F477CF21969FAD219722968FAD0F
:1034200022979F3FE1F48F3F09F46CCF1F929F9347
:103430001F928F9383E991E09F938F931F9288E06F
:103440008F9321E030E02C0F3D1F3F932F930E947C
:10345000C52A0FB6F894DEBF0FBECDBF59CF91116C
:10346000E5CF882309F44ECFE1CF80E1CD5EDE4F7A
:10347000A881B981C351D1401D928A95E9F720E115
:10348000AE01405C5F4F62E084E291E00E94090E71
:10349000892B11F019823CCFFE01E05CFF4FDE0169
:1034A0001196819190EE980F9F3518F01C92188616
:1034B0002FCF8D93C35DDE4F28813981CD52D1400E
:1034C0002E173F0771F7F3CF6AE070E080E090E0DD
:1034D0000E944B0D1BA9C955DF4F19821882C75A8C
:1034E000D04020E0AE0149555F4F62E08CE291E0B0
:1034F0000E94C70E882309F444C120E0AE0149555B
:103500005F4F62E08CE291E00E94C70E22E0AE01C4
:1035100049555F4F61E087E291E00E94C70E163087
:1035200008F015E0FE01E05CFF4F6F01F12CE12C8B
:1035300000E0812C912C5401E116C0F5D1011196C7
:103540001C9211971C9222E0A10161E0C701895DE4
:103550009E4F0E94C70E882311F1F1016081718195
:10356000CB0101978E3F9F4FD0F490E080E00E9406
:10357000672820E030E04AE754E40E94BF279B011F
:10358000AC01D60114962D933D934D935C93179700
:10359000C501B4010E944E274B015C0101E0BFEF61
:1035A000EB1AFB0AE4E0CE0ED11CC6CF0170C75E59
:1035B000DE4F0883C951D140D10111961C92119759
:1035C0001C9222E0A10161E086E291E00E94C70E18
:1035D000882309F4CEC0F10160817181CB0101978C
:1035E0008E3F9F4F08F0C5C090E080E00E946728A2
:1035F00020E030E048EC52E40E94BF272B013C0160
:1036000060E070EC89E794EC4BA65CA66DA67EA604
:103610006FA778AB89AB9AAB8A898630D1F50E94C7
:103620006D0D0E945C07F82E00E0882371F083E6A0
:1036300091E00197F1F782ED0E94D0078BE891E0CD
:103640000197F1F70E949507082F0E940B0C60E08C
:1036500070EC89E794ECFF20C1F0602F70E090E0FF
:1036600080E00E94692820E030E040E252EC0E94B5
:103670001E2920E03CEA41E156E40E944E2720E06A
:1036800030E048EC52E40E94BF276BA77CA78DA7CF
:103690009EA7FE01B0968BE0DF011D928A95E9F7A7
:1036A000FA888BEF8F0D823008F0CEC12F892E3132
:1036B00008F4C7C12D51330BE88CF98C4E8983E295
:1036C00090E0841B910997FF02C090E080E0820F98
:1036D000931F8E9DB0018F9D700D9E9D700D1124C6
:1036E00090E080E00E94672820E030E040E05DE369
:1036F0000E941E292B013C01B70190E080E00E944E
:1037000067289B01AC01C301B2010E944E276B01E7
:103710007C018C898A3141F08C3131F0883221F082
:1037200068E572E0823311F468EE73E090E080E0C7
:103730000E9467289B01AC01C701B6010E94BF2708
:103740009B01AC0160E070E080E890E40E944D27AE
:103750006B017C0120E030E0A9010E94BA2787FFBD
:1037600003C0C12CD12C7601C8A2D9A2EAA2FBA227
:1037700032C2412C30EC532E39E7632E34EC732ED9
:103780003FCF412C20EC522E29E7622E24EC722EE2
:10379000C75EDE4F1882C951D14010E0812C912CB8
:1037A00054012ECFC955DF4F1882C75AD04084E14B
:1037B000D1011D928A95E9F70E946D0DE12C8E01D1
:1037C00009551F4F22E04EE251E06CEC80E00E9470
:1037D000770D6AE070E080E090E00E944B0D0E945F
:1037E0005C07182F882309F183E691E00197F1F730
:1037F00084ED0E94D0078BE891E00197F1F7610119
:1038000093E6E92EFF24F3940E949507F601819335
:103810006F01C7010197F1F7C55DDE4F288139813E
:10382000CB52D1402E173F0779F70E940B0C112382
:1038300009F444C00B2D0B3008F00AE07101AE0111
:10384000405C5F4F6A0110E0812C912C540154E0E0
:10385000C50ED11C011709F440C0D70111966C9117
:1038600011978C91762F682F90E080E00E94672856
:1038700020E030E040E251E40E94BF279B01AC0110
:1038800060E070E88BEB95E40E944D2720E030E08B
:103890004AE754E40E94BF279B01AC01F601208354
:1038A000318342835383C501B4010E944E274B01EB
:1038B0005C011F5FF2E0EF0EF11CC9CFC75EDE4F67
:1038C0001882C951D140812C912C540160E070ECD8
:1038D00089E794EC2B013C0197CE21E0C75EDE4FD7
:1038E0002883C951D140F2CF8DE0CB5EDE4FA88155
:1038F000B981C551D1401D928A95E9F72DE0AE01FD
:1039000049555F4F64E080E391E00E94090E892BE6
:1039100009F44DC060E070EC89E794EC2B013C01A8
:10392000C75EDE4F1882C951D14010E0812C912C26
:1039300054016ACED1011E966D917C911F975096CD
:10394000ED90FC90CB0101978E3F9F4F18F590E0D2
:1039500080E00E94672820E030E048EC52E40E94BA
:10396000BF272B013C01C70101978E3F9F4FD0F429
:10397000B70190E080E00E94672820E030E048EC4A
:1039800052E40E94BF27F1E0C75EDE4FF883C951C1
:10399000D1403ACE412C80EC582E89E7682E84EC39
:1039A000782EE1CF60E070EC89E794ECECCFCD5459
:1039B000DF4F8881C35BD040863009F0ABCFC9555B
:1039C000DF4F68817981C75AD04090E080E00E9443
:1039D000672820E030E04AE754E40E94BF274B010B
:1039E0005C019E0129553F4F7901AE01405C5F4F5C
:1039F0006A0110E052E0E50EF11C84E0C80ED11C13
:103A00000117C1F0D70111966C9111978C91762F07
:103A1000682F90E080E00E94672820E030E04AE7CD
:103A200054E40E94BF27F6016083718382839383ED
:103A30001F5FE0CF60E070EC89E794EC2B013C0164
:103A4000A2CF30E020E038CE8F2D0E94CE0F882309
:103A500009F42EC10C89F101108211821282F2E068
:103A600081E0FF1621F023E082E0F21280E034E0F2
:103A7000839FC001112443E0B101885C9E4F0E94E6
:103A8000180E70E060E0882319F0D1016D917C91EF
:103A90000023A1F190E080E00E9467286B017C0187
:103AA000602F70E090E080E00E9469289B01AC01EB
:103AB000C701B6010E94BF276B017C0120E030E006
:103AC00040EA52E40E94192918160CF492C020E032
:103AD00030E040E251E4C701B6010E94BF2720E078
:103AE00030E040EA50E40E944D276B017C0120E069
:103AF00030E0A9010E94BA2787FF03C0C12CD12C56
:103B00007601C8A2D9A2EAA2FBA20A89802F0E944C
:103B1000CE0F811175C080E08EA38A89823009F4AE
:103B200089C0833009F4A6C08111BBC088E0F101CF
:103B300011928A95E9F748E0B10188E591E00E9489
:103B4000180E882309F4ADC0D10116962C91B0E16E
:103B50002B9FA0011124407F5370F1019581292FE3
:103B600030E0A4E035952795AA95E1F7242B352B75
:103B7000848190E0982F8827882793704381842B35
:103B8000820F931F4081429546954695437021814F
:103B9000F4E02F9F90011124242B820F931F9DA3EB
:103BA0008CA38A89811180C085E0D1011D928A95FC
:103BB000E9F745E0B1018CE591E00E94180E8823F9
:103BC00009F472C0F10180819181A281B3818FA338
:103BD00098A7A9A7BAA70E94910F582E811186C055
:103BE00086E99BE00E94EA0F0E940B0C10920403EE
:103BF00028CAC12CD12C00E8E02E00E4F02E81CFA1
:103C0000F1011182108281E0023021F082E0033064
:103C100009F080E0F4E08F9FC001112442E0B1017F
:103C20008C5B9E4F0E94180E882309F474CFD1013B
:103C30008C9172CF88E0D1011D928A95E9F748E016
:103C4000B10184E591E00E94180E882351F1F10141
:103C500020818281422F480F5527551F2381240F31
:103C6000352F311D8581280F311D8681820F932FBD
:103C7000911D95CF86E0D1011D928A95E9F746E026
:103C8000B10180E591E00E94180E882351F0F10106
:103C900080819281482F490F5527551F9A018381B2
:103CA000E5CF90E080E07BCF80E090E0DC018FCF3B
:103CB000C250DF4F6881CE5FD0406F7070E0759565
:103CC0006795C12CD12C50E8E52E50E4F52E6330D9
:103CD00008F44ACD673009F444CD62507109072ECB
:103CE000000C880B990B0E9469282ACDC75EDE4F15
:103CF000F881C951D140C45EDE4FF883CC51D14028
:103D0000F11104C08EE59BE00E94EA0F0E94F60FBD
:103D100086E199E00E94440ACE0101960E94CC11EE
:103D200084E099E00E94440A8989882309F46AC4DE
:103D30009E01275F3F4F790100E0D7018D917D0102
:103D4000803118F480E30E945F0AF70131976081A7
:103D500070E090E080E040E10E94FA0F073019F037
:103D600080E20E945F0A0F5F083039F70E94E60F79
:103D700089851F928F938A851F928F938B851F92BF
:103D80008F938EE991E09F938F931F928DE08F9395
:103D90003F922F920E94C52A82EF98E00E94440A27
:103DA000C1010E94CC110FB6F894DEBF0FBECDBF8B
:103DB00082ED98E00E94440A8A89082E000C990B33
:103DC0000E944F1080EC98E00E94440A6B8970E0DA
:103DD00090E080E04AE00E94FA0F8BEB98E00E94AE
:103DE000440A8B898D3008F012C48DEA98E00E9455
:103DF000440A89E20E945F0A0E94E60F8EE798E07B
:103E00000E94440A6CA97DA98EA99FA941E00E9445
:103E1000DC118AE798E00E94EA0F0E94F60F88E61C
:103E200098E00E94440A88AD882309F4F8C38FE41F
:103E300098E00E94EA0F86E598E00E94440A8A8D85
:103E4000882309F4EFC38EE198E00E94EA0F84E32F
:103E500098E00E94440A6D8983EE94E06130A1F0FD
:103E600082EF94E0613080F087ED94E0653061F09E
:103E70008CEC94E06F3041F070E090E080E04AE03C
:103E80000E94FA0F86EB94E00E94EA0F82E298E02B
:103E90000E94440A89AD882309F4C7C386E098E0EC
:103EA0000E94EA0F89E098E00E94440A8AAD8823C4
:103EB00009F4BEC38DEE97E00E94EA0F80EF97E011
:103EC0000E94440A8BAD882309F4B5C384ED97E0C2
:103ED0000E94EA0F87ED97E00E94440A8CAD882388
:103EE00009F4ACC38BEB97E00E94EA0F8EEB97E0EE
:103EF0000E94440A8DAD882309F4A3C384EB97E0A4
:103F00000E94EA0FC951DF4F8881C75ED040813FD0
:103F100019F0803509F098C38CE997E00E94EA0F08
:103F2000C851DF4F8881C85ED040982F9F7E96325F
:103F300019F0813309F09EC388E897E00E94EA0FE8
:103F400062E2CE0189519F4F0E944B098111A8C3A3
:103F500084E797E00E94EA0FC750DF4F8881C95F6E
:103F6000D040882309F4B2C380E697E00E94EA0FAC
:103F7000C650DF4F8881CA5FD040882309F4A9C3A7
:103F800081E297E00E94EA0F88AD882309F49EC081
:103F90008EAD9FAD892B09F499C088EC95E00E9405
:103FA000EA0F8EAD80FF16C08D891F928F9380E43B
:103FB00092E09F938F931F9280E38F933F922F9273
:103FC0000E94C52AC1010E94CC110FB6F894DEBF31
:103FD0000FBECDBF8EAD81FF04C08DE995E00E947C
:103FE000EA0F8EAD82FF04C081E795E00E94EA0FE0
:103FF0008EAD83FF04C085E495E00E94EA0F8EAD8C
:1040000084FF1AC0C951DF4F8881C75ED0401F921C
:104010008F9382E692E09F938F931F9280E38F931A
:104020003F922F920E94C52AC1010E94CC110FB667
:10403000F894DEBF0FBECDBF8EAD85FF1AC0C8514C
:10404000DF4F8881C85ED0401F928F938CE892E04A
:104050009F938F931F9280E38F933F922F920E94A2
:10406000C52AC1010E94CC110FB6F894DEBF0FBE65
:10407000CDBF8EAD86FF1BC062E2CE0189519F4F3E
:104080000E944B091F928F9383EB92E09F938F9333
:104090001F9280E38F933F922F920E94C52AC10105
:1040A0000E94CC110FB6F894DEBF0FBECDBF8EAD0F
:1040B00087FF04C08FE195E00E94EA0F8EAD9FADAF
:1040C00090FF04C089EF94E00E94EA0F0E94F60F6F
:1040D000888D998D892B69F084EE96E00E94440AC0
:1040E000688D798D90E080E04AE00E94FA0F0E948E
:1040F000E60F20E030E0A90168A179A18AA19BA187
:104100000E9419291816E4F582ED96E00E94440AEF
:1041100068A179A18AA19BA142E00E94DC118AECEE
:1041200096E00E94440AC8A0D9A0EAA0FBA020E023
:1041300030E0A901C701B6010E94192920E030E052
:1041400040E05FE387FDC8C2C701B6010E944E2769
:104150000E9431287B01D12CC12C83E2CE14DF04D4
:104160000CF08DE20E945F0A5FEFC51AD50A84E069
:10417000C816D10491F789E20E945F0A0E94E60FF7
:104180008A890E94CE0F882309F479C08EA18823E2
:10419000B1F188EB96E00E94440A8EA10E943E1085
:1041A000888D998D892B59F186EA96E00E94440A00
:1041B0006EA170E090E080E00E94692820E030E08D
:1041C00048EC52E40E941E296B017C01688D798DB8
:1041D00090E080E00E9467289B01AC01C701B60116
:1041E0000E94BF2720E030E040E850E40E944E27C4
:1041F00041E00E94DC1183EA96E00E94EA0F8CA164
:104200009DA1892BE1F181E996E00E94440A6CA10D
:104210007DA190E080E04AE00E94FA0F0E94E60F44
:10422000888D998D892B59F18FE796E00E94440A79
:104230006CA17DA190E080E00E94672820E030E042
:1042400048EC52E40E941E296B017C01688D798D37
:1042500090E080E00E9467289B01AC01C701B60195
:104260000E94BF2720E030E040E850E40E944E2743
:1042700041E00E94DC118CE796E00E94EA0F8A89F7
:104280008550823008F040C08E898823E9F08AE6A4
:1042900096E00E94440A6E8970E090E080E00E94FF
:1042A000692820E030E040EA50EC0E941E2920E01E
:1042B00030E040E253E40E944E2741E00E94DC11CE
:1042C00087E696E00E94EA0F8F898823E9F085E56A
:1042D00096E00E94440A6F8970E090E080E00E94BE
:1042E000692820E030E040EA50E40E941E2920E0E6
:1042F00030E040E253E40E944D2741E00E94DC118F
:1043000082E596E00E94EA0F20E030EC49E754ECA9
:104310006BA57CA58DA59EA50E94BA27882379F060
:1043200080E496E00E94440A6BA57CA58DA59EA51D
:1043300041E00E94DC118DE396E00E94EA0F20E04C
:1043400030EC49E754EC6FA578A989A99AA90E9495
:10435000BA27882379F08BE296E00E94440A6FA581
:1043600078A989A99AA941E00E94DC1188E296E027
:104370000E94EA0F0E94F60F86E196E00E94440A2E
:10438000C501B4010E94B412C75EDE4F9881C951C5
:10439000D140992311F01111A4C182E096E00E944E
:1043A000EA0F8A890E94CE0F882309F450C06FA1BA
:1043B00078A589A59AA5611571058105910509F46E
:1043C00046C00C89002309F442C00E9467286B0193
:1043D0007C01602F70E090E080E00E9469289B01E2
:1043E000AC01C701B6010E94BF2720E030E044E3E2
:1043F00055E40E94BF276B017C0120E030E040E2E1
:1044000051E40E94BA2701E087FD10C020E030E0AF
:1044100040E251E4C701B6010E94BF270E94312843
:104420006830710514F067E070E0062F0E94F60F07
:104430008EED95E00E94440A602F70E090E080E0ED
:104440004AE00E94FA0F89ED95E00E94EA0F0E946F
:10445000F60F70E060E0CE0189519F4F0E948F11EE
:104460000E94F60FC75EDE4FF881C951D140FF238D
:1044700009F491C0123008F4DAC125967FAC259773
:104480002696AFAC26972796BFAC279728960FADF8
:10449000289740E4842E912C8C0E9D1E28E0820EDD
:1044A000911CC65EDE4F7882CA51D1404A2CC55E4F
:1044B000DE4FB882CB51D140602E31E0C75EDE4F77
:1044C0003883C951D140D401CD90DD90ED90FD905D
:1044D0004D01272D3A2D4B2D502FC701B6010E94BB
:1044E0001929181624F47C2CAD2CBE2C0F2DC65E79
:1044F000DE4F2881CA51D140342DC55EDE4F488140
:10450000CB51D140562DC701B6010E94BA2787FF73
:104510000CC0C65EDE4FC882CA51D1404D2CC55E6C
:10452000DE4FE882CB51D1406F2CC75EDE4FB881A1
:10453000C951D140BF5FC75EDE4FB883C951D1407A
:10454000B113C1CFC65EDE4F2881CA51D140342D90
:10455000C55EDE4F4881CB51D140562D672D7A2D57
:104560008B2D902F0E944D276B017C012AE939E9A0
:1045700049E95EE30E94192987FD59C185E49BE062
:104580000E94440A43E0C701B6010E94DC1189E29F
:104590009BE00E94EA0F88AD81114FC18DE09BE046
:1045A0000E94EA0F60916501709166018091670138
:1045B0000E94A90F8A890E94CE0F81110E945B0E72
:1045C0000E94F60F8FE19BE00E94EA0FC45EDE4F6F
:1045D0002881CC51D1402093ED0288ADE5E6F1E091
:1045E000882319F080E5E8E6F1E091818093EA0202
:1045F0009093E9021092E8020E940B0C10920403BF
:104600000C946F1884EE98E00E94EA0FD1CB8E31A3
:1046100018F48FE998E0EBCB80E998E0E8CB86E4EA
:1046200098E007CC8BE198E010CC82E098E038CCA1
:1046300089EE97E041CC80ED97E04ACC87EB97E09C
:1046400053CC80EB97E05CCC1F928F938FEA91E084
:104650009F938F931F9280E38F933F922F920E949C
:10466000C52AC1010E94CC110FB6F894DEBF0FBE5F
:10467000CDBF56CC1F928F9383EE91E09F938F9383
:104680001F9280E38F933F922F920E94C52AC1010F
:104690000E94CC110FB6F894DEBF0FBECDBF50CC38
:1046A0001F928F9389E192E09F938F931F9280E3F3
:1046B0008F933F922F920E94C52AC1010E94CC1174
:1046C0000FB6F894DEBF0FBECDBF46CC85E397E0B2
:1046D0004DCC86EF96E056CCC701B6010E944D271F
:1046E00037CD25967FAC259726968FAC26972796B3
:1046F0009FAC279728960FAD2897A0E4B0E0AC0FA9
:10470000BD1F1496C35EDE4FB983A883CD51D1403F
:10471000C65EDE4F7882CA51D140482CC55EDE4F5E
:104720009882CB51D140602EB12CA12CA11608F05B
:1047300065C0BFEFAB1ABB0ABF92AF92E4EDF2E0E7
:10474000FF93EF931F9236E13F933F922F920E9487
:10475000C52AC1010E94D90FC35EDE4FA881B9816D
:10476000CD51D140CD90DD90ED90FD90C35EDE4FF8
:10477000B983A883CD51D140C701B6010E94B412BC
:104780000FB6F894DEBF0FBECDBF272D382D492DB3
:10479000502FC701B6010E941929181624F47C2C49
:1047A0008D2C9E2C0F2DC65EDE4F2881CA51D14024
:1047B000342DC55EDE4F4881CB51D140562DC70107
:1047C000B6010E94BA2787FD0CC0C65EDE4FC880C6
:1047D000CA51D140D42CC55EDE4FE880CB51D140C8
:1047E000F62CC65EDE4FC882CA51D1404D2CC55E44
:1047F000DE4FE882CB51D1406F2C98CF80EF95E00F
:104800000E94440AC65EDE4F2881CA51D140342D31
:10481000C55EDE4F4881CB51D140562D672D782D96
:10482000892D902F0E944D270E94B412BACDC45EEC
:10483000DE4F1882CC51D140AECE8A890E94CE0F75
:10484000811132C08EEE9AE00E94440ACA880C2C74
:10485000000CDD08EE08FF084AE0C701B601F7FECC
:104860000BC08DE20E945F0A66277727CB016C1987
:104870007D098E099F094AE00E94FA0F82EE9AE0B4
:104880000E94EA0FC15DDE4F6881CF52D140C05D0A
:10489000DE4F7881C053D140CF5CDE4F8881C15359
:1048A000D1400E94A90F8CCE82ED9AE00E94EA0FBF
:1048B0000E943B0D8BEB9AE00E94EA0F0E943B0D99
:1048C0000E945B0E0E94F60E8E0109531F4F892B2A
:1048D00009F058C088E0F80111928A95E9F789E05B
:1048E000CB5EDE4FA881B981C551D1401D928A951A
:1048F000E9F729E0AE0149555F4FB80183E691E041
:104900000E94C1120E94D70E0E945B0E80E2F1014C
:1049100011928A95E9F7C1010E947E10882391F1D6
:1049200080E2F101DE01A951BF4F01900D928A95FD
:10493000E1F7BE016D5E7F4FCE0189519F4F0E940E
:10494000780BBE016F5F7F4FCE0189519F4F0E9450
:104950009E0A88AD811112C084EA9AE00E94EA0F93
:1049600086EC99E00E94EA0FCB5DDE4F6881798189
:104970008A81C552D1400E94A90F20CE85E79AE0D6
:104980000E94EA0F812C912C5401839482E59AE0D5
:104990000E94440A4AE0C501B4010E94FA0F80E572
:1049A0009AE00E94EA0FC85DDE4F688179818A81B2
:1049B000C852D1400E940F0C80E2FE01E951FF4F26
:1049C000D80101900D928A95E1F7C951DF4F888196
:1049D000C75ED0408035F1F5D80151968C91519742
:1049E000807F51968C9340E068E2C8010E94F80BEA
:1049F0004FE060E0C8010E94840A482F69E2C801C4
:104A00000E94F80B4FE160E1C8010E94840A482F20
:104A10006AE2C8010E94F80B48E260E2C8010E9405
:104A2000840A482F6BE2C8010E94F80B4FE26CE247
:104A3000C8010E94840A482F6EE3C8010E94F80B47
:104A40004DE360E3C8010E94840A482F6FE3C80168
:104A50000E94F80BC951DF4F8881C75ED040813F6B
:104A600009F09CC0F801808328E52583168217820F
:104A700080E4828781E2838780E8858782E0868779
:104A8000168A80ED818B8289811102C08EE8828B2B
:104A9000D80111968C918F7E863271F1C751DF4F0C
:104AA0009881C95ED0409D3B09F4A8C081E0963B47
:104AB00009F080E090E0C651DF4F2881CA5ED04007
:104AC000233109F09EC09F5FC551DF4F2881CB5E27
:104AD000D040243109F09AC09F5FCD50DF4F28812C
:104AE000C35FD040203D09F096C09F5F981708F043
:104AF00097C086E3F8018183D80153968C9188236F
:104B000011F0853AA1F4C950DF4F8881C75FD040CA
:104B1000F8019181963309F485C08A3308F084C086
:104B2000803308F481C085E4D80153968C9340E02B
:104B300068E2C8010E94F80B4FE060E0C8010E94E3
:104B4000840A482F69E2C8010E94F80B4FE160E136
:104B5000C8010E94840A482F6AE2C8010E94F80B2B
:104B600048E260E2C8010E94840A482F6BE2C80153
:104B70000E94F80B4FE26CE2C8010E94840A482FA1
:104B80006EE3C8010E94F80B4DE360E3C8010E9488
:104B9000840A482F6FE3C8010E94F80B6EE979E0A0
:104BA000C8010E948F116BE979E0C8010E943F1390
:104BB0008823C1F00E945B0E80E2CB5EDE4FE8816D
:104BC000F981C551D14011928A95E9F7CE018955F5
:104BD0009F4F0E947E10F82E811128C08EE799E029
:104BE0000E94EA0F85EE99E0FCC0FFEF8F1A9F0A42
:104BF000AF0ABF0AFF2009F4C9CEB2CE80E091E02F
:104C00005ACF233C09F060CF8F5F5ECF283109F087
:104C100064CF8F5F62CF213009F068CF8F5F66CF9E
:104C200086E268CF8BE180CF87E67ECF4FE060E001
:104C3000CE0189559F4F0E94840A482EC554DF4FEC
:104C4000F881CB5BD040C75EDE4FF883C951D140BD
:104C5000DF2ED2949FE0D9224FE160E1CE01895549
:104C60009F4F0E94840A682EC454DF4FE880CC5BBB
:104C7000D0402E2D2F70722E48E260E2CE01895571
:104C80009F4F0E94840AC82EE2942FE0E2228FE612
:104C900099E00E94440A87E599E04D1411F08EE4F2
:104CA00099E00E94440A80E20E945F0A85E499E04C
:104CB000671411F08BE399E00E94440A80E20E949D
:104CC0005F0A82E399E0CE1411F088E299E00E9435
:104CD000EA0F4D1078C0671076C0CE1074C0C75E62
:104CE000DE4F8881C951D1408F7009F06CC08FE5CB
:104CF00099E00E94EA0F0E945B0E0E94F60E892B3B
:104D0000D1F488E0C95EDE4FA881B981C751D14096
:104D10001D928A95E9F789E0F10111928A95E9F7E8
:104D200029E0A101BE01695F7E4F83E691E00E9408
:104D3000C1120E94D70E0E945B0E80E2E82ED101C4
:104D4000EE2D1D92EA95E9F7C1010E947E10F10156
:104D5000DE01A951BF4F01900D92EA94E1F7BE0127
:104D60006D5E7F4FCE0189519F4F0E94780BBE012F
:104D70006F5F7F4FCE0189519F4F0E949E0A88AD81
:104D800081112DC089E29AE00E94EA0FF6E08F16A9
:104D90009104A104B10409F028CFF110E1CD80EB1A
:104DA00099E00E94EA0FCE5DDE4F6881C252D14089
:104DB000CD5DDE4F7881C352D140CC5DDE4F88811E
:104DC000C452D1406ECD80E2FE01E955FF4FDE01B5
:104DD000A951BF4F01900D928A95E1F703CF8FEF54
:104DE00099E00E94EA0FF12CD1CF8091AB03909112
:104DF000AC030E942C2A8091A8039091A90397FDEF
:104E000003C060E00C94AB080895991B79E004C0DE
:104E1000991F961708F0961B881F7A95C9F78095F9
:104E20000895AA1BBB1B51E107C0AA1FBB1FA617F1
:104E3000B70710F0A61BB70B881F991F5A95A9F743
:104E400080959095BC01CD010895A1E21A2EAA1B70
:104E5000BB1BFD010DC0AA1FBB1FEE1FFF1FA2172A
:104E6000B307E407F50720F0A21BB30BE40BF50B27
:104E7000661F771F881F991F1A9469F760957095B0
:104E8000809590959B01AC01BD01CF010895EE0F77
:104E9000FF1F0590F491E02D09945058BB27AA27D5
:104EA0000E9465270C94DF280E94D12838F00E94C8
:104EB000D82820F039F49F3F19F426F40C94CE281A
:104EC0000EF4E095E7FB0C94C828E92F0E94F02827
:104ED00058F3BA17620773078407950720F079F42F
:104EE000A6F50C9412290EF4E0950B2EBA2FA02DE6
:104EF0000B01B90190010C01CA01A0011124FF2787
:104F0000591B99F0593F50F4503E68F11A16F04081
:104F1000A22F232F342F4427585FF3CF4695379580
:104F20002795A795F0405395C9F77EF41F16BA0B45
:104F3000620B730B840BBAF09150A1F0FF0FBB1FF3
:104F4000661F771F881FC2F70EC0BA0F621F731F3C
:104F5000841F48F4879577956795B795F7959E3F99
:104F600008F0B0CF9395880F08F09927EE0F97952A
:104F7000879508950E94A42808F481E008950E946E
:104F8000D3270C94DF280E94D82858F00E94D128FB
:104F900040F029F45F3F29F00C94C82851110C947B
:104FA00013290C94CE280E94F02868F39923B1F3BA
:104FB000552391F3951B550BBB27AA27621773073F
:104FC000840738F09F5F5F4F220F331F441FAA1FD3
:104FD000A9F335D00E2E3AF0E0E832D0915050408F
:104FE000E695001CCAF72BD0FE2F29D0660F771F3D
:104FF000881FBB1F261737074807AB07B0E809F023
:10500000BB0B802DBF01FF2793585F4F3AF09E3FA7
:10501000510578F00C94C8280C9413295F3FE4F3F1
:10502000983ED4F3869577956795B795F7959F5FEA
:10503000C9F7880F911D9695879597F90895E1E036
:10504000660F771F881FBB1F621773078407BA0795
:1050500020F0621B730B840BBA0BEE1F88F7E095F0
:1050600008950E9438286894B1110C94132908956A
:105070000E94F82888F09F5798F0B92F9927B751C8
:10508000B0F0E1F0660F771F881F991F1AF0BA95EC
:10509000C9F714C0B13091F00E941229B1E008950F
:1050A0000C941229672F782F8827B85F39F0B93F01
:1050B000CCF3869577956795B395D9F73EF490959F
:1050C0008095709561957F4F8F4F9F4F0895E8941D
:1050D00009C097FB3EF490958095709561957F4F40
:1050E0008F4F9F4F9923A9F0F92F96E9BB279395EE
:1050F000F695879577956795B795F111F8CFFAF4FE
:10510000BB0F11F460FF1BC06F5F7F4F8F4F9F4F2E
:1051100016C0882311F096E911C0772321F09EE88C
:10512000872F762F05C0662371F096E8862F70E0F2
:1051300060E02AF09A95660F771F881FDAF7880FCC
:105140009695879597F90895990F0008550FAA0B22
:10515000E0E8FEEF16161706E807F907C0F012168A
:105160001306E407F50798F0621B730B840B950B8D
:1051700039F40A2661F0232B242B252B21F40895E2
:105180000A2609F4A140A6958FEF811D811D08957F
:1051900097F99F6780E870E060E008959FEF80ECEA
:1051A000089500240A94161617061806090608958D
:1051B00000240A9412161306140605060895092EF3
:1051C0000394000C11F4882352F0BB0F40F4BF2B62
:1051D00011F460FF04C06F5F7F4F8F4F9F4F0895A2
:1051E00057FD9058440F551F59F05F3F71F0479598
:1051F000880F97FB991F61F09F3F79F0879508957D
:10520000121613061406551FF2CF4695F1DF08C09B
:10521000161617061806991FF1CF869571056105B8
:1052200008940895E894BB2766277727CB0197F960
:1052300008950E94A42808F48FEF08950E94312950
:105240000C94DF280E94D12838F00E94D82820F042
:10525000952311F00C94C8280C94CE2811240C949A
:1052600013290E94F02870F3959FC1F3950F50E029
:10527000551F629FF001729FBB27F00DB11D639F08
:10528000AA27F00DB11DAA1F649F6627B00DA11DAE
:10529000661F829F2227B00DA11D621F739FB00D54
:1052A000A11D621F839FA00D611D221F749F3327C4
:1052B000A00D611D231F849F600D211D822F762F5D
:1052C0006A2F11249F5750409AF0F1F088234AF03A
:1052D000EE0FFF1FBB1F661F771F881F91505040A6
:1052E000A9F79E3F510580F00C94C8280C9413290F
:1052F0005F3FE4F3983ED4F3869577956795B7952D
:10530000F795E7959F5FC1F7FE2B880F911D969546
:10531000879597F908950E94A428880B990B089502
:105320000F931F93CF93DF938230910510F482E0A7
:1053300090E0E091C803F091C90330E020E0B0E0D4
:10534000A0E0309799F42115310509F44AC0281BD3
:10535000390B24303105D8F58A819B81611571059F
:1053600089F1FB0193838283FE0111C04081518149
:105370000281138148175907E0F04817590799F43B
:10538000109761F012960C93129713961C93329615
:10539000CF01DF91CF911F910F9108950093C80322
:1053A0001093C903F4CF2115310551F0421753076B
:1053B00038F0A901DB019A01BD01DF01F801C1CF7D
:1053C000EF01F9CF9093C9038093C803CDCFFE01BD
:1053D000E20FF31F8193919322503109398328837F
:1053E000D7CF2091C6033091C703232B41F42091DE
:1053F0000301309104013093C7032093C603209129
:105400000101309102012115310541F42DB73EB75C
:105410004091050150910601241B350BE091C60314
:10542000F091C703E217F307A0F42E1B3F0B2817D8
:10543000390778F0AC014E5F5F4F2417350748F00D
:105440004E0F5F1F5093C7034093C6038193919300
:105450009FCFF0E0E0E09CCFCF93DF930097E9F09F
:10546000FC01329713821282A091C803B091C90344
:10547000ED0130E020E01097A1F420813181820F0E
:10548000931F2091C6033091C7032817390709F0ED
:1054900061C0F093C703E093C603DF91CF910895F5
:1054A000EA01CE17DF07E8F54A815B819E014115CD
:1054B0005105B1F7E901FB83EA8349915991C40F82
:1054C000D51FEC17FD0761F4808191810296840F4E
:1054D000951FE90199838883828193819B838A83C5
:1054E000F0E0E0E012968D919C9113970097B9F54A
:1054F0002D913C911197CD010296820F931F20911F
:10550000C6033091C7032817390739F6309751F58C
:105510001092C9031092C803B093C703A093C603A7
:10552000BCCFD383C28340815181840F951FC8179C
:10553000D90761F44E5F5F4F88819981480F591FE9
:10554000518340838A819B81938382832115310516
:1055500009F0B0CFF093C903E093C8039ECFFD01DB
:10556000DC01C0CF13821282D7CFFB01DC0102C065
:1055700001900D9241505040D8F70895FB01DC0195
:1055800001900D920020E1F70895AEE0B0E0EBEC61
:10559000FAE20C94812D0D891E898F89988D26E061
:1055A0002C831A83098397FF02C080E090E801975B
:1055B0009E838D83AE01455E5F4F698D7A8DCE01EE
:1055C00001960E94F52A4D815E8157FD0AC02F8108
:1055D0003885421753070CF49A01020F131FF80184
:1055E00010822E96E4E00C949D2DABE0B0E0EBEF42
:1055F000FAE20C94732D7C013B018A01FC011782B5
:105600001682838181FFC8C1CE0101965C01F7013A
:105610009381F30193FD859193FF81913F0188234D
:1056200009F453C1853239F493FD859193FF81913B
:105630003F01853229F4B70190E00E94E52CE7CFC5
:10564000912C212C312CFFE1F31538F08B3211F124
:1056500090F4803209F1833229F137FC3CC020ED0F
:10566000280F2A3050F536FE20C08AE0989E200D83
:105670001124922E06C08D3291F0803371F7689418
:1056800030F8F30193FD859193FF81913F018111E2
:10569000DACF21C0689431F8689432F8F2CF689478
:1056A00033F8EFCF689434F8ECCFEAE02E9E200D6B
:1056B0001124222E689435F8E4CF8E3229F436FC7A
:1056C00004C1689436F8DDCF8C3619F4689437F845
:1056D000D8CF8836B1F2982F9F7D95549330E0F063
:1056E0008336A1F18337C1F1833509F063C0280106
:1056F000F2E04F0E511CF801C080D180692D70E09E
:1057000036FC02C06FEF7FEFC6010E94CF2C4C0128
:10571000689437F882010AC00C5F1F4FFFE3F983DA
:1057200088248394912C6501E89437F833FE2DC0CA
:10573000522C8114910471F5552009F468CFB701FA
:1057400080E290E00E94E52C5A94F6CFF801808127
:1057500089830E5F1F4FE4CF2801F2E04F0E511CEA
:10576000F801C080D180692D70E036FC02C06FEF77
:105770007FEFC6010E94DA2C4C018201D5CFB70120
:1057800080E290E00E94E52C2A942814190409F084
:10579000B0F7CECFF60137FC859137FE81916F01CE
:1057A000B70190E00E94E52C51105A94F1E08F1A55
:1057B0009108BFCF843619F0893609F077C0F80117
:1057C00037FE6BC060817181828193810C5F1F4FB6
:1057D000F32DFF763F2E97FF09C090958095709529
:1057E00061957F4F8F4F9F4F689437F82AE030E0E4
:1057F000A5010E94152DC82ECA188C2C432C36FEEC
:105800000CC0E89440F8C91440F434FE05C032FCE2
:1058100003C0F32DFE7E4F2E892C44FE95C0FE0161
:10582000EC0DF11D8081803309F087C0242D297E85
:10583000422E842D8870582E43FC95C040FE8FC0A8
:105840009C2C821418F42C0C922C981844FE91C0B5
:10585000B70180E390E00E94E52C42FE09C088E792
:1058600090E041FE02C088E590E0B7010E94E52C7F
:10587000C91408F48AC0CA94D12C9FEFC91AD90A56
:10588000CA0CDB1CF60182916F01B70190E00E9407
:10589000E52CAC14BD04B1F74FCF60817181072EA8
:1058A000000C880B990B0E5F1F4F92CFD32CE894FE
:1058B000D4F82AE030E0853739F1232D297FD22E24
:1058C0008F3601F148F48835A9F0F7018681978178
:1058D0002B96E2E10C948F2D803749F08837A9F799
:1058E000D4FE02C06894D2F820E130E00DC0689484
:1058F000D4F8F6CF34FE03C0822F8660D82E20E184
:1059000032E002C028E030E0F801D7FE0FC060812D
:105910007181828193810C5F1F4FA5010E94152D1B
:10592000C82ECA183D2CE89437F867CF6081718182
:1059300090E080E00E5F1F4FF0CF42FC02C08394E6
:1059400078CF8394839475CF842D867809F471CFB2
:10595000F6CFB70180E290E00E94E52C8394821498
:10596000C0F3512C73CF522C5818821408F46ECF08
:10597000F8CF842D867809F47BCF8BE241FE80E25C
:1059800047FC8DE2B70190E071CFB70180E390E072
:105990000E94E52C9A946CCF8FEF9FEF99CFFC017A
:1059A0000590615070400110D8F7809590958E0F4A
:1059B0009F1F0895FC016150704001900110D8F7BD
:1059C000809590958E0F9F1F08950F931F93CF93EF
:1059D000DF93182F092FEB018B8181FD09C01FEF89
:1059E0000FEF812F902FDF91CF911F910F9108958D
:1059F00082FF14C02E813F818C819D812817390739
:105A00003CF4E881F981CF01019699838883108362
:105A10008E819F8101969F838E83E3CFE885F985F0
:105A2000812F0995892BA1F3DACFFA01AA27283013
:105A300051F1203181F1E8946F936E7F6E5F7F4F5B
:105A40008F4F9F4FAF4FB1E03ED0B4E03CD0670FD7
:105A5000781F891F9A1FA11D680F791F8A1F911D2A
:105A6000A11D6A0F711D811D911DA11D20D009F47A
:105A700068943F912AE0269F11243019305D3193BC
:105A8000DEF6CF010895462F4770405D4193B3E0A5
:105A90000FD0C9F7F6CF462F4F70405D4A3318F04C
:105AA000495D31FD4052419302D0A9F7EACFB4E0FD
:105AB000A6959795879577956795BA95C9F70097B5
:105AC0006105710508959B01AC010A2E0694579556
:105AD000479537952795BA95C9F7620F731F841FAD
