:100000000C9432070C945A070C945A070C945A0714
:100010000C945A070C945A070C945A070C945A07DC
:100020000C945A070C945A070C945A070C945A07CC
:100030000C945A070C945A070C945A070C945A07BC
:100040000C94CE130C945A070C943E140C94181470
:100050000C945A070C945A070C945A070C945A079C
:100060000C945A070C945A072D2D2D2D2D2D2D2D26
:100070002D2D2D2D2D2D2D2D2D2D2D2D2D2D2D2DB0
:100080002D2D2D2D2D2D2D2D2D2D2D2D2D2D2D2DA0
:100090002D2D2D2D2D2D2D2D2D002020202020200B
:1000A0002020202020202020202020004672616D6A
:1000B00065202020202020202020203A2000206DB4
:1000C0007329002054494D454F55542028002E00D7
:1000D000206D732900204F4B20280020205B4E6F9D
:1000E00020726573706F6E73655D202D2077616976
:1000F00074696E6700206D7329002054494D454F87
:1001000055542028002E00206D732900202800203F
:100110002057616974696E67005374696C6C206E56
:100120006F2070726573656E63652E2041626F7219
:1001300074696E672077726974652E00202053748D
:100140006F72653A206E6F2070726573656E6365BD
:100150002E00202057726974653A206E6F207072ED
:100160006573656E63652E00202041726D3A206EC6
:100170006F2070726573656E63652E00202041727A
:100180006D20616C72656164792069737375656453
:10019000202D20706F7765722D6379636C652072F6
:1001A000657175697265642E004E6F20707265739B
:1001B000656E636520656E746572696E672074652F
:1001C00073746D6F64652E002E0020205761697472
:1001D000696E6700206D732900204F4B202800575F
:1001E000616974696E6720666F72206261747465FC
:1001F00072792E2E2E002020427269646765204796
:1002000050494F302D4750494F3120666F72204F73
:100210006D656761206C6F636B2E0020202773274C
:10022000203D2072657363616E207C206175746F60
:100230002D6465746563747320636F6E6E6563749B
:100240002F646973636F6E6E6563740020204D6167
:100250006B697461204D6F6E69746F72202D20532D
:1002600063616E202F20556E6C6F636B204D6F6441
:100270006500202052656D6F766520627269646743
:100280006520746F2073776974636820746F2073BE
:1002900063616E2F756E6C6F636B206D6F64652E7E
:1002A0000020204750494F302D4750494F312062A0
:1002B000726964676564202D3E204F4D454741209B
:1002C0004C4F434B204D4F444520286E7962626C61
:1002D00065203334290020204D616B697461204F03
:1002E0004D454741204C4F434B205574696C697410
:1002F00079202D2054797065732030202F203220F2
:100300002F2033206F6E6C7900312E352E30002077
:10031000204669726D7761726520760020205B4C03
:100320006F636B5D204641494C45442E0020205BA5
:100330004C6F636B5D204F4D454741204C4F434B05
:1003400045442E204E7962626C65203334207365FB
:1003500074206E6F6E2D7A65726F2E0020205B4CBC
:100360006F636B5D204E7962626C65203334203D93
:10037000200020205B4C6F636B5D204E6F20726508
:1003800073706F6E73652E0020205B4C6F636B5D26
:10039000200020205B4C6F636B5D20417474656DA1
:1003A0007074200020205B4C6F636B5D2042617491
:1003B0007465727920616C7265616479204F4D4576
:1003C0004741204C4F434B454420286E7962626C74
:1003D0006520333420213D2030292E00756E737541
:1003E00070706F727465642028352C20362C206F55
:1003F0007220756E6B6E6F776E292E0020205B4C1D
:100400006F636B5D20547970653A200020205B4C4F
:100410006F636B5D205741524E494E473A20524F11
:100420004D2049442072656164206661696C656491
:100430002E0020205B4C6F636B5D204552524F5263
:100440003A204E6F2076616C6964206672616D653A
:100450002E0020205B4C6F636B5D205072652D7405
:100460007970652D302048433038202D20756E730B
:100470007570706F727465642E005741524E494E0C
:10048000473A20524F4D20494420726561642066EE
:1004900061696C65643B207573696E672066616C89
:1004A0006C6261636B207479706520646574656348
:1004B00074696F6E2E00202D20496E76616C696420
:1004C000204572726F7220436F6465003135202DB4
:1004D00020446561643F0035202D205761726E69AC
:1004E0006E670031202D204F7665726C6F616465F8
:1004F000640030202D204F4B00202042797465206D
:100500003139203D2030783030202020286D75731F
:1005100074206E6F74206265207A65726F290020E6
:100520002042797465203138203D203078303020E9
:100530002020286D757374206E6F74206265207A98
:1005400065726F2900202043533220202020202074
:100550002020202020202020286D69736D61746385
:1005600068206E7962626C65732033322D343029D5
:100570000020204353312020202020202020202034
:1005800020202020286D69736D61746368206E7966
:1005900062626C65732031362D333129002020438F
:1005A0005330202020202020202020202020202008
:1005B000286D69736D61746368206E7962626C6521
:1005C0007320302D313529004C6F636B20636175CA
:1005D000736573202020203A00202F2037005374A9
:1005E000617465206F66206368617267653A2000F8
:1005F00043656C6C20646966662020202020203AC8
:100600002000286E6F2063656C6C73207265706FBC
:100610007274656429005061636B20766F6C74613D
:1006200067652020203A200020430054656D70202B
:10063000284D6F736665742920203A2000204300FE
:1006400054656D70202843656C6C73292020203A16
:1006500020002025004F7665726C6F616420252094
:10066000202020203A20002025004F442025202053
:100670002020202020202020203A20002025004F6C
:100680007665726C6F6164202520202020203A203E
:10069000004F7665726C6F616420636E7420202059
:1006A0003A20002025004F44202520202020202013
:1006B00020202020203A20004F44206576656E746B
:1006C000732020202020203A2000202F20342020BA
:1006D00028004865616C746820202020202020209C
:1006E000203A20004379636C6520636F756E742037
:1006F0002020203A200042797465203139202020C2
:1007000020202020203A20424144202830783030D8
:100710002C206D757374206E6F74206265203029F3
:1007200000427974652031392020202020202020AB
:100730003A204F4B00427974652031382020202028
:10074000202020203A204241442028307830302C8C
:10075000206D757374206E6F7420626520302900DF
:100760004279746520313820202020202020203A32
:10077000204F4B004E7962626C652033342020207C
:100780002020203A204F4B004279746520312020F0
:10079000202020202020203A204F4B0042797465F1
:1007A00020302020202020202020203A204F4B00E5
:1007B000424144004F4B00424144004F4B004175C1
:1007C00078204353756D2034382D3631203A20007F
:1007D000424144004F4B00417578204353756D20D2
:1007E00034342D3437203A2000424144004F4B002E
:1007F000436865636B73756D2033322D3430203A56
:100800002000424144004F4B00436865636B7375A1
:100810006D2031362D3331203A20004E6F0059457E
:100820005300436865636B73756D20302D3135203F
:10083000203A20004661696C75726520636F6465BB
:100840002020203A2000554E4C4F434B4544004C4D
:100850004F434B45440043656C6C206661696C7581
:1008600072652020203A20004C6F636B2073746106
:10087000747573202020203A2000204168004361D5
:10088000706163697479202020202020203A2000A4
:1008900031302063656C6C20424C333678780035FB
:1008A0002063656C6C20424C3138787800342063CA
:1008B000656C6C20424C313478780020202800424E
:1008C00061747465727920747970652020203A20F3
:1008D00000446574656374656420747970652020D4
:1008E0003A200028756E617661696C61626C6529D9
:1008F000004D666720646174652020202020202040
:100900003A2000524F4D2049442020202020202012
:1009100020203A20004D6F64656C2020202020208C
:10092000202020203A200033322D34303D62616493
:100930000033322D34303D6F6B0031362D33313D75
:100940006261640031362D33313D6F6B00302D31E3
:10095000353D62616400302D31353D6F6B002020E4
:100960004441303420636C6561722E2E2E002020AD
:10097000436865636B73756D73203A200020204EC9
:100980006F20726573706F6E736520647572696E27
:1009900067207665726966792E002020002020523B
:1009A0006570616972206672616D65203A2000424F
:1009B000617474657279207374696C6C206C6F63F8
:1009C0006B65642E0042617474657279207375637F
:1009D0006365737366756C6C7920756E6C6F636B91
:1009E00065642E0020202D3E204672616D652072C8
:1009F0006570616972206661696C65642E002020F3
:100A00002D3E2052657061697265642062757420A4
:100A10007374696C6C206C6F636B65642E20526517
:100A2000747279696E672E0020202D3E2046726117
:100A30006D652072657061697220737563636565A9
:100A40006465642E20554E4C4F434B45442E00297F
:100A5000002D2D2D205374657020323A204672618E
:100A60006D65207265706169722028617474656DAE
:100A70007074200020202D3E205374696C6C206C13
:100A80006F636B65642E2050726F63656564696E79
:100A90006720746F206672616D6520726570616990
:100AA000722E0020202D3E20554E4C4F434B454486
:100AB00020627920444130342E002D2D2D20537496
:100AC000657020313A20444130342072657365747A
:100AD0000042617474657279204C4F434B45442E3B
:100AE000002E20536B697070696E672E00556E6C16
:100AF0006F636B206E6F7420737570706F727465A6
:100B00006420666F7220747970652000426174748D
:100B100065727920554E4C4F434B45442E00436F30
:100B20006D706C6574652E005620E28094206368B9
:100B300065636B2062616C616E63696E67207461CE
:100B400062732E005741524E494E473A2043656C1E
:100B50006C20696D62616C616E6365200057415263
:100B60004E494E473A20766F6C7461676520726516
:100B70006164206661696C65643B2063656C6C2010
:100B800064617461206D6179206265206D697373A1
:100B9000696E672E00426174746572792072656DAA
:100BA0006F76656420647572696E67207363616E29
:100BB0002E2041626F7274696E672E0042617474F8
:100BC00065727920666F756E6420203A20002020BF
:100BD00020202020202020444F204E4F54206368A6
:100BE00061726765206F6E20616E79206368617243
:100BF0006765722E002020202020202020204672B1
:100C000065657363616C65204D433930384A4B33F9
:100C10004520424D53202D2D206E6F2063656C6C56
:100C20002070726F74656374696F6E2E0057415245
:100C30004E494E473A205072652D747970652D30BB
:100C4000204843303820626174746572792064658D
:100C500074656374656421004552524F523A2042D4
:100C6000617474657279206E6F7420726573706F31
:100C70006E64696E67206166746572207265747255
:100C80006965732E2041626F7274696E672E002051
:100C90002052656D6F76652062617474657279208B
:100CA000616E642074727920616761696E2E002024
:100CB00020426174746572792072656D6F76656427
:100CC0002E2057616974696E672E2E2E0020205BDE
:100CD0004C6F636B5D20426174746572792072653C
:100CE0006D6F7665642E2057616974696E67206642
:100CF0006F72206E6578742E2E2E00202042617453
:100D000074657279206465746563746564202D2050
:100D10007374617274696E67207363616E2E002054
:100D2000205B4C6F636B5D20426174746572792047
:100D30006465746563746564202D206F6D656761FB
:100D4000206C6F636B696E672E2E2E004D616E7581
:100D5000616C2072657363616E2072657175657375
:100D60007465642E00202042726964676520726594
:100D70006D6F7665642E20496E73657274206261B2
:100D8000747465727920746F207363616E2E002015
:100D9000204D6F6465206368616E676564202D3E39
:100DA000205343414E202F20554E4C4F434B204D56
:100DB0004F44450020204750494F302D4750494F60
:100DC0003120627269646765642E20496E736572B2
:100DD00074206261747465727920746F206C6F6323
:100DE0006B2E0020204D6F6465206368616E67651F
:100DF00064202D3E204F4D454741204C4F434B2012
:100E00004D4F44450000000000240027002A000048
:100E100000000800020100000304070000000000B9
:100E200000000000000000250028002B000000004A
:100E3000002300260029000404040404040404021E
:100E40000202020202030303030303010204081067
:100E50002040800102040810200102040810200034
:100E60007014AE2611241FBECFEFD8E0DEBFCDBF79
:100E700012E0A0E0B1E0E0EEFAE502C005900D92CC
:100E8000A03FB107D9F723E0A0EFB2E001C01D9267
:100E9000A23DB207E1F717E0C1E3D7E004C0219714
:100EA000FE010E940027C033D107C9F70E943F15F9
:100EB0000C94632D0C9400008091C003E091C10359
:100EC000F091C203F8949181282F20959223918369
:100ED00078943DE743E050E0315029F1DA01119771
:100EE000F1F790819823C1F3F89492819223928331
:100EF0009181982B91837894A3EBBBE01197F1F744
:100F0000F894918192239183A3E1B1E01197F1F7D5
:100F10009081982381E009F080E07894E3E6F6E0A0
:100F20003197F1F7089580E00895EF92FF920F93C3
:100F30001F93CF93DF9328E030E080E041E0A3E20D
:100F4000B0E09FECE92EF12C9091C003E091C10339
:100F5000F091C203F8945181592B51836281792F0A
:100F60007095672362838D01ED012197F1F751811F
:100F700057235183E8012197F1F750817894F701C5
:100F80003197F1F7952309F0842B440F2150310953
:100F9000D9F6DF91CF911F910F91FF90EF900895B7
:100FA000CF92DF92EF92FF920F931F93CF93DF9335
:100FB00028E030E041E06BE871E093E7C92ED12CE6
:100FC000CBE2D0E00BED11E09091C003E091C103C2
:100FD000F091C203F92EF094582F542389F1F8941C
:100FE00052815F2152835181592B5183DE01119728
:100FF000F1F75281952B92837894F8013197F1F7AC
:10100000440F2150310901F7F894E091C103F091A8
:10101000C20391818091C003809598239183E091D0
:10102000C103F091C2039281892382837894DF9176
:10103000CF911F910F91FF90EF90DF90CF90089587
:10104000F89452815F2152835181592B5183DB01E6
:101050001197F1F75281952B92837894F601CECFB8
:10106000833081F028F4813099F08230A9F008951E
:101070008730A9F08830C9F08430B1F480918000C5
:101080008F7D03C0809180008F77809380000895CA
:1010900084B58F7784BD089584B58F7DFBCF809113
:1010A000B0008F778093B00008958091B0008F7D5D
:1010B000F9CFCF93DF93E0E1FEE08491ECE4FEE032
:1010C000D491E8E3FEE0C491CC23A1F081110E9409
:1010D0003008EC2FF0E0EE0FFF1FE35DF14FA5911C
:1010E000B491EC91ED2381E090E009F480E0DF9190
:1010F000CF91089580E090E0FACF1F93CF93DF93D4
:10110000282F30E0F901E15FF14F8491F901E55BAF
:10111000F14FD491F901E95CF14FC491CC23A9F0CE
:10112000162F81110E943008EC2FF0E0EE0FFF1F08
:10113000ED5DF14FA591B4918FB7F894EC91111139
:1011400008C0D095DE23DC938FBFDF91CF911F9134
:101150000895DE2BF8CFCF93DF9390E0FC01E55BA1
:10116000F14F2491895C914FFC0184918823C9F04F
:1011700090E0880F991FFC01EB5FF14FA591B491AE
:10118000FC01ED5DF14FC591D49161110DC09FB788
:10119000F8948C91209582238C938881282328832E
:1011A0009FBFDF91CF910895623051F49FB7F894BB
:1011B0003C91822F809583238C93E8812E2BEFCF57
:1011C0008FB7F894EC912E2B2C938FBFEACF3FB7BB
:1011D000F8948091080390910903A0910A03B091BB
:1011E0000B0326B5A89B05C02F3F19F00196A11D42
:1011F000B11D3FBFBA2FA92F982F8827BC01CD0161
:10120000620F711D811D911D42E0660F771F881FBF
:10121000991F4A95D1F708958F929F92AF92BF92EE
:10122000CF92DF92EF92FF926B017C010E94E70860
:101230004B015C01C114D104E104F104B9F00E9436
:10124000E708681979098A099B09683E7340810596
:10125000910580F321E0C21AD108E108F10888EE77
:10126000880E83E0981EA11CB11CE4CFFF90EF9084
:10127000DF90CF90BF90AF909F908F9008952FB741
:10128000F894609104037091050380910603909196
:1012900007032FBF0895262F2695820F911DFC016D
:1012A000808160FD02C08F7008958295FCCFAF925F
:1012B000BF92CF92DF92EF92FF920F931F93CF9343
:1012C000DF936C017B018B01040F151FEB015E01A5
:1012D000AE18BF08C017D10759F06991D601ED913A
:1012E000FC910190F081E02DC6010995892B79F7D9
:1012F000C501DF91CF911F910F91FF90EF90DF908B
:10130000CF90BF90AF900895FC01538D448D252F51
:1013100030E0842F90E0821B930B541710F0CF968F
:10132000089501970895FC01918D828D981761F0C1
:10133000A28DAE0FBF2FB11D5D968C91928D9F5FD8
:101340009F73928F90E008958FEF9FEF0895FC01B7
:10135000918D828D981731F0828DE80FF11D858D6A
:1013600090E008958FEF9FEF0895FC01918D228DFD
:10137000892F90E0805C9F4F821B91098F73992782
:1013800008958DE093E00E94B50921E0892B09F4CE
:1013900020E0822F089580E090E0892B29F00E94C0
:1013A000C10981110C9400000895FC01A48DA80FBF
:1013B000B92FB11DA35ABF4F2C91848D90E0019697
:1013C0008F739927848FA689B7892C93A089B189B7
:1013D0008C91837080648C93938D848D981306C058
:1013E0000288F389E02D80818F7D80830895EF92BC
:1013F000FF920F931F93CF93DF93EC0181E0888FCF
:101400009B8D8C8D98131AC0E889F989808185FF9E
:1014100015C09FB7F894EE89FF896083E889F98940
:1014200080818370806480839FBF81E090E0DF9142
:10143000CF911F910F91FF90EF900895F62E0B8D95
:1014400010E00F5F1F4F0F731127E02E8C8D8E1150
:101450000CC00FB607FCFACFE889F989808185FFB7
:10146000F5CFCE010E94D509F1CFEB8DEC0FFD2F0A
:10147000F11DE35AFF4FF0829FB7F8940B8FEA8972
:10148000FB8980818062CFCF0F931F93CF93DF932F
:101490008C01D0E0C0E0F801EC0FFD1F64916623E1
:1014A00041F08DE093E00E94F709892B11F021961D
:1014B000F2CFCE01DF91CF911F910F910895682F48
:1014C0008DE093E00C94F709CF93DF93EC01888DC6
:1014D0008823B9F0AA89BB89E889F9898C9185FDAF
:1014E00003C0808186FD0DC00FB607FCF7CF8C913D
:1014F00085FFF2CF808185FFEDCFCE010E94D50917
:10150000E9CFDF91CF910895FF920F931F93CF936F
:10151000DF938C01C62FF42ED0E0FC1638F06C2F30
:10152000C8010E944B09D80FCF5FF7CF8D2F8F7066
:10153000DF91CF911F910F91FF900895AF92BF92CD
:10154000CF92DF92EF92FF920F931F93CF93DF938F
:101550008C01EB018A898D3008F4ADC08E3108F022
:10156000ACC085E08AAB6B8970E090E080E00E94BF
:10157000222820E030E040E251E40E9478276BAB63
:101580007CAB8DAB9EAB4FE060E0C8010E94840A4B
:10159000A82EBA8C81E0AB1080E088AF4FE160E10B
:1015A000C8010E94840AC82EDB8C81E0CD1080E047
:1015B00089AF48E260E2C8010E94840AE82EFC8CF0
:1015C00081E0EF1080E08AAF4FE26CE2C8010E9438
:1015D000840A91E02D8D281390E09BAF4DE360E3EA
:1015E000C8010E94840A91E02E8D281390E09CAFE0
:1015F0001EAE1DAE8C89882321F081E090E09EAF65
:101600008DAFAB1429F08DAD9EAD82609EAF8DAFD6
:10161000CD1429F08DAD9EAD84609EAF8DAFEF14DB
:1016200029F08DAD9EAD88609EAF8DAFF8018081B1
:10163000853A29F48DAD9EAD80619EAF8DAFF801E6
:101640008181982F9F7E963239F0813329F08DADBC
:101650009EAD80629EAF8DAF62E2C8010E944B09D1
:10166000882329F08DAD9EAD80649EAF8DAFF801CB
:101670008289811105C08DAD9EAD80689EAF8DAF12
:10168000F8018389811105C08DAD9EAD91609EAF3B
:101690008DAF81E02DAD3EAD232B09F480E08FAB03
:1016A000DF91CF911F910F91FF90EF90DF90CF903E
:1016B000BF90AF90089584E055CF8AE053CF0F9349
:1016C0001F93CF93DF938C01D42F0E944B09C82F17
:1016D0006D2FC8010E944B0990E1C99FE0011124C0
:1016E0008C2BDF91CF911F910F910895CF92DF92B4
:1016F000EF92FF920F931F93CF93DF93EC018B0137
:1017000047E166E10E945F0BF801808341E260E2FD
:10171000CE010E945F0BF801818368E2CE010E9436
:101720004B09F801828341E360E3CE010E945F0B25
:10173000F801838343E362E3CE010E945F0BF8016B
:1017400084836CE2CE010E944B0982FB882780F9DA
:10175000F801878364E3CE010E944B09D82E65E32C
:10176000CE010E944B09C82E66E3CE010E944B09B0
:10177000F0E18F9F70011124FC2867E3CE010E94E5
:101780004B092D2D30E0322F22273295307F222732
:101790003071E82A2E293F29F8013683258369E232
:1017A000CE010E944B09F80180876AE2CE010E94B7
:1017B0004B09F80181876BE2CE010E944B09F801C9
:1017C00082876EE3CE010E944B09F80183876FE3A5
:1017D000CE010E944B09F8018487DF91CF911F91C0
:1017E0000F91FF90EF90DF90CF9008954F70E62F0C
:1017F000E695E80FF92FF11D908160FD04C0907F00
:10180000942B908308959F7080E1489FA00111243C
:10181000F7CF60E088E00C947D08CF92DF92EF92E2
:10182000FF920F931F93CF93DF93CDB7DEB7299726
:101830000FB6F894DEBF0FBECDBF282F8091AC034A
:101840009091AD03892B09F449C0872F90E0B0E057
:10185000A0E0BA2FA92F982F8827A62B822BAD01A5
:1018600066277727C92EDA2EEB2EFF241C2D382F62
:101870002091B203222391F0022F10E0049FF00187
:10188000059FF00D149FF00D11244F2F2C9D60012A
:1018900011241D2D289FC0011124392FE091B80378
:1018A0008091B3039091B4032091B503E21721F026
:1018B000E80FF92FF11D1082E091B503E80FF92F21
:1018C000F11D4083E091B603E80FF92FF11D10835D
:1018D0002091B703820F911DFC0130838091B303E7
:1018E0009091B403892B09F47CC00E94E708009111
:1018F000B9031091BA032091BB033091BC03601768
:1019000071078207930740F46093B9037093BA0399
:101910008093BB039093BC030091B9031091BA0369
:101920002091BB033091BC03601B710B820B930BA6
:101930006C32714081059105C0F2F8948091AE033C
:101940009091AF039A838983E091B303F091B4033C
:10195000DF011196808189879091AA03E091BD03F0
:10196000F091BE038091BF03992309F449C090818F
:10197000982B98879081809589238F838F818C8382
:1019800088E08B8358856F8149853B812C818981D3
:101990009A81508347FD252F3A952083262F39F0D1
:1019A000441F00C000006083000000C0F2CF38E098
:1019B0004D9160830000019761F7F093BE03E093BF
:1019C000BD0349873B832C839A83898378940E9443
:1019D000E7086093B9037093BA038093BB039093B5
:1019E000BC0329960FB6F894DEBF0FBECDBFDF91C2
:1019F000CF911F910F91FF90EF90DF90CF900895BE
:101A00009081982B98879081809589238F838F81EF
:101A10008E8388E08D8358856F8149853D812E8135
:101A200089819A81508347FD252F00C000C0208303
:101A300000C000C000C000C000C060830000262FAE
:101A40003A9541F0441F000000C000C000C000C033
:101A500000C0E8CF38E04D9100C0608300C001971E
:101A600009F7F093BE03E093BD0349873D832E83BE
:101A7000ABCF60910A0170910B0180910C010C9425
:101A80000D0C6091070170910801809109010C947F
:101A90000D0CCF92DF92EF92FF926B017C0185EFEC
:101AA000C81681E0D806E104F10468F064EF71E043
:101AB00080E090E00E940C0984EFC81A81E0D80A07
:101AC000E108F108ECCFC701B601FF90EF90DF907D
:101AD000CF900C940C0961E088E00E947D0866E9D3
:101AE00070E080E090E00C94490D8F929F92BF923D
:101AF000CF92DF92EF92FF920F931F93CF93DF93DA
:101B0000F82EC62FD42EC52EB22E81110E946B0D39
:101B10000E945C07811111C0F1100E94090C81E044
:101B200090E0DF91CF911F910F91FF90EF90DF90A8
:101B3000CF90BF909F908F9008958C2F0E94D007D8
:101B4000C33389F4E801085F1F4F23E6822E9924EE
:101B50009394C4010197F1F70E9495078993C017E8
:101B6000D107B9F78E019D2CCD2DDC2D93E6C92E22
:101B7000DD24D394C6010197F1F789910E94D00723
:101B80008C2F89198B15B0F38BE891E00197F1F751
:101B9000E8010E0D111D83E6C82EDD24D394C01775
:101BA000D10739F0C6010197F1F70E949507899393
:101BB000F6CFF1100E94090C90E080E0B2CFEF92D6
:101BC0000F931F93CF93DF93CDB7DEB728970FB650
:101BD000F894DEBF0FBECDBF262F8E010F5F1F4FC3
:101BE00038E0F80111923A95E9F7E12CAC0163E392
:101BF00081E00E94750D28960FB6F894DEBF0FBEE7
:101C0000CDBFDF91CF911F910F91EF900895EF928B
:101C10000F931F93E22E8A01262FAC016CEC81E01A
:101C20000E94750D1F910F91EF9008950F931F93D0
:101C3000CF938B01C42F242FAB0164E00E94070EC9
:101C4000892B41F4F801EC0FF11D319781E090816F
:101C5000963009F080E0CF911F910F910895CF93B6
:101C6000DF93D82FC92F20E2482F592F62E083E15C
:101C700091E00E94070E892BB1F4ED2FFC2FAF01EC
:101C8000405E5F4F8FEF90E02191922B8223E4170B
:101C9000F507D1F7992339F08F3F41F081E090E0CB
:101CA000DF91CF91089590E080E0FACF8FEF9FEF22
:101CB000F7CF0E94090C10920C0364E670E080E0FC
:101CC00090E00E94490D0C946B0DBF92CF92DF9271
:101CD000EF92FF920F931F93CF93DF93EC01B62EF9
:101CE0006A01F22E61E088E00E947D08209729F0C9
:101CF000BE0190E080E00E94490D0E945C078111C6
:101D00000FC060E088E00E947D0880E0DF91CF9105
:101D10001F910F91FF90EF90DF90CF90BF900895AB
:101D20008BE896E00197F1F7BB2039F08CEC0E942C
:101D3000D00783E691E00197F1F7F60180810E94D8
:101D4000D007C3E6D1E0CE010197F1F7F1E0FF162D
:101D500031F0F60181810E94D0072197F1F7E80167
:101D6000E00EF12EF11C03E611E0EC16FD0639F051
:101D70000E9495078993C8010197F1F7F6CF60E0BB
:101D800088E00E947D0881E0C1CFEF920F931F93FE
:101D9000E22E8A01262FAC0161E084EA91E00E94E4
:101DA000650E1F910F91EF900895CF93DF931F92CF
:101DB000CDB7DEB78091F302882391F0198221E03C
:101DC000AE014F5F5F4F63E080E191E00E94070E3C
:101DD0001092F3026EE170E080E090E00E94490D05
:101DE0000F90DF91CF9108950F931F93CF93DF93BF
:101DF0001F92CDB7DEB7198221E0AE014F5F5F4F72
:101E000063E08DE091E00E94070E8C01892B49F47C
:101E100081E08093F3026EE170E080E090E00E9448
:101E2000490DC8010F90DF91CF911F910F91089537
:101E3000CF92DF92EF92FF921F93CF93DF93CDB7B4
:101E4000DEB7A2970FB6F894DEBF0FBECDBFFC0180
:101E50008381843628F485E0442349F08FEF07C05E
:101E6000FB0181898E3189F486E04111F7CFA2967A
:101E70000FB6F894DEBF0FBECDBFDF91CF911F919B
:101E8000FF90EF90DF90CF900895142FAE014E5E3B
:101E90005F4F81E1FA0111928A95E9F721E162E051
:101EA0008BE191E00E94070E892B29F48AA18630EC
:101EB00011F480E0DCCF0E94F40E9E012F5F3F4FB3
:101EC0007901892BC1F481E1F90111928A95E9F731
:101ED00021E1A70162E089E191E00E94070E6C0117
:101EE0000E94D50E0E94590ECD2829F4898986308A
:101EF00011F482E0BCCF19821A821B8223E0A70171
:101F000064E085E191E00E94070E892B19F48B8132
:101F1000863019F0812F8195AACF83E0A8CFCF9387
:101F200061E088E00E947D0866E970E080E090E072
:101F30000E94490D0E945C07C82F60E088E00E9463
:101F40007D0881E0C13009F080E0CF910895CF9203
:101F5000DF92EF92CF936B01E82E1092F402C3E070
:101F60008E2DB6010E940D0C68EC70E080E090E0D0
:101F70000E94490D0E94410D64E670E080E090E00F
:101F80000E94490DC15061F78E2DB601CF91EF909F
:101F9000DF90CF900C940D0C882339F09EEF980FB2
:101FA00081E0923018F080E0089581E00895FC010E
:101FB00001900020E9F73197AF01481B590BBC0194
:101FC0008DE093E00C9457098DE791E00C94D70FC6
:101FD000CF93DF930E94440AEC010E94E40F8C0F20
:101FE0009D1FDF91CF91089588E690E00C94E80F53
:101FF0008F929F92AF92BF920F931F93CF93DF93D5
:10200000CDB7DEB7A1970FB6F894DEBF0FBECDBF38
:1020100019A2423008F44AE08E010F5D1F4F842E52
:10202000912CB12CA12CA50194010E94DE26E62F53
:10203000B901CA01EA30F4F4E05DD801EE938D01F4
:10204000232B242B252B79F790E080E0109719F0B3
:10205000CD010E94D70FA1960FB6F894DEBF0FBE38
:10206000CDBFDF91CF911F910F91BF90AF909F9007
:102070008F900895E95CE1CFCF93DF93682F70E0F4
:1020800090E080E04AE00E94F80FEC010E94E40F2B
:102090008C0F9D1FDF91CF910895CF92DF92EF9229
:1020A000FF92CF93DF936C01092E000CEE08FF081E
:1020B00097FF1BC08DE20E945F0AEC01662777271D
:1020C000CB016C197D098E099F094AE00E94F80F27
:1020D000C80FD91F0E94E40F8C0F9D1FDF91CF9175
:1020E000FF90EF90DF90CF9008954AE0C701B601CE
:1020F0000E94F80FEC01EECFCF92DF92EF92FF92A9
:10210000CF93DF93EC018FE091E00E94440A0E949C
:102110003F096B017C010E943F096C197D098E0902
:102120009F09603177428105910558F5CE010E94E3
:102130002F0E0197F9F40E943F099B01AC012C1965
:102140003D094E095F0969017A018CE091E00E9426
:10215000440A4AE0C701B6010E94F80F87E091E007
:102160000E94E80F81E0DF91CF91FF90EF90DF9028
:10217000CF90089585E091E00E94440A0E94590E94
:10218000CACF8AEF90E00E94440A4AE060E177E219
:1021900080E090E00E94F80F85EF90E00E94E80F49
:1021A00080E0E1CFCF92DF92EF92FF928BED90E053
:1021B0000E94440A0E943F096B017C010E943F0972
:1021C0006C197D098E099F0960317742810591055F
:1021D00040F50E94590E0E945C078130E9F40E948C
:1021E0003F099B01AC012C193D094E095F096901AA
:1021F0007A0185ED90E00E94440A4AE0C701B601E9
:102200000E94F80F80ED90E00E94E80F81E0FF90BF
:10221000EF90DF90CF9008958EEC90E00E94440AFA
:10222000CDCF83EC90E00E94440A4AE060E177E27F
:1022300080E090E00E94F80F8EEB90E00E94E80FA3
:1022400080E0E5CF8F929F92AF92BF92CF92DF92C4
:10225000EF92FF920F931F93CF937C010E943F094F
:102260004B015C01C0E00E943F09681979098A09A5
:102270009B096031774281059105C0F5C7010E9435
:102280002F0E8C01892B21F1CC23A9F00E943F094C
:102290006B017C01C818D908EA08FB0889ED91E0B8
:1022A0000E94440A4AE0C701B6010E94F80F84ED7B
:1022B00091E00E94E80FC801CF911F910F91FF900C
:1022C000EF90DF90CF90BF90AF909F908F90089548
:1022D000C11104C08AEC91E00E94440A88EC91E0AC
:1022E0000E94440A0E94590EC1E0BDCFC1110E9454
:1022F000E40F0E94D21010E000E08823E1F2C70151
:10230000CF911F910F91FF90EF90DF90CF90BF90F2
:10231000AF909F908F900C942F0E0F931F93CF939D
:10232000DF93D82FC92FCB01009711F48CEA90E0EE
:102330000E94440A0D2F1C2FC0E0DBE0F8018191C0
:102340008F01803118F480E30E945F0AF801319711
:10235000608170E090E080E040E10E94F80FCF31B2
:1023600019F080E20E945F0ACF5FC03231F4DF9142
:10237000CF911F910F910C94E40F8C2F6D2F0E9421
:10238000BE269111DBCF0E94E40F8AE990E00E9403
:10239000440AD4CFCF93DF93D0E0C0E0009719F088
:1023A0000E94D70FEC010E94E40F8C0F9D1FDF915C
:1023B000CF9108954F925F926F927F928F929F92EA
:1023C000AF92BF92CF92DF92EF92FF920F931F9343
:1023D000CF936B017C01742EAC019B010E944429B8
:1023E000882399F080E891E0CF911F910F91FF90A1
:1023F000EF90DF90CF90BF90AF909F908F907F90A5
:102400006F905F904F900C94D70F46015701E8945E
:10241000B7F82FEF3FEF4FE75FE7C501B4010E9428
:10242000442981110DC02FEF3FEF4FE75FE7C50152
:10243000B4010E94732718161CF484E891E0D4CFED
:102440002FEF3FEF4FE75FE4C701B6010E94D228AC
:1024500018161CF488E891E0C7CF2FEF3FEF4FE745
:102460005FECC701B6010E94732787FDF3CF20E020
:1024700030E0A901C701B6010E94732710E000E017
:1024800087FF08C08DE20E945F0A8C01F7FAF09482
:10249000F7F8F094C0E060E070E080E09FE37C1625
:1024A00041F020E030E040E251E40E947827CF5F25
:1024B000F6CFA70196010E9407272B013C010E943D
:1024C000F1274B015C014AE00E94F80F7C01E00E0D
:1024D000F11ECC23B1F1C501B4010E9420289B015B
:1024E000AC01C301B2010E9406274B015C018EE2E0
:1024F0000E945F0AE80EF91EC15018F120E030E09A
:1025000040E251E4C501B4010E94D7282B013C01EF
:102510000E94F1274B01B12CA12C4AE0C501B40166
:102520000E94F80FE80EF91EC501B4010E94202890
:102530009B01AC01C301B2010E9406274B015C0163
:10254000DBCFC701CF911F910F91FF90EF90DF90EC
:10255000CF90BF90AF909F908F907F906F905F9043
:102560004F900895CF93DF9343E00E94DA11EC017E
:102570000E94E40F8C0F9D1FDF91CF9108958F92E1
:102580009F92AF92BF92CF92DF92EF92FF920F9302
:102590001F93CF93DF93CDB7DEB7A8970FB6F8940C
:1025A000DEBF0FBECDBF4B015A01F22E9E012F5F41
:1025B0003F4F690128E2F60111922A95E9F7EF2CC5
:1025C000860122E0AC0163E381E00E94750D8C017D
:1025D000892B79F488E0F601D40101900D928A9557
:1025E000E1F74F2D50E0BE01675F7F4FC5010E94AC
:1025F0006E2AC801A8960FB6F894DEBF0FBECDBFF5
:10260000DF91CF911F910F91FF90EF90DF90CF90CE
:10261000BF90AF909F908F9008950F931F93CF938B
:10262000DF93CDB7DEB7A0970FB6F894DEBF0FBE2D
:10263000CDBF8C01AE014F5F5F4F80E2FA01119276
:102640008A95E9F720E2B80183E191E00E94BF1288
:10265000892B89F088E0F80111928A95E9F780E0EA
:10266000A0960FB6F894DEBF0FBECDBFDF91CF911D
:102670001F910F91089581E0F3CFEF92FF920F9396
:102680001F93CF93DF93CDB7DEB7A2970FB6F89421
:10269000DEBF0FBECDBF7C018B010E94F40E892BE3
:1026A000C9F0C8010E94440A89EA91E00E94E80F3B
:1026B0000E94D210882309F464C00E94F40E892B72
:1026C00049F0C8010E94440A89E191E00E94E80FA4
:1026D00080E057C080910C03882349F08CE791E09B
:1026E0000E94E80F0E94D50E0E94590EF1CF8E0174
:1026F0000F5F1F4F80E2F80111928A95E9F720E2FF
:10270000A80162E08CE291E00E94070E892B19F08B
:1027100088E691E0E5CF81E080930C036EE170E004
:1027200080E090E00E94490D8FE089831A8280E268
:10273000F701DE01139601900D928A95E1F762E2AE
:10274000C8010E94DF0D892B19F082E591E0C8CF06
:102750006EE170E080E090E00E94490D62E08DE162
:1027600091E00E94DF0D892B19F08CE391E0B8CF46
:102770006EE170E080E090E00E94490D0E94D50E6D
:1027800081E0A2960FB6F894DEBF0FBECDBFDF91F9
:10279000CF911F910F91FF90EF9008951F920F928C
:1027A0000FB60F9211242F933F938F939F93AF9364
:1027B000BF938091040390910503A0910603B0910B
:1027C00007033091030323E0230F2D3758F50196BB
:1027D000A11DB11D2093030380930403909305036F
:1027E000A0930603B0930703809108039091090317
:1027F000A0910A03B0910B030196A11DB11D809316
:10280000080390930903A0930A03B0930B03BF91AD
:10281000AF919F918F913F912F910F900FBE0F908D
:102820001F90189526E8230F0296A11DB11DD2CF47
:102830001F920F920FB60F9211242F933F934F9335
:102840005F936F937F938F939F93AF93BF93EF9318
:10285000FF938DE093E00E94D509FF91EF91BF9126
:10286000AF919F918F917F916F915F914F913F9128
:102870002F910F900FBE0F901F9018951F920F92DF
:102880000FB60F9211242F938F939F93EF93FF9383
:10289000E0911D03F0911E038081E0912303F091EC
:1028A000240382FD1BC09081809126038F5F8F736C
:1028B00020912703821741F0E0912603F0E0E35FC7
:1028C000FC4F958F80932603FF91EF919F918F91FD
:1028D0002F910F900FBE0F901F9018958081F4CF0D
:1028E0001092100310920F0388EE93E0A0E0B0E086
:1028F0008093110390931203A0931303B0931403D6
:102900008FE691E090930E0380930D0385EC90E0A9
:1029100090931A038093190384EC90E090931C0326
:1029200080931B0380EC90E090931E0380931D0323
:1029300081EC90E09093200380931F0382EC90E061
:10294000909322038093210386EC90E090932403DC
:1029500080932303109226031092270310922803DA
:102960001092290360E086E00E94AB08E1E5FEE0FA
:10297000E491E093C003EDE3FEE0E491F0E0EE0FBC
:10298000FF1FE35DF14F859194919093C203809373
:10299000C1031092CB031092CD031092CC0310927E
:1029A000CA031092C9031092C8031092C703109271
:1029B000C6031092C5031092C4031092C303109271
:1029C000AB031092B2031092B9031092BA031092A3
:1029D000BB031092BC0381E08093B8038093B503DE
:1029E0001092B60392E09093B7038093AA0383E01A
:1029F00090E09093AF038093AE030E944929909397
:102A0000B4038093B303009789F123E0FC01119292
:102A10002A95E9F781E090E09093AD038093AC03B1
:102A200080E190E09093B1038093B0038091AB0379
:102A3000882341F061E080E10E94AB0860E080E122
:102A40000E947D08E7E4FEE0E491F0E0EE0FFF1F56
:102A5000ED5DF14F859194919093BE038093BD03FA
:102A6000EBE5FEE0E491E093BF0308951092AF031D
:102A70001092AE031092AD031092AC03D1CFCF935E
:102A8000DF93CDB7DEB7C153D1400FB6F894DEBFA8
:102A90000FBECDBF789484B5826084BD84B581605B
:102AA00084BD85B5826085BD85B5816085BD809119
:102AB0006E00816080936E00109281008091810091
:102AC0008260809381008091810081608093810089
:102AD000809180008160809380008091B10084604B
:102AE0008093B1008091B00081608093B0008091AC
:102AF0007A00846080937A0080917A00826080936B
:102B00007A0080917A00816080937A0080917A00C7
:102B1000806880937A001092C100E0911D03F091CB
:102B20001E0382E08083E0911903F0911A03108262
:102B3000E0911B03F0911C0380E180831092250338
:102B4000E0912103F091220386E08083E0911F034E
:102B5000F0912003808180618083E0911F03F091D8
:102B60002003808188608083E0911F03F09120031F
:102B7000808180688083E0911F03F0912003808131
:102B80008F7D808361E088E00E94AB0860E088E090
:102B90000E947D0861E080E00E94AB0860E080E078
:102BA0000E947D0862E081E00E94AB086EEE72E058
:102BB00080E090E00E940C098091B0039091B103F5
:102BC00097FD2EC061E00E94AB0860E08091B003E9
:102BD0000E947D0881E08093AB036091B203613570
:102BE00041F12091B3033091B4036150E1F070E002
:102BF0008FEF90E50E94CA26F9014091AE035091F3
:102C0000AF03CF01821B930B8417950778F44081A3
:102C1000469FC001479F900D112490833196EDCFC0
:102C20001092AB03DACF70E060E0E6CF81E58093ED
:102C3000B2030E94410D0E94F40F8FE093E00E94C6
:102C4000440A89E093E00E94E80F0E945908892B0A
:102C500009F048C186ED92E00E94E80F81EA92E017
:102C60000E94E80F82E792E00E94E80F01E010E086
:102C70000E94F40F8FED91E00E94E80F1092FB028A
:102C80001092FA02109302030093010320911F0196
:102C90003091200140912101C15EDE4F28833983AC
:102CA0004A83CF51D1408091650190916601A091F6
:102CB0006701CB5DDE4F88839983AA83C552D140DB
:102CC000209160013091610140916201C85DDE4F49
:102CD000288339834A83C852D140AE0149585F4F97
:102CE0001A0150916801CE5DDE4F5883C252D14027
:102CF00080916901CD5DDE4F8883C352D1409091B0
:102D00006A01CC5DDE4F9883C452D140C15DDE4F75
:102D10005883CF52D140C05DDE4F8883C053D1402D
:102D2000CF5CDE4F9883C153D140D1015496C55D2D
:102D3000DE4FB983A883CB52D140FE01E05CFF4F48
:102D4000CD5EDE4FF983E883C351D1409E01295502
:102D50003F4FCB5EDE4F39832883C551D140AE0152
:102D6000495F5E4FC95EDE4F59834883C751D140EA
:102D7000CF010796C35DDE4F99838883CD52D14042
:102D80000E943F096B017C01009101031091020335
:102D90008091FD029091FE02A091FF02B09100038C
:102DA000A7019601281B390B4A0B5B0BDA01C901FD
:102DB000C297A105B105D8F08090FA029090FB026D
:102DC000C092FD02D092FE02E092FF02F092000358
:102DD0000E94590877247394892B09F0712CA72C31
:102DE000B12C0A151B0509F08CC01092FC020115CC
:102DF0001105F1F4A090FA02B090FB028DE093E08F
:102E00000E94B509892BA1F08DE093E00E949309FF
:102E10008F7D833569F4AA94AB2851F08CE49DE052
:102E20000E94E80F81E090E09093FB028093FA0209
:102E30008091F6029091F702A091F802B091F90208
:102E4000A7019601281B390B4A0B5B0BDA01C9015C
:102E5000883C9105A105B10540F1A090FA02B0901F
:102E6000FB02C092F602D092F702E092F802F092D2
:102E7000F9020E948F0FA114B10409F074C08823D5
:102E800009F471C00E94F40F8FE19DE0013011053B
:102E900011F08BEF9CE00E94E80F0E94F40F81E09C
:102EA00090E09093FB028093FA028091FA02909155
:102EB000FB02009709F077C081E0012B09F080E068
:102EC0008093000181E08093F40280E090E0892B00
:102ED00009F456CF0E94C109882309F42ECF0E941D
:102EE00000002BCF8CE492E00E94E80F8BE192E08F
:102EF0000E94E80F86EF91E00E94E80F10E000E0EA
:102F0000B7CE8091FC028F5F843018F48093FC026E
:102F10006ECF1092FC02B0920203A0920103C40192
:102F20000297029710F08928A9F40E94410D10928F
:102F3000FB021092FA020E94F40F31E073120CC0EF
:102F400083EE9DE00E94E80F84EB9DE00E94E80F75
:102F50000E94F40F85014BCF8FE89DE00E94E80F9F
:102F600085E69DE0F3CF32E0A31AB10842E0A41653
:102F7000B10408F09ACF811198CF0E94F40F8DEC24
:102F80009CE00130110511F08FEA9CE00E94E80FEF
:102F90000E94F40F0E94410D1092FB021092FA025F
:102FA0001092F50282CF1092F402019709F08DCFB2
:102FB0008091F3020130110509F00AC181110E94CC
:102FC000D50E0E94590EC15EDE4F688179818A81DB
:102FD000CF51D1400E940D0C88E0CB5EDE4FA8811E
:102FE000B981C551D1401D928A95E9F7CE01895525
:102FF0009F4F0E940D13182F80E2F10111928A95C4
:10300000E9F7C1010E94221181309105D9F00196A2
:1030100039F482E594E00E94E80F0E94390D0CC05B
:1030200082E394E00E94E80F609168017091690169
:1030300080916A010E94A70F0E94090C512C83E025
:1030400090E04DC0111104C08CE094E00E94E80FA4
:1030500041E0B101CE0189559F4F0E94180F182FF2
:103060008CEF93E00E94440A17FF03C08CED93E0BD
:10307000D2CF812F110F990B0E944D10D101519683
:103080008C918F70B9F184EA93E00E94E80F60910F
:1030900068017091690180916A010E94A70F0E94E6
:1030A000090C5524539419C0882379F10E94F40F18
:1030B000552009F46FC08DE293E00E94E80F0E9452
:1030C000F40FE5E6F1E06081718182810E94A70F33
:1030D0000E94090C552009F4B2CF82E090E0909351
:1030E000FB028093FA025110F0CE8FE89CE00E9420
:1030F000E80FEBCE11E004ED60906001709061018B
:1031000080906201FE0131967F0182E993E00E9486
:10311000440A812F0E943C1080E2F101DE01A05C94
:10312000BF4F01900D928A95E1F762960FAF6297BB
:1031300048E260E2CE01805C9F4F0E94840A482FE3
:103140006BE2CE01805C9F4F0E94F60B882DB3018D
:103150000E940D0C68E873E0CE01805C9F4F0E94D6
:103160003D13582E811103C00E94090C68CF0E94A4
:10317000590E80E2D7011D928A95E9F7C7010E9496
:103180007C10582E811110C082E793E00E94E80F56
:103190000E94F40F8CE193E00E94E80F0E94F40F6C
:1031A000512CE8E6F1E08FCF8CE593E00E94440AD1
:1031B0008A898F700E943C108A898F701F5F173038
:1031C00009F072CF55245394811170CF512C6ECFDA
:1031D00081110E94D50E0E94590EC15EDE4F68819A
:1031E00079818A81CF51D1400E940D0CFE01319628
:1031F000C15FDE4FF983E883CF50D1408FE3119256
:103200008A95E9F780E090ECA9E7B4EC8FA798AB3A
:10321000A9ABBAAB8BA79CA7ADA7BEA78FEF8A8B34
:103220009E0129513F4FCF5EDE4F39832883C15124
:10323000D14080E2D9011D928A95E9F7C9010E9427
:103240002211009749F488E59CE00E94E80F0E9453
:10325000090C10920C03F2CE0196E9F40E94F40FCF
:103260008DE29CE00E94E80F85EF9BE00E94E80F52
:103270008EEC9BE00E94E80F0E94F40F60916801C1
:103280007091690180916A010E94A70F0E94090C48
:1032900010920C0306CFBE016D5E7F4FCE018951A7
:1032A0009F4F0E94760BBE016F5F7F4FCE01895109
:1032B0009F4F0E949E0ACE0109960E940D13898B92
:1032C000811104C08AE794E00E94E80F40E0BE014B
:1032D00069517F4FCE0109960E94180F8A8B853065
:1032E00009F0C1C0F1011082E12C810121E043E22B
:1032F00051E061E090E080E00E94650E81116FC0B6
:103300006CE871E0CE0101960E94772A0E94F40FCA
:103310008CEB9BE00E94440ACE0101960E94CA11E8
:1033200087E3CD5EDE4FA881B981C351D1401D92A4
:103330008A95E9F78A89853009F4C4C0BBA886302C
:1033400009F42EC28BE1D1011D928A95E9F70B2D6C
:10335000063008F005E02BE1A10164E084E391E090
:103360000E94070E892B09F0BDC2F10160817181B5
:103370006115710509F4B6C290E080E00E94202832
:1033800020E030E04AE754E40E9478274B015C01DA
:1033900071019E01205C3F4F690110E0B2E0EB0E2D
:1033A000F11CE4E0CE0ED11C011709F4C1C2D70113
:1033B00011966C9111978C91762F682F90E080E098
:1033C0000E94202820E030E04AE754E40E94782759
:1033D000F60160837183828393831F5FDFCF6AE08E
:1033E00070E080E090E00E94490D22961FAE1EAE74
:1033F000229742E0E42E8E01005C1F4F21E042E262
:1034000051E060E090E080E00E94650E882309F4BE
:1034100077CF21969FAD219722968FAD22979F3F20
:10342000E1F48F3F09F46CCF1F929F931F928F930B
:1034300083E991E09F938F931F9288E08F9321E01F
:1034400030E02C0F3D1F3F932F930E947E2A0FB632
:10345000F894DEBF0FBECDBF59CF9111E5CF8823C1
:1034600009F44ECFE1CF80E1CD5EDE4FA881B98176
:10347000C351D1401D928A95E9F720E1AE01405C2D
:103480005F4F62E084E291E00E94070E892B11F009
:1034900019823CCFFE01E05CFF4FDE011196819165
:1034A00090EE980F9F3518F01C9218862FCF8D93B1
:1034B000C35DDE4F28813981CD52D1402E173F07A1
:1034C00071F7F3CF6AE070E080E090E00E94490D70
:1034D0001BA9C955DF4F19821882C75AD04020E076
:1034E000AE0149555F4F62E08CE291E00E94C50E4B
:1034F000882309F444C120E0AE0149555F4F62E0E2
:103500008CE291E00E94C50E22E0AE0149555F4F6A
:1035100061E087E291E00E94C50E163008F015E0E8
:10352000FE01E05CFF4F6F01F12CE12C00E0812CEB
:10353000912C5401E116C0F5D10111961C921197FE
:103540001C9222E0A10161E0C701895D9E4F0E94AB
:10355000C50E882311F1F10160817181CB010197C2
:103560008E3F9F4FD0F490E080E00E94202820E022
:1035700030E04AE754E40E9478279B01AC01D60171
:1035800014962D933D934D935C931797C501B40109
:103590000E9407274B015C0101E0BFEFEB1AFB0A19
:1035A000E4E0CE0ED11CC6CF0170C75EDE4F0883AB
:1035B000C951D140D10111961C9211971C9222E061
:1035C000A10161E086E291E00E94C50E882309F422
:1035D000CEC0F10160817181CB0101978E3F9F4F79
:1035E00008F0C5C090E080E00E94202820E030E094
:1035F00048EC52E40E9478272B013C0160E070EC1B
:1036000089E794EC4BA65CA66DA67EA66FA778AB67
:1036100089AB9AAB8A898630D1F50E946B0D0E94E6
:103620005C07F82E00E0882371F083E691E00197B3
:10363000F1F782ED0E94D0078BE891E00197F1F756
:103640000E949507082F0E94090C60E070EC89E742
:1036500094ECFF20C1F0602F70E090E080E00E94C9
:10366000222820E030E040E252EC0E94D72820E0FF
:103670003CEA41E156E40E94072720E030E048ECB4
:1036800052E40E9478276BA77CA78DA79EA7FE0116
:10369000B0968BE0DF011D928A95E9F7FA888BEFEF
:1036A0008F0D823008F0CEC12F892E3108F4C7C1AA
:1036B0002D51330BE88CF98C4E8983E290E0841B0A
:1036C000910997FF02C090E080E0820F931F8E9DCA
:1036D000B0018F9D700D9E9D700D112490E080E0D3
:1036E0000E94202820E030E040E05DE30E94D728DF
:1036F0002B013C01B70190E080E00E9420289B0153
:10370000AC01C301B2010E9407276B017C018C89C7
:103710008A3141F08C3131F0883221F068E572E075
:10372000823311F468EE73E090E080E00E9420287C
:103730009B01AC01C701B6010E9478279B01AC0137
:1037400060E070E080E890E40E9406276B017C0155
:1037500020E030E0A9010E94732787FF03C0C12C3D
:10376000D12C7601C8A2D9A2EAA2FBA232C2412C76
:1037700030EC532E39E7632E34EC732E3FCF412CBF
:1037800020EC522E29E7622E24EC722EC75EDE4F0B
:103790001882C951D14010E0812C912C54012ECFB8
:1037A000C955DF4F1882C75AD04084E1D1011D921C
:1037B0008A95E9F70E946B0DE12C8E0109551F4F88
:1037C00022E04EE251E06CEC80E00E94750D6AE070
:1037D00070E080E090E00E94490D0E945C07182F85
:1037E000882309F183E691E00197F1F784ED0E94C7
:1037F000D0078BE891E00197F1F7610193E6E92E9C
:10380000FF24F3940E949507F60181936F01C7018D
:103810000197F1F7C55DDE4F28813981CB52D14048
:103820002E173F0779F70E94090C112309F444C0B1
:103830000B2D0B3008F00AE07101AE01405C5F4FC8
:103840006A0110E0812C912C540154E0C50ED11C6A
:10385000011709F440C0D70111966C9111978C9112
:10386000762F682F90E080E00E94202820E030E052
:1038700040E251E40E9478279B01AC0160E070E8CF
:103880008BEB95E40E94062720E030E04AE754E401
:103890000E9478279B01AC01F6012083318342838B
:1038A0005383C501B4010E9407274B015C011F5FD0
:1038B000F2E0EF0EF11CC9CFC75EDE4F1882C9518E
:1038C000D140812C912C540160E070EC89E794EC9C
:1038D0002B013C0197CE21E0C75EDE4F2883C95102
:1038E000D140F2CF8DE0CB5EDE4FA881B981C551CA
:1038F000D1401D928A95E9F72DE0AE0149555F4F01
:1039000064E080E391E00E94070E892B09F44DC02A
:1039100060E070EC89E794EC2B013C01C75EDE4F60
:103920001882C951D14010E0812C912C54016ACEEB
:10393000D1011E966D917C911F975096ED90FC9051
:10394000CB0101978E3F9F4F18F590E080E00E94D9
:10395000202820E030E048EC52E40E9478272B0138
:103960003C01C70101978E3F9F4FD0F4B70190E013
:1039700080E00E94202820E030E048EC52E40E94E1
:103980007827F1E0C75EDE4FF883C951D1403ACEC7
:10399000412C80EC582E89E7682E84EC782EE1CFFC
:1039A00060E070EC89E794ECECCFCD54DF4F888178
:1039B000C35BD040863009F0ABCFC955DF4F68817B
:1039C0007981C75AD04090E080E00E94202820E012
:1039D00030E04AE754E40E9478274B015C019E01E5
:1039E00029553F4F7901AE01405C5F4F6A0110E0FD
:1039F00052E0E50EF11C84E0C80ED11C0117C1F0A5
:103A0000D70111966C9111978C91762F682F90E0C9
:103A100080E00E94202820E030E04AE754E40E9441
:103A20007827F60160837183828393831F5FE0CFE1
:103A300060E070EC89E794EC2B013C01A2CF30E010
:103A400020E038CE8F2D0E94CC0F882309F42EC1A0
:103A50000C89F101108211821282F2E081E0FF16DE
:103A600021F023E082E0F21280E034E0839FC00185
:103A7000112443E0B101885C9E4F0E94160E70E055
:103A800060E0882319F0D1016D917C910023A1F1B0
:103A900090E080E00E9420286B017C01602F70E0A4
:103AA00090E080E00E9422289B01AC01C701B60192
:103AB0000E9478276B017C0120E030E040EA52E46C
:103AC0000E94D22818160CF492C020E030E040E2A8
:103AD00051E4C701B6010E94782720E030E040EAB7
:103AE00050E40E9406276B017C0120E030E0A90130
:103AF0000E94732787FF03C0C12CD12C7601C8A276
:103B0000D9A2EAA2FBA20A89802F0E94CC0F8111C0
:103B100075C080E08EA38A89823009F489C0833021
:103B200009F4A6C08111BBC088E0F10111928A9509
:103B3000E9F748E0B10188E591E00E94160E88237C
:103B400009F4ADC0D10116962C91B0E12B9FA001D4
:103B50001124407F5370F1019581292F30E0A4E0BA
:103B600035952795AA95E1F7242B352B848190E094
:103B7000982F8827882793704381842B820F931F67
:103B8000408142954695469543702181F4E02F9FF0
:103B900090011124242B820F931F9DA38CA38A894B
:103BA000811180C085E0D1011D928A95E9F745E039
:103BB000B1018CE591E00E94160E882309F472C0D1
:103BC000F10180819181A281B3818FA398A7A9A7D8
:103BD000BAA70E948F0F582E811186C085E99BE0FD
:103BE0000E94E80F0E94090C10920C0328CAC12CF5
:103BF000D12C00E8E02E00E4F02E81CFF1011182FB
:103C0000108281E0023021F082E0033009F080E090
:103C1000F4E08F9FC001112442E0B1018C5B9E4F04
:103C20000E94160E882309F474CFD1018C9172CFB3
:103C300088E0D1011D928A95E9F748E0B10184E559
:103C400091E00E94160E882351F1F10120818281BA
:103C5000422F480F5527551F2381240F352F311D23
:103C60008581280F311D8681820F932F911D95CF5D
:103C700086E0D1011D928A95E9F746E0B10180E521
:103C800091E00E94160E882351F0F101808192810B
:103C9000482F490F5527551F9A018381E5CF90E0A2
:103CA00080E07BCF80E090E0DC018FCFC250DF4F1F
:103CB0006881CE5FD0406F7070E075956795C12CBC
:103CC000D12C50E8E52E50E4F52E633008F44ACDAF
:103CD000673009F444CD62507109072E000C880B3F
:103CE000990B0E9422282ACDC75EDE4FF881C95168
:103CF000D140C45EDE4FF883CC51D140F11104C0F5
:103D00008DE59BE00E94E80F0E94F40F85E199E0A9
:103D10000E94440ACE0101960E94CA1183E099E0F4
:103D20000E94440A8989882309F468C49E01275F98
:103D30003F4F790100E0D7018D917D01803118F46A
:103D400080E30E945F0AF7013197608170E090E0A4
:103D500080E040E10E94F80F073019F080E20E94F5
:103D60005F0A0F5F083039F70E94E40F89851F92C0
:103D70008F938A851F928F938B851F928F938EE9E5
:103D800091E09F938F931F928DE08F933F922F929C
:103D90000E947E2A81EF98E00E94440AC1010E949D
:103DA000CA110FB6F894DEBF0FBECDBF81ED98E00B
:103DB0000E94440A8A89082E000C990B0E944D101B
:103DC0008FEB98E00E94440A6B8970E090E080E0FD
:103DD0004AE00E94F80F8BEB98E00E94440A8B891E
:103DE0008D3008F010C48DEA98E00E94440A89E200
:103DF0000E945F0A0E94E40F8EE798E00E94440A46
:103E00006CA97DA98EA99FA941E00E94DA118AE7D9
:103E100098E00E94E80F0E94F40F88E698E00E9464
:103E2000440A88AD882309F4F6C38FE498E00E9421
:103E3000E80F86E598E00E94440A8A8D882309F4F9
:103E4000EDC38EE198E00E94E80F84E398E00E94C1
:103E5000440A6D8983EE94E06130A1F082EF94E032
:103E6000613080F087ED94E0653061F08CEC94E097
:103E70006F3041F070E090E080E04AE00E94F80F7F
:103E800086EB94E00E94E80F82E298E00E94440AE8
:103E900089AD882309F4C5C386E098E00E94E80F45
:103EA00089E098E00E94440A8AAD882309F4BCC3E3
:103EB0008DEE97E00E94E80F80EF97E00E94440AA1
:103EC0008BAD882309F4B3C384ED97E00E94E80F1B
:103ED00087ED97E00E94440A8CAD882309F4AAC3B9
:103EE0008BEB97E00E94E80F8EEB97E00E94440A6C
:103EF0008DAD882309F4A1C384EB97E00E94E80FFD
:103F0000C951DF4F8881C75ED040853A09F498C314
:103F10008CE997E00E94E80FC851DF4F8881C85EA6
:103F2000D040982F9F7E963219F0813309F09DC3BF
:103F300088E897E00E94E80F62E2CE0189519F4F26
:103F40000E944B098111A7C384E797E00E94E80F04
:103F5000C750DF4F8881C95FD040882309F4B1C3BF
:103F600080E697E00E94E80FC650DF4F8881CA5F65
:103F7000D040882309F4A8C381E297E00E94E80FAB
:103F800088AD882309F49EC08EAD9FAD892B09F4BE
:103F900099C088EC95E00E94E80F8EAD80FF16C0B6
:103FA0008D891F928F9388E492E09F938F931F9245
:103FB00080E38F933F922F920E947E2AC1010E943C
:103FC000CA110FB6F894DEBF0FBECDBF8EAD81FF14
:103FD00004C08DE995E00E94E80F8EAD82FF04C019
:103FE00081E795E00E94E80F8EAD83FF04C085E471
:103FF00095E00E94E80F8EAD84FF1AC0C951DF4FD3
:104000008881C75ED0401F928F938AE692E09F938B
:104010008F931F9280E38F933F922F920E947E2A6C
:10402000C1010E94CA110FB6F894DEBF0FBECDBF0A
:104030008EAD85FF1AC0C851DF4F8881C85ED04061
:104040001F928F9384E992E09F938F931F9280E356
:104050008F933F922F920E947E2AC1010E94CA1123
:104060000FB6F894DEBF0FBECDBF8EAD86FF1BC06E
:1040700062E2CE0189519F4F0E944B091F928F939C
:104080008BEB92E09F938F931F9280E38F933F92ED
:104090002F920E947E2AC1010E94CA110FB6F89485
:1040A000DEBF0FBECDBF8EAD87FF04C08FE195E0B0
:1040B0000E94E80F8EAD9FAD90FF04C089EF94E0A1
:1040C0000E94E80F0E94F40F888D998D892B69F06A
:1040D00084EE96E00E94440A688D798D90E080E03D
:1040E0004AE00E94F80F0E94E40F20E030E0A901AE
:1040F00068A179A18AA19BA10E94D2281816E4F593
:1041000082ED96E00E94440A68A179A18AA19BA150
:1041100042E00E94DA118AEC96E00E94440AC8A0AC
:10412000D9A0EAA0FBA020E030E0A901C701B601B8
:104130000E94D22820E030E040E05FE387FDC7C264
:10414000C701B6010E9407270E94EA277B01D12CF4
:10415000C12C83E2CE14DF040CF08DE20E945F0AD2
:104160003FEFC31AD30A44E0C416D10491F789E2A1
:104170000E945F0A0E94E40F8A890E94CC0F882364
:1041800009F479C08EA18823B1F188EB96E00E94F2
:10419000440A8EA10E943C10888D998D892B59F17B
:1041A00086EA96E00E94440A6EA170E090E080E00A
:1041B0000E94222820E030E048EC52E40E94D728F8
:1041C0006B017C01688D798D90E080E00E94202851
:1041D0009B01AC01C701B6010E94782720E030E0C6
:1041E00040E850E40E94072741E00E94DA1183EA88
:1041F00096E00E94E80F8CA19DA1892BE1F181E955
:1042000096E00E94440A6CA17DA190E080E04AE023
:104210000E94F80F0E94E40F888D998D892B59F127
:104220008FE796E00E94440A6CA17DA190E080E0B7
:104230000E94202820E030E048EC52E40E94D72879
:104240006B017C01688D798D90E080E00E942028D0
:104250009B01AC01C701B6010E94782720E030E045
:1042600040E850E40E94072741E00E94DA118CE701
:1042700096E00E94E80F8A898550823008F040C09D
:104280008E898823E9F08AE696E00E94440A6E89C6
:1042900070E090E080E00E94222820E030E040EAD8
:1042A00050EC0E94D72820E030E040E253E40E9426
:1042B000072741E00E94DA1187E696E00E94E80FA6
:1042C0008F898823E9F085E596E00E94440A6F898A
:1042D00070E090E080E00E94222820E030E040EA98
:1042E00050E40E94D72820E030E040E253E40E94EE
:1042F000062741E00E94DA1182E596E00E94E80F6D
:1043000020E030EC49E754EC6BA57CA58DA59EA57B
:104310000E947327882379F080E496E00E94440A83
:104320006BA57CA58DA59EA541E00E94DA118DE3C9
:1043300096E00E94E80F20E030EC49E754EC6FA5CE
:1043400078A989A99AA90E947327882379F08BE21A
:1043500096E00E94440A6FA578A989A99AA941E02C
:104360000E94DA1188E296E00E94E80F0E94F40FA2
:1043700086E196E00E94440AC501B4010E94B2128F
:10438000C75EDE4F5881C951D140552311F011113C
:10439000A3C182E096E00E94E80F8A890E94CC0FB8
:1043A000882309F450C06FA178A589A59AA5611545
:1043B00071058105910509F446C00C89002309F4B3
:1043C00042C00E9420286B017C01602F70E090E0C9
:1043D00080E00E9422289B01AC01C701B6010E9427
:1043E000782720E030E044E355E40E9478276B0111
:1043F0007C0120E030E040E251E40E94732701E0BC
:1044000087FD10C020E030E040E251E4C701B60172
:104410000E9478270E94EA276830710514F067E04F
:1044200070E0062F0E94F40F8EED95E00E94440A82
:10443000602F70E090E080E04AE00E94F80F89ED84
:1044400095E00E94E80F0E94F40F70E060E0CE015A
:1044500089519F4F0E948D110E94F40FC75EDE4F5D
:10446000F881C951D140FF2309F491C0123008F4FA
:10447000D9C125967FAC25972696AFAC269727966F
:10448000BFAC279728960FAD289740E4842E912C37
:104490008C0E9D1E28E0820E911CC65EDE4F788237
:1044A000CA51D1404A2CC55EDE4FB882CB51D140B3
:1044B000602E31E0C75EDE4F3883C951D140D40150
:1044C000CD90DD90ED90FD904D01272D3A2D4B2D97
:1044D000502FC701B6010E94D228181624F47C2C54
:1044E000AD2CBE2C0F2DC65EDE4F2881CA51D140A7
:1044F000342DC55EDE4F4881CB51D140562DC701CA
:10450000B6010E94732787FF0CC0C65EDE4FC882CB
:10451000CA51D1404D2CC55EDE4FE882CB51D1400F
:104520006F2CC75EDE4FB881C951D140BF5FC75EF7
:10453000DE4FB883C951D140B113C1CFC65EDE4F43
:104540002881CA51D140342DC55EDE4F4881CB5100
:10455000D140562D672D7A2D8B2D902F0E94062746
:104560006B017C012AE939E949E95EE30E94D2281E
:1045700087FD58C184E49BE00E94440A43E0C701E0
:10458000B6010E94DA1188E29BE00E94E80F88AD34
:1045900081114EC18CE09BE00E94E80F60916501A3
:1045A00070916601809167010E94A70F8A890E941D
:1045B000CC0F81110E94590E0E94F40F8EE19BE0F6
:1045C0000E94E80FC45EDE4F2881CC51D140209379
:1045D000F50288ADE5E6F1E0882319F080E5E8E62C
:1045E000F1E091818093F2029093F1021092F00237
:1045F0000E94090C10920C030C946D1883EE98E045
:104600000E94E80FD3CB8E3118F48FE998E0EDCB00
:1046100080E998E0EACB86E498E009CC8BE198E069
:1046200012CC82E098E03ACC89EE97E043CC80ED62
:1046300097E04CCC87EB97E055CC80EB97E05ECCD5
:104640008FEA91E09F938F931F9280E38F933F9225
:104650002F920E947E2AC1010E94CA110F900F90D2
:104660000F900F900F900F9057CC1F928F938BEE5F
:1046700091E09F938F931F9280E38F933F922F92AD
:104680000E947E2AC1010E94CA110FB6F894DEBFB3
:104690000FBECDBF51CC1F928F9381E292E09F93CA
:1046A0008F931F9280E38F933F922F920E947E2AD6
:1046B000C1010E94CA110FB6F894DEBF0FBECDBF74
:1046C00047CC85E397E04ECC86EF96E057CCC70108
:1046D000B6010E94062738CD25967FAC25972696F1
:1046E0008FAC269727969FAC279728960FAD2897D3
:1046F00080E490E08C0F9D1F0496C35EDE4F99838B
:104700008883CD51D140C65EDE4F7882CA51D140F8
:10471000482CC55EDE4F9882CB51D140602EB12C23
:10472000A12CA11608F065C09FEFA91AB90ABF9283
:10473000AF92ACEDB2E0BF93AF931F92F6E1FF935F
:104740003F922F920E947E2AC1010E94D70FC35E22
:10475000DE4FA881B981CD51D140CD90DD90ED9053
:10476000FD90C35EDE4FB983A883CD51D140C70110
:10477000B6010E94B2120FB6F894DEBF0FBECDBFD5
:10478000272D382D492D502FC701B6010E94D22860
:10479000181624F47C2C8D2C9E2C0F2DC65EDE4F1B
:1047A0002881CA51D140342DC55EDE4F4881CB519E
:1047B000D140562DC701B6010E94732787FD0CC05A
:1047C000C65EDE4FC880CA51D140D42CC55EDE4FD4
:1047D000E880CB51D140F62CC65EDE4FC882CA516C
:1047E000D1404D2CC55EDE4FE882CB51D1406F2CBD
:1047F00098CF80EF95E00E94440AC65EDE4F288184
:10480000CA51D140342DC55EDE4F4881CB51D140D5
:10481000562D672D782D892D902F0E9406270E94F6
:10482000B212BBCDC45EDE4F1882CC51D140AFCEA8
:104830008A890E94CC0F811132C08DEE9AE00E94CD
:10484000440ACA880C2C000CDD08EE08FF084AE078
:10485000C701B601F7FE0BC08DE20E945F0A662712
:104860007727CB016C197D098E099F094AE00E94C8
:10487000F80F81EE9AE00E94E80FC15DDE4F68817B
:10488000CF52D140C05DDE4F7881C053D140CF5C64
:10489000DE4F8881C153D1400E94A70F8DCE81ED9C
:1048A0009AE00E94E80F0E94390D8AEB9AE00E947C
:1048B000E80F0E94390D0E94590E0E94F40E8E01DD
:1048C00009531F4F892B09F058C088E0F801119255
:1048D0008A95E9F789E0CB5EDE4FA881B981C551A1
:1048E000D1401D928A95E9F729E0AE0149555F4F05
:1048F000B80183E691E00E94BF120E94D50E0E948B
:10490000590E80E2F10111928A95E9F7C1010E94E6
:104910007C10882391F180E2F101DE01A951BF4FA3
:1049200001900D928A95E1F7BE016D5E7F4FCE0139
:1049300089519F4F0E94760BBE016F5F7F4FCE0162
:1049400089519F4F0E949E0A88AD811112C083EA4F
:104950009AE00E94E80F85EC99E00E94E80FCB5D99
:10496000DE4F688179818A81C552D1400E94A70FAC
:1049700021CE84E79AE00E94E80F812C912C54010B
:10498000839481E59AE00E94440A4AE0C501B4019B
:104990000E94F80F8FE49AE00E94E80FC85DDE4F96
:1049A000688179818A81C852D1400E940D0C80E2D1
:1049B000FE01E951FF4FD80101900D928A95E1F770
:1049C000C951DF4F8881C75ED040803509F06EC085
:1049D000D80151968C915197807F51968C9340E0ED
:1049E00068E2C8010E94F60B4FE060E0C8010E9437
:1049F000840A482F69E2C8010E94F60B4FE160E18A
:104A0000C8010E94840A482F6AE2C8010E94F60B7E
:104A100048E260E2C8010E94840A482F6BE2C801A4
:104A20000E94F60B4FE26CE2C8010E94840A482FF4
:104A30006EE3C8010E94F60B4DE360E3C8010E94DB
:104A4000840A482F6FE3C8010E94F60B6DE979E0F4
:104A5000C8010E948D116AE979E0C8010E943D13E6
:104A60008823C1F00E94590E80E2CB5EDE4FE881C0
:104A7000F981C551D14011928A95E9F7CE01895546
:104A80009F4F0E947C10F82E811189C08DE799E01C
:104A90000E94E80F84EE99E05DC1FFEF8F1A9F0A34
:104AA000AF0ABF0AFF2009F46CCF55CF813F11F048
:104AB000853A61F621EFF801208388E58583168227
:104AC000178280E4828781E2838780E8858782E09D
:104AD0008687168A80ED818B8289811102C08EE8DB
:104AE000828BD80111968C918F7E863249F1C75105
:104AF000DF4F9881C95ED0409D3BE1F181E0963B5C
:104B000009F080E090E0C651DF4F2881CA5ED040B6
:104B1000233199F59F5FC551DF4F2881CB5ED0408F
:104B2000243179F59F5FCD50DF4F2881C35FD0409E
:104B3000203D59F59F5F981760F586E3F801818362
:104B4000D80153968C91882319F0853A09F047CF04
:104B5000C950DF4F8881C75FD040F80191819633FB
:104B6000D1F08A33D0F48033C0F085E4D801539675
:104B70008C9335CF80E091E0C6CF233C61F68F5F08
:104B8000CACF283181F68F5FCECF2130A1F68F5F5B
:104B9000D2CF86E2D3CF8BE1E9CF87E6E7CF4FE0F4
:104BA00060E0CE0189559F4F0E94840A482EC5546B
:104BB000DF4FF881CB5BD040C75EDE4FF883C95131
:104BC000D140DF2ED2949FE0D9224FE160E1CE01A7
:104BD00089559F4F0E94840A682EC454DF4FE88095
:104BE000CC5BD0402E2D2F70722E48E260E2CE01B9
:104BF00089559F4F0E94840AC82EE2942FE0E2223A
:104C00008EE699E00E94440A86E599E04D1411F081
:104C10008DE499E00E94440A80E20E945F0A84E4E5
:104C200099E0671411F08AE399E00E94440A80E257
:104C30000E945F0A81E399E0CE1411F087E299E0C7
:104C40000E94E80F4D1078C0671076C0CE1074C077
:104C5000C75EDE4F8881C951D1408F7009F06CC0AA
:104C60008EE599E00E94E80F0E94590E0E94F40E12
:104C7000892BD1F488E0C95EDE4FA881B981C75184
:104C8000D1401D928A95E9F789E0F10111928A9548
:104C9000E9F729E0A101BE01695F7E4F83E691E05B
:104CA0000E94BF120E94D50E0E94590E80E2E82E8B
:104CB000D101EE2D1D92EA95E9F7C1010E947C1009
:104CC000F101DE01A951BF4F01900D92EA94E1F785
:104CD000BE016D5E7F4FCE0189519F4F0E94760BC2
:104CE000BE016F5F7F4FCE0189519F4F0E949E0A88
:104CF00088AD81112DC088E29AE00E94E80FF6E0AD
:104D00008F169104A104B10409F0C7CEF11023CE8F
:104D10008FEA99E00E94E80FCE5DDE4F6881C252B3
:104D2000D140CD5DDE4F7881C352D140CC5DDE4FA6
:104D30008881C452D140B0CD80E2FE01E955FF4FD9
:104D4000DE01A951BF4F01900D928A95E1F7A2CEE5
:104D50008EEF99E00E94E80FF12CD1CF8091B30340
:104D60009091B4030E94E5298091B0039091B10322
:104D700097FD03C060E00C94AB080895991B79E09F
:104D800004C0991F961708F0961B881F7A95C9F7DB
:104D900080950895AA1BBB1B51E107C0AA1FBB1F2A
:104DA000A617B70710F0A61BB70B881F991F5A95B7
:104DB000A9F780959095BC01CD010895A1E21A2E26
:104DC000AA1BBB1BFD010DC0AA1FBB1FEE1FFF1FAF
:104DD000A217B307E407F50720F0A21BB30BE40BFF
:104DE000F50B661F771F881F991F1A9469F7609546
:104DF0007095809590959B01AC01BD01CF01089500
:104E0000EE0FFF1F0590F491E02D09945058BB2739
:104E1000AA270E941E270C9498280E948A2838F0FE
:104E20000E94912820F039F49F3F19F426F40C9445
:104E300087280EF4E095E7FB0C948128E92F0E9467
:104E4000A92858F3BA17620773078407950720F05B
:104E500079F4A6F50C94CB280EF4E0950B2EBA2F1E
:104E6000A02D0B01B90190010C01CA01A001112470
:104E7000FF27591B99F0593F50F4503E68F11A161C
:104E8000F040A22F232F342F4427585FF3CF4695AD
:104E900037952795A795F0405395C9F77EF41F16CF
:104EA000BA0B620B730B840BBAF09150A1F0FF0F99
:104EB000BB1F661F771F881FC2F70EC0BA0F621F85
:104EC000731F841F48F4879577956795B795F79575
:104ED0009E3F08F0B0CF9395880F08F09927EE0F0A
:104EE0009795879508950E945D2808F481E00895BC
:104EF0000E948C270C9498280E94912858F00E94B8
:104F00008A2840F029F45F3F29F00C948128511140
:104F10000C94CC280C9487280E94A92868F3992324
:104F2000B1F3552391F3951B550BBB27AA276217A5
:104F30007307840738F09F5F5F4F220F331F441FB2
:104F4000AA1FA9F335D00E2E3AF0E0E832D09150E6
:104F50005040E695001CCAF72BD0FE2F29D0660FD3
:104F6000771F881FBB1F261737074807AB07B0E816
:104F700009F0BB0B802DBF01FF2793585F4F3AF01C
:104F80009E3F510578F00C9481280C94CC285F3F0B
:104F9000E4F3983ED4F3869577956795B795F795A2
:104FA0009F5FC9F7880F911D9695879597F908958A
:104FB000E1E0660F771F881FBB1F62177307840726
:104FC000BA0720F0621B730B840BBA0BEE1F88F735
:104FD000E09508950E94F1276894B1110C94CC28B3
:104FE00008950E94B12888F09F5798F0B92F99270B
:104FF000B751B0F0E1F0660F771F881F991F1AF0C4
:10500000BA95C9F714C0B13091F00E94CB28B1E035
:1050100008950C94CB28672F782F8827B85F39F034
:10502000B93FCCF3869577956795B395D9F73EF45C
:1050300090958095709561957F4F8F4F9F4F089504
:10504000E89409C097FB3EF4909580957095619522
:105050007F4F8F4F9F4F9923A9F0F92F96E9BB27D8
:105060009395F695879577956795B795F111F8CF54
:10507000FAF4BB0F11F460FF1BC06F5F7F4F8F4FBF
:105080009F4F16C0882311F096E911C0772321F0B5
:105090009EE8872F762F05C0662371F096E8862F4D
:1050A00070E060E02AF09A95660F771F881FDAF7A4
:1050B000880F9695879597F90895990F0008550FD1
:1050C000AA0BE0E8FEEF16161706E807F907C0F08E
:1050D00012161306E407F50798F0621B730B840B96
:1050E000950B39F40A2661F0232B242B252B21F470
:1050F00008950A2609F4A140A6958FEF811D811D10
:10510000089597F99F6780E870E060E008959FEF49
:1051100080EC089500240A9416161706180609064E
:10512000089500240A94121613061406050608951D
:10513000092E0394000C11F4882352F0BB0F40F4A5
:10514000BF2B11F460FF04C06F5F7F4F8F4F9F4FE5
:10515000089557FD9058440F551F59F05F3F71F067
:105160004795880F97FB991F61F09F3F79F08795CE
:105170000895121613061406551FF2CF4695F1DF57
:1051800008C0161617061806991FF1CF86957105E7
:10519000610508940895E894BB2766277727CB011B
:1051A00097F908950E945D2808F48FEF08950E94F2
:1051B000EA280C9498280E948A2838F00E949128A6
:1051C00020F0952311F00C9481280C948728112449
:1051D0000C94CC280E94A92870F3959FC1F3950FD9
:1051E00050E0551F629FF001729FBB27F00DB11D6B
:1051F000639FAA27F00DB11DAA1F649F6627B00DFB
:10520000A11D661F829F2227B00DA11D621F739FE3
:10521000B00DA11D621F839FA00D611D221F749FF1
:105220003327A00D611D231F849F600D211D822F38
:10523000762F6A2F11249F5750409AF0F1F088235F
:105240004AF0EE0FFF1FBB1F661F771F881F91508C
:105250005040A9F79E3F510580F00C9481280C9492
:10526000CC285F3FE4F3983ED4F386957795679515
:10527000B795F795E7959F5FC1F7FE2B880F911DB6
:105280009695879597F908950E945D28880B990B4C
:1052900008950F931F93CF93DF938230910510F4FD
:1052A00082E090E0E091D003F091D10330E020E083
:1052B000B0E0A0E0309799F42115310509F44AC017
:1052C000281B390B24303105D8F58A819B81611563
:1052D000710589F1FB0193838283FE0111C0408136
:1052E00051810281138148175907E0F04817590787
:1052F00099F4109761F012960C93129713961C93E1
:105300003296CF01DF91CF911F910F9108950093B5
:10531000D0031093D103F4CF2115310551F042177A
:10532000530738F0A901DB019A01BD01DF01F80143
:10533000C1CFEF01F9CF9093D1038093D003CDCFAC
:10534000FE01E20FF31F81939193225031093983BB
:105350002883D7CF2091CE033091CF03232B41F464
:1053600020910301309104013093CF032093CE03A9
:1053700020910101309102012115310541F42DB731
:105380003EB74091050150910601241B350BE09179
:10539000CE03F091CF03E217F307A0F42E1B3F0BCF
:1053A0002817390778F0AC014E5F5F4F2417350797
:1053B00048F04E0F5F1F5093CF034093CE0381936D
:1053C00091939FCFF0E0E0E09CCFCF93DF930097E5
:1053D000E9F0FC01329713821282A091D003B091C0
:1053E000D103ED0130E020E01097A1F4208131815C
:1053F000820F931F2091CE033091CF0328173907D6
:1054000009F061C0F093CF03E093CE03DF91CF9119
:105410000895EA01CE17DF07E8F54A815B819E0116
:1054200041155105B1F7E901FB83EA83499159918F
:10543000C40FD51FEC17FD0761F48081918102969E
:10544000840F951FE90199838883828193819B83CF
:105450008A83F0E0E0E012968D919C91139700977B
:10546000B9F52D913C911197CD010296820F931FB2
:105470002091CE033091CF032817390739F63097A2
:1054800051F51092D1031092D003B093CF03A093A3
:10549000CE03BCCFD383C28340815181840F951F3B
:1054A000C817D90761F44E5F5F4F88819981480F13
:1054B000591F518340838A819B8193838283211565
:1054C000310509F0B0CFF093D103E093D0039ECF24
:1054D000FD01DC01C0CF13821282D7CFFB01DC01BA
:1054E00002C001900D9241505040D8F70895FB0141
:1054F000DC0101900D920020E1F70895AEE0B0E0EC
:10550000E4E8FAE20C943A2D0D891E898F89988D72
:1055100026E02C831A83098397FF02C080E090E87D
:1055200001979E838D83AE01455E5F4F698D7A8DB5
:10553000CE0101960E94AE2A4D815E8157FD0AC0C0
:105540002F813885421753070CF49A01020F131F5D
:10555000F80110822E96E4E00C94562DABE0B0E0FA
:10556000E4EBFAE20C942C2D7C013B018A01FC0156
:1055700017821682838181FFC8C1CE0101965C012A
:10558000F7019381F30193FD859193FF81913F0191
:10559000882309F453C1853239F493FD859193FF33
:1055A00081913F01853229F4B70190E00E949E2C41
:1055B000E7CF912C212C312CFFE1F31538F08B3201
:1055C00011F190F4803209F1833229F137FC3CC0AB
:1055D00020ED280F2A3050F536FE20C08AE0989E34
:1055E000200D1124922E06C08D3291F0803371F778
:1055F000689430F8F30193FD859193FF81913F0109
:105600008111DACF21C0689431F8689432F8F2CF72
:10561000689433F8EFCF689434F8ECCFEAE02E9E2C
:10562000200D1124222E689435F8E4CF8E3229F40F
:1056300036FC04C1689436F8DDCF8C3619F46894D2
:1056400037F8D8CF8836B1F2982F9F7D9554933094
:10565000E0F08336A1F18337C1F1833509F063C0EF
:105660002801F2E04F0E511CF801C080D180692D55
:1056700070E036FC02C06FEF7FEFC6010E94882CFD
:105680004C01689437F882010AC00C5F1F4FFFE39A
:10569000F98388248394912C6501E89437F833FECC
:1056A0002DC0522C8114910471F5552009F468CF56
:1056B000B70180E290E00E949E2C5A94F6CFF80148
:1056C000808189830E5F1F4FE4CF2801F2E04F0EE7
:1056D000511CF801C080D180692D70E036FC02C0F9
:1056E0006FEF7FEFC6010E94932C4C018201D5CF52
:1056F000B70180E290E00E949E2C2A94281419049D
:1057000009F0B0F7CECFF60137FC859137FE8191D5
:105710006F01B70190E00E949E2C51105A94F1E065
:105720008F1A9108BFCF843619F0893609F077C0F7
:10573000F80137FE6BC060817181828193810C5FBB
:105740001F4FF32DFF763F2E97FF09C09095809550
:10575000709561957F4F8F4F9F4F689437F82AE07F
:1057600030E0A5010E94CE2CC82ECA188C2C432CE8
:1057700036FE0CC0E89440F8C91440F434FE05C06D
:1057800032FC03C0F32DFE7E4F2E892C44FE95C0C3
:10579000FE01EC0DF11D8081803309F087C0242DBE
:1057A000297E422E842D8870582E43FC95C040FEE1
:1057B0008FC09C2C821418F42C0C922C981844FE48
:1057C00091C0B70180E390E00E949E2C42FE09C088
:1057D00088E790E041FE02C088E590E0B7010E94B2
:1057E0009E2CC91408F48AC0CA94D12C9FEFC91A00
:1057F000D90ACA0CDB1CF60182916F01B70190E057
:105800000E949E2CAC14BD04B1F74FCF6081718112
:10581000072E000C880B990B0E5F1F4F92CFD32CD5
:10582000E894D4F82AE030E0853739F1232D297F38
:10583000D22E8F3601F148F48835A9F0F701868120
:1058400097812B96E2E10C94482D803749F08837F8
:10585000A9F7D4FE02C06894D2F820E130E00DC070
:105860006894D4F8F6CF34FE03C0822F8660D82E19
:1058700020E132E002C028E030E0F801D7FE0FC09E
:1058800060817181828193810C5F1F4FA5010E940D
:10589000CE2CC82ECA183D2CE89437F867CF60810B
:1058A000718190E080E00E5F1F4FF0CF42FC02C09C
:1058B000839478CF8394839475CF842D867809F46C
:1058C00071CFF6CFB70180E290E00E949E2C8394C6
:1058D0008214C0F3512C73CF522C5818821408F440
:1058E0006ECFF8CF842D867809F47BCF8BE241FE12
:1058F00080E247FC8DE2B70190E071CFB70180E311
:1059000090E00E949E2C9A946CCF8FEF9FEF99CFDE
:10591000FC010590615070400110D8F7809590957A
:105920008E0F9F1F0895FC0161507040019001107F
:10593000D8F7809590958E0F9F1F08950F931F9312
:10594000CF93DF93182F092FEB018B8181FD09C0C5
:105950001FEF0FEF812F902FDF91CF911F910F91AC
:10596000089582FF14C02E813F818C819D8128176C
:1059700039073CF4E881F981CF0101969983888346
:1059800010838E819F8101969F838E83E3CFE8856C
:10599000F985812F0995892BA1F3DACFFA01AA277E
:1059A000283051F1203181F1E8946F936E7F6E5F62
:1059B0007F4F8F4F9F4FAF4FB1E03ED0B4E03CD010
:1059C000670F781F891F9A1FA11D680F791F8A1FF3
:1059D000911DA11D6A0F711D811D911DA11D20D05A
:1059E00009F468943F912AE0269F11243019305D14
:1059F0003193DEF6CF010895462F4770405D419305
:105A0000B3E00FD0C9F7F6CF462F4F70405D4A3351
:105A100018F0495D31FD4052419302D0A9F7EACF19
:105A2000B4E0A6959795879577956795BA95C9F748
:105A300000976105710508959B01AC010A2E06943B
:105A40005795479537952795BA95C9F7620F731FF4
:105A5000841F951FA01D08952F923F924F925F9231
:105A60006F927F928F929F92AF92BF92CF92DF926E
:105A7000EF92FF920F931F93CF93DF93CDB7DEB7D3
:105A8000CA1BDB0B0FB6F894DEBF0FBECDBF099467
:105A90002A88398848885F846E847D848C849B84BE
:105AA000AA84B984C884DF80EE80FD800C811B81CC
:105AB000AA81B981CE0FD11D0FB6F894DEBF0FBEFB
:105AC000CDBFED01089517E0C1E3D7E004C0FE01AA
:105AD0000E9400272196C233D107C9F7F894FFCF5F
