:100000000C9438070C9460070C9460070C946007FC
:100010000C9460070C9460070C9460070C946007C4
:100020000C9460070C9460070C9460070C946007B4
:100030000C9460070C9460070C9460070C946007A4
:100040000C94CB130C9460070C943B140C94151473
:100050000C9460070C9460070C9460070C94600784
:100060000C9460070C9460072D2D2D2D2D2D2D2D1A
:100070002D2D2D2D2D2D2D2D2D2D2D2D2D2D2D2DB0
:100080002D2D2D2D2D2D2D2D2D2D2D2D2D2D2D2DA0
:100090002D2D2D2D2D2D2D2D2D002020202020200B
:1000A0002020202020202020202020004672616D6A
:1000B00065202020202020202020203A2000206DB4
:1000C0007329002054494D454F55542028002E00D7
:1000D000206D732900204F4B20280020205B4E6F9D
:1000E00020726573706F6E73655D202D2077616976
:1000F00074696E6700206D7329002054494D454F87
:1001000055542028002E00206D732900202800203F
:100110002057616974696E67005374696C6C206E56
:100120006F2070726573656E63652E2041626F7219
:1001300074696E672077726974652E00202053748D
:100140006F72653A206E6F2070726573656E6365BD
:100150002E00202057726974653A206E6F207072ED
:100160006573656E63652E00202041726D3A206EC6
:100170006F2070726573656E63652E00202041727A
:100180006D20616C72656164792069737375656453
:10019000202D20706F7765722D6379636C652072F6
:1001A000657175697265642E004E6F20707265739B
:1001B000656E636520656E746572696E672074652F
:1001C00073746D6F64652E002E0020205761697472
:1001D000696E6700206D732900204F4B202800575F
:1001E000616974696E6720666F72206261747465FC
:1001F00072792E2E2E002020427269646765204796
:1002000050494F302D4750494F3120666F72204F73
:100210006D656761206C6F636B2E0020202773274C
:10022000203D2072657363616E207C206175746F60
:100230002D6465746563747320636F6E6E6563749B
:100240002F646973636F6E6E6563740020204D6167
:100250006B697461204D6F6E69746F72202D20532D
:1002600063616E202F20556E6C6F636B204D6F6441
:100270006500202052656D6F766520627269646743
:100280006520746F2073776974636820746F2073BE
:1002900063616E2F756E6C6F636B206D6F64652E7E
:1002A0000020204750494F302D4750494F312062A0
:1002B000726964676564202D3E204F4D454741209B
:1002C0004C4F434B204D4F444520286E7962626C61
:1002D00065203334290020204D616B697461204F03
:1002E0004D454741204C4F434B205574696C697410
:1002F00079202D2054797065732030202F203220F2
:100300002F2033206F6E6C7900312E352E30002077
:10031000204669726D7761726520760020205B4C03
:100320006F636B5D204641494C45442E0020205BA5
:100330004C6F636B5D204F4D454741204C4F434B05
:1003400045442E204E7962626C65203334207365FB
:1003500074206E6F6E2D7A65726F2E0020205B4CBC
:100360006F636B5D204E7962626C65203334203D93
:10037000200020205B4C6F636B5D204E6F20726508
:1003800073706F6E73652E0020205B4C6F636B5D26
:10039000200020205B4C6F636B5D20417474656DA1
:1003A0007074200020205B4C6F636B5D2042617491
:1003B0007465727920616C7265616479204F4D4576
:1003C0004741204C4F434B454420286E7962626C74
:1003D0006520333420213D2030292E00756E737541
:1003E00070706F727465642028352C20362C206F55
:1003F0007220756E6B6E6F776E292E0020205B4C1D
:100400006F636B5D20547970653A200020205B4C4F
:100410006F636B5D205741524E494E473A20524F11
:100420004D2049442072656164206661696C656491
:100430002E0020205B4C6F636B5D204552524F5263
:100440003A204E6F2076616C6964206672616D653A
:100450002E0020205B4C6F636B5D205072652D7405
:100460007970652D302048433038202D20756E730B
:100470007570706F727465642E005741524E494E0C
:10048000473A20524F4D20494420726561642066EE
:1004900061696C65643B207573696E672066616C89
:1004A0006C6261636B207479706520646574656348
:1004B00074696F6E2E00202D20496E76616C696420
:1004C000204572726F7220436F6465003135202DB4
:1004D00020446561643F0035202D205761726E69AC
:1004E0006E670031202D204F7665726C6F616465F8
:1004F000640030202D204F4B00202042797465206D
:100500003139203D2030783030202020286D75731F
:1005100074206E6F74206265207A65726F290020E6
:100520002042797465203138203D203078303020E9
:100530002020286D757374206E6F74206265207A98
:1005400065726F2900202043533220202020202074
:100550002020202020202020286D69736D61746385
:1005600068206E7962626C65732033322D343029D5
:100570000020204353312020202020202020202034
:1005800020202020286D69736D61746368206E7966
:1005900062626C65732031362D333129002020438F
:1005A0005330202020202020202020202020202008
:1005B000286D69736D61746368206E7962626C6521
:1005C0007320302D313529004C6F636B20636175CA
:1005D000736573202020203A00202F2037005374A9
:1005E000617465206F66206368617267653A2000F8
:1005F00043656C6C20696D62616C616E6365203A65
:100600002000286E6F2063656C6C73207265706FBC
:100610007274656429005061636B20766F6C74613D
:1006200067652020203A200020430054656D70202B
:10063000284D6F736665742920203A2000204300FE
:1006400054656D70202843656C6C73292020203A16
:1006500020002025004F7665726C6F616420252094
:10066000202020203A20002025004F442025202053
:100670002020202020202020203A20002025004F6C
:100680007665726C6F6164202520202020203A203E
:10069000004F7665726C6F6164202320202020203B
:1006A0003A20002025004F44202520202020202013
:1006B00020202020203A20004F44202320202020EA
:1006C000202020202020203A2000202F203420200D
:1006D00028004865616C746820202020202020209C
:1006E000203A20004379636C6520636F756E742037
:1006F0002020203A2000427974652031392073741B
:1007000061747573203A204241442028307830309B
:100710002C206D757374206E6F74206265203029F3
:100720000042797465203138203F3F3F202020204F
:100730003A204241442028307830302C206D7573A7
:1007400074206E6F742062652030290042797465D0
:10075000203138203F3F3F202020203A204F4B00BF
:1007600042797465203137206C6F636B6269743A2B
:10077000204F4B0042797465203120206F726967E9
:10078000696E203A204F4B2028566965746E616D62
:100790002F53616D73756E6729004279746520313E
:1007A00020206F726967696E203A204F4B202843E2
:1007B00068696E612F4D7572617461290042414410
:1007C000004F4B00424144004F4B0041757820439D
:1007D00053756D2034382D3631203A200042414483
:1007E000004F4B00417578204353756D2034342DF4
:1007F0003437203A2000424144004F4B00436865A3
:10080000636B73756D2033322D3430203A200042F3
:100810004144004F4B00436865636B73756D203135
:10082000362D3331203A20004E6F00594553004396
:100830006865636B73756D20302D313520203A204B
:10084000004E7962626C65203430206661756C748C
:100850003A2000554E4C4F434B4544004C4F434BC0
:1008600045440043656C6C206661696C7572652057
:1008700020203A20004C6F636B2073746174757391
:10088000202020203A2000204168004361706163ED
:10089000697479202020202020203A200031302047
:1008A00063656C6C20424C33367878003520636584
:1008B0006C6C20424C3138787800342063656C6C65
:1008C00020424C3134787800202028004261747432
:1008D00065727920747970652020203A2000446583
:1008E000746563746564207479706520203A200013
:1008F00028756E617661696C61626C6529004D6670
:10090000672064617465202020202020203A200088
:10091000524F4D2049442020202020202020203AE2
:1009200020004D6F64656C20202020202020202096
:10093000203A200033322D34303D6261640033327E
:100940002D34303D6F6B0031362D33313D626164A3
:100950000031362D33313D6F6B00302D31353D6226
:10096000616400302D31353D6F6B002020444130F3
:100970003420636C6561722E2E2E00202043686542
:10098000636B73756D73203A200020204E6F2072C8
:100990006573706F6E736520647572696E6720761B
:1009A00065726966792E00202000202052657061F2
:1009B0006972206672616D65203A2000426174742C
:1009C000657279207374696C6C206C6F636B6564FD
:1009D0002E00426174746572792073756363657368
:1009E0007366756C6C7920756E6C6F636B65642EC5
:1009F0000020202D3E204672616D65207265706179
:100A00006972206661696C65642E0020202D3E208D
:100A100052657061697265642062757420737469CF
:100A20006C6C206C6F636B65642E205265747279F8
:100A3000696E672E0020202D3E204672616D652074
:100A4000726570616972207375636365656465645E
:100A50002E20554E4C4F434B45442E0029002D2D42
:100A60002D205374657020323A204672616D6520E6
:100A70007265706169722028617474656D7074208C
:100A80000020202D3E205374696C6C206C6F636BCA
:100A900065642E2050726F63656564696E672074AB
:100AA0006F206672616D65207265706169722E00DB
:100AB00020202D3E20554E4C4F434B45442062791B
:100AC00020444130342E002D2D2D2053746570208C
:100AD000313A2044413034207265736574004261BC
:100AE0007474657279204C4F434B45442E002E2080
:100AF000536B697070696E672E00556E6C6F636B17
:100B0000206E6F7420737570706F727465642066E8
:100B10006F72207479706520004261747465727917
:100B200020554E4C4F434B45442E00436F6D706C27
:100B30006574652E005620E2809420636865636BBF
:100B40002062616C616E63696E6720746162732EEE
:100B5000005741524E494E473A2043656C6C20691C
:100B60006D62616C616E636520005741524E494E63
:100B7000473A20766F6C7461676520726561642006
:100B80006661696C65643B2063656C6C20646174AC
:100B900061206D6179206265206D697373696E678C
:100BA0002E00426174746572792072656D6F76658E
:100BB0006420647572696E67207363616E2E2041D4
:100BC000626F7274696E672E004261747465727927
:100BD00020666F756E6420203A200020202020209F
:100BE00020202020444F204E4F54206368617267BC
:100BF00065206F6E20616E7920636861726765722F
:100C00002E002020202020202020204672656573A1
:100C100063616C65204D433930384A4B334520427F
:100C20004D53202D2D206E6F2063656C6C207072EB
:100C30006F74656374696F6E2E005741524E494E52
:100C4000473A205072652D747970652D30204843E5
:100C500030382062617474657279206465746563EC
:100C600074656421004552524F523A2042617474B7
:100C7000657279206E6F7420726573706F6E64692F
:100C80006E6720616674657220726574726965733F
:100C90002E2041626F7274696E672E0020205265AB
:100CA0006D6F7665206261747465727920616E641F
:100CB0002074727920616761696E2E002020426184
:100CC00074746572792072656D6F7665642E205735
:100CD000616974696E672E2E2E0020205B4C6F6355
:100CE0006B5D20426174746572792072656D6F76F8
:100CF00065642E2057616974696E6720666F722083
:100D00006E6578742E2E2E002020426174746572F8
:100D100079206465746563746564202D2073746143
:100D20007274696E67207363616E2E0020205B4CC5
:100D30006F636B5D204261747465727920646574C1
:100D40006563746564202D206F6D656761206C6F2D
:100D5000636B696E672E2E2E004D616E75616C207F
:100D600072657363616E2072657175657374656415
:100D70002E0020204272696467652072656D6F766F
:100D800065642E20496E73657274206261747465A7
:100D9000727920746F207363616E2E0020204D6F76
:100DA0006465206368616E676564202D3E2053434F
:100DB000414E202F20554E4C4F434B204D4F444524
:100DC0000020204750494F302D4750494F31206275
:100DD0007269646765642E20496E7365727420625F
:100DE00061747465727920746F206C6F636B2E0070
:100DF00020204D6F6465206368616E676564202DF7
:100E00003E204F4D454741204C4F434B204D4F44D2
:100E1000450000000000240027002A000000000810
:100E200000020100000304070000000000000000B1
:100E300000000000250028002B0000000000230017
:100E4000260029000404040404040404020202022B
:100E5000020203030303030301020408102040807D
:100E60000102040810200102040810206D14F92664
:100E700011241FBECFEFD8E0DEBFCDBF12E0A0E04F
:100E8000B1E0E6E7FBE502C005900D92AC3DB1078D
:100E9000D9F723E0ACEDB2E001C01D92AE3BB20742
:100EA000E1F717E0C7E3D7E004C02197FE010E94F5
:100EB0004B27C633D107C9F70E943C150C94AE2DC1
:100EC0000C9400008091AC03E091AD03F091AE036F
:100ED000F8949181282F20959223918378943DE76F
:100EE00043E050E0315029F1DA011197F1F7908198
:100EF0009823C1F3F8949281922392839181982B45
:100F000091837894A3EBBBE01197F1F7F89491816A
:100F100092239183A3E1B1E01197F1F79081982397
:100F200081E009F080E07894E3E6F6E03197F1F7AC
:100F3000089580E00895EF92FF920F931F93CF934F
:100F4000DF9328E030E080E041E0A3E2B0E09FECF6
:100F5000E92EF12C9091AC03E091AD03F091AE033A
:100F6000F8945181592B51836281792F70956723B1
:100F700062838D01ED012197F1F751815723518350
:100F8000E8012197F1F750817894F7013197F1F753
:100F9000952309F0842B440F21503109D9F6DF91B4
:100FA000CF911F910F91FF90EF900895CF92DF9214
:100FB000EF92FF920F931F93CF93DF9328E030E0DF
:100FC00041E06BE871E093E7C92ED12CCBE2D0E091
:100FD0000BED11E09091AC03E091AD03F091AE0305
:100FE000F92EF094582F542389F1F89452815F21FF
:100FF00052835181592B5183DE011197F1F75281B0
:10100000952B92837894F8013197F1F7440F215092
:10101000310901F7F894E091AD03F091AE039181AD
:101020008091AC03809598239183E091AD03F0917A
:10103000AE039281892382837894DF91CF911F91AF
:101040000F91FF90EF90DF90CF900895F894528128
:101050005F2152835181592B5183DB011197F1F7A5
:101060005281952B92837894F601CECF833081F014
:1010700028F4813099F08230A9F008958730A9F0E2
:101080008830C9F08430B1F4809180008F7D03C036
:10109000809180008F7780938000089584B58F774A
:1010A00084BD089584B58F7DFBCF8091B0008F778C
:1010B0008093B00008958091B0008F7DF9CFCF93D9
:1010C000DF93EDE1FEE08491E9E5FEE0D491E5E413
:1010D000FEE0C491CC23A1F081110E943608EC2FD0
:1010E000F0E0EE0FFF1FE65CF14FA591B491EC919B
:1010F000ED2381E090E009F480E0DF91CF91089545
:1011000080E090E0FACF1F93CF93DF93282F30E059
:10111000F901E45EF14F8491F901E85AF14FD4915D
:10112000F901EC5BF14FC491CC23A9F0162F81118A
:101130000E943608EC2FF0E0EE0FFF1FE05DF14F4C
:10114000A591B4918FB7F894EC91111108C0D09586
:10115000DE23DC938FBFDF91CF911F910895DE2BAB
:10116000F8CFCF93DF9390E0FC01E85AF14F249140
:101170008C5B914FFC0184918823C9F090E0880F2B
:10118000991FFC01EE5EF14FA591B491FC01E05D69
:10119000F14FC591D49161110DC09FB7F8948C9116
:1011A000209582238C938881282328839FBFDF91F9
:1011B000CF910895623051F49FB7F8943C91822FFB
:1011C000809583238C93E8812E2BEFCF8FB7F894F3
:1011D000EC912E2B2C938FBFEACF3FB7F8948091E0
:1011E000F4029091F502A091F602B091F70226B5B3
:1011F000A89B05C02F3F19F00196A11DB11D3FBF4F
:10120000BA2FA92F982F8827BC01CD01620F711D1D
:10121000811D911D42E0660F771F881F991F4A9517
:10122000D1F708958F929F92AF92BF92CF92DF92A3
:10123000EF92FF926B017C010E94ED084B015C0173
:10124000C114D104E104F104B9F00E94ED08681959
:1012500079098A099B09683E73408105910580F3ED
:1012600021E0C21AD108E108F10888EE880E83E077
:10127000981EA11CB11CE4CFFF90EF90DF90CF909F
:10128000BF90AF909F908F9008952FB7F894609182
:10129000F0027091F1028091F2029091F3022FBF5F
:1012A0000895262F2695820F911DFC01808160FDF7
:1012B00002C08F7008958295FCCFAF92BF92CF92FB
:1012C000DF92EF92FF920F931F93CF93DF936C0106
:1012D0007B018B01040F151FEB015E01AE18BF08E7
:1012E000C017D10759F06991D601ED91FC91019099
:1012F000F081E02DC6010995892B79F7C501DF91B1
:10130000CF911F910F91FF90EF90DF90CF90BF9002
:10131000AF900895FC01538D448D252F30E0842F2C
:1013200090E0821B930B541710F0CF96089501970D
:101330000895FC01918D828D981761F0A28DAE0FFA
:10134000BF2FB11D5D968C91928D9F5F9F73928F81
:1013500090E008958FEF9FEF0895FC01918D828DAD
:10136000981731F0828DE80FF11D858D90E008957A
:101370008FEF9FEF0895FC01918D228D892F90E0D2
:10138000805C9F4F821B91098F739927089589EF85
:1013900092E00E94BB0921E0892B09F420E0822F12
:1013A000089580E090E0892B29F00E94C7098111FF
:1013B0000C9400000895FC01A48DA80FB92FB11D55
:1013C000A35ABF4F2C91848D90E001968F7399277B
:1013D000848FA689B7892C93A089B1898C91837059
:1013E00080648C93938D848D981306C00288F38952
:1013F000E02D80818F7D80830895EF92FF920F937F
:101400001F93CF93DF93EC0181E0888F9B8D8C8DB0
:1014100098131AC0E889F989808185FF15C09FB7A4
:10142000F894EE89FF896083E889F9898081837067
:10143000806480839FBF81E090E0DF91CF911F9116
:101440000F91FF90EF900895F62E0B8D10E00F5F37
:101450001F4F0F731127E02E8C8D8E110CC00FB60D
:1014600007FCFACFE889F989808185FFF5CFCE01A5
:101470000E94DB09F1CFEB8DEC0FFD2FF11DE35A3C
:10148000FF4FF0829FB7F8940B8FEA89FB89808128
:101490008062CFCF0F931F93CF93DF938C01D0E067
:1014A000C0E0F801EC0FFD1F6491662341F089EF65
:1014B00092E00E94FD09892B11F02196F2CFCE0116
:1014C000DF91CF911F910F910895682F89EF92E0DE
:1014D0000C94FD09CF93DF93EC01888D8823B9F03C
:1014E000AA89BB89E889F9898C9185FD03C080812F
:1014F00086FD0DC00FB607FCF7CF8C9185FFF2CFAC
:10150000808185FFEDCFCE010E94DB09E9CFDF911D
:10151000CF910895FF920F931F93CF93DF938C0188
:10152000C62FF42ED0E0FC1638F06C2FC8010E94B4
:101530005109D80FCF5FF7CF8D2F8F70DF91CF91EB
:101540001F910F91FF900895AF92BF92CF92DF92BB
:10155000EF92FF920F931F93CF93DF938C01EB01D8
:101560008A898D3008F4A4C08E3108F0A3C085E0CC
:101570008AAB6B8970E090E080E00E946D2820E0EB
:1015800030E040E251E40E94C3276BAB7CAB8DABF3
:101590009EAB4FE060E0C8010E948A0AA82EBA8C78
:1015A00081E0AB1080E088AF4FE160E1C8010E94AC
:1015B0008A0AC82EDB8C81E0CD1080E089AF48E23A
:1015C00060E2C8010E948A0AE82EFC8C81E0EF10DC
:1015D00080E08AAF4FE26CE2C8010E948A0A91E083
:1015E0002D8D281390E09BAF4DE360E3C8010E946E
:1015F0008A0A91E02E8D281390E09CAF1EAE1DAE9E
:101600008C89882321F081E090E09EAF8DAFAB14F0
:1016100029F08DAD9EAD82609EAF8DAFCD1429F0C7
:101620008DAD9EAD84609EAF8DAFEF1429F08DAD72
:101630009EAD88609EAF8DAFF8018181982F9F7E0F
:10164000963239F0813329F08DAD9EAD80629EAF28
:101650008DAF62E2C8010E945109882329F08DAD47
:101660009EAD80649EAF8DAFF8018289811105C067
:101670008DAD9EAD80689EAF8DAFF80183898111DD
:1016800005C08DAD9EAD91609EAF8DAF81E02DAD5B
:101690003EAD232B09F480E08FABDF91CF911F91FA
:1016A0000F91FF90EF90DF90CF90BF90AF90089593
:1016B00084E05ECF8AE05CCF0F931F93CF93DF93DC
:1016C0008C01D42F0E945109C82F6D2FC8010E9490
:1016D000510990E1C99FE00111248C2BDF91CF913A
:1016E0001F910F910895CF92DF92EF92FF920F9387
:1016F0001F93CF93DF93EC018B0147E166E10E94DA
:101700005C0BF801808341E260E2CE010E945C0B39
:10171000F801818368E2CE010E945109F8018283B9
:1017200041E360E3CE010E945C0BF801838343E355
:1017300062E3CE010E945C0BF80184836CE2CE016F
:101740000E94510982FB882780F9F801878364E3AE
:10175000CE010E945109D82E65E3CE010E945109A5
:10176000C82E66E3CE010E945109F0E18F9F7001FF
:101770001124FC2867E3CE010E9451092D2D30E091
:10178000322F22273295307F22273071E82A2E29E6
:101790003F29F8013683258369E2CE010E94510971
:1017A000F80180876AE2CE010E945109F801818721
:1017B0006BE2CE010E945109F80182876EE3CE01EF
:1017C0000E945109F80183876FE3CE010E945109FD
:1017D000F8018487DF91CF911F910F91FF90EF90D7
:1017E000DF90CF9008954F70E62FE695E80FF92F20
:1017F000F11D908160FD04C0907F942B908308952B
:101800009F7080E1489FA0011124F7CF60E088E03D
:101810000C948308CF92DF92EF92FF920F931F9365
:10182000CF93DF93CDB7DEB729970FB6F894DEBF1D
:101830000FBECDBF282F8091980390919903892BDB
:1018400009F449C0872F90E0B0E0A0E0BA2FA92F9B
:10185000982F8827A62B822BAD0166277727C92EC4
:10186000DA2EEB2EFF241C2D382F20919E032223ED
:1018700091F0022F10E0049FF001059FF00D149FDE
:10188000F00D11244F2F2C9D600111241D2D289F38
:10189000C0011124392FE091A40380919F039091FE
:1018A000A0032091A103E21721F0E80FF92FF11D09
:1018B0001082E091A103E80FF92FF11D4083E09120
:1018C000A203E80FF92FF11D10832091A303820FCB
:1018D000911DFC01308380919F039091A003892B7F
:1018E00009F47CC00E94ED080091A5031091A603A5
:1018F0002091A7033091A80360177107820793070F
:1019000040F46093A5037093A6038093A70390937C
:10191000A8030091A5031091A6032091A70330917D
:10192000A803601B710B820B930B6C327140810515
:101930009105C0F2F89480919A0390919B039A8349
:101940008983E0919F03F091A003DF0111968081CC
:10195000898790919603E091A903F091AA03809161
:10196000AB03992309F449C09081982B9887908103
:10197000809589238F838F818C8388E08B83588522
:101980006F8149853B812C8189819A81508347FDF4
:10199000252F3A952083262F39F0441F00C00000E0
:1019A0006083000000C0F2CF38E04D9160830000FA
:1019B000019761F7F093AA03E093A90349873B835A
:1019C0002C839A83898378940E94ED086093A50301
:1019D0007093A6038093A7039093A80329960FB64C
:1019E000F894DEBF0FBECDBFDF91CF911F910F9155
:1019F000FF90EF90DF90CF9008959081982B98877B
:101A00009081809589238F838F818E8388E08D8359
:101A100058856F8149853D812E8189819A815083C6
:101A200047FD252F00C000C0208300C000C000C0BB
:101A300000C000C060830000262F3A9541F0441F8B
:101A4000000000C000C000C000C000C0E8CF38E007
:101A50004D9100C0608300C0019709F7F093AA037D
:101A6000E093A90349873D832E83ABCF60910A01A0
:101A700070910B0180910C010C940A0C609107018C
:101A800070910801809109010C940A0CCF92DF92A9
:101A9000EF92FF926B017C0185EFC81681E0D806BA
:101AA000E104F10468F064EF71E080E090E00E94EE
:101AB000120984EFC81A81E0D80AE108F108ECCFD6
:101AC000C701B601FF90EF90DF90CF900C94120900
:101AD00061E088E00E94830866E970E080E090E0C1
:101AE0000C94460D8F929F92BF92CF92DF92EF920D
:101AF000FF920F931F93CF93DF93F82EC62FD42E10
:101B0000C52EB22E81110E94680D0E9462078111BC
:101B100011C0F1100E94060C81E090E0DF91CF919E
:101B20001F910F91FF90EF90DF90CF90BF909F900B
:101B30008F9008958C2F0E94D607C33389F4E80153
:101B4000085F1F4F23E6822E99249394C4010197C6
:101B5000F1F70E949B078993C017D107B9F78E014F
:101B60009D2CCD2DDC2D93E6C92EDD24D394C6010A
:101B70000197F1F789910E94D6078C2F89198B154F
:101B8000B0F38BE891E00197F1F7E8010E0D111D1C
:101B900083E6C82EDD24D394C017D10739F0C601DF
:101BA0000197F1F70E949B078993F6CFF1100E94ED
:101BB000060C90E080E0B2CFEF920F931F93CF938B
:101BC000DF93CDB7DEB728970FB6F894DEBF0FBE10
:101BD000CDBF262F8E010F5F1F4F38E0F801119205
:101BE0003A95E9F7E12CAC0163E381E00E94720DC4
:101BF00028960FB6F894DEBF0FBECDBFDF91CF9110
:101C00001F910F91EF900895EF920F931F93E22E83
:101C10008A01262FAC016CEC81E00E94720D1F91AD
:101C20000F91EF9008950F931F93CF938B01C42FC3
:101C3000242FAB0164E00E94040E892B41F4F801CB
:101C4000EC0FF11D319781E09081963009F080E032
:101C5000CF911F910F910895CF93DF93D82FC92F64
:101C600020E2482F592F62E083E191E00E94040EA8
:101C7000892BB1F4ED2FFC2FAF01405E5F4F8FEF4A
:101C800090E02191922B8223E417F507D1F7992355
:101C900039F08F3F41F081E090E0DF91CF910895DE
:101CA00090E080E0FACF8FEF9FEFF7CF0E94060C15
:101CB0001092F80264E670E080E090E00E94460D29
:101CC0000C94680DBF92CF92DF92EF92FF920F9328
:101CD0001F93CF93DF93EC01B62E6A01F22E61E0E1
:101CE00088E00E948308209729F0BE0190E080E000
:101CF0000E94460D0E94620781110FC060E088E0DB
:101D00000E94830880E0DF91CF911F910F91FF9097
:101D1000EF90DF90CF90BF9008958BE896E0019709
:101D2000F1F7BB2039F08CEC0E94D60783E691E0F6
:101D30000197F1F7F60180810E94D607C3E6D1E052
:101D4000CE010197F1F7F1E0FF1631F0F601818144
:101D50000E94D6072197F1F7E801E00EF12EF11C61
:101D600003E611E0EC16FD0639F00E949B0789930B
:101D7000C8010197F1F7F6CF60E088E00E94830880
:101D800081E0C1CFEF920F931F93E22E8A01262F9D
:101D9000AC0161E084EA91E00E94620E1F910F9114
:101DA000EF900895CF93DF931F92CDB7DEB7809168
:101DB000DF02882391F0198221E0AE014F5F5F4F6F
:101DC00063E080E191E00E94040E1092DF026EE178
:101DD00070E080E090E00E94460D0F90DF91CF917F
:101DE00008950F931F93CF93DF931F92CDB7DEB764
:101DF000198221E0AE014F5F5F4F63E08DE091E01B
:101E00000E94040E8C01892B49F481E08093DF024B
:101E10006EE170E080E090E00E94460DC8010F90F6
:101E2000DF91CF911F910F910895CF92DF92EF92A2
:101E3000FF921F93CF93DF93CDB7DEB7A2970FB674
:101E4000F894DEBF0FBECDBFFC018381843628F439
:101E500085E0442349F08FEF07C0FB0181898E3173
:101E600089F486E04111F7CFA2960FB6F894DEBF51
:101E70000FBECDBFDF91CF911F91FF90EF90DF900C
:101E8000CF900895142FAE014E5E5F4F81E1FA01AD
:101E900011928A95E9F721E162E08BE191E00E94DD
:101EA000040E892B29F48AA1863011F480E0DCCF5E
:101EB0000E94F10E9E012F5F3F4F7901892BC1F4E3
:101EC00081E1F90111928A95E9F721E1A70162E028
:101ED00089E191E00E94040E6C010E94D20E0E94E2
:101EE000560ECD2829F48989863011F482E0BCCFC2
:101EF00019821A821B8223E0A70164E085E191E048
:101F00000E94040E892B19F48B81863019F0812FE1
:101F10008195AACF83E0A8CFCF9361E088E00E94AB
:101F2000830866E970E080E090E00E94460D0E9420
:101F30006207C82F60E088E00E94830881E0C1301A
:101F400009F080E0CF910895CF92DF92EF92CF9386
:101F50006B01E82E1092E002C3E08E2DB6010E94C4
:101F60000A0C68EC70E080E090E00E94460D0E9450
:101F70003E0D64E670E080E090E00E94460DC150A6
:101F800061F78E2DB601CF91EF90DF90CF900C943A
:101F90000A0C882339F09EEF980F81E0923018F0F8
:101FA00080E0089581E00895FC0101900020E9F7A8
:101FB0003197AF01481B590BBC0189EF92E00C949B
:101FC0005D098DE791E00C94D40FCF93DF930E94CD
:101FD0004A0AEC010E94E10F8C0F9D1FDF91CF9107
:101FE000089588E690E00C94E50F8F929F92AF924F
:101FF000BF920F931F93CF93DF93CDB7DEB7A19717
:102000000FB6F894DEBF0FBECDBF19A2423008F460
:102010004AE08E010F5D1F4F842E912CB12CA12C14
:10202000A50194010E942927E62FB901CA01EA30CF
:10203000F4F4E05DD801EE938D01232B242B252BA6
:1020400079F790E080E0109719F0CD010E94D40F4D
:10205000A1960FB6F894DEBF0FBECDBFDF91CF9132
:102060001F910F91BF90AF909F908F900895E95C62
:10207000E1CFCF93DF93682F70E090E080E04AE0FB
:102080000E94F50FEC010E94E10F8C0F9D1FDF9164
:10209000CF910895CF92DF92EF92FF92CF93DF938B
:1020A0006C01092E000CEE08FF0897FF1BC08DE2A3
:1020B0000E94650AEC0166277727CB016C197D0920
:1020C0008E099F094AE00E94F50FC80FD91F0E9490
:1020D000E10F8C0F9D1FDF91CF91FF90EF90DF906C
:1020E000CF9008954AE0C701B6010E94F50FEC01B8
:1020F000EECFCF92DF92EF92FF92CF93DF93EC017E
:102100008FE091E00E944A0A0E9445096B017C0120
:102110000E9445096C197D098E099F09603177423B
:102120008105910558F5CE010E942C0E0197F9F416
:102130000E9445099B01AC012C193D094E095F091C
:1021400069017A018CE091E00E944A0A4AE0C701E5
:10215000B6010E94F50F87E091E00E94E50F81E053
:10216000DF91CF91FF90EF90DF90CF90089585E0C1
:1021700091E00E944A0A0E94560ECACF8AEF90E070
:102180000E944A0A4AE060E177E280E090E00E9423
:10219000F50F85EF90E00E94E50F80E0E1CFCF9250
:1021A000DF92EF92FF928BED90E00E944A0A0E942C
:1021B00045096B017C010E9445096C197D098E0956
:1021C0009F09603177428105910540F50E94560EC6
:1021D0000E9462078130E9F40E9445099B01AC012D
:1021E0002C193D094E095F0969017A0185ED90E0DE
:1021F0000E944A0A4AE0C701B6010E94F50F80ED2D
:1022000090E00E94E50F81E0FF90EF90DF90CF908B
:1022100008958EEC90E00E944A0ACDCF83EC90E0C6
:102220000E944A0A4AE060E177E280E090E00E9482
:10223000F50F8EEB90E00E94E50F80E0E5CF8F92E6
:102240009F92AF92BF92CF92DF92EF92FF920F9345
:102250001F93CF937C010E9445094B015C01C0E0B4
:102260000E944509681979098A099B0960317742FA
:1022700081059105C0F5C7010E942C0E8C01892BA8
:1022800021F1CC23A9F00E9445096B017C01C818FB
:10229000D908EA08FB0889ED91E00E944A0A4AE061
:1022A000C701B6010E94F50F84ED91E00E94E50F91
:1022B000C801CF911F910F91FF90EF90DF90CF90C9
:1022C000BF90AF909F908F900895C11104C08AEC89
:1022D00091E00E944A0A88EC91E00E944A0A0E941A
:1022E000560EC1E0BDCFC1110E94E10F0E94CF1078
:1022F00010E000E08823E1F2C701CF911F910F9118
:10230000FF90EF90DF90CF90BF90AF909F908F9015
:102310000C942C0E0F931F93CF93DF93D82FC92FBC
:10232000CB01009711F48CEA90E00E944A0A0D2F2D
:102330001C2FC0E0DBE0F80181918F01803118F49F
:1023400080E30E94650AF8013197608170E090E0B7
:1023500080E040E10E94F50FCF3119F080E20E9449
:10236000650ACF5FC03231F4DF91CF911F910F9199
:102370000C94E10F8C2F6D2F0E9409279111DBCF58
:102380000E94E10F8AE990E00E944A0AD4CFCF93DD
:10239000DF93D0E0C0E0009719F00E94D40FEC0169
:1023A0000E94E10F8C0F9D1FDF91CF9108954F92F6
:1023B0005F926F927F928F929F92AF92BF92CF92D5
:1023C000DF92EF92FF920F931F93CF936B017C01EB
:1023D000742EAC019B010E948F29882399F080E81C
:1023E00091E0CF911F910F91FF90EF90DF90CF90F0
:1023F000BF90AF909F908F907F906F905F904F9025
:102400000C94D40F46015701E894B7F82FEF3FEF33
:102410004FE75FE7C501B4010E948F2981110DC00C
:102420002FEF3FEF4FE75FE7C501B4010E94BE27E2
:1024300018161CF484E891E0D4CF2FEF3FEF4FE75C
:102440005FE4C701B6010E941D2918161CF488E834
:1024500091E0C7CF2FEF3FEF4FE75FECC701B60129
:102460000E94BE2787FDF3CF20E030E0A901C7011D
:10247000B6010E94BE2710E000E087FF08C08DE291
:102480000E94650A8C01F7FAF094F7F8F094C0E026
:1024900060E070E080E09FE37C1641F020E030E0F7
:1024A00040E251E40E94C327CF5FF6CFA701960117
:1024B0000E9452272B013C010E943C284B015C01E9
:1024C0004AE00E94F50F7C01E00EF11ECC23B1F131
:1024D000C501B4010E946B289B01AC01C301B2018C
:1024E0000E9451274B015C018EE20E94650AE80EB2
:1024F000F91EC15018F120E030E040E251E4C5017E
:10250000B4010E9422292B013C010E943C284B016E
:10251000B12CA12C4AE0C501B4010E94F50FE80ED0
:10252000F91EC501B4010E946B289B01AC01C301D7
:10253000B2010E9451274B015C01DBCFC701CF9153
:102540001F910F91FF90EF90DF90CF90BF90AF90D1
:102550009F908F907F906F905F904F900895CF9352
:10256000DF9343E00E94D711EC010E94E10F8C0F32
:102570009D1FDF91CF9108958F929F92AF92BF924E
:10258000CF92DF92EF92FF920F931F93CF93DF933F
:10259000CDB7DEB7A8970FB6F894DEBF0FBECDBF9C
:1025A0004B015A01F22E9E012F5F3F4F690128E235
:1025B000F60111922A95E9F7EF2C860122E0AC0191
:1025C00063E381E00E94720D8C01892B79F488E02D
:1025D000F601D40101900D928A95E1F74F2D50E05C
:1025E000BE01675F7F4FC5010E94B92AC801A89646
:1025F0000FB6F894DEBF0FBECDBFDF91CF911F9114
:102600000F91FF90EF90DF90CF90BF90AF909F9091
:102610008F9008950F931F93CF93DF93CDB7DEB7BD
:10262000A0970FB6F894DEBF0FBECDBF8C01AE01F0
:102630004F5F5F4F80E2FA0111928A95E9F720E23D
:10264000B80183E191E00E94BC12892B89F088E0F7
:10265000F80111928A95E9F780E0A0960FB6F894F8
:10266000DEBF0FBECDBFDF91CF911F910F910895B7
:1026700081E0F3CFEF92FF920F931F93CF93DF93FD
:10268000CDB7DEB7A2970FB6F894DEBF0FBECDBFB1
:102690007C018B010E94F10E892BC9F0C8010E94B8
:1026A0004A0A89EA91E00E94E50F0E94CF10882330
:1026B00009F464C00E94F10E892B49F0C8010E9400
:1026C0004A0A89E191E00E94E50F80E057C08091BD
:1026D000F802882349F08CE791E00E94E50F0E9400
:1026E000D20E0E94560EF1CF8E010F5F1F4F80E277
:1026F000F80111928A95E9F720E2A80162E08CE2E4
:1027000091E00E94040E892B19F088E691E0E5CF54
:1027100081E08093F8026EE170E080E090E00E943A
:10272000460D8FE089831A8280E2F701DE0113965D
:1027300001900D928A95E1F762E2C8010E94DC0DDA
:10274000892B19F082E591E0C8CF6EE170E080E05E
:1027500090E00E94460D62E08DE191E00E94DC0D68
:10276000892B19F08CE391E0B8CF6EE170E080E046
:1027700090E00E94460D0E94D20E81E0A2960FB614
:10278000F894DEBF0FBECDBFDF91CF911F910F91A7
:10279000FF90EF9008951F920F920FB60F921124A1
:1027A0002F933F938F939F93AF93BF938091F002AA
:1027B0009091F102A091F202B091F3023091EF02F8
:1027C00023E0230F2D3758F50196A11DB11D20934D
:1027D000EF028093F0029093F102A093F202B09383
:1027E000F3028091F4029091F502A091F602B0916B
:1027F000F7020196A11DB11D8093F4029093F5029A
:10280000A093F602B093F702BF91AF919F918F9181
:102810003F912F910F900FBE0F901F90189526E8B3
:10282000230F0296A11DB11DD2CF1F920F920FB69A
:102830000F9211242F933F934F935F936F937F9346
:102840008F939F93AF93BF93EF93FF9389EF92E0A2
:102850000E94DB09FF91EF91BF91AF919F918F9102
:102860007F916F915F914F913F912F910F900FBE8C
:102870000F901F9018951F920F920FB60F92112470
:102880002F938F939F93EF93FF93E0910903F09120
:102890000A038081E0910F03F091100382FD1BC0B9
:1028A0009081809112038F5F8F73209113038217A1
:1028B00041F0E0911203F0E0E750FD4F958F8093D7
:1028C0001203FF91EF919F918F912F910F900FBE67
:1028D0000F901F9018958081F4CF1092FC021092F7
:1028E000FB0288EE93E0A0E0B0E08093FD029093BD
:1028F000FE02A093FF02B09300038FE691E0909355
:10290000FA028093F90285EC90E09093060380939D
:10291000050384EC90E0909308038093070380EC18
:1029200090E090930A038093090381EC90E09093E8
:102930000C0380930B0382EC90E090930E03809342
:102940000D0386EC90E09093100380930F03109298
:10295000120310921303109214031092150360E0F7
:1029600086E00E94B108EEE5FEE0E491E093AC035E
:10297000EAE4FEE0E491F0E0EE0FFF1FE65CF14FC9
:10298000859194919093AE038093AD031092B70319
:102990001092B9031092B8031092B6031092B503C7
:1029A0001092B4031092B3031092B2031092B103C9
:1029B0001092B0031092AF031092970310929E03EF
:1029C0001092A5031092A6031092A7031092A803D9
:1029D00081E08093A4038093A1031092A20392E06C
:1029E0009093A3038093960383E090E090939B03DE
:1029F00080939A030E9494299093A00380939F034D
:102A0000009789F123E0FC0111922A95E9F781E012
:102A100090E0909399038093980380E190E09093E5
:102A20009D0380939C0380919703882341F061E08C
:102A300080E10E94B10860E080E10E948308E4E543
:102A4000FEE0E491F0E0EE0FFF1FE05DF14F8591B5
:102A500094919093AA038093A903E8E6FEE0E491A1
:102A6000E093AB03089510929B0310929A03109287
:102A7000990310929803D1CFCF93DF93CDB7DEB7F0
:102A8000CC53D1400FB6F894DEBF0FBECDBF7894C3
:102A900084B5826084BD84B5816084BD85B5826063
:102AA00085BD85B5816085BD80916E008160809314
:102AB0006E0010928100809181008260809381007D
:102AC000809181008160809381008091800081608D
:102AD000809380008091B10084608093B1008091E8
:102AE000B00081608093B00080917A008460809310
:102AF0007A0080917A00826080937A0080917A00D7
:102B0000816080937A0080917A00806880937A0057
:102B10001092C100E0910903F0910A0382E08083E2
:102B2000E0910503F09106031082E0910703F09114
:102B3000080380E1808310921103E0910D03F0916E
:102B40000E0386E08083E0910B03F0910C038081FB
:102B500080618083E0910B03F0910C038081886099
:102B60008083E0910B03F0910C0380818068808367
:102B7000E0910B03F0910C0380818F7D808361E0F5
:102B800088E00E94B10860E088E00E94830861E06C
:102B900080E00E94B10860E080E00E94830862E06B
:102BA00081E00E94B1086EEE72E080E090E00E9449
:102BB000120980919C0390919D0397FD2EC061E0C6
:102BC0000E94B10860E080919C030E94830881E02C
:102BD0008093970360919E03613539F120919F03A3
:102BE0003091A003615070E0D9F08FEF90E50E9422
:102BF0001527F90140919A0350919B03CF01821B45
:102C0000930B8417950770F44081469FC001479F3E
:102C1000900D112490833196EDCF10929703DACF67
:102C200060E0E7CF81E580939E030E943E0D0E9405
:102C3000F10F8FE093E00E944A0A89E093E00E943E
:102C4000E50F0E945F08892B09F02EC186ED92E006
:102C50000E94E50F81EA92E00E94E50F82E792E090
:102C60000E94E50F01E010E00E94F10F8FED91E06E
:102C70000E94E50F1092E7021092E6021093EE0216
:102C80000093ED0220911F0130912001409121011C
:102C9000C45DDE4F288339834A83CC52D1401E0164
:102CA00031E4230E311C8091650190916601A09161
:102CB0006701CF5CDE4F88839983AA83C153D140DB
:102CC000209160013091610140916201CC5CDE4F46
:102CD000288339834A83C453D140A1014E5E5F4F9C
:102CE000C15DDE4F59834883CF52D1408091680146
:102CF00090916901A0916A01C95CDE4F8883998334
:102D0000AA83C753D140DE01A058BF4FCF5DDE4F2D
:102D1000B983A883C152D140FE01E954FF4FCD5D74
:102D2000DE4FF983E883C352D1402091680130918E
:102D3000690140916A01C65CDE4F288339834A836A
:102D4000CA53D1400E9445096B017C010091ED02FC
:102D50001091EE028091E9029091EA02A091EB02BB
:102D6000B091EC02A7019601281B390B4A0B5B0BB3
:102D7000DA01C901C297A105B105D8F08090E60239
:102D80009090E702C092E902D092EA02E092EB0250
:102D9000F092EC020E945F0877247394892B09F06B
:102DA000712CA72CB12C0A151B0509F08CC01092B0
:102DB000E80201151105F1F4A090E602B090E702D7
:102DC00089EF92E00E94BB09892BA1F089EF92E084
:102DD0000E9499098F7D833569F4AA94AB2851F03C
:102DE00089E59DE00E94E50F81E090E09093E70285
:102DF0008093E6028091E2029091E302A091E402C6
:102E0000B091E502A7019601281B390B4A0B5B0B19
:102E1000DA01C901883C9105A105B10540F1A090F6
:102E2000E602B090E702C092E202D092E302E092A2
:102E3000E402F092E5020E948C0FA114B10409F0A3
:102E400074C0882309F471C00E94F10F8CE29DE0E8
:102E50000130110511F088E09DE00E94E50F0E940D
:102E6000F10F81E090E09093E7028093E602809179
:102E7000E6029091E702009709F077C081E0012B0C
:102E800009F080E08093000181E08093E00280E01F
:102E900090E0892B09F456CF0E94C709882309F4D2
:102EA00032CF0E9400002FCF8CE492E00E94E50F09
:102EB0008BE192E00E94E50F86EF91E00E94E50F22
:102EC00010E000E0D1CE8091E8028F5F843018F4EA
:102ED0008093E8026ECF1092E802B092EE02A092C8
:102EE000ED02C4010297029710F08928A9F40E940C
:102EF0003E0D1092E7021092E6020E94F10F31E0BF
:102F000073120CC080EF9DE00E94E50F81EC9DE004
:102F10000E94E50F0E94F10F85014BCF8CE99DE0E7
:102F20000E94E50F82E79DE0F3CF32E0A31AB108DB
:102F300042E0A416B10408F09ACF811198CF0E9404
:102F4000F10F8AED9CE00130110511F08CEB9CE053
:102F50000E94E50F0E94F10F0E943E0D1092E702C1
:102F60001092E6021092E10282CF1092E0020197E5
:102F700009F08DCF8091DF020130110509F03BC1CE
:102F800081110E94D20E0E94560EC45DDE4F6881F0
:102F900079818A81CC52D1400E940A0C88E0CD5DB3
:102FA000DE4FA881B981C352D1401D928A95E9F7BD
:102FB000CE0189549F4F0E940A13182F80E2CF5DE3
:102FC000DE4FE881F981C152D14011928A95E9F72B
:102FD000CE0180589F4F0E941F1181309105F9F05A
:102FE000019639F482E594E00E94E50F0E94360DC7
:102FF0000CC082E394E00E94E50F6091680170913B
:10300000690180916A010E94A40F0E94060CCB5DA9
:10301000DE4F1882C552D14083E090E03CC01111D0
:1030200004C08CE094E00E94E50F41E0BE016058CE
:103030007F4FCE0189549F4F0E94150F182F8CEFA0
:1030400093E00E944A0A17FF03C08CED93E0CCCFB7
:10305000812F110F990B0E944A10CF56DF4F8881A4
:10306000C159D0408F7009F449C084EA93E00E94AE
:10307000E50F609168017091690180916A010E9479
:10308000A40F0E94060C21E0CB5DDE4F2883C552C1
:10309000D14082E090E09093E7028093E602CB5D1E
:1030A000DE4FB881C552D140B111F1CE8CE99CE020
:1030B0000E94E50FECCE882369F10E94F10FCB5DF1
:1030C000DE4F2881C552D140222309F46AC08DE227
:1030D00093E00E94E50F0E94F10FE5E6F1E06081C8
:1030E000718182810E94A40F0E94060CCB5DDE4F8D
:1030F0003881C552D1403111CCCF8ECF11E004EDD3
:10310000609060017090610180906201AE014F5F3C
:103110005F4F7A0182E993E00E944A0A812F0E9460
:10312000391080E2FE01E058FF4FD10101900D926D
:103130008A95E1F7D10151960C9348E260E2C10112
:103140000E948A0A482F6BE2C1010E94F30B882D6E
:10315000B3010E940A0C68E873E0C1010E943A13AF
:10316000CB5DDE4F8883C552D140811103C00E94E0
:10317000060C52CF0E94560E80E2F70111928A95FA
:10318000E9F7C7010E947910CB5DDE4F8883C552F5
:10319000D140811114C082E793E00E94E50F0E94A4
:1031A000F10F8CE193E00E94E50F0E94F10FCB5DDF
:1031B000DE4F1882C552D140E8E6F1E090CF8CE5B1
:1031C00093E00E944A0A8A898F700E9439108A8986
:1031D0008F701F5F173009F06ECFF1E0CB5DDE4FCF
:1031E000F883C552D140811168CFCB5DDE4F188284
:1031F000C552D14062CF81110E94D20E0E94560E5C
:10320000C45DDE4F688179818A81CC52D1400E94B1
:103210000A0C8FE3D1011D928A95E9F780E090ECCA
:10322000A9E7B4ECF10186A797A7A0ABB1AB82A741
:1032300093A7A4A7B5A78FEF818B9E0129503F4F7D
:10324000C15EDE4F39832883CF51D14080E2D9015E
:103250001D928A95E9F7C9010E941F11009749F450
:1032600085E69CE00E94E50F0E94060C1092F80291
:10327000CECE019619F50E94F10F8AE39CE00E94E0
:10328000E50F82E09CE00E94E50F8BED9BE00E9441
:10329000E50F0E94F10F60916801709169018091C2
:1032A0006A010E94A40F0E94060C1092F802E1E04D
:1032B000CB5DDE4FE883C552D140EBCEB1016E5EEF
:1032C0007F4FCE0189509F4F0E94730BB101CE01F9
:1032D00089509F4F0E94A40AC10108960E940A13B8
:1032E000D10150968C93811104C08AE794E00E942A
:1032F000E50F40E0BE0169507F4FC10108960E9472
:10330000150FF101818B853009F0BEC0C058DF4F29
:103310001882C058D040E12C8E0100581F4F21E088
:1033200043E251E061E090E080E00E94620E811192
:1033300071C06CE871E0C1010E94C22A0E94F10FC5
:1033400089EC9BE00E944A0AC1010E94C71187E3F1
:10335000CF5DDE4FE881F981C152D14011928A954B
:10336000E9F7D10151968C915197853009F4B4C099
:10337000FE0131966F01D2967C90863009F426C208
:103380008BE1DF011D928A95E9F7B5E0B71510F4DE
:10339000A5E07A2E2BE1A60164E084E391E00E948F
:1033A000040E892B09F0A5C269817A816115710526
:1033B00009F49FC290E080E00E946B2820E030E09A
:1033C0004AE754E40E94C3274B015C018E01005878
:1033D0001F4F412CF2E0CF0ED11C0C5F1F4F741415
:1033E00009F4A9C2D60111966C9111978C91762F90
:1033F000682F90E080E00E946B2820E030E04AE7F0
:1034000054E40E94C327F80160837183828393830D
:103410004394E0CF6AE070E080E090E00E94460DC7
:103420001A82198242E0E42E8E010F5F1F4F21E0C5
:1034300042E251E060E090E080E00E94620E88236A
:1034400009F477CF99818A819F3FC1F48F3F09F4B6
:1034500070CF1F929F931F928F9383E991E09F9368
:103460008F931F9288E08F933F922F920E94C92AD8
:103470000FB6F894DEBF0FBECDBF60CF9111E9CF7C
:10348000882309F456CFE5CF8E010F5F1F4F80E1EF
:10349000D8011D928A95E9F720E1A80162E084E253
:1034A00091E00E94040E892B19F0F101108246CFA1
:1034B000F801D1019E01285F3F4F819190EE980F56
:1034C0009F3528F01C92D10117961C9237CF8D930F
:1034D000E217F30791F7F7CF6AE070E080E090E041
:1034E0000E94460DD101D2961C91C954DF4F19821A
:1034F0001882C75BD04020E0AE0149545F4F62E0C4
:103500008CE291E00E94C20E882309F452C120E0AF
:10351000AE0149545F4F62E08CE291E00E94C20E1E
:1035200022E0AE0149545F4F61E087E291E00E94E2
:10353000C20E412EB5E0B11710F435E0432EFE0166
:10354000E058FF4F7F0110E000E0712C812C912C9E
:1035500054010415B0F51A82198222E0AE014F5FC2
:103560005F4F61E0C801895D9E4F0E94C20E8823B3
:1035700011F169817A81CB0101978E3F9F4FD8F479
:1035800090E080E00E946B2820E030E04AE754E4BD
:103590000E94C3279B01AC01D70114962D933D9344
:1035A0004D935C931797C501B4010E9452274B01BC
:1035B0005C01772473940F5F1F4FB4E0EB0EF11C96
:1035C000C8CFE72DE1707E2E1A82198222E0AE016B
:1035D0004F5F5F4F61E086E291E00E94C20E882358
:1035E00009F4DFC069817A81CB0101978E3F9F4F3B
:1035F00008F0D7C090E080E00E946B2820E030E027
:1036000048EC52E40E94C3276B017C0160E070EC3F
:1036100089E794ECD1019A96CD92DD92ED92FC92DD
:103620009D97F10166A777A780AB91AB8189863022
:1036300009F03DC00E94680D0E946207082F10E04B
:10364000882371F083E691E00197F1F782ED0E9403
:10365000D6078BE891E00197F1F70E949B07182F9E
:103660000E94060C60E070EC89E794EC0023C1F046
:10367000612F70E090E080E00E946D2820E030E053
:1036800040E252EC0E94222920E03CEA41E156E46B
:103690000E94522720E030E048EC52E40E94C32709
:1036A000D1019A966D937D938D939C939D97FE0186
:1036B000E05AFF4F8BE0DF011D928A95E9F7F10197
:1036C00011898BEF810F823008F0B4C126892E3129
:1036D00008F4ADC12D51330BD10157960D911C91BA
:1036E000589755964C9183E290E0841B910997FF7F
:1036F00002C090E080E0820F931F809FB001819F05
:10370000700D909F700D112490E080E00E946B2856
:1037100020E030E040E05DE30E9422296B017C0163
:10372000B80190E080E00E946B289B01AC01C701CA
:10373000B6010E9452276B017C01F10183898A3115
:1037400041F08C3131F0883221F068E572E082334B
:1037500011F468EE73E090E080E00E946B289B011A
:10376000AC01C701B6010E94C3279B01AC0160E018
:1037700070E080E890E40E9451276B017C0120E01A
:1037800030E0A9010E94BE2787FF03C0C12CD12CC5
:103790007601D1015F96CD92DD92ED92FC929297E7
:1037A0001AC2C12C20ECD22E29E7E22E24ECF22EF4
:1037B0002DCFC12C90ECD92E99E7E92E94ECF92E5F
:1037C000712C412C812C912C540120CFC954DF4FF6
:1037D0001882C75BD04084E1DF011D928A95E9F72A
:1037E0000E94680DE12C8E0109541F4F22E04EE229
:1037F00051E06CEC80E00E94720D6AE070E080E0C5
:1038000090E00E94460D0E946207482E8823E9F04E
:1038100083E691E00197F1F784ED0E94D6078BE8EB
:1038200091E00197F1F75601025A110983E6E82E5B
:10383000FF24F3940E949B07F50181935F01C70168
:103840000197F1F70E171F07A9F70E94060C4420F5
:1038500009F441C0FAE0F71510F4BAE07B2E8E01AE
:1038600000581F4F412C812C912C54010C5F1F4F8D
:103870007414E1F1D60111966C9111978C91762F09
:10388000682F90E080E00E946B2820E030E040E26A
:1038900051E40E94C3279B01AC0160E070E88BEB10
:1038A00095E40E94512720E030E04AE754E40E946A
:1038B000C3279B01AC01F8012083318342835383EA
:1038C000C501B4010E9452274B015C014394F2E010
:1038D000CF0ED11CCBCF712C812C912C540160E0E8
:1038E00070EC89E794EC6B017C0194CE772473949F
:1038F000F6CF8DE0CD5DDE4FE881F981C352D14036
:1039000011928A95E9F72DE0AE0149545F4F64E0CA
:1039100080E391E00E94040E892B09F440C060E02E
:1039200070EC89E794EC6B017C01712C412C812CAB
:10393000912C54016FCE6F85788909891A89CB0142
:103940000197C12CF0ECDF2EF9E7EF2EF4ECFF2EFF
:103950008E3F9F4F60F490E080E00E946B2820E053
:1039600030E048EC52E40E94C3276B017C01C8019F
:1039700001978E3F9F4F70F4B80190E080E00E9465
:103980006B2820E030E048EC52E40E94C327772403
:10399000739440CE60E070EC89E794ECF8CFCD539F
:1039A000DF4F8881C35CD040863009F0B8CFC9545E
:1039B000DF4F68817981C75BD04090E080E00E9452
:1039C0006B2820E030E04AE754E40E94C3274B0113
:1039D0005C018E0109541F4FAE0140585F4F7A01C0
:1039E000412C0E5F1F4F54E0E50EF11C7414C1F022
:1039F000D80111966C9111978C91762F682F90E0D9
:103A000080E00E946B2820E030E04AE754E40E9406
:103A1000C327F70160837183828393834394E1CF4B
:103A200060E070EC89E794EC6B017C01B0CF30E092
:103A300020E052CE812F0E94C90F882309F439C19A
:103A4000F101638819821A821B8281E0123021F011
:103A500082E0133009F080E0F4E08F9FC001112470
:103A600043E08E010F5F1F4FB801885C9E4F0E949C
:103A7000130E69817A81811102C070E060E06620D6
:103A8000A1F190E080E00E946B286B017C01662D23
:103A900070E090E080E00E946D289B01AC01C701BE
:103AA000B6010E94C3276B017C0120E030E040EAB0
:103AB00052E40E941D2918160CF49FC020E030E04B
:103AC00040E251E4C701B6010E94C32720E030E084
:103AD00040EA50E40E9451276B017C0120E030E075
:103AE000A9010E94BE2787FF03C0C12CD12C7601FB
:103AF000D1015F96CD92DD92ED92FC929297519614
:103B0000FC908F2D0E94C90F81117EC080E0D101F1
:103B100095968C93959751968C91823009F48DC02F
:103B2000833009F4A9C08111BDC088E0F801119269
:103B30008A95E9F748E0B80188E591E00E94130E04
:103B4000882309F4AFC02F81F0E12F9FA001112439
:103B5000407F53709E81292F30E064E03595279592
:103B60006A95E1F7242B352B8D8190E0982F8827DB
:103B7000882793704C81842B820F931F4981429533
:103B80004695469543702A8154E0259F9001112463
:103B9000242B820F931FD10194969C938E9393971D
:103BA00051968C91811181C085E0F80111928A951E
:103BB000E9F745E0B8018CE591E00E94130E8823F7
:103BC00009F473C089819A81AB81BC81F10186A31C
:103BD00097A3A0A7B1A70E948C0FCB5DDE4F88836F
:103BE000C552D140811183C082EA9BE00E94E50F5B
:103BF0000E94060C1092F8020FCAC12CD12CE0E8EA
:103C0000EE2EE0E4FE2E74CF1A821982B2E081E03B
:103C1000FB1621F0E3E082E0FE1280E0F4E08F9FEB
:103C2000C001112442E0B8018C5B9E4F0E94130E2C
:103C3000882309F46BCF89816ACF88E0D8011D926F
:103C40008A95E9F748E0B80184E591E00E94130EF7
:103C5000882341F129818B81E22FE80FFF27FF1F85
:103C60002C812E0F3F2F311D8E81280F311D8F810A
:103C7000820F932F911D8FCF86E0D8011D928A95D8
:103C8000E9F746E0B80180E591E00E94130E882331
:103C900049F089819B81E82FE90FFF27FF1F9F01D2
:103CA0008C81E6CF90E080E076CF80E090E0DC0190
:103CB0008DCFC25FDE4F6881CE50D1406F7070E013
:103CC00075956795C12CD12C40E8E42E40E4F42E84
:103CD000633008F45ECD673009F458CD6250710945
:103CE000072E000C880B990B0E946D283ECDC75DF6
:103CF000DE4F7882C952D140711004C08AE69BE041
:103D00000E94E50F0E94F10F82E299E00E944A0AA8
:103D1000C1010E94C71180E199E00E944A0AF101A5
:103D20008089882309F487C48101085F1F4FF12C23
:103D3000D8018D918D01803118F480E30E94650ACD
:103D4000F8013197608170E090E080E040E10E94EE
:103D5000F50FB7E0FB1619F080E20E94650AF394B4
:103D6000E8E0FE12E5CF0E94E10FD10118968C9198
:103D700018971F928F9319968C9119971F928F9372
:103D80001A968C911F928F938EE991E09F938F9357
:103D90001F928DE08F938E010F5F1F4F1F930F9324
:103DA0000E94C92A8EEF98E00E944A0AC8010E9428
:103DB000C7110FB6F894DEBF0FBECDBF8EED98E0F1
:103DC0000E944A0AD10151968C91082E000C990B41
:103DD0000E944A108CEC98E00E944A0AF101628924
:103DE00070E090E080E04AE00E94F50F88EC98E0F7
:103DF0000E944A0AD10152968C918D3008F020C45D
:103E00008AEB98E00E944A0A89E20E94650A0E94B1
:103E1000E10F8BE898E00E944A0AF10163A974A9B6
:103E200085A996A941E00E94D71187E898E00E94F1
:103E3000E50F0E94F10F85E798E00E944A0AD10140
:103E4000D7968C91882309F403C48CE598E00E94EE
:103E5000E50F83E698E00E944A0AF101818D8823EC
:103E600009F4F9C38BE298E00E94E50F81E498E041
:103E70000E944A0AD10154966C9183EE94E061301D
:103E8000A1F082EF94E0613080F087ED94E065303E
:103E900061F08CEC94E06F3041F070E090E080E0F5
:103EA0004AE00E94F50F86EB94E00E94E50F8FE256
:103EB00098E00E944A0AF10180AD882309F4CEC33C
:103EC00083E198E00E94E50F86E198E00E944A0AAB
:103ED000D101D9968C91882309F4C3C38AEF97E066
:103EE0000E94E50F8DEF97E00E944A0AF10182AD32
:103EF000882309F4B9C381EE97E00E94E50F84EEB0
:103F000097E00E944A0AD101DB968C91882309F43C
:103F1000AEC388EC97E00E94E50F8BEC97E00E941F
:103F20004A0AF10184AD882309F4A4C381EC97E027
:103F30000E94E50FC850DF4F8881C85FD0408632AD
:103F400009F09BC38AE997E00E94E50F62E2CE0187
:103F500089509F4F0E9451098111B4C380E697E0B8
:103F60000E94E50FC75FDE4F8881C950D14088238A
:103F700009F4C6C38CE497E00E94E50FC65FDE4FEC
:103F80008881CA50D140882309F4BDC31F928F9302
:103F900080E492E09F938F931F9280E48F938E0131
:103FA0000F5F1F4F1F930F930E94C92AC8010E94E1
:103FB000C7110FB6F894DEBF0FBECDBFF10187A9C0
:103FC000882309F498C085AD96AD892B09F493C078
:103FD00088EC95E00E94E50FD101DD968C91DD978C
:103FE00080FF1AC054968C911F928F938BE592E0BC
:103FF0009F938F931F9280E38F938E010F5F1F4FCC
:104000001F930F930E94C92AC8010E94C7110FB6BF
:10401000F894DEBF0FBECDBFD101DD968C9181FF3C
:1040200004C08DE995E00E94E50FF10185AD82FFA6
:1040300004C081E795E00E94E50FD101DD968C91E7
:1040400083FF04C085E495E00E94E50FF10185AD92
:1040500085FF1DC0C850DF4F8881C85FD0401F92C8
:104060008F938DE792E09F938F931F9280E38F93BE
:104070008E010F5F1F4F1F930F930E94C92AC80123
:104080000E94C7110FB6F894DEBF0FBECDBFD1019D
:10409000DD968C9186FF1DC0C85FDE4F8881C850B9
:1040A000D1401F928F9384EA92E09F938F931F9247
:1040B00080E38F938E010F5F1F4F1F930F930E941A
:1040C000C92AC8010E94C7110FB6F894DEBF0FBEFF
:1040D000CDBFD101DD968C9187FF04C08FE195E0C3
:1040E0000E94E50FF10185AD96AD90FF04C089EF08
:1040F00094E00E94E50F0E94F10FD10157968D9137
:104100009C91892B71F084EE96E00E944A0AF1019D
:104110006789708D90E080E04AE00E94F50F0E9470
:10412000E10F20E030E0A901D1015F966D917D9112
:104130008D919C9192970E941D2918160CF040C0F9
:1041400082ED96E00E944A0AF101678D70A181A17B
:1041500092A142E00E94D7118AEC96E00E944A0A9E
:10416000D1015F96CD90DD90ED90FC90929720E08C
:1041700030E0A901C701B6010E941D2920E030E00E
:1041800040E05FE387FDC4C2C701B6010E94522729
:104190000E9435288B01F12CE12C83E2E016F10618
:1041A0000CF08DE20E94650ABFEFEB1AFB0AE4E017
:1041B000EE16F10491F789E20E94650A0E94E10F70
:1041C000D10151968C910E94C90F882309F489C0AE
:1041D000F10185A18823E1F188EB96E00E944A0A6B
:1041E000D10195968C910E943910F1018789908DAB
:1041F000892B71F186EA96E00E944A0AD1019596D0
:104200006C9170E090E080E00E946D2820E030E04A
:1042100048EC52E40E9422296B017C01F10167897C
:10422000708D90E080E00E946B289B01AC01C7017B
:10423000B6010E94C32720E030E040E850E40E942D
:10424000522741E00E94D71183EA96E00E94E50FD1
:10425000D10193968D919C91892B09F442C081E9FB
:1042600096E00E944A0AF10163A174A190E080E007
:104270004AE00E94F50F0E94E10FD10157968D91FF
:104280009C91892B71F18FE796E00E944A0AF10117
:1042900063A174A190E080E00E946B2820E030E0F0
:1042A00048EC52E40E9422296B017C01D10157960F
:1042B0006D917C9190E080E00E946B289B01AC01A5
:1042C000C701B6010E94C32720E030E040E850E477
:1042D0000E94522741E00E94D7118CE796E00E948D
:1042E000E50FF10181898550823008F045C085894C
:1042F0008823F9F08AE696E00E944A0AD101559691
:104300006C9170E090E080E00E946D2820E030E049
:1043100040EA50EC0E94222920E030E040E253E4E1
:104320000E94522741E00E94D71187E696E00E9442
:10433000E50FF10186898823F9F085E596E00E9472
:104340004A0AD10156966C9170E090E080E00E949C
:104350006D2820E030E040EA50E40E94222920E06D
:1043600030E040E253E40E94512741E00E94D7111F
:1043700082E596E00E94E50F20E030EC49E754EC3E
:10438000F10162A573A584A595A50E94BE27882387
:1043900091F080E496E00E944A0AD1019A966D91CC
:1043A0007D918D919C919D9741E00E94D7118DE365
:1043B00096E00E94E50F20E030EC49E754ECF10173
:1043C00066A577A580A991A90E94BE27882391F0B0
:1043D0008BE296E00E944A0AD1019E966D917D91F2
:1043E0008D919C91D19741E00E94D71188E296E08F
:1043F0000E94E50F0E94F10F86E196E00E944A0AB2
:10440000C501B4010E94AF12772011F0411085C19F
:1044100082E096E00E94E50FD10151968C910E94B6
:10442000C90F882309F451C0F10166A177A180A5C5
:1044300091A5611571058105910509F446C013899F
:10444000112309F442C00E946B286B017C01612F8B
:1044500070E090E080E00E946D289B01AC01C701F4
:10446000B6010E94C32720E030E044E355E40E94F7
:10447000C3276B017C0120E030E040E251E40E9460
:10448000BE2711E087FD10C020E030E040E251E49B
:10449000C701B6010E94C3270E9435286830710504
:1044A00014F067E070E0162F0E94F10F8EED95E09A
:1044B0000E944A0A612F70E090E080E04AE00E948A
:1044C000F50F89ED95E00E94E50F0E94F10F70E075
:1044D00060E0CE0189509F4F0E948A110E94F10F27
:1044E000772009F46CC0F1E0F41508F0C2C1CC5794
:1044F000DF4FA880C458D040CB57DF4FB880C55895
:10450000D040CA57DF4F0881C658D040C957DF4F47
:104510001881C758D04020E830E02C0F3D1F285F9D
:104520003F4FCA5DDE4F39832883C652D1403501E3
:10453000480155245394CA5DDE4FA881B981C65203
:10454000D140CD90DD90ED90FD90CA5DDE4FB983F6
:10455000A883C652D1409501A801C701B6010E94A7
:104560001D29181614F4560187019301A401C701EF
:10457000B6010E94BE2787FF02C03601470153944F
:104580005410D9CF9301A401B501C8010E9451274D
:104590006B017C012AE939E949E95EE30E941D29A2
:1045A00087FD67C181E59BE00E944A0A43E0C7019D
:1045B000B6010E94D71185E39BE00E94E50FF1014F
:1045C00087A981115CC189E19BE00E94E50F6091A0
:1045D000650170916601809167010E94A40FD1016D
:1045E00051968C910E94C90F81110E94560E0E9413
:1045F000F10F8BE29BE00E94E50FC75DDE4FE88183
:10460000C952D140E093E102D101D7968C91E5E601
:10461000F1E0882319F080E5E8E6F1E091818093EC
:10462000DE029093DD021092DC020E94060C1092D2
:10463000F8020C94491880EF98E00E94E50FBECB79
:104640008E3118F48CEA98E0DDCB8DE998E0DACB76
:1046500083E598E0FCCB88E298E006CC8FE098E018
:1046600031CC86EF97E03CCC8DED97E046CC84ECE6
:1046700097E051CC8DEB97E05BCC863319F484E75F
:1046800097E062CC8E010F5F1F4F8823B1F01F921D
:104690008F938FEA91E09F938F931F9280E48F9383
:1046A0001F930F930E94C92AC8010E94C7110FB619
:1046B000F894DEBF0FBECDBF49CC1F921F9286ED8E
:1046C00091E0E9CFC85FDE4F8881C850D1401F928A
:1046D0008F938CE092E09F938F931F9280E48F934F
:1046E0008E010F5F1F4F1F930F930E94C92AC801AD
:1046F0000E94C7110FB6F894DEBF0FBECDBF32CCFB
:1047000081E297E039CC86EF96E00E94E50F56CC27
:10471000C701B6010E9451273BCDCC57DF4F88809F
:10472000C458D040CB57DF4F9880C558D040CA57A7
:10473000DF4FA880C658D040C957DF4FB880C75850
:10474000D040E0E8F0E0EC0FFD1F3496C65DDE4F90
:10475000F983E883CA52D140CA5DDE4F8882C652CF
:10476000D140592C6A2CC85DDE4FB882C852D14066
:1047700010E000E0041508F065C00F5F1F4F1F93A5
:104780000F9328EC32E03F932F931F9256E15F93F3
:1047900081E090E08C0F9D1F9F938F930E94C92A08
:1047A000CE0101960E94D40FC65DDE4FA881B9816B
:1047B000CA52D140CD90DD90ED90FD90C65DDE4FA8
:1047C000B983A883CA52D140C701B6010E94AF1273
:1047D0000FB6F894DEBF0FBECDBF9401A501C7018F
:1047E000B6010E941D29181614F446015701CA5D2E
:1047F000DE4F2881C652D140352D462DC85DDE4F93
:104800005881C852D140C701B6010E94BE2787FD1A
:104810000CC0CA5DDE4FC880C652D140D52CE62CF4
:10482000C85DDE4FF880C852D140CA5DDE4FC882F5
:10483000C652D1405D2C6E2CC85DDE4FF882C85246
:10484000D14098CF80EF95E00E944A0ACA5DDE4FC2
:104850002881C652D140352D462DC85DDE4F588186
:10486000C852D140B401C5010E9451270E94AF1225
:10487000D3CDC75DDE4F1882C952D140A0CE818909
:104880000E94C90F81112CC08AEF9AE00E944A0A47
:10489000D1015196CC900C2C000CDD08EE08FF08DD
:1048A0004AE0C701B601F7FE0BC08DE20E94650A1F
:1048B00066277727CB016C197D098E099F094AE08D
:1048C0000E94F50F8EEE9AE00E94E50FC65CDE4F67
:1048D000688179818A81CA53D1400E94A40F87CE12
:1048E0008EED9AE00E94E50F0E94360D87EC9AE06B
:1048F0000E94E50F0E94360D0E94560E0E94F10E96
:104900008E0109521F4F892B09F05DC088E0F80124
:1049100011928A95E9F789E0CD5DDE4FA881B981D2
:10492000C352D1401D928A95E9F729E0AE0149545E
:104930005F4FB80183E691E00E94BC120E94D20E44
:104940000E94560EFE0131967F0180E2DF011D922A
:104950008A95E9F7CF010E9479108823A1F180E2BE
:10496000F701DE01A950BF4F01900D928A95E1F742
:10497000C15DDE4F68817981CF52D140CE0189502F
:104980009F4F0E94730BB101CE0189509F4F0E942F
:10499000A40AF10187A9811112C080EB9AE00E945C
:1049A000E50F82ED99E00E94E50FCF5CDE4F688154
:1049B00079818A81C153D1400E94A40F16CE81E82B
:1049C0009AE00E94E50F412C512C320143949E0144
:1049D0002F5F3F4F6901AE01495E5E4FC15EDE4F02
:1049E00059834883CF51D1408EE59AE00E944A0A0C
:1049F0004AE0C301B2010E94F50F8CE59AE00E94E3
:104A0000E50FCC5CDE4F688179818A81C453D14047
:104A10000E940A0C80E2FE01E950FF4FD80101908C
:104A20000D928A95E1F7D8018C91811102C0E1EFD6
:104A3000EC93E8E5D8011596EC93159716961C9221
:104A4000169717961C92179780E41A968C931A97CC
:104A500081E21B968C931B9780E81D968C931D9783
:104A600082E01E968C931E9756961C92569780ED68
:104A700051968C93519752968C915297811103C005
:104A80008EE852968C93D80111968C918F7E863247
:104A900071F1C750DF4F9881C95FD0409D3B09F449
:104AA000A8C081E0963B09F080E090E0C650DF4F5F
:104AB0002881CA5FD040233109F09EC09F5FC55056
:104AC000DF4F2881CB5FD040243109F09AC09F5F2F
:104AD000CD5FDE4F2881C350D140203D09F096C004
:104AE0009F5F981708F097C086E3F8018183D8018B
:104AF00053968C91882311F0853AA1F4C95FDE4F5B
:104B00008881C750D140F8019181963309F485C05E
:104B10008A3308F084C0803308F481C085E4D8016A
:104B200053968C9340E068E2C8010E94F30B4FE07B
:104B300060E0C8010E948A0A482F69E2C8010E9409
:104B4000F30B4FE160E1C8010E948A0A482F6AE234
:104B5000C8010E94F30B48E260E2C8010E948A0A81
:104B6000482F6BE2C8010E94F30B4FE26CE2C801D0
:104B70000E948A0A482F6EE3C8010E94F30B4DE39E
:104B800060E3C8010E948A0A482F6FE3C8010E94AF
:104B9000F30B6AEA79E0C8010E948A1167EA79E0BA
:104BA000C8010E943A138823C1F00E94560E80E289
:104BB000CD5DDE4FE881F981C352D14011928A95D3
:104BC000E9F7CE0189549F4F0E947910F82E811188
:104BD00028C08AE899E00E94E50F81EF99E005C1BD
:104BE0005FEF451A550A650A750AFF2009F4FCCEE5
:104BF000D8CE80E091E05ACF233C09F060CF8F5FA0
:104C00005ECF283109F064CF8F5F62CF213009F089
:104C100068CF8F5F66CF86E268CF8BE180CF87E673
:104C20007ECF4FE060E0CE0189549F4F0E948A0AF8
:104C3000882EC553DF4FF881CB5CD040CA5DDE4F74
:104C4000F883C652D1409F2E92949FE099224FE163
:104C500060E1CE0189549F4F0E948A0AA82EC45356
:104C6000DF4FE880CC5CD0402E2D2F70C85DDE4F2A
:104C70002883C852D14048E260E2CE0189549F4F58
:104C80000E948A0AB82EE2942FE0E2228BE799E094
:104C90000E944A0A83E699E0891411F08AE599E0B6
:104CA0000E944A0A80E20E94650AC85DDE4F388190
:104CB000C852D14081E599E0A31611F087E499E04C
:104CC0000E944A0A80E20E94650A8EE399E0BE14BF
:104CD00011F084E399E00E94E50F891078C0C85D67
:104CE000DE4F4881C852D140A41271C0BE106FC0BF
:104CF000CA5DDE4F8881C652D1408F7009F067C00F
:104D00008BE699E00E94E50F0E94560E0E94F10E7C
:104D1000892BD1F488E0C15EDE4FA881B981CF51E3
:104D2000D1401D928A95E9F789E0F60111928A95A2
:104D3000E9F729E0A601BE01695E7E4F83E691E0B6
:104D40000E94BC120E94D20E0E94560E80E2E82EF3
:104D5000D601EE2D1D92EA95E9F7C6010E94791061
:104D6000F601DE01A950BF4F01900D92EA94E1F7E0
:104D7000C15DDE4F68817981CF52D140CE0189502B
:104D80009F4F0E94730BB101CE0189509F4F0E942B
:104D9000A40AD101D7968C91811125C085E39AE0B0
:104DA0000E94E50FB6E04B1651046104710409F04E
:104DB00017CFF110F6CD8CEB99E00E94E50FC95C9E
:104DC000DE4F688179818A81C753D14086CD80E2E8
:104DD000FE01E954FF4FDE01A950BF4F01900D9233
:104DE0008A95E1F7FACE8BE09AE00E94E50FF12C6C
:104DF000D9CF80919F039091A0030E94302A809187
:104E00009C0390919D0397FD03C060E00C94B10852
:104E10000895991B79E004C0991F961708F0961B16
:104E2000881F7A95C9F780950895AA1BBB1B51E18D
:104E300007C0AA1FBB1FA617B70710F0A61BB70B0A
:104E4000881F991F5A95A9F780959095BC01CD01AF
:104E50000895A1E21A2EAA1BBB1BFD010DC0AA1FBB
:104E6000BB1FEE1FFF1FA217B307E407F50720F0D3
:104E7000A21BB30BE40BF50B661F771F881F991F4E
:104E80001A9469F760957095809590959B01AC0197
:104E9000BD01CF010895EE0FFF1F0590F491E02DA5
:104EA00009945058BB27AA270E9469270C94E3282D
:104EB0000E94D52838F00E94DC2820F039F49F3F6A
:104EC00019F426F40C94D2280EF4E095E7FB0C9428
:104ED000CC28E92F0E94F42858F3BA176207730709
:104EE0008407950720F079F4A6F50C9416290EF4A2
:104EF000E0950B2EBA2FA02D0B01B90190010C01EA
:104F0000CA01A0011124FF27591B99F0593F50F401
:104F1000503E68F11A16F040A22F232F342F442759
:104F2000585FF3CF469537952795A795F040539551
:104F3000C9F77EF41F16BA0B620B730B840BBAF021
:104F40009150A1F0FF0FBB1F661F771F881FC2F78C
:104F50000EC0BA0F621F731F841F48F487957795A0
:104F60006795B795F7959E3F08F0B0CF9395880F5A
:104F700008F09927EE0F9795879508950E94A82825
:104F800008F481E008950E94D7270C94E3280E943A
:104F9000DC2858F00E94D52840F029F45F3F29F022
:104FA0000C94CC2851110C9417290C94D2280E94EF
:104FB000F42868F39923B1F3552391F3951B550B0E
:104FC000BB27AA2762177307840738F09F5F5F4FDC
:104FD000220F331F441FAA1FA9F335D00E2E3AF01B
:104FE000E0E832D091505040E695001CCAF72BD033
:104FF000FE2F29D0660F771F881FBB1F2617370784
:105000004807AB07B0E809F0BB0B802DBF01FF27B5
:1050100093585F4F3AF09E3F510578F00C94CC289E
:105020000C9417295F3FE4F3983ED4F38695779567
:105030006795B795F7959F5FC9F7880F911D96956E
:10504000879597F90895E1E0660F771F881FBB1FCA
:10505000621773078407BA0720F0621B730B840B77
:10506000BA0BEE1F88F7E09508950E943C286894DB
:10507000B1110C94172908950E94FC2888F09F57BD
:1050800098F0B92F9927B751B0F0E1F0660F771F6C
:10509000881F991F1AF0BA95C9F714C0B13091F062
:1050A0000E941629B1E008950C941629672F782FD5
:1050B0008827B85F39F0B93FCCF386957795679527
:1050C000B395D9F73EF490958095709561957F4F93
:1050D0008F4F9F4F0895E89409C097FB3EF4909539
:1050E0008095709561957F4F8F4F9F4F9923A9F0C1
:1050F000F92F96E9BB279395F69587957795679550
:10510000B795F111F8CFFAF4BB0F11F460FF1BC093
:105110006F5F7F4F8F4F9F4F16C0882311F096E926
:1051200011C0772321F09EE8872F762F05C06623D4
:1051300071F096E8862F70E060E02AF09A95660F8D
:10514000771F881FDAF7880F9695879597F9089546
:10515000990F0008550FAA0BE0E8FEEF1616170688
:10516000E807F907C0F012161306E407F50798F0F0
:10517000621B730B840B950B39F40A2661F0232B09
:10518000242B252B21F408950A2609F4A140A69585
:105190008FEF811D811D089597F99F6780E870E06A
:1051A00060E008959FEF80EC089500240A9416169D
:1051B000170618060906089500240A941216130605
:1051C000140605060895092E0394000C11F4882393
:1051D00052F0BB0F40F4BF2B11F460FF04C06F5FAF
:1051E0007F4F8F4F9F4F089557FD9058440F551F85
:1051F00059F05F3F71F04795880F97FB991F61F059
:105200009F3F79F087950895121613061406551FCF
:10521000F2CF4695F1DF08C0161617061806991F3B
:10522000F1CF86957105610508940895E894BB2730
:1052300066277727CB0197F908950E94A82808F4DC
:105240008FEF08950E9435290C94E3280E94D528F9
:1052500038F00E94DC2820F0952311F00C94CC2823
:105260000C94D22811240C9417290E94F42870F36E
:10527000959FC1F3950F50E0551F629FF001729FFB
:10528000BB27F00DB11D639FAA27F00DB11DAA1F0A
:10529000649F6627B00DA11D661F829F2227B00D57
:1052A000A11D621F739FB00DA11D621F839FA00DE2
:1052B000611D221F749F3327A00D611D231F849F32
:1052C000600D211D822F762F6A2F11249F57504089
:1052D0009AF0F1F088234AF0EE0FFF1FBB1F661F04
:1052E000771F881F91505040A9F79E3F510580F0CD
:1052F0000C94CC280C9417295F3FE4F3983ED4F328
:10530000869577956795B795F795E7959F5FC1F770
:10531000FE2B880F911D9695879597F908950E9409
:10532000A828880B990B08950F931F93CF93DF93B1
:105330008230910510F482E090E0E091BC03F0919E
:10534000BD0330E020E0B0E0A0E0309799F42115F3
:10535000310509F44AC0281B390B24303105D8F532
:105360008A819B816115710589F1FB019383828399
:10537000FE0111C0408151810281138148175907F4
:10538000E0F04817590799F4109761F012960C93C2
:10539000129713961C933296CF01DF91CF911F91F4
:1053A0000F9108950093BC031093BD03F4CF211512
:1053B000310551F04217530738F0A901DB019A017A
:1053C000BD01DF01F801C1CFEF01F9CF9093BD031B
:1053D0008093BC03CDCFFE01E20FF31F8193919325
:1053E0002250310939832883D7CF2091BA033091D5
:1053F000BB03232B41F4209103013091040130932E
:10540000BB032093BA0320910101309102012115C1
:10541000310541F42DB73EB7409105015091060189
:10542000241B350BE091BA03F091BB03E217F3079D
:10543000A0F42E1B3F0B2817390778F0AC014E5F04
:105440005F4F2417350748F04E0F5F1F5093BB0383
:105450004093BA03819391939FCFF0E0E0E09CCF1B
:10546000CF93DF930097E9F0FC0132971382128209
:10547000A091BC03B091BD03ED0130E020E0109796
:10548000A1F420813181820F931F2091BA033091C2
:10549000BB032817390709F061C0F093BB03E09301
:1054A000BA03DF91CF910895EA01CE17DF07E8F53F
:1054B0004A815B819E0141155105B1F7E901FB83EA
:1054C000EA8349915991C40FD51FEC17FD0761F488
:1054D000808191810296840F951FE90199838883C9
:1054E000828193819B838A83F0E0E0E012968D9124
:1054F0009C9113970097B9F52D913C911197CD018F
:105500000296820F931F2091BA033091BB03281794
:10551000390739F6309751F51092BD031092BC034C
:10552000B093BB03A093BA03BCCFD383C2834081A3
:105530005181840F951FC817D90761F44E5F5F4FE3
:1055400088819981480F591F518340838A819B81AB
:10555000938382832115310509F0B0CFF093BD0309
:10556000E093BC039ECFFD01DC01C0CF1382128209
:10557000D7CFFB01DC0102C001900D924150504099
:10558000D8F70895FB01DC0101900D920020E1F7AE
:105590000895AEE0B0E0EFECFAE20C94852D0D89B1
:1055A0001E898F89988D26E02C831A83098397FFA3
:1055B00002C080E090E801979E838D83AE01455E36
:1055C0005F4F698D7A8DCE0101960E94F92A4D8137
:1055D0005E8157FD0AC02F813885421753070CF4AE
:1055E0009A01020F131FF80110822E96E4E00C942A
:1055F000A12DABE0B0E0EFEFFAE20C94772D7C0147
:105600003B018A01FC0117821682838181FFC8C198
:10561000CE0101965C01F7019381F30193FD859121
:1056200093FF81913F01882309F453C1853239F4F6
:1056300093FD859193FF81913F01853229F4B70154
:1056400090E00E94E92CE7CF912C212C312CFFE136
:10565000F31538F08B3211F190F4803209F1833276
:1056600029F137FC3CC020ED280F2A3050F536FEDA
:1056700020C08AE0989E200D1124922E06C08D3203
:1056800091F0803371F7689430F8F30193FD8591C0
:1056900093FF81913F018111DACF21C0689431F8E5
:1056A000689432F8F2CF689433F8EFCF689434F806
:1056B000ECCFEAE02E9E200D1124222E689435F8BE
:1056C000E4CF8E3229F436FC04C1689436F8DDCF7D
:1056D0008C3619F4689437F8D8CF8836B1F2982F01
:1056E0009F7D95549330E0F08336A1F18337C1F16B
:1056F000833509F063C02801F2E04F0E511CF80118
:10570000C080D180692D70E036FC02C06FEF7FEF62
:10571000C6010E94D32C4C01689437F882010AC05C
:105720000C5F1F4FFFE3F98388248394912C65015C
:10573000E89437F833FE2DC0522C8114910471F592
:10574000552009F468CFB70180E290E00E94E92C6F
:105750005A94F6CFF801808189830E5F1F4FE4CF02
:105760002801F2E04F0E511CF801C080D180692D54
:1057700070E036FC02C06FEF7FEFC6010E94DE2CA6
:105780004C018201D5CFB70180E290E00E94E92C64
:105790002A942814190409F0B0F7CECFF60137FC8B
:1057A000859137FE81916F01B70190E00E94E92C4D
:1057B00051105A94F1E08F1A9108BFCF843619F036
:1057C000893609F077C0F80137FE6BC060817181BE
:1057D000828193810C5F1F4FF32DFF763F2E97FF41
:1057E00009C090958095709561957F4F8F4F9F4F21
:1057F000689437F82AE030E0A5010E94192DC82EE0
:10580000CA188C2C432C36FE0CC0E89440F8C914FE
:1058100040F434FE05C032FC03C0F32DFE7E4F2E53
:10582000892C44FE95C0FE01EC0DF11D8081803372
:1058300009F087C0242D297E422E842D8870582E91
:1058400043FC95C040FE8FC09C2C821418F42C0C95
:10585000922C981844FE91C0B70180E390E00E941A
:10586000E92C42FE09C088E790E041FE02C088E5CD
:1058700090E0B7010E94E92CC91408F48AC0CA94C8
:10588000D12C9FEFC91AD90ACA0CDB1CF6018291F0
:105890006F01B70190E00E94E92CAC14BD04B1F790
:1058A0004FCF60817181072E000C880B990B0E5F22
:1058B0001F4F92CFD32CE894D4F82AE030E08537FC
:1058C00039F1232D297FD22E8F3601F148F4883506
:1058D000A9F0F701868197812B96E2E10C94932D34
:1058E000803749F08837A9F7D4FE02C06894D2F80F
:1058F00020E130E00DC06894D4F8F6CF34FE03C048
:10590000822F8660D82E20E132E002C028E030E00D
:10591000F801D7FE0FC060817181828193810C5F95
:105920001F4FA5010E94192DC82ECA183D2CE894BE
:1059300037F867CF6081718190E080E00E5F1F4F84
:10594000F0CF42FC02C0839478CF8394839475CFC8
:10595000842D867809F471CFF6CFB70180E290E00C
:105960000E94E92C83948214C0F3512C73CF522CE3
:105970005818821408F46ECFF8CF842D867809F475
:105980007BCF8BE241FE80E247FC8DE2B70190E0E5
:1059900071CFB70180E390E00E94E92C9A946CCF1C
:1059A0008FEF9FEF99CFFC0105906150704001107F
:1059B000D8F7809590958E0F9F1F0895FC01615038
:1059C000704001900110D8F7809590958E0F9F1F21
:1059D00008950F931F93CF93DF93182F092FEB0197
:1059E0008B8181FD09C01FEF0FEF812F902FDF9179
:1059F000CF911F910F91089582FF14C02E813F8196
:105A00008C819D81281739073CF4E881F981CF0109
:105A100001969983888310838E819F8101969F834D
:105A20008E83E3CFE885F985812F0995892BA1F332
:105A3000DACFFA01AA27283051F1203181F1E89418
:105A40006F936E7F6E5F7F4F8F4F9F4FAF4FB1E071
:105A50003ED0B4E03CD0670F781F891F9A1FA11D6C
:105A6000680F791F8A1F911DA11D6A0F711D811D6D
:105A7000911DA11D20D009F468943F912AE0269F32
:105A800011243019305D3193DEF6CF010895462F91
:105A90004770405D4193B3E00FD0C9F7F6CF462F72
:105AA0004F70405D4A3318F0495D31FD40524193DB
:105AB00002D0A9F7EACFB4E0A69597958795779598
:105AC0006795BA95C9F700976105710508959B011F
:105AD000AC010A2E06945795479537952795BA95A8
