:100000000C9463000C948B000C948B000C948B006C
:100010000C948B000C948B000C948B000C948B0034
:100020000C948B000C948B000C948B000C948B0024
:100030000C948B000C948B000C948B000C948B0014
:100040000C94F2090C948B000C94620A0C943C0AF8
:100050000C948B000C948B000C948B000C948B00F4
:100060000C948B000C948B000000000024002700EF
:100070002A0000000008000201000003040700003D
:1000800000000000000000000000250028002B00F8
:1000900000000000230026002900040404040404D6
:1000A0000404020202020202030303030303010227
:1000B00004081020408001020408102001020408F6
:1000C0001020940A431911241FBECFEFD8E0DEBFE1
:1000D000CDBF18E0A0E0B1E0E6E1F0E402C0059099
:1000E0000D92A631B107D9F728E0A6E1B8E001C02A
:1000F0001D92AE3EB207E1F710E0C2E6D0E004C0C8
:100100002197FE010E949C19C136D107C9F70E94B0
:10011000630B0C94FE1F0C9400008091DC08E091AE
:10012000DD08F091DE08F8949181282F2095922324
:10013000918378943DE743E050E0315029F1DA01B2
:100140001197F1F790819823C1F3F894928192234B
:1001500092839181982B91837894A3EBBBE01197C4
:10016000F1F7F894918192239183A3E1B1E0119783
:10017000F1F79081982381E009F080E07894E3E63C
:10018000F6E03197F1F7089580E00895EF92FF923D
:100190000F931F93CF93DF9328E030E080E041E09E
:1001A000A3E2B0E09FECE92EF12C9091DC08E09105
:1001B000DD08F091DE08F8945181592B518362815A
:1001C000792F7095672362838D01ED012197F1F7F7
:1001D000518157235183E8012197F1F75081789499
:1001E000F7013197F1F7952309F0842B440F215043
:1001F0003109D9F6DF91CF911F910F91FF90EF90C8
:100200000895CF92DF92EF92FF920F931F93CF93B7
:10021000DF9328E030E041E06BE871E093E7C92E1E
:10022000D12CCBE2D0E00BED11E09091DC08E09115
:10023000DD08F091DE08F92EF094582F542389F14F
:10024000F89452815F2152835181592B5183DE01F1
:100250001197F1F75281952B92837894F801319799
:10026000F1F7440F2150310901F7F894E091DD08CE
:10027000F091DE0891818091DC088095982391832C
:10028000E091DD08F091DE089281892382837894E1
:10029000DF91CF911F910F91FF90EF90DF90CF9062
:1002A0000895F89452815F2152835181592B5183D3
:1002B000DB011197F1F75281952B92837894F60127
:1002C000CECF8F929F92AF92BF92CF92DF92EF925A
:1002D000FF920F931F93CF93DF936C01E62E8A0159
:1002E0000E948D0083E30E9401018BE891E0019759
:1002F000F1F7E801289658012BE8822E992493946F
:10030000C4010197F1F70E94C600F50181935F01D6
:10031000EC17FD07A9F74601F12C9BE8A92EBB2499
:10032000B394C4018C199D098E159F054CF4C50129
:100330000197F1F7F40181914F010E940101F1CF82
:1003400083E592E00197F1F70F5E1F4F8BE8E82EEF
:10035000FF24F394C7010197F1F70E94C600899327
:100360000C171D07B9F7DF91CF911F910F91FF90E7
:10037000EF90DF90CF90BF90AF909F908F900895B7
:1003800090E0FC01EE58FF4F2491FC01E255FF4F35
:100390003491FC01E656FF4FE491EE23C9F022238D
:1003A00039F0233001F1A8F4213019F1223029F17C
:1003B000F0E0EE0FFF1FEA57FF4FA591B4918FB702
:1003C000F894EC91611126C030953E233C938FBF89
:1003D00008952730A9F02830C9F0243049F78091DA
:1003E00080008F7D03C0809180008F778093800094
:1003F000DFCF84B58F7784BDDBCF84B58F7DFBCF16
:100400008091B0008F778093B000D2CF8091B00000
:100410008F7DF9CF3E2BDACFCF93DF9390E0FC01B5
:10042000E255FF4F249186569F4FFC01849188230B
:10043000D1F090E0880F991FFC01E859FF4FA5917A
:10044000B491FC01EA57FF4FC591D49161110EC0E0
:100450009FB7F8948C91E22FE0958E238C9328819E
:10046000E223E8839FBFDF91CF9108958FB7F8947F
:10047000EC91E22BEC938FBFF6CF3FB7F8948091CD
:10048000250890912608A0912708B091280826B544
:10049000A89B05C02F3F19F00196A11DB11D3FBFBC
:1004A000BA2FA92F982F8827BC01CD01620F711D8B
:1004B000811D911D42E0660F771F881F991F4A9585
:1004C000D1F708958F929F92AF92BF92CF92DF9211
:1004D000EF92FF926B017C010E943D024B015C0197
:1004E000C114D104E104F104B9F00E943D0268197D
:1004F00079098A099B09683E73408105910580F35B
:1005000021E0C21AD108E108F10888EE880E83E0E4
:10051000981EA11CB11CE4CFFF90EF90DF90CF900C
:10052000BF90AF909F908F900895AF92BF92CF925F
:10053000DF92EF92FF920F931F93CF93DF936C01A3
:100540007B018B01040F151FEB015E01AE18BF0884
:10055000C017D10759F06991D601ED91FC91019036
:10056000F081E02DC6010995892B79F7C501DF914E
:10057000CF911F910F91FF90EF90DF90CF90BF90A0
:10058000AF900895FC01538D448D252F30E0842FCA
:1005900090E0821B930B541710F0CF9608950197AB
:1005A0000895FC01918D828D981761F0A28DAE0F98
:1005B000BF2FB11D5D968C91928D9F5F9F73928F1F
:1005C00090E008958FEF9FEF0895FC01918D828D4B
:1005D000981731F0828DE80FF11D858D90E0089518
:1005E0008FEF9FEF0895FC01918D228D892F90E070
:1005F000805C9F4F821B91098F739927089589E230
:1006000098E00E94F30221E0892B09F420E0822F78
:10061000089580E090E0892B29F00E94FF0281116B
:100620000C9400000895FC01A48DA80FB92FB11DF2
:10063000A35ABF4F2C91848D90E001968F73992718
:10064000848FA689B7892C93A089B1898C918370F6
:1006500080648C93938D848D981306C00288F389EF
:10066000E02D80818F7D80830895EF92FF920F931C
:100670001F93CF93DF93EC0181E0888F9B8D8C8D4E
:1006800098131AC0E889F989808185FF15C09FB742
:10069000F894EE89FF896083E889F9898081837005
:1006A000806480839FBF81E090E0DF91CF911F91B4
:1006B0000F91FF90EF900895F62E0B8D10E00F5FD5
:1006C0001F4F0F731127E02E8C8D8E110CC00FB6AB
:1006D00007FCFACFE889F989808185FFF5CFCE0143
:1006E0000E941303F1CFEB8DEC0FFD2FF11DE35AA8
:1006F000FF4FF0829FB7F8940B8FEA89FB898081C6
:100700008062CFCFCF93DF93EC01888D8823B9F03F
:10071000AA89BB89E889F9898C9185FD03C080810C
:1007200086FD0DC00FB607FCF7CF8C9185FFF2CF89
:10073000808185FFEDCFCE010E941303E9CFDF91C9
:10074000CF9108954F70FB01F595E795E80FF91FDC
:10075000908160FD04C0907F942B908308959F70DA
:1007600080E1489FA0011124F7CF9B0177FF02C0D1
:100770002F5F3F4F35952795280F391FF90180814D
:1007800060FD02C08F7008958295FCCFCF92DF92FA
:10079000EF92FF920F931F93CF93DF937C018B0116
:1007A0006A01D0E0C0E0C016D1064CF0B801C70124
:1007B0000E94B503C80FD11D0F5F1F4FF4CFCE01AC
:1007C000CF3FD10519F010F08FEF90E08F70DF91DF
:1007D000CF911F910F91FF90EF90DF90CF900895F0
:1007E000EF92FF920F931F93CF93DF938C017A01C7
:1007F0000E94B503C82FB701C8010E94B50390E15C
:10080000C99FE00111248C2BDF91CF911F910F9193
:10081000FF90EF900895AF92BF92CF92DF92EF9248
:10082000FF920F931F93CF93DF93EC018B0147E16E
:1008300050E066E170E00E94F003F801808B8D309B
:1008400008F0D1C084E0818B41E250E060E270E0CA
:10085000CE010E94F003F801828B682F70E090E0D7
:1008600080E00E94CD1A20E030E040E251E40E9496
:10087000231AF801638B748B858B968B43E250E0CF
:1008800062E270E0CE010E94F003F801878B8C8950
:100890008F70808F41E350E060E370E0CE010E94F2
:1008A000F003F801818F43E350E062E370E0CE0192
:1008B0000E94F003F801828F8A8D9B8D482F42950C
:1008C0004F70292F2F70F0E12F9F90011124342BAE
:1008D00092959F70292B8F7090E0982F8827929582
:1008E000907F88279071822B932BF801948F838FB0
:1008F0008E8982FB882780F9868F4FE050E070E078
:1009000060E0CE010E94C603A82EDC88D2945FE08E
:10091000D52281E0AD1080E0F801878F4FE150E0F3
:1009200060E170E0CE010E94C603B82E8D898F7001
:10093000E82E81E0BE1080E0F80180A348E250E09C
:1009400060E270E0CE010E94C603C82EFD88F294DA
:100950008FE0F82281E0CF1080E0F80181A34FE220
:1009600050E06CE270E0CE010E94C6039F8D9F7044
:1009700021E0981320E0F80122A34DE350E060E36A
:1009800070E0CE010E94C6039F8D92959F7021E07A
:10099000981320E0F80123A38C89982F9F709F3033
:1009A00069F482958F708F3049F48D89982F9F70EC
:1009B0009F3021F482958F708F30E1F0AD101AC016
:1009C00081E0BE1003C0CF1001C080E0F801858F28
:1009D000DF91CF911F910F91FF90EF90DF90CF901B
:1009E000BF90AF9008958E3118F485E0F8012BCFB9
:1009F0008AE0FCCF81E0EACF8F929F92AF92BF92C4
:100A0000CF92DF92EF92FF920F931F93CF93DF93DA
:100A10005C01E62E6A01122F0E948D008CEC0E9470
:100A200001018BE891E00197F1F7E501F12C8BE8EA
:100A3000882E99249394CE018A199B098E159F05BF
:100A40003CF4C4010197F1F789910E940101F3CFB1
:100A500083E592E00197F1F7E601E12EF12C0BE836
:100A600011E0CE018C199D098E159F053CF4C8013B
:100A70000197F1F70E94C6008993F3CFDF91CF91E0
:100A80001F910F91FF90EF90DF90CF90BF90AF90AC
:100A90009F908F90089560E088E00C94C001CF9300
:100AA000DF93EC0161E088E00E94C001BE0190E0AC
:100AB00080E0DF91CF910C9462028F929F92AF926F
:100AC000BF92CF92DF92EF92FF920F931F93CF933B
:100AD000DF935C01C62E8A01E22E84E690E00E943C
:100AE0004F050E948D0083E30E9401018BE891E095
:100AF0000197F1F7E801085F1F4F2BE8822E992438
:100B00009394C4010197F1F70E94C6008993C0171E
:100B1000D107B9F7E501D12C9BE8892E992493944C
:100B2000CE018A199B098C159D053CF4C4010197DF
:100B3000F1F789910E940101F3CF83E592E00197DB
:100B4000F1F7E80110E000E0F12C8BE8C82EDD247D
:100B5000D3940E151F054CF4C6010197F1F70E94BE
:100B6000C60089930F5F1F4FF4CFDF91CF911F9184
:100B70000F91FF90EF90DF90CF90BF90AF909F903C
:100B80008F900C944B058F929F92AF92BF92CF9211
:100B9000DF92EF92FF920F931F93CF93DF935C014D
:100BA000E62E6A01122F84E690E00E944F050E9413
:100BB0008D008CEC0E9401018BE891E00197F1F728
:100BC000E501F12C8BE8882E99249394CE018A19A3
:100BD0009B098E159F053CF4C4010197F1F789919B
:100BE0000E940101F3CF83E592E00197F1F7E6015E
:100BF000E12EF12C0BE811E0CE018C199D098E1528
:100C00009F053CF4C8010197F1F70E94C600899343
:100C1000F3CFDF91CF911F910F91FF90EF90DF9075
:100C2000CF90BF90AF909F908F900C944B05CF9238
:100C3000DF92EF92FF920F931F93CF93DF93CDB785
:100C4000DEB7A2970FB6F894DEBF0FBECDBF6C0122
:100C50008AEA89A31AA28E010F5F1F4F80E2F80172
:100C600011928A95E9F77E01F1E2EF0EF11C20E284
:100C7000A80162E0C7010E94C305F80180E09191DC
:100C8000892BEE15FF05D9F78823B9F080E2F8012A
:100C9000D60101900D928A95E1F781E0A2960FB6F8
:100CA000F894DEBF0FBECDBFDF91CF911F910F91A2
:100CB000FF90EF90DF90CF90089580E0EFCFCF933B
:100CC000DF9300D000D0CDB7DEB7809106019091C0
:100CD0000701A091080189839A83AB831C8221E0DC
:100CE000AE014C5F5F4F63E0CE0101960E94C305E9
:100CF00064E170E080E090E00E9462020F900F904B
:100D00000F900F90DF91CF9108958F929F92AF92A5
:100D1000BF92CF92DF92EF92FF920F931F93CF93E8
:100D2000DF93CDB7DEB7E3970FB6F894DEBF0FBE03
:100D3000CDBF4C0181E17E0123E2E20EF11CF701FF
:100D4000282F11922A95E9F75E0132E1A30EB11C1A
:100D5000F501282F11922A95E9F7FE0131966F01CE
:100D600011928A95E9F710E000E061E088E00E94C6
:100D7000C00162E370E080E090E00E946202A7019F
:100D800063E087E491E00E946101A50162E085E4EF
:100D900091E00E94610166E970E080E090E00E94CD
:100DA0006202A70163E087E491E00E946101A6016D
:100DB00062E083E491E00E9461010E944B0564E6D9
:100DC00070E080E090E00E9462020F5F1F4F80168B
:100DD000910659F60E945F060E944B0566E970E095
:100DE00080E090E00E94620288EC90E00E944F0553
:100DF000E3960FB6F894DEBF0FBECDBFDF91CF9163
:100E00001F910F91FF90EF90DF90CF90BF90AF9028
:100E10009F908F900895CF93DF931F92CDB7DEB749
:100E2000198221E0AE014F5F5F4F63E087E491E0FC
:100E30000E94C30564E170E080E090E00E946202DD
:100E40000F90DF91CF910895CF92DF92EF92FF92B2
:100E50000F931F93CF93DF93CDB7DEB729970FB6CC
:100E6000F894DEBF0FBECDBF962F2091C8083091F9
:100E7000C908232B09F444C050E070E060E0592B0E
:100E8000682B8B0122273327C52ED62EE72EFF2471
:100E9000BC2DA42F8091CE08882391F0A82FB0E01C
:100EA000A09FF001A19FF00DB09FF00D11240F2F16
:100EB0008C9D60011124BD2D849FA0011124A52FBC
:100EC000E091D4088091CF089091D0082091D1086A
:100ED000E21721F0E80FF92FF11D1082E091D108FF
:100EE000E80FF92FF11D0083E091D208E80FF92FE8
:100EF000F11DB0832091D308820F911DFC01A083C6
:100F00008091CF089091D008892B09F47CC00E9471
:100F10003D020091D5081091D6082091D708309154
:100F2000D808601771078207930740F46093D508CB
:100F30007093D6088093D7089093D8080091D5086D
:100F40001091D6082091D7083091D808601B710BFA
:100F5000820B930B6C32714081059105C0F2F894BD
:100F60008091CA089091CB089A838983E091CF0839
:100F7000F091D008DF011196808189879091C60891
:100F8000E091D908F091DA088091DB08992309F4FF
:100F900049C09081982B98879081809589238F8371
:100FA0008F818C8388E08B8358856F8149853B8155
:100FB0002C8189819A81508347FD252F3A95208382
:100FC000262F39F0441F00C000006083000000C0DD
:100FD000F2CF38E04D9160830000019761F7F09304
:100FE000DA08E093D90849873B832C839A83898365
:100FF00078940E943D026093D5087093D608809340
:10100000D7089093D80829960FB6F894DEBF0FBE84
:10101000CDBFDF91CF911F910F91FF90EF90DF90A7
:10102000CF9008959081982B9887908180958923FF
:101030008F838F818E8388E08D8358856F8149856A
:101040003D812E8189819A81508347FD252F00C0E3
:1010500000C0208300C000C000C000C000C060838A
:101060000000262F3A9541F0441F000000C000C048
:1010700000C000C000C0E8CF38E04D9100C06083E0
:1010800000C0019709F7F093DA08E093D90849877F
:101090003D832E83ABCF40E060E080E50C942407D5
:1010A00040E560E080E00C94240740E060E080E0F0
:1010B0000C942407FC0101900020E9F73197AF015F
:1010C000481B590BBC0189E298E00C9495028CE511
:1010D00091E00C945A088F929F92AF92BF920F9317
:1010E0001F93CF93DF93CDB7DEB7A1970FB6F894D8
:1010F000DEBF0FBECDBF19A2423008F44AE08E0118
:101100000F5D1F4F842E912CB12CA12CA5019401B1
:101110000E946719E62FB901CA01EA30F4F4E05DD4
:10112000D801EE938D01232B242B252B79F790E00A
:1011300080E0109719F0CD010E945A08A1960FB6D1
:10114000F894DEBF0FBECDBFDF91CF911F910F91FD
:10115000BF90AF909F908F900895E95CE1CFCF92C0
:10116000DF92EF92FF92CF93DF936B017C016DE2F0
:1011700089E298E00E943503EC0166277727CB01CE
:101180006C197D098E099F094AE00E946B088C0F3B
:101190009D1FDF91CF91FF90EF90DF90CF9008954A
:1011A000BC01990F880B990B97FD0C94AF084AE08E
:1011B0000C946B08CF93DF93682F70E090E080E091
:1011C0004AE00E946B08EC010E9467088C0F9D1F8B
:1011D000DF91CF910895CF93DF93D0E0C0E00097E7
:1011E00019F00E945A08EC010E9467088C0F9D1F9D
:1011F000DF91CF9108958FE591E00C94EB084F9229
:101200005F926F927F928F929F92AF92BF92CF9296
:10121000DF92EF92FF920F931F93CF936B017C01AC
:10122000742EAC019B010E94EF1B882399F08CE87F
:1012300091E0CF911F910F91FF90EF90DF90CF90B1
:10124000BF90AF909F908F907F906F905F904F90E6
:101250000C945A0846015701E894B7F82FEF3FEF76
:101260004FE75FE7C501B4010E94EF1B81110DC07C
:101270002FEF3FEF4FE75FE7C501B4010E941E1A51
:1012800018161CF480E991E0D4CF2FEF3FEF4FE721
:101290005FE4C701B6010E947D1B18161CF484E9A7
:1012A00091E0C7CF2FEF3FEF4FE75FECC701B601EB
:1012B0000E941E1A87FDF3CF20E030E0A901C7018C
:1012C000B6010E941E1A10E000E087FF0AC06DE21E
:1012D00089E298E00E9435038C01F7FAF094F7F860
:1012E000F094C0E060E070E080E09FE37C1641F0A5
:1012F00020E030E040E251E40E94231ACF5FF6CFB5
:10130000A70196010E94B2192B013C010E949C1A70
:101310004B015C014AE00E946B087C01E00EF11E6B
:10132000CC23C1F1C501B4010E94CB1A9B01AC01D1
:10133000C301B2010E94B1194B015C016EE289E266
:1013400098E00E943503E80EF91EC15018F120E024
:1013500030E040E251E4C501B4010E94821B2B0140
:101360003C010E949C1A4B01B12CA12C4AE0C50102
:10137000B4010E946B08E80EF91EC501B4010E9479
:10138000CB1A9B01AC01C301B2010E94B1194B0100
:101390005C01DBCFC701CF911F910F91FF90EF90C0
:1013A000DF90CF90BF90AF909F908F907F906F9085
:1013B0005F904F9008950C945A08CF92DF92EF926D
:1013C000FF926A017B010E94DB0943E0C701B6017D
:1013D0000E94FF0888E991E0FF90EF90DF90CF90A6
:1013E0000C94EB081F920F920FB60F9211242F93BB
:1013F0003F938F939F93AF93BF93809121089091D8
:101400002208A0912308B09124083091200823E0FD
:10141000230F2D3758F50196A11DB11D20932008EB
:101420008093210890932208A0932308B093240866
:101430008091250890912608A0912708B09128084E
:101440000196A11DB11D8093250890932608A093B5
:101450002708B0932808BF91AF919F918F913F913A
:101460002F910F900FBE0F901F90189526E8230F15
:101470000296A11DB11DD2CF1F920F920FB60F92EF
:1014800011242F933F934F935F936F937F938F9389
:101490009F93AF93BF93EF93FF9389E298E00E94ED
:1014A0001303FF91EF91BF91AF919F918F917F9126
:1014B0006F915F914F913F912F910F900FBE0F90C1
:1014C0001F9018951F920F920FB60F9211242F9311
:1014D0008F939F93EF93FF93E0913908F0913A082F
:1014E0008081E0913F08F091400882FD1BC090810F
:1014F000809142088F5F8F7320914308821741F0DB
:10150000E0914208F0E0E75DF74F958F8093420845
:10151000FF91EF919F918F912F910F900FBE0F90A0
:101520001F9018958081F4CF10922C0810922B08F0
:1015300088EE93E0A0E0B0E080932D0890932E0811
:10154000A0932F08B09330088EE491E090932A087E
:101550008093290885EC90E09093360880933508B5
:1015600084EC90E0909338088093370880EC90E00A
:1015700090933A088093390881EC90E090933C086E
:1015800080933B0882EC90E090933E0880933D0866
:1015900086EC90E09093400880933F0810924208B8
:1015A00010924308109244081092450860E086E0CB
:1015B0000E940C02E4EBF0E0E491E093DC08E0EA46
:1015C000F0E0E491F0E0EE0FFF1FE057FF4F859150
:1015D00094919093DE088093DD081092E7081092B2
:1015E000E9081092E8081092E6081092E5081092B7
:1015F000E4081092E3081092E2081092E1081092B9
:10160000E0081092DF081092C7081092CE081092DE
:10161000D5081092D6081092D7081092D80881E009
:101620008093D4088093D1081092D20892E09093CE
:10163000D3088093C60883E090E09093CB08809312
:10164000CA080E94F41B9093D0088093CF0800979B
:1016500089F123E0FC0111922A95E9F781E090E0FD
:101660009093C9088093C80880E190E09093CD08DA
:101670008093CC088091C708882341F061E080E125
:101680000E940C0260E080E10E94C001EAEAF0E002
:10169000E491F0E0EE0FFF1FEA57FF4F8591949120
:1016A0009093DA088093D908EEEBF0E0E491E093B0
:1016B000DB0808951092CB081092CA081092C9084E
:1016C0001092C808D1CFCF93DF93CDB7DEB7CD53FB
:1016D000D1400FB6F894DEBF0FBECDBF789484B56D
:1016E000826084BD84B5816084BD85B5826085BD1E
:1016F00085B5816085BD80916E00816080936E00AC
:10170000109281008091810082608093810080919D
:10171000810081608093810080918000816080934E
:1017200080008091B10084608093B1008091B0000E
:1017300081608093B00080917A00846080937A0009
:1017400080917A00826080937A0080917A00816033
:1017500080937A0080917A00806880937A0010925A
:10176000C100E0913908F0913A0882E08083E0916D
:101770003508F09136081082E0913708F09138086A
:1017800080E1808310924108E0913D08F0913E088D
:1017900086E08083E0913B08F0913C088081806185
:1017A0008083E0913B08F0913C08808188608083D1
:1017B000E0913B08F0913C08808180688083E09153
:1017C0003B08F0913C0880818F7D808361E088E058
:1017D0000E940C0260E088E00E94C0018091CC0869
:1017E0009091CD0897FD2EC061E00E940C0260E050
:1017F0008091CC080E94C00181E08093C70860916D
:10180000CE08613541F12091CF083091D008615068
:10181000E1F070E08FEF90E50E945319F9014091DB
:10182000CA085091CB08CF01821B930B84179507F0
:1018300078F44081469FC001479F900D112490830A
:101840003196EDCF1092C708DACF70E060E0E6CFB6
:1018500081E58093CE080E94550864EF71E080E036
:1018600090E00E94620282EB91E00E94EB088FED13
:1018700091E00E94EB0880EF91E00E94EB0882EB80
:1018800091E00E94EB0881E292E00E94EB08109246
:101890001F0810921E0810921A0810921B0810922E
:1018A0001C0810921D082091090130910A014091F5
:1018B0000B0150910C01C65FDE4F288339834A83A8
:1018C0005B83CA50D14080910D0190910E01A0918F
:1018D0000F01B0911001C25FDE4F88839983AA8304
:1018E000BB83CE50D1402091110130911201409123
:1018F000130150911401CE5EDE4F288339834A8351
:101900005B83C251D1408091150190911601A09145
:101910001701B0911801CA5EDE4F88839983AA83AC
:10192000BB83C651D1402091190130911A014091D9
:101930001B0150911C01C65EDE4F288339834A8308
:101940005B83CA51D14080911D0190911E01A091ED
:101950001F01B0912001C25EDE4F88839983AA8364
:10196000BB83CE51D1402091210130912201409181
:10197000230150912401CE5DDE4F288339834A83B1
:101980005B83C252D1408091250190912601A091A4
:101990002701B0912801CA5DDE4F88839983AA830D
:1019A000BB83C652D1402091290130912A01409138
:1019B0002B0150912C01C65DDE4F288339834A8369
:1019C0005B83CA52D14080912D0190912E01A0914C
:1019D0002F01B0913001C25DDE4F88839983AA83C5
:1019E000BB83CE52D14020913101309132014091E0
:1019F000330150913401CE5CDE4F288339834A8312
:101A00005B83C253D1408091350190913601A09102
:101A10003701B0913801CA5CDE4F88839983AA836D
:101A2000BB83C653D1402091390130913A01409196
:101A30003B0150913C01C65CDE4F288339834A83C9
:101A40005B83CA53D14089E298E00E94F302892B5C
:101A5000B9F089E298E00E94D1028F7D833581F44C
:101A600080911E0890911F08019751F088E392E041
:101A70000E94EB0881E090E090931F0880931E087D
:101A80008FB7F894C0902108D0902208E0902308E6
:101A9000F09024088FBF80911A0890911B08A091A4
:101AA0001C08B0911D08A7019601281B390B4A0B91
:101AB0005B0BDA01C90180329340A105B10560F1E9
:101AC000C0921A08D0921B08E0921C08F0921D08E0
:101AD00061E088E00E94C00162E370E080E090E095
:101AE0000E9462020E948D00182F60E088E00E9430
:101AF000C00180911E0890911F08009709F002C153
:101B0000113089F481E592E00E94EB0881E090E0D9
:101B100090931F0880931E0880911E0890911F08C3
:101B2000892B09F045C08091160890911708A09163
:101B30001808B0911908A7019601281B390B4A0B08
:101B40005B0BDA01C9014497A105B10588F1C09288
:101B50001608D0921708E0921808F09219082FB7CB
:101B6000F894609121087091220880912308909147
:101B700024082FBF20ED37E040E050E00E946719B5
:101B80009B01AC01283E83E038074105510508F070
:101B9000D4C0A0E5B0E00E94891928EE33E040E00F
:101BA00050E00E946719822F422F682F0E9424075D
:101BB00080911E0890911F08019709F096C082E05D
:101BC00090E090931F0880931E080E945F0662E3D6
:101BD00070E080E090E00E9462020E94550882EB73
:101BE00091E00E94EB0883E992E00E94EB0882EB0F
:101BF00091E00E94EB08DE01D696CA5FDE4FB98302
:101C0000A883C650D14085E31D928A95E9F780E00C
:101C100090ECA9E7B4ECA4968CAF9DAFAEAFBFAF8C
:101C2000A497B0E1EB2EF12C1E01BBE62B0E311C6C
:101C30001CED912E0CE0B02E80E1A82E8E010F5FDE
:101C40001F4F6E01E8E0CE0ED11CD1019C9211967F
:101C5000BC92F8012A2D11922A95E9F720E1A801FA
:101C600062E0C1010E94C305F801AE014A5C5F4F0A
:101C7000C85FDE4F59834883C850D140DA01819153
:101C800090EE980F9F3508F460C01C921DAECA5F9D
:101C9000DE4FE881F981C650D14001900020E9F77C
:101CA0003197CA5FDE4F88819981C650D140E81BC9
:101CB000F90B349708F056C091E0E91AF10809F0E1
:101CC0004AC082EB92E00E94EB080E945F060E94ED
:101CD00055080E944B050E94550810921F0810924B
:101CE0001E0881E292E00E94EB0880E090E0892BE0
:101CF00009F4A9CE0E94FF02882309F444CE0E9471
:101D0000000041CE029709F053CF113009F450CFB3
:101D10000E94670882EB91E00E94EB0885E792E061
:101D20000E94EB0882EB91E00E94EB080E945508AC
:101D300010921F0810921E08EFCEA0EBBFEF0E947A
:101D400097197F588D4F9F4F28CF8D93CE16DF0662
:101D500009F095CF9BCF68EC70E080E090E00E94A6
:101D6000620273CF0E94FB0880EE92E00E94DB09C2
:101D7000CE01C6960E94EB0840E060E580E00E943C
:101D8000240781E090E00E9485068AEAD1018C93C5
:101D900011961C9288E2F80111928A95E9F720E2E7
:101DA000A80162E0C1010E945D0588E0F801DE0142
:101DB000DE9601900D928A95E1F77E01F3EDEF0E2C
:101DC000F11C80E2D7011D928A95E9F7C7010E94B4
:101DD0001706811109C082EF92E00E94EB080E9471
:101DE0005F060E944B0875CFBE016A5C7F4FC7013A
:101DF0000E940B0422968FAD2297843608F4DCC033
:101E0000F70181898E3109F4DAC0FCEDCF2ECC5F69
:101E1000DE4FC882C450D1408BE0CB5FDE4F888359
:101E2000C550D1407E01F3EFEF0EF11CA1E1DA2E97
:101E3000D701ED2D1D92EA95E9F721E1A70162E0B6
:101E4000CE018C5F9E4F0E94C305D70150968C91A6
:101E5000863019F490E080E01EC00E940B07F1016B
:101E6000C0828AE08183D8011D92DA94E9F721E1EA
:101E7000A80162E0C1010E94C3050E945F0666E9F5
:101E800070E080E090E00E9462028989863009F06B
:101E900075C082E090E06C969FAF8EAF6C9728E2A1
:101EA000D1011D922A95E9F728968FAC2897912C9D
:101EB0008530910509F486C0069709F4C3C0CA5C51
:101EC000DE4F288139814A815B81C653D140CD568E
:101ED000DF4F288339834A835B83C359D0408DE029
:101EE000D8011D928A95E9F72DE0A80164E0CE01A2
:101EF0008D569F4F0E94C3058D85412C512C320178
:101F0000863009F01CC169817A8190E080E00E94EE
:101F1000CB1A20E030E04AE754E40E94231A2B0158
:101F20003C0178015101D12CC12CB2E0EB0EF11C27
:101F3000C401E6E08E16910414F085E090E0C81626
:101F4000D9060CF0FCC0FFEFCF1ADF0AD7011196BB
:101F50006C9111978C91762F682F90E080E00E9411
:101F6000CB1A20E030E04AE754E40E94231AF5013E
:101F700061937193819391935F01D7CFC65CDE4FDC
:101F8000288139814A815B81CA53D14029833A83B0
:101F90004B835C83D1011D921D921C9223E0A10111
:101FA00064E0C8010E94C305F1018281863009F016
:101FB00051CF83E090E06FCF85E090E06CCF86E07A
:101FC00090E069CF6101F12CE12C412C512C3201C0
:101FD000C401B6E08B16910414F085E090E0E81699
:101FE000F9060CF0ACC081E38E0DCD56DF4F88832F
:101FF000C359D0401A82198222E0A80161E0CE01C3
:102000008D569F4F0E94C30569817A8190E080E0E0
:102010000E94CB1A20E030E04AE754E40E94231AE1
:102020009B01AC01F60121933193419351936F01D0
:10203000C301B2010E94B2192B013C01FFEFEF1A5C
:10204000FF0AC6CFCD54DF4F1882C35BD04084E176
:10205000D8011D928A95E9F784E690E00E944F0529
:1020600080E1CD56DF4F8883C359D04081E2CC5602
:10207000DF4F8883C459D04020E0AE014D545F4FFC
:1020800062E0CE018D569F4F0E94FC046AE070E032
:1020900080E090E00E94620284EDCD56DF4F88839D
:1020A000C359D04024E1A80161E0CE018D569F4F75
:1020B0000E94FC040E944B0578015101D12CC12CD7
:1020C000412C512C3201C401BBE08B16910414F059
:1020D0008AE090E0C816D90694F5F7016181808105
:1020E000762F682F90E080E00E94CB1A20E030E04D
:1020F00040E251E40E94231A9B01AC0160E070E8C9
:102100008BEB95E40E94B11920E030E04AE754E4FB
:102110000E94231A9B01AC01D5012D933D934D9351
:102120005D935D01C301B2010E94B2192B013C0114
:10213000BFEFCB1ADB0AE2E0EE0EF11CC4CF6C96C7
:102140008EAD9FAD6C978430910554F4823091052B
:10215000ACF5892B99F160E070EC89E794EC67C0ED
:102160008530910509F4E3C00697A9F782EDCD56B5
:10217000DF4F8883C359D040198221E0A80161E074
:10218000CE018D569F4F0E94C305698170E090E09B
:1021900080E00E94CD1A20E030E040E252EC0E9444
:1021A000821B20E03CEA41E156E40E94B21920E0A3
:1021B00030E048EC52E40E94231A39C0CE5CDE4F76
:1021C000288139814A815B81C253D14029833A8376
:1021D0004B835C83CD56DF4F188219821A82C35914
:1021E000D04023E0AE014D565F4F64E0C8010E942D
:1021F000C305CB56DF4F8881C559D040CD56DF4F40
:1022000068817981C359D040863009F0A4CF90E02D
:1022100080E00E94CB1A20E030E040E251E40E94CE
:10222000231A23E333E948E853E40E94B119A49642
:102230006CAF7DAF8EAF9FAFA4976C968EAD9FAD08
:102240006C979C01255031092230310508F085C07A
:1022500061962FAD61972E3108F47CC02D51330B60
:1022600063960EAD1FAD639760964FAD609783E2A6
:1022700090E0841B910997FF02C090E080E0820FFC
:10228000931F809FB001819F700D909F700D11244E
:1022900090E080E00E94CB1A20E030E040E05DE377
:1022A0000E94821B6B017C01B80190E080E00E94DB
:1022B000CB1A9B01AC01C701B6010E94B2196B0198
:1022C0007C0129968FAD29978A3141F08C3131F00C
:1022D000883221F068E572E0823311F468EE73E031
:1022E000072E000C880B990B0E94CD1A9B01AC01A4
:1022F000C701B6010E94231A9B01AC0160E070E0A7
:1023000080E890E40E94B1196B017C0120E030E08C
:10231000A9010E941E1A87FF03C0C12CD12C76018F
:10232000A096CCAEDDAEEEAEFFAEA0977DC182E54D
:10233000CD56DF4F8883C359D0401A82198222E0DC
:10234000A80161E0CE018D569F4F0E94C3056981AF
:102350007A815DCF30E020E083CF009739F09C0197
:10236000225031092230310508F086C2CD56DF4FA8
:10237000188219821A82C359D0408230910599F08F
:102380008330910509F495C0892B71F5C25DDE4F4C
:1023900088819981AA81BB81CE52D14089839A8359
:1023A000AB83BC830CC0CA5DDE4F288139814A8172
:1023B0005B81C652D14029833A834B835C8323E0FF
:1023C000AE014D565F4F64E0C8010E94C305CB5675
:1023D000DF4F8881C559D040CD56DF4F6881798164
:1023E000C359D040863011F070E060E02996FFAC10
:1023F0002997FF20A1F190E080E00E94CB1A4B01C9
:102400005C016F2D70E090E080E00E94CD1A9B018E
:10241000AC01C501B4010E94231A6B017C0120E0CC
:1024200030E040EA52E40E947D1B18160CF44AC0CA
:1024300020E030E040E251E4C701B6010E94231AD7
:1024400020E030E040EA50E40E94B1196B017C01C9
:1024500020E030E0A9010E941E1A87FF03C0C12CB2
:10246000D12C7601A096CCAEDDAEEEAEFFAEA0973D
:102470006C968EAD9FAD6C97CD56DF4F198218824A
:10248000C359D0408230910521F18330910509F480
:1024900086C1892B09F08CC1CE5DDE4F2881398140
:1024A0004A815B81C252D14029833A834B835C834A
:1024B0001CC0C65DDE4F88819981AA81BB81CA524A
:1024C000D1406CCFC12CD12CE0E8EE2EE0E4FE2E02
:1024D000C9CFC65EDE4F88819981AA81BB81CA516E
:1024E000D14089839A83AB83BC8322E0AE014D56F1
:1024F0005F4F64E0C8010E94C305CC56DF4F88815E
:10250000C459D040863009F053C1CD56DF4F888181
:10251000C359D040A7968FAFA7976C968EAD9FAD4D
:102520006C978230910509F445C18330910509F417
:1025300073C1892B09F099C1CA5EDE4F88819981E8
:10254000AA81BB81C651D140CD56DF4F8883998384
:10255000AA83BB83C359D04088E0D8011D928A95D5
:10256000E9F728E0A80164E0CE018D569F4F0E9454
:10257000C3058885863009F078C12F81B0E12B9F93
:10258000A0011124407F53709E81292F30E064E028
:10259000359527956A95E1F7242B352B8D8190E0B1
:1025A000982F8827882793704C81842B820F931F44
:1025B000498142954695469543702A81E4E02E9FD5
:1025C00090011124242B820F931FA6969FAF8EAFEC
:1025D000A697C65FDE4F288139814A815B81CA5048
:1025E000D140CD56DF4F288339834A835B83C3595B
:1025F000D04085E0D8011D928A95E9F725E0A80131
:1026000064E0CE018D569F4F0E94C3058D818630B8
:1026100009F02EC189819A81AB81BC81AB968CAFC8
:102620009DAFAEAFBFAFAB970E94FB0883E193E0D5
:102630000E94DB09CE01C6960E94EB0885E293E07A
:102640000E94DB0910E000E0C85FDE4FE881F981FD
:10265000C850D1408085803120F487E393E00E9408
:10266000DB09C85FDE4FA881B981C850D1401896F8
:102670006C9170E090E080E040E10E946B080730D0
:10268000110521F083E994E00E94DB090F5F1F4FE1
:10269000C85FDE4FE881F981C850D1403196C85FEC
:1026A000DE4FF983E883C850D1400830110561F648
:1026B0000E94670889E393E00E94DB096C966EAD87
:1026C0007FAD6C97072E000C880B990B97FFF2C01B
:1026D0000E94AF080E9467088BE493E00E94DB0928
:1026E00027966FAD279770E090E080E04AE00E9467
:1026F0006B088BE594E00E94DB0927968FAD279746
:102700008D3008F0DBC08DE593E00E94DB098DE0A1
:1027100094E00E94EB0888E893E00E94DB092D9684
:102720006CAD7DAD8EAD9FAD2D9741E00E94FF0851
:102730008AE993E00E94EB080E94FB088EE993E08F
:102740000E94DB0964968FAD6497882309F4BEC0AC
:102750008DE991E00E94EB0880EB93E00E94DB0999
:1027600065968FAD6597882309F4B3C084EA91E03C
:102770000E94EB0882EC93E00E94DB092F968FAD5C
:102780002F97813009F49EC208F4A6C0853009F461
:102790009CC28F3009F49CC20E94DA08A1C0C25EBC
:1027A000DE4F288139814A815B81CE51D1407CCE78
:1027B00080E0B0CEC25FDE4F288139814A815B81E3
:1027C000CE50D140CD56DF4F288339834A835B8377
:1027D000C359D04088E0D8011D928A95E9F728E0D6
:1027E000A80164E0CE018D569F4F0E94C3058885E5
:1027F0008630D9F529818B81E22FE80FFF27FF1F53
:102800002C812E0F3F2F311D8E81280F311D8F817E
:10281000820F932F911DD9CECE5EDE4F2881398154
:102820004A815B81C251D140CD56DF4F2883398325
:102830004A835B83C359D04086E0D8011D928A95B4
:10284000E9F726E0A80164E0CE018D569F4F0E9473
:10285000C3058E81863049F489819B81E82FE90F79
:10286000FF27FF1F9F018C81D3CF90E080E0ADCE8A
:1028700080E090E0DC01D2CEC651DF4F6881CA5EB5
:10288000D0406F7070E075956795C12CD12C20E811
:10289000E22E20E4F22E633008F442CD673009F4D2
:1028A0003CCD62507109072E000C880B990B0E94D9
:1028B000CD1A22CD4AE00E946B080CCF8E3118F45D
:1028C0008BE693E022CF89E793E01FCF8BE991E07D
:1028D00041CF88EA91E04CCF84ED93E00E94EB0871
:1028E0008BE096E00E94DB0966968FAD66978823A1
:1028F00009F4F1C188ED93E00E94EB088FE196E0C6
:102900000E94DB0967968FAD6797882309F4E6C1BB
:1029100088ED93E00E94EB0883E396E00E94DB09D8
:1029200068968FAD6897882309F4DBC188ED93E042
:102930000E94EB088FE094E00E94DB0969968FAD5E
:102940006997882309F4D0C188ED93E00E94EB08D1
:1029500081E294E00E94DB096A968FAD6A97882332
:1029600009F4C5C188ED93E00E94EB080E94FB08C2
:1029700083E394E00E94DB0963966EAD7FAD6397BD
:1029800090E080E04AE00E946B080E94670885E4BE
:1029900094E00E94DB09A0966CAD7DAD8EAD9FAD3D
:1029A000A09742E00E94FF0887E594E00E94DB09BF
:1029B000A096CCACDDACEEACFFACA09720E030E054
:1029C000A901C701B6010E947D1B20E030E040E074
:1029D0005FE387FD8FC1C701B6010E94B2190E9453
:1029E000951A8B01F12CE12C80EB91E0E016F106B9
:1029F00014F08AE891E00E94DB09FFEFEF1AFF0A6A
:102A000024E0E216F10481F78DE094E00E94EB08E7
:102A10006C968EAD9FAD6C97009721F00297029750
:102A200008F085C08FE594E00E94DB09A7968FAD82
:102A3000A7970E94DA0881E794E00E94DB09A69636
:102A40006EAD7FADA69790E080E04AE00E946B08F3
:102A50000E946708A796FFACA797FF2089F16396AD
:102A60000EAD1FAD63970115110551F183E894E098
:102A70000E94DB096F2D70E090E080E00E94CD1A8B
:102A800020E030E048EC52E40E94821B6B017C01A4
:102A9000B80190E080E00E94CB1A9B01AC01C70115
:102AA000B6010E94231A20E030E040E850E40E9482
:102AB000B21941E00E94FF0885E994E00E94EB080A
:102AC000A696EEACFFACA697E114F10481F16396F3
:102AD0000EAD1FAD63970115110549F188E994E02A
:102AE0000E94DB09B70190E080E00E94CB1A20E051
:102AF00030E048EC52E40E94821B6B017C01B8017B
:102B000090E080E00E94CB1A9B01AC01C701B601A6
:102B10000E94231A20E030E040E850E40E94B219FD
:102B200041E00E94FF0885E994E00E94EB086C9662
:102B30008EAD9FAD6C970597029708F046C06096E2
:102B40006FAD609770E090E080E00E94CD1A20E0C9
:102B500030E040EA50EC0E94821B20E030E040E28E
:102B600053E40E94B2194B015C0161966FAD61970D
:102B700070E090E080E00E94CD1A20E030E040EA72
:102B800050E40E94821B20E030E040E253E40E94C7
:102B9000B1196B017C0183E894E00E94DB0941E0FC
:102BA000C501B4010E94FF0885E994E00E94EB088A
:102BB00088E994E00E94DB0941E0C701B6010E9468
:102BC000FF0885E994E00E94EB0820E030EC49E73B
:102BD00054ECA4966CAD7DAD8EAD9FADA4970E94D4
:102BE0001E1A882389F08AEA94E00E94DB09A496E1
:102BF0006CAD7DAD8EAD9FADA49741E00E94FF0806
:102C00008CEB94E00E94EB080E94FB08B301A20148
:102C10008FEB94E00E94DD09D1018C9011969C907D
:102C200011971296AC9012971396BC90240135011F
:102C3000D12CC12C28968FAD28978C151D0409F036
:102C40000CF45DC0BFEFCB1ADB0ADF92CF92E1ED4F
:102C5000F4E0FF93EF931F9236E13F9341E050E0A1
:102C60004C0F5D1F5F934F930E94191DD1014D9131
:102C70005D916D917D911D01CE0101960E94DD094E
:102C8000F1013497E080F180028113810FB6F8944E
:102C9000DEBF0FBECDBF9401A501B701C8010E94E0
:102CA0007D1B181614F4470158019201A301B701C6
:102CB000C8010E941E1A87FD02C07201830127010C
:102CC0003801B8CF8BED93E009CE8AEE93E006CEC3
:102CD00086EF93E003CE8BEA91E00ECE8BEA91E093
:102CE00019CE8BEA91E024CE8BEA91E02FCE8BEACD
:102CF00091E03ACEC701B6010E94B11970CE92019F
:102D0000A301B401C5010E94B119AB01BC0184EE5D
:102D100094E00E94DD096C968EAD9FAD6C97009794
:102D200021F00297029708F051C0AB966CAD7DADD3
:102D30008EAD9FADAB97611571058105910509F4C5
:102D400045C029961FAD2997112309F43FC00E9461
:102D5000CB1A6B017C01612F70E090E080E00E9453
:102D6000CD1A9B01AC01C701B6010E94231A20E0D5
:102D700030E044E355E40E94231A6B017C0120E01B
:102D800030E040E251E40E941E1A01E010E087FDAD
:102D900010C020E030E040E251E4C701B6010E94DB
:102DA000231A0E94951A8B016830710514F007E010
:102DB00010E00E94FB0886EF94E00E94DB09C80146
:102DC0000E94D00888E095E00E94EB080E94FB0872
:102DD0008DE095E00E94DB098E010D521F4FF12C12
:102DE000E12C6801D8018D918D01803120F487E3B9
:102DF00093E00E94DB09F8013197608170E090E078
:102E000080E040E10E946B08BFE1EB16F10421F085
:102E100083E994E00E94DB09EFEFEE1AFE0AF0E28C
:102E2000EF16F104F9F60E9467080E94FB08649609
:102E30008FAD6497811116C08FE195E00E94EB0879
:102E40000E94500883E090E00E9485060E9450088E
:102E50000E94FB088CE098E00E94EB080E944B0562
:102E60000C94750E81E395E00E94DB092F968FADDF
:102E70002F970E94DA082F968FAD2F978F3039F455
:102E800080E595E00E94EB080E944B08E1CF6C962C
:102E90008EAD9FAD6C97009781F00297029768F016
:102EA0008FE795E00E94DB096C968EAD9FAD6C9725
:102EB0000E94D00886EA95E0E5CF8DEB95E00E9470
:102EC000EB0840E06CE380E50E94240782E090E09C
:102ED0000E9485060E944B0566E970E080E090E064
:102EE0000E94620288EC90E00E944F050E940B074E
:102EF0008E010F5F1F4F81E1D8011D928A95E9F77E
:102F000029E0A80162E08DE391E00E945D0562E3A3
:102F100070E080E090E00E9462020E945F0662E33F
:102F200070E080E090E00E946202C6010E941706F5
:102F3000811107C085EE95E00E94EB0882EF97E0D3
:102F4000A1CFBE016A5C7F4FC6010E940B0489E0DD
:102F500096E00E94DB0966968FAD6697882351F153
:102F600088ED93E00E94EB088DE196E00E94DB097A
:102F700067968FAD6797882301F188ED93E00E94F3
:102F8000EB0881E396E00E94DB0968968FAD6897B5
:102F90008823B1F088ED93E00E94EB0864968FAD32
:102FA0006497811110C085E496E00E94EB0883EDE0
:102FB00097E044CF8BEA91E0D5CF8BEA91E0DFCF69
:102FC0008BEA91E0E9CF66968FAD6697882369F02A
:102FD00067968FAD6797882341F068968FAD6897A5
:102FE000882319F084E596E0A7CF8DE896E00E944B
:102FF000EB088CEB96E00E94EB0840E560E080E592
:103000000E94240782E090E00E94850680E2F6019B
:10301000DE01AD54BF4F01900D928A95E1F74FE06C
:1030200050E070E060E0CE018D549F4F0E94C603D7
:10303000482F69E270E0CE018D549F4F0E94A20399
:103040004FE150E060E170E0CE018D549F4F0E944F
:10305000C603482F6AE270E0CE018D549F4F0E9454
:10306000A20348E250E060E270E0CE018D549F4F31
:103070000E94C603482F6BE270E0CE018D549F4F33
:103080000E94A2034FE250E06CE270E0CE018D544A
:103090009F4F0E94C603482F6EE370E0CE018D540F
:1030A0009F4F0E94A2034DE350E060E370E0CE0129
:1030B0008D549F4F0E94C603482F6FE370E0CE01EE
:1030C0008D549F4F0E94A2038BED96E00E94EB0867
:1030D00088EF96E00E94DB09FE01ED54FF4F5F018F
:1030E000F12CE12CD5018D915D01803120F487E335
:1030F00093E00E94DB09F5013197608170E090E078
:1031000080E040E10E946B08BFE1EB16F10421F082
:1031100083E994E00E94DB09EFEFEE1AFE0AF0E289
:10312000EF16F104F9F60E9467080E940B0780E28F
:10313000B82ED801EB2D1D92EA95E9F720E2A801FF
:1031400062E081E491E00E94C3056AE070E080E003
:1031500090E00E94620283E38983FE01ED54FF4FF9
:10316000DE0112968B2D01900D928A95E1F77E017A
:10317000F3E9EF0EF11C98E0A92ED701EA2D1D927C
:10318000EA95E9F720E0A70161E2C8010E945D0528
:1031900064E170E080E090E00E946202D8011D923C
:1031A000AA94E9F720E0A80162E08FE391E00E9491
:1031B0005D0562E370E080E090E00E9462020E94A0
:1031C0005F060E944B0566E970E080E090E00E9497
:1031D000620288EC90E00E944F05F7011192BA94C8
:1031E000E9F7C7010E941706811107C082E097E046
:1031F0000E94EB088AEB97E09FCE85E3D8011D92F1
:103200008A95E9F7B801C7010E940B0481E397E0B2
:103210000E94DB0988A1882369F188ED93E00E9470
:10322000EB0882E597E00E94DB0989A1882329F158
:1032300088ED93E00E94EB0883E797E00E94DB09AA
:103240008AA18823E9F088ED93E00E94EB088E8D37
:103250008111D0CF80E2F701D60101900D928A95BD
:10326000E1F7BE016A5C7F4FC6010E940B0484E94E
:1032700097E09BCE8BEA91E0D2CF8BEA91E0DACF58
:103280008BEA91E0E2CF8091CF089091D0080E9424
:10329000901C8091CC089091CD0897FD03C060E010
:1032A0000C940C020895AA1BBB1B51E107C0AA1F76
:1032B000BB1FA617B70710F0A61BB70B881F991FD7
:1032C0005A95A9F780959095BC01CD010895A1E28A
:1032D0001A2EAA1BBB1BFD010DC0AA1FBB1FEE1F90
:1032E000FF1FA217B307E407F50720F0A21BB30BDB
:1032F000E40BF50B661F771F881F991F1A9469F757
:1033000060957095809590959B01AC01BD01CF01B2
:1033100008950E94A219A59F900DB49F900DA49F9F
:10332000800D911D11240895B7FF0C9489190E94F6
:103330008919821B930B0895EE0FFF1F0590F491DE
:10334000E02D0994A29FB001B39FC001A39F700D0F
:10335000811D1124911DB29F700D811D1124911D9D
:1033600008955058BB27AA270E94C9190C94431BE3
:103370000E94351B38F00E943C1B20F039F49F3F1F
:1033800019F426F40C94321B0EF4E095E7FB0C9430
:103390002C1BE92F0E94541B58F3BA1762077307BE
:1033A0008407950720F079F4A6F50C94761B0EF4AB
:1033B000E0950B2EBA2FA02D0B01B90190010C0145
:1033C000CA01A0011124FF27591B99F0593F50F45D
:1033D000503E68F11A16F040A22F232F342F4427B5
:1033E000585FF3CF469537952795A795F0405395AD
:1033F000C9F77EF41F16BA0B620B730B840BBAF07D
:103400009150A1F0FF0FBB1F661F771F881FC2F7E7
:103410000EC0BA0F621F731F841F48F487957795FB
:103420006795B795F7959E3F08F0B0CF9395880FB5
:1034300008F09927EE0F9795879508950E94081B2D
:1034400008F481E008950E94371A0C94431B0E94EF
:103450003C1B58F00E94351B40F029F45F3F29F0D7
:103460000C942C1B51110C94771B0C94321B0E9452
:10347000541B68F39923B1F3552391F3951B550B16
:10348000BB27AA2762177307840738F09F5F5F4F37
:10349000220F331F441FAA1FA9F335D00E2E3AF076
:1034A000E0E832D091505040E695001CCAF72BD08E
:1034B000FE2F29D0660F771F881FBB1F26173707DF
:1034C0004807AB07B0E809F0BB0B802DBF01FF2711
:1034D00093585F4F3AF09E3F510578F00C942C1BA7
:1034E0000C94771B5F3FE4F3983ED4F38695779571
:1034F0006795B795F7959F5FC9F7880F911D9695CA
:10350000879597F90895E1E0660F771F881FBB1F25
:10351000621773078407BA0720F0621B730B840BD2
:10352000BA0BEE1F88F7E09508950E949C1A6894E4
:10353000B1110C94771B08950E945C1B88F09F5773
:1035400098F0B92F9927B751B0F0E1F0660F771FC7
:10355000881F991F1AF0BA95C9F714C0B13091F0BD
:103560000E94761BB1E008950C94761B672F782F8C
:103570008827B85F39F0B93FCCF386957795679582
:10358000B395D9F73EF490958095709561957F4FEE
:103590008F4F9F4F0895E89409C097FB3EF4909594
:1035A0008095709561957F4F8F4F9F4F9923A9F01C
:1035B000F92F96E9BB279395F695879577956795AB
:1035C000B795F111F8CFFAF4BB0F11F460FF1BC0EF
:1035D0006F5F7F4F8F4F9F4F16C0882311F096E982
:1035E00011C0772321F09EE8872F762F05C0662330
:1035F00071F096E8862F70E060E02AF09A95660FE9
:10360000771F881FDAF7880F9695879597F90895A1
:10361000990F0008550FAA0BE0E8FEEF16161706E3
:10362000E807F907C0F012161306E407F50798F04B
:10363000621B730B840B950B39F40A2661F0232B64
:10364000242B252B21F408950A2609F4A140A695E0
:103650008FEF811D811D089597F99F6780E870E0C5
:1036600060E008959FEF80EC089500240A941616F8
:10367000170618060906089500240A941216130660
:10368000140605060895092E0394000C11F48823EE
:1036900052F0BB0F40F4BF2B11F460FF04C06F5F0A
:1036A0007F4F8F4F9F4F089557FD9058440F551FE0
:1036B00059F05F3F71F04795880F97FB991F61F0B4
:1036C0009F3F79F087950895121613061406551F2B
:1036D000F2CF4695F1DF08C0161617061806991F97
:1036E000F1CF86957105610508940895E894BB278C
:1036F00066277727CB0197F908950E94081B08F4E5
:103700008FEF08950E94951B0C94431B0E94351B5C
:1037100038F00E943C1B20F0952311F00C942C1BD8
:103720000C94321B11240C94771B0E94541B70F3D1
:10373000959FC1F3950F50E0551F629FF001729F56
:10374000BB27F00DB11D639FAA27F00DB11DAA1F65
:10375000649F6627B00DA11D661F829F2227B00DB2
:10376000A11D621F739FB00DA11D621F839FA00D3D
:10377000611D221F749F3327A00D611D231F849F8D
:10378000600D211D822F762F6A2F11249F575040E4
:103790009AF0F1F088234AF0EE0FFF1FBB1F661F5F
:1037A000771F881F91505040A9F79E3F510580F028
:1037B0000C942C1B0C94771B5F3FE4F3983ED4F3DE
:1037C000869577956795B795F795E7959F5FC1F7CC
:1037D000FE2B880F911D9695879597F908950E9465
:1037E000081B880B990B08950F931F93CF93DF93BA
:1037F0008230910510F482E090E0E091EC08F091C5
:10380000ED0830E020E0B0E0A0E0309799F4211519
:10381000310509F44AC0281B390B24303105D8F58D
:103820008A819B816115710589F1FB0193838283F4
:10383000FE0111C04081518102811381481759074F
:10384000E0F04817590799F4109761F012960C931D
:10385000129713961C933296CF01DF91CF911F914F
:103860000F9108950093EC081093ED08F4CF211503
:10387000310551F04217530738F0A901DB019A01D5
:10388000BD01DF01F801C1CFEF01F9CF9093ED0841
:103890008093EC08CDCFFE01E20FF31F819391934B
:1038A0002250310939832883D7CF2091EA083091FB
:1038B000EB08232B41F42091020130910301309356
:1038C000EB082093EA0820910001309101012115B5
:1038D000310541F42DB73EB74091040150910501E7
:1038E000241B350BE091EA08F091EB08E217F3078F
:1038F000A0F42E1B3F0B2817390778F0AC014E5F60
:103900005F4F2417350748F04E0F5F1F5093EB08A9
:103910004093EA08819391939FCFF0E0E0E09CCF41
:10392000CF93DF930097E9F0FC0132971382128264
:10393000A091EC08B091ED08ED0130E020E0109787
:10394000A1F420813181820F931F2091EA083091E8
:10395000EB082817390709F061C0F093EB08E093F2
:10396000EA08DF91CF910895EA01CE17DF07E8F565
:103970004A815B819E0141155105B1F7E901FB8345
:10398000EA8349915991C40FD51FEC17FD0761F4E3
:10399000808191810296840F951FE9019983888324
:1039A000828193819B838A83F0E0E0E012968D917F
:1039B0009C9113970097B9F52D913C911197CD01EA
:1039C0000296820F931F2091EA083091EB08281786
:1039D000390739F6309751F51092ED081092EC083E
:1039E000B093EB08A093EA08BCCFD383C283408195
:1039F0005181840F951FC817D90761F44E5F5F4F3F
:103A000088819981480F591F518340838A819B8106
:103A1000938382832115310509F0B0CFF093ED082F
:103A2000E093EC089ECFFD01DC01C0CF138212822F
:103A3000D7CFAEE0B0E0EFE1FDE10C94D51F0D89EA
:103A40001E898F89988D26E02C831A83098397FF1E
:103A500002C080E090E801979E838D83AE01455EB1
:103A60005F4F698D7A8DCE0101960E94491D4D816F
:103A70005E8157FD0AC02F813885421753070CF429
:103A80009A01020F131FF80110822E96E4E00C94A5
:103A9000F11FABE0B0E0EFE4FDE10C94C71F7C0147
:103AA0003B018A01FC0117821682838181FFC8C114
:103AB000CE0101965C01F7019381F30193FD85919D
:103AC00093FF81913F01882309F453C1853239F472
:103AD00093FD859193FF81913F01853229F4B701D0
:103AE00090E00E94391FE7CF912C212C312CFFE16F
:103AF000F31538F08B3211F190F4803209F18332F2
:103B000029F137FC3CC020ED280F2A3050F536FE55
:103B100020C08AE0989E200D1124922E06C08D327E
:103B200091F0803371F7689430F8F30193FD85913B
:103B300093FF81913F018111DACF21C0689431F860
:103B4000689432F8F2CF689433F8EFCF689434F881
:103B5000ECCFEAE02E9E200D1124222E689435F839
:103B6000E4CF8E3229F436FC04C1689436F8DDCFF8
:103B70008C3619F4689437F8D8CF8836B1F2982F7C
:103B80009F7D95549330E0F08336A1F18337C1F1E6
:103B9000833509F063C02801F2E04F0E511CF80193
:103BA000C080D180692D70E036FC02C06FEF7FEFDE
:103BB000C6010E94231F4C01689437F882010AC095
:103BC0000C5F1F4FFFE3F98388248394912C6501D8
:103BD000E89437F833FE2DC0522C8114910471F50E
:103BE000552009F468CFB70180E290E00E94391FA8
:103BF0005A94F6CFF801808189830E5F1F4FE4CF7E
:103C00002801F2E04F0E511CF801C080D180692DCF
:103C100070E036FC02C06FEF7FEFC6010E942E1FDE
:103C20004C018201D5CFB70180E290E00E94391F9C
:103C30002A942814190409F0B0F7CECFF60137FC06
:103C4000859137FE81916F01B70190E00E94391F85
:103C500051105A94F1E08F1A9108BFCF843619F0B1
:103C6000893609F077C0F80137FE6BC06081718139
:103C7000828193810C5F1F4FF32DFF763F2E97FFBC
:103C800009C090958095709561957F4F8F4F9F4F9C
:103C9000689437F82AE030E0A5010E94691FC82E19
:103CA000CA188C2C432C36FE0CC0E89440F8C9147A
:103CB00040F434FE05C032FC03C0F32DFE7E4F2ECF
:103CC000892C44FE95C0FE01EC0DF11D80818033EE
:103CD00009F087C0242D297E422E842D8870582E0D
:103CE00043FC95C040FE8FC09C2C821418F42C0C11
:103CF000922C981844FE91C0B70180E390E00E9496
:103D0000391F42FE09C088E790E041FE02C088E505
:103D100090E0B7010E94391FC91408F48AC0CA9400
:103D2000D12C9FEFC91AD90ACA0CDB1CF60182916B
:103D30006F01B70190E00E94391FAC14BD04B1F7C8
:103D40004FCF60817181072E000C880B990B0E5F9D
:103D50001F4F92CFD32CE894D4F82AE030E0853777
:103D600039F1232D297FD22E8F3601F148F4883581
:103D7000A9F0F701868197812B96E2E10C94E31F6D
:103D8000803749F08837A9F7D4FE02C06894D2F88A
:103D900020E130E00DC06894D4F8F6CF34FE03C0C3
:103DA000822F8660D82E20E132E002C028E030E089
:103DB000F801D7FE0FC060817181828193810C5F11
:103DC0001F4FA5010E94691FC82ECA183D2CE894F8
:103DD00037F867CF6081718190E080E00E5F1F4F00
:103DE000F0CF42FC02C0839478CF8394839475CF44
:103DF000842D867809F471CFF6CFB70180E290E088
:103E00000E94391F83948214C0F3512C73CF522C1B
:103E10005818821408F46ECFF8CF842D867809F4F0
:103E20007BCF8BE241FE80E247FC8DE2B70190E060
:103E300071CFB70180E390E00E94391F9A946CCF54
:103E40008FEF9FEF99CFFC010590615070400110FA
:103E5000D8F7809590958E0F9F1F0895FC016150B3
:103E6000704001900110D8F7809590958E0F9F1F9C
:103E700008950F931F93CF93DF93182F092FEB0112
:103E80008B8181FD09C01FEF0FEF812F902FDF91F4
:103E9000CF911F910F91089582FF14C02E813F8111
:103EA0008C819D81281739073CF4E881F981CF0185
:103EB00001969983888310838E819F8101969F83C9
:103EC0008E83E3CFE885F985812F0995892BA1F3AE
:103ED000DACFFA01AA27283051F1203181F1E89494
:103EE0006F936E7F6E5F7F4F8F4F9F4FAF4FB1E0ED
:103EF0003ED0B4E03CD0670F781F891F9A1FA11DE8
:103F0000680F791F8A1F911DA11D6A0F711D811DE8
:103F1000911DA11D20D009F468943F912AE0269FAD
:103F200011243019305D3193DEF6CF010895462F0C
:103F30004770405D4193B3E00FD0C9F7F6CF462FED
:103F40004F70405D4A3318F0495D31FD4052419356
:103F500002D0A9F7EACFB4E0A69597958795779513
:103F60006795BA95C9F700976105710508959B019A
:103F7000AC010A2E06945795479537952795BA9523
:103F8000C9F7620F731F841F951FA01D08952F92FC
:103F90003F924F925F926F927F928F929F92AF92D9
:103FA000BF92CF92DF92EF92FF920F931F93CF9326
:103FB000DF93CDB7DEB7CA1BDB0B0FB6F894DEBFBD
:103FC0000FBECDBF09942A88398848885F846E84E3
:103FD0007D848C849B84AA84B984C884DF80EE802D
:103FE000FD800C811B81AA81B981CE0FD11D0FB636
:103FF000F894DEBF0FBECDBFED01089510E0C2E61C
:10400000D0E004C0FE010E949C192196C336D1075E
:06401000C9F7F894FFCF90
:104016000000EE088000D9FFFFD7190004D65F051F
:1040260007D65B0304D48D0007D68D0501D6090398
:1040360001D4BA0001D6040502D6380202D45001D2
:1040460002D70E0002D700000CD42C0002DA045569
:10405600A5F000DA34DA31D996A500000000350360
:104066009502C2028203F302D102E5020D0A002D77
:104076002D2D2D2D2D2D2D2D2D2D2D2D2D2D2D2D6A
:104086002D2D2D2D2D2D2D2D2D2D2D2D2D2D2D2D5A
:104096002D2D2D2D2D2D2D2D2D2D2D006E616E00EE
:1040A600696E66006F766600205600554E4C4F438B
:1040B6004B454400594553004E6F004641494C005C
:1040C60023003D3D3D3D3D3D3D3D3D3D3D3D3D3D71
:1040D6003D3D3D3D3D3D3D3D3D3D3D3D3D3D3D3D0A
:1040E6003D3D3D3D3D3D3D3D3D3D3D3D3D3D002054
:1040F600204D616B697461204D6F6E69746F72003B
:104106002020277327203D2072657363616E207C13
:10411600206175746F2D6465746563747320636FB5
:104126006E6E6563742F646973636F6E6E65637418
:104136000057616974696E6720666F7220626174E8
:10414600746572792E2E2E004D616E75616C20722B
:10415600657363616E207265717565737465642E2F
:104166000042617474657279206465746563746570
:104176006420E28094207374617274696E672073A0
:1041860063616E2E0020204261747465727920721C
:10419600656D6F7665642E2057616974696E672E4A
:1041A6002E2E0020204D616B697461204D6F6E6963
:1041B600746F72202D205363616E6E696E672E2EAA
:1041C6002E004552524F523A2042617474657279FC
:1041D600206E6F7420726573706F6E64696E672EE1
:1041E6002041626F7274696E67207363616E2E0080
:1041F6004261747465727920666F756E6420203A28
:1042060020004552524F523A204E6F20726573700D
:104216006F6E73652066726F6D206261747465726D
:10422600792E004D6F64656C2020202020202020F0
:1042360020203A2000524F4D2049442020202020A3
:10424600202020203A2000300044657465637465A0
:1042560064207479706520203A2000426174746588
:10426600727920747970652020203A20003420630A
:10427600656C6C20424C3134787800352063656C6F
:104286006C20424C313878780031302063656C6C94
:1042960020424C33367878004361706163697479E3
:1042A600202020202020203A2000204168004C6F4A
:1042B600636B20737461747573202020203A20008C
:1042C60043656C6C206661696C7572652020203AC6
:1042D60020004661696C75726520636F64652020F5
:1042E600203A200030202D204F4B0031202D204F2A
:1042F6007665726C6F616465640035202D205761A8
:10430600726E696E67003135202D204372697469BB
:1043160063616C2028424D53206465616429004125
:104326007578204353756D2034342D3437203A2068
:1043360000417578204353756D2034382D36312071
:104346003A20004379636C6520636F756E74202094
:1043560020203A20004865616C74682020202020C7
:10436600202020203A2000202F2034202028004F13
:1043760044206576656E74732020202020203A2024
:10438600004F7665726C6F616420636E7420202026
:104396003A20004F442025202020202020202020C5
:1043A60020203A20002025004F7665726C6F6164EC
:1043B600202520202020203A200054656D7065724B
:1043C6006174757265202020203A20002043005039
:1043D60061636B20766F6C746167652020203A20DC
:1043E6000043656C6C20253264202020202020208C
:1043F600203A200043656C6C2064696666202020A4
:104406002020203A20005374617465206F66206373
:1044160068617267653A2000202F20370046726176
:104426006D65202020202020202020203A200042D8
:1044360061747465727920554E4C4F434B45442E3A
:104446000042617474657279204C4F434B45442E8B
:10445600204661696C75726520636F64653A200059
:10446600435249544943414C3A20424D5320636FCD
:104476006E7369646572656420646561642E2043A9
:10448600616E6E6F74207265636F7665722E00556D
:104496006E6C6F636B206E6F7420737570706F72C5
:1044A60074656420666F7220626174746572792027
:1044B6007479706520002E204E6F20756E6C6F63C8
:1044C6006B20617474656D707465642E004174743C
:1044D600656D7074696E6720636861726765722DB9
:1044E6007374796C65206175746F2D756E6C6F636E
:1044F6006B2E2E2E0020204E6F20726573706F6E0D
:10450600736520616674657220756E6C6F636B20CF
:10451600617474656D70742E002020436865636B4A
:1045260073756D20302D313520203A200020204330
:104536006865636B73756D2031362D3331203A20F3
:10454600002020436865636B73756D2033322D340C
:1045560030203A200020202D3E20554E4C4F434B14
:1045660045442E0020202D3E205374696C6C206C2F
:104576006F636B656420286E6F6E2D636865636B71
:1045860073756D20726561736F6E292E2043616E9F
:104596006E6F74207265636F7665722E0020202D13
:1045A6003E20436865636B73756D7320636F72722B
:1045B6007570742E2044412030342063616E6E6F16
:1045C600742066697820746869732E0020202D3E59
:1045D60020417474656D7074696E67206672616DD2
:1045E600652077726974652E2E2E00202057726919
:1045F60074696E6720636F727265637465642066A2
:1046060072616D652E2E2E0020204672616D653A10
:104616002000202057726974652076657269667974
:104626003A206E6F20726573706F6E7365206166D7
:1046360074657220706F776572206379636C652E7E
:104646000020205772697465207665726966792044
:10465600636865636B73756D20302D313520203AA4
:104666002000202057726974652076657269667924
:1046760020636865636B73756D2031362D33312089
:104686003A20002020577269746520766572696643
:104696007920636865636B73756D2033322D343012
:1046A600203A200020202D3E204672616D6520773D
:1046B60072697465207375636365656465642E202D
:1046C600554E4C4F434B45442E0020202D3E204650
:1046D60072616D65207772697465206661696C65C3
:1046E600642E004261747465727920737563636524
:1046F600737366756C6C7920756E6C6F636B65642D
:104706002E00436F756C64206E6F7420756E6C6F2F
:10471600636B20626174746572792E00436F6D70ED
:064726006C6574652E00B5
:00000001FF
